{
  "contractName": "FleepSweeper",
  "abi": [
    {
      "inputs": [
        {
          "internalType": "address",
          "name": "fleepSwap",
          "type": "address"
        }
      ],
      "stateMutability": "nonpayable",
      "type": "constructor"
    },
    {
      "anonymous": false,
      "inputs": [
        {
          "indexed": false,
          "internalType": "uint256",
          "name": "amount",
          "type": "uint256"
        },
        {
          "indexed": false,
          "internalType": "uint256",
          "name": "amountOut",
          "type": "uint256"
        },
        {
          "indexed": false,
          "internalType": "address",
          "name": "from",
          "type": "address"
        },
        {
          "indexed": false,
          "internalType": "uint256",
          "name": "timestamp",
          "type": "uint256"
        }
      ],
      "name": "FleepSweeped",
      "type": "event"
    },
    {
      "inputs": [
        {
          "internalType": "address[]",
          "name": "tokens",
          "type": "address[]"
        },
        {
          "internalType": "uint256[]",
          "name": "pools",
          "type": "uint256[]"
        }
      ],
      "name": "sweep",
      "outputs": [
        {
          "internalType": "uint256",
          "name": "",
          "type": "uint256"
        }
      ],
      "stateMutability": "nonpayable",
      "type": "function"
    },
    {
      "inputs": [
        {
          "internalType": "address[]",
          "name": "tokens",
          "type": "address[]"
        },
        {
          "internalType": "address",
          "name": "wallet",
          "type": "address"
        }
      ],
      "name": "estimate",
      "outputs": [
        {
          "internalType": "uint256",
          "name": "",
          "type": "uint256"
        }
      ],
      "stateMutability": "view",
      "type": "function"
    },
    {
      "inputs": [
        {
          "internalType": "uint256",
          "name": "fee",
          "type": "uint256"
        }
      ],
      "name": "updateSweepFee",
      "outputs": [],
      "stateMutability": "nonpayable",
      "type": "function"
    }
  ],
  "bytecode": "0x6080604052600160025534801561001557600080fd5b5060405161099838038061099883398101604081905261003491610059565b600180546001600160a01b0319166001600160a01b0392909216919091179055610089565b60006020828403121561006b57600080fd5b81516001600160a01b038116811461008257600080fd5b9392505050565b610900806100986000396000f3fe608060405234801561001057600080fd5b50600436106100415760003560e01c80631cf0a8b8146100465780639ed6c6f61461006b578063bf62a4351461007e575b600080fd5b61005961005436600461070f565b610093565b60405190815260200160405180910390f35b610059610079366004610761565b6102c7565b61009161008c36600461081c565b610514565b005b60008060005b84518110156102bd5760006001600160a01b03168582815181106100bf576100bf610835565b60200260200101516001600160a01b031603156102ab5760008582815181106100ea576100ea610835565b60209081029190910101516040516370a0823160e01b81526001600160a01b0387811660048301529192506000918316906370a0823190602401602060405180830381865afa158015610141573d6000803e3d6000fd5b505050506040513d601f19601f82011682018060405250810190610165919061084b565b60015488519192506001600160a01b03169063102a5f919089908690811061018f5761018f610835565b6020026020010151600160009054906101000a90046001600160a01b03166001600160a01b0316638a2627f06040518163ffffffff1660e01b8152600401602060405180830381865afa1580156101ea573d6000803e3d6000fd5b505050506040513d601f19601f8201168201806040525081019061020e9190610864565b6040517fffffffff0000000000000000000000000000000000000000000000000000000060e085901b1681526001600160a01b0392831660048201529116602482015260448101849052606401602060405180830381865afa158015610278573d6000803e3d6000fd5b505050506040513d601f19601f8201168201806040525081019061029c919061084b565b6102a6908561089e565b935050505b806102b5816108b1565b915050610099565b5090505b92915050565b60008060005b84518110156102bd5760006001600160a01b03168582815181106102f3576102f3610835565b60200260200101516001600160a01b0316031561050257600085828151811061031e5761031e610835565b60209081029190910101516040516370a0823160e01b81523360048201529091506000906001600160a01b038316906370a0823190602401602060405180830381865afa158015610373573d6000803e3d6000fd5b505050506040513d601f19601f82011682018060405250810190610397919061084b565b60015488519192506001600160a01b03169063fe029156908990869081106103c1576103c1610835565b6020026020010151600160009054906101000a90046001600160a01b03166001600160a01b0316638a2627f06040518163ffffffff1660e01b8152600401602060405180830381865afa15801561041c573d6000803e3d6000fd5b505050506040513d601f19601f820116820180604052508101906104409190610864565b848a888151811061045357610453610835565b60209081029190910101516040517fffffffff0000000000000000000000000000000000000000000000000000000060e087901b1681526001600160a01b039485166004820152939092166024840152604483015260648201526084016020604051808303816000875af11580156104cf573d6000803e3d6000fd5b505050506040513d601f19601f820116820180604052508101906104f3919061084b565b6104fd908561089e565b935050505b8061050c816108b1565b9150506102cd565b6000546001600160a01b031633146105735760405162461bcd60e51b815260206004820152600d60248201527f4f6e6c79204465706c6f7965720000000000000000000000000000000000000060448201526064015b60405180910390fd5b600081116105c35760405162461bcd60e51b815260206004820152601b60248201527f506c6174666f726d206665652063616e6e6f74206265207a65726f0000000000604482015260640161056a565b606481106106135760405162461bcd60e51b815260206004820181905260248201527f506c6174666f726d206665652063616e6e6f7420626520612068756e64726564604482015260640161056a565b600255565b634e487b7160e01b600052604160045260246000fd5b604051601f8201601f1916810167ffffffffffffffff8111828210171561065757610657610618565b604052919050565b600067ffffffffffffffff82111561067957610679610618565b5060051b60200190565b6001600160a01b038116811461069857600080fd5b50565b600082601f8301126106ac57600080fd5b813560206106c16106bc8361065f565b61062e565b82815260059290921b840181019181810190868411156106e057600080fd5b8286015b848110156107045780356106f781610683565b83529183019183016106e4565b509695505050505050565b6000806040838503121561072257600080fd5b823567ffffffffffffffff81111561073957600080fd5b6107458582860161069b565b925050602083013561075681610683565b809150509250929050565b6000806040838503121561077457600080fd5b823567ffffffffffffffff8082111561078c57600080fd5b6107988683870161069b565b93506020915081850135818111156107af57600080fd5b85019050601f810186136107c257600080fd5b80356107d06106bc8261065f565b81815260059190911b820183019083810190888311156107ef57600080fd5b928401925b8284101561080d578335825292840192908401906107f4565b80955050505050509250929050565b60006020828403121561082e57600080fd5b5035919050565b634e487b7160e01b600052603260045260246000fd5b60006020828403121561085d57600080fd5b5051919050565b60006020828403121561087657600080fd5b815161088181610683565b9392505050565b634e487b7160e01b600052601160045260246000fd5b808201808211156102c1576102c1610888565b6000600182016108c3576108c3610888565b506001019056fea2646970667358221220bbcdb005e1cefc9d5b81bb569d753cf0b37d6bf2d49ce542a7df658689a6792f64736f6c63430008100033",
  "immutableReferences": {},
  "source": "// SPDX-License-Identifier: GPL-3.0\npragma solidity >=0.7.0 <0.9.0;\n\nimport {PriceApi} from \"./PriceApi.sol\";\nimport {FleepSwap} from \"./FleepSwap.sol\";\nimport {IERC20} from \"@openzeppelin/contracts/token/ERC20/IERC20.sol\";\n\ncontract FleepSweeper {\n    address private _deployer;\n    FleepSwap private _fleepSwap;\n\n    // charges 1% fee on every successful\n    // sweeps\n    uint private sweepFee = 1;\n\n    // registers every successful swap\n    event FleepSweeped(\n        uint256 amount,\n        uint256 amountOut,\n        address from,\n        uint timestamp\n    );\n\n    constructor(address fleepSwap) {\n        _fleepSwap = FleepSwap(fleepSwap);\n    }\n\n    function sweep(address[] memory tokens, uint[] memory pools)\n        public\n        returns (uint256)\n    {\n        uint256 amount1;\n\n        for (uint index = 0; index < tokens.length; index++) {\n            if (tokens[index] == address(0)) continue;\n\n            IERC20 token = IERC20(tokens[index]);\n            uint256 amount0 = token.balanceOf(msg.sender);\n\n            amount1 += _fleepSwap.swap(\n                tokens[index],\n                _fleepSwap.getNativePair(),\n                amount0,\n                pools[index]\n            );\n        }\n\n        return amount1;\n    }\n\n    function estimate(address[] memory tokens, address wallet)\n        public view\n        returns (uint256)\n    {\n        uint256 amount1;\n\n        for (uint index = 0; index < tokens.length; index++) {\n            if (tokens[index] == address(0)) continue;\n\n            IERC20 token = IERC20(tokens[index]);\n            uint256 amount0 = token.balanceOf(wallet);\n\n            amount1 += _fleepSwap.estimate(\n                tokens[index],\n                _fleepSwap.getNativePair(),\n                amount0\n            );\n        }\n\n        return amount1;\n    }\n\n    function updateSweepFee(uint fee) public onlyDeployer {\n        require(fee > 0, \"Platform fee cannot be zero\");\n        require(fee < 100, \"Platform fee cannot be a hundred\");\n        sweepFee = fee;\n    }\n\n    modifier onlyDeployer() {\n        require(msg.sender == _deployer, \"Only Deployer\");\n        _;\n    }\n}\n",
  "sourcePath": "C:\\Users\\Arogundade Ibrahim\\Documents\\web3\\fleep\\contracts\\FleepSweeper.sol",
  "compiler": {
    "name": "solc",
    "version": "0.8.16+commit.07a7930e.Emscripten.clang"
  },
  "schemaVersion": "3.4.10",
  "updatedAt": "2022-11-23T16:33:47.517Z",
  "devdoc": {
    "kind": "dev",
    "methods": {},
    "version": 1
  },
  "userdoc": {
    "kind": "user",
    "methods": {},
    "version": 1
  }
}