{
  "contractName": "FleepSwap",
  "abi": [
    {
      "inputs": [
        {
          "internalType": "address",
          "name": "priceApI",
          "type": "address"
        },
        {
          "internalType": "address",
          "name": "fleepToken",
          "type": "address"
        }
      ],
      "stateMutability": "nonpayable",
      "type": "constructor"
    },
    {
      "anonymous": false,
      "inputs": [
        {
          "indexed": false,
          "internalType": "uint256",
          "name": "amount",
          "type": "uint256"
        },
        {
          "indexed": false,
          "internalType": "uint256",
          "name": "amountOut",
          "type": "uint256"
        },
        {
          "indexed": false,
          "internalType": "address",
          "name": "from",
          "type": "address"
        },
        {
          "indexed": false,
          "internalType": "address",
          "name": "to",
          "type": "address"
        },
        {
          "indexed": false,
          "internalType": "uint256",
          "name": "timestamp",
          "type": "uint256"
        }
      ],
      "name": "FleepSwaped",
      "type": "event"
    },
    {
      "anonymous": false,
      "inputs": [
        {
          "indexed": false,
          "internalType": "address",
          "name": "token0",
          "type": "address"
        },
        {
          "indexed": false,
          "internalType": "address",
          "name": "token1",
          "type": "address"
        },
        {
          "indexed": false,
          "internalType": "uint256",
          "name": "amount0",
          "type": "uint256"
        },
        {
          "indexed": false,
          "internalType": "uint256",
          "name": "amount1",
          "type": "uint256"
        },
        {
          "indexed": false,
          "internalType": "address",
          "name": "provider",
          "type": "address"
        },
        {
          "indexed": false,
          "internalType": "uint256",
          "name": "timestamp",
          "type": "uint256"
        }
      ],
      "name": "LiquidityProvided",
      "type": "event"
    },
    {
      "anonymous": false,
      "inputs": [
        {
          "indexed": false,
          "internalType": "address",
          "name": "token0",
          "type": "address"
        },
        {
          "indexed": false,
          "internalType": "address",
          "name": "token1",
          "type": "address"
        },
        {
          "indexed": false,
          "internalType": "uint256",
          "name": "amount0",
          "type": "uint256"
        },
        {
          "indexed": false,
          "internalType": "uint256",
          "name": "amount1",
          "type": "uint256"
        },
        {
          "indexed": false,
          "internalType": "address",
          "name": "provider",
          "type": "address"
        }
      ],
      "name": "LiquidityRemoved",
      "type": "event"
    },
    {
      "inputs": [],
      "name": "NATIVE_PAIR",
      "outputs": [
        {
          "internalType": "address",
          "name": "",
          "type": "address"
        }
      ],
      "stateMutability": "view",
      "type": "function"
    },
    {
      "inputs": [
        {
          "internalType": "uint256",
          "name": "",
          "type": "uint256"
        }
      ],
      "name": "liquids",
      "outputs": [
        {
          "internalType": "uint256",
          "name": "id",
          "type": "uint256"
        },
        {
          "internalType": "uint256",
          "name": "poolId",
          "type": "uint256"
        },
        {
          "internalType": "uint256",
          "name": "amount0",
          "type": "uint256"
        },
        {
          "internalType": "uint256",
          "name": "amount1",
          "type": "uint256"
        },
        {
          "internalType": "address",
          "name": "provider",
          "type": "address"
        }
      ],
      "stateMutability": "view",
      "type": "function"
    },
    {
      "inputs": [
        {
          "internalType": "address",
          "name": "",
          "type": "address"
        }
      ],
      "name": "pairs",
      "outputs": [
        {
          "internalType": "address",
          "name": "",
          "type": "address"
        }
      ],
      "stateMutability": "view",
      "type": "function"
    },
    {
      "inputs": [
        {
          "internalType": "uint256",
          "name": "",
          "type": "uint256"
        }
      ],
      "name": "pools",
      "outputs": [
        {
          "internalType": "uint256",
          "name": "id",
          "type": "uint256"
        },
        {
          "internalType": "address",
          "name": "token0",
          "type": "address"
        },
        {
          "internalType": "address",
          "name": "token1",
          "type": "address"
        }
      ],
      "stateMutability": "view",
      "type": "function"
    },
    {
      "inputs": [
        {
          "internalType": "address",
          "name": "",
          "type": "address"
        }
      ],
      "name": "providers",
      "outputs": [
        {
          "internalType": "uint256",
          "name": "id",
          "type": "uint256"
        },
        {
          "internalType": "uint256",
          "name": "totalEarned",
          "type": "uint256"
        },
        {
          "internalType": "uint256",
          "name": "balance",
          "type": "uint256"
        }
      ],
      "stateMutability": "view",
      "type": "function"
    },
    {
      "inputs": [
        {
          "internalType": "address",
          "name": "token0",
          "type": "address"
        },
        {
          "internalType": "address",
          "name": "token1",
          "type": "address"
        }
      ],
      "name": "getPoolSize",
      "outputs": [
        {
          "internalType": "uint256",
          "name": "",
          "type": "uint256"
        },
        {
          "internalType": "uint256",
          "name": "",
          "type": "uint256"
        }
      ],
      "stateMutability": "view",
      "type": "function"
    },
    {
      "inputs": [
        {
          "internalType": "address",
          "name": "token0",
          "type": "address"
        },
        {
          "internalType": "address",
          "name": "token1",
          "type": "address"
        },
        {
          "internalType": "uint256",
          "name": "amount0",
          "type": "uint256"
        }
      ],
      "name": "estimate",
      "outputs": [
        {
          "internalType": "uint256",
          "name": "",
          "type": "uint256"
        }
      ],
      "stateMutability": "view",
      "type": "function"
    },
    {
      "inputs": [],
      "name": "getNativePair",
      "outputs": [
        {
          "internalType": "address",
          "name": "",
          "type": "address"
        }
      ],
      "stateMutability": "view",
      "type": "function"
    },
    {
      "inputs": [],
      "name": "unlockedProviderAccount",
      "outputs": [],
      "stateMutability": "nonpayable",
      "type": "function"
    },
    {
      "inputs": [
        {
          "internalType": "address",
          "name": "token0",
          "type": "address"
        },
        {
          "internalType": "address",
          "name": "token1",
          "type": "address"
        },
        {
          "internalType": "uint256",
          "name": "amount0",
          "type": "uint256"
        }
      ],
      "name": "swap",
      "outputs": [
        {
          "internalType": "uint256",
          "name": "",
          "type": "uint256"
        }
      ],
      "stateMutability": "payable",
      "type": "function"
    },
    {
      "inputs": [
        {
          "internalType": "address",
          "name": "token0",
          "type": "address"
        },
        {
          "internalType": "address",
          "name": "token1",
          "type": "address"
        }
      ],
      "name": "createPool",
      "outputs": [
        {
          "internalType": "uint256",
          "name": "",
          "type": "uint256"
        }
      ],
      "stateMutability": "nonpayable",
      "type": "function"
    },
    {
      "inputs": [
        {
          "internalType": "uint256",
          "name": "amount0",
          "type": "uint256"
        },
        {
          "internalType": "uint256",
          "name": "poolId",
          "type": "uint256"
        }
      ],
      "name": "provideLiquidity",
      "outputs": [
        {
          "internalType": "uint256",
          "name": "",
          "type": "uint256"
        },
        {
          "internalType": "uint256",
          "name": "",
          "type": "uint256"
        }
      ],
      "stateMutability": "payable",
      "type": "function"
    },
    {
      "inputs": [
        {
          "internalType": "uint256",
          "name": "id",
          "type": "uint256"
        }
      ],
      "name": "removeLiquidity",
      "outputs": [],
      "stateMutability": "nonpayable",
      "type": "function"
    },
    {
      "inputs": [
        {
          "internalType": "uint256",
          "name": "amount",
          "type": "uint256"
        }
      ],
      "name": "withDrawEarnings",
      "outputs": [],
      "stateMutability": "nonpayable",
      "type": "function"
    },
    {
      "inputs": [
        {
          "internalType": "address",
          "name": "pair",
          "type": "address"
        }
      ],
      "name": "updateNativePair",
      "outputs": [],
      "stateMutability": "nonpayable",
      "type": "function"
    },
    {
      "inputs": [
        {
          "internalType": "uint256",
          "name": "fee",
          "type": "uint256"
        }
      ],
      "name": "updateSwapFee",
      "outputs": [],
      "stateMutability": "nonpayable",
      "type": "function"
    },
    {
      "inputs": [
        {
          "internalType": "address",
          "name": "token",
          "type": "address"
        },
        {
          "internalType": "address",
          "name": "pair",
          "type": "address"
        }
      ],
      "name": "createPair",
      "outputs": [],
      "stateMutability": "nonpayable",
      "type": "function"
    },
    {
      "inputs": [
        {
          "internalType": "uint256",
          "name": "amount1",
          "type": "uint256"
        }
      ],
      "name": "_transferSwappedTokens1",
      "outputs": [
        {
          "internalType": "uint256",
          "name": "",
          "type": "uint256"
        }
      ],
      "stateMutability": "payable",
      "type": "function"
    },
    {
      "inputs": [
        {
          "internalType": "contract ERC20",
          "name": "pairedToken",
          "type": "address"
        },
        {
          "internalType": "uint256",
          "name": "pairedAmount",
          "type": "uint256"
        },
        {
          "internalType": "address",
          "name": "from",
          "type": "address"
        }
      ],
      "name": "_nativeStake",
      "outputs": [],
      "stateMutability": "payable",
      "type": "function"
    }
  ],
  "bytecode": "0x608060405260016003553480156200001657600080fd5b5060405162002a0e38038062002a0e833981016040819052620000399162000098565b600080546001600160a01b039384166001600160a01b0319918216179091556001805492909316918116919091179091556002805490911633179055620000d0565b80516001600160a01b03811681146200009357600080fd5b919050565b60008060408385031215620000ac57600080fd5b620000b7836200007b565b9150620000c7602084016200007b565b90509250929050565b61292e80620000e06000396000f3fe6080604052600436106101445760003560e01c80639c8f9f23116100c0578063df791e5011610074578063ecd44aef11610059578063ecd44aef146103ce578063eebb63ed146103ee578063fe33b3021461047257600080fd5b8063df791e501461039b578063e3433615146103ae57600080fd5b8063bf16f65a116100a5578063bf16f65a1461033b578063c9c653961461035b578063d30dce7d1461037b57600080fd5b80639c8f9f23146102ae578063ac4afa38146102ce57600080fd5b80635554b552116101175780637a16af7f116100fc5780637a16af7f146102485780638a2627f01461027057806391e5f37f1461028e57600080fd5b80635554b5521461021e5780636e3dce201461023557600080fd5b80630787bc2714610149578063102a5f91146101a557806328487873146101d3578063344bfb59146101e6575b600080fd5b34801561015557600080fd5b506101856101643660046126f6565b600a6020526000908152604090208054600182015460029092015490919083565b604080519384526020840192909252908201526060015b60405180910390f35b3480156101b157600080fd5b506101c56101c036600461271a565b6104a8565b60405190815260200161019c565b6101c56101e136600461275b565b61054f565b3480156101f257600080fd5b50600854610206906001600160a01b031681565b6040516001600160a01b03909116815260200161019c565b34801561022a57600080fd5b506102336105ab565b005b610233610243366004612774565b610874565b61025b6102563660046127b6565b6108f3565b6040805192835260208301919091520161019c565b34801561027c57600080fd5b506008546001600160a01b0316610206565b34801561029a57600080fd5b506102336102a93660046126f6565b610d39565b3480156102ba57600080fd5b506102336102c936600461275b565b610e08565b3480156102da57600080fd5b506103166102e936600461275b565b60096020526000908152604090208054600182015460029092015490916001600160a01b03908116911683565b604080519384526001600160a01b03928316602085015291169082015260600161019c565b34801561034757600080fd5b5061023361035636600461275b565b61110d565b34801561036757600080fd5b506102336103763660046127d8565b6111fc565b34801561038757600080fd5b5061023361039636600461275b565b61132d565b6101c56103a936600461271a565b611435565b3480156103ba57600080fd5b506101c56103c93660046127d8565b611c5e565b3480156103da57600080fd5b5061025b6103e93660046127d8565b611e0b565b3480156103fa57600080fd5b5061044161040936600461275b565b600b6020526000908152604090208054600182015460028301546003840154600490940154929391929091906001600160a01b031685565b6040805195865260208601949094529284019190915260608301526001600160a01b0316608082015260a00161019c565b34801561047e57600080fd5b5061020661048d3660046126f6565b6007602052600090815260409020546001600160a01b031681565b600080546001600160a01b03858116835260076020526040808420548683168552818520549151635d5530df60e11b8152908316600482015290821660248201528392919091169063baaa61be90604401602060405180830381865afa158015610516573d6000803e3d6000fd5b505050506040513d601f19601f8201168201806040525081019061053a9190612811565b90506105468184612840565b95945050505050565b600080600354606484610562919061285f565b61056c9190612840565b9050336108fc61057c8386612881565b6040518115909202916000818181858888f193505050501580156105a4573d6000803e3d6000fd5b5092915050565b336000908152600a60205260409020541561060d5760405162461bcd60e51b815260206004820152600a60248201527f4f6e6c792047756573740000000000000000000000000000000000000000000060448201526064015b60405180910390fd5b6001546040517f64614c71000000000000000000000000000000000000000000000000000000008152600a60048201526001600160a01b03909116906364614c7190602401602060405180830381865afa15801561066f573d6000803e3d6000fd5b505050506040513d601f19601f820116820180604052508101906106939190612811565b6001546040517f70a082310000000000000000000000000000000000000000000000000000000081523360048201526001600160a01b03909116906370a0823190602401602060405180830381865afa1580156106f4573d6000803e3d6000fd5b505050506040513d601f19601f820116820180604052508101906107189190612811565b101561078c5760405162461bcd60e51b815260206004820152602660248201527f596f75206d75737420686f646c206174206c6561737420313020466c6565702060448201527f546f6b656e7300000000000000000000000000000000000000000000000000006064820152608401610604565b6006805490600061079c83612894565b9091555050604080516080810182526006548152336000818152600a60208181528583206001810154828701526002810154868801529390925281526003909101805484518184028101840190955280855292936060850193909283018282801561082657602002820191906000526020600020905b815481526020019060010190808311610812575b505050919092525050336000908152600a6020908152604091829020835181558382015160018201559183015160028301556060830151805161086f926003850192019061267e565b505050565b6040516323b872dd60e01b81526001600160a01b038281166004830152306024830152604482018490528416906323b872dd906064016020604051808303816000875af11580156108c9573d6000803e3d6000fd5b505050506040513d601f19601f820116820180604052508101906108ed91906128ad565b50505050565b336000908152600a6020526040812054819081036109435760405162461bcd60e51b815260206004820152600d60248201526c27b7363c90283937bb34b232b960991b6044820152606401610604565b60648410156109b95760405162461bcd60e51b8152602060048201526024808201527f416d6f756e742063616e6e6f74206265206c6573736572207468616e2031303060448201527f20574549000000000000000000000000000000000000000000000000000000006064820152608401610604565b600083815260096020908152604080832060018101546002909101546001600160a01b039182168086526007909452919093205491929081169116610a4c5760405162461bcd60e51b815260206004820152602360248201527f5061697220646f6573206e6f74206578697374732c20436f6e7461637420616460448201526236b4b760e91b6064820152608401610604565b6001600160a01b0381811660009081526007602052604090205416610abf5760405162461bcd60e51b815260206004820152602360248201527f5061697220646f6573206e6f74206578697374732c20436f6e7461637420616460448201526236b4b760e91b6064820152608401610604565b600080610acc8733611e31565b6008546001600160a01b03878116600090815260076020526040812054949650929450919283928c928116911603610bbb57610b083a34612881565b600080546001600160a01b038a8116835260076020526040808420548b8316855293819020549051635d5530df60e11b8152938216600485015281166024840152929350919091169063baaa61be90604401602060405180830381865afa158015610b77573d6000803e3d6000fd5b505050506040513d601f19601f82011682018060405250810190610b9b9190612811565b9250610ba78382612840565b915085610bb5818433610874565b50610c68565b600080546001600160a01b03898116835260076020526040808420548a8316855293819020549051635d5530df60e11b8152938216600485015281166024840152169063baaa61be90604401602060405180830381865afa158015610c24573d6000803e3d6000fd5b505050506040513d601f19601f82011682018060405250810190610c489190612811565b9250610c548382612840565b91508686610c658282858733611ec6565b50505b8415610cc0576000848152600b602052604081206002018054839290610c8f9084906128cf565b90915550506000848152600b602052604081206003018054849290610cb59084906128cf565b90915550610ccc9050565b610ccc8a828433611fc1565b604080516001600160a01b03808a16825288166020820152908101829052606081018390523360808201524260a08201527fac838223c8dc8d877bcd4b6592254fdaf05f64d3da40ab54c09765d221073c1c9060c00160405180910390a19a909950975050505050505050565b6002546001600160a01b03163314610d835760405162461bcd60e51b815260206004820152600d60248201526c27b7363c902232b83637bcb2b960991b6044820152606401610604565b6001600160a01b038116610dd95760405162461bcd60e51b815260206004820152601460248201527f496e76616c6964205061697220416464726573730000000000000000000000006044820152606401610604565b6008805473ffffffffffffffffffffffffffffffffffffffff19166001600160a01b0392909216919091179055565b336000908152600a60205260408120549003610e565760405162461bcd60e51b815260206004820152600d60248201526c27b7363c90283937bb34b232b960991b6044820152606401610604565b6000818152600b60205260409020600401546001600160a01b03163314610ebf5760405162461bcd60e51b815260206004820152600c60248201527f556e617574686f72697a656400000000000000000000000000000000000000006044820152606401610604565b6000818152600b60209081526040808320600190810154845260098352818420825160808101845281548152918101546001600160a01b0390811683860152600282015416828401526003810180548451818702810187019095528085529294919360608601939092830182828015610f5757602002820191906000526020600020905b815481526020019060010190808311610f43575b505050919092525050506020818101516040808401516000878152600b9094529281902060020154905163a9059cbb60e01b81523360048201526024810191909152929350916001600160a01b0383169063a9059cbb906044016020604051808303816000875af1158015610fd0573d6000803e3d6000fd5b505050506040513d601f19601f82011682018060405250810190610ff491906128ad565b506000848152600b60205260409081902060030154905163a9059cbb60e01b815233600482015260248101919091526001600160a01b0382169063a9059cbb906044016020604051808303816000875af1158015611056573d6000803e3d6000fd5b505050506040513d601f19601f8201168201806040525081019061107a91906128ad565b506000848152600b6020908152604091829020600281015460039091015483516001600160a01b0380881682528616938101939093529282015260608101919091523360808201527fd18855db300cdd1baf52060b0a20e0775fdd88922464565b49afc0bf7a28266d9060a00160405180910390a15050506000908152600b602052604081206002810182905560030155565b6002546001600160a01b031633146111575760405162461bcd60e51b815260206004820152600d60248201526c27b7363c902232b83637bcb2b960991b6044820152606401610604565b600081116111a75760405162461bcd60e51b815260206004820152601b60248201527f506c6174666f726d206665652063616e6e6f74206265207a65726f00000000006044820152606401610604565b606481106111f75760405162461bcd60e51b815260206004820181905260248201527f506c6174666f726d206665652063616e6e6f7420626520612068756e647265646044820152606401610604565b600355565b6002546001600160a01b031633146112465760405162461bcd60e51b815260206004820152600d60248201526c27b7363c902232b83637bcb2b960991b6044820152606401610604565b6001600160a01b03821661129c5760405162461bcd60e51b815260206004820152601560248201527f496e76616c696420546f6b656e204164647265737300000000000000000000006044820152606401610604565b6001600160a01b0381166112f25760405162461bcd60e51b815260206004820152601460248201527f496e76616c6964205061697220416464726573730000000000000000000000006044820152606401610604565b6001600160a01b039182166000908152600760205260409020805473ffffffffffffffffffffffffffffffffffffffff191691909216179055565b336000908152600a6020526040812054900361137b5760405162461bcd60e51b815260206004820152600d60248201526c27b7363c90283937bb34b232b960991b6044820152606401610604565b336000908152600a60205260409020600201548111156113dd5760405162461bcd60e51b815260206004820152601460248201527f496e73756666696369656e742042616c616e63650000000000000000000000006044820152606401610604565b336000908152600a6020526040812060020180548392906113ff908490612881565b9091555050604051339082156108fc029083906000818181858888f19350505050158015611431573d6000803e3d6000fd5b5050565b600060648210156114ae5760405162461bcd60e51b815260206004820152602c60248201527f416d6f756e7420746f20737761702063616e6e6f74206265206c65737365722060448201527f7468616e203130302057454900000000000000000000000000000000000000006064820152608401610604565b6001600160a01b03848116600090815260076020526040902054166115215760405162461bcd60e51b815260206004820152602360248201527f5061697220646f6573206e6f74206578697374732c20436f6e7461637420616460448201526236b4b760e91b6064820152608401610604565b6001600160a01b03838116600090815260076020526040902054166115945760405162461bcd60e51b815260206004820152602360248201527f5061697220646f6573206e6f74206578697374732c20436f6e7461637420616460448201526236b4b760e91b6064820152608401610604565b60008083816115a388886120a2565b6000818152600960205260409020549091506116015760405162461bcd60e51b815260206004820152601460248201527f506f6f6c20646f6573206e6f74206578697374730000000000000000000000006044820152606401610604565b6008546001600160a01b03898116600090815260076020526040902054918116911603611846576116323a34612881565b600080546008546001600160a01b038b811684526007602052604093849020549351635d5530df60e11b815291811660048301529283166024820152929450169063baaa61be90604401602060405180830381865afa158015611699573d6000803e3d6000fd5b505050506040513d601f19601f820116820180604052508101906116bd9190612811565b93506116c98483612840565b92508660006116d7836121e0565b9150508481101561172a5760405162461bcd60e51b815260206004820152601660248201527f496e73756666696369656e7420506f6f6c2053697a65000000000000000000006044820152606401610604565b60006117368387612294565b905060006064611747836050612840565b611751919061285f565b905061183d8a8885600960008a8152602001908152602001600020604051806080016040529081600082015481526020016001820160009054906101000a90046001600160a01b03166001600160a01b03166001600160a01b031681526020016002820160009054906101000a90046001600160a01b03166001600160a01b03166001600160a01b031681526020016003820180548060200260200160405190810160405280929190818152602001828054801561182e57602002820191906000526020600020905b81548152602001906001019080831161181a575b50505050508152505085612375565b50505050611bfc565b6008546001600160a01b038881166000908152600760205260409020549181169116036119e757600080546001600160a01b038a811683526007602052604092839020546008549351635d5530df60e11b815290821660048201529281166024840152169063baaa61be90604401602060405180830381865afa1580156118d1573d6000803e3d6000fd5b505050506040513d601f19601f820116820180604052508101906118f59190612811565b93506119018483612840565b6040516323b872dd60e01b81523360048201523060248201526044810184905290935088906001600160a01b038216906323b872dd906064016020604051808303816000875af1158015611959573d6000803e3d6000fd5b505050506040513d601f19601f8201168201806040525081019061197d91906128ad565b506000611989836121e0565b509050848110156119dc5760405162461bcd60e51b815260206004820152601660248201527f496e73756666696369656e7420506f6f6c2053697a65000000000000000000006044820152606401610604565b60006117368661054f565b600080546001600160a01b038a8116835260076020526040808420548b8316855293819020549051635d5530df60e11b8152938216600485015281166024840152169063baaa61be90604401602060405180830381865afa158015611a50573d6000803e3d6000fd5b505050506040513d601f19601f82011682018060405250810190611a749190612811565b9350611a808483612840565b925087876000611a8f846121e0565b91505085811015611ae25760405162461bcd60e51b815260206004820152601660248201527f496e73756666696369656e7420506f6f6c2053697a65000000000000000000006044820152606401610604565b6000611af184848c8a3361251e565b905060006064611b02836050612840565b611b0c919061285f565b9050611bf68b8985600960008b8152602001908152602001600020604051806080016040529081600082015481526020016001820160009054906101000a90046001600160a01b03166001600160a01b03166001600160a01b031681526020016002820160009054906101000a90046001600160a01b03166001600160a01b03166001600160a01b031681526020016003820180548060200260200160405190810160405280929190818152602001828054801561182e576020028201919060005260206000209081548152602001906001019080831161181a5750505050508152505085612375565b50505050505b60408051878152602081018590526001600160a01b038a8116828401528916606082015242608082015290517f649451cb6bd28801e8992e83f834233301eb39b64a665a45b1e08d3e13ff679a9181900360a00190a150909695505050505050565b336000908152600a60205260408120548103611cac5760405162461bcd60e51b815260206004820152600d60248201526c27b7363c90283937bb34b232b960991b6044820152606401610604565b60048054906000611cbc83612894565b9091555050600454600090815260096020908152604080832081516080810183528154815260018201546001600160a01b039081168286015260028301541681840152600382018054845181870281018701909552808552919492936060860193909290830182828015611d4f57602002820191906000526020600020905b815481526020019060010190808311611d3b575b505050919092525050604080516080810182526004548082526001600160a01b03808a1660208085019182528a83168587019081526060808a01519087019081526000958652600983529690942085518155915160018301805491851673ffffffffffffffffffffffffffffffffffffffff19928316179055935160028301805491909416941693909317909155925180519596509194929350611dfb9260038501929091019061267e565b5050600454925050505b92915050565b6000806000611e1a85856120a2565b9050611e25816121e0565b92509250509250929050565b60008060008060005b6001600160a01b0386166000908152600a6020526040902060030154811015611ebb576001600160a01b0386166000908152600a60205260409020600301805488919083908110611e8d57611e8d6128e2565b906000526020600020015403611ea95780925060019150611ebb565b80611eb381612894565b915050611e3a565b509590945092505050565b6040516323b872dd60e01b81526001600160a01b038281166004830152306024830152604482018590528616906323b872dd906064016020604051808303816000875af1158015611f1b573d6000803e3d6000fd5b505050506040513d601f19601f82011682018060405250810190611f3f91906128ad565b506040516323b872dd60e01b81526001600160a01b038281166004830152306024830152604482018490528516906323b872dd906064016020604051808303816000875af1158015611f95573d6000803e3d6000fd5b505050506040513d601f19601f82011682018060405250810190611fb991906128ad565b505050505050565b60058054906000611fd183612894565b90915550506040805160a081018252600580548083526020808401898152848601988952606085019788526001600160a01b03968716608086018181526000948552600b845287852096518755915160018088019190915599516002870155975160038087019190915590516004909501805473ffffffffffffffffffffffffffffffffffffffff19169590971694909417909555968752600984528287208154908301805480890182559089528589200155938652600a8352908520925492018054938401815584529092200155565b60006001600160a01b038316158015906120c457506001600160a01b03821615155b6121105760405162461bcd60e51b815260206004820152600760248201527f496e76616c6964000000000000000000000000000000000000000000000000006044820152606401610604565b60005b60045481116121d6576000818152600960205260409020600101546001600160a01b03858116911614801561216457506000818152600960205260409020600201546001600160a01b038481169116145b15612170579050611e05565b6000818152600960205260409020600101546001600160a01b0384811691161480156121b857506000818152600960205260409020600201546001600160a01b038581169116145b156121c4579050611e05565b806121ce81612894565b915050612113565b5060009392505050565b60008060008060005b600086815260096020526040902060030154811015612289576000868152600960205260408120600301805483908110612225576122256128e2565b90600052602060002001549050600b6000828152602001908152602001600020600201548461225491906128cf565b6000828152600b602052604090206003015490945061227390846128cf565b925050808061228190612894565b9150506121e9565b509094909350915050565b6000806003546064846122a7919061285f565b6122b19190612840565b90506001600160a01b03841663a9059cbb336122cd8487612881565b6040517fffffffff0000000000000000000000000000000000000000000000000000000060e085901b1681526001600160a01b03909216600483015260248201526044016020604051808303816000875af1158015612330573d6000803e3d6000fd5b505050506040513d601f19601f8201168201806040525081019061235491906128ad565b5060085461236d9085906001600160a01b0316836104a8565b949350505050565b60005b826060015151811015611fb95760008360600151828151811061239d5761239d6128e2565b6020026020010151905060008588600b6000858152602001908152602001600020600301546123cc9190612840565b6123d6919061285f565b905080600b600084815260200190815260200160002060020160008282546123fe91906128cf565b90915550506000828152600b60205260408120600301548790612422908a90612840565b61242c919061285f565b905080600b600085815260200190815260200160002060030160008282546124549190612881565b90915550506000838152600b60205260408120600301548890612478908890612840565b612482919061285f565b6000858152600b60209081526040808320600401546001600160a01b03168352600a9091528120600101805492935083929091906124c19084906128cf565b90915550506000848152600b60209081526040808320600401546001600160a01b03168352600a909152812060020180548392906125009084906128cf565b9250508190555050505050808061251690612894565b915050612378565b600080600354606485612531919061285f565b61253b9190612840565b6040516323b872dd60e01b81526001600160a01b03858116600483015230602483015260448201889052919250908816906323b872dd906064016020604051808303816000875af1158015612594573d6000803e3d6000fd5b505050506040513d601f19601f820116820180604052508101906125b891906128ad565b506001600160a01b03861663a9059cbb846125d38488612881565b6040517fffffffff0000000000000000000000000000000000000000000000000000000060e085901b1681526001600160a01b03909216600483015260248201526044016020604051808303816000875af1158015612636573d6000803e3d6000fd5b505050506040513d601f19601f8201168201806040525081019061265a91906128ad565b506008546126739087906001600160a01b0316836104a8565b979650505050505050565b8280548282559060005260206000209081019282156126b9579160200282015b828111156126b957825182559160200191906001019061269e565b506126c59291506126c9565b5090565b5b808211156126c557600081556001016126ca565b6001600160a01b03811681146126f357600080fd5b50565b60006020828403121561270857600080fd5b8135612713816126de565b9392505050565b60008060006060848603121561272f57600080fd5b833561273a816126de565b9250602084013561274a816126de565b929592945050506040919091013590565b60006020828403121561276d57600080fd5b5035919050565b60008060006060848603121561278957600080fd5b8335612794816126de565b92506020840135915060408401356127ab816126de565b809150509250925092565b600080604083850312156127c957600080fd5b50508035926020909101359150565b600080604083850312156127eb57600080fd5b82356127f6816126de565b91506020830135612806816126de565b809150509250929050565b60006020828403121561282357600080fd5b5051919050565b634e487b7160e01b600052601160045260246000fd5b600081600019048311821515161561285a5761285a61282a565b500290565b60008261287c57634e487b7160e01b600052601260045260246000fd5b500490565b81810381811115611e0557611e0561282a565b6000600182016128a6576128a661282a565b5060010190565b6000602082840312156128bf57600080fd5b8151801515811461271357600080fd5b80820180821115611e0557611e0561282a565b634e487b7160e01b600052603260045260246000fdfea26469706673582212202d1dcc24fc861cb03d8d0d9bc0f1d70f553b4a27a91f5f4aa635c590af2144e664736f6c63430008100033",
  "immutableReferences": {},
  "source": "// SPDX-License-Identifier: GPL-3.0\npragma solidity >=0.7.0 <0.9.0;\n\nimport {PriceApi} from \"./PriceApi.sol\";\nimport {FleepToken} from \"./FleepToken.sol\";\nimport {ERC20} from \"@openzeppelin/contracts/token/ERC20/ERC20.sol\";\n\ncontract FleepSwap {\n    PriceApi private _priceApi;\n    FleepToken private _fleepToken;\n\n    // contract admin\n    address private _deployer;\n\n    // charges 1% fee on every successful swaps\n    uint private swapFee = 1;\n\n    // ids to avoid conflicts\n    uint256 private POOL_ID;\n    uint256 private LIQUID_ID;\n    uint256 private PROVIDER_ID;\n\n    // token contract address => chainlink aggregrator address\n    // only in the token paired to USD format\n    mapping(address => address) public pairs;\n\n    // is a member of the pairs mapping\n    // but its the native pair MATIC not ERC20\n    address public NATIVE_PAIR;\n\n    // id => liquidity pools\n    mapping(uint => Pool) public pools;\n    // user address => provider data\n    mapping(address => Provider) public providers;\n    // id => liquids\n    mapping(uint => Liquid) public liquids;\n\n    // === Events === //\n\n    event LiquidityProvided(\n        address token0,\n        address token1,\n        uint256 amount0,\n        uint256 amount1,\n        address provider,\n        uint timestamp\n    );\n\n    event LiquidityRemoved(\n        address token0,\n        address token1,\n        uint256 amount0,\n        uint256 amount1,\n        address provider\n    );\n\n    event FleepSwaped(\n        uint256 amount,\n        uint256 amountOut,\n        address from,\n        address to,\n        uint timestamp\n    );\n\n    // === Structs === //\n\n    struct Pool {\n        uint id;\n        address token0;\n        address token1;\n        uint[] liquids;\n    }\n\n    struct Liquid {\n        uint id;\n        uint poolId;\n        uint256 amount0;\n        uint256 amount1;\n        address provider;\n    }\n\n    struct Provider {\n        uint id;\n        uint256 totalEarned;\n        uint256 balance;\n        uint[] liquids;\n    }\n\n    //  check the price of BNB/SUSHI\n    constructor(address priceApI, address fleepToken) {\n        _priceApi = PriceApi(priceApI);\n        _fleepToken = FleepToken(fleepToken);\n        _deployer = msg.sender;\n    }\n\n    // calculates all the size of the liquids\n    // in a pool of token pair\n    function getPoolSize(address token0, address token1)\n        public\n        view\n        returns (uint256, uint256)\n    {\n        uint poolId = _findPool(token0, token1);\n        return _poolSize(poolId);\n    }\n\n    // gets the exchanges rates for pair of tokens\n    // with accordance to amount of tokens\n    function estimate(\n        address token0,\n        address token1,\n        uint256 amount0\n    ) public view returns (uint256) {\n        int256 rate = _priceApi.getExchangeRate(pairs[token0], pairs[token1]);\n        return amount0 * uint256(rate);\n    }\n\n    // returns the pair address for $MATIC\n    function getNativePair() public view returns (address) {\n        return NATIVE_PAIR;\n    }\n\n    // register as a provider\n    function unlockedProviderAccount() public onlyGuest {\n        // to become a provider you must hodl at least 10\n        // tokens of Fleep Token\n        require(\n            _fleepToken.balanceOf(msg.sender) >= _fleepToken.inWei(10),\n            \"You must hodl at least 10 Fleep Tokens\"\n        );\n\n        PROVIDER_ID++;\n        providers[msg.sender] = Provider(\n            PROVIDER_ID,\n            providers[msg.sender].totalEarned,\n            providers[msg.sender].balance,\n            providers[msg.sender].liquids\n        );\n    }\n\n    // === Swapping === //\n\n    function swap(\n        address token0,\n        address token1,\n        uint256 amount0\n    ) public payable returns (uint256) {\n        require(amount0 >= 100, \"Amount to swap cannot be lesser than 100 WEI\");\n        require(\n            pairs[token0] != address(0),\n            \"Pair does not exists, Contact admin\"\n        );\n        require(\n            pairs[token1] != address(0),\n            \"Pair does not exists, Contact admin\"\n        );\n\n        uint256 rate;\n        uint256 amount1;\n\n        uint256 _safeAmount0 = amount0;\n\n        uint poolId = _findPool(token0, token1);\n        require(pools[poolId].id > 0, \"Pool does not exists\");\n\n        if (pairs[token0] == NATIVE_PAIR) {\n            _safeAmount0 = (msg.value - tx.gasprice);\n            rate = uint256(\n                _priceApi.getExchangeRate(NATIVE_PAIR, pairs[token1])\n            );\n            amount1 = _safeAmount0 * uint256(rate);\n\n            ERC20 quoteToken = ERC20(token1);\n\n            (, uint256 poolSizeToken1) = _poolSize(poolId);\n\n            // check if contract has enough destination token liquid\n            require(poolSizeToken1 >= amount1, \"Insufficient Pool Size\");\n\n            uint256 fee = _transferSwappedTokens0(quoteToken, amount1);\n            uint256 providersReward = ((fee * 80) / 100);\n\n            _aggregateLiquids(\n                amount0,\n                amount1,\n                poolSizeToken1,\n                pools[poolId],\n                providersReward\n            );\n        } else if (pairs[token1] == NATIVE_PAIR) {\n            rate = uint256(\n                _priceApi.getExchangeRate(pairs[token0], NATIVE_PAIR)\n            );\n            amount1 = _safeAmount0 * uint256(rate);\n\n            ERC20 baseToken = ERC20(token0);\n            baseToken.transferFrom(msg.sender, address(this), _safeAmount0);\n\n            (uint256 poolSizeToken1, ) = _poolSize(poolId);\n            require(poolSizeToken1 >= amount1, \"Insufficient Pool Size\");\n\n            uint256 fee = _transferSwappedTokens1(amount1);\n            uint256 providersReward = ((fee * 80) / 100);\n\n            _aggregateLiquids(\n                amount0,\n                amount1,\n                poolSizeToken1,\n                pools[poolId],\n                providersReward\n            );\n        } else {\n            rate = uint256(\n                _priceApi.getExchangeRate(pairs[token0], pairs[token1])\n            );\n            amount1 = _safeAmount0 * uint256(rate);\n\n            ERC20 baseToken = ERC20(token0);\n            ERC20 quoteToken = ERC20(token1);\n\n            (, uint256 poolSizeToken1) = _poolSize(poolId);\n\n            // check if contract has enough destination token liquid\n            require(poolSizeToken1 >= amount1, \"Insufficient Pool Size\");\n\n            uint256 fee = _transferSwappedTokens2(\n                baseToken,\n                quoteToken,\n                amount0,\n                amount1,\n                msg.sender\n            );\n            uint256 providersReward = ((fee * 80) / 100);\n\n            _aggregateLiquids(\n                amount0,\n                amount1,\n                poolSizeToken1,\n                pools[poolId],\n                providersReward\n            );\n        }\n\n        // store the swap data on-chain\n        emit FleepSwaped(amount0, amount1, token0, token1, block.timestamp);\n\n        return amount1;\n    }\n\n    // === Providers === //\n\n    function createPool(address token0, address token1)\n        public\n        onlyProvider\n        returns (uint)\n    {\n        // create pool id\n        POOL_ID++;\n        // create a new pool from struct\n        Pool memory pool = pools[POOL_ID];\n        // register the pool\n        pools[POOL_ID] = Pool(POOL_ID, token0, token1, pool.liquids);\n        return POOL_ID;\n    }\n\n    function provideLiquidity(uint256 amount0, uint poolId)\n        public\n        payable\n        onlyProvider\n        returns (uint256, uint256)\n    {\n        require(amount0 >= 100, \"Amount cannot be lesser than 100 WEI\");\n\n        address token0 = pools[poolId].token0;\n        address token1 = pools[poolId].token1;\n\n        require(\n            pairs[token0] != address(0),\n            \"Pair does not exists, Contact admin\"\n        );\n        require(\n            pairs[token1] != address(0),\n            \"Pair does not exists, Contact admin\"\n        );\n\n        (bool hasLiquid, uint liquidIndex) = _liquidIndex(poolId, msg.sender);\n\n        uint256 rate;\n        uint256 amount1;\n\n        uint256 _safeAmount0 = amount0;\n\n        if (pairs[token0] == NATIVE_PAIR) {\n            // only in format of MATIC as pair subject\n            // ex MATIC/XEND\n            _safeAmount0 = (msg.value - tx.gasprice);\n\n            rate = uint256(\n                _priceApi.getExchangeRate(pairs[token0], pairs[token1])\n            );\n            amount1 = _safeAmount0 * uint256(rate);\n\n            // swap involve native token\n            ERC20 quoteToken = ERC20(token1);\n            _nativeStake(quoteToken, amount1, msg.sender);\n        } else {\n            rate = uint256(\n                _priceApi.getExchangeRate(pairs[token0], pairs[token1])\n            );\n            amount1 = _safeAmount0 * uint256(rate);\n\n            // both tokens are ERC20\n            ERC20 baseToken = ERC20(token0);\n            ERC20 quoteToken = ERC20(token1);\n\n            _stakeTokens(\n                baseToken,\n                quoteToken,\n                _safeAmount0,\n                amount1,\n                msg.sender\n            );\n        }\n\n        if (hasLiquid) {\n            // if liquid exist increment the amount\n            liquids[liquidIndex].amount0 += _safeAmount0;\n            liquids[liquidIndex].amount1 += amount1;\n        } else {\n            _createLiquid(poolId, _safeAmount0, amount1, msg.sender);\n        }\n\n        // store the liquidity data on-chain\n        emit LiquidityProvided(\n            token0,\n            token1,\n            _safeAmount0,\n            amount1,\n            msg.sender,\n            block.timestamp\n        );\n\n        return (_safeAmount0, amount1);\n    }\n\n    function removeLiquidity(uint id) public onlyProvider {\n        require(liquids[id].provider == msg.sender, \"Unauthorized\");\n\n        Pool memory pool = pools[liquids[id].poolId];\n        ERC20 token0 = ERC20(pool.token0);\n        ERC20 token1 = ERC20(pool.token1);\n\n        token0.transfer(msg.sender, liquids[id].amount0);\n        token1.transfer(msg.sender, liquids[id].amount1);\n\n        emit LiquidityRemoved(\n            address(token0),\n            address(token1),\n            liquids[id].amount0,\n            liquids[id].amount1,\n            msg.sender\n        );\n\n        // delete liquid TO DO\n        liquids[id].amount0 = 0;\n        liquids[id].amount1 = 0;\n    }\n\n    function withDrawEarnings(uint256 amount) public onlyProvider {\n        require(\n            providers[msg.sender].balance >= amount,\n            \"Insufficient Balance\"\n        );\n        providers[msg.sender].balance -= amount;\n        payable(msg.sender).transfer(amount);\n    }\n\n    // === Administration === //\n\n    function updateNativePair(address pair) public onlyDeployer {\n        require(pair != address(0), \"Invalid Pair Address\");\n        NATIVE_PAIR = pair;\n    }\n\n    function updateSwapFee(uint fee) public onlyDeployer {\n        require(fee > 0, \"Platform fee cannot be zero\");\n        require(fee < 100, \"Platform fee cannot be a hundred\");\n        swapFee = fee;\n    }\n\n    function createPair(address token, address pair) public onlyDeployer {\n        require(token != address(0), \"Invalid Token Address\");\n        require(pair != address(0), \"Invalid Pair Address\");\n        pairs[token] = pair;\n    }\n\n    // === Internal Functions === //\n\n    function _liquidIndex(uint poolId, address provider)\n        private\n        view\n        returns (bool, uint)\n    {\n        uint position = 0;\n        bool found = false;\n\n        for (\n            uint index = 0;\n            index < providers[provider].liquids.length;\n            index++\n        ) {\n            if (providers[provider].liquids[index] == poolId) {\n                position = index;\n                found = true;\n                break;\n            }\n        }\n\n        return (found, position);\n    }\n\n    function _aggregateLiquids(\n        uint256 amount0,\n        uint256 amount1,\n        uint256 poolSizeToken1,\n        Pool memory pool,\n        uint256 fee\n    ) private {\n        // equally share swap impact on all provider liquids based on their contribution\n        for (uint index = 0; index < pool.liquids.length; index++) {\n            uint liquidId = pool.liquids[index];\n\n            // calculated with ratio of this liquid compared\n            // to other liquids contributing\n            uint256 additionAmount = ((liquids[liquidId].amount1 * amount0) /\n                poolSizeToken1);\n\n            // step I\n            liquids[liquidId].amount0 += additionAmount;\n\n            // calculated with ratio of this liquid compared\n            // to other liquids contributing\n            uint256 deductionAmount = ((liquids[liquidId].amount1 * amount1) /\n                poolSizeToken1);\n\n            // step II\n            liquids[liquidId].amount1 -= deductionAmount;\n\n            // reward the liquid provider\n            uint256 reward = ((liquids[liquidId].amount1 * fee) /\n                poolSizeToken1);\n\n            providers[liquids[liquidId].provider].totalEarned += reward;\n            providers[liquids[liquidId].provider].balance += reward;\n        }\n    }\n\n    function _transferSwappedTokens0(ERC20 token1, uint256 amount1)\n        private\n        returns (uint256)\n    {\n        uint256 _fee = ((amount1 / 100) * swapFee);\n\n        // give user their destination token minus fee\n        token1.transfer(msg.sender, (amount1 - _fee));\n\n        // convert fee to matic\n        return estimate(address(token1), NATIVE_PAIR, _fee);\n    }\n\n    function _transferSwappedTokens1(uint256 amount1)\n        public\n        payable\n        returns (uint256)\n    {\n        uint256 _fee = ((amount1 / 100) * swapFee);\n\n        // give user their destination token minus fee\n        payable(msg.sender).transfer(amount1 - _fee);\n        return _fee;\n    }\n\n    function _transferSwappedTokens2(\n        ERC20 token0,\n        ERC20 token1,\n        uint256 amount0,\n        uint256 amount1,\n        address owner\n    ) private returns (uint256) {\n        uint256 _fee = ((amount1 / 100) * swapFee);\n\n        // tranfers the base token from user to the\n        // smart contract\n        token0.transferFrom(owner, address(this), amount0);\n\n        // give user their destination token minus fee\n        token1.transfer(owner, (amount1 - _fee));\n\n        // convert fee to matic\n        return estimate(address(token1), NATIVE_PAIR, _fee);\n    }\n\n    function _findPool(address token0, address token1)\n        private\n        view\n        returns (uint)\n    {\n        require(token0 != address(0) && token1 != address(0), \"Invalid\");\n        for (uint index = 0; index <= POOL_ID; index++) {\n            if (\n                pools[index].token0 == token0 && pools[index].token1 == token1\n            ) {\n                return index;\n            }\n\n            if (\n                pools[index].token0 == token1 && pools[index].token1 == token0\n            ) {\n                return index;\n            }\n        }\n        return 0;\n    }\n\n    function _createLiquid(\n        uint poolId,\n        uint256 amount0,\n        uint256 amount1,\n        address provider\n    ) private {\n        // otherwise create the new liquid\n        LIQUID_ID++;\n        // create and register the liquid\n        liquids[LIQUID_ID] = Liquid(\n            LIQUID_ID,\n            poolId,\n            amount0,\n            amount1,\n            provider\n        );\n        pools[poolId].liquids.push(LIQUID_ID);\n        providers[provider].liquids.push(LIQUID_ID);\n    }\n\n    function _nativeStake(\n        ERC20 pairedToken,\n        uint256 pairedAmount,\n        address from\n    ) public payable {\n        // stake token0 to smart contract\n        pairedToken.transferFrom(from, address(this), pairedAmount);\n    }\n\n    function _stakeTokens(\n        ERC20 token0,\n        ERC20 token1,\n        uint256 amount0,\n        uint amount1,\n        address from\n    ) private {\n        // stake token0 to smart contract\n        token0.transferFrom(from, address(this), amount0);\n\n        // stake token1 to smart contract\n        token1.transferFrom(from, address(this), amount1);\n    }\n\n    function _poolSize(uint id) private view returns (uint256, uint256) {\n        uint256 amount0;\n        uint256 amount1;\n        for (uint index = 0; index < pools[id].liquids.length; index++) {\n            uint liquidId = pools[id].liquids[index];\n            amount0 += liquids[liquidId].amount0;\n            amount1 += liquids[liquidId].amount1;\n        }\n        return (amount0, amount1);\n    }\n\n    // === Modifiers === //\n\n    modifier onlyGuest() {\n        require(providers[msg.sender].id == 0, \"Only Guest\");\n        _;\n    }\n\n    modifier onlyProvider() {\n        require(providers[msg.sender].id != 0, \"Only Provider\");\n        _;\n    }\n\n    modifier onlyDeployer() {\n        require(msg.sender == _deployer, \"Only Deployer\");\n        _;\n    }\n}\n",
  "sourcePath": "C:\\Users\\Arogundade Ibrahim\\Documents\\web3\\fleep\\contracts\\FleepSwap.sol",
  "compiler": {
    "name": "solc",
    "version": "0.8.16+commit.07a7930e.Emscripten.clang"
  },
  "schemaVersion": "3.4.10",
  "updatedAt": "2022-11-25T17:35:50.287Z",
  "devdoc": {
    "kind": "dev",
    "methods": {},
    "version": 1
  },
  "userdoc": {
    "kind": "user",
    "methods": {},
    "version": 1
  }
}