{
  "contractName": "FleepSwap",
  "abi": [
    {
      "inputs": [
        {
          "internalType": "address",
          "name": "priceApI",
          "type": "address"
        },
        {
          "internalType": "address",
          "name": "fleepToken",
          "type": "address"
        }
      ],
      "stateMutability": "nonpayable",
      "type": "constructor"
    },
    {
      "anonymous": false,
      "inputs": [
        {
          "indexed": false,
          "internalType": "uint256",
          "name": "amount",
          "type": "uint256"
        },
        {
          "indexed": false,
          "internalType": "uint256",
          "name": "amountOut",
          "type": "uint256"
        },
        {
          "indexed": false,
          "internalType": "address",
          "name": "from",
          "type": "address"
        },
        {
          "indexed": false,
          "internalType": "address",
          "name": "to",
          "type": "address"
        },
        {
          "indexed": false,
          "internalType": "uint256",
          "name": "timestamp",
          "type": "uint256"
        }
      ],
      "name": "FleepSwaped",
      "type": "event"
    },
    {
      "anonymous": false,
      "inputs": [
        {
          "indexed": false,
          "internalType": "address",
          "name": "token0",
          "type": "address"
        },
        {
          "indexed": false,
          "internalType": "address",
          "name": "token1",
          "type": "address"
        },
        {
          "indexed": false,
          "internalType": "uint256",
          "name": "amount0",
          "type": "uint256"
        },
        {
          "indexed": false,
          "internalType": "uint256",
          "name": "amount1",
          "type": "uint256"
        },
        {
          "indexed": false,
          "internalType": "address",
          "name": "provider",
          "type": "address"
        },
        {
          "indexed": false,
          "internalType": "uint256",
          "name": "timestamp",
          "type": "uint256"
        }
      ],
      "name": "LiquidityProvided",
      "type": "event"
    },
    {
      "anonymous": false,
      "inputs": [
        {
          "indexed": false,
          "internalType": "address",
          "name": "token0",
          "type": "address"
        },
        {
          "indexed": false,
          "internalType": "address",
          "name": "token1",
          "type": "address"
        },
        {
          "indexed": false,
          "internalType": "uint256",
          "name": "amount0",
          "type": "uint256"
        },
        {
          "indexed": false,
          "internalType": "uint256",
          "name": "amount1",
          "type": "uint256"
        },
        {
          "indexed": false,
          "internalType": "address",
          "name": "provider",
          "type": "address"
        }
      ],
      "name": "LiquidityRemoved",
      "type": "event"
    },
    {
      "inputs": [],
      "name": "NATIVE_PAIR",
      "outputs": [
        {
          "internalType": "address",
          "name": "",
          "type": "address"
        }
      ],
      "stateMutability": "view",
      "type": "function",
      "constant": true
    },
    {
      "inputs": [
        {
          "internalType": "uint256",
          "name": "",
          "type": "uint256"
        }
      ],
      "name": "liquids",
      "outputs": [
        {
          "internalType": "uint256",
          "name": "id",
          "type": "uint256"
        },
        {
          "internalType": "uint256",
          "name": "poolId",
          "type": "uint256"
        },
        {
          "internalType": "uint256",
          "name": "amount0",
          "type": "uint256"
        },
        {
          "internalType": "uint256",
          "name": "amount1",
          "type": "uint256"
        },
        {
          "internalType": "address",
          "name": "provider",
          "type": "address"
        }
      ],
      "stateMutability": "view",
      "type": "function",
      "constant": true
    },
    {
      "inputs": [
        {
          "internalType": "address",
          "name": "",
          "type": "address"
        }
      ],
      "name": "pairs",
      "outputs": [
        {
          "internalType": "address",
          "name": "",
          "type": "address"
        }
      ],
      "stateMutability": "view",
      "type": "function",
      "constant": true
    },
    {
      "inputs": [
        {
          "internalType": "uint256",
          "name": "",
          "type": "uint256"
        }
      ],
      "name": "pools",
      "outputs": [
        {
          "internalType": "uint256",
          "name": "id",
          "type": "uint256"
        },
        {
          "internalType": "address",
          "name": "token0",
          "type": "address"
        },
        {
          "internalType": "address",
          "name": "token1",
          "type": "address"
        }
      ],
      "stateMutability": "view",
      "type": "function",
      "constant": true
    },
    {
      "inputs": [
        {
          "internalType": "address",
          "name": "",
          "type": "address"
        }
      ],
      "name": "providers",
      "outputs": [
        {
          "internalType": "uint256",
          "name": "id",
          "type": "uint256"
        },
        {
          "internalType": "uint256",
          "name": "totalEarned",
          "type": "uint256"
        },
        {
          "internalType": "uint256",
          "name": "balance",
          "type": "uint256"
        }
      ],
      "stateMutability": "view",
      "type": "function",
      "constant": true
    },
    {
      "inputs": [
        {
          "internalType": "address",
          "name": "base",
          "type": "address"
        },
        {
          "internalType": "address",
          "name": "quote",
          "type": "address"
        }
      ],
      "name": "getRate",
      "outputs": [
        {
          "internalType": "int256",
          "name": "",
          "type": "int256"
        }
      ],
      "stateMutability": "view",
      "type": "function",
      "constant": true
    },
    {
      "inputs": [
        {
          "internalType": "address",
          "name": "token0",
          "type": "address"
        },
        {
          "internalType": "address",
          "name": "token1",
          "type": "address"
        },
        {
          "internalType": "uint256",
          "name": "amount0",
          "type": "uint256"
        }
      ],
      "name": "estimate",
      "outputs": [
        {
          "internalType": "uint256",
          "name": "",
          "type": "uint256"
        }
      ],
      "stateMutability": "view",
      "type": "function",
      "constant": true
    },
    {
      "inputs": [],
      "name": "getNativePair",
      "outputs": [
        {
          "internalType": "address",
          "name": "",
          "type": "address"
        }
      ],
      "stateMutability": "view",
      "type": "function",
      "constant": true
    },
    {
      "inputs": [],
      "name": "unlockedProviderAccount",
      "outputs": [],
      "stateMutability": "nonpayable",
      "type": "function"
    },
    {
      "inputs": [
        {
          "internalType": "address",
          "name": "token0",
          "type": "address"
        },
        {
          "internalType": "address",
          "name": "token1",
          "type": "address"
        },
        {
          "internalType": "uint256",
          "name": "amount0",
          "type": "uint256"
        },
        {
          "internalType": "uint256",
          "name": "poolId",
          "type": "uint256"
        }
      ],
      "name": "swap",
      "outputs": [
        {
          "internalType": "uint256",
          "name": "",
          "type": "uint256"
        }
      ],
      "stateMutability": "payable",
      "type": "function",
      "payable": true
    },
    {
      "inputs": [
        {
          "internalType": "address",
          "name": "token0",
          "type": "address"
        },
        {
          "internalType": "address",
          "name": "token1",
          "type": "address"
        }
      ],
      "name": "createPool",
      "outputs": [
        {
          "internalType": "uint256",
          "name": "",
          "type": "uint256"
        }
      ],
      "stateMutability": "nonpayable",
      "type": "function"
    },
    {
      "inputs": [
        {
          "internalType": "uint256",
          "name": "amount0",
          "type": "uint256"
        },
        {
          "internalType": "uint256",
          "name": "poolId",
          "type": "uint256"
        }
      ],
      "name": "provideLiquidity",
      "outputs": [
        {
          "internalType": "uint256",
          "name": "",
          "type": "uint256"
        },
        {
          "internalType": "uint256",
          "name": "",
          "type": "uint256"
        }
      ],
      "stateMutability": "payable",
      "type": "function",
      "payable": true
    },
    {
      "inputs": [
        {
          "internalType": "uint256",
          "name": "id",
          "type": "uint256"
        }
      ],
      "name": "removeLiquidity",
      "outputs": [],
      "stateMutability": "nonpayable",
      "type": "function"
    },
    {
      "inputs": [
        {
          "internalType": "uint256",
          "name": "amount",
          "type": "uint256"
        }
      ],
      "name": "withDrawEarnings",
      "outputs": [],
      "stateMutability": "nonpayable",
      "type": "function"
    },
    {
      "inputs": [
        {
          "internalType": "address",
          "name": "pair",
          "type": "address"
        }
      ],
      "name": "updateNativePair",
      "outputs": [],
      "stateMutability": "nonpayable",
      "type": "function"
    },
    {
      "inputs": [
        {
          "internalType": "uint256",
          "name": "fee",
          "type": "uint256"
        }
      ],
      "name": "updateSwapFee",
      "outputs": [],
      "stateMutability": "nonpayable",
      "type": "function"
    },
    {
      "inputs": [
        {
          "internalType": "address",
          "name": "token",
          "type": "address"
        },
        {
          "internalType": "address",
          "name": "pair",
          "type": "address"
        }
      ],
      "name": "createPair",
      "outputs": [],
      "stateMutability": "nonpayable",
      "type": "function"
    },
    {
      "inputs": [
        {
          "internalType": "contract IERC20",
          "name": "pairedToken",
          "type": "address"
        },
        {
          "internalType": "uint256",
          "name": "pairedAmount",
          "type": "uint256"
        }
      ],
      "name": "_nativeStake",
      "outputs": [],
      "stateMutability": "payable",
      "type": "function",
      "payable": true
    }
  ],
  "bytecode": "0x608060405260016003553480156200001657600080fd5b506040516200280e3803806200280e833981016040819052620000399162000098565b600080546001600160a01b039384166001600160a01b0319918216179091556001805492909316918116919091179091556002805490911633179055620000d0565b80516001600160a01b03811681146200009357600080fd5b919050565b60008060408385031215620000ac57600080fd5b620000b7836200007b565b9150620000c7602084016200007b565b90509250929050565b61272e80620000e06000396000f3fe6080604052600436106101295760003560e01c80639c8f9f23116100a5578063d30dce7d11610074578063eebb63ed11610059578063eebb63ed146103ad578063fe02915614610431578063fe33b3021461044457600080fd5b8063d30dce7d1461036d578063e34336151461038d57600080fd5b80639c8f9f23146102a0578063ac4afa38146102c0578063bf16f65a1461032d578063c9c653961461034d57600080fd5b80635554b552116100fc5780638a2627f0116100e15780638a2627f01461024f57806391e5f37f1461026d57806397d07b221461028d57600080fd5b80635554b552146102105780637a16af7f1461022757600080fd5b80630787bc271461012e578063102a5f911461018a578063344bfb59146101b8578063379b87ea146101f0575b600080fd5b34801561013a57600080fd5b5061016a6101493660046123d6565b600a6020526000908152604090208054600182015460029092015490919083565b604080519384526020840192909252908201526060015b60405180910390f35b34801561019657600080fd5b506101aa6101a53660046123fa565b61047a565b604051908152602001610181565b3480156101c457600080fd5b506008546101d8906001600160a01b031681565b6040516001600160a01b039091168152602001610181565b3480156101fc57600080fd5b506101aa61020b36600461243b565b610521565b34801561021c57600080fd5b506102256105a1565b005b61023a610235366004612474565b610890565b60408051928352602083019190915201610181565b34801561025b57600080fd5b506008546001600160a01b03166101d8565b34801561027957600080fd5b506102256102883660046123d6565b610cd3565b61022561029b366004612496565b610da2565b3480156102ac57600080fd5b506102256102bb3660046124c2565b610e90565b3480156102cc57600080fd5b506103086102db3660046124c2565b60096020526000908152604090208054600182015460029092015490916001600160a01b03908116911683565b604080519384526001600160a01b039283166020850152911690820152606001610181565b34801561033957600080fd5b506102256103483660046124c2565b610ee1565b34801561035957600080fd5b5061022561036836600461243b565b610fd0565b34801561037957600080fd5b506102256103883660046124c2565b611101565b34801561039957600080fd5b506101aa6103a836600461243b565b611209565b3480156103b957600080fd5b506104006103c83660046124c2565b600b6020526000908152604090208054600182015460028301546003840154600490940154929391929091906001600160a01b031685565b6040805195865260208601949094529284019190915260608301526001600160a01b0316608082015260a001610181565b6101aa61043f3660046124db565b6113b4565b34801561045057600080fd5b506101d861045f3660046123d6565b6007602052600090815260409020546001600160a01b031681565b600080546001600160a01b03858116835260076020526040808420548683168552818520549151635d5530df60e11b8152908316600482015290821660248201528392919091169063baaa61be90604401602060405180830381865afa1580156104e8573d6000803e3d6000fd5b505050506040513d601f19601f8201168201806040525081019061050c9190612521565b90506105188184612550565b95945050505050565b60008054604051635d5530df60e11b81526001600160a01b03858116600483015284811660248301529091169063baaa61be90604401602060405180830381865afa158015610574573d6000803e3d6000fd5b505050506040513d601f19601f820116820180604052508101906105989190612521565b90505b92915050565b336000908152600a6020526040902054156106035760405162461bcd60e51b815260206004820152600a60248201527f4f6e6c792047756573740000000000000000000000000000000000000000000060448201526064015b60405180910390fd5b600160009054906101000a90046001600160a01b03166001600160a01b031663f0141d846040518163ffffffff1660e01b8152600401602060405180830381865afa158015610656573d6000803e3d6000fd5b505050506040513d601f19601f8201168201806040525081019061067a9190612521565b61068590600a612653565b6001546040517f70a082310000000000000000000000000000000000000000000000000000000081523360048201526001600160a01b03909116906370a0823190602401602060405180830381865afa1580156106e6573d6000803e3d6000fd5b505050506040513d601f19601f8201168201806040525081019061070a9190612521565b101561077e5760405162461bcd60e51b815260206004820152602660248201527f596f75206d75737420686f646c206174206c6561737420313020466c6565702060448201527f546f6b656e73000000000000000000000000000000000000000000000000000060648201526084016105fa565b6006805490600061078e8361265f565b9091555050336000908152600a6020908152604080832081516080810183528154815260018201548185015260028201548184015260038201805484518187028101870190955280855291949293606086019390929083018282801561081357602002820191906000526020600020905b8154815260200190600101908083116107ff575b50505091909252505060408051608081018252600654815260208085015181830190815283860151838501908152606080880151908501908152336000908152600a855295909520845181559151600183015551600282015592518051959650919492935061088a92600385019290910190612361565b50505050565b336000908152600a6020526040812054819081036108e05760405162461bcd60e51b815260206004820152600d60248201526c27b7363c90283937bb34b232b960991b60448201526064016105fa565b606484116109555760405162461bcd60e51b8152602060048201526024808201527f416d6f756e742063616e6e6f74206265206c6573736572207468616e2031303060448201527f205745490000000000000000000000000000000000000000000000000000000060648201526084016105fa565b600083815260096020908152604080832060018101546002909101546001600160a01b0391821680865260079094529190932054919290811691166109e85760405162461bcd60e51b815260206004820152602360248201527f5061697220646f6573206e6f74206578697374732c20436f6e7461637420616460448201526236b4b760e91b60648201526084016105fa565b6001600160a01b0381811660009081526007602052604090205416610a5b5760405162461bcd60e51b815260206004820152602360248201527f5061697220646f6573206e6f74206578697374732c20436f6e7461637420616460448201526236b4b760e91b60648201526084016105fa565b600080610a688733611cad565b6008546001600160a01b03878116600090815260076020526040812054949650929450919283928c928116911603610b5657610aa43a34612678565b600080546001600160a01b038a8116835260076020526040808420548b8316855293819020549051635d5530df60e11b8152938216600485015281166024840152929350919091169063baaa61be90604401602060405180830381865afa158015610b13573d6000803e3d6000fd5b505050506040513d601f19601f82011682018060405250810190610b379190612521565b9250610b438382612550565b915085610b508184610da2565b50610c02565b600080546001600160a01b03898116835260076020526040808420548a8316855293819020549051635d5530df60e11b8152938216600485015281166024840152169063baaa61be90604401602060405180830381865afa158015610bbf573d6000803e3d6000fd5b505050506040513d601f19601f82011682018060405250810190610be39190612521565b9250610bef8382612550565b91508686610bff82828587611d42565b50505b8415610c5a576000848152600b602052604081206002018054839290610c2990849061268b565b90915550506000848152600b602052604081206003018054849290610c4f90849061268b565b90915550610c669050565b610c668a828433611f1c565b604080516001600160a01b03808a16825288166020820152908101829052606081018390523360808201524260a08201527fac838223c8dc8d877bcd4b6592254fdaf05f64d3da40ab54c09765d221073c1c9060c00160405180910390a19a909950975050505050505050565b6002546001600160a01b03163314610d1d5760405162461bcd60e51b815260206004820152600d60248201526c27b7363c902232b83637bcb2b960991b60448201526064016105fa565b6001600160a01b038116610d735760405162461bcd60e51b815260206004820152601460248201527f496e76616c69642050616972204164647265737300000000000000000000000060448201526064016105fa565b6008805473ffffffffffffffffffffffffffffffffffffffff19166001600160a01b0392909216919091179055565b60405163095ea7b360e01b8152306004820152602481018290526001600160a01b0383169063095ea7b3906044016020604051808303816000875af1158015610def573d6000803e3d6000fd5b505050506040513d601f19601f82011682018060405250810190610e13919061269e565b506040516323b872dd60e01b8152336004820152306024820152604481018290526001600160a01b038316906323b872dd906064016020604051808303816000875af1158015610e67573d6000803e3d6000fd5b505050506040513d601f19601f82011682018060405250810190610e8b919061269e565b505050565b336000908152600a60205260408120549003610ede5760405162461bcd60e51b815260206004820152600d60248201526c27b7363c90283937bb34b232b960991b60448201526064016105fa565b50565b6002546001600160a01b03163314610f2b5760405162461bcd60e51b815260206004820152600d60248201526c27b7363c902232b83637bcb2b960991b60448201526064016105fa565b60008111610f7b5760405162461bcd60e51b815260206004820152601b60248201527f506c6174666f726d206665652063616e6e6f74206265207a65726f000000000060448201526064016105fa565b60648110610fcb5760405162461bcd60e51b815260206004820181905260248201527f506c6174666f726d206665652063616e6e6f7420626520612068756e6472656460448201526064016105fa565b600355565b6002546001600160a01b0316331461101a5760405162461bcd60e51b815260206004820152600d60248201526c27b7363c902232b83637bcb2b960991b60448201526064016105fa565b6001600160a01b0382166110705760405162461bcd60e51b815260206004820152601560248201527f496e76616c696420546f6b656e2041646472657373000000000000000000000060448201526064016105fa565b6001600160a01b0381166110c65760405162461bcd60e51b815260206004820152601460248201527f496e76616c69642050616972204164647265737300000000000000000000000060448201526064016105fa565b6001600160a01b039182166000908152600760205260409020805473ffffffffffffffffffffffffffffffffffffffff191691909216179055565b336000908152600a6020526040812054900361114f5760405162461bcd60e51b815260206004820152600d60248201526c27b7363c90283937bb34b232b960991b60448201526064016105fa565b336000908152600a60205260409020600201548111156111b15760405162461bcd60e51b815260206004820152601460248201527f496e73756666696369656e742042616c616e636500000000000000000000000060448201526064016105fa565b336000908152600a6020526040812060020180548392906111d3908490612678565b9091555050604051339082156108fc029083906000818181858888f19350505050158015611205573d6000803e3d6000fd5b5050565b336000908152600a602052604081205481036112575760405162461bcd60e51b815260206004820152600d60248201526c27b7363c90283937bb34b232b960991b60448201526064016105fa565b600480549060006112678361265f565b9091555050600454600090815260096020908152604080832081516080810183528154815260018201546001600160a01b0390811682860152600283015416818401526003820180548451818702810187019095528085529194929360608601939092908301828280156112fa57602002820191906000526020600020905b8154815260200190600101908083116112e6575b505050919092525050604080516080810182526004548082526001600160a01b03808a1660208085019182528a83168587019081526060808a01519087019081526000958652600983529690942085518155915160018301805491851673ffffffffffffffffffffffffffffffffffffffff199283161790559351600283018054919094169416939093179091559251805195965091949293506113a692600385019290910190612361565b505060045495945050505050565b60006064831061142c5760405162461bcd60e51b815260206004820152602c60248201527f416d6f756e7420746f20737761702063616e6e6f74206265206c65737365722060448201527f7468616e2031303020574549000000000000000000000000000000000000000060648201526084016105fa565b6001600160a01b038581166000908152600760205260409020541661149f5760405162461bcd60e51b815260206004820152602360248201527f5061697220646f6573206e6f74206578697374732c20436f6e7461637420616460448201526236b4b760e91b60648201526084016105fa565b6001600160a01b03848116600090815260076020526040902054166115125760405162461bcd60e51b815260206004820152602360248201527f5061697220646f6573206e6f74206578697374732c20436f6e7461637420616460448201526236b4b760e91b60648201526084016105fa565b600082815260096020526040812054819085906115715760405162461bcd60e51b815260206004820152601460248201527f506f6f6c20646f6573206e6f742065786973747300000000000000000000000060448201526064016105fa565b6008546001600160a01b038981166000908152600760205260409020549181169116036117cd576115a23a34612678565b600080546008546001600160a01b038b811684526007602052604093849020549351635d5530df60e11b815291811660048301529283166024820152929350169063baaa61be90604401602060405180830381865afa158015611609573d6000803e3d6000fd5b505050506040513d601f19601f8201168201806040525081019061162d9190612521565b92506116398382612550565b915086600061164787611ffd565b9150508381101561169a5760405162461bcd60e51b815260206004820152601660248201527f496e73756666696369656e7420506f6f6c2053697a650000000000000000000060448201526064016105fa565b60008781526009602090815260409182902082516080810184528154815260018201546001600160a01b03908116828501526002830154168185015260038201805485518186028101860190965280865261173b958e958b95899594909360608601939283018282801561172d57602002820191906000526020600020905b815481526020019060010190808311611719575b5050505050815250506120b1565b6040517fa9059cbb000000000000000000000000000000000000000000000000000000008152336004820152602481018590526001600160a01b0383169063a9059cbb906044016020604051808303816000875af11580156117a1573d6000803e3d6000fd5b505050506040513d601f19601f820116820180604052508101906117c5919061269e565b505050611c4c565b6008546001600160a01b03888116600090815260076020526040902054918116911603611aa157600080546001600160a01b038a811683526007602052604092839020546008549351635d5530df60e11b815290821660048201529281166024840152169063baaa61be90604401602060405180830381865afa158015611858573d6000803e3d6000fd5b505050506040513d601f19601f8201168201806040525081019061187c9190612521565b92506118888382612550565b60405163095ea7b360e01b81523060048201526024810183905290925088906001600160a01b0382169063095ea7b3906044016020604051808303816000875af11580156118da573d6000803e3d6000fd5b505050506040513d601f19601f820116820180604052508101906118fe919061269e565b506040516323b872dd60e01b8152336004820152306024820152604481018390526001600160a01b038216906323b872dd906064016020604051808303816000875af1158015611952573d6000803e3d6000fd5b505050506040513d601f19601f82011682018060405250810190611976919061269e565b50600061198287611ffd565b509050838110156119d55760405162461bcd60e51b815260206004820152601660248201527f496e73756666696369656e7420506f6f6c2053697a650000000000000000000060448201526064016105fa565b60008781526009602090815260409182902082516080810184528154815260018201546001600160a01b039081168285015260028301541681850152600382018054855181860281018601909652808652611a74958e958b95899594909360608601939283018282801561172d5760200282019190600052602060002090815481526020019060010190808311611719575050505050815250506120b1565b604051339085156108fc029086906000818181858888f193505050501580156117c5573d6000803e3d6000fd5b600080546001600160a01b038a8116835260076020526040808420548b8316855293819020549051635d5530df60e11b8152938216600485015281166024840152169063baaa61be90604401602060405180830381865afa158015611b0a573d6000803e3d6000fd5b505050506040513d601f19601f82011682018060405250810190611b2e9190612521565b9250611b3a8382612550565b915087876000611b4988611ffd565b91505084811015611b9c5760405162461bcd60e51b815260206004820152601660248201527f496e73756666696369656e7420506f6f6c2053697a650000000000000000000060448201526064016105fa565b60008881526009602090815260409182902082516080810184528154815260018201546001600160a01b039081168285015260028301541681850152600382018054855181860281018601909652808652611c3b958f958c95899594909360608601939283018282801561172d5760200282019190600052602060002090815481526020019060010190808311611719575050505050815250506120b1565b611c4883838b88336121ad565b5050505b60408051878152602081018490526001600160a01b038a8116828401528916606082015242608082015290517f649451cb6bd28801e8992e83f834233301eb39b64a665a45b1e08d3e13ff679a9181900360a00190a1509695505050505050565b60008060008060005b6001600160a01b0386166000908152600a6020526040902060030154811015611d37576001600160a01b0386166000908152600a60205260409020600301805488919083908110611d0957611d096126c0565b906000526020600020015403611d255780925060019150611d37565b80611d2f8161265f565b915050611cb6565b509590945092505050565b60405163095ea7b360e01b8152306004820152602481018390526001600160a01b0385169063095ea7b3906044016020604051808303816000875af1158015611d8f573d6000803e3d6000fd5b505050506040513d601f19601f82011682018060405250810190611db3919061269e565b506040516323b872dd60e01b8152336004820152306024820152604481018390526001600160a01b038516906323b872dd906064016020604051808303816000875af1158015611e07573d6000803e3d6000fd5b505050506040513d601f19601f82011682018060405250810190611e2b919061269e565b5060405163095ea7b360e01b8152306004820152602481018290526001600160a01b0384169063095ea7b3906044016020604051808303816000875af1158015611e79573d6000803e3d6000fd5b505050506040513d601f19601f82011682018060405250810190611e9d919061269e565b506040516323b872dd60e01b8152336004820152306024820152604481018290526001600160a01b038416906323b872dd906064016020604051808303816000875af1158015611ef1573d6000803e3d6000fd5b505050506040513d601f19601f82011682018060405250810190611f15919061269e565b5050505050565b60058054906000611f2c8361265f565b90915550506040805160a081018252600580548083526020808401898152848601988952606085019788526001600160a01b03968716608086018181526000948552600b845287852096518755915160018088019190915599516002870155975160038087019190915590516004909501805473ffffffffffffffffffffffffffffffffffffffff19169590971694909417909555968752600984528287208154908301805480890182559089528589200155938652600a8352908520925492018054938401815584529092200155565b60008060008060005b6000868152600960205260409020600301548110156120a6576000868152600960205260408120600301805483908110612042576120426126c0565b90600052602060002001549050600b60008281526020019081526020016000206002015484612071919061268b565b6000828152600b6020526040902060030154909450612090908461268b565b925050808061209e9061265f565b915050612006565b509094909350915050565b60005b816060015151811015611f15576000826060015182815181106120d9576120d96126c0565b6020026020010151905060008487600b6000858152602001908152602001600020600301546121089190612550565b61211291906126d6565b905080600b6000848152602001908152602001600020600201600082825461213a919061268b565b90915550506000828152600b6020526040812060030154869061215e908990612550565b61216891906126d6565b905080600b600085815260200190815260200160002060030160008282546121909190612678565b9250508190555050505080806121a59061265f565b9150506120b4565b6003546000906121be6064856126d6565b6121c89190612550565b60405163095ea7b360e01b8152306004820152602481018690529091506001600160a01b0387169063095ea7b3906044016020604051808303816000875af1158015612218573d6000803e3d6000fd5b505050506040513d601f19601f8201168201806040525081019061223c919061269e565b506040516323b872dd60e01b81526001600160a01b038381166004830152306024830152604482018690528716906323b872dd906064016020604051808303816000875af1158015612292573d6000803e3d6000fd5b505050506040513d601f19601f820116820180604052508101906122b6919061269e565b506001600160a01b03851663a9059cbb836122d18487612678565b6040517fffffffff0000000000000000000000000000000000000000000000000000000060e085901b1681526001600160a01b03909216600483015260248201526044016020604051808303816000875af1158015612334573d6000803e3d6000fd5b505050506040513d601f19601f82011682018060405250810190612358919061269e565b50505050505050565b82805482825590600052602060002090810192821561239c579160200282015b8281111561239c578251825591602001919060010190612381565b506123a89291506123ac565b5090565b5b808211156123a857600081556001016123ad565b6001600160a01b0381168114610ede57600080fd5b6000602082840312156123e857600080fd5b81356123f3816123c1565b9392505050565b60008060006060848603121561240f57600080fd5b833561241a816123c1565b9250602084013561242a816123c1565b929592945050506040919091013590565b6000806040838503121561244e57600080fd5b8235612459816123c1565b91506020830135612469816123c1565b809150509250929050565b6000806040838503121561248757600080fd5b50508035926020909101359150565b600080604083850312156124a957600080fd5b82356124b4816123c1565b946020939093013593505050565b6000602082840312156124d457600080fd5b5035919050565b600080600080608085870312156124f157600080fd5b84356124fc816123c1565b9350602085013561250c816123c1565b93969395505050506040820135916060013590565b60006020828403121561253357600080fd5b5051919050565b634e487b7160e01b600052601160045260246000fd5b600081600019048311821515161561256a5761256a61253a565b500290565b600181815b808511156125aa5781600019048211156125905761259061253a565b8085161561259d57918102915b93841c9390800290612574565b509250929050565b6000826125c15750600161059b565b816125ce5750600061059b565b81600181146125e457600281146125ee5761260a565b600191505061059b565b60ff8411156125ff576125ff61253a565b50506001821b61059b565b5060208310610133831016604e8410600b841016171561262d575081810a61059b565b612637838361256f565b806000190482111561264b5761264b61253a565b029392505050565b600061059883836125b2565b6000600182016126715761267161253a565b5060010190565b8181038181111561059b5761059b61253a565b8082018082111561059b5761059b61253a565b6000602082840312156126b057600080fd5b815180151581146123f357600080fd5b634e487b7160e01b600052603260045260246000fd5b6000826126f357634e487b7160e01b600052601260045260246000fd5b50049056fea2646970667358221220c83bb0c8c376d355c78d059dc558a931d45dffdc28c03bf2d91b114c6ad8385664736f6c63430008100033",
  "immutableReferences": {},
  "source": "// SPDX-License-Identifier: GPL-3.0\npragma solidity >=0.7.0 <0.9.0;\n\nimport {PriceApi} from \"./PriceApi.sol\";\nimport {FleepToken} from \"./FleepToken.sol\";\nimport {IERC20} from \"@openzeppelin/contracts/token/ERC20/IERC20.sol\";\n\ncontract FleepSwap {\n    PriceApi private _priceApi;\n    FleepToken private _fleepToken;\n\n    // contract admin\n    address private _deployer;\n\n    // charges 1% fee on every successful swaps\n    uint private swapFee = 1;\n\n    // ids to avoid conflicts\n    uint256 private POOL_ID;\n    uint256 private LIQUID_ID;\n    uint256 private PROVIDER_ID;\n\n    // token contract address => chainlink aggregrator address\n    // only in the token paired to USD format\n    mapping(address => address) public pairs;\n\n    // is a member of the pairs mapping\n    // but its the native pair MATIC not ERC20\n    address public NATIVE_PAIR;\n\n    // id => liquidity pools\n    mapping(uint => Pool) public pools;\n    // user address => provider data\n    mapping(address => Provider) public providers;\n    // id => liquids\n    mapping(uint => Liquid) public liquids;\n\n    // === Events === //\n\n    event LiquidityProvided(\n        address token0,\n        address token1,\n        uint256 amount0,\n        uint256 amount1,\n        address provider,\n        uint timestamp\n    );\n\n    event LiquidityRemoved(\n        address token0,\n        address token1,\n        uint256 amount0,\n        uint256 amount1,\n        address provider\n    );\n\n    event FleepSwaped(\n        uint256 amount,\n        uint256 amountOut,\n        address from,\n        address to,\n        uint timestamp\n    );\n\n    // === Structs === //\n\n    struct Pool {\n        uint id;\n        address token0;\n        address token1;\n        uint[] liquids;\n    }\n\n    struct Liquid {\n        uint id;\n        uint poolId;\n        uint256 amount0;\n        uint256 amount1;\n        address provider;\n    }\n\n    struct Provider {\n        uint id;\n        uint256 totalEarned;\n        uint256 balance;\n        uint[] liquids;\n    }\n\n    //  check the price of BNB/SUSHI\n    constructor(address priceApI, address fleepToken) {\n        _priceApi = PriceApi(priceApI);\n        _fleepToken = FleepToken(fleepToken);\n        _deployer = msg.sender;\n    }\n\n    // gets the exchanges rates for pair of tokens\n    // useful for user knowing the price of swap\n    // before the actually perform a swap\n    function getRate(address base, address quote) public view returns (int256) {\n        return _priceApi.getExchangeRate(base, quote);\n    }\n\n    // gets the exchanges rates for pair of tokens\n    // with accordance to amount of tokens\n    function estimate(\n        address token0,\n        address token1,\n        uint256 amount0\n    ) public view returns (uint256) {\n        int256 rate = _priceApi.getExchangeRate(pairs[token0], pairs[token1]);\n        return amount0 * uint256(rate);\n    }\n\n    // returns the pair address for $MATIC\n    function getNativePair() public view returns (address) {\n        return NATIVE_PAIR;\n    }\n\n    // register as a provider\n    function unlockedProviderAccount() public onlyGuest {\n        // to become a provider you must hodl at least 10\n        // of Fleep Token\n        require(\n            _fleepToken.balanceOf(msg.sender) >= 10**_fleepToken.getDecimals(),\n            \"You must hodl at least 10 Fleep Tokens\"\n        );\n\n        PROVIDER_ID++;\n        Provider memory provider = providers[msg.sender];\n        providers[msg.sender] = Provider(\n            PROVIDER_ID,\n            provider.totalEarned,\n            provider.balance,\n            provider.liquids\n        );\n    }\n\n    // === Swapping === //\n\n    function swap(\n        address token0,\n        address token1,\n        uint256 amount0,\n        uint poolId\n    ) public payable returns (uint256) {\n        require(amount0 < 100, \"Amount to swap cannot be lesser than 100 WEI\");\n        require(\n            pairs[token0] != address(0),\n            \"Pair does not exists, Contact admin\"\n        );\n        require(\n            pairs[token1] != address(0),\n            \"Pair does not exists, Contact admin\"\n        );\n\n        uint256 rate;\n        uint256 amount1;\n\n        uint256 _safeAmount0 = amount0;\n\n        require(pools[poolId].id > 0, \"Pool does not exists\");\n\n        if (pairs[token0] == NATIVE_PAIR) {\n            _safeAmount0 = (msg.value - tx.gasprice);\n            rate = uint256(\n                _priceApi.getExchangeRate(NATIVE_PAIR, pairs[token1])\n            );\n            amount1 = _safeAmount0 * uint256(rate);\n\n            IERC20 quoteToken = IERC20(token1);\n\n            (, uint256 _balanceOfToken1) = _poolSize(poolId);\n\n            // check if contract has enough destination token liquid\n            require(_balanceOfToken1 >= amount1, \"Insufficient Pool Size\");\n\n            _aggregateLiquids(\n                amount0,\n                amount1,\n                _balanceOfToken1,\n                pools[poolId]\n            );\n\n            quoteToken.transfer(msg.sender, amount1);\n        } else if (pairs[token1] == NATIVE_PAIR) {\n            rate = uint256(\n                _priceApi.getExchangeRate(pairs[token0], NATIVE_PAIR)\n            );\n            amount1 = _safeAmount0 * uint256(rate);\n\n            IERC20 baseToken = IERC20(token0);\n            baseToken.approve(address(this), _safeAmount0);\n            baseToken.transferFrom(msg.sender, address(this), _safeAmount0);\n\n            (uint256 _balanceOfToken1, ) = _poolSize(poolId);\n            require(_balanceOfToken1 >= amount1, \"Insufficient Pool Size\");\n\n            _aggregateLiquids(\n                amount0,\n                amount1,\n                _balanceOfToken1,\n                pools[poolId]\n            );\n\n            payable(msg.sender).transfer(amount1);\n        } else {\n            rate = uint256(\n                _priceApi.getExchangeRate(pairs[token0], pairs[token1])\n            );\n            amount1 = _safeAmount0 * uint256(rate);\n\n            IERC20 baseToken = IERC20(token0);\n            IERC20 quoteToken = IERC20(token1);\n\n            (, uint256 _balanceOfToken1) = _poolSize(poolId);\n\n            // check if contract has enough destination token liquid\n            require(_balanceOfToken1 >= amount1, \"Insufficient Pool Size\");\n\n            _aggregateLiquids(\n                amount0,\n                amount1,\n                _balanceOfToken1,\n                pools[poolId]\n            );\n\n            _transferSwappedTokens(\n                baseToken,\n                quoteToken,\n                amount0,\n                amount1,\n                msg.sender\n            );\n        }\n\n        // store the swap data on-chain\n        emit FleepSwaped(amount0, amount1, token0, token1, block.timestamp);\n\n        return amount1;\n    }\n\n    // === Providers === //\n\n    function createPool(address token0, address token1)\n        public\n        onlyProvider\n        returns (uint)\n    {\n        // create pool id\n        POOL_ID++;\n        // create a new pool from struct\n        Pool memory pool = pools[POOL_ID];\n        // register the pool\n        pools[POOL_ID] = Pool(POOL_ID, token0, token1, pool.liquids);\n        return POOL_ID;\n    }\n\n    function provideLiquidity(uint256 amount0, uint poolId)\n        public\n        payable\n        onlyProvider\n        returns (uint256, uint256)\n    {\n        require(amount0 > 100, \"Amount cannot be lesser than 100 WEI\");\n\n        address token0 = pools[poolId].token0;\n        address token1 = pools[poolId].token1;\n\n        require(\n            pairs[token0] != address(0),\n            \"Pair does not exists, Contact admin\"\n        );\n        require(\n            pairs[token1] != address(0),\n            \"Pair does not exists, Contact admin\"\n        );\n\n        (bool hasLiquid, uint liquidIndex) = _liquidIndex(poolId, msg.sender);\n\n        uint256 rate;\n        uint256 amount1;\n\n        uint256 _safeAmount0 = amount0;\n\n        if (pairs[token0] == NATIVE_PAIR) {\n            // only in format of MATIC as pair subject\n            // ex MATIC/XEND\n            _safeAmount0 = (msg.value - tx.gasprice);\n\n            rate = uint256(\n                _priceApi.getExchangeRate(pairs[token0], pairs[token1])\n            );\n            amount1 = _safeAmount0 * uint256(rate);\n\n            // swap involve native token\n            IERC20 quoteToken = IERC20(token1);\n            _nativeStake(quoteToken, amount1);\n        } else {\n            rate = uint256(\n                _priceApi.getExchangeRate(pairs[token0], pairs[token1])\n            );\n            amount1 = _safeAmount0 * uint256(rate);\n\n            // both tokens are ERC20\n            IERC20 baseToken = IERC20(token0);\n            IERC20 quoteToken = IERC20(token1);\n            _stakeTokens(baseToken, quoteToken, _safeAmount0, amount1);\n        }\n\n        if (hasLiquid) {\n            // if liquid exist increment the amount\n            liquids[liquidIndex].amount0 += _safeAmount0;\n            liquids[liquidIndex].amount1 += amount1;\n        } else {\n            _createLiquid(poolId, _safeAmount0, amount1, msg.sender);\n        }\n\n        // store the liquidity data on-chain\n        emit LiquidityProvided(\n            token0,\n            token1,\n            _safeAmount0,\n            amount1,\n            msg.sender,\n            block.timestamp\n        );\n\n        return (_safeAmount0, amount1);\n    }\n\n    function removeLiquidity(uint id) public onlyProvider {}\n\n    function withDrawEarnings(uint256 amount) public onlyProvider {\n        require(\n            providers[msg.sender].balance >= amount,\n            \"Insufficient Balance\"\n        );\n        providers[msg.sender].balance -= amount;\n        payable(msg.sender).transfer(amount);\n    }\n\n    // === Administration === //\n\n    function updateNativePair(address pair) public onlyDeployer {\n        require(pair != address(0), \"Invalid Pair Address\");\n        NATIVE_PAIR = pair;\n    }\n\n    function updateSwapFee(uint fee) public onlyDeployer {\n        require(fee > 0, \"Platform fee cannot be zero\");\n        require(fee < 100, \"Platform fee cannot be a hundred\");\n        swapFee = fee;\n    }\n\n    function createPair(address token, address pair) public onlyDeployer {\n        require(token != address(0), \"Invalid Token Address\");\n        require(pair != address(0), \"Invalid Pair Address\");\n        pairs[token] = pair;\n    }\n\n    // === Internal Functions === //\n\n    function _liquidIndex(uint poolId, address provider)\n        private\n        view\n        returns (bool, uint)\n    {\n        uint position = 0;\n        bool found = false;\n\n        for (\n            uint index = 0;\n            index < providers[provider].liquids.length;\n            index++\n        ) {\n            if (providers[provider].liquids[index] == poolId) {\n                position = index;\n                found = true;\n                break;\n            }\n        }\n\n        return (found, position);\n    }\n\n    function _aggregateLiquids(\n        uint256 amount0,\n        uint256 amount1,\n        uint256 _balanceOfToken1,\n        Pool memory pool\n    ) private {\n        // equally share swap impact on all provider liquids based on their contribution\n        for (uint index = 0; index < pool.liquids.length; index++) {\n            uint liquidId = pool.liquids[index];\n\n            // calculated with ratio of this liquid compared\n            // to other liquids contributing\n            uint256 additionAmount = ((liquids[liquidId].amount1 * amount0) /\n                _balanceOfToken1);\n\n            // step I\n            liquids[liquidId].amount0 += additionAmount;\n\n            // calculated with ratio of this liquid compared\n            // to other liquids contributing\n            uint256 deductionAmount = ((liquids[liquidId].amount1 * amount1) /\n                _balanceOfToken1);\n\n            // step II\n            liquids[liquidId].amount1 -= deductionAmount;\n        }\n    }\n\n    function _transferSwappedTokens(\n        IERC20 token0,\n        IERC20 token1,\n        uint256 amount0,\n        uint256 amount1,\n        address owner\n    ) private {\n        uint256 _fee = ((amount1 / 100) * swapFee);\n\n        // tranfers the base token from user to the\n        // smart contract\n        token0.approve(address(this), amount0);\n        token0.transferFrom(owner, address(this), amount0);\n\n        // give user their destination token minus fee\n        token1.transfer(owner, (amount1 - _fee));\n    }\n\n    function _createLiquid(\n        uint poolId,\n        uint256 amount0,\n        uint256 amount1,\n        address provider\n    ) private {\n        // otherwise create the new liquid\n        LIQUID_ID++;\n        // create and register the liquid\n        liquids[LIQUID_ID] = Liquid(\n            LIQUID_ID,\n            poolId,\n            amount0,\n            amount1,\n            provider\n        );\n        pools[poolId].liquids.push(LIQUID_ID);\n        providers[provider].liquids.push(LIQUID_ID);\n    }\n\n    function _nativeStake(IERC20 pairedToken, uint256 pairedAmount)\n        public\n        payable\n    {\n        // stake token0 to smart contract\n        pairedToken.approve(address(this), pairedAmount);\n        pairedToken.transferFrom(msg.sender, address(this), pairedAmount);\n    }\n\n    function _stakeTokens(\n        IERC20 token0,\n        IERC20 token1,\n        uint256 amount0,\n        uint amount1\n    ) private {\n        // stake token0 to smart contract\n        token0.approve(address(this), amount0);\n        token0.transferFrom(msg.sender, address(this), amount0);\n\n        // stake token1 to smart contract\n        token1.approve(address(this), amount1);\n        token1.transferFrom(msg.sender, address(this), amount1);\n    }\n\n    function _poolSize(uint id) private view returns (uint256, uint256) {\n        uint256 amount0;\n        uint256 amount1;\n        for (uint index = 0; index < pools[id].liquids.length; index++) {\n            uint liquidId = pools[id].liquids[index];\n            amount0 += liquids[liquidId].amount0;\n            amount1 += liquids[liquidId].amount1;\n        }\n        return (amount0, amount1);\n    }\n\n    // function _distributeFees(Liquid[] memory liquids) private {}\n\n    // === Modifiers === //\n\n    modifier onlyGuest() {\n        require(providers[msg.sender].id == 0, \"Only Guest\");\n        _;\n    }\n\n    modifier onlyProvider() {\n        require(providers[msg.sender].id != 0, \"Only Provider\");\n        _;\n    }\n\n    modifier onlyDeployer() {\n        require(msg.sender == _deployer, \"Only Deployer\");\n        _;\n    }\n}\n",
  "sourcePath": "C:\\Users\\Arogundade Ibrahim\\Documents\\web3\\fleep\\contracts\\FleepSwap.sol",
  "compiler": {
    "name": "solc",
    "version": "0.8.16+commit.07a7930e.Emscripten.clang"
  },
  "schemaVersion": "3.4.10",
  "updatedAt": "2022-11-22T00:01:59.739Z",
  "networkType": "ethereum",
  "devdoc": {
    "kind": "dev",
    "methods": {},
    "version": 1
  },
  "userdoc": {
    "kind": "user",
    "methods": {},
    "version": 1
  }
}