{
  "contractName": "FleepSweeper",
  "abi": [
    {
      "inputs": [
        {
          "internalType": "address",
          "name": "fleepSwap",
          "type": "address"
        }
      ],
      "stateMutability": "nonpayable",
      "type": "constructor"
    },
    {
      "anonymous": false,
      "inputs": [
        {
          "indexed": false,
          "internalType": "uint256",
          "name": "amount",
          "type": "uint256"
        },
        {
          "indexed": false,
          "internalType": "address",
          "name": "from",
          "type": "address"
        },
        {
          "indexed": false,
          "internalType": "uint256",
          "name": "timestamp",
          "type": "uint256"
        }
      ],
      "name": "FleepSweeped",
      "type": "event"
    },
    {
      "inputs": [
        {
          "internalType": "address[]",
          "name": "tokens",
          "type": "address[]"
        }
      ],
      "name": "sweep",
      "outputs": [
        {
          "internalType": "uint256",
          "name": "",
          "type": "uint256"
        }
      ],
      "stateMutability": "nonpayable",
      "type": "function"
    },
    {
      "inputs": [
        {
          "internalType": "address[]",
          "name": "tokens",
          "type": "address[]"
        },
        {
          "internalType": "address",
          "name": "wallet",
          "type": "address"
        }
      ],
      "name": "estimate",
      "outputs": [
        {
          "internalType": "uint256",
          "name": "",
          "type": "uint256"
        }
      ],
      "stateMutability": "view",
      "type": "function"
    }
  ],
  "bytecode": "0x608060405234801561001057600080fd5b506040516107f03803806107f083398101604081905261002f91610054565b600080546001600160a01b0319166001600160a01b0392909216919091179055610084565b60006020828403121561006657600080fd5b81516001600160a01b038116811461007d57600080fd5b9392505050565b61075d806100936000396000f3fe608060405234801561001057600080fd5b50600436106100365760003560e01c80631cf0a8b81461003b578063780469bb14610060575b600080fd5b61004e610049366004610603565b610073565b60405190815260200160405180910390f35b61004e61006e366004610655565b6102a5565b60008060005b845181101561029b5760006001600160a01b031685828151811061009f5761009f610692565b60200260200101516001600160a01b031603156102895760008582815181106100ca576100ca610692565b60209081029190910101516040516370a0823160e01b81526001600160a01b0387811660048301529192506000918316906370a0823190602401602060405180830381865afa158015610121573d6000803e3d6000fd5b505050506040513d601f19601f8201168201806040525081019061014591906106a8565b60005488519192506001600160a01b03169063102a5f919089908690811061016f5761016f610692565b602002602001015160008054906101000a90046001600160a01b03166001600160a01b0316638a2627f06040518163ffffffff1660e01b8152600401602060405180830381865afa1580156101c8573d6000803e3d6000fd5b505050506040513d601f19601f820116820180604052508101906101ec91906106c1565b6040517fffffffff0000000000000000000000000000000000000000000000000000000060e085901b1681526001600160a01b0392831660048201529116602482015260448101849052606401602060405180830381865afa158015610256573d6000803e3d6000fd5b505050506040513d601f19601f8201168201806040525081019061027a91906106a8565b61028490856106fb565b935050505b806102938161070e565b915050610079565b5090505b92915050565b60008060005b83518110156104de5760006001600160a01b03168482815181106102d1576102d1610692565b60200260200101516001600160a01b031603156104cc5760008482815181106102fc576102fc610692565b60209081029190910101516040516370a0823160e01b81523360048201529091506000906001600160a01b038316906370a0823190602401602060405180830381865afa158015610351573d6000803e3d6000fd5b505050506040513d601f19601f8201168201806040525081019061037591906106a8565b905060648110156103875750506104cc565b60005486516001600160a01b039091169063df791e50908890869081106103b0576103b0610692565b602002602001015160008054906101000a90046001600160a01b03166001600160a01b0316638a2627f06040518163ffffffff1660e01b8152600401602060405180830381865afa158015610409573d6000803e3d6000fd5b505050506040513d601f19601f8201168201806040525081019061042d91906106c1565b6040517fffffffff0000000000000000000000000000000000000000000000000000000060e085901b1681526001600160a01b03928316600482015291166024820152604481018490526064016020604051808303816000875af1158015610499573d6000803e3d6000fd5b505050506040513d601f19601f820116820180604052508101906104bd91906106a8565b6104c790856106fb565b935050505b806104d68161070e565b9150506102ab565b5060408051828152336020820152428183015290517f874f570256cbec110f2a42b8636058d35f973b452ca16bebffab54e320e0e97b9181900360600190a192915050565b634e487b7160e01b600052604160045260246000fd5b6001600160a01b038116811461054e57600080fd5b50565b803561055c81610539565b919050565b600082601f83011261057257600080fd5b8135602067ffffffffffffffff8083111561058f5761058f610523565b8260051b604051601f19603f830116810181811084821117156105b4576105b4610523565b6040529384528581018301938381019250878511156105d257600080fd5b83870191505b848210156105f8576105e982610551565b835291830191908301906105d8565b979650505050505050565b6000806040838503121561061657600080fd5b823567ffffffffffffffff81111561062d57600080fd5b61063985828601610561565b925050602083013561064a81610539565b809150509250929050565b60006020828403121561066757600080fd5b813567ffffffffffffffff81111561067e57600080fd5b61068a84828501610561565b949350505050565b634e487b7160e01b600052603260045260246000fd5b6000602082840312156106ba57600080fd5b5051919050565b6000602082840312156106d357600080fd5b81516106de81610539565b9392505050565b634e487b7160e01b600052601160045260246000fd5b8082018082111561029f5761029f6106e5565b600060018201610720576107206106e5565b506001019056fea26469706673582212204f19c05a4e4ad5dc64f9a9a610eeb94e9e5ffb7a4bda34ec2dd78c20cf10bcd264736f6c63430008100033",
  "immutableReferences": {},
  "source": "// SPDX-License-Identifier: GPL-3.0\npragma solidity >=0.7.0 <0.9.0;\n\nimport {PriceApi} from \"./PriceApi.sol\";\nimport {FleepSwap} from \"./FleepSwap.sol\";\nimport {ERC20} from \"./standard/ERC20.sol\";\n\ncontract FleepSweeper {\n    FleepSwap private _fleepSwap;\n\n    // === Events === //\n\n    event FleepSweeped(uint256 amount, address from, uint timestamp);\n\n    // initialize dependencies\n    constructor(address fleepSwap) {\n        _fleepSwap = FleepSwap(fleepSwap);\n    }\n\n    // recursively swap every tokens for matic\n    function sweep(address[] memory tokens) public returns (uint256) {\n        uint256 amount1;\n        for (uint index = 0; index < tokens.length; index++) {\n            if (tokens[index] == address(0)) continue;\n\n            ERC20 token = ERC20(tokens[index]);\n            uint256 amount0 = token.balanceOf(msg.sender);\n\n            // amount cannot be lesser than 100 WEI\n            if (amount0 < 100) continue;\n\n            // swap\n            amount1 += _fleepSwap.swap(\n                tokens[index],\n                _fleepSwap.getNativePair(),\n                amount0\n            );\n        }\n\n        // registers every successful sweeps\n        emit FleepSweeped(amount1, msg.sender, block.timestamp);\n\n        return amount1;\n    }\n\n    function estimate(address[] memory tokens, address wallet)\n        public\n        view\n        returns (uint256)\n    {\n        uint256 amount1;\n\n        for (uint index = 0; index < tokens.length; index++) {\n            if (tokens[index] == address(0)) continue;\n\n            ERC20 token = ERC20(tokens[index]);\n            uint256 amount0 = token.balanceOf(wallet);\n\n            amount1 += _fleepSwap.estimate(\n                tokens[index],\n                _fleepSwap.getNativePair(),\n                amount0\n            );\n        }\n\n        return amount1;\n    }\n}\n",
  "sourcePath": "C:\\Users\\Arogundade Ibrahim\\Documents\\web3\\fleep\\contracts\\FleepSweeper.sol",
  "compiler": {
    "name": "solc",
    "version": "0.8.16+commit.07a7930e.Emscripten.clang"
  },
  "schemaVersion": "3.4.10",
  "updatedAt": "2022-11-26T08:34:36.118Z",
  "devdoc": {
    "kind": "dev",
    "methods": {},
    "version": 1
  },
  "userdoc": {
    "kind": "user",
    "methods": {},
    "version": 1
  }
}