{
  "contractName": "FleepToken",
  "abi": [
    {
      "inputs": [],
      "stateMutability": "nonpayable",
      "type": "constructor"
    },
    {
      "anonymous": false,
      "inputs": [
        {
          "indexed": true,
          "internalType": "address",
          "name": "owner",
          "type": "address"
        },
        {
          "indexed": true,
          "internalType": "address",
          "name": "spender",
          "type": "address"
        },
        {
          "indexed": false,
          "internalType": "uint256",
          "name": "value",
          "type": "uint256"
        }
      ],
      "name": "Approval",
      "type": "event"
    },
    {
      "anonymous": false,
      "inputs": [
        {
          "indexed": true,
          "internalType": "address",
          "name": "from",
          "type": "address"
        },
        {
          "indexed": true,
          "internalType": "address",
          "name": "to",
          "type": "address"
        },
        {
          "indexed": false,
          "internalType": "uint256",
          "name": "value",
          "type": "uint256"
        }
      ],
      "name": "Transfer",
      "type": "event"
    },
    {
      "inputs": [
        {
          "internalType": "address",
          "name": "",
          "type": "address"
        }
      ],
      "name": "allocations",
      "outputs": [
        {
          "internalType": "uint256",
          "name": "",
          "type": "uint256"
        }
      ],
      "stateMutability": "view",
      "type": "function"
    },
    {
      "inputs": [
        {
          "internalType": "address",
          "name": "owner",
          "type": "address"
        },
        {
          "internalType": "address",
          "name": "spender",
          "type": "address"
        }
      ],
      "name": "allowance",
      "outputs": [
        {
          "internalType": "uint256",
          "name": "",
          "type": "uint256"
        }
      ],
      "stateMutability": "view",
      "type": "function"
    },
    {
      "inputs": [
        {
          "internalType": "address",
          "name": "spender",
          "type": "address"
        },
        {
          "internalType": "uint256",
          "name": "amount",
          "type": "uint256"
        }
      ],
      "name": "approve",
      "outputs": [
        {
          "internalType": "bool",
          "name": "",
          "type": "bool"
        }
      ],
      "stateMutability": "nonpayable",
      "type": "function"
    },
    {
      "inputs": [
        {
          "internalType": "address",
          "name": "account",
          "type": "address"
        }
      ],
      "name": "balanceOf",
      "outputs": [
        {
          "internalType": "uint256",
          "name": "",
          "type": "uint256"
        }
      ],
      "stateMutability": "view",
      "type": "function"
    },
    {
      "inputs": [],
      "name": "decimals",
      "outputs": [
        {
          "internalType": "uint8",
          "name": "",
          "type": "uint8"
        }
      ],
      "stateMutability": "view",
      "type": "function"
    },
    {
      "inputs": [
        {
          "internalType": "address",
          "name": "spender",
          "type": "address"
        },
        {
          "internalType": "uint256",
          "name": "subtractedValue",
          "type": "uint256"
        }
      ],
      "name": "decreaseAllowance",
      "outputs": [
        {
          "internalType": "bool",
          "name": "",
          "type": "bool"
        }
      ],
      "stateMutability": "nonpayable",
      "type": "function"
    },
    {
      "inputs": [
        {
          "internalType": "address",
          "name": "spender",
          "type": "address"
        },
        {
          "internalType": "uint256",
          "name": "addedValue",
          "type": "uint256"
        }
      ],
      "name": "increaseAllowance",
      "outputs": [
        {
          "internalType": "bool",
          "name": "",
          "type": "bool"
        }
      ],
      "stateMutability": "nonpayable",
      "type": "function"
    },
    {
      "inputs": [],
      "name": "name",
      "outputs": [
        {
          "internalType": "string",
          "name": "",
          "type": "string"
        }
      ],
      "stateMutability": "view",
      "type": "function"
    },
    {
      "inputs": [],
      "name": "symbol",
      "outputs": [
        {
          "internalType": "string",
          "name": "",
          "type": "string"
        }
      ],
      "stateMutability": "view",
      "type": "function"
    },
    {
      "inputs": [],
      "name": "totalSupply",
      "outputs": [
        {
          "internalType": "uint256",
          "name": "",
          "type": "uint256"
        }
      ],
      "stateMutability": "view",
      "type": "function"
    },
    {
      "inputs": [
        {
          "internalType": "address",
          "name": "to",
          "type": "address"
        },
        {
          "internalType": "uint256",
          "name": "amount",
          "type": "uint256"
        }
      ],
      "name": "transfer",
      "outputs": [
        {
          "internalType": "bool",
          "name": "",
          "type": "bool"
        }
      ],
      "stateMutability": "nonpayable",
      "type": "function"
    },
    {
      "inputs": [
        {
          "internalType": "address",
          "name": "from",
          "type": "address"
        },
        {
          "internalType": "address",
          "name": "to",
          "type": "address"
        },
        {
          "internalType": "uint256",
          "name": "amount",
          "type": "uint256"
        }
      ],
      "name": "transferFrom",
      "outputs": [
        {
          "internalType": "bool",
          "name": "",
          "type": "bool"
        }
      ],
      "stateMutability": "nonpayable",
      "type": "function"
    },
    {
      "inputs": [
        {
          "internalType": "uint256",
          "name": "amount",
          "type": "uint256"
        }
      ],
      "name": "faucet",
      "outputs": [],
      "stateMutability": "nonpayable",
      "type": "function"
    },
    {
      "inputs": [
        {
          "internalType": "uint256",
          "name": "amount",
          "type": "uint256"
        }
      ],
      "name": "inWei",
      "outputs": [
        {
          "internalType": "uint256",
          "name": "",
          "type": "uint256"
        }
      ],
      "stateMutability": "view",
      "type": "function"
    }
  ],
  "bytecode": "0x6080604052620000106032620000be565b6005553480156200002057600080fd5b506040518060400160405280600b81526020016a233632b2b8102a37b5b2b760a91b815250604051806040016040528060038152602001620464c560ec1b81525081600390816200007291906200024f565b5060046200008182826200024f565b505050620000a4336200009e6302faf080620000be60201b60201c565b620000e0565b620000b8306200009e6302faf080620000be565b6200047e565b6000620000ce6012600a6200042e565b620000da908362000446565b92915050565b6001600160a01b0382166200013b5760405162461bcd60e51b815260206004820152601f60248201527f45524332303a206d696e7420746f20746865207a65726f206164647265737300604482015260640160405180910390fd5b80600260008282546200014f919062000468565b90915550506001600160a01b038216600081815260208181526040808320805486019055518481527fddf252ad1be2c89b69c2b068fc378daa952ba7f163c4a11628f55a4df523b3ef910160405180910390a35050565b505050565b634e487b7160e01b600052604160045260246000fd5b600181811c90821680620001d657607f821691505b602082108103620001f757634e487b7160e01b600052602260045260246000fd5b50919050565b601f821115620001a657600081815260208120601f850160051c81016020861015620002265750805b601f850160051c820191505b81811015620002475782815560010162000232565b505050505050565b81516001600160401b038111156200026b576200026b620001ab565b62000283816200027c8454620001c1565b84620001fd565b602080601f831160018114620002bb5760008415620002a25750858301515b600019600386901b1c1916600185901b17855562000247565b600085815260208120601f198616915b82811015620002ec57888601518255948401946001909101908401620002cb565b50858210156200030b5787850151600019600388901b60f8161c191681555b5050505050600190811b01905550565b634e487b7160e01b600052601160045260246000fd5b600181815b80851115620003725781600019048211156200035657620003566200031b565b808516156200036457918102915b93841c939080029062000336565b509250929050565b6000826200038b57506001620000da565b816200039a57506000620000da565b8160018114620003b35760028114620003be57620003de565b6001915050620000da565b60ff841115620003d257620003d26200031b565b50506001821b620000da565b5060208310610133831016604e8410600b841016171562000403575081810a620000da565b6200040f838362000331565b80600019048211156200042657620004266200031b565b029392505050565b60006200043f60ff8416836200037a565b9392505050565b60008160001904831182151516156200046357620004636200031b565b500290565b80820180821115620000da57620000da6200031b565b610d70806200048e6000396000f3fe608060405234801561001057600080fd5b50600436106100ea5760003560e01c8063579158971161008c57806395d89b411161006657806395d89b41146101e8578063a457c2d7146101f0578063a9059cbb14610203578063dd62ed3e1461021657600080fd5b8063579158971461019757806364614c71146101ac57806370a08231146101bf57600080fd5b806323b872dd116100c857806323b872dd14610142578063313ce56714610155578063395093511461016457806352a9039c1461017757600080fd5b806306fdde03146100ef578063095ea7b31461010d57806318160ddd14610130575b600080fd5b6100f761024f565b6040516101049190610a71565b60405180910390f35b61012061011b366004610adb565b6102e1565b6040519015158152602001610104565b6002545b604051908152602001610104565b610120610150366004610b05565b6102fb565b60405160128152602001610104565b610120610172366004610adb565b61031f565b610134610185366004610b41565b60066020526000908152604090205481565b6101aa6101a5366004610b63565b61035e565b005b6101346101ba366004610b63565b61045d565b6101346101cd366004610b41565b6001600160a01b031660009081526020819052604090205490565b6100f7610475565b6101206101fe366004610adb565b610484565b610120610211366004610adb565b61052e565b610134610224366004610b7c565b6001600160a01b03918216600090815260016020908152604080832093909416825291909152205490565b60606003805461025e90610baf565b80601f016020809104026020016040519081016040528092919081815260200182805461028a90610baf565b80156102d75780601f106102ac576101008083540402835291602001916102d7565b820191906000526020600020905b8154815290600101906020018083116102ba57829003601f168201915b5050505050905090565b6000336102ef81858561053c565b60019150505b92915050565b600033610309858285610694565b610314858585610702565b506001949350505050565b3360008181526001602090815260408083206001600160a01b03871684529091528120549091906102ef9082908690610359908790610bff565b61053c565b600081116103b35760405162461bcd60e51b815260206004820152601560248201527f416d6f756e742063616e6e6f74206265207a65726f000000000000000000000060448201526064015b60405180910390fd5b600554336000908152600660205260409020546103d1908390610bff565b1061041e5760405162461bcd60e51b815260206004820152601560248201527f43616e74204d696e74204d6f726520546f6b656e73000000000000000000000060448201526064016103aa565b336000908152600660205260408120805483929061043d908490610bff565b9091555061044e905030338361053c565b6104593033836102fb565b5050565b600061046b6012600a610cf6565b6102f59083610d05565b60606004805461025e90610baf565b3360008181526001602090815260408083206001600160a01b0387168452909152812054909190838110156105215760405162461bcd60e51b815260206004820152602560248201527f45524332303a2064656372656173656420616c6c6f77616e63652062656c6f7760448201527f207a65726f00000000000000000000000000000000000000000000000000000060648201526084016103aa565b610314828686840361053c565b6000336102ef818585610702565b6001600160a01b0383166105b75760405162461bcd60e51b8152602060048201526024808201527f45524332303a20617070726f76652066726f6d20746865207a65726f2061646460448201527f726573730000000000000000000000000000000000000000000000000000000060648201526084016103aa565b6001600160a01b0382166106335760405162461bcd60e51b815260206004820152602260248201527f45524332303a20617070726f766520746f20746865207a65726f20616464726560448201527f737300000000000000000000000000000000000000000000000000000000000060648201526084016103aa565b6001600160a01b0383811660008181526001602090815260408083209487168084529482529182902085905590518481527f8c5be1e5ebec7d5bd14f71427d1e84f3dd0314c0f7b2291e5b200ac8c7c3b925910160405180910390a3505050565b6001600160a01b0383811660009081526001602090815260408083209386168352929052205460001981146106fc57818110156106d0826108ef565b906106ee5760405162461bcd60e51b81526004016103aa9190610a71565b506106fc848484840361053c565b50505050565b6001600160a01b03831661077e5760405162461bcd60e51b815260206004820152602560248201527f45524332303a207472616e736665722066726f6d20746865207a65726f20616460448201527f647265737300000000000000000000000000000000000000000000000000000060648201526084016103aa565b6001600160a01b0382166107fa5760405162461bcd60e51b815260206004820152602360248201527f45524332303a207472616e7366657220746f20746865207a65726f206164647260448201527f657373000000000000000000000000000000000000000000000000000000000060648201526084016103aa565b6001600160a01b038316600090815260208190526040902054818110156108895760405162461bcd60e51b815260206004820152602660248201527f45524332303a207472616e7366657220616d6f756e742065786365656473206260448201527f616c616e6365000000000000000000000000000000000000000000000000000060648201526084016103aa565b6001600160a01b03848116600081815260208181526040808320878703905593871680835291849020805487019055925185815290927fddf252ad1be2c89b69c2b068fc378daa952ba7f163c4a11628f55a4df523b3ef910160405180910390a36106fc565b606060006108fc8361098f565b600101905060008167ffffffffffffffff81111561091c5761091c610d24565b6040519080825280601f01601f191660200182016040528015610946576020820181803683370190505b5090508181016020015b600019017f3031323334353637383961626364656600000000000000000000000000000000600a86061a8153600a850494508461095057509392505050565b6000807a184f03e93ff9f4daa797ed6e38ed64bf6a1f01000000000000000083106109d8577a184f03e93ff9f4daa797ed6e38ed64bf6a1f010000000000000000830492506040015b6d04ee2d6d415b85acef81000000008310610a04576d04ee2d6d415b85acef8100000000830492506020015b662386f26fc100008310610a2257662386f26fc10000830492506010015b6305f5e1008310610a3a576305f5e100830492506008015b6127108310610a4e57612710830492506004015b60648310610a60576064830492506002015b600a83106102f55760010192915050565b600060208083528351808285015260005b81811015610a9e57858101830151858201604001528201610a82565b506000604082860101526040601f19601f8301168501019250505092915050565b80356001600160a01b0381168114610ad657600080fd5b919050565b60008060408385031215610aee57600080fd5b610af783610abf565b946020939093013593505050565b600080600060608486031215610b1a57600080fd5b610b2384610abf565b9250610b3160208501610abf565b9150604084013590509250925092565b600060208284031215610b5357600080fd5b610b5c82610abf565b9392505050565b600060208284031215610b7557600080fd5b5035919050565b60008060408385031215610b8f57600080fd5b610b9883610abf565b9150610ba660208401610abf565b90509250929050565b600181811c90821680610bc357607f821691505b602082108103610be357634e487b7160e01b600052602260045260246000fd5b50919050565b634e487b7160e01b600052601160045260246000fd5b808201808211156102f5576102f5610be9565b600181815b80851115610c4d578160001904821115610c3357610c33610be9565b80851615610c4057918102915b93841c9390800290610c17565b509250929050565b600082610c64575060016102f5565b81610c71575060006102f5565b8160018114610c875760028114610c9157610cad565b60019150506102f5565b60ff841115610ca257610ca2610be9565b50506001821b6102f5565b5060208310610133831016604e8410600b8410161715610cd0575081810a6102f5565b610cda8383610c12565b8060001904821115610cee57610cee610be9565b029392505050565b6000610b5c60ff841683610c55565b6000816000190483118215151615610d1f57610d1f610be9565b500290565b634e487b7160e01b600052604160045260246000fdfea2646970667358221220931944015dde33437e4634b33b6d09ac35680b3f3a71b6bb705c915d45403d0464736f6c63430008100033",
  "immutableReferences": {},
  "source": "// SPDX-License-Identifier: GPL-3.0\npragma solidity >=0.7.0 <0.9.0;\n\nimport {ERC20} from \"./standard/ERC20.sol\";\n\ncontract FleepToken is ERC20 {\n    uint256 private MAX_ALLOCATION = inWei(50);\n\n    // user address => minted amount\n    mapping(address => uint256) public allocations;\n\n    constructor() ERC20(\"Fleep Token\", \"FLP\") {\n        _mint(msg.sender, inWei(50000000));\n        _mint(address(this), inWei(50000000));\n    }\n\n    // faucet minting for testing purposes\n    function faucet(uint256 amount) public {\n        require(amount > 0, \"Amount cannot be zero\");\n        require(\n            allocations[msg.sender] + amount < MAX_ALLOCATION,\n            \"Cant Mint More Tokens\"\n        );\n        allocations[msg.sender] += amount;\n        _approve(address(this), msg.sender, amount);\n        transferFrom(address(this), msg.sender, amount);\n    }\n\n    function inWei(uint256 amount) public view returns (uint256) {\n        return amount * 10**decimals();\n    }\n}\n",
  "sourcePath": "C:\\Users\\Arogundade Ibrahim\\Documents\\web3\\fleep\\contracts\\FleepToken.sol",
  "compiler": {
    "name": "solc",
    "version": "0.8.16+commit.07a7930e.Emscripten.clang"
  },
  "schemaVersion": "3.4.10",
  "updatedAt": "2022-11-26T07:19:06.984Z",
  "devdoc": {
    "kind": "dev",
    "methods": {
      "allowance(address,address)": {
        "details": "See {IERC20-allowance}."
      },
      "approve(address,uint256)": {
        "details": "See {IERC20-approve}. NOTE: If `amount` is the maximum `uint256`, the allowance is not updated on `transferFrom`. This is semantically equivalent to an infinite approval. Requirements: - `spender` cannot be the zero address."
      },
      "balanceOf(address)": {
        "details": "See {IERC20-balanceOf}."
      },
      "decimals()": {
        "details": "Returns the number of decimals used to get its user representation. For example, if `decimals` equals `2`, a balance of `505` tokens should be displayed to a user as `5.05` (`505 / 10 ** 2`). Tokens usually opt for a value of 18, imitating the relationship between Ether and Wei. This is the value {ERC20} uses, unless this function is overridden; NOTE: This information is only used for _display_ purposes: it in no way affects any of the arithmetic of the contract, including {IERC20-balanceOf} and {IERC20-transfer}."
      },
      "decreaseAllowance(address,uint256)": {
        "details": "Atomically decreases the allowance granted to `spender` by the caller. This is an alternative to {approve} that can be used as a mitigation for problems described in {IERC20-approve}. Emits an {Approval} event indicating the updated allowance. Requirements: - `spender` cannot be the zero address. - `spender` must have allowance for the caller of at least `subtractedValue`."
      },
      "increaseAllowance(address,uint256)": {
        "details": "Atomically increases the allowance granted to `spender` by the caller. This is an alternative to {approve} that can be used as a mitigation for problems described in {IERC20-approve}. Emits an {Approval} event indicating the updated allowance. Requirements: - `spender` cannot be the zero address."
      },
      "name()": {
        "details": "Returns the name of the token."
      },
      "symbol()": {
        "details": "Returns the symbol of the token, usually a shorter version of the name."
      },
      "totalSupply()": {
        "details": "See {IERC20-totalSupply}."
      },
      "transfer(address,uint256)": {
        "details": "See {IERC20-transfer}. Requirements: - `to` cannot be the zero address. - the caller must have a balance of at least `amount`."
      },
      "transferFrom(address,address,uint256)": {
        "details": "See {IERC20-transferFrom}. Emits an {Approval} event indicating the updated allowance. This is not required by the EIP. See the note at the beginning of {ERC20}. NOTE: Does not update the allowance if the current allowance is the maximum `uint256`. Requirements: - `from` and `to` cannot be the zero address. - `from` must have a balance of at least `amount`. - the caller must have allowance for ``from``'s tokens of at least `amount`."
      }
    },
    "version": 1
  },
  "userdoc": {
    "kind": "user",
    "methods": {},
    "version": 1
  }
}