{
  "contractName": "FleepSwap",
  "abi": [
    {
      "inputs": [
        {
          "internalType": "address",
          "name": "priceApI",
          "type": "address"
        },
        {
          "internalType": "address",
          "name": "fleepToken",
          "type": "address"
        }
      ],
      "stateMutability": "nonpayable",
      "type": "constructor"
    },
    {
      "anonymous": false,
      "inputs": [
        {
          "indexed": false,
          "internalType": "uint256",
          "name": "amount",
          "type": "uint256"
        },
        {
          "indexed": false,
          "internalType": "uint256",
          "name": "amountOut",
          "type": "uint256"
        },
        {
          "indexed": false,
          "internalType": "address",
          "name": "from",
          "type": "address"
        },
        {
          "indexed": false,
          "internalType": "address",
          "name": "to",
          "type": "address"
        },
        {
          "indexed": false,
          "internalType": "uint256",
          "name": "timestamp",
          "type": "uint256"
        }
      ],
      "name": "FleepSwaped",
      "type": "event"
    },
    {
      "anonymous": false,
      "inputs": [
        {
          "indexed": false,
          "internalType": "address",
          "name": "token0",
          "type": "address"
        },
        {
          "indexed": false,
          "internalType": "address",
          "name": "token1",
          "type": "address"
        },
        {
          "indexed": false,
          "internalType": "uint256",
          "name": "amount0",
          "type": "uint256"
        },
        {
          "indexed": false,
          "internalType": "uint256",
          "name": "amount1",
          "type": "uint256"
        },
        {
          "indexed": false,
          "internalType": "address",
          "name": "provider",
          "type": "address"
        },
        {
          "indexed": false,
          "internalType": "uint256",
          "name": "timestamp",
          "type": "uint256"
        }
      ],
      "name": "LiquidityProvided",
      "type": "event"
    },
    {
      "anonymous": false,
      "inputs": [
        {
          "indexed": false,
          "internalType": "address",
          "name": "token0",
          "type": "address"
        },
        {
          "indexed": false,
          "internalType": "address",
          "name": "token1",
          "type": "address"
        },
        {
          "indexed": false,
          "internalType": "uint256",
          "name": "amount0",
          "type": "uint256"
        },
        {
          "indexed": false,
          "internalType": "uint256",
          "name": "amount1",
          "type": "uint256"
        },
        {
          "indexed": false,
          "internalType": "address",
          "name": "provider",
          "type": "address"
        }
      ],
      "name": "LiquidityRemoved",
      "type": "event"
    },
    {
      "inputs": [],
      "name": "NATIVE_PAIR",
      "outputs": [
        {
          "internalType": "address",
          "name": "",
          "type": "address"
        }
      ],
      "stateMutability": "view",
      "type": "function"
    },
    {
      "inputs": [
        {
          "internalType": "uint256",
          "name": "",
          "type": "uint256"
        }
      ],
      "name": "liquids",
      "outputs": [
        {
          "internalType": "uint256",
          "name": "id",
          "type": "uint256"
        },
        {
          "internalType": "uint256",
          "name": "poolId",
          "type": "uint256"
        },
        {
          "internalType": "uint256",
          "name": "amount0",
          "type": "uint256"
        },
        {
          "internalType": "uint256",
          "name": "amount1",
          "type": "uint256"
        },
        {
          "internalType": "address",
          "name": "provider",
          "type": "address"
        }
      ],
      "stateMutability": "view",
      "type": "function"
    },
    {
      "inputs": [
        {
          "internalType": "address",
          "name": "",
          "type": "address"
        }
      ],
      "name": "pairs",
      "outputs": [
        {
          "internalType": "address",
          "name": "",
          "type": "address"
        }
      ],
      "stateMutability": "view",
      "type": "function"
    },
    {
      "inputs": [
        {
          "internalType": "uint256",
          "name": "",
          "type": "uint256"
        }
      ],
      "name": "pools",
      "outputs": [
        {
          "internalType": "uint256",
          "name": "id",
          "type": "uint256"
        },
        {
          "internalType": "address",
          "name": "token0",
          "type": "address"
        },
        {
          "internalType": "address",
          "name": "token1",
          "type": "address"
        }
      ],
      "stateMutability": "view",
      "type": "function"
    },
    {
      "inputs": [
        {
          "internalType": "address",
          "name": "",
          "type": "address"
        }
      ],
      "name": "providers",
      "outputs": [
        {
          "internalType": "uint256",
          "name": "id",
          "type": "uint256"
        },
        {
          "internalType": "uint256",
          "name": "totalEarned",
          "type": "uint256"
        },
        {
          "internalType": "uint256",
          "name": "balance",
          "type": "uint256"
        }
      ],
      "stateMutability": "view",
      "type": "function"
    },
    {
      "inputs": [
        {
          "internalType": "address",
          "name": "token0",
          "type": "address"
        },
        {
          "internalType": "address",
          "name": "token1",
          "type": "address"
        }
      ],
      "name": "getPoolSize",
      "outputs": [
        {
          "internalType": "uint256",
          "name": "",
          "type": "uint256"
        },
        {
          "internalType": "uint256",
          "name": "",
          "type": "uint256"
        }
      ],
      "stateMutability": "view",
      "type": "function"
    },
    {
      "inputs": [
        {
          "internalType": "address",
          "name": "token0",
          "type": "address"
        },
        {
          "internalType": "address",
          "name": "token1",
          "type": "address"
        },
        {
          "internalType": "uint256",
          "name": "amount0",
          "type": "uint256"
        }
      ],
      "name": "estimate",
      "outputs": [
        {
          "internalType": "uint256",
          "name": "",
          "type": "uint256"
        }
      ],
      "stateMutability": "view",
      "type": "function"
    },
    {
      "inputs": [],
      "name": "getContractAddress",
      "outputs": [
        {
          "internalType": "address",
          "name": "",
          "type": "address"
        }
      ],
      "stateMutability": "view",
      "type": "function"
    },
    {
      "inputs": [],
      "name": "getNativePair",
      "outputs": [
        {
          "internalType": "address",
          "name": "",
          "type": "address"
        }
      ],
      "stateMutability": "view",
      "type": "function"
    },
    {
      "inputs": [],
      "name": "unlockedProviderAccount",
      "outputs": [],
      "stateMutability": "nonpayable",
      "type": "function"
    },
    {
      "inputs": [
        {
          "internalType": "address",
          "name": "token0",
          "type": "address"
        },
        {
          "internalType": "address",
          "name": "token1",
          "type": "address"
        },
        {
          "internalType": "uint256",
          "name": "amount0",
          "type": "uint256"
        }
      ],
      "name": "swap",
      "outputs": [
        {
          "internalType": "uint256",
          "name": "",
          "type": "uint256"
        }
      ],
      "stateMutability": "payable",
      "type": "function"
    },
    {
      "inputs": [
        {
          "internalType": "address",
          "name": "token0",
          "type": "address"
        },
        {
          "internalType": "address",
          "name": "token1",
          "type": "address"
        }
      ],
      "name": "createPool",
      "outputs": [
        {
          "internalType": "uint256",
          "name": "",
          "type": "uint256"
        }
      ],
      "stateMutability": "nonpayable",
      "type": "function"
    },
    {
      "inputs": [
        {
          "internalType": "uint256",
          "name": "amount0",
          "type": "uint256"
        },
        {
          "internalType": "uint256",
          "name": "poolId",
          "type": "uint256"
        }
      ],
      "name": "provideLiquidity",
      "outputs": [
        {
          "internalType": "uint256",
          "name": "",
          "type": "uint256"
        },
        {
          "internalType": "uint256",
          "name": "",
          "type": "uint256"
        }
      ],
      "stateMutability": "payable",
      "type": "function"
    },
    {
      "inputs": [
        {
          "internalType": "uint256",
          "name": "id",
          "type": "uint256"
        }
      ],
      "name": "removeLiquidity",
      "outputs": [],
      "stateMutability": "nonpayable",
      "type": "function"
    },
    {
      "inputs": [
        {
          "internalType": "uint256",
          "name": "amount",
          "type": "uint256"
        }
      ],
      "name": "withDrawEarnings",
      "outputs": [],
      "stateMutability": "nonpayable",
      "type": "function"
    },
    {
      "inputs": [
        {
          "internalType": "address",
          "name": "pair",
          "type": "address"
        }
      ],
      "name": "updateNativePair",
      "outputs": [],
      "stateMutability": "nonpayable",
      "type": "function"
    },
    {
      "inputs": [
        {
          "internalType": "uint256",
          "name": "fee",
          "type": "uint256"
        }
      ],
      "name": "updateSwapFee",
      "outputs": [],
      "stateMutability": "nonpayable",
      "type": "function"
    },
    {
      "inputs": [
        {
          "internalType": "address",
          "name": "token",
          "type": "address"
        },
        {
          "internalType": "address",
          "name": "pair",
          "type": "address"
        }
      ],
      "name": "createPair",
      "outputs": [],
      "stateMutability": "nonpayable",
      "type": "function"
    },
    {
      "inputs": [
        {
          "internalType": "uint256",
          "name": "amount1",
          "type": "uint256"
        }
      ],
      "name": "_transferSwappedTokens1",
      "outputs": [
        {
          "internalType": "uint256",
          "name": "",
          "type": "uint256"
        }
      ],
      "stateMutability": "payable",
      "type": "function"
    }
  ],
  "bytecode": "0x608060405260016003553480156200001657600080fd5b506040516200298a3803806200298a833981016040819052620000399162000098565b600080546001600160a01b039384166001600160a01b0319918216179091556001805492909316918116919091179091556002805490911633179055620000d0565b80516001600160a01b03811681146200009357600080fd5b919050565b60008060408385031215620000ac57600080fd5b620000b7836200007b565b9150620000c7602084016200007b565b90509250929050565b6128aa80620000e06000396000f3fe6080604052600436106101445760003560e01c80639c8f9f23116100c0578063df791e5011610074578063ecd44aef11610059578063ecd44aef146103ca578063eebb63ed146103ea578063fe33b3021461046e57600080fd5b8063df791e5014610397578063e3433615146103aa57600080fd5b8063bf16f65a116100a5578063bf16f65a14610337578063c9c6539614610357578063d30dce7d1461037757600080fd5b80639c8f9f23146102aa578063ac4afa38146102ca57600080fd5b8063344bfb59116101175780637a16af7f116100fc5780637a16af7f146102445780638a2627f01461026c57806391e5f37f1461028a57600080fd5b8063344bfb591461020d5780635554b5521461022d57600080fd5b80630787bc2714610149578063102a5f91146101a557806328487873146101d357806332a2c5d0146101e6575b600080fd5b34801561015557600080fd5b506101856101643660046126c1565b600a6020526000908152604090208054600182015460029092015490919083565b604080519384526020840192909252908201526060015b60405180910390f35b3480156101b157600080fd5b506101c56101c03660046126e3565b6104a4565b60405190815260200161019c565b6101c56101e136600461271f565b61054b565b3480156101f257600080fd5b50305b6040516001600160a01b03909116815260200161019c565b34801561021957600080fd5b506008546101f5906001600160a01b031681565b34801561023957600080fd5b506102426105a7565b005b610257610252366004612738565b610870565b6040805192835260208301919091520161019c565b34801561027857600080fd5b506008546001600160a01b03166101f5565b34801561029657600080fd5b506102426102a53660046126c1565b610d2f565b3480156102b657600080fd5b506102426102c536600461271f565b610dfe565b3480156102d657600080fd5b506103126102e536600461271f565b60096020526000908152604090208054600182015460029092015490916001600160a01b03908116911683565b604080519384526001600160a01b03928316602085015291169082015260600161019c565b34801561034357600080fd5b5061024261035236600461271f565b611103565b34801561036357600080fd5b5061024261037236600461275a565b6111f2565b34801561038357600080fd5b5061024261039236600461271f565b611323565b6101c56103a53660046126e3565b61142b565b3480156103b657600080fd5b506101c56103c536600461275a565b611c54565b3480156103d657600080fd5b506102576103e536600461275a565b611e01565b3480156103f657600080fd5b5061043d61040536600461271f565b600b6020526000908152604090208054600182015460028301546003840154600490940154929391929091906001600160a01b031685565b6040805195865260208601949094529284019190915260608301526001600160a01b0316608082015260a00161019c565b34801561047a57600080fd5b506101f56104893660046126c1565b6007602052600090815260409020546001600160a01b031681565b600080546001600160a01b03858116835260076020526040808420548683168552818520549151635d5530df60e11b8152908316600482015290821660248201528392919091169063baaa61be90604401602060405180830381865afa158015610512573d6000803e3d6000fd5b505050506040513d601f19601f82011682018060405250810190610536919061278d565b905061054281846127bc565b95945050505050565b60008060035460648461055e91906127db565b61056891906127bc565b9050336108fc61057883866127fd565b6040518115909202916000818181858888f193505050501580156105a0573d6000803e3d6000fd5b5092915050565b336000908152600a6020526040902054156106095760405162461bcd60e51b815260206004820152600a60248201527f4f6e6c792047756573740000000000000000000000000000000000000000000060448201526064015b60405180910390fd5b6001546040517f64614c71000000000000000000000000000000000000000000000000000000008152600a60048201526001600160a01b03909116906364614c7190602401602060405180830381865afa15801561066b573d6000803e3d6000fd5b505050506040513d601f19601f8201168201806040525081019061068f919061278d565b6001546040517f70a082310000000000000000000000000000000000000000000000000000000081523360048201526001600160a01b03909116906370a0823190602401602060405180830381865afa1580156106f0573d6000803e3d6000fd5b505050506040513d601f19601f82011682018060405250810190610714919061278d565b10156107885760405162461bcd60e51b815260206004820152602660248201527f596f75206d75737420686f646c206174206c6561737420313020466c6565702060448201527f546f6b656e7300000000000000000000000000000000000000000000000000006064820152608401610600565b6006805490600061079883612810565b9091555050604080516080810182526006548152336000818152600a60208181528583206001810154828701526002810154868801529390925281526003909101805484518184028101840190955280855292936060850193909283018282801561082257602002820191906000526020600020905b81548152602001906001019080831161080e575b505050919092525050336000908152600a6020908152604091829020835181558382015160018201559183015160028301556060830151805161086b9260038501920190612645565b505050565b336000908152600a6020526040812054819081036108c05760405162461bcd60e51b815260206004820152600d60248201526c27b7363c90283937bb34b232b960991b6044820152606401610600565b60648410156109365760405162461bcd60e51b8152602060048201526024808201527f416d6f756e742063616e6e6f74206265206c6573736572207468616e2031303060448201527f20574549000000000000000000000000000000000000000000000000000000006064820152608401610600565b600083815260096020908152604080832060018101546002909101546001600160a01b0391821680865260079094529190932054919290811691166109c95760405162461bcd60e51b815260206004820152602360248201527f5061697220646f6573206e6f74206578697374732c20436f6e7461637420616460448201526236b4b760e91b6064820152608401610600565b6001600160a01b0381811660009081526007602052604090205416610a3c5760405162461bcd60e51b815260206004820152602360248201527f5061697220646f6573206e6f74206578697374732c20436f6e7461637420616460448201526236b4b760e91b6064820152608401610600565b6008546001600160a01b0383811660009081526007602052604081205490928992908116911603610b1e57506001600160a01b038084166000908152600760205260408082205485841683529120543492610a9b9281169116836104a4565b6040516323b872dd60e01b8152336004820152306024820152604481018a905290925083906001600160a01b038216906323b872dd906064016020604051808303816000875af1158015610af3573d6000803e3d6000fd5b505050506040513d601f19601f82011682018060405250810190610b179190612829565b5050610c4a565b6001600160a01b03808516600090815260076020526040808220548684168352912054610b50929182169116836104a4565b6040516323b872dd60e01b81523360048201523060248201526044810183905290925084906001600160a01b038216906323b872dd906064016020604051808303816000875af1158015610ba8573d6000803e3d6000fd5b505050506040513d601f19601f82011682018060405250810190610bcc9190612829565b506040516323b872dd60e01b81523360048201523060248201526044810184905284906001600160a01b038216906323b872dd906064016020604051808303816000875af1158015610c22573d6000803e3d6000fd5b505050506040513d601f19601f82011682018060405250810190610c469190612829565b5050505b600080610c578933611e27565b915091508115610cb3576000818152600b602052604081206002018054859290610c8290849061284b565b90915550506000818152600b602052604081206003018054869290610ca890849061284b565b90915550610cbf9050565b610cbf89848633611f32565b604080516001600160a01b03808916825287166020820152908101849052606081018590523360808201524260a08201527fac838223c8dc8d877bcd4b6592254fdaf05f64d3da40ab54c09765d221073c1c9060c00160405180910390a1509095509093505050505b9250929050565b6002546001600160a01b03163314610d795760405162461bcd60e51b815260206004820152600d60248201526c27b7363c902232b83637bcb2b960991b6044820152606401610600565b6001600160a01b038116610dcf5760405162461bcd60e51b815260206004820152601460248201527f496e76616c6964205061697220416464726573730000000000000000000000006044820152606401610600565b6008805473ffffffffffffffffffffffffffffffffffffffff19166001600160a01b0392909216919091179055565b336000908152600a60205260408120549003610e4c5760405162461bcd60e51b815260206004820152600d60248201526c27b7363c90283937bb34b232b960991b6044820152606401610600565b6000818152600b60205260409020600401546001600160a01b03163314610eb55760405162461bcd60e51b815260206004820152600c60248201527f556e617574686f72697a656400000000000000000000000000000000000000006044820152606401610600565b6000818152600b60209081526040808320600190810154845260098352818420825160808101845281548152918101546001600160a01b0390811683860152600282015416828401526003810180548451818702810187019095528085529294919360608601939092830182828015610f4d57602002820191906000526020600020905b815481526020019060010190808311610f39575b505050919092525050506020818101516040808401516000878152600b9094529281902060020154905163a9059cbb60e01b81523360048201526024810191909152929350916001600160a01b0383169063a9059cbb906044016020604051808303816000875af1158015610fc6573d6000803e3d6000fd5b505050506040513d601f19601f82011682018060405250810190610fea9190612829565b506000848152600b60205260409081902060030154905163a9059cbb60e01b815233600482015260248101919091526001600160a01b0382169063a9059cbb906044016020604051808303816000875af115801561104c573d6000803e3d6000fd5b505050506040513d601f19601f820116820180604052508101906110709190612829565b506000848152600b6020908152604091829020600281015460039091015483516001600160a01b0380881682528616938101939093529282015260608101919091523360808201527fd18855db300cdd1baf52060b0a20e0775fdd88922464565b49afc0bf7a28266d9060a00160405180910390a15050506000908152600b602052604081206002810182905560030155565b6002546001600160a01b0316331461114d5760405162461bcd60e51b815260206004820152600d60248201526c27b7363c902232b83637bcb2b960991b6044820152606401610600565b6000811161119d5760405162461bcd60e51b815260206004820152601b60248201527f506c6174666f726d206665652063616e6e6f74206265207a65726f00000000006044820152606401610600565b606481106111ed5760405162461bcd60e51b815260206004820181905260248201527f506c6174666f726d206665652063616e6e6f7420626520612068756e647265646044820152606401610600565b600355565b6002546001600160a01b0316331461123c5760405162461bcd60e51b815260206004820152600d60248201526c27b7363c902232b83637bcb2b960991b6044820152606401610600565b6001600160a01b0382166112925760405162461bcd60e51b815260206004820152601560248201527f496e76616c696420546f6b656e204164647265737300000000000000000000006044820152606401610600565b6001600160a01b0381166112e85760405162461bcd60e51b815260206004820152601460248201527f496e76616c6964205061697220416464726573730000000000000000000000006044820152606401610600565b6001600160a01b039182166000908152600760205260409020805473ffffffffffffffffffffffffffffffffffffffff191691909216179055565b336000908152600a602052604081205490036113715760405162461bcd60e51b815260206004820152600d60248201526c27b7363c90283937bb34b232b960991b6044820152606401610600565b336000908152600a60205260409020600201548111156113d35760405162461bcd60e51b815260206004820152601460248201527f496e73756666696369656e742042616c616e63650000000000000000000000006044820152606401610600565b336000908152600a6020526040812060020180548392906113f59084906127fd565b9091555050604051339082156108fc029083906000818181858888f19350505050158015611427573d6000803e3d6000fd5b5050565b600060648210156114a45760405162461bcd60e51b815260206004820152602c60248201527f416d6f756e7420746f20737761702063616e6e6f74206265206c65737365722060448201527f7468616e203130302057454900000000000000000000000000000000000000006064820152608401610600565b6001600160a01b03848116600090815260076020526040902054166115175760405162461bcd60e51b815260206004820152602360248201527f5061697220646f6573206e6f74206578697374732c20436f6e7461637420616460448201526236b4b760e91b6064820152608401610600565b6001600160a01b038381166000908152600760205260409020541661158a5760405162461bcd60e51b815260206004820152602360248201527f5061697220646f6573206e6f74206578697374732c20436f6e7461637420616460448201526236b4b760e91b6064820152608401610600565b60008083816115998888612061565b6000818152600960205260409020549091506115f75760405162461bcd60e51b815260206004820152601460248201527f506f6f6c20646f6573206e6f74206578697374730000000000000000000000006044820152606401610600565b6008546001600160a01b0389811660009081526007602052604090205491811691160361183c576116283a346127fd565b600080546008546001600160a01b038b811684526007602052604093849020549351635d5530df60e11b815291811660048301529283166024820152929450169063baaa61be90604401602060405180830381865afa15801561168f573d6000803e3d6000fd5b505050506040513d601f19601f820116820180604052508101906116b3919061278d565b93506116bf84836127bc565b92508660006116cd8361219f565b915050848110156117205760405162461bcd60e51b815260206004820152601660248201527f496e73756666696369656e7420506f6f6c2053697a65000000000000000000006044820152606401610600565b600061172c8387612253565b90506000606461173d8360506127bc565b61174791906127db565b90506118338a8885600960008a8152602001908152602001600020604051806080016040529081600082015481526020016001820160009054906101000a90046001600160a01b03166001600160a01b03166001600160a01b031681526020016002820160009054906101000a90046001600160a01b03166001600160a01b03166001600160a01b031681526020016003820180548060200260200160405190810160405280929190818152602001828054801561182457602002820191906000526020600020905b815481526020019060010190808311611810575b50505050508152505085612334565b50505050611bf2565b6008546001600160a01b038881166000908152600760205260409020549181169116036119dd57600080546001600160a01b038a811683526007602052604092839020546008549351635d5530df60e11b815290821660048201529281166024840152169063baaa61be90604401602060405180830381865afa1580156118c7573d6000803e3d6000fd5b505050506040513d601f19601f820116820180604052508101906118eb919061278d565b93506118f784836127bc565b6040516323b872dd60e01b81523360048201523060248201526044810184905290935088906001600160a01b038216906323b872dd906064016020604051808303816000875af115801561194f573d6000803e3d6000fd5b505050506040513d601f19601f820116820180604052508101906119739190612829565b50600061197f8361219f565b509050848110156119d25760405162461bcd60e51b815260206004820152601660248201527f496e73756666696369656e7420506f6f6c2053697a65000000000000000000006044820152606401610600565b600061172c8661054b565b600080546001600160a01b038a8116835260076020526040808420548b8316855293819020549051635d5530df60e11b8152938216600485015281166024840152169063baaa61be90604401602060405180830381865afa158015611a46573d6000803e3d6000fd5b505050506040513d601f19601f82011682018060405250810190611a6a919061278d565b9350611a7684836127bc565b925087876000611a858461219f565b91505085811015611ad85760405162461bcd60e51b815260206004820152601660248201527f496e73756666696369656e7420506f6f6c2053697a65000000000000000000006044820152606401610600565b6000611ae784848c8a336124e5565b905060006064611af88360506127bc565b611b0291906127db565b9050611bec8b8985600960008b8152602001908152602001600020604051806080016040529081600082015481526020016001820160009054906101000a90046001600160a01b03166001600160a01b03166001600160a01b031681526020016002820160009054906101000a90046001600160a01b03166001600160a01b03166001600160a01b031681526020016003820180548060200260200160405190810160405280929190818152602001828054801561182457602002820191906000526020600020908154815260200190600101908083116118105750505050508152505085612334565b50505050505b60408051878152602081018590526001600160a01b038a8116828401528916606082015242608082015290517f649451cb6bd28801e8992e83f834233301eb39b64a665a45b1e08d3e13ff679a9181900360a00190a150909695505050505050565b336000908152600a60205260408120548103611ca25760405162461bcd60e51b815260206004820152600d60248201526c27b7363c90283937bb34b232b960991b6044820152606401610600565b60048054906000611cb283612810565b9091555050600454600090815260096020908152604080832081516080810183528154815260018201546001600160a01b039081168286015260028301541681840152600382018054845181870281018701909552808552919492936060860193909290830182828015611d4557602002820191906000526020600020905b815481526020019060010190808311611d31575b505050919092525050604080516080810182526004548082526001600160a01b03808a1660208085019182528a83168587019081526060808a01519087019081526000958652600983529690942085518155915160018301805491851673ffffffffffffffffffffffffffffffffffffffff19928316179055935160028301805491909416941693909317909155925180519596509194929350611df192600385019290910190612645565b5050600454925050505b92915050565b6000806000611e108585612061565b9050611e1b8161219f565b92509250509250929050565b6001600160a01b0381166000908152600a60209081526040808320600301805482518185028101850190935280835284938493929190830182828015611e8c57602002820191906000526020600020905b815481526020019060010190808311611e78575b5050505050905060005b8151811015611f245785600b6000848481518110611eb657611eb661285e565b602002602001015181526020019081526020016000206001015403611f12576001600b6000848481518110611eed57611eed61285e565b6020026020010151815260200190815260200160002060000154935093505050610d28565b80611f1c81612810565b915050611e96565b506000958695509350505050565b336000908152600a60205260408120549003611f805760405162461bcd60e51b815260206004820152600d60248201526c27b7363c90283937bb34b232b960991b6044820152606401610600565b60058054906000611f9083612810565b90915550506040805160a081018252600580548083526020808401898152848601988952606085019788526001600160a01b03968716608086018181526000948552600b845287852096518755915160018088019190915599516002870155975160038087019190915590516004909501805473ffffffffffffffffffffffffffffffffffffffff19169590971694909417909555968752600984528287208154908301805480890182559089528589200155938652600a8352908520925492018054938401815584529092200155565b60006001600160a01b0383161580159061208357506001600160a01b03821615155b6120cf5760405162461bcd60e51b815260206004820152600760248201527f496e76616c6964000000000000000000000000000000000000000000000000006044820152606401610600565b60005b6004548111612195576000818152600960205260409020600101546001600160a01b03858116911614801561212357506000818152600960205260409020600201546001600160a01b038481169116145b1561212f579050611dfb565b6000818152600960205260409020600101546001600160a01b03848116911614801561217757506000818152600960205260409020600201546001600160a01b038581169116145b15612183579050611dfb565b8061218d81612810565b9150506120d2565b5060009392505050565b60008060008060005b6000868152600960205260409020600301548110156122485760008681526009602052604081206003018054839081106121e4576121e461285e565b90600052602060002001549050600b60008281526020019081526020016000206002015484612213919061284b565b6000828152600b6020526040902060030154909450612232908461284b565b925050808061224090612810565b9150506121a8565b509094909350915050565b60008060035460648461226691906127db565b61227091906127bc565b90506001600160a01b03841663a9059cbb3361228c84876127fd565b6040517fffffffff0000000000000000000000000000000000000000000000000000000060e085901b1681526001600160a01b03909216600483015260248201526044016020604051808303816000875af11580156122ef573d6000803e3d6000fd5b505050506040513d601f19601f820116820180604052508101906123139190612829565b5060085461232c9085906001600160a01b0316836104a4565b949350505050565b60005b8260600151518110156124dd5760008360600151828151811061235c5761235c61285e565b6020026020010151905060008588600b60008581526020019081526020016000206003015461238b91906127bc565b61239591906127db565b905080600b600084815260200190815260200160002060020160008282546123bd919061284b565b90915550506000828152600b602052604081206003015487906123e1908a906127bc565b6123eb91906127db565b905080600b6000858152602001908152602001600020600301600082825461241391906127fd565b90915550506000838152600b602052604081206003015488906124379088906127bc565b61244191906127db565b6000858152600b60209081526040808320600401546001600160a01b03168352600a90915281206001018054929350839290919061248090849061284b565b90915550506000848152600b60209081526040808320600401546001600160a01b03168352600a909152812060020180548392906124bf90849061284b565b925050819055505050505080806124d590612810565b915050612337565b505050505050565b6000806003546064856124f891906127db565b61250291906127bc565b6040516323b872dd60e01b81526001600160a01b03858116600483015230602483015260448201889052919250908816906323b872dd906064016020604051808303816000875af115801561255b573d6000803e3d6000fd5b505050506040513d601f19601f8201168201806040525081019061257f9190612829565b506001600160a01b03861663a9059cbb8461259a84886127fd565b6040517fffffffff0000000000000000000000000000000000000000000000000000000060e085901b1681526001600160a01b03909216600483015260248201526044016020604051808303816000875af11580156125fd573d6000803e3d6000fd5b505050506040513d601f19601f820116820180604052508101906126219190612829565b5060085461263a9087906001600160a01b0316836104a4565b979650505050505050565b828054828255906000526020600020908101928215612680579160200282015b82811115612680578251825591602001919060010190612665565b5061268c929150612690565b5090565b5b8082111561268c5760008155600101612691565b80356001600160a01b03811681146126bc57600080fd5b919050565b6000602082840312156126d357600080fd5b6126dc826126a5565b9392505050565b6000806000606084860312156126f857600080fd5b612701846126a5565b925061270f602085016126a5565b9150604084013590509250925092565b60006020828403121561273157600080fd5b5035919050565b6000806040838503121561274b57600080fd5b50508035926020909101359150565b6000806040838503121561276d57600080fd5b612776836126a5565b9150612784602084016126a5565b90509250929050565b60006020828403121561279f57600080fd5b5051919050565b634e487b7160e01b600052601160045260246000fd5b60008160001904831182151516156127d6576127d66127a6565b500290565b6000826127f857634e487b7160e01b600052601260045260246000fd5b500490565b81810381811115611dfb57611dfb6127a6565b600060018201612822576128226127a6565b5060010190565b60006020828403121561283b57600080fd5b815180151581146126dc57600080fd5b80820180821115611dfb57611dfb6127a6565b634e487b7160e01b600052603260045260246000fdfea2646970667358221220723653ffac3c7802227f18dd381ee199602c4c5a59d2f1144f205769ee57926b64736f6c63430008100033",
  "immutableReferences": {},
  "source": "// SPDX-License-Identifier: GPL-3.0\npragma solidity >=0.7.0 <0.9.0;\n\nimport {PriceApi} from \"./PriceApi.sol\";\nimport {FleepToken} from \"./FleepToken.sol\";\nimport {IERC20} from \"@openzeppelin/contracts/token/ERC20/IERC20.sol\";\n\ncontract FleepSwap {\n    PriceApi private _priceApi;\n    FleepToken private _fleepToken;\n\n    // contract admin\n    address private _deployer;\n\n    // charges 1% fee on every successful swaps\n    uint private swapFee = 1;\n\n    // ids to avoid conflicts\n    uint256 private POOL_ID;\n    uint256 private LIQUID_ID;\n    uint256 private PROVIDER_ID;\n\n    // token contract address => chainlink aggregrator address\n    // only in the token paired to USD format\n    mapping(address => address) public pairs;\n\n    // is a member of the pairs mapping\n    // but its the native pair MATIC not IERC20\n    address public NATIVE_PAIR;\n\n    // id => liquidity pools\n    mapping(uint => Pool) public pools;\n    // user address => provider data\n    mapping(address => Provider) public providers;\n    // id => liquids\n    mapping(uint => Liquid) public liquids;\n\n    // === Events === //\n\n    event LiquidityProvided(\n        address token0,\n        address token1,\n        uint256 amount0,\n        uint256 amount1,\n        address provider,\n        uint timestamp\n    );\n\n    event LiquidityRemoved(\n        address token0,\n        address token1,\n        uint256 amount0,\n        uint256 amount1,\n        address provider\n    );\n\n    event FleepSwaped(\n        uint256 amount,\n        uint256 amountOut,\n        address from,\n        address to,\n        uint timestamp\n    );\n\n    // === Structs === //\n\n    struct Pool {\n        uint id;\n        address token0;\n        address token1;\n        uint[] liquids;\n    }\n\n    struct Liquid {\n        uint id;\n        uint poolId;\n        uint256 amount0;\n        uint256 amount1;\n        address provider;\n    }\n\n    struct Provider {\n        uint id;\n        uint256 totalEarned;\n        uint256 balance;\n        uint[] liquids;\n    }\n\n    //  check the price of BNB/SUSHI\n    constructor(address priceApI, address fleepToken) {\n        _priceApi = PriceApi(priceApI);\n        _fleepToken = FleepToken(fleepToken);\n        _deployer = msg.sender;\n    }\n\n    // calculates all the size of the liquids\n    // in a pool of token pair\n    function getPoolSize(\n        address token0,\n        address token1\n    ) public view returns (uint256, uint256) {\n        uint poolId = _findPool(token0, token1);\n        return _poolSize(poolId);\n    }\n\n    // gets the exchanges rates for pair of tokens\n    // with accordance to amount of tokens\n    function estimate(\n        address token0,\n        address token1,\n        uint256 amount0\n    ) public view returns (uint256) {\n        int256 rate = _priceApi.getExchangeRate(pairs[token0], pairs[token1]);\n        return amount0 * uint256(rate);\n    }\n\n    // returns the contract address\n    function getContractAddress() public view returns (address) {\n        return address(this);\n    }\n\n    // returns the pair address for $MATIC\n    function getNativePair() public view returns (address) {\n        return NATIVE_PAIR;\n    }\n\n    // register as a provider\n    function unlockedProviderAccount() public onlyGuest {\n        // to become a provider you must hodl at least 10\n        // tokens of Fleep Token\n        require(\n            _fleepToken.balanceOf(msg.sender) >= _fleepToken.inWei(10),\n            \"You must hodl at least 10 Fleep Tokens\"\n        );\n\n        PROVIDER_ID++;\n        providers[msg.sender] = Provider(\n            PROVIDER_ID,\n            providers[msg.sender].totalEarned,\n            providers[msg.sender].balance,\n            providers[msg.sender].liquids\n        );\n    }\n\n    // === Swapping === //\n\n    function swap(\n        address token0,\n        address token1,\n        uint256 amount0\n    ) public payable returns (uint256) {\n        require(amount0 >= 100, \"Amount to swap cannot be lesser than 100 WEI\");\n        require(\n            pairs[token0] != address(0),\n            \"Pair does not exists, Contact admin\"\n        );\n        require(\n            pairs[token1] != address(0),\n            \"Pair does not exists, Contact admin\"\n        );\n\n        uint256 rate;\n        uint256 amount1;\n\n        uint256 _safeAmount0 = amount0;\n\n        uint poolId = _findPool(token0, token1);\n        require(pools[poolId].id > 0, \"Pool does not exists\");\n\n        if (pairs[token0] == NATIVE_PAIR) {\n            _safeAmount0 = (msg.value - tx.gasprice);\n            rate = uint256(\n                _priceApi.getExchangeRate(NATIVE_PAIR, pairs[token1])\n            );\n            amount1 = _safeAmount0 * uint256(rate);\n\n            IERC20 quoteToken = IERC20(token1);\n\n            (, uint256 poolSizeToken1) = _poolSize(poolId);\n\n            // check if contract has enough destination token liquid\n            require(poolSizeToken1 >= amount1, \"Insufficient Pool Size\");\n\n            uint256 fee = _transferSwappedTokens0(quoteToken, amount1);\n            uint256 providersReward = ((fee * 80) / 100);\n\n            _aggregateLiquids(\n                amount0,\n                amount1,\n                poolSizeToken1,\n                pools[poolId],\n                providersReward\n            );\n        } else if (pairs[token1] == NATIVE_PAIR) {\n            rate = uint256(\n                _priceApi.getExchangeRate(pairs[token0], NATIVE_PAIR)\n            );\n            amount1 = _safeAmount0 * uint256(rate);\n\n            IERC20 baseToken = IERC20(token0);\n            baseToken.transferFrom(msg.sender, address(this), _safeAmount0);\n\n            (uint256 poolSizeToken1, ) = _poolSize(poolId);\n            require(poolSizeToken1 >= amount1, \"Insufficient Pool Size\");\n\n            uint256 fee = _transferSwappedTokens1(amount1);\n            uint256 providersReward = ((fee * 80) / 100);\n\n            _aggregateLiquids(\n                amount0,\n                amount1,\n                poolSizeToken1,\n                pools[poolId],\n                providersReward\n            );\n        } else {\n            rate = uint256(\n                _priceApi.getExchangeRate(pairs[token0], pairs[token1])\n            );\n            amount1 = _safeAmount0 * uint256(rate);\n\n            IERC20 baseToken = IERC20(token0);\n            IERC20 quoteToken = IERC20(token1);\n\n            (, uint256 poolSizeToken1) = _poolSize(poolId);\n\n            // check if contract has enough destination token liquid\n            require(poolSizeToken1 >= amount1, \"Insufficient Pool Size\");\n\n            uint256 fee = _transferSwappedTokens2(\n                baseToken,\n                quoteToken,\n                amount0,\n                amount1,\n                msg.sender\n            );\n            uint256 providersReward = ((fee * 80) / 100);\n\n            _aggregateLiquids(\n                amount0,\n                amount1,\n                poolSizeToken1,\n                pools[poolId],\n                providersReward\n            );\n        }\n\n        // store the swap data on-chain\n        emit FleepSwaped(amount0, amount1, token0, token1, block.timestamp);\n\n        return amount1;\n    }\n\n    // === Providers === //\n\n    function createPool(\n        address token0,\n        address token1\n    ) public onlyProvider returns (uint) {\n        // create pool id\n        POOL_ID++;\n        // create a new pool from struct\n        Pool memory pool = pools[POOL_ID];\n        // register the pool\n        pools[POOL_ID] = Pool(POOL_ID, token0, token1, pool.liquids);\n        return POOL_ID;\n    }\n\n    function provideLiquidity(\n        uint256 amount0,\n        uint poolId\n    ) public payable onlyProvider returns (uint256, uint256) {\n        require(amount0 >= 100, \"Amount cannot be lesser than 100 WEI\");\n\n        address token0 = pools[poolId].token0;\n        address token1 = pools[poolId].token1;\n\n        require(\n            pairs[token0] != address(0),\n            \"Pair does not exists, Contact admin\"\n        );\n        require(\n            pairs[token1] != address(0),\n            \"Pair does not exists, Contact admin\"\n        );\n\n        uint256 amount1;\n        uint256 _safeAmount0 = amount0;\n\n        if (pairs[token0] == NATIVE_PAIR) {\n            // only in format of MATIC as pair subject\n            // ex MATIC/XEND\n            _safeAmount0 = msg.value;\n\n            amount1 = estimate(pairs[token0], pairs[token1], _safeAmount0);\n\n            // stake token0 to smart contract\n            IERC20 quoteToken = IERC20(token1);\n            quoteToken.transferFrom(msg.sender, address(this), amount0);\n        } else {\n            amount1 = estimate(pairs[token0], pairs[token1], _safeAmount0);\n\n            // stake token0 to smart contract\n            IERC20 baseToken = IERC20(token0);\n            baseToken.transferFrom(msg.sender, address(this), _safeAmount0);\n            // stake token1 to smart contract\n            IERC20 quoteToken = IERC20(token1);\n            quoteToken.transferFrom(msg.sender, address(this), amount1);\n        }\n\n        (bool hasLiquid, uint liquidId) = _liquidIndex(poolId, msg.sender);\n\n        if (hasLiquid) {\n            // if liquid exist increment the amount\n            liquids[liquidId].amount0 += _safeAmount0;\n            liquids[liquidId].amount1 += amount1;\n        } else {\n            _createLiquid(poolId, _safeAmount0, amount1, msg.sender);\n        }\n\n        // store the liquidity data on-chain\n        emit LiquidityProvided(\n            token0,\n            token1,\n            _safeAmount0,\n            amount1,\n            msg.sender,\n            block.timestamp\n        );\n\n        return (_safeAmount0, amount1);\n    }\n\n    function removeLiquidity(uint id) public onlyProvider {\n        require(liquids[id].provider == msg.sender, \"Unauthorized\");\n\n        Pool memory pool = pools[liquids[id].poolId];\n        IERC20 token0 = IERC20(pool.token0);\n        IERC20 token1 = IERC20(pool.token1);\n\n        token0.transfer(msg.sender, liquids[id].amount0);\n        token1.transfer(msg.sender, liquids[id].amount1);\n\n        emit LiquidityRemoved(\n            address(token0),\n            address(token1),\n            liquids[id].amount0,\n            liquids[id].amount1,\n            msg.sender\n        );\n\n        // delete liquid TO DO\n        liquids[id].amount0 = 0;\n        liquids[id].amount1 = 0;\n    }\n\n    function withDrawEarnings(uint256 amount) public onlyProvider {\n        require(\n            providers[msg.sender].balance >= amount,\n            \"Insufficient Balance\"\n        );\n        providers[msg.sender].balance -= amount;\n        payable(msg.sender).transfer(amount);\n    }\n\n    // === Administration === //\n\n    function updateNativePair(address pair) public onlyDeployer {\n        require(pair != address(0), \"Invalid Pair Address\");\n        NATIVE_PAIR = pair;\n    }\n\n    function updateSwapFee(uint fee) public onlyDeployer {\n        require(fee > 0, \"Platform fee cannot be zero\");\n        require(fee < 100, \"Platform fee cannot be a hundred\");\n        swapFee = fee;\n    }\n\n    function createPair(address token, address pair) public onlyDeployer {\n        require(token != address(0), \"Invalid Token Address\");\n        require(pair != address(0), \"Invalid Pair Address\");\n        pairs[token] = pair;\n    }\n\n    // === Internal Functions === //\n\n    function _liquidIndex(\n        uint poolId,\n        address provider\n    ) private view returns (bool, uint) {\n        uint256[] memory providerLiquids = providers[provider].liquids;\n\n        for (uint index = 0; index < providerLiquids.length; index++) {\n            if (liquids[providerLiquids[index]].poolId == poolId) {\n                return (true, liquids[providerLiquids[index]].id);\n            }\n        }\n\n        return (false, 0);\n    }\n\n    function _aggregateLiquids(\n        uint256 amount0,\n        uint256 amount1,\n        uint256 poolSizeToken1,\n        Pool memory pool,\n        uint256 fee\n    ) private {\n        // equally share swap impact on all provider liquids based on their contribution\n        for (uint index = 0; index < pool.liquids.length; index++) {\n            uint liquidId = pool.liquids[index];\n\n            // calculated with ratio of this liquid compared\n            // to other liquids contributing\n            uint256 additionAmount = ((liquids[liquidId].amount1 * amount0) /\n                poolSizeToken1);\n\n            // step I\n            liquids[liquidId].amount0 += additionAmount;\n\n            // calculated with ratio of this liquid compared\n            // to other liquids contributing\n            uint256 deductionAmount = ((liquids[liquidId].amount1 * amount1) /\n                poolSizeToken1);\n\n            // step II\n            liquids[liquidId].amount1 -= deductionAmount;\n\n            // reward the liquid provider\n            uint256 reward = ((liquids[liquidId].amount1 * fee) /\n                poolSizeToken1);\n\n            providers[liquids[liquidId].provider].totalEarned += reward;\n            providers[liquids[liquidId].provider].balance += reward;\n        }\n    }\n\n    function _transferSwappedTokens0(\n        IERC20 token1,\n        uint256 amount1\n    ) private returns (uint256) {\n        uint256 _fee = ((amount1 / 100) * swapFee);\n\n        // give user their destination token minus fee\n        token1.transfer(msg.sender, (amount1 - _fee));\n\n        // convert fee to matic\n        return estimate(address(token1), NATIVE_PAIR, _fee);\n    }\n\n    function _transferSwappedTokens1(\n        uint256 amount1\n    ) public payable returns (uint256) {\n        uint256 _fee = ((amount1 / 100) * swapFee);\n\n        // give user their destination token minus fee\n        payable(msg.sender).transfer(amount1 - _fee);\n        return _fee;\n    }\n\n    function _transferSwappedTokens2(\n        IERC20 token0,\n        IERC20 token1,\n        uint256 amount0,\n        uint256 amount1,\n        address owner\n    ) private returns (uint256) {\n        uint256 _fee = ((amount1 / 100) * swapFee);\n\n        // tranfers the base token from user to the\n        // smart contract\n        token0.transferFrom(owner, address(this), amount0);\n\n        // give user their destination token minus fee\n        token1.transfer(owner, (amount1 - _fee));\n\n        // convert fee to matic\n        return estimate(address(token1), NATIVE_PAIR, _fee);\n    }\n\n    function _findPool(\n        address token0,\n        address token1\n    ) private view returns (uint) {\n        require(token0 != address(0) && token1 != address(0), \"Invalid\");\n        for (uint index = 0; index <= POOL_ID; index++) {\n            if (\n                pools[index].token0 == token0 && pools[index].token1 == token1\n            ) {\n                return index;\n            }\n\n            if (\n                pools[index].token0 == token1 && pools[index].token1 == token0\n            ) {\n                return index;\n            }\n        }\n        return 0;\n    }\n\n    function _createLiquid(\n        uint poolId,\n        uint256 amount0,\n        uint256 amount1,\n        address provider\n    ) private onlyProvider {\n        // otherwise create the new liquid\n        LIQUID_ID++;\n        // create the liquid\n        liquids[LIQUID_ID] = Liquid(\n            LIQUID_ID,\n            poolId,\n            amount0,\n            amount1,\n            provider\n        );\n        // register the liquid\n        pools[poolId].liquids.push(LIQUID_ID);\n        providers[provider].liquids.push(LIQUID_ID);\n    }\n\n    function _poolSize(uint id) private view returns (uint256, uint256) {\n        uint256 amount0;\n        uint256 amount1;\n        for (uint index = 0; index < pools[id].liquids.length; index++) {\n            uint liquidId = pools[id].liquids[index];\n            amount0 += liquids[liquidId].amount0;\n            amount1 += liquids[liquidId].amount1;\n        }\n        return (amount0, amount1);\n    }\n\n    // === Modifiers === //\n\n    modifier onlyGuest() {\n        require(providers[msg.sender].id == 0, \"Only Guest\");\n        _;\n    }\n\n    modifier onlyProvider() {\n        require(providers[msg.sender].id != 0, \"Only Provider\");\n        _;\n    }\n\n    modifier onlyDeployer() {\n        require(msg.sender == _deployer, \"Only Deployer\");\n        _;\n    }\n}\n",
  "sourcePath": "C:\\Users\\Arogundade Ibrahim\\Documents\\web3\\fleep\\contracts\\FleepSwap.sol",
  "compiler": {
    "name": "solc",
    "version": "0.8.16+commit.07a7930e.Emscripten.clang"
  },
  "schemaVersion": "3.4.10",
  "updatedAt": "2022-11-26T09:03:37.408Z",
  "devdoc": {
    "kind": "dev",
    "methods": {},
    "version": 1
  },
  "userdoc": {
    "kind": "user",
    "methods": {},
    "version": 1
  }
}