{
  "contractName": "FleepSweeper",
  "abi": [
    {
      "inputs": [
        {
          "internalType": "address",
          "name": "fleepSwap",
          "type": "address"
        }
      ],
      "stateMutability": "nonpayable",
      "type": "constructor"
    },
    {
      "anonymous": false,
      "inputs": [
        {
          "indexed": false,
          "internalType": "uint256",
          "name": "amount",
          "type": "uint256"
        },
        {
          "indexed": false,
          "internalType": "uint256",
          "name": "amountOut",
          "type": "uint256"
        },
        {
          "indexed": false,
          "internalType": "address",
          "name": "from",
          "type": "address"
        },
        {
          "indexed": false,
          "internalType": "uint256",
          "name": "timestamp",
          "type": "uint256"
        }
      ],
      "name": "FleepSweeped",
      "type": "event"
    },
    {
      "inputs": [
        {
          "internalType": "address[]",
          "name": "tokens",
          "type": "address[]"
        },
        {
          "internalType": "uint256[]",
          "name": "pools",
          "type": "uint256[]"
        }
      ],
      "name": "sweep",
      "outputs": [
        {
          "internalType": "uint256",
          "name": "",
          "type": "uint256"
        }
      ],
      "stateMutability": "nonpayable",
      "type": "function"
    },
    {
      "inputs": [
        {
          "internalType": "address[]",
          "name": "tokens",
          "type": "address[]"
        },
        {
          "internalType": "address",
          "name": "wallet",
          "type": "address"
        }
      ],
      "name": "estimate",
      "outputs": [
        {
          "internalType": "uint256",
          "name": "",
          "type": "uint256"
        }
      ],
      "stateMutability": "view",
      "type": "function"
    },
    {
      "inputs": [
        {
          "internalType": "uint256",
          "name": "fee",
          "type": "uint256"
        }
      ],
      "name": "updateSweepFee",
      "outputs": [],
      "stateMutability": "nonpayable",
      "type": "function"
    }
  ],
  "bytecode": "0x6080604052600160025534801561001557600080fd5b5060405161099f38038061099f83398101604081905261003491610059565b600180546001600160a01b0319166001600160a01b0392909216919091179055610089565b60006020828403121561006b57600080fd5b81516001600160a01b038116811461008257600080fd5b9392505050565b610907806100986000396000f3fe608060405234801561001057600080fd5b50600436106100415760003560e01c80631cf0a8b8146100465780639ed6c6f61461006b578063bf62a4351461007e575b600080fd5b610059610054366004610716565b610093565b60405190815260200160405180910390f35b610059610079366004610768565b6102c7565b61009161008c366004610823565b61051b565b005b60008060005b84518110156102bd5760006001600160a01b03168582815181106100bf576100bf61083c565b60200260200101516001600160a01b031603156102ab5760008582815181106100ea576100ea61083c565b60209081029190910101516040516370a0823160e01b81526001600160a01b0387811660048301529192506000918316906370a0823190602401602060405180830381865afa158015610141573d6000803e3d6000fd5b505050506040513d601f19601f820116820180604052508101906101659190610852565b60015488519192506001600160a01b03169063102a5f919089908690811061018f5761018f61083c565b6020026020010151600160009054906101000a90046001600160a01b03166001600160a01b0316638a2627f06040518163ffffffff1660e01b8152600401602060405180830381865afa1580156101ea573d6000803e3d6000fd5b505050506040513d601f19601f8201168201806040525081019061020e919061086b565b6040517fffffffff0000000000000000000000000000000000000000000000000000000060e085901b1681526001600160a01b0392831660048201529116602482015260448101849052606401602060405180830381865afa158015610278573d6000803e3d6000fd5b505050506040513d601f19601f8201168201806040525081019061029c9190610852565b6102a690856108a5565b935050505b806102b5816108b8565b915050610099565b5090505b92915050565b60008060005b84518110156102bd5760006001600160a01b03168582815181106102f3576102f361083c565b60200260200101516001600160a01b0316031561050957600085828151811061031e5761031e61083c565b60209081029190910101516040516370a0823160e01b81523360048201529091506000906001600160a01b038316906370a0823190602401602060405180830381865afa158015610373573d6000803e3d6000fd5b505050506040513d601f19601f820116820180604052508101906103979190610852565b60015488519192506001600160a01b031690637e5fd4bf908990869081106103c1576103c161083c565b6020026020010151600160009054906101000a90046001600160a01b03166001600160a01b0316638a2627f06040518163ffffffff1660e01b8152600401602060405180830381865afa15801561041c573d6000803e3d6000fd5b505050506040513d601f19601f82011682018060405250810190610440919061086b565b848a88815181106104535761045361083c565b60209081029190910101516040517fffffffff0000000000000000000000000000000000000000000000000000000060e087901b1681526001600160a01b039485166004820152939092166024840152604483015260648201526000608482015260a4016020604051808303816000875af11580156104d6573d6000803e3d6000fd5b505050506040513d601f19601f820116820180604052508101906104fa9190610852565b61050490856108a5565b935050505b80610513816108b8565b9150506102cd565b6000546001600160a01b0316331461057a5760405162461bcd60e51b815260206004820152600d60248201527f4f6e6c79204465706c6f7965720000000000000000000000000000000000000060448201526064015b60405180910390fd5b600081116105ca5760405162461bcd60e51b815260206004820152601b60248201527f506c6174666f726d206665652063616e6e6f74206265207a65726f00000000006044820152606401610571565b6064811061061a5760405162461bcd60e51b815260206004820181905260248201527f506c6174666f726d206665652063616e6e6f7420626520612068756e647265646044820152606401610571565b600255565b634e487b7160e01b600052604160045260246000fd5b604051601f8201601f1916810167ffffffffffffffff8111828210171561065e5761065e61061f565b604052919050565b600067ffffffffffffffff8211156106805761068061061f565b5060051b60200190565b6001600160a01b038116811461069f57600080fd5b50565b600082601f8301126106b357600080fd5b813560206106c86106c383610666565b610635565b82815260059290921b840181019181810190868411156106e757600080fd5b8286015b8481101561070b5780356106fe8161068a565b83529183019183016106eb565b509695505050505050565b6000806040838503121561072957600080fd5b823567ffffffffffffffff81111561074057600080fd5b61074c858286016106a2565b925050602083013561075d8161068a565b809150509250929050565b6000806040838503121561077b57600080fd5b823567ffffffffffffffff8082111561079357600080fd5b61079f868387016106a2565b93506020915081850135818111156107b657600080fd5b85019050601f810186136107c957600080fd5b80356107d76106c382610666565b81815260059190911b820183019083810190888311156107f657600080fd5b928401925b82841015610814578335825292840192908401906107fb565b80955050505050509250929050565b60006020828403121561083557600080fd5b5035919050565b634e487b7160e01b600052603260045260246000fd5b60006020828403121561086457600080fd5b5051919050565b60006020828403121561087d57600080fd5b81516108888161068a565b9392505050565b634e487b7160e01b600052601160045260246000fd5b808201808211156102c1576102c161088f565b6000600182016108ca576108ca61088f565b506001019056fea264697066735822122013a64f8ac01228d8cb01d46d78d2d60bcd4ba74498519ece41240d8446b625f764736f6c63430008100033",
  "immutableReferences": {},
  "source": "// SPDX-License-Identifier: GPL-3.0\npragma solidity >=0.7.0 <0.9.0;\n\nimport {PriceApi} from \"./PriceApi.sol\";\nimport {FleepSwap} from \"./FleepSwap.sol\";\nimport {IERC20} from \"@openzeppelin/contracts/token/ERC20/IERC20.sol\";\n\ncontract FleepSweeper {\n    address private _deployer;\n    FleepSwap private _fleepSwap;\n\n    // charges 1% fee on every successful\n    // sweeps\n    uint private sweepFee = 1;\n\n    // registers every successful swap\n    event FleepSweeped(\n        uint256 amount,\n        uint256 amountOut,\n        address from,\n        uint timestamp\n    );\n\n    constructor(address fleepSwap) {\n        _fleepSwap = FleepSwap(fleepSwap);\n    }\n\n    function sweep(address[] memory tokens, uint[] memory pools)\n        public\n        returns (uint256)\n    {\n        uint256 amount1;\n\n        for (uint index = 0; index < tokens.length; index++) {\n            if (tokens[index] == address(0)) continue;\n\n            IERC20 token = IERC20(tokens[index]);\n            uint256 amount0 = token.balanceOf(msg.sender);\n\n            amount1 += _fleepSwap.swap(\n                tokens[index],\n                _fleepSwap.getNativePair(),\n                amount0,\n                pools[index],\n                0\n            );\n        }\n\n        return amount1;\n    }\n\n    function estimate(address[] memory tokens, address wallet)\n        public view\n        returns (uint256)\n    {\n        uint256 amount1;\n\n        for (uint index = 0; index < tokens.length; index++) {\n            if (tokens[index] == address(0)) continue;\n\n            IERC20 token = IERC20(tokens[index]);\n            uint256 amount0 = token.balanceOf(wallet);\n\n            amount1 += _fleepSwap.estimate(\n                tokens[index],\n                _fleepSwap.getNativePair(),\n                amount0\n            );\n        }\n\n        return amount1;\n    }\n\n    function updateSweepFee(uint fee) public onlyDeployer {\n        require(fee > 0, \"Platform fee cannot be zero\");\n        require(fee < 100, \"Platform fee cannot be a hundred\");\n        sweepFee = fee;\n    }\n\n    modifier onlyDeployer() {\n        require(msg.sender == _deployer, \"Only Deployer\");\n        _;\n    }\n}\n",
  "sourcePath": "C:\\Users\\Arogundade Ibrahim\\Documents\\web3\\fleep\\contracts\\FleepSweeper.sol",
  "compiler": {
    "name": "solc",
    "version": "0.8.16+commit.07a7930e.Emscripten.clang"
  },
  "schemaVersion": "3.4.10",
  "updatedAt": "2022-11-21T18:43:45.695Z",
  "devdoc": {
    "kind": "dev",
    "methods": {},
    "version": 1
  },
  "userdoc": {
    "kind": "user",
    "methods": {},
    "version": 1
  }
}