{
  "contractName": "FleepSwap",
  "abi": [
    {
      "inputs": [
        {
          "internalType": "address",
          "name": "priceApI",
          "type": "address"
        },
        {
          "internalType": "address",
          "name": "fleepToken",
          "type": "address"
        }
      ],
      "stateMutability": "nonpayable",
      "type": "constructor"
    },
    {
      "anonymous": false,
      "inputs": [
        {
          "indexed": false,
          "internalType": "uint256",
          "name": "amount",
          "type": "uint256"
        },
        {
          "indexed": false,
          "internalType": "uint256",
          "name": "amountOut",
          "type": "uint256"
        },
        {
          "indexed": false,
          "internalType": "address",
          "name": "from",
          "type": "address"
        },
        {
          "indexed": false,
          "internalType": "address",
          "name": "to",
          "type": "address"
        },
        {
          "indexed": false,
          "internalType": "uint256",
          "name": "timestamp",
          "type": "uint256"
        }
      ],
      "name": "FleepSwaped",
      "type": "event"
    },
    {
      "anonymous": false,
      "inputs": [
        {
          "indexed": false,
          "internalType": "address",
          "name": "token0",
          "type": "address"
        },
        {
          "indexed": false,
          "internalType": "address",
          "name": "token1",
          "type": "address"
        },
        {
          "indexed": false,
          "internalType": "uint256",
          "name": "amount0",
          "type": "uint256"
        },
        {
          "indexed": false,
          "internalType": "uint256",
          "name": "amount1",
          "type": "uint256"
        },
        {
          "indexed": false,
          "internalType": "address",
          "name": "provider",
          "type": "address"
        },
        {
          "indexed": false,
          "internalType": "uint256",
          "name": "timestamp",
          "type": "uint256"
        }
      ],
      "name": "LiquidityProvided",
      "type": "event"
    },
    {
      "anonymous": false,
      "inputs": [
        {
          "indexed": false,
          "internalType": "address",
          "name": "token0",
          "type": "address"
        },
        {
          "indexed": false,
          "internalType": "address",
          "name": "token1",
          "type": "address"
        },
        {
          "indexed": false,
          "internalType": "uint256",
          "name": "amount0",
          "type": "uint256"
        },
        {
          "indexed": false,
          "internalType": "uint256",
          "name": "amount1",
          "type": "uint256"
        },
        {
          "indexed": false,
          "internalType": "address",
          "name": "provider",
          "type": "address"
        }
      ],
      "name": "LiquidityRemoved",
      "type": "event"
    },
    {
      "inputs": [],
      "name": "NATIVE_PAIR",
      "outputs": [
        {
          "internalType": "address",
          "name": "",
          "type": "address"
        }
      ],
      "stateMutability": "view",
      "type": "function"
    },
    {
      "inputs": [
        {
          "internalType": "uint256",
          "name": "",
          "type": "uint256"
        }
      ],
      "name": "liquids",
      "outputs": [
        {
          "internalType": "uint256",
          "name": "id",
          "type": "uint256"
        },
        {
          "internalType": "uint256",
          "name": "poolId",
          "type": "uint256"
        },
        {
          "internalType": "uint256",
          "name": "amount0",
          "type": "uint256"
        },
        {
          "internalType": "uint256",
          "name": "amount1",
          "type": "uint256"
        },
        {
          "internalType": "address",
          "name": "provider",
          "type": "address"
        }
      ],
      "stateMutability": "view",
      "type": "function"
    },
    {
      "inputs": [
        {
          "internalType": "address",
          "name": "",
          "type": "address"
        }
      ],
      "name": "pairs",
      "outputs": [
        {
          "internalType": "address",
          "name": "",
          "type": "address"
        }
      ],
      "stateMutability": "view",
      "type": "function"
    },
    {
      "inputs": [
        {
          "internalType": "uint256",
          "name": "",
          "type": "uint256"
        }
      ],
      "name": "pools",
      "outputs": [
        {
          "internalType": "uint256",
          "name": "id",
          "type": "uint256"
        },
        {
          "internalType": "address",
          "name": "token0",
          "type": "address"
        },
        {
          "internalType": "address",
          "name": "token1",
          "type": "address"
        }
      ],
      "stateMutability": "view",
      "type": "function"
    },
    {
      "inputs": [
        {
          "internalType": "address",
          "name": "",
          "type": "address"
        }
      ],
      "name": "providers",
      "outputs": [
        {
          "internalType": "uint256",
          "name": "id",
          "type": "uint256"
        },
        {
          "internalType": "uint256",
          "name": "totalEarned",
          "type": "uint256"
        },
        {
          "internalType": "uint256",
          "name": "balance",
          "type": "uint256"
        }
      ],
      "stateMutability": "view",
      "type": "function"
    },
    {
      "inputs": [
        {
          "internalType": "address",
          "name": "token0",
          "type": "address"
        },
        {
          "internalType": "address",
          "name": "token1",
          "type": "address"
        }
      ],
      "name": "getRate",
      "outputs": [
        {
          "internalType": "uint256",
          "name": "",
          "type": "uint256"
        }
      ],
      "stateMutability": "view",
      "type": "function"
    },
    {
      "inputs": [
        {
          "internalType": "address",
          "name": "token0",
          "type": "address"
        },
        {
          "internalType": "address",
          "name": "token1",
          "type": "address"
        },
        {
          "internalType": "uint256",
          "name": "amount0",
          "type": "uint256"
        }
      ],
      "name": "estimate",
      "outputs": [
        {
          "internalType": "uint256",
          "name": "",
          "type": "uint256"
        }
      ],
      "stateMutability": "view",
      "type": "function"
    },
    {
      "inputs": [],
      "name": "getNativePair",
      "outputs": [
        {
          "internalType": "address",
          "name": "",
          "type": "address"
        }
      ],
      "stateMutability": "view",
      "type": "function"
    },
    {
      "inputs": [],
      "name": "unlockedProviderAccount",
      "outputs": [],
      "stateMutability": "nonpayable",
      "type": "function"
    },
    {
      "inputs": [
        {
          "internalType": "address",
          "name": "token0",
          "type": "address"
        },
        {
          "internalType": "address",
          "name": "token1",
          "type": "address"
        },
        {
          "internalType": "uint256",
          "name": "amount0",
          "type": "uint256"
        }
      ],
      "name": "swap",
      "outputs": [
        {
          "internalType": "uint256",
          "name": "",
          "type": "uint256"
        }
      ],
      "stateMutability": "payable",
      "type": "function"
    },
    {
      "inputs": [
        {
          "internalType": "address",
          "name": "token0",
          "type": "address"
        },
        {
          "internalType": "address",
          "name": "token1",
          "type": "address"
        }
      ],
      "name": "createPool",
      "outputs": [
        {
          "internalType": "uint256",
          "name": "",
          "type": "uint256"
        }
      ],
      "stateMutability": "nonpayable",
      "type": "function"
    },
    {
      "inputs": [
        {
          "internalType": "uint256",
          "name": "amount0",
          "type": "uint256"
        },
        {
          "internalType": "uint256",
          "name": "poolId",
          "type": "uint256"
        }
      ],
      "name": "provideLiquidity",
      "outputs": [
        {
          "internalType": "uint256",
          "name": "",
          "type": "uint256"
        },
        {
          "internalType": "uint256",
          "name": "",
          "type": "uint256"
        }
      ],
      "stateMutability": "payable",
      "type": "function"
    },
    {
      "inputs": [
        {
          "internalType": "uint256",
          "name": "id",
          "type": "uint256"
        }
      ],
      "name": "removeLiquidity",
      "outputs": [],
      "stateMutability": "nonpayable",
      "type": "function"
    },
    {
      "inputs": [
        {
          "internalType": "uint256",
          "name": "amount",
          "type": "uint256"
        }
      ],
      "name": "withDrawEarnings",
      "outputs": [],
      "stateMutability": "nonpayable",
      "type": "function"
    },
    {
      "inputs": [
        {
          "internalType": "address",
          "name": "pair",
          "type": "address"
        }
      ],
      "name": "updateNativePair",
      "outputs": [],
      "stateMutability": "nonpayable",
      "type": "function"
    },
    {
      "inputs": [
        {
          "internalType": "uint256",
          "name": "fee",
          "type": "uint256"
        }
      ],
      "name": "updateSwapFee",
      "outputs": [],
      "stateMutability": "nonpayable",
      "type": "function"
    },
    {
      "inputs": [
        {
          "internalType": "address",
          "name": "token",
          "type": "address"
        },
        {
          "internalType": "address",
          "name": "pair",
          "type": "address"
        }
      ],
      "name": "createPair",
      "outputs": [],
      "stateMutability": "nonpayable",
      "type": "function"
    },
    {
      "inputs": [
        {
          "internalType": "contract IERC20",
          "name": "pairedToken",
          "type": "address"
        },
        {
          "internalType": "uint256",
          "name": "pairedAmount",
          "type": "uint256"
        }
      ],
      "name": "_nativeStake",
      "outputs": [],
      "stateMutability": "payable",
      "type": "function"
    }
  ],
  "bytecode": "0x608060405260016003553480156200001657600080fd5b50604051620027bb380380620027bb833981016040819052620000399162000098565b600080546001600160a01b039384166001600160a01b0319918216179091556001805492909316918116919091179091556002805490911633179055620000d0565b80516001600160a01b03811681146200009357600080fd5b919050565b60008060408385031215620000ac57600080fd5b620000b7836200007b565b9150620000c7602084016200007b565b90509250929050565b6126db80620000e06000396000f3fe6080604052600436106101295760003560e01c80639c8f9f23116100a5578063d30dce7d11610074578063e343361511610059578063e3433615146103a0578063eebb63ed146103c0578063fe33b3021461044457600080fd5b8063d30dce7d1461036d578063df791e501461038d57600080fd5b80639c8f9f23146102a0578063ac4afa38146102c0578063bf16f65a1461032d578063c9c653961461034d57600080fd5b80635554b552116100fc5780638a2627f0116100e15780638a2627f01461024f57806391e5f37f1461026d57806397d07b221461028d57600080fd5b80635554b552146102105780637a16af7f1461022757600080fd5b80630787bc271461012e578063102a5f911461018a578063344bfb59146101b8578063379b87ea146101f0575b600080fd5b34801561013a57600080fd5b5061016a6101493660046124b9565b600a6020526000908152604090208054600182015460029092015490919083565b604080519384526020840192909252908201526060015b60405180910390f35b34801561019657600080fd5b506101aa6101a53660046124dd565b61047a565b604051908152602001610181565b3480156101c457600080fd5b506008546101d8906001600160a01b031681565b6040516001600160a01b039091168152602001610181565b3480156101fc57600080fd5b506101aa61020b36600461251e565b610521565b34801561021c57600080fd5b50610225610560565b005b61023a610235366004612557565b610829565b60408051928352602083019190915201610181565b34801561025b57600080fd5b506008546001600160a01b03166101d8565b34801561027957600080fd5b506102256102883660046124b9565b610c6d565b61022561029b366004612579565b610d3c565b3480156102ac57600080fd5b506102256102bb3660046125a5565b610e25565b3480156102cc57600080fd5b506103086102db3660046125a5565b60096020526000908152604090208054600182015460029092015490916001600160a01b03908116911683565b604080519384526001600160a01b039283166020850152911690820152606001610181565b34801561033957600080fd5b506102256103483660046125a5565b610e76565b34801561035957600080fd5b5061022561036836600461251e565b610f65565b34801561037957600080fd5b506102256103883660046125a5565b611096565b6101aa61039b3660046124dd565b61119e565b3480156103ac57600080fd5b506101aa6103bb36600461251e565b611aa7565b3480156103cc57600080fd5b506104136103db3660046125a5565b600b6020526000908152604090208054600182015460028301546003840154600490940154929391929091906001600160a01b031685565b6040805195865260208601949094529284019190915260608301526001600160a01b0316608082015260a001610181565b34801561045057600080fd5b506101d861045f3660046124b9565b6007602052600090815260409020546001600160a01b031681565b600080546001600160a01b03858116835260076020526040808420548683168552818520549151635d5530df60e11b8152908316600482015290821660248201528392919091169063baaa61be90604401602060405180830381865afa1580156104e8573d6000803e3d6000fd5b505050506040513d601f19601f8201168201806040525081019061050c91906125be565b905061051881846125ed565b95945050505050565b6001600160a01b03808316600090815260076020526040808220548484168352908220549192610557929181169116600161047a565b90505b92915050565b336000908152600a6020526040902054156105c25760405162461bcd60e51b815260206004820152600a60248201527f4f6e6c792047756573740000000000000000000000000000000000000000000060448201526064015b60405180910390fd5b6001546040517f64614c71000000000000000000000000000000000000000000000000000000008152600a60048201526001600160a01b03909116906364614c7190602401602060405180830381865afa158015610624573d6000803e3d6000fd5b505050506040513d601f19601f8201168201806040525081019061064891906125be565b6001546040517f70a082310000000000000000000000000000000000000000000000000000000081523360048201526001600160a01b03909116906370a0823190602401602060405180830381865afa1580156106a9573d6000803e3d6000fd5b505050506040513d601f19601f820116820180604052508101906106cd91906125be565b10156107415760405162461bcd60e51b815260206004820152602660248201527f596f75206d75737420686f646c206174206c6561737420313020466c6565702060448201527f546f6b656e73000000000000000000000000000000000000000000000000000060648201526084016105b9565b600680549060006107518361260c565b9091555050604080516080810182526006548152336000818152600a6020818152858320600181015482870152600281015486880152939092528152600390910180548451818402810184019095528085529293606085019390928301828280156107db57602002820191906000526020600020905b8154815260200190600101908083116107c7575b505050919092525050336000908152600a602090815260409182902083518155838201516001820155918301516002830155606083015180516108249260038501920190612444565b505050565b336000908152600a6020526040812054819081036108795760405162461bcd60e51b815260206004820152600d60248201526c27b7363c90283937bb34b232b960991b60448201526064016105b9565b60648410156108ef5760405162461bcd60e51b8152602060048201526024808201527f416d6f756e742063616e6e6f74206265206c6573736572207468616e2031303060448201527f205745490000000000000000000000000000000000000000000000000000000060648201526084016105b9565b600083815260096020908152604080832060018101546002909101546001600160a01b0391821680865260079094529190932054919290811691166109825760405162461bcd60e51b815260206004820152602360248201527f5061697220646f6573206e6f74206578697374732c20436f6e7461637420616460448201526236b4b760e91b60648201526084016105b9565b6001600160a01b03818116600090815260076020526040902054166109f55760405162461bcd60e51b815260206004820152602360248201527f5061697220646f6573206e6f74206578697374732c20436f6e7461637420616460448201526236b4b760e91b60648201526084016105b9565b600080610a028733611c52565b6008546001600160a01b03878116600090815260076020526040812054949650929450919283928c928116911603610af057610a3e3a34612625565b600080546001600160a01b038a8116835260076020526040808420548b8316855293819020549051635d5530df60e11b8152938216600485015281166024840152929350919091169063baaa61be90604401602060405180830381865afa158015610aad573d6000803e3d6000fd5b505050506040513d601f19601f82011682018060405250810190610ad191906125be565b9250610add83826125ed565b915085610aea8184610d3c565b50610b9c565b600080546001600160a01b03898116835260076020526040808420548a8316855293819020549051635d5530df60e11b8152938216600485015281166024840152169063baaa61be90604401602060405180830381865afa158015610b59573d6000803e3d6000fd5b505050506040513d601f19601f82011682018060405250810190610b7d91906125be565b9250610b8983826125ed565b91508686610b9982828587611ce7565b50505b8415610bf4576000848152600b602052604081206002018054839290610bc3908490612638565b90915550506000848152600b602052604081206003018054849290610be9908490612638565b90915550610c009050565b610c008a828433611ec1565b604080516001600160a01b03808a16825288166020820152908101829052606081018390523360808201524260a08201527fac838223c8dc8d877bcd4b6592254fdaf05f64d3da40ab54c09765d221073c1c9060c00160405180910390a19a909950975050505050505050565b6002546001600160a01b03163314610cb75760405162461bcd60e51b815260206004820152600d60248201526c27b7363c902232b83637bcb2b960991b60448201526064016105b9565b6001600160a01b038116610d0d5760405162461bcd60e51b815260206004820152601460248201527f496e76616c69642050616972204164647265737300000000000000000000000060448201526064016105b9565b6008805473ffffffffffffffffffffffffffffffffffffffff19166001600160a01b0392909216919091179055565b60405163095ea7b360e01b8152306004820152602481018290526001600160a01b0383169063095ea7b3906044016020604051808303816000875af1158015610d89573d6000803e3d6000fd5b505050506040513d601f19601f82011682018060405250810190610dad919061264b565b506040516323b872dd60e01b8152336004820152306024820152604481018290526001600160a01b038316906323b872dd906064016020604051808303816000875af1158015610e01573d6000803e3d6000fd5b505050506040513d601f19601f82011682018060405250810190610824919061264b565b336000908152600a60205260408120549003610e735760405162461bcd60e51b815260206004820152600d60248201526c27b7363c90283937bb34b232b960991b60448201526064016105b9565b50565b6002546001600160a01b03163314610ec05760405162461bcd60e51b815260206004820152600d60248201526c27b7363c902232b83637bcb2b960991b60448201526064016105b9565b60008111610f105760405162461bcd60e51b815260206004820152601b60248201527f506c6174666f726d206665652063616e6e6f74206265207a65726f000000000060448201526064016105b9565b60648110610f605760405162461bcd60e51b815260206004820181905260248201527f506c6174666f726d206665652063616e6e6f7420626520612068756e6472656460448201526064016105b9565b600355565b6002546001600160a01b03163314610faf5760405162461bcd60e51b815260206004820152600d60248201526c27b7363c902232b83637bcb2b960991b60448201526064016105b9565b6001600160a01b0382166110055760405162461bcd60e51b815260206004820152601560248201527f496e76616c696420546f6b656e2041646472657373000000000000000000000060448201526064016105b9565b6001600160a01b03811661105b5760405162461bcd60e51b815260206004820152601460248201527f496e76616c69642050616972204164647265737300000000000000000000000060448201526064016105b9565b6001600160a01b039182166000908152600760205260409020805473ffffffffffffffffffffffffffffffffffffffff191691909216179055565b336000908152600a602052604081205490036110e45760405162461bcd60e51b815260206004820152600d60248201526c27b7363c90283937bb34b232b960991b60448201526064016105b9565b336000908152600a60205260409020600201548111156111465760405162461bcd60e51b815260206004820152601460248201527f496e73756666696369656e742042616c616e636500000000000000000000000060448201526064016105b9565b336000908152600a602052604081206002018054839290611168908490612625565b9091555050604051339082156108fc029083906000818181858888f1935050505015801561119a573d6000803e3d6000fd5b5050565b600060648210156112175760405162461bcd60e51b815260206004820152602c60248201527f416d6f756e7420746f20737761702063616e6e6f74206265206c65737365722060448201527f7468616e2031303020574549000000000000000000000000000000000000000060648201526084016105b9565b6001600160a01b038481166000908152600760205260409020541661128a5760405162461bcd60e51b815260206004820152602360248201527f5061697220646f6573206e6f74206578697374732c20436f6e7461637420616460448201526236b4b760e91b60648201526084016105b9565b6001600160a01b03838116600090815260076020526040902054166112fd5760405162461bcd60e51b815260206004820152602360248201527f5061697220646f6573206e6f74206578697374732c20436f6e7461637420616460448201526236b4b760e91b60648201526084016105b9565b600080838161130c8888611fa2565b60008181526009602052604090205490915061136a5760405162461bcd60e51b815260206004820152601460248201527f506f6f6c20646f6573206e6f742065786973747300000000000000000000000060448201526064016105b9565b6008546001600160a01b038981166000908152600760205260409020549181169116036115c65761139b3a34612625565b600080546008546001600160a01b038b811684526007602052604093849020549351635d5530df60e11b815291811660048301529283166024820152929450169063baaa61be90604401602060405180830381865afa158015611402573d6000803e3d6000fd5b505050506040513d601f19601f8201168201806040525081019061142691906125be565b935061143284836125ed565b9250866000611440836120e0565b915050848110156114935760405162461bcd60e51b815260206004820152601660248201527f496e73756666696369656e7420506f6f6c2053697a650000000000000000000060448201526064016105b9565b60008381526009602090815260409182902082516080810184528154815260018201546001600160a01b039081168285015260028301541681850152600382018054855181860281018601909652808652611534958e958c95899594909360608601939283018282801561152657602002820191906000526020600020905b815481526020019060010190808311611512575b505050505081525050612194565b6040517fa9059cbb000000000000000000000000000000000000000000000000000000008152336004820152602481018690526001600160a01b0383169063a9059cbb906044016020604051808303816000875af115801561159a573d6000803e3d6000fd5b505050506040513d601f19601f820116820180604052508101906115be919061264b565b505050611a45565b6008546001600160a01b0388811660009081526007602052604090205491811691160361189a57600080546001600160a01b038a811683526007602052604092839020546008549351635d5530df60e11b815290821660048201529281166024840152169063baaa61be90604401602060405180830381865afa158015611651573d6000803e3d6000fd5b505050506040513d601f19601f8201168201806040525081019061167591906125be565b935061168184836125ed565b60405163095ea7b360e01b81523060048201526024810184905290935088906001600160a01b0382169063095ea7b3906044016020604051808303816000875af11580156116d3573d6000803e3d6000fd5b505050506040513d601f19601f820116820180604052508101906116f7919061264b565b506040516323b872dd60e01b8152336004820152306024820152604481018490526001600160a01b038216906323b872dd906064016020604051808303816000875af115801561174b573d6000803e3d6000fd5b505050506040513d601f19601f8201168201806040525081019061176f919061264b565b50600061177b836120e0565b509050848110156117ce5760405162461bcd60e51b815260206004820152601660248201527f496e73756666696369656e7420506f6f6c2053697a650000000000000000000060448201526064016105b9565b60008381526009602090815260409182902082516080810184528154815260018201546001600160a01b03908116828501526002830154168185015260038201805485518186028101860190965280865261186d958e958c958995949093606086019392830182828015611526576020028201919060005260206000209081548152602001906001019080831161151257505050505081525050612194565b604051339086156108fc029087906000818181858888f193505050501580156115be573d6000803e3d6000fd5b600080546001600160a01b038a8116835260076020526040808420548b8316855293819020549051635d5530df60e11b8152938216600485015281166024840152169063baaa61be90604401602060405180830381865afa158015611903573d6000803e3d6000fd5b505050506040513d601f19601f8201168201806040525081019061192791906125be565b935061193384836125ed565b925087876000611942846120e0565b915050858110156119955760405162461bcd60e51b815260206004820152601660248201527f496e73756666696369656e7420506f6f6c2053697a650000000000000000000060448201526064016105b9565b60008481526009602090815260409182902082516080810184528154815260018201546001600160a01b039081168285015260028301541681850152600382018054855181860281018601909652808652611a34958f958d958995949093606086019392830182828015611526576020028201919060005260206000209081548152602001906001019080831161151257505050505081525050612194565b611a4183838b8933612290565b5050505b60408051878152602081018590526001600160a01b038a8116828401528916606082015242608082015290517f649451cb6bd28801e8992e83f834233301eb39b64a665a45b1e08d3e13ff679a9181900360a00190a150909695505050505050565b336000908152600a60205260408120548103611af55760405162461bcd60e51b815260206004820152600d60248201526c27b7363c90283937bb34b232b960991b60448201526064016105b9565b60048054906000611b058361260c565b9091555050600454600090815260096020908152604080832081516080810183528154815260018201546001600160a01b039081168286015260028301541681840152600382018054845181870281018701909552808552919492936060860193909290830182828015611b9857602002820191906000526020600020905b815481526020019060010190808311611b84575b505050919092525050604080516080810182526004548082526001600160a01b03808a1660208085019182528a83168587019081526060808a01519087019081526000958652600983529690942085518155915160018301805491851673ffffffffffffffffffffffffffffffffffffffff19928316179055935160028301805491909416941693909317909155925180519596509194929350611c4492600385019290910190612444565b505060045495945050505050565b60008060008060005b6001600160a01b0386166000908152600a6020526040902060030154811015611cdc576001600160a01b0386166000908152600a60205260409020600301805488919083908110611cae57611cae61266d565b906000526020600020015403611cca5780925060019150611cdc565b80611cd48161260c565b915050611c5b565b509590945092505050565b60405163095ea7b360e01b8152306004820152602481018390526001600160a01b0385169063095ea7b3906044016020604051808303816000875af1158015611d34573d6000803e3d6000fd5b505050506040513d601f19601f82011682018060405250810190611d58919061264b565b506040516323b872dd60e01b8152336004820152306024820152604481018390526001600160a01b038516906323b872dd906064016020604051808303816000875af1158015611dac573d6000803e3d6000fd5b505050506040513d601f19601f82011682018060405250810190611dd0919061264b565b5060405163095ea7b360e01b8152306004820152602481018290526001600160a01b0384169063095ea7b3906044016020604051808303816000875af1158015611e1e573d6000803e3d6000fd5b505050506040513d601f19601f82011682018060405250810190611e42919061264b565b506040516323b872dd60e01b8152336004820152306024820152604481018290526001600160a01b038416906323b872dd906064016020604051808303816000875af1158015611e96573d6000803e3d6000fd5b505050506040513d601f19601f82011682018060405250810190611eba919061264b565b5050505050565b60058054906000611ed18361260c565b90915550506040805160a081018252600580548083526020808401898152848601988952606085019788526001600160a01b03968716608086018181526000948552600b845287852096518755915160018088019190915599516002870155975160038087019190915590516004909501805473ffffffffffffffffffffffffffffffffffffffff19169590971694909417909555968752600984528287208154908301805480890182559089528589200155938652600a8352908520925492018054938401815584529092200155565b60006001600160a01b03831615801590611fc457506001600160a01b03821615155b6120105760405162461bcd60e51b815260206004820152600760248201527f496e76616c69640000000000000000000000000000000000000000000000000060448201526064016105b9565b60005b60045481116120d6576000818152600960205260409020600101546001600160a01b03858116911614801561206457506000818152600960205260409020600201546001600160a01b038481169116145b1561207057905061055a565b6000818152600960205260409020600101546001600160a01b0384811691161480156120b857506000818152600960205260409020600201546001600160a01b038581169116145b156120c457905061055a565b806120ce8161260c565b915050612013565b5060009392505050565b60008060008060005b6000868152600960205260409020600301548110156121895760008681526009602052604081206003018054839081106121255761212561266d565b90600052602060002001549050600b600082815260200190815260200160002060020154846121549190612638565b6000828152600b60205260409020600301549094506121739084612638565b92505080806121819061260c565b9150506120e9565b509094909350915050565b60005b816060015151811015611eba576000826060015182815181106121bc576121bc61266d565b6020026020010151905060008487600b6000858152602001908152602001600020600301546121eb91906125ed565b6121f59190612683565b905080600b6000848152602001908152602001600020600201600082825461221d9190612638565b90915550506000828152600b602052604081206003015486906122419089906125ed565b61224b9190612683565b905080600b600085815260200190815260200160002060030160008282546122739190612625565b9250508190555050505080806122889061260c565b915050612197565b6003546000906122a1606485612683565b6122ab91906125ed565b60405163095ea7b360e01b8152306004820152602481018690529091506001600160a01b0387169063095ea7b3906044016020604051808303816000875af11580156122fb573d6000803e3d6000fd5b505050506040513d601f19601f8201168201806040525081019061231f919061264b565b506040516323b872dd60e01b81526001600160a01b038381166004830152306024830152604482018690528716906323b872dd906064016020604051808303816000875af1158015612375573d6000803e3d6000fd5b505050506040513d601f19601f82011682018060405250810190612399919061264b565b506001600160a01b03851663a9059cbb836123b48487612625565b6040517fffffffff0000000000000000000000000000000000000000000000000000000060e085901b1681526001600160a01b03909216600483015260248201526044016020604051808303816000875af1158015612417573d6000803e3d6000fd5b505050506040513d601f19601f8201168201806040525081019061243b919061264b565b50505050505050565b82805482825590600052602060002090810192821561247f579160200282015b8281111561247f578251825591602001919060010190612464565b5061248b92915061248f565b5090565b5b8082111561248b5760008155600101612490565b6001600160a01b0381168114610e7357600080fd5b6000602082840312156124cb57600080fd5b81356124d6816124a4565b9392505050565b6000806000606084860312156124f257600080fd5b83356124fd816124a4565b9250602084013561250d816124a4565b929592945050506040919091013590565b6000806040838503121561253157600080fd5b823561253c816124a4565b9150602083013561254c816124a4565b809150509250929050565b6000806040838503121561256a57600080fd5b50508035926020909101359150565b6000806040838503121561258c57600080fd5b8235612597816124a4565b946020939093013593505050565b6000602082840312156125b757600080fd5b5035919050565b6000602082840312156125d057600080fd5b5051919050565b634e487b7160e01b600052601160045260246000fd5b6000816000190483118215151615612607576126076125d7565b500290565b60006001820161261e5761261e6125d7565b5060010190565b8181038181111561055a5761055a6125d7565b8082018082111561055a5761055a6125d7565b60006020828403121561265d57600080fd5b815180151581146124d657600080fd5b634e487b7160e01b600052603260045260246000fd5b6000826126a057634e487b7160e01b600052601260045260246000fd5b50049056fea2646970667358221220e7fb4aedf47e129f9cc7a4ba7b25dff85f6685f0b9dcc72d608ccabb7b66438864736f6c63430008100033",
  "immutableReferences": {},
  "source": "// SPDX-License-Identifier: GPL-3.0\npragma solidity >=0.7.0 <0.9.0;\n\nimport {PriceApi} from \"./PriceApi.sol\";\nimport {FleepToken} from \"./FleepToken.sol\";\nimport {IERC20} from \"@openzeppelin/contracts/token/ERC20/IERC20.sol\";\n\ncontract FleepSwap {\n    PriceApi private _priceApi;\n    FleepToken private _fleepToken;\n\n    // contract admin\n    address private _deployer;\n\n    // charges 1% fee on every successful swaps\n    uint private swapFee = 1;\n\n    // ids to avoid conflicts\n    uint256 private POOL_ID;\n    uint256 private LIQUID_ID;\n    uint256 private PROVIDER_ID;\n\n    // token contract address => chainlink aggregrator address\n    // only in the token paired to USD format\n    mapping(address => address) public pairs;\n\n    // is a member of the pairs mapping\n    // but its the native pair MATIC not ERC20\n    address public NATIVE_PAIR;\n\n    // id => liquidity pools\n    mapping(uint => Pool) public pools;\n    // user address => provider data\n    mapping(address => Provider) public providers;\n    // id => liquids\n    mapping(uint => Liquid) public liquids;\n\n    // === Events === //\n\n    event LiquidityProvided(\n        address token0,\n        address token1,\n        uint256 amount0,\n        uint256 amount1,\n        address provider,\n        uint timestamp\n    );\n\n    event LiquidityRemoved(\n        address token0,\n        address token1,\n        uint256 amount0,\n        uint256 amount1,\n        address provider\n    );\n\n    event FleepSwaped(\n        uint256 amount,\n        uint256 amountOut,\n        address from,\n        address to,\n        uint timestamp\n    );\n\n    // === Structs === //\n\n    struct Pool {\n        uint id;\n        address token0;\n        address token1;\n        uint[] liquids;\n    }\n\n    struct Liquid {\n        uint id;\n        uint poolId;\n        uint256 amount0;\n        uint256 amount1;\n        address provider;\n    }\n\n    struct Provider {\n        uint id;\n        uint256 totalEarned;\n        uint256 balance;\n        uint[] liquids;\n    }\n\n    //  check the price of BNB/SUSHI\n    constructor(address priceApI, address fleepToken) {\n        _priceApi = PriceApi(priceApI);\n        _fleepToken = FleepToken(fleepToken);\n        _deployer = msg.sender;\n    }\n\n    // gets the exchanges rates for pair of tokens\n    // useful for user knowing the price of swap\n    // before the actually perform a swap\n    function getRate(address token0, address token1)\n        public\n        view\n        returns (uint256)\n    {\n        return estimate(pairs[token0], pairs[token1], 1);\n    }\n\n    // gets the exchanges rates for pair of tokens\n    // with accordance to amount of tokens\n    function estimate(\n        address token0,\n        address token1,\n        uint256 amount0\n    ) public view returns (uint256) {\n        int256 rate = _priceApi.getExchangeRate(pairs[token0], pairs[token1]);\n        return amount0 * uint256(rate);\n    }\n\n    // returns the pair address for $MATIC\n    function getNativePair() public view returns (address) {\n        return NATIVE_PAIR;\n    }\n\n    // register as a provider\n    function unlockedProviderAccount() public onlyGuest {\n        // to become a provider you must hodl at least 10\n        // tokens of Fleep Token\n        require(\n            _fleepToken.balanceOf(msg.sender) >= _fleepToken.inWei(10),\n            \"You must hodl at least 10 Fleep Tokens\"\n        );\n\n        PROVIDER_ID++;\n        providers[msg.sender] = Provider(\n            PROVIDER_ID,\n            providers[msg.sender].totalEarned,\n            providers[msg.sender].balance,\n            providers[msg.sender].liquids\n        );\n    }\n\n    // === Swapping === //\n\n    function swap(\n        address token0,\n        address token1,\n        uint256 amount0\n    ) public payable returns (uint256) {\n        require(amount0 >= 100, \"Amount to swap cannot be lesser than 100 WEI\");\n        require(\n            pairs[token0] != address(0),\n            \"Pair does not exists, Contact admin\"\n        );\n        require(\n            pairs[token1] != address(0),\n            \"Pair does not exists, Contact admin\"\n        );\n\n        uint256 rate;\n        uint256 amount1;\n\n        uint256 _safeAmount0 = amount0;\n\n        uint poolId = _findPool(token0, token1);\n        require(pools[poolId].id > 0, \"Pool does not exists\");\n\n        if (pairs[token0] == NATIVE_PAIR) {\n            _safeAmount0 = (msg.value - tx.gasprice);\n            rate = uint256(\n                _priceApi.getExchangeRate(NATIVE_PAIR, pairs[token1])\n            );\n            amount1 = _safeAmount0 * uint256(rate);\n\n            IERC20 quoteToken = IERC20(token1);\n\n            (, uint256 poolSizeToken1) = _poolSize(poolId);\n\n            // check if contract has enough destination token liquid\n            require(poolSizeToken1 >= amount1, \"Insufficient Pool Size\");\n\n            _aggregateLiquids(amount0, amount1, poolSizeToken1, pools[poolId]);\n\n            quoteToken.transfer(msg.sender, amount1);\n        } else if (pairs[token1] == NATIVE_PAIR) {\n            rate = uint256(\n                _priceApi.getExchangeRate(pairs[token0], NATIVE_PAIR)\n            );\n            amount1 = _safeAmount0 * uint256(rate);\n\n            IERC20 baseToken = IERC20(token0);\n            baseToken.approve(address(this), _safeAmount0);\n            baseToken.transferFrom(msg.sender, address(this), _safeAmount0);\n\n            (uint256 poolSizeToken1, ) = _poolSize(poolId);\n            require(poolSizeToken1 >= amount1, \"Insufficient Pool Size\");\n\n            _aggregateLiquids(amount0, amount1, poolSizeToken1, pools[poolId]);\n\n            payable(msg.sender).transfer(amount1);\n        } else {\n            rate = uint256(\n                _priceApi.getExchangeRate(pairs[token0], pairs[token1])\n            );\n            amount1 = _safeAmount0 * uint256(rate);\n\n            IERC20 baseToken = IERC20(token0);\n            IERC20 quoteToken = IERC20(token1);\n\n            (, uint256 poolSizeToken1) = _poolSize(poolId);\n\n            // check if contract has enough destination token liquid\n            require(poolSizeToken1 >= amount1, \"Insufficient Pool Size\");\n\n            _aggregateLiquids(amount0, amount1, poolSizeToken1, pools[poolId]);\n\n            _transferSwappedTokens(\n                baseToken,\n                quoteToken,\n                amount0,\n                amount1,\n                msg.sender\n            );\n        }\n\n        // store the swap data on-chain\n        emit FleepSwaped(amount0, amount1, token0, token1, block.timestamp);\n\n        return amount1;\n    }\n\n    // === Providers === //\n\n    function createPool(address token0, address token1)\n        public\n        onlyProvider\n        returns (uint)\n    {\n        // create pool id\n        POOL_ID++;\n        // create a new pool from struct\n        Pool memory pool = pools[POOL_ID];\n        // register the pool\n        pools[POOL_ID] = Pool(POOL_ID, token0, token1, pool.liquids);\n        return POOL_ID;\n    }\n\n    function provideLiquidity(uint256 amount0, uint poolId)\n        public\n        payable\n        onlyProvider\n        returns (uint256, uint256)\n    {\n        require(amount0 >= 100, \"Amount cannot be lesser than 100 WEI\");\n\n        address token0 = pools[poolId].token0;\n        address token1 = pools[poolId].token1;\n\n        require(\n            pairs[token0] != address(0),\n            \"Pair does not exists, Contact admin\"\n        );\n        require(\n            pairs[token1] != address(0),\n            \"Pair does not exists, Contact admin\"\n        );\n\n        (bool hasLiquid, uint liquidIndex) = _liquidIndex(poolId, msg.sender);\n\n        uint256 rate;\n        uint256 amount1;\n\n        uint256 _safeAmount0 = amount0;\n\n        if (pairs[token0] == NATIVE_PAIR) {\n            // only in format of MATIC as pair subject\n            // ex MATIC/XEND\n            _safeAmount0 = (msg.value - tx.gasprice);\n\n            rate = uint256(\n                _priceApi.getExchangeRate(pairs[token0], pairs[token1])\n            );\n            amount1 = _safeAmount0 * uint256(rate);\n\n            // swap involve native token\n            IERC20 quoteToken = IERC20(token1);\n            _nativeStake(quoteToken, amount1);\n        } else {\n            rate = uint256(\n                _priceApi.getExchangeRate(pairs[token0], pairs[token1])\n            );\n            amount1 = _safeAmount0 * uint256(rate);\n\n            // both tokens are ERC20\n            IERC20 baseToken = IERC20(token0);\n            IERC20 quoteToken = IERC20(token1);\n            _stakeTokens(baseToken, quoteToken, _safeAmount0, amount1);\n        }\n\n        if (hasLiquid) {\n            // if liquid exist increment the amount\n            liquids[liquidIndex].amount0 += _safeAmount0;\n            liquids[liquidIndex].amount1 += amount1;\n        } else {\n            _createLiquid(poolId, _safeAmount0, amount1, msg.sender);\n        }\n\n        // store the liquidity data on-chain\n        emit LiquidityProvided(\n            token0,\n            token1,\n            _safeAmount0,\n            amount1,\n            msg.sender,\n            block.timestamp\n        );\n\n        return (_safeAmount0, amount1);\n    }\n\n    function removeLiquidity(uint id) public onlyProvider {}\n\n    function withDrawEarnings(uint256 amount) public onlyProvider {\n        require(\n            providers[msg.sender].balance >= amount,\n            \"Insufficient Balance\"\n        );\n        providers[msg.sender].balance -= amount;\n        payable(msg.sender).transfer(amount);\n    }\n\n    // === Administration === //\n\n    function updateNativePair(address pair) public onlyDeployer {\n        require(pair != address(0), \"Invalid Pair Address\");\n        NATIVE_PAIR = pair;\n    }\n\n    function updateSwapFee(uint fee) public onlyDeployer {\n        require(fee > 0, \"Platform fee cannot be zero\");\n        require(fee < 100, \"Platform fee cannot be a hundred\");\n        swapFee = fee;\n    }\n\n    function createPair(address token, address pair) public onlyDeployer {\n        require(token != address(0), \"Invalid Token Address\");\n        require(pair != address(0), \"Invalid Pair Address\");\n        pairs[token] = pair;\n    }\n\n    // === Internal Functions === //\n\n    function _liquidIndex(uint poolId, address provider)\n        private\n        view\n        returns (bool, uint)\n    {\n        uint position = 0;\n        bool found = false;\n\n        for (\n            uint index = 0;\n            index < providers[provider].liquids.length;\n            index++\n        ) {\n            if (providers[provider].liquids[index] == poolId) {\n                position = index;\n                found = true;\n                break;\n            }\n        }\n\n        return (found, position);\n    }\n\n    function _aggregateLiquids(\n        uint256 amount0,\n        uint256 amount1,\n        uint256 poolSizeToken1,\n        Pool memory pool\n    ) private {\n        // equally share swap impact on all provider liquids based on their contribution\n        for (uint index = 0; index < pool.liquids.length; index++) {\n            uint liquidId = pool.liquids[index];\n\n            // calculated with ratio of this liquid compared\n            // to other liquids contributing\n            uint256 additionAmount = ((liquids[liquidId].amount1 * amount0) /\n                poolSizeToken1);\n\n            // step I\n            liquids[liquidId].amount0 += additionAmount;\n\n            // calculated with ratio of this liquid compared\n            // to other liquids contributing\n            uint256 deductionAmount = ((liquids[liquidId].amount1 * amount1) /\n                poolSizeToken1);\n\n            // step II\n            liquids[liquidId].amount1 -= deductionAmount;\n        }\n    }\n\n    function _transferSwappedTokens(\n        IERC20 token0,\n        IERC20 token1,\n        uint256 amount0,\n        uint256 amount1,\n        address owner\n    ) private {\n        uint256 _fee = ((amount1 / 100) * swapFee);\n\n        // tranfers the base token from user to the\n        // smart contract\n        token0.approve(address(this), amount0);\n        token0.transferFrom(owner, address(this), amount0);\n\n        // give user their destination token minus fee\n        token1.transfer(owner, (amount1 - _fee));\n    }\n\n    function _findPool(address token0, address token1) private view returns (uint) {\n        require(token0 != address(0) && token1 != address(0), \"Invalid\");\n        for (uint index = 0; index <= POOL_ID; index++) {\n            if (\n                pools[index].token0 == token0 && pools[index].token1 == token1\n            ) {\n                return index;\n            }\n\n            if (\n                pools[index].token0 == token1 && pools[index].token1 == token0\n            ) {\n                return index;\n            }\n        }\n        return 0;\n    }\n\n    function _createLiquid(\n        uint poolId,\n        uint256 amount0,\n        uint256 amount1,\n        address provider\n    ) private {\n        // otherwise create the new liquid\n        LIQUID_ID++;\n        // create and register the liquid\n        liquids[LIQUID_ID] = Liquid(\n            LIQUID_ID,\n            poolId,\n            amount0,\n            amount1,\n            provider\n        );\n        pools[poolId].liquids.push(LIQUID_ID);\n        providers[provider].liquids.push(LIQUID_ID);\n    }\n\n    function _nativeStake(IERC20 pairedToken, uint256 pairedAmount)\n        public\n        payable\n    {\n        // stake token0 to smart contract\n        pairedToken.approve(address(this), pairedAmount);\n        pairedToken.transferFrom(msg.sender, address(this), pairedAmount);\n    }\n\n    function _stakeTokens(\n        IERC20 token0,\n        IERC20 token1,\n        uint256 amount0,\n        uint amount1\n    ) private {\n        // stake token0 to smart contract\n        token0.approve(address(this), amount0);\n        token0.transferFrom(msg.sender, address(this), amount0);\n\n        // stake token1 to smart contract\n        token1.approve(address(this), amount1);\n        token1.transferFrom(msg.sender, address(this), amount1);\n    }\n\n    function _poolSize(uint id) private view returns (uint256, uint256) {\n        uint256 amount0;\n        uint256 amount1;\n        for (uint index = 0; index < pools[id].liquids.length; index++) {\n            uint liquidId = pools[id].liquids[index];\n            amount0 += liquids[liquidId].amount0;\n            amount1 += liquids[liquidId].amount1;\n        }\n        return (amount0, amount1);\n    }\n\n    // function _distributeFees(Liquid[] memory liquids) private {}\n\n    // === Modifiers === //\n\n    modifier onlyGuest() {\n        require(providers[msg.sender].id == 0, \"Only Guest\");\n        _;\n    }\n\n    modifier onlyProvider() {\n        require(providers[msg.sender].id != 0, \"Only Provider\");\n        _;\n    }\n\n    modifier onlyDeployer() {\n        require(msg.sender == _deployer, \"Only Deployer\");\n        _;\n    }\n}\n",
  "sourcePath": "C:\\Users\\Arogundade Ibrahim\\Documents\\web3\\fleep\\contracts\\FleepSwap.sol",
  "compiler": {
    "name": "solc",
    "version": "0.8.16+commit.07a7930e.Emscripten.clang"
  },
  "schemaVersion": "3.4.10",
  "updatedAt": "2022-11-24T10:57:12.019Z",
  "devdoc": {
    "kind": "dev",
    "methods": {},
    "version": 1
  },
  "userdoc": {
    "kind": "user",
    "methods": {},
    "version": 1
  }
}