{
  "contractName": "FleepSwap",
  "abi": [
    {
      "inputs": [
        {
          "internalType": "address",
          "name": "priceApI",
          "type": "address"
        }
      ],
      "stateMutability": "nonpayable",
      "type": "constructor"
    },
    {
      "anonymous": false,
      "inputs": [
        {
          "indexed": false,
          "internalType": "uint256",
          "name": "amount",
          "type": "uint256"
        },
        {
          "indexed": false,
          "internalType": "uint256",
          "name": "amountOut",
          "type": "uint256"
        },
        {
          "indexed": false,
          "internalType": "address",
          "name": "from",
          "type": "address"
        },
        {
          "indexed": false,
          "internalType": "address",
          "name": "to",
          "type": "address"
        },
        {
          "indexed": false,
          "internalType": "uint256",
          "name": "timestamp",
          "type": "uint256"
        }
      ],
      "name": "FleepSwaped",
      "type": "event"
    },
    {
      "anonymous": false,
      "inputs": [
        {
          "indexed": false,
          "internalType": "address",
          "name": "token0",
          "type": "address"
        },
        {
          "indexed": false,
          "internalType": "address",
          "name": "token1",
          "type": "address"
        },
        {
          "indexed": false,
          "internalType": "uint256",
          "name": "amount0",
          "type": "uint256"
        },
        {
          "indexed": false,
          "internalType": "uint256",
          "name": "amount1",
          "type": "uint256"
        },
        {
          "indexed": false,
          "internalType": "address",
          "name": "provider",
          "type": "address"
        },
        {
          "indexed": false,
          "internalType": "uint256",
          "name": "timestamp",
          "type": "uint256"
        }
      ],
      "name": "LiquidityProvided",
      "type": "event"
    },
    {
      "anonymous": false,
      "inputs": [
        {
          "indexed": false,
          "internalType": "address",
          "name": "token0",
          "type": "address"
        },
        {
          "indexed": false,
          "internalType": "address",
          "name": "token1",
          "type": "address"
        },
        {
          "indexed": false,
          "internalType": "uint256",
          "name": "amount0",
          "type": "uint256"
        },
        {
          "indexed": false,
          "internalType": "uint256",
          "name": "amount1",
          "type": "uint256"
        },
        {
          "indexed": false,
          "internalType": "address",
          "name": "provider",
          "type": "address"
        }
      ],
      "name": "LiquidityRemoved",
      "type": "event"
    },
    {
      "inputs": [],
      "name": "NATIVE_PAIR",
      "outputs": [
        {
          "internalType": "address",
          "name": "",
          "type": "address"
        }
      ],
      "stateMutability": "view",
      "type": "function"
    },
    {
      "inputs": [
        {
          "internalType": "uint256",
          "name": "",
          "type": "uint256"
        }
      ],
      "name": "liquids",
      "outputs": [
        {
          "internalType": "uint256",
          "name": "id",
          "type": "uint256"
        },
        {
          "internalType": "uint256",
          "name": "poolId",
          "type": "uint256"
        },
        {
          "internalType": "uint256",
          "name": "amount0",
          "type": "uint256"
        },
        {
          "internalType": "uint256",
          "name": "amount1",
          "type": "uint256"
        },
        {
          "internalType": "address",
          "name": "provider",
          "type": "address"
        }
      ],
      "stateMutability": "view",
      "type": "function"
    },
    {
      "inputs": [
        {
          "internalType": "address",
          "name": "",
          "type": "address"
        }
      ],
      "name": "pairs",
      "outputs": [
        {
          "internalType": "address",
          "name": "",
          "type": "address"
        }
      ],
      "stateMutability": "view",
      "type": "function"
    },
    {
      "inputs": [
        {
          "internalType": "uint256",
          "name": "",
          "type": "uint256"
        }
      ],
      "name": "pools",
      "outputs": [
        {
          "internalType": "uint256",
          "name": "id",
          "type": "uint256"
        },
        {
          "internalType": "address",
          "name": "token0",
          "type": "address"
        },
        {
          "internalType": "address",
          "name": "token1",
          "type": "address"
        }
      ],
      "stateMutability": "view",
      "type": "function"
    },
    {
      "inputs": [
        {
          "internalType": "address",
          "name": "",
          "type": "address"
        }
      ],
      "name": "providers",
      "outputs": [
        {
          "internalType": "uint256",
          "name": "id",
          "type": "uint256"
        }
      ],
      "stateMutability": "view",
      "type": "function"
    },
    {
      "inputs": [
        {
          "internalType": "address",
          "name": "base",
          "type": "address"
        },
        {
          "internalType": "address",
          "name": "quote",
          "type": "address"
        }
      ],
      "name": "getRate",
      "outputs": [
        {
          "internalType": "int256",
          "name": "",
          "type": "int256"
        }
      ],
      "stateMutability": "view",
      "type": "function"
    },
    {
      "inputs": [
        {
          "internalType": "address",
          "name": "token0",
          "type": "address"
        },
        {
          "internalType": "address",
          "name": "token1",
          "type": "address"
        },
        {
          "internalType": "uint256",
          "name": "amount0",
          "type": "uint256"
        },
        {
          "internalType": "uint256",
          "name": "poolId",
          "type": "uint256"
        },
        {
          "internalType": "int256",
          "name": "uiExchangeRate",
          "type": "int256"
        }
      ],
      "name": "swap",
      "outputs": [
        {
          "internalType": "uint256",
          "name": "",
          "type": "uint256"
        }
      ],
      "stateMutability": "nonpayable",
      "type": "function"
    },
    {
      "inputs": [
        {
          "internalType": "uint256",
          "name": "amount0",
          "type": "uint256"
        },
        {
          "internalType": "uint256",
          "name": "poolId",
          "type": "uint256"
        }
      ],
      "name": "provideLiquidity",
      "outputs": [
        {
          "internalType": "uint256",
          "name": "",
          "type": "uint256"
        },
        {
          "internalType": "uint256",
          "name": "",
          "type": "uint256"
        }
      ],
      "stateMutability": "payable",
      "type": "function"
    },
    {
      "inputs": [
        {
          "internalType": "address",
          "name": "token0",
          "type": "address"
        },
        {
          "internalType": "address",
          "name": "token1",
          "type": "address"
        }
      ],
      "name": "createPool",
      "outputs": [
        {
          "internalType": "uint256",
          "name": "",
          "type": "uint256"
        }
      ],
      "stateMutability": "nonpayable",
      "type": "function"
    },
    {
      "inputs": [
        {
          "internalType": "address",
          "name": "token0",
          "type": "address"
        },
        {
          "internalType": "address",
          "name": "token1",
          "type": "address"
        },
        {
          "internalType": "uint256",
          "name": "amount0",
          "type": "uint256"
        }
      ],
      "name": "estimate",
      "outputs": [
        {
          "internalType": "uint256",
          "name": "",
          "type": "uint256"
        }
      ],
      "stateMutability": "view",
      "type": "function"
    },
    {
      "inputs": [],
      "name": "getNativePair",
      "outputs": [
        {
          "internalType": "address",
          "name": "",
          "type": "address"
        }
      ],
      "stateMutability": "view",
      "type": "function"
    },
    {
      "inputs": [
        {
          "internalType": "contract IERC20",
          "name": "pairedToken",
          "type": "address"
        },
        {
          "internalType": "uint256",
          "name": "pairedAmount",
          "type": "uint256"
        }
      ],
      "name": "_nativeStake",
      "outputs": [],
      "stateMutability": "payable",
      "type": "function"
    },
    {
      "inputs": [
        {
          "internalType": "address",
          "name": "pair",
          "type": "address"
        }
      ],
      "name": "updateNativePair",
      "outputs": [],
      "stateMutability": "nonpayable",
      "type": "function"
    },
    {
      "inputs": [
        {
          "internalType": "uint256",
          "name": "fee",
          "type": "uint256"
        }
      ],
      "name": "updateSwapFee",
      "outputs": [],
      "stateMutability": "nonpayable",
      "type": "function"
    },
    {
      "inputs": [
        {
          "internalType": "address",
          "name": "token",
          "type": "address"
        },
        {
          "internalType": "address",
          "name": "pair",
          "type": "address"
        }
      ],
      "name": "createPair",
      "outputs": [],
      "stateMutability": "nonpayable",
      "type": "function"
    }
  ],
  "bytecode": "0x6080604052600160025534801561001557600080fd5b50604051611c65380380611c6583398101604081905261003491610062565b600080546001600160a01b039092166001600160a01b03199283161790556001805490911633179055610092565b60006020828403121561007457600080fd5b81516001600160a01b038116811461008b57600080fd5b9392505050565b611bc4806100a16000396000f3fe6080604052600436106100e85760003560e01c806391e5f37f1161008a578063c9c6539611610059578063c9c65396146102cd578063e3433615146102ed578063eebb63ed1461030d578063fe33b3021461039157600080fd5b806391e5f37f1461020b57806397d07b221461022d578063ac4afa3814610240578063bf16f65a146102ad57600080fd5b8063379b87ea116100c6578063379b87ea146101855780637a16af7f146101a55780637e5fd4bf146101cd5780638a2627f0146101ed57600080fd5b80630787bc27146100ed578063102a5f911461012d578063344bfb591461014d575b600080fd5b3480156100f957600080fd5b5061011a610108366004611951565b60096020526000908152604090205481565b6040519081526020015b60405180910390f35b34801561013957600080fd5b5061011a610148366004611975565b6103c7565b34801561015957600080fd5b5060075461016d906001600160a01b031681565b6040516001600160a01b039091168152602001610124565b34801561019157600080fd5b5061011a6101a03660046119b6565b61046e565b6101b86101b33660046119ef565b6104ee565b60408051928352602083019190915201610124565b3480156101d957600080fd5b5061011a6101e8366004611a11565b6108dd565b3480156101f957600080fd5b506007546001600160a01b031661016d565b34801561021757600080fd5b5061022b610226366004611951565b610da0565b005b61022b61023b366004611a62565b610e6f565b34801561024c57600080fd5b5061028861025b366004611a8e565b60086020526000908152604090208054600182015460029092015490916001600160a01b03908116911683565b604080519384526001600160a01b039283166020850152911690820152606001610124565b3480156102b957600080fd5b5061022b6102c8366004611a8e565b610f5d565b3480156102d957600080fd5b5061022b6102e83660046119b6565b61104c565b3480156102f957600080fd5b5061011a6103083660046119b6565b61117d565b34801561031957600080fd5b50610360610328366004611a8e565b600a6020526000908152604090208054600182015460028301546003840154600490940154929391929091906001600160a01b031685565b6040805195865260208601949094529284019190915260608301526001600160a01b0316608082015260a001610124565b34801561039d57600080fd5b5061016d6103ac366004611951565b6006602052600090815260409020546001600160a01b031681565b600080546001600160a01b03858116835260066020526040808420548683168552818520549151635d5530df60e11b8152908316600482015290821660248201528392919091169063baaa61be90604401602060405180830381865afa158015610435573d6000803e3d6000fd5b505050506040513d601f19601f820116820180604052508101906104599190611aa7565b90506104658184611ad6565b95945050505050565b60008054604051635d5530df60e11b81526001600160a01b03858116600483015284811660248301529091169063baaa61be90604401602060405180830381865afa1580156104c1573d6000803e3d6000fd5b505050506040513d601f19601f820116820180604052508101906104e59190611aa7565b90505b92915050565b6000806064841161056b5760405162461bcd60e51b8152602060048201526024808201527f416d6f756e742063616e6e6f74206265206c6573736572207468616e2031303060448201527f205745490000000000000000000000000000000000000000000000000000000060648201526084015b60405180910390fd5b600083815260086020908152604080832060018101546002909101546001600160a01b0391821680865260069094529190932054919290811691166105fe5760405162461bcd60e51b815260206004820152602360248201527f5061697220646f6573206e6f74206578697374732c20436f6e7461637420616460448201526236b4b760e91b6064820152608401610562565b6001600160a01b03818116600090815260066020526040902054166106715760405162461bcd60e51b815260206004820152602360248201527f5061697220646f6573206e6f74206578697374732c20436f6e7461637420616460448201526236b4b760e91b6064820152608401610562565b60008061067e87336112d9565b6007546001600160a01b03878116600090815260066020526040812054949650929450919283928c9281169116036107605750600080546001600160a01b0388811683526006602052604080842054898316855293819020549051635d5530df60e11b8152938216600485015281166024840152349291169063baaa61be90604401602060405180830381865afa15801561071d573d6000803e3d6000fd5b505050506040513d601f19601f820116820180604052508101906107419190611aa7565b925061074d8382611ad6565b91508561075a8184610e6f565b5061080c565b600080546001600160a01b03898116835260066020526040808420548a8316855293819020549051635d5530df60e11b8152938216600485015281166024840152169063baaa61be90604401602060405180830381865afa1580156107c9573d6000803e3d6000fd5b505050506040513d601f19601f820116820180604052508101906107ed9190611aa7565b92506107f98382611ad6565b915086866108098282858761136e565b50505b8415610864576000848152600a602052604081206002018054839290610833908490611af5565b90915550506000848152600a602052604081206003018054849290610859908490611af5565b909155506108709050565b6108708a828433611548565b604080516001600160a01b03808a16825288166020820152908101829052606081018390523360808201524260a08201527fac838223c8dc8d877bcd4b6592254fdaf05f64d3da40ab54c09765d221073c1c9060c00160405180910390a19a909950975050505050505050565b6000606484106109555760405162461bcd60e51b815260206004820152602c60248201527f416d6f756e7420746f20737761702063616e6e6f74206265206c65737365722060448201527f7468616e203130302057454900000000000000000000000000000000000000006064820152608401610562565b6001600160a01b03868116600090815260066020526040902054166109c85760405162461bcd60e51b815260206004820152602360248201527f5061697220646f6573206e6f74206578697374732c20436f6e7461637420616460448201526236b4b760e91b6064820152608401610562565b6001600160a01b0385811660009081526006602052604090205416610a3b5760405162461bcd60e51b815260206004820152602360248201527f5061697220646f6573206e6f74206578697374732c20436f6e7461637420616460448201526236b4b760e91b6064820152608401610562565b600080546001600160a01b03888116835260066020526040808420548983168552818520549151635d5530df60e11b81529083166004820152908216602482015291169063baaa61be90604401602060405180830381865afa158015610aa5573d6000803e3d6000fd5b505050506040513d601f19601f82011682018060405250810190610ac99190611aa7565b90506000831315610b4957828114610b495760405162461bcd60e51b815260206004820152602e60248201527f45786368616e6765207261746520686173206368616e67656420636f6d70617260448201527f6520746f206c617374207365656e0000000000000000000000000000000000006064820152608401610562565b6000610b558287611ad6565b600086815260086020526040902054909150610bb35760405162461bcd60e51b815260206004820152601460248201527f506f6f6c20646f6573206e6f74206578697374730000000000000000000000006044820152606401610562565b6040517f70a08231000000000000000000000000000000000000000000000000000000008152306004820152889088906000906001600160a01b038316906370a0823190602401602060405180830381865afa158015610c17573d6000803e3d6000fd5b505050506040513d601f19601f82011682018060405250810190610c3b9190611aa7565b905083811015610c8d5760405162461bcd60e51b815260206004820152601660248201527f496e73756666696369656e7420506f6f6c2053697a65000000000000000000006044820152606401610562565b60008881526008602090815260409182902082516080810184528154815260018201546001600160a01b039081168285015260028301541681850152600382018054855181860281018601909652808652610d2e958f958b958995949093606086019392830182828015610d2057602002820191906000526020600020905b815481526020019060010190808311610d0c575b505050505081525050611629565b610d3b83838b8733611725565b604080518a8152602081018690526001600160a01b038d8116828401528c16606082015242608082015290517f649451cb6bd28801e8992e83f834233301eb39b64a665a45b1e08d3e13ff679a9181900360a00190a150919998505050505050505050565b6001546001600160a01b03163314610dea5760405162461bcd60e51b815260206004820152600d60248201526c27b7363c902232b83637bcb2b960991b6044820152606401610562565b6001600160a01b038116610e405760405162461bcd60e51b815260206004820152601460248201527f496e76616c6964205061697220416464726573730000000000000000000000006044820152606401610562565b6007805473ffffffffffffffffffffffffffffffffffffffff19166001600160a01b0392909216919091179055565b60405163095ea7b360e01b8152306004820152602481018290526001600160a01b0383169063095ea7b3906044016020604051808303816000875af1158015610ebc573d6000803e3d6000fd5b505050506040513d601f19601f82011682018060405250810190610ee09190611b08565b506040516323b872dd60e01b8152336004820152306024820152604481018290526001600160a01b038316906323b872dd906064016020604051808303816000875af1158015610f34573d6000803e3d6000fd5b505050506040513d601f19601f82011682018060405250810190610f589190611b08565b505050565b6001546001600160a01b03163314610fa75760405162461bcd60e51b815260206004820152600d60248201526c27b7363c902232b83637bcb2b960991b6044820152606401610562565b60008111610ff75760405162461bcd60e51b815260206004820152601b60248201527f506c6174666f726d206665652063616e6e6f74206265207a65726f00000000006044820152606401610562565b606481106110475760405162461bcd60e51b815260206004820181905260248201527f506c6174666f726d206665652063616e6e6f7420626520612068756e647265646044820152606401610562565b600255565b6001546001600160a01b031633146110965760405162461bcd60e51b815260206004820152600d60248201526c27b7363c902232b83637bcb2b960991b6044820152606401610562565b6001600160a01b0382166110ec5760405162461bcd60e51b815260206004820152601560248201527f496e76616c696420546f6b656e204164647265737300000000000000000000006044820152606401610562565b6001600160a01b0381166111425760405162461bcd60e51b815260206004820152601a60248201527f496e76616c69642041676772656761746f7220416464726573730000000000006044820152606401610562565b6001600160a01b039182166000908152600660205260409020805473ffffffffffffffffffffffffffffffffffffffff191691909216179055565b600380546000918261118e83611b2a565b909155505060038054600090815260086020908152604080832081516080810183528154815260018201546001600160a01b039081168286015260028301541681840152948101805483518186028101860190945280845294959491936060860193929083018282801561122157602002820191906000526020600020905b81548152602001906001019080831161120d575b50505091909252505060408051608081018252600380548083526001600160a01b03808b1660208086019182528b83168688019081526060808b01519088019081526000958652600883529790942086518155915160018301805491851673ffffffffffffffffffffffffffffffffffffffff199283161790559351600283018054919094169416939093179091559351805196975092959394506112cb939185019201906118d9565b505060035495945050505050565b60008060008060005b6001600160a01b038616600090815260096020526040902060010154811015611363576001600160a01b038616600090815260096020526040902060010180548891908390811061133557611335611b43565b9060005260206000200154036113515780925060019150611363565b8061135b81611b2a565b9150506112e2565b509590945092505050565b60405163095ea7b360e01b8152306004820152602481018390526001600160a01b0385169063095ea7b3906044016020604051808303816000875af11580156113bb573d6000803e3d6000fd5b505050506040513d601f19601f820116820180604052508101906113df9190611b08565b506040516323b872dd60e01b8152336004820152306024820152604481018390526001600160a01b038516906323b872dd906064016020604051808303816000875af1158015611433573d6000803e3d6000fd5b505050506040513d601f19601f820116820180604052508101906114579190611b08565b5060405163095ea7b360e01b8152306004820152602481018290526001600160a01b0384169063095ea7b3906044016020604051808303816000875af11580156114a5573d6000803e3d6000fd5b505050506040513d601f19601f820116820180604052508101906114c99190611b08565b506040516323b872dd60e01b8152336004820152306024820152604481018290526001600160a01b038416906323b872dd906064016020604051808303816000875af115801561151d573d6000803e3d6000fd5b505050506040513d601f19601f820116820180604052508101906115419190611b08565b5050505050565b6004805490600061155883611b2a565b90915550506040805160a081018252600480548083526020808401898152848601988952606085019788526001600160a01b03968716608086018181526000948552600a84528785209651875591516001808801919091559951600287015597516003808701919091559051948401805473ffffffffffffffffffffffffffffffffffffffff19169590971694909417909555968752600884528287208154920180548088018255908852848820019190915592855260098252842091549183018054938401815584529092200155565b60005b8160600151518110156115415760008260600151828151811061165157611651611b43565b6020026020010151905060008487600a6000858152602001908152602001600020600301546116809190611ad6565b61168a9190611b59565b905080600a600084815260200190815260200160002060020160008282546116b29190611af5565b90915550506000828152600a602052604081206003015486906116d6908990611ad6565b6116e09190611b59565b905080600a600085815260200190815260200160002060030160008282546117089190611b7b565b92505081905550505050808061171d90611b2a565b91505061162c565b600254600090611736606485611b59565b6117409190611ad6565b60405163095ea7b360e01b8152306004820152602481018690529091506001600160a01b0387169063095ea7b3906044016020604051808303816000875af1158015611790573d6000803e3d6000fd5b505050506040513d601f19601f820116820180604052508101906117b49190611b08565b506040516323b872dd60e01b81526001600160a01b038381166004830152306024830152604482018690528716906323b872dd906064016020604051808303816000875af115801561180a573d6000803e3d6000fd5b505050506040513d601f19601f8201168201806040525081019061182e9190611b08565b506001600160a01b03851663a9059cbb836118498487611b7b565b6040517fffffffff0000000000000000000000000000000000000000000000000000000060e085901b1681526001600160a01b03909216600483015260248201526044016020604051808303816000875af11580156118ac573d6000803e3d6000fd5b505050506040513d601f19601f820116820180604052508101906118d09190611b08565b50505050505050565b828054828255906000526020600020908101928215611914579160200282015b828111156119145782518255916020019190600101906118f9565b50611920929150611924565b5090565b5b808211156119205760008155600101611925565b6001600160a01b038116811461194e57600080fd5b50565b60006020828403121561196357600080fd5b813561196e81611939565b9392505050565b60008060006060848603121561198a57600080fd5b833561199581611939565b925060208401356119a581611939565b929592945050506040919091013590565b600080604083850312156119c957600080fd5b82356119d481611939565b915060208301356119e481611939565b809150509250929050565b60008060408385031215611a0257600080fd5b50508035926020909101359150565b600080600080600060a08688031215611a2957600080fd5b8535611a3481611939565b94506020860135611a4481611939565b94979496505050506040830135926060810135926080909101359150565b60008060408385031215611a7557600080fd5b8235611a8081611939565b946020939093013593505050565b600060208284031215611aa057600080fd5b5035919050565b600060208284031215611ab957600080fd5b5051919050565b634e487b7160e01b600052601160045260246000fd5b6000816000190483118215151615611af057611af0611ac0565b500290565b808201808211156104e8576104e8611ac0565b600060208284031215611b1a57600080fd5b8151801515811461196e57600080fd5b600060018201611b3c57611b3c611ac0565b5060010190565b634e487b7160e01b600052603260045260246000fd5b600082611b7657634e487b7160e01b600052601260045260246000fd5b500490565b818103818111156104e8576104e8611ac056fea26469706673582212206e5c5a8b34a8c77ec74082d70370e2295d2321a6dfe2f49f72a390ad8b65180864736f6c63430008100033",
  "immutableReferences": {},
  "source": "// SPDX-License-Identifier: GPL-3.0\npragma solidity >=0.7.0 <0.9.0;\n\nimport {PriceApi} from \"./PriceApi.sol\";\nimport {IERC20} from \"@openzeppelin/contracts/token/ERC20/IERC20.sol\";\n\ncontract FleepSwap {\n    PriceApi private _priceApi;\n\n    // contract admin\n    address private _deployer;\n\n    // charges 1% fee on every successful swaps\n    uint private swapFee = 1;\n\n    // ids to avoid conflicts\n    uint256 private POOL_ID;\n    uint256 private LIQUID_ID;\n    uint256 private PROVIDER_ID;\n\n    // token contract address => chainlink aggregrator address\n    // only in the token paired to USD format\n    mapping(address => address) public pairs;\n\n    // is a member of the pairs mapping\n    // but its the native pair MATIC not ERC20\n    address public NATIVE_PAIR;\n\n    // id => liquidity pools\n    mapping(uint => Pool) public pools;\n    // user address => provider data\n    mapping(address => Provider) public providers;\n    // id => liquids\n    mapping(uint => Liquid) public liquids;\n\n    // === Events === //\n\n    event LiquidityProvided(\n        address token0,\n        address token1,\n        uint256 amount0,\n        uint256 amount1,\n        address provider,\n        uint timestamp\n    );\n\n    event LiquidityRemoved(\n        address token0,\n        address token1,\n        uint256 amount0,\n        uint256 amount1,\n        address provider\n    );\n\n    event FleepSwaped(\n        uint256 amount,\n        uint256 amountOut,\n        address from,\n        address to,\n        uint timestamp\n    );\n\n    // === Structs === //\n\n    struct Pool {\n        uint id;\n        address token0;\n        address token1;\n        uint[] liquids;\n    }\n\n    struct Liquid {\n        uint id;\n        uint poolId;\n        uint256 amount0;\n        uint256 amount1;\n        address provider;\n    }\n\n    struct Provider {\n        uint id;\n        uint[] liquids;\n    }\n\n    //  check the price of BNB/SUSHI\n    constructor(address priceApI) {\n        _priceApi = PriceApi(priceApI);\n        _deployer = msg.sender;\n    }\n\n    // gets the exchanges rates for pair of tokens\n    // useful for user knowing the price of swap\n    // before the actually perform a swap\n    function getRate(address base, address quote) public view returns (int256) {\n        return _priceApi.getExchangeRate(base, quote);\n    }\n\n    function swap(\n        address token0,\n        address token1,\n        uint256 amount0,\n        uint poolId,\n        int256 uiExchangeRate\n    ) public returns (uint256) {\n        require(amount0 < 100, \"Amount to swap cannot be lesser than 100 WEI\");\n        require(\n            pairs[token0] != address(0),\n            \"Pair does not exists, Contact admin\"\n        );\n        require(\n            pairs[token1] != address(0),\n            \"Pair does not exists, Contact admin\"\n        );\n\n        int256 rate = _priceApi.getExchangeRate(pairs[token0], pairs[token1]);\n\n        // ingore user interface validation by setting uiExchangeRate to zero\n        if (uiExchangeRate > 0) {\n            // confirms the user interface is aware of the latest price\n            require(\n                rate == uiExchangeRate,\n                \"Exchange rate has changed compare to last seen\"\n            );\n        }\n\n        uint256 amount1 = amount0 * uint256(rate);\n\n        require(pools[poolId].id > 0, \"Pool does not exists\");\n\n        IERC20 baseToken = IERC20(token0);\n        IERC20 quoteToken = IERC20(token1);\n\n        uint256 _balanceOfToken1 = quoteToken.balanceOf(address(this));\n\n        // check if contract has enough destination token liquid\n        require(_balanceOfToken1 >= amount1, \"Insufficient Pool Size\");\n\n        _aggregateLiquids(amount0, amount1, _balanceOfToken1, pools[poolId]);\n\n        _transferSwappedTokens(\n            baseToken,\n            quoteToken,\n            amount0,\n            amount1,\n            msg.sender\n        );\n\n        // store the swap data on-chain\n        emit FleepSwaped(amount0, amount1, token0, token1, block.timestamp);\n\n        return amount1;\n    }\n\n    function provideLiquidity(uint256 amount0, uint poolId)\n        public\n        payable\n        returns (uint256, uint256)\n    {\n        require(amount0 > 100, \"Amount cannot be lesser than 100 WEI\");\n\n        address token0 = pools[poolId].token0;\n        address token1 = pools[poolId].token1;\n\n        require(\n            pairs[token0] != address(0),\n            \"Pair does not exists, Contact admin\"\n        );\n        require(\n            pairs[token1] != address(0),\n            \"Pair does not exists, Contact admin\"\n        );\n\n        (bool hasLiquid, uint liquidIndex) = _liquidIndex(poolId, msg.sender);\n\n        uint256 rate;\n        uint256 amount1;\n\n        uint256 _safeAmount0 = amount0;\n\n        if (pairs[token0] == NATIVE_PAIR) {\n            // only in format of MATIC as pair subject\n            // ex MATIC/XEND\n            _safeAmount0 = msg.value;\n\n            rate = uint256(_priceApi.getExchangeRate(pairs[token0], pairs[token1]));\n            amount1 = _safeAmount0 * uint256(rate);\n\n            // swap involve native token\n            IERC20 quoteToken = IERC20(token1);\n            _nativeStake(quoteToken, amount1);\n        } else {\n            rate = uint256(_priceApi.getExchangeRate(pairs[token0], pairs[token1]));\n            amount1 = _safeAmount0 * uint256(rate);\n\n            // both tokens are ERC20\n            IERC20 baseToken = IERC20(token0);\n            IERC20 quoteToken = IERC20(token1);\n            _stakeTokens(baseToken, quoteToken, _safeAmount0, amount1);\n        }\n\n        if (hasLiquid) {\n            // if liquid exist increment the amount\n            liquids[liquidIndex].amount0 += _safeAmount0;\n            liquids[liquidIndex].amount1 += amount1;\n        } else {\n            _createLiquid(poolId, _safeAmount0, amount1, msg.sender);\n        }\n\n        // store the liquidity data on-chain\n        emit LiquidityProvided(\n            token0,\n            token1,\n            _safeAmount0,\n            amount1,\n            msg.sender,\n            block.timestamp\n        );\n\n        return (_safeAmount0, amount1);\n    }\n\n    function createPool(address token0, address token1) public returns (uint) {\n        // create pool id\n        POOL_ID++;\n        // create a new pool from struct\n        Pool memory pool = pools[POOL_ID];\n        // register the pool\n        pools[POOL_ID] = Pool(POOL_ID, token0, token1, pool.liquids);\n\n        return (POOL_ID);\n    }\n\n    function estimate(\n        address token0,\n        address token1,\n        uint256 amount0\n    ) public view returns (uint256) {\n        int256 rate = _priceApi.getExchangeRate(pairs[token0], pairs[token1]);\n        return amount0 * uint256(rate);\n    }\n\n    function getNativePair() public view returns (address) {\n        return NATIVE_PAIR;\n    }\n\n    // === Helpers === //\n\n    function _liquidIndex(uint poolId, address provider)\n        private\n        view\n        returns (bool, uint)\n    {\n        uint position = 0;\n        bool found = false;\n\n        for (\n            uint index = 0;\n            index < providers[provider].liquids.length;\n            index++\n        ) {\n            if (providers[provider].liquids[index] == poolId) {\n                position = index;\n                found = true;\n                break;\n            }\n        }\n\n        return (found, position);\n    }\n\n    function _aggregateLiquids(\n        uint256 amount0,\n        uint256 amount1,\n        uint256 _balanceOfToken1,\n        Pool memory pool\n    ) private {\n        // equally share swap impact on all provider liquids based on their contribution\n        for (uint index = 0; index < pool.liquids.length; index++) {\n            uint liquidId = pool.liquids[index];\n\n            // calculated with ratio of this liquid compared\n            // to other liquids contributing\n            uint256 additionAmount = ((liquids[liquidId].amount1 * amount0) /\n                _balanceOfToken1);\n\n            // step I\n            liquids[liquidId].amount0 += additionAmount;\n\n            // calculated with ratio of this liquid compared\n            // to other liquids contributing\n            uint256 deductionAmount = ((liquids[liquidId].amount1 * amount1) /\n                _balanceOfToken1);\n\n            // step II\n            liquids[liquidId].amount1 -= deductionAmount;\n        }\n    }\n\n    function _transferSwappedTokens(\n        IERC20 token0,\n        IERC20 token1,\n        uint256 amount0,\n        uint256 amount1,\n        address owner\n    ) private {\n        uint256 _fee = ((amount1 / 100) * swapFee);\n\n        // tranfers the base token from user to the\n        // smart contract\n        token0.approve(address(this), amount0);\n        token0.transferFrom(owner, address(this), amount0);\n\n        // give user their destination token minus fee\n        token1.transfer(owner, (amount1 - _fee));\n    }\n\n    function _createLiquid(\n        uint poolId,\n        uint256 amount0,\n        uint256 amount1,\n        address provider\n    ) private {\n        // otherwise create the new liquid\n        LIQUID_ID++;\n        // create and register the liquid\n        liquids[LIQUID_ID] = Liquid(\n            LIQUID_ID,\n            poolId,\n            amount0,\n            amount1,\n            provider\n        );\n        pools[poolId].liquids.push(LIQUID_ID);\n        providers[provider].liquids.push(LIQUID_ID);\n    }\n\n    function _nativeStake(IERC20 pairedToken, uint256 pairedAmount)\n        public\n        payable\n    {\n        // stake token0 to smart contract\n        pairedToken.approve(address(this), pairedAmount);\n        pairedToken.transferFrom(msg.sender, address(this), pairedAmount);\n    }\n\n    function _stakeTokens(\n        IERC20 token0,\n        IERC20 token1,\n        uint256 amount0,\n        uint amount1\n    ) private {\n        // stake token0 to smart contract\n        token0.approve(address(this), amount0);\n        token0.transferFrom(msg.sender, address(this), amount0);\n\n        // stake token1 to smart contract\n        token1.approve(address(this), amount1);\n        token1.transferFrom(msg.sender, address(this), amount1);\n    }\n\n    // === Administration === //\n\n    function updateNativePair(address pair) public onlyDeployer {\n        require(pair != address(0), \"Invalid Pair Address\");\n        NATIVE_PAIR = pair;\n    }\n\n    function updateSwapFee(uint fee) public onlyDeployer {\n        require(fee > 0, \"Platform fee cannot be zero\");\n        require(fee < 100, \"Platform fee cannot be a hundred\");\n        swapFee = fee;\n    }\n\n    function createPair(address token, address pair) public onlyDeployer {\n        require(token != address(0), \"Invalid Token Address\");\n        require(pair != address(0), \"Invalid Aggregator Address\");\n        pairs[token] = pair;\n    }\n\n    // === Modifiers === //\n\n    modifier onlyDeployer() {\n        require(msg.sender == _deployer, \"Only Deployer\");\n        _;\n    }\n}\n",
  "sourcePath": "C:\\Users\\Arogundade Ibrahim\\Documents\\web3\\fleep\\contracts\\FleepSwap.sol",
  "compiler": {
    "name": "solc",
    "version": "0.8.16+commit.07a7930e.Emscripten.clang"
  },
  "schemaVersion": "3.4.10",
  "updatedAt": "2022-11-21T18:43:45.640Z",
  "devdoc": {
    "kind": "dev",
    "methods": {},
    "version": 1
  },
  "userdoc": {
    "kind": "user",
    "methods": {},
    "version": 1
  }
}