{
  "contractName": "FleepToken",
  "abi": [
    {
      "inputs": [],
      "stateMutability": "nonpayable",
      "type": "constructor"
    },
    {
      "anonymous": false,
      "inputs": [
        {
          "indexed": true,
          "internalType": "address",
          "name": "owner",
          "type": "address"
        },
        {
          "indexed": true,
          "internalType": "address",
          "name": "spender",
          "type": "address"
        },
        {
          "indexed": false,
          "internalType": "uint256",
          "name": "value",
          "type": "uint256"
        }
      ],
      "name": "Approval",
      "type": "event"
    },
    {
      "anonymous": false,
      "inputs": [
        {
          "indexed": true,
          "internalType": "address",
          "name": "from",
          "type": "address"
        },
        {
          "indexed": true,
          "internalType": "address",
          "name": "to",
          "type": "address"
        },
        {
          "indexed": false,
          "internalType": "uint256",
          "name": "value",
          "type": "uint256"
        }
      ],
      "name": "Transfer",
      "type": "event"
    },
    {
      "inputs": [
        {
          "internalType": "address",
          "name": "",
          "type": "address"
        }
      ],
      "name": "allocations",
      "outputs": [
        {
          "internalType": "uint256",
          "name": "",
          "type": "uint256"
        }
      ],
      "stateMutability": "view",
      "type": "function",
      "constant": true
    },
    {
      "inputs": [
        {
          "internalType": "address",
          "name": "owner",
          "type": "address"
        },
        {
          "internalType": "address",
          "name": "spender",
          "type": "address"
        }
      ],
      "name": "allowance",
      "outputs": [
        {
          "internalType": "uint256",
          "name": "",
          "type": "uint256"
        }
      ],
      "stateMutability": "view",
      "type": "function",
      "constant": true
    },
    {
      "inputs": [
        {
          "internalType": "address",
          "name": "spender",
          "type": "address"
        },
        {
          "internalType": "uint256",
          "name": "amount",
          "type": "uint256"
        }
      ],
      "name": "approve",
      "outputs": [
        {
          "internalType": "bool",
          "name": "",
          "type": "bool"
        }
      ],
      "stateMutability": "nonpayable",
      "type": "function"
    },
    {
      "inputs": [
        {
          "internalType": "address",
          "name": "account",
          "type": "address"
        }
      ],
      "name": "balanceOf",
      "outputs": [
        {
          "internalType": "uint256",
          "name": "",
          "type": "uint256"
        }
      ],
      "stateMutability": "view",
      "type": "function",
      "constant": true
    },
    {
      "inputs": [],
      "name": "decimals",
      "outputs": [
        {
          "internalType": "uint8",
          "name": "",
          "type": "uint8"
        }
      ],
      "stateMutability": "view",
      "type": "function",
      "constant": true
    },
    {
      "inputs": [
        {
          "internalType": "address",
          "name": "spender",
          "type": "address"
        },
        {
          "internalType": "uint256",
          "name": "subtractedValue",
          "type": "uint256"
        }
      ],
      "name": "decreaseAllowance",
      "outputs": [
        {
          "internalType": "bool",
          "name": "",
          "type": "bool"
        }
      ],
      "stateMutability": "nonpayable",
      "type": "function"
    },
    {
      "inputs": [
        {
          "internalType": "address",
          "name": "spender",
          "type": "address"
        },
        {
          "internalType": "uint256",
          "name": "addedValue",
          "type": "uint256"
        }
      ],
      "name": "increaseAllowance",
      "outputs": [
        {
          "internalType": "bool",
          "name": "",
          "type": "bool"
        }
      ],
      "stateMutability": "nonpayable",
      "type": "function"
    },
    {
      "inputs": [],
      "name": "name",
      "outputs": [
        {
          "internalType": "string",
          "name": "",
          "type": "string"
        }
      ],
      "stateMutability": "view",
      "type": "function",
      "constant": true
    },
    {
      "inputs": [],
      "name": "symbol",
      "outputs": [
        {
          "internalType": "string",
          "name": "",
          "type": "string"
        }
      ],
      "stateMutability": "view",
      "type": "function",
      "constant": true
    },
    {
      "inputs": [],
      "name": "totalSupply",
      "outputs": [
        {
          "internalType": "uint256",
          "name": "",
          "type": "uint256"
        }
      ],
      "stateMutability": "view",
      "type": "function",
      "constant": true
    },
    {
      "inputs": [
        {
          "internalType": "address",
          "name": "to",
          "type": "address"
        },
        {
          "internalType": "uint256",
          "name": "amount",
          "type": "uint256"
        }
      ],
      "name": "transfer",
      "outputs": [
        {
          "internalType": "bool",
          "name": "",
          "type": "bool"
        }
      ],
      "stateMutability": "nonpayable",
      "type": "function"
    },
    {
      "inputs": [
        {
          "internalType": "address",
          "name": "from",
          "type": "address"
        },
        {
          "internalType": "address",
          "name": "to",
          "type": "address"
        },
        {
          "internalType": "uint256",
          "name": "amount",
          "type": "uint256"
        }
      ],
      "name": "transferFrom",
      "outputs": [
        {
          "internalType": "bool",
          "name": "",
          "type": "bool"
        }
      ],
      "stateMutability": "nonpayable",
      "type": "function"
    },
    {
      "inputs": [
        {
          "internalType": "address",
          "name": "minter",
          "type": "address"
        },
        {
          "internalType": "uint256",
          "name": "amount",
          "type": "uint256"
        }
      ],
      "name": "faucet",
      "outputs": [],
      "stateMutability": "nonpayable",
      "type": "function"
    },
    {
      "inputs": [],
      "name": "getDecimals",
      "outputs": [
        {
          "internalType": "uint256",
          "name": "",
          "type": "uint256"
        }
      ],
      "stateMutability": "view",
      "type": "function",
      "constant": true
    }
  ],
  "bytecode": "0x6080604052620000126012600a620002c3565b6200001f906032620002db565b6005553480156200002f57600080fd5b506040518060400160405280600b81526020016a233632b2b8102a37b5b2b760a91b815250604051806040016040528060038152602001620464c560ec1b8152508160039081620000819190620003a1565b506004620000908282620003a1565b505050620000cb33620000a8620000de60201b60201c565b620000b590600a620002c3565b620000c5906302faf080620002db565b620000e3565b620000d8306012620000a8565b62000483565b601290565b6001600160a01b0382166200013e5760405162461bcd60e51b815260206004820152601f60248201527f45524332303a206d696e7420746f20746865207a65726f206164647265737300604482015260640160405180910390fd5b80600260008282546200015291906200046d565b90915550506001600160a01b038216600081815260208181526040808320805486019055518481527fddf252ad1be2c89b69c2b068fc378daa952ba7f163c4a11628f55a4df523b3ef910160405180910390a35050565b505050565b634e487b7160e01b600052601160045260246000fd5b600181815b8085111562000205578160001904821115620001e957620001e9620001ae565b80851615620001f757918102915b93841c9390800290620001c9565b509250929050565b6000826200021e57506001620002bd565b816200022d57506000620002bd565b8160018114620002465760028114620002515762000271565b6001915050620002bd565b60ff841115620002655762000265620001ae565b50506001821b620002bd565b5060208310610133831016604e8410600b841016171562000296575081810a620002bd565b620002a28383620001c4565b8060001904821115620002b957620002b9620001ae565b0290505b92915050565b6000620002d460ff8416836200020d565b9392505050565b6000816000190483118215151615620002f857620002f8620001ae565b500290565b634e487b7160e01b600052604160045260246000fd5b600181811c908216806200032857607f821691505b6020821081036200034957634e487b7160e01b600052602260045260246000fd5b50919050565b601f821115620001a957600081815260208120601f850160051c81016020861015620003785750805b601f850160051c820191505b81811015620003995782815560010162000384565b505050505050565b81516001600160401b03811115620003bd57620003bd620002fd565b620003d581620003ce845462000313565b846200034f565b602080601f8311600181146200040d5760008415620003f45750858301515b600019600386901b1c1916600185901b17855562000399565b600085815260208120601f198616915b828110156200043e578886015182559484019460019091019084016200041d565b50858210156200045d5787850151600019600388901b60f8161c191681555b5050505050600190811b01905550565b80820180821115620002bd57620002bd620001ae565b610bbb80620004936000396000f3fe608060405234801561001057600080fd5b50600436106100ea5760003560e01c806370a082311161008c578063a457c2d711610066578063a457c2d7146101dd578063a9059cbb146101f0578063dd62ed3e14610203578063f0141d841461023c57600080fd5b806370a08231146101975780637b56c2b2146101c057806395d89b41146101d557600080fd5b806323b872dd116100c857806323b872dd14610142578063313ce56714610155578063395093511461016457806352a9039c1461017757600080fd5b806306fdde03146100ef578063095ea7b31461010d57806318160ddd14610130575b600080fd5b6100f7610244565b604051610104919061090a565b60405180910390f35b61012061011b366004610974565b6102d6565b6040519015158152602001610104565b6002545b604051908152602001610104565b61012061015036600461099e565b6102f0565b60405160128152602001610104565b610120610172366004610974565b610314565b6101346101853660046109da565b60066020526000908152604090205481565b6101346101a53660046109da565b6001600160a01b031660009081526020819052604090205490565b6101d36101ce366004610974565b610353565b005b6100f7610459565b6101206101eb366004610974565b610468565b6101206101fe366004610974565b610512565b6101346102113660046109fc565b6001600160a01b03918216600090815260016020908152604080832093909416825291909152205490565b610134610520565b60606003805461025390610a2f565b80601f016020809104026020016040519081016040528092919081815260200182805461027f90610a2f565b80156102cc5780601f106102a1576101008083540402835291602001916102cc565b820191906000526020600020905b8154815290600101906020018083116102af57829003601f168201915b5050505050905090565b6000336102e4818585610533565b60019150505b92915050565b6000336102fe85828561068b565b61030985858561071d565b506001949350505050565b3360008181526001602090815260408083206001600160a01b03871684529091528120549091906102e4908290869061034e908790610a7f565b610533565b600081116103a85760405162461bcd60e51b815260206004820152601560248201527f416d6f756e742063616e6e6f74206265207a65726f000000000000000000000060448201526064015b60405180910390fd5b6005546001600160a01b0383166000908152600660205260409020546103cf908390610a7f565b1061041c5760405162461bcd60e51b815260206004820152601560248201527f43616e74204d696e74204d6f726520546f6b656e730000000000000000000000604482015260640161039f565b6001600160a01b03821660009081526006602052604081208054839290610444908490610a7f565b9091555061045490508282610512565b505050565b60606004805461025390610a2f565b3360008181526001602090815260408083206001600160a01b0387168452909152812054909190838110156105055760405162461bcd60e51b815260206004820152602560248201527f45524332303a2064656372656173656420616c6c6f77616e63652062656c6f7760448201527f207a65726f000000000000000000000000000000000000000000000000000000606482015260840161039f565b6103098286868403610533565b6000336102e481858561071d565b600061052e6012600a610b76565b905090565b6001600160a01b0383166105ae5760405162461bcd60e51b8152602060048201526024808201527f45524332303a20617070726f76652066726f6d20746865207a65726f2061646460448201527f7265737300000000000000000000000000000000000000000000000000000000606482015260840161039f565b6001600160a01b03821661062a5760405162461bcd60e51b815260206004820152602260248201527f45524332303a20617070726f766520746f20746865207a65726f20616464726560448201527f7373000000000000000000000000000000000000000000000000000000000000606482015260840161039f565b6001600160a01b0383811660008181526001602090815260408083209487168084529482529182902085905590518481527f8c5be1e5ebec7d5bd14f71427d1e84f3dd0314c0f7b2291e5b200ac8c7c3b925910160405180910390a3505050565b6001600160a01b038381166000908152600160209081526040808320938616835292905220546000198114610717578181101561070a5760405162461bcd60e51b815260206004820152601d60248201527f45524332303a20696e73756666696369656e7420616c6c6f77616e6365000000604482015260640161039f565b6107178484848403610533565b50505050565b6001600160a01b0383166107995760405162461bcd60e51b815260206004820152602560248201527f45524332303a207472616e736665722066726f6d20746865207a65726f20616460448201527f6472657373000000000000000000000000000000000000000000000000000000606482015260840161039f565b6001600160a01b0382166108155760405162461bcd60e51b815260206004820152602360248201527f45524332303a207472616e7366657220746f20746865207a65726f206164647260448201527f6573730000000000000000000000000000000000000000000000000000000000606482015260840161039f565b6001600160a01b038316600090815260208190526040902054818110156108a45760405162461bcd60e51b815260206004820152602660248201527f45524332303a207472616e7366657220616d6f756e742065786365656473206260448201527f616c616e63650000000000000000000000000000000000000000000000000000606482015260840161039f565b6001600160a01b03848116600081815260208181526040808320878703905593871680835291849020805487019055925185815290927fddf252ad1be2c89b69c2b068fc378daa952ba7f163c4a11628f55a4df523b3ef910160405180910390a3610717565b600060208083528351808285015260005b818110156109375785810183015185820160400152820161091b565b506000604082860101526040601f19601f8301168501019250505092915050565b80356001600160a01b038116811461096f57600080fd5b919050565b6000806040838503121561098757600080fd5b61099083610958565b946020939093013593505050565b6000806000606084860312156109b357600080fd5b6109bc84610958565b92506109ca60208501610958565b9150604084013590509250925092565b6000602082840312156109ec57600080fd5b6109f582610958565b9392505050565b60008060408385031215610a0f57600080fd5b610a1883610958565b9150610a2660208401610958565b90509250929050565b600181811c90821680610a4357607f821691505b602082108103610a6357634e487b7160e01b600052602260045260246000fd5b50919050565b634e487b7160e01b600052601160045260246000fd5b808201808211156102ea576102ea610a69565b600181815b80851115610acd578160001904821115610ab357610ab3610a69565b80851615610ac057918102915b93841c9390800290610a97565b509250929050565b600082610ae4575060016102ea565b81610af1575060006102ea565b8160018114610b075760028114610b1157610b2d565b60019150506102ea565b60ff841115610b2257610b22610a69565b50506001821b6102ea565b5060208310610133831016604e8410600b8410161715610b50575081810a6102ea565b610b5a8383610a92565b8060001904821115610b6e57610b6e610a69565b029392505050565b60006109f560ff841683610ad556fea2646970667358221220351bb6ffb348c667f9831a85a7f513f28aeeff80e2aeeb7f68b7542126b7f3b064736f6c63430008100033",
  "immutableReferences": {},
  "source": "// SPDX-License-Identifier: GPL-3.0\npragma solidity >=0.7.0 <0.9.0;\n\nimport {ERC20} from \"@openzeppelin/contracts/token/ERC20/ERC20.sol\";\n\ncontract FleepToken is ERC20 {\n    uint256 private MAX_ALLOCATION = 50 * 10**decimals();\n\n    // user address => minted amount\n    mapping(address => uint) public allocations;\n\n    constructor() ERC20(\"Fleep Token\", \"FLP\") {\n        _mint(msg.sender, 50000000 * 10**decimals());\n        _mint(address(this), 50000000 * 10**decimals());\n    }\n\n    // faucet minting for testing purposes\n    function faucet(address minter, uint256 amount) public {\n        require(amount > 0, \"Amount cannot be zero\");\n        require(\n            allocations[minter] + amount < MAX_ALLOCATION,\n            \"Cant Mint More Tokens\"\n        );\n        allocations[minter] += amount;\n        transfer(minter, amount);\n    }\n\n    function getDecimals() public view returns (uint256) {\n        return 10**decimals();\n    }\n}\n",
  "sourcePath": "C:\\Users\\Arogundade Ibrahim\\Documents\\web3\\fleep\\contracts\\FleepToken.sol",
  "compiler": {
    "name": "solc",
    "version": "0.8.16+commit.07a7930e.Emscripten.clang"
  },
  "schemaVersion": "3.4.10",
  "updatedAt": "2022-11-22T00:01:59.775Z",
  "networkType": "ethereum",
  "devdoc": {
    "kind": "dev",
    "methods": {
      "allowance(address,address)": {
        "details": "See {IERC20-allowance}."
      },
      "approve(address,uint256)": {
        "details": "See {IERC20-approve}. NOTE: If `amount` is the maximum `uint256`, the allowance is not updated on `transferFrom`. This is semantically equivalent to an infinite approval. Requirements: - `spender` cannot be the zero address."
      },
      "balanceOf(address)": {
        "details": "See {IERC20-balanceOf}."
      },
      "decimals()": {
        "details": "Returns the number of decimals used to get its user representation. For example, if `decimals` equals `2`, a balance of `505` tokens should be displayed to a user as `5.05` (`505 / 10 ** 2`). Tokens usually opt for a value of 18, imitating the relationship between Ether and Wei. This is the value {ERC20} uses, unless this function is overridden; NOTE: This information is only used for _display_ purposes: it in no way affects any of the arithmetic of the contract, including {IERC20-balanceOf} and {IERC20-transfer}."
      },
      "decreaseAllowance(address,uint256)": {
        "details": "Atomically decreases the allowance granted to `spender` by the caller. This is an alternative to {approve} that can be used as a mitigation for problems described in {IERC20-approve}. Emits an {Approval} event indicating the updated allowance. Requirements: - `spender` cannot be the zero address. - `spender` must have allowance for the caller of at least `subtractedValue`."
      },
      "increaseAllowance(address,uint256)": {
        "details": "Atomically increases the allowance granted to `spender` by the caller. This is an alternative to {approve} that can be used as a mitigation for problems described in {IERC20-approve}. Emits an {Approval} event indicating the updated allowance. Requirements: - `spender` cannot be the zero address."
      },
      "name()": {
        "details": "Returns the name of the token."
      },
      "symbol()": {
        "details": "Returns the symbol of the token, usually a shorter version of the name."
      },
      "totalSupply()": {
        "details": "See {IERC20-totalSupply}."
      },
      "transfer(address,uint256)": {
        "details": "See {IERC20-transfer}. Requirements: - `to` cannot be the zero address. - the caller must have a balance of at least `amount`."
      },
      "transferFrom(address,address,uint256)": {
        "details": "See {IERC20-transferFrom}. Emits an {Approval} event indicating the updated allowance. This is not required by the EIP. See the note at the beginning of {ERC20}. NOTE: Does not update the allowance if the current allowance is the maximum `uint256`. Requirements: - `from` and `to` cannot be the zero address. - `from` must have a balance of at least `amount`. - the caller must have allowance for ``from``'s tokens of at least `amount`."
      }
    },
    "version": 1
  },
  "userdoc": {
    "kind": "user",
    "methods": {},
    "version": 1
  }
}