{
  "contractName": "FleepSweeper",
  "abi": [
    {
      "inputs": [
        {
          "internalType": "address",
          "name": "fleepSwap",
          "type": "address"
        }
      ],
      "stateMutability": "nonpayable",
      "type": "constructor"
    },
    {
      "anonymous": false,
      "inputs": [
        {
          "indexed": false,
          "internalType": "uint256",
          "name": "amount",
          "type": "uint256"
        },
        {
          "indexed": false,
          "internalType": "uint256",
          "name": "amountOut",
          "type": "uint256"
        },
        {
          "indexed": false,
          "internalType": "address",
          "name": "from",
          "type": "address"
        },
        {
          "indexed": false,
          "internalType": "uint256",
          "name": "timestamp",
          "type": "uint256"
        }
      ],
      "name": "FleepSweeped",
      "type": "event"
    },
    {
      "inputs": [
        {
          "internalType": "address[]",
          "name": "tokens",
          "type": "address[]"
        },
        {
          "internalType": "uint256[]",
          "name": "pools",
          "type": "uint256[]"
        }
      ],
      "name": "sweep",
      "outputs": [
        {
          "internalType": "uint256",
          "name": "",
          "type": "uint256"
        }
      ],
      "stateMutability": "nonpayable",
      "type": "function"
    },
    {
      "inputs": [
        {
          "internalType": "address[]",
          "name": "tokens",
          "type": "address[]"
        },
        {
          "internalType": "address",
          "name": "wallet",
          "type": "address"
        }
      ],
      "name": "estimate",
      "outputs": [
        {
          "internalType": "uint256",
          "name": "",
          "type": "uint256"
        }
      ],
      "stateMutability": "view",
      "type": "function"
    }
  ],
  "bytecode": "0x608060405234801561001057600080fd5b506040516108c13803806108c183398101604081905261002f91610054565b600080546001600160a01b0319166001600160a01b0392909216919091179055610084565b60006020828403121561006657600080fd5b81516001600160a01b038116811461007d57600080fd5b9392505050565b61082e806100936000396000f3fe608060405234801561001057600080fd5b50600436106100365760003560e01c80631cf0a8b81461003b5780639ed6c6f614610060575b600080fd5b61004e610049366004610656565b610073565b60405190815260200160405180910390f35b61004e61006e3660046106a8565b6102a5565b60008060005b845181101561029b5760006001600160a01b031685828151811061009f5761009f610763565b60200260200101516001600160a01b031603156102895760008582815181106100ca576100ca610763565b60209081029190910101516040516370a0823160e01b81526001600160a01b0387811660048301529192506000918316906370a0823190602401602060405180830381865afa158015610121573d6000803e3d6000fd5b505050506040513d601f19601f820116820180604052508101906101459190610779565b60005488519192506001600160a01b03169063102a5f919089908690811061016f5761016f610763565b602002602001015160008054906101000a90046001600160a01b03166001600160a01b0316638a2627f06040518163ffffffff1660e01b8152600401602060405180830381865afa1580156101c8573d6000803e3d6000fd5b505050506040513d601f19601f820116820180604052508101906101ec9190610792565b6040517fffffffff0000000000000000000000000000000000000000000000000000000060e085901b1681526001600160a01b0392831660048201529116602482015260448101849052606401602060405180830381865afa158015610256573d6000803e3d6000fd5b505050506040513d601f19601f8201168201806040525081019061027a9190610779565b61028490856107cc565b935050505b80610293816107df565b915050610079565b5090505b92915050565b60008151835114610316576040517f08c379a000000000000000000000000000000000000000000000000000000000815260206004820152601960248201527f546f6b656e7320616e6420506f6f6c73204d757374204d617000000000000000604482015260640160405180910390fd5b6000805b845181101561029b5760006001600160a01b031685828151811061034057610340610763565b60200260200101516001600160a01b0316031561054d57600085828151811061036b5761036b610763565b60209081029190910101516040516370a0823160e01b81523360048201529091506000906001600160a01b038316906370a0823190602401602060405180830381865afa1580156103c0573d6000803e3d6000fd5b505050506040513d601f19601f820116820180604052508101906103e49190610779565b60005488519192506001600160a01b03169063fe0291569089908690811061040e5761040e610763565b602002602001015160008054906101000a90046001600160a01b03166001600160a01b0316638a2627f06040518163ffffffff1660e01b8152600401602060405180830381865afa158015610467573d6000803e3d6000fd5b505050506040513d601f19601f8201168201806040525081019061048b9190610792565b848a888151811061049e5761049e610763565b60209081029190910101516040517fffffffff0000000000000000000000000000000000000000000000000000000060e087901b1681526001600160a01b039485166004820152939092166024840152604483015260648201526084016020604051808303816000875af115801561051a573d6000803e3d6000fd5b505050506040513d601f19601f8201168201806040525081019061053e9190610779565b61054890856107cc565b935050505b80610557816107df565b91505061031a565b634e487b7160e01b600052604160045260246000fd5b604051601f8201601f1916810167ffffffffffffffff8111828210171561059e5761059e61055f565b604052919050565b600067ffffffffffffffff8211156105c0576105c061055f565b5060051b60200190565b6001600160a01b03811681146105df57600080fd5b50565b600082601f8301126105f357600080fd5b81356020610608610603836105a6565b610575565b82815260059290921b8401810191818101908684111561062757600080fd5b8286015b8481101561064b57803561063e816105ca565b835291830191830161062b565b509695505050505050565b6000806040838503121561066957600080fd5b823567ffffffffffffffff81111561068057600080fd5b61068c858286016105e2565b925050602083013561069d816105ca565b809150509250929050565b600080604083850312156106bb57600080fd5b823567ffffffffffffffff808211156106d357600080fd5b6106df868387016105e2565b93506020915081850135818111156106f657600080fd5b85019050601f8101861361070957600080fd5b8035610717610603826105a6565b81815260059190911b8201830190838101908883111561073657600080fd5b928401925b828410156107545783358252928401929084019061073b565b80955050505050509250929050565b634e487b7160e01b600052603260045260246000fd5b60006020828403121561078b57600080fd5b5051919050565b6000602082840312156107a457600080fd5b81516107af816105ca565b9392505050565b634e487b7160e01b600052601160045260246000fd5b8082018082111561029f5761029f6107b6565b6000600182016107f1576107f16107b6565b506001019056fea2646970667358221220e2c99b4a2fa155beb1d10e00295f5a23d0876219db4de1fde484f4d942e0235a64736f6c63430008100033",
  "immutableReferences": {},
  "source": "// SPDX-License-Identifier: GPL-3.0\npragma solidity >=0.7.0 <0.9.0;\n\nimport {PriceApi} from \"./PriceApi.sol\";\nimport {FleepSwap} from \"./FleepSwap.sol\";\nimport {IERC20} from \"@openzeppelin/contracts/token/ERC20/IERC20.sol\";\n\ncontract FleepSweeper {\n    FleepSwap private _fleepSwap;\n\n    // registers every successful swap\n    event FleepSweeped(\n        uint256 amount,\n        uint256 amountOut,\n        address from,\n        uint timestamp\n    );\n\n    constructor(address fleepSwap) {\n        _fleepSwap = FleepSwap(fleepSwap);\n    }\n\n    function sweep(address[] memory tokens, uint[] memory pools)\n        public\n        returns (uint256)\n    {\n        require(tokens.length == pools.length, \"Tokens and Pools Must Map\");\n\n        uint256 amount1;\n        for (uint index = 0; index < tokens.length; index++) {\n            if (tokens[index] == address(0)) continue;\n\n            IERC20 token = IERC20(tokens[index]);\n            uint256 amount0 = token.balanceOf(msg.sender);\n\n            amount1 += _fleepSwap.swap(\n                tokens[index],\n                _fleepSwap.getNativePair(),\n                amount0,\n                pools[index]\n            );\n        }\n\n        return amount1;\n    }\n\n    function estimate(address[] memory tokens, address wallet)\n        public\n        view\n        returns (uint256)\n    {\n        uint256 amount1;\n\n        for (uint index = 0; index < tokens.length; index++) {\n            if (tokens[index] == address(0)) continue;\n\n            IERC20 token = IERC20(tokens[index]);\n            uint256 amount0 = token.balanceOf(wallet);\n\n            amount1 += _fleepSwap.estimate(\n                tokens[index],\n                _fleepSwap.getNativePair(),\n                amount0\n            );\n        }\n\n        return amount1;\n    }\n}\n",
  "sourcePath": "C:\\Users\\Arogundade Ibrahim\\Documents\\web3\\fleep\\contracts\\FleepSweeper.sol",
  "compiler": {
    "name": "solc",
    "version": "0.8.16+commit.07a7930e.Emscripten.clang"
  },
  "schemaVersion": "3.4.10",
  "updatedAt": "2022-11-23T20:56:37.963Z",
  "devdoc": {
    "kind": "dev",
    "methods": {},
    "version": 1
  },
  "userdoc": {
    "kind": "user",
    "methods": {},
    "version": 1
  }
}