{
  "contractName": "FleepSwap",
  "abi": [
    {
      "inputs": [
        {
          "internalType": "address",
          "name": "priceApI",
          "type": "address"
        },
        {
          "internalType": "address",
          "name": "fleepToken",
          "type": "address"
        }
      ],
      "stateMutability": "nonpayable",
      "type": "constructor"
    },
    {
      "anonymous": false,
      "inputs": [
        {
          "indexed": false,
          "internalType": "uint256",
          "name": "amount",
          "type": "uint256"
        },
        {
          "indexed": false,
          "internalType": "uint256",
          "name": "amountOut",
          "type": "uint256"
        },
        {
          "indexed": false,
          "internalType": "address",
          "name": "from",
          "type": "address"
        },
        {
          "indexed": false,
          "internalType": "address",
          "name": "to",
          "type": "address"
        },
        {
          "indexed": false,
          "internalType": "uint256",
          "name": "timestamp",
          "type": "uint256"
        }
      ],
      "name": "FleepSwaped",
      "type": "event"
    },
    {
      "anonymous": false,
      "inputs": [
        {
          "indexed": false,
          "internalType": "address",
          "name": "token0",
          "type": "address"
        },
        {
          "indexed": false,
          "internalType": "address",
          "name": "token1",
          "type": "address"
        },
        {
          "indexed": false,
          "internalType": "uint256",
          "name": "amount0",
          "type": "uint256"
        },
        {
          "indexed": false,
          "internalType": "uint256",
          "name": "amount1",
          "type": "uint256"
        },
        {
          "indexed": false,
          "internalType": "address",
          "name": "provider",
          "type": "address"
        },
        {
          "indexed": false,
          "internalType": "uint256",
          "name": "timestamp",
          "type": "uint256"
        }
      ],
      "name": "LiquidityProvided",
      "type": "event"
    },
    {
      "anonymous": false,
      "inputs": [
        {
          "indexed": false,
          "internalType": "address",
          "name": "token0",
          "type": "address"
        },
        {
          "indexed": false,
          "internalType": "address",
          "name": "token1",
          "type": "address"
        },
        {
          "indexed": false,
          "internalType": "uint256",
          "name": "amount0",
          "type": "uint256"
        },
        {
          "indexed": false,
          "internalType": "uint256",
          "name": "amount1",
          "type": "uint256"
        },
        {
          "indexed": false,
          "internalType": "address",
          "name": "provider",
          "type": "address"
        }
      ],
      "name": "LiquidityRemoved",
      "type": "event"
    },
    {
      "inputs": [],
      "name": "NATIVE_PAIR",
      "outputs": [
        {
          "internalType": "address",
          "name": "",
          "type": "address"
        }
      ],
      "stateMutability": "view",
      "type": "function"
    },
    {
      "inputs": [
        {
          "internalType": "uint256",
          "name": "",
          "type": "uint256"
        }
      ],
      "name": "liquids",
      "outputs": [
        {
          "internalType": "uint256",
          "name": "id",
          "type": "uint256"
        },
        {
          "internalType": "uint256",
          "name": "poolId",
          "type": "uint256"
        },
        {
          "internalType": "uint256",
          "name": "amount0",
          "type": "uint256"
        },
        {
          "internalType": "uint256",
          "name": "amount1",
          "type": "uint256"
        },
        {
          "internalType": "address",
          "name": "provider",
          "type": "address"
        }
      ],
      "stateMutability": "view",
      "type": "function"
    },
    {
      "inputs": [
        {
          "internalType": "address",
          "name": "",
          "type": "address"
        }
      ],
      "name": "pairs",
      "outputs": [
        {
          "internalType": "address",
          "name": "",
          "type": "address"
        }
      ],
      "stateMutability": "view",
      "type": "function"
    },
    {
      "inputs": [
        {
          "internalType": "uint256",
          "name": "",
          "type": "uint256"
        }
      ],
      "name": "pools",
      "outputs": [
        {
          "internalType": "uint256",
          "name": "id",
          "type": "uint256"
        },
        {
          "internalType": "address",
          "name": "token0",
          "type": "address"
        },
        {
          "internalType": "address",
          "name": "token1",
          "type": "address"
        }
      ],
      "stateMutability": "view",
      "type": "function"
    },
    {
      "inputs": [
        {
          "internalType": "address",
          "name": "",
          "type": "address"
        }
      ],
      "name": "providers",
      "outputs": [
        {
          "internalType": "uint256",
          "name": "id",
          "type": "uint256"
        },
        {
          "internalType": "uint256",
          "name": "totalEarned",
          "type": "uint256"
        },
        {
          "internalType": "uint256",
          "name": "balance",
          "type": "uint256"
        }
      ],
      "stateMutability": "view",
      "type": "function"
    },
    {
      "inputs": [
        {
          "internalType": "address",
          "name": "token0",
          "type": "address"
        },
        {
          "internalType": "address",
          "name": "token1",
          "type": "address"
        }
      ],
      "name": "getRate",
      "outputs": [
        {
          "internalType": "uint256",
          "name": "",
          "type": "uint256"
        }
      ],
      "stateMutability": "view",
      "type": "function"
    },
    {
      "inputs": [
        {
          "internalType": "address",
          "name": "token0",
          "type": "address"
        },
        {
          "internalType": "address",
          "name": "token1",
          "type": "address"
        }
      ],
      "name": "getPoolSize",
      "outputs": [
        {
          "internalType": "uint256",
          "name": "",
          "type": "uint256"
        },
        {
          "internalType": "uint256",
          "name": "",
          "type": "uint256"
        }
      ],
      "stateMutability": "view",
      "type": "function"
    },
    {
      "inputs": [
        {
          "internalType": "address",
          "name": "token0",
          "type": "address"
        },
        {
          "internalType": "address",
          "name": "token1",
          "type": "address"
        },
        {
          "internalType": "uint256",
          "name": "amount0",
          "type": "uint256"
        }
      ],
      "name": "estimate",
      "outputs": [
        {
          "internalType": "uint256",
          "name": "",
          "type": "uint256"
        }
      ],
      "stateMutability": "view",
      "type": "function"
    },
    {
      "inputs": [],
      "name": "getNativePair",
      "outputs": [
        {
          "internalType": "address",
          "name": "",
          "type": "address"
        }
      ],
      "stateMutability": "view",
      "type": "function"
    },
    {
      "inputs": [],
      "name": "unlockedProviderAccount",
      "outputs": [],
      "stateMutability": "nonpayable",
      "type": "function"
    },
    {
      "inputs": [
        {
          "internalType": "address",
          "name": "token0",
          "type": "address"
        },
        {
          "internalType": "address",
          "name": "token1",
          "type": "address"
        },
        {
          "internalType": "uint256",
          "name": "amount0",
          "type": "uint256"
        }
      ],
      "name": "swap",
      "outputs": [
        {
          "internalType": "uint256",
          "name": "",
          "type": "uint256"
        }
      ],
      "stateMutability": "payable",
      "type": "function"
    },
    {
      "inputs": [
        {
          "internalType": "address",
          "name": "token0",
          "type": "address"
        },
        {
          "internalType": "address",
          "name": "token1",
          "type": "address"
        }
      ],
      "name": "createPool",
      "outputs": [
        {
          "internalType": "uint256",
          "name": "",
          "type": "uint256"
        }
      ],
      "stateMutability": "nonpayable",
      "type": "function"
    },
    {
      "inputs": [
        {
          "internalType": "uint256",
          "name": "amount0",
          "type": "uint256"
        },
        {
          "internalType": "uint256",
          "name": "poolId",
          "type": "uint256"
        }
      ],
      "name": "provideLiquidity",
      "outputs": [
        {
          "internalType": "uint256",
          "name": "",
          "type": "uint256"
        },
        {
          "internalType": "uint256",
          "name": "",
          "type": "uint256"
        }
      ],
      "stateMutability": "payable",
      "type": "function"
    },
    {
      "inputs": [
        {
          "internalType": "uint256",
          "name": "id",
          "type": "uint256"
        }
      ],
      "name": "removeLiquidity",
      "outputs": [],
      "stateMutability": "nonpayable",
      "type": "function"
    },
    {
      "inputs": [
        {
          "internalType": "uint256",
          "name": "amount",
          "type": "uint256"
        }
      ],
      "name": "withDrawEarnings",
      "outputs": [],
      "stateMutability": "nonpayable",
      "type": "function"
    },
    {
      "inputs": [
        {
          "internalType": "address",
          "name": "pair",
          "type": "address"
        }
      ],
      "name": "updateNativePair",
      "outputs": [],
      "stateMutability": "nonpayable",
      "type": "function"
    },
    {
      "inputs": [
        {
          "internalType": "uint256",
          "name": "fee",
          "type": "uint256"
        }
      ],
      "name": "updateSwapFee",
      "outputs": [],
      "stateMutability": "nonpayable",
      "type": "function"
    },
    {
      "inputs": [
        {
          "internalType": "address",
          "name": "token",
          "type": "address"
        },
        {
          "internalType": "address",
          "name": "pair",
          "type": "address"
        }
      ],
      "name": "createPair",
      "outputs": [],
      "stateMutability": "nonpayable",
      "type": "function"
    },
    {
      "inputs": [
        {
          "internalType": "uint256",
          "name": "amount1",
          "type": "uint256"
        }
      ],
      "name": "_transferSwappedTokens1",
      "outputs": [
        {
          "internalType": "uint256",
          "name": "",
          "type": "uint256"
        }
      ],
      "stateMutability": "payable",
      "type": "function"
    },
    {
      "inputs": [
        {
          "internalType": "contract IERC20",
          "name": "pairedToken",
          "type": "address"
        },
        {
          "internalType": "uint256",
          "name": "pairedAmount",
          "type": "uint256"
        }
      ],
      "name": "_nativeStake",
      "outputs": [],
      "stateMutability": "payable",
      "type": "function"
    }
  ],
  "bytecode": "0x608060405260016003553480156200001657600080fd5b50604051620029eb380380620029eb833981016040819052620000399162000098565b600080546001600160a01b039384166001600160a01b0319918216179091556001805492909316918116919091179091556002805490911633179055620000d0565b80516001600160a01b03811681146200009357600080fd5b919050565b60008060408385031215620000ac57600080fd5b620000b7836200007b565b9150620000c7602084016200007b565b90509250929050565b61290b80620000e06000396000f3fe60806040526004361061015f5760003560e01c80639c8f9f23116100c0578063df791e5011610074578063ecd44aef11610059578063ecd44aef14610409578063eebb63ed14610429578063fe33b302146104ad57600080fd5b8063df791e50146103d6578063e3433615146103e957600080fd5b8063bf16f65a116100a5578063bf16f65a14610376578063c9c6539614610396578063d30dce7d146103b657600080fd5b80639c8f9f23146102e9578063ac4afa381461030957600080fd5b80635554b552116101175780638a2627f0116100fc5780638a2627f01461029857806391e5f37f146102b657806397d07b22146102d657600080fd5b80635554b552146102595780637a16af7f1461027057600080fd5b8063284878731161014857806328487873146101ee578063344bfb5914610201578063379b87ea1461023957600080fd5b80630787bc2714610164578063102a5f91146101c0575b600080fd5b34801561017057600080fd5b506101a061017f3660046126e9565b600a6020526000908152604090208054600182015460029092015490919083565b604080519384526020840192909252908201526060015b60405180910390f35b3480156101cc57600080fd5b506101e06101db36600461270d565b6104e3565b6040519081526020016101b7565b6101e06101fc36600461274e565b61058a565b34801561020d57600080fd5b50600854610221906001600160a01b031681565b6040516001600160a01b0390911681526020016101b7565b34801561024557600080fd5b506101e0610254366004612767565b6105e6565b34801561026557600080fd5b5061026e610625565b005b61028361027e3660046127a0565b6108ee565b604080519283526020830191909152016101b7565b3480156102a457600080fd5b506008546001600160a01b0316610221565b3480156102c257600080fd5b5061026e6102d13660046126e9565b610d32565b61026e6102e43660046127c2565b610e01565b3480156102f557600080fd5b5061026e61030436600461274e565b610eea565b34801561031557600080fd5b5061035161032436600461274e565b60096020526000908152604090208054600182015460029092015490916001600160a01b03908116911683565b604080519384526001600160a01b0392831660208501529116908201526060016101b7565b34801561038257600080fd5b5061026e61039136600461274e565b610f3b565b3480156103a257600080fd5b5061026e6103b1366004612767565b61102a565b3480156103c257600080fd5b5061026e6103d136600461274e565b61115b565b6101e06103e436600461270d565b611263565b3480156103f557600080fd5b506101e0610404366004612767565b611afe565b34801561041557600080fd5b50610283610424366004612767565b611ca9565b34801561043557600080fd5b5061047c61044436600461274e565b600b6020526000908152604090208054600182015460028301546003840154600490940154929391929091906001600160a01b031685565b6040805195865260208601949094529284019190915260608301526001600160a01b0316608082015260a0016101b7565b3480156104b957600080fd5b506102216104c83660046126e9565b6007602052600090815260409020546001600160a01b031681565b600080546001600160a01b03858116835260076020526040808420548683168552818520549151635d5530df60e11b8152908316600482015290821660248201528392919091169063baaa61be90604401602060405180830381865afa158015610551573d6000803e3d6000fd5b505050506040513d601f19601f8201168201806040525081019061057591906127ee565b9050610581818461281d565b95945050505050565b60008060035460648461059d919061283c565b6105a7919061281d565b9050336108fc6105b7838661285e565b6040518115909202916000818181858888f193505050501580156105df573d6000803e3d6000fd5b5092915050565b6001600160a01b0380831660009081526007602052604080822054848416835290822054919261061c92918116911660016104e3565b90505b92915050565b336000908152600a6020526040902054156106875760405162461bcd60e51b815260206004820152600a60248201527f4f6e6c792047756573740000000000000000000000000000000000000000000060448201526064015b60405180910390fd5b6001546040517f64614c71000000000000000000000000000000000000000000000000000000008152600a60048201526001600160a01b03909116906364614c7190602401602060405180830381865afa1580156106e9573d6000803e3d6000fd5b505050506040513d601f19601f8201168201806040525081019061070d91906127ee565b6001546040517f70a082310000000000000000000000000000000000000000000000000000000081523360048201526001600160a01b03909116906370a0823190602401602060405180830381865afa15801561076e573d6000803e3d6000fd5b505050506040513d601f19601f8201168201806040525081019061079291906127ee565b10156108065760405162461bcd60e51b815260206004820152602660248201527f596f75206d75737420686f646c206174206c6561737420313020466c6565702060448201527f546f6b656e730000000000000000000000000000000000000000000000000000606482015260840161067e565b6006805490600061081683612871565b9091555050604080516080810182526006548152336000818152600a6020818152858320600181015482870152600281015486880152939092528152600390910180548451818402810184019095528085529293606085019390928301828280156108a057602002820191906000526020600020905b81548152602001906001019080831161088c575b505050919092525050336000908152600a602090815260409182902083518155838201516001820155918301516002830155606083015180516108e99260038501920190612674565b505050565b336000908152600a60205260408120548190810361093e5760405162461bcd60e51b815260206004820152600d60248201526c27b7363c90283937bb34b232b960991b604482015260640161067e565b60648410156109b45760405162461bcd60e51b8152602060048201526024808201527f416d6f756e742063616e6e6f74206265206c6573736572207468616e2031303060448201527f2057454900000000000000000000000000000000000000000000000000000000606482015260840161067e565b600083815260096020908152604080832060018101546002909101546001600160a01b039182168086526007909452919093205491929081169116610a475760405162461bcd60e51b815260206004820152602360248201527f5061697220646f6573206e6f74206578697374732c20436f6e7461637420616460448201526236b4b760e91b606482015260840161067e565b6001600160a01b0381811660009081526007602052604090205416610aba5760405162461bcd60e51b815260206004820152602360248201527f5061697220646f6573206e6f74206578697374732c20436f6e7461637420616460448201526236b4b760e91b606482015260840161067e565b600080610ac78733611ccf565b6008546001600160a01b03878116600090815260076020526040812054949650929450919283928c928116911603610bb557610b033a3461285e565b600080546001600160a01b038a8116835260076020526040808420548b8316855293819020549051635d5530df60e11b8152938216600485015281166024840152929350919091169063baaa61be90604401602060405180830381865afa158015610b72573d6000803e3d6000fd5b505050506040513d601f19601f82011682018060405250810190610b9691906127ee565b9250610ba2838261281d565b915085610baf8184610e01565b50610c61565b600080546001600160a01b03898116835260076020526040808420548a8316855293819020549051635d5530df60e11b8152938216600485015281166024840152169063baaa61be90604401602060405180830381865afa158015610c1e573d6000803e3d6000fd5b505050506040513d601f19601f82011682018060405250810190610c4291906127ee565b9250610c4e838261281d565b91508686610c5e82828587611d64565b50505b8415610cb9576000848152600b602052604081206002018054839290610c8890849061288a565b90915550506000848152600b602052604081206003018054849290610cae90849061288a565b90915550610cc59050565b610cc58a828433611f3e565b604080516001600160a01b03808a16825288166020820152908101829052606081018390523360808201524260a08201527fac838223c8dc8d877bcd4b6592254fdaf05f64d3da40ab54c09765d221073c1c9060c00160405180910390a19a909950975050505050505050565b6002546001600160a01b03163314610d7c5760405162461bcd60e51b815260206004820152600d60248201526c27b7363c902232b83637bcb2b960991b604482015260640161067e565b6001600160a01b038116610dd25760405162461bcd60e51b815260206004820152601460248201527f496e76616c696420506169722041646472657373000000000000000000000000604482015260640161067e565b6008805473ffffffffffffffffffffffffffffffffffffffff19166001600160a01b0392909216919091179055565b60405163095ea7b360e01b8152306004820152602481018290526001600160a01b0383169063095ea7b3906044016020604051808303816000875af1158015610e4e573d6000803e3d6000fd5b505050506040513d601f19601f82011682018060405250810190610e72919061289d565b506040516323b872dd60e01b8152336004820152306024820152604481018290526001600160a01b038316906323b872dd906064016020604051808303816000875af1158015610ec6573d6000803e3d6000fd5b505050506040513d601f19601f820116820180604052508101906108e9919061289d565b336000908152600a60205260408120549003610f385760405162461bcd60e51b815260206004820152600d60248201526c27b7363c90283937bb34b232b960991b604482015260640161067e565b50565b6002546001600160a01b03163314610f855760405162461bcd60e51b815260206004820152600d60248201526c27b7363c902232b83637bcb2b960991b604482015260640161067e565b60008111610fd55760405162461bcd60e51b815260206004820152601b60248201527f506c6174666f726d206665652063616e6e6f74206265207a65726f0000000000604482015260640161067e565b606481106110255760405162461bcd60e51b815260206004820181905260248201527f506c6174666f726d206665652063616e6e6f7420626520612068756e64726564604482015260640161067e565b600355565b6002546001600160a01b031633146110745760405162461bcd60e51b815260206004820152600d60248201526c27b7363c902232b83637bcb2b960991b604482015260640161067e565b6001600160a01b0382166110ca5760405162461bcd60e51b815260206004820152601560248201527f496e76616c696420546f6b656e20416464726573730000000000000000000000604482015260640161067e565b6001600160a01b0381166111205760405162461bcd60e51b815260206004820152601460248201527f496e76616c696420506169722041646472657373000000000000000000000000604482015260640161067e565b6001600160a01b039182166000908152600760205260409020805473ffffffffffffffffffffffffffffffffffffffff191691909216179055565b336000908152600a602052604081205490036111a95760405162461bcd60e51b815260206004820152600d60248201526c27b7363c90283937bb34b232b960991b604482015260640161067e565b336000908152600a602052604090206002015481111561120b5760405162461bcd60e51b815260206004820152601460248201527f496e73756666696369656e742042616c616e6365000000000000000000000000604482015260640161067e565b336000908152600a60205260408120600201805483929061122d90849061285e565b9091555050604051339082156108fc029083906000818181858888f1935050505015801561125f573d6000803e3d6000fd5b5050565b600060648210156112dc5760405162461bcd60e51b815260206004820152602c60248201527f416d6f756e7420746f20737761702063616e6e6f74206265206c65737365722060448201527f7468616e20313030205745490000000000000000000000000000000000000000606482015260840161067e565b6001600160a01b038481166000908152600760205260409020541661134f5760405162461bcd60e51b815260206004820152602360248201527f5061697220646f6573206e6f74206578697374732c20436f6e7461637420616460448201526236b4b760e91b606482015260840161067e565b6001600160a01b03838116600090815260076020526040902054166113c25760405162461bcd60e51b815260206004820152602360248201527f5061697220646f6573206e6f74206578697374732c20436f6e7461637420616460448201526236b4b760e91b606482015260840161067e565b60008083816113d1888861201f565b60008181526009602052604090205490915061142f5760405162461bcd60e51b815260206004820152601460248201527f506f6f6c20646f6573206e6f7420657869737473000000000000000000000000604482015260640161067e565b6008546001600160a01b03898116600090815260076020526040902054918116911603611674576114603a3461285e565b600080546008546001600160a01b038b811684526007602052604093849020549351635d5530df60e11b815291811660048301529283166024820152929450169063baaa61be90604401602060405180830381865afa1580156114c7573d6000803e3d6000fd5b505050506040513d601f19601f820116820180604052508101906114eb91906127ee565b93506114f7848361281d565b92508660006115058361215d565b915050848110156115585760405162461bcd60e51b815260206004820152601660248201527f496e73756666696369656e7420506f6f6c2053697a6500000000000000000000604482015260640161067e565b60006115648387612211565b90506000606461157583605061281d565b61157f919061283c565b905061166b8a8885600960008a8152602001908152602001600020604051806080016040529081600082015481526020016001820160009054906101000a90046001600160a01b03166001600160a01b03166001600160a01b031681526020016002820160009054906101000a90046001600160a01b03166001600160a01b03166001600160a01b031681526020016003820180548060200260200160405190810160405280929190818152602001828054801561165c57602002820191906000526020600020905b815481526020019060010190808311611648575b505050505081525050856122f2565b50505050611a9c565b6008546001600160a01b0388811660009081526007602052604090205491811691160361188757600080546001600160a01b038a811683526007602052604092839020546008549351635d5530df60e11b815290821660048201529281166024840152169063baaa61be90604401602060405180830381865afa1580156116ff573d6000803e3d6000fd5b505050506040513d601f19601f8201168201806040525081019061172391906127ee565b935061172f848361281d565b60405163095ea7b360e01b81523060048201526024810184905290935088906001600160a01b0382169063095ea7b3906044016020604051808303816000875af1158015611781573d6000803e3d6000fd5b505050506040513d601f19601f820116820180604052508101906117a5919061289d565b506040516323b872dd60e01b8152336004820152306024820152604481018490526001600160a01b038216906323b872dd906064016020604051808303816000875af11580156117f9573d6000803e3d6000fd5b505050506040513d601f19601f8201168201806040525081019061181d919061289d565b5060006118298361215d565b5090508481101561187c5760405162461bcd60e51b815260206004820152601660248201527f496e73756666696369656e7420506f6f6c2053697a6500000000000000000000604482015260640161067e565b60006115648661058a565b600080546001600160a01b038a8116835260076020526040808420548b8316855293819020549051635d5530df60e11b8152938216600485015281166024840152169063baaa61be90604401602060405180830381865afa1580156118f0573d6000803e3d6000fd5b505050506040513d601f19601f8201168201806040525081019061191491906127ee565b9350611920848361281d565b92508787600061192f8461215d565b915050858110156119825760405162461bcd60e51b815260206004820152601660248201527f496e73756666696369656e7420506f6f6c2053697a6500000000000000000000604482015260640161067e565b600061199184848c8a336124a3565b9050600060646119a283605061281d565b6119ac919061283c565b9050611a968b8985600960008b8152602001908152602001600020604051806080016040529081600082015481526020016001820160009054906101000a90046001600160a01b03166001600160a01b03166001600160a01b031681526020016002820160009054906101000a90046001600160a01b03166001600160a01b03166001600160a01b031681526020016003820180548060200260200160405190810160405280929190818152602001828054801561165c576020028201919060005260206000209081548152602001906001019080831161164857505050505081525050856122f2565b50505050505b60408051878152602081018590526001600160a01b038a8116828401528916606082015242608082015290517f649451cb6bd28801e8992e83f834233301eb39b64a665a45b1e08d3e13ff679a9181900360a00190a150909695505050505050565b336000908152600a60205260408120548103611b4c5760405162461bcd60e51b815260206004820152600d60248201526c27b7363c90283937bb34b232b960991b604482015260640161067e565b60048054906000611b5c83612871565b9091555050600454600090815260096020908152604080832081516080810183528154815260018201546001600160a01b039081168286015260028301541681840152600382018054845181870281018701909552808552919492936060860193909290830182828015611bef57602002820191906000526020600020905b815481526020019060010190808311611bdb575b505050919092525050604080516080810182526004548082526001600160a01b03808a1660208085019182528a83168587019081526060808a01519087019081526000958652600983529690942085518155915160018301805491851673ffffffffffffffffffffffffffffffffffffffff19928316179055935160028301805491909416941693909317909155925180519596509194929350611c9b92600385019290910190612674565b505060045495945050505050565b6000806000611cb8858561201f565b9050611cc38161215d565b92509250509250929050565b60008060008060005b6001600160a01b0386166000908152600a6020526040902060030154811015611d59576001600160a01b0386166000908152600a60205260409020600301805488919083908110611d2b57611d2b6128bf565b906000526020600020015403611d475780925060019150611d59565b80611d5181612871565b915050611cd8565b509590945092505050565b60405163095ea7b360e01b8152306004820152602481018390526001600160a01b0385169063095ea7b3906044016020604051808303816000875af1158015611db1573d6000803e3d6000fd5b505050506040513d601f19601f82011682018060405250810190611dd5919061289d565b506040516323b872dd60e01b8152336004820152306024820152604481018390526001600160a01b038516906323b872dd906064016020604051808303816000875af1158015611e29573d6000803e3d6000fd5b505050506040513d601f19601f82011682018060405250810190611e4d919061289d565b5060405163095ea7b360e01b8152306004820152602481018290526001600160a01b0384169063095ea7b3906044016020604051808303816000875af1158015611e9b573d6000803e3d6000fd5b505050506040513d601f19601f82011682018060405250810190611ebf919061289d565b506040516323b872dd60e01b8152336004820152306024820152604481018290526001600160a01b038416906323b872dd906064016020604051808303816000875af1158015611f13573d6000803e3d6000fd5b505050506040513d601f19601f82011682018060405250810190611f37919061289d565b5050505050565b60058054906000611f4e83612871565b90915550506040805160a081018252600580548083526020808401898152848601988952606085019788526001600160a01b03968716608086018181526000948552600b845287852096518755915160018088019190915599516002870155975160038087019190915590516004909501805473ffffffffffffffffffffffffffffffffffffffff19169590971694909417909555968752600984528287208154908301805480890182559089528589200155938652600a8352908520925492018054938401815584529092200155565b60006001600160a01b0383161580159061204157506001600160a01b03821615155b61208d5760405162461bcd60e51b815260206004820152600760248201527f496e76616c696400000000000000000000000000000000000000000000000000604482015260640161067e565b60005b6004548111612153576000818152600960205260409020600101546001600160a01b0385811691161480156120e157506000818152600960205260409020600201546001600160a01b038481169116145b156120ed57905061061f565b6000818152600960205260409020600101546001600160a01b03848116911614801561213557506000818152600960205260409020600201546001600160a01b038581169116145b1561214157905061061f565b8061214b81612871565b915050612090565b5060009392505050565b60008060008060005b6000868152600960205260409020600301548110156122065760008681526009602052604081206003018054839081106121a2576121a26128bf565b90600052602060002001549050600b600082815260200190815260200160002060020154846121d1919061288a565b6000828152600b60205260409020600301549094506121f0908461288a565b92505080806121fe90612871565b915050612166565b509094909350915050565b600080600354606484612224919061283c565b61222e919061281d565b90506001600160a01b03841663a9059cbb3361224a848761285e565b6040517fffffffff0000000000000000000000000000000000000000000000000000000060e085901b1681526001600160a01b03909216600483015260248201526044016020604051808303816000875af11580156122ad573d6000803e3d6000fd5b505050506040513d601f19601f820116820180604052508101906122d1919061289d565b506008546122ea9085906001600160a01b0316836104e3565b949350505050565b60005b82606001515181101561249b5760008360600151828151811061231a5761231a6128bf565b6020026020010151905060008588600b600085815260200190815260200160002060030154612349919061281d565b612353919061283c565b905080600b6000848152602001908152602001600020600201600082825461237b919061288a565b90915550506000828152600b6020526040812060030154879061239f908a9061281d565b6123a9919061283c565b905080600b600085815260200190815260200160002060030160008282546123d1919061285e565b90915550506000838152600b602052604081206003015488906123f590889061281d565b6123ff919061283c565b6000858152600b60209081526040808320600401546001600160a01b03168352600a90915281206001018054929350839290919061243e90849061288a565b90915550506000848152600b60209081526040808320600401546001600160a01b03168352600a9091528120600201805483929061247d90849061288a565b9250508190555050505050808061249390612871565b9150506122f5565b505050505050565b6000806003546064856124b6919061283c565b6124c0919061281d565b60405163095ea7b360e01b8152306004820152602481018790529091506001600160a01b0388169063095ea7b3906044016020604051808303816000875af1158015612510573d6000803e3d6000fd5b505050506040513d601f19601f82011682018060405250810190612534919061289d565b506040516323b872dd60e01b81526001600160a01b038481166004830152306024830152604482018790528816906323b872dd906064016020604051808303816000875af115801561258a573d6000803e3d6000fd5b505050506040513d601f19601f820116820180604052508101906125ae919061289d565b506001600160a01b03861663a9059cbb846125c9848861285e565b6040517fffffffff0000000000000000000000000000000000000000000000000000000060e085901b1681526001600160a01b03909216600483015260248201526044016020604051808303816000875af115801561262c573d6000803e3d6000fd5b505050506040513d601f19601f82011682018060405250810190612650919061289d565b506008546126699087906001600160a01b0316836104e3565b979650505050505050565b8280548282559060005260206000209081019282156126af579160200282015b828111156126af578251825591602001919060010190612694565b506126bb9291506126bf565b5090565b5b808211156126bb57600081556001016126c0565b6001600160a01b0381168114610f3857600080fd5b6000602082840312156126fb57600080fd5b8135612706816126d4565b9392505050565b60008060006060848603121561272257600080fd5b833561272d816126d4565b9250602084013561273d816126d4565b929592945050506040919091013590565b60006020828403121561276057600080fd5b5035919050565b6000806040838503121561277a57600080fd5b8235612785816126d4565b91506020830135612795816126d4565b809150509250929050565b600080604083850312156127b357600080fd5b50508035926020909101359150565b600080604083850312156127d557600080fd5b82356127e0816126d4565b946020939093013593505050565b60006020828403121561280057600080fd5b5051919050565b634e487b7160e01b600052601160045260246000fd5b600081600019048311821515161561283757612837612807565b500290565b60008261285957634e487b7160e01b600052601260045260246000fd5b500490565b8181038181111561061f5761061f612807565b60006001820161288357612883612807565b5060010190565b8082018082111561061f5761061f612807565b6000602082840312156128af57600080fd5b8151801515811461270657600080fd5b634e487b7160e01b600052603260045260246000fdfea26469706673582212201c7e8b12b26eaccef367a6abb5fbaba65dcf09f6814e78250b2300b0386e241764736f6c63430008100033",
  "immutableReferences": {},
  "source": "// SPDX-License-Identifier: GPL-3.0\npragma solidity >=0.7.0 <0.9.0;\n\nimport {PriceApi} from \"./PriceApi.sol\";\nimport {FleepToken} from \"./FleepToken.sol\";\nimport {IERC20} from \"@openzeppelin/contracts/token/ERC20/IERC20.sol\";\n\ncontract FleepSwap {\n    PriceApi private _priceApi;\n    FleepToken private _fleepToken;\n\n    // contract admin\n    address private _deployer;\n\n    // charges 1% fee on every successful swaps\n    uint private swapFee = 1;\n\n    // ids to avoid conflicts\n    uint256 private POOL_ID;\n    uint256 private LIQUID_ID;\n    uint256 private PROVIDER_ID;\n\n    // token contract address => chainlink aggregrator address\n    // only in the token paired to USD format\n    mapping(address => address) public pairs;\n\n    // is a member of the pairs mapping\n    // but its the native pair MATIC not ERC20\n    address public NATIVE_PAIR;\n\n    // id => liquidity pools\n    mapping(uint => Pool) public pools;\n    // user address => provider data\n    mapping(address => Provider) public providers;\n    // id => liquids\n    mapping(uint => Liquid) public liquids;\n\n    // === Events === //\n\n    event LiquidityProvided(\n        address token0,\n        address token1,\n        uint256 amount0,\n        uint256 amount1,\n        address provider,\n        uint timestamp\n    );\n\n    event LiquidityRemoved(\n        address token0,\n        address token1,\n        uint256 amount0,\n        uint256 amount1,\n        address provider\n    );\n\n    event FleepSwaped(\n        uint256 amount,\n        uint256 amountOut,\n        address from,\n        address to,\n        uint timestamp\n    );\n\n    // === Structs === //\n\n    struct Pool {\n        uint id;\n        address token0;\n        address token1;\n        uint[] liquids;\n    }\n\n    struct Liquid {\n        uint id;\n        uint poolId;\n        uint256 amount0;\n        uint256 amount1;\n        address provider;\n    }\n\n    struct Provider {\n        uint id;\n        uint256 totalEarned;\n        uint256 balance;\n        uint[] liquids;\n    }\n\n    //  check the price of BNB/SUSHI\n    constructor(address priceApI, address fleepToken) {\n        _priceApi = PriceApi(priceApI);\n        _fleepToken = FleepToken(fleepToken);\n        _deployer = msg.sender;\n    }\n\n    // gets the exchanges rates for pair of tokens\n    // useful for user knowing the price of swap\n    // before the actually perform a swap\n    function getRate(address token0, address token1)\n        public\n        view\n        returns (uint256)\n    {\n        return estimate(pairs[token0], pairs[token1], 1);\n    }\n\n    // calculates all the size of the liquids\n    // in a pool of token pair\n    function getPoolSize(address token0, address token1)\n        public\n        view\n        returns (uint256, uint256)\n    {\n        uint poolId = _findPool(token0, token1);\n        return _poolSize(poolId);\n    }\n\n    // gets the exchanges rates for pair of tokens\n    // with accordance to amount of tokens\n    function estimate(\n        address token0,\n        address token1,\n        uint256 amount0\n    ) public view returns (uint256) {\n        int256 rate = _priceApi.getExchangeRate(pairs[token0], pairs[token1]);\n        return amount0 * uint256(rate);\n    }\n\n    // returns the pair address for $MATIC\n    function getNativePair() public view returns (address) {\n        return NATIVE_PAIR;\n    }\n\n    // register as a provider\n    function unlockedProviderAccount() public onlyGuest {\n        // to become a provider you must hodl at least 10\n        // tokens of Fleep Token\n        require(\n            _fleepToken.balanceOf(msg.sender) >= _fleepToken.inWei(10),\n            \"You must hodl at least 10 Fleep Tokens\"\n        );\n\n        PROVIDER_ID++;\n        providers[msg.sender] = Provider(\n            PROVIDER_ID,\n            providers[msg.sender].totalEarned,\n            providers[msg.sender].balance,\n            providers[msg.sender].liquids\n        );\n    }\n\n    // === Swapping === //\n\n    function swap(\n        address token0,\n        address token1,\n        uint256 amount0\n    ) public payable returns (uint256) {\n        require(amount0 >= 100, \"Amount to swap cannot be lesser than 100 WEI\");\n        require(\n            pairs[token0] != address(0),\n            \"Pair does not exists, Contact admin\"\n        );\n        require(\n            pairs[token1] != address(0),\n            \"Pair does not exists, Contact admin\"\n        );\n\n        uint256 rate;\n        uint256 amount1;\n\n        uint256 _safeAmount0 = amount0;\n\n        uint poolId = _findPool(token0, token1);\n        require(pools[poolId].id > 0, \"Pool does not exists\");\n\n        if (pairs[token0] == NATIVE_PAIR) {\n            _safeAmount0 = (msg.value - tx.gasprice);\n            rate = uint256(\n                _priceApi.getExchangeRate(NATIVE_PAIR, pairs[token1])\n            );\n            amount1 = _safeAmount0 * uint256(rate);\n\n            IERC20 quoteToken = IERC20(token1);\n\n            (, uint256 poolSizeToken1) = _poolSize(poolId);\n\n            // check if contract has enough destination token liquid\n            require(poolSizeToken1 >= amount1, \"Insufficient Pool Size\");\n\n            uint256 fee = _transferSwappedTokens0(quoteToken, amount1);\n            uint256 providersReward = ((fee * 80) / 100);\n\n            _aggregateLiquids(\n                amount0,\n                amount1,\n                poolSizeToken1,\n                pools[poolId],\n                providersReward\n            );\n        } else if (pairs[token1] == NATIVE_PAIR) {\n            rate = uint256(\n                _priceApi.getExchangeRate(pairs[token0], NATIVE_PAIR)\n            );\n            amount1 = _safeAmount0 * uint256(rate);\n\n            IERC20 baseToken = IERC20(token0);\n            baseToken.approve(address(this), _safeAmount0);\n            baseToken.transferFrom(msg.sender, address(this), _safeAmount0);\n\n            (uint256 poolSizeToken1, ) = _poolSize(poolId);\n            require(poolSizeToken1 >= amount1, \"Insufficient Pool Size\");\n\n            uint256 fee = _transferSwappedTokens1(amount1);\n            uint256 providersReward = ((fee * 80) / 100);\n\n            _aggregateLiquids(\n                amount0,\n                amount1,\n                poolSizeToken1,\n                pools[poolId],\n                providersReward\n            );\n        } else {\n            rate = uint256(\n                _priceApi.getExchangeRate(pairs[token0], pairs[token1])\n            );\n            amount1 = _safeAmount0 * uint256(rate);\n\n            IERC20 baseToken = IERC20(token0);\n            IERC20 quoteToken = IERC20(token1);\n\n            (, uint256 poolSizeToken1) = _poolSize(poolId);\n\n            // check if contract has enough destination token liquid\n            require(poolSizeToken1 >= amount1, \"Insufficient Pool Size\");\n\n            uint256 fee = _transferSwappedTokens2(\n                baseToken,\n                quoteToken,\n                amount0,\n                amount1,\n                msg.sender\n            );\n            uint256 providersReward = ((fee * 80) / 100);\n\n            _aggregateLiquids(\n                amount0,\n                amount1,\n                poolSizeToken1,\n                pools[poolId],\n                providersReward\n            );\n        }\n\n        // store the swap data on-chain\n        emit FleepSwaped(amount0, amount1, token0, token1, block.timestamp);\n\n        return amount1;\n    }\n\n    // === Providers === //\n\n    function createPool(address token0, address token1)\n        public\n        onlyProvider\n        returns (uint)\n    {\n        // create pool id\n        POOL_ID++;\n        // create a new pool from struct\n        Pool memory pool = pools[POOL_ID];\n        // register the pool\n        pools[POOL_ID] = Pool(POOL_ID, token0, token1, pool.liquids);\n        return POOL_ID;\n    }\n\n    function provideLiquidity(uint256 amount0, uint poolId)\n        public\n        payable\n        onlyProvider\n        returns (uint256, uint256)\n    {\n        require(amount0 >= 100, \"Amount cannot be lesser than 100 WEI\");\n\n        address token0 = pools[poolId].token0;\n        address token1 = pools[poolId].token1;\n\n        require(\n            pairs[token0] != address(0),\n            \"Pair does not exists, Contact admin\"\n        );\n        require(\n            pairs[token1] != address(0),\n            \"Pair does not exists, Contact admin\"\n        );\n\n        (bool hasLiquid, uint liquidIndex) = _liquidIndex(poolId, msg.sender);\n\n        uint256 rate;\n        uint256 amount1;\n\n        uint256 _safeAmount0 = amount0;\n\n        if (pairs[token0] == NATIVE_PAIR) {\n            // only in format of MATIC as pair subject\n            // ex MATIC/XEND\n            _safeAmount0 = (msg.value - tx.gasprice);\n\n            rate = uint256(\n                _priceApi.getExchangeRate(pairs[token0], pairs[token1])\n            );\n            amount1 = _safeAmount0 * uint256(rate);\n\n            // swap involve native token\n            IERC20 quoteToken = IERC20(token1);\n            _nativeStake(quoteToken, amount1);\n        } else {\n            rate = uint256(\n                _priceApi.getExchangeRate(pairs[token0], pairs[token1])\n            );\n            amount1 = _safeAmount0 * uint256(rate);\n\n            // both tokens are ERC20\n            IERC20 baseToken = IERC20(token0);\n            IERC20 quoteToken = IERC20(token1);\n            _stakeTokens(baseToken, quoteToken, _safeAmount0, amount1);\n        }\n\n        if (hasLiquid) {\n            // if liquid exist increment the amount\n            liquids[liquidIndex].amount0 += _safeAmount0;\n            liquids[liquidIndex].amount1 += amount1;\n        } else {\n            _createLiquid(poolId, _safeAmount0, amount1, msg.sender);\n        }\n\n        // store the liquidity data on-chain\n        emit LiquidityProvided(\n            token0,\n            token1,\n            _safeAmount0,\n            amount1,\n            msg.sender,\n            block.timestamp\n        );\n\n        return (_safeAmount0, amount1);\n    }\n\n    function removeLiquidity(uint id) public onlyProvider {}\n\n    function withDrawEarnings(uint256 amount) public onlyProvider {\n        require(\n            providers[msg.sender].balance >= amount,\n            \"Insufficient Balance\"\n        );\n        providers[msg.sender].balance -= amount;\n        payable(msg.sender).transfer(amount);\n    }\n\n    // === Administration === //\n\n    function updateNativePair(address pair) public onlyDeployer {\n        require(pair != address(0), \"Invalid Pair Address\");\n        NATIVE_PAIR = pair;\n    }\n\n    function updateSwapFee(uint fee) public onlyDeployer {\n        require(fee > 0, \"Platform fee cannot be zero\");\n        require(fee < 100, \"Platform fee cannot be a hundred\");\n        swapFee = fee;\n    }\n\n    function createPair(address token, address pair) public onlyDeployer {\n        require(token != address(0), \"Invalid Token Address\");\n        require(pair != address(0), \"Invalid Pair Address\");\n        pairs[token] = pair;\n    }\n\n    // === Internal Functions === //\n\n    function _liquidIndex(uint poolId, address provider)\n        private\n        view\n        returns (bool, uint)\n    {\n        uint position = 0;\n        bool found = false;\n\n        for (\n            uint index = 0;\n            index < providers[provider].liquids.length;\n            index++\n        ) {\n            if (providers[provider].liquids[index] == poolId) {\n                position = index;\n                found = true;\n                break;\n            }\n        }\n\n        return (found, position);\n    }\n\n    function _aggregateLiquids(\n        uint256 amount0,\n        uint256 amount1,\n        uint256 poolSizeToken1,\n        Pool memory pool,\n        uint256 fee\n    ) private {\n        // equally share swap impact on all provider liquids based on their contribution\n        for (uint index = 0; index < pool.liquids.length; index++) {\n            uint liquidId = pool.liquids[index];\n\n            // calculated with ratio of this liquid compared\n            // to other liquids contributing\n            uint256 additionAmount = ((liquids[liquidId].amount1 * amount0) /\n                poolSizeToken1);\n\n            // step I\n            liquids[liquidId].amount0 += additionAmount;\n\n            // calculated with ratio of this liquid compared\n            // to other liquids contributing\n            uint256 deductionAmount = ((liquids[liquidId].amount1 * amount1) /\n                poolSizeToken1);\n\n            // step II\n            liquids[liquidId].amount1 -= deductionAmount;\n\n            // reward the liquid provider\n            uint256 reward = ((liquids[liquidId].amount1 * fee) /\n                poolSizeToken1);\n\n            providers[liquids[liquidId].provider].totalEarned += reward;\n            providers[liquids[liquidId].provider].balance += reward;\n        }\n    }\n\n    function _transferSwappedTokens0(IERC20 token1, uint256 amount1)\n        private\n        returns (uint256)\n    {\n        uint256 _fee = ((amount1 / 100) * swapFee);\n\n        // give user their destination token minus fee\n        token1.transfer(msg.sender, (amount1 - _fee));\n\n        // convert fee to matic\n        return estimate(address(token1), NATIVE_PAIR, _fee);\n    }\n\n    function _transferSwappedTokens1(uint256 amount1)\n        public\n        payable\n        returns (uint256)\n    {\n        uint256 _fee = ((amount1 / 100) * swapFee);\n\n        // give user their destination token minus fee\n        payable(msg.sender).transfer(amount1 - _fee);\n        return _fee;\n    }\n\n    function _transferSwappedTokens2(\n        IERC20 token0,\n        IERC20 token1,\n        uint256 amount0,\n        uint256 amount1,\n        address owner\n    ) private returns (uint256) {\n        uint256 _fee = ((amount1 / 100) * swapFee);\n\n        // tranfers the base token from user to the\n        // smart contract\n        token0.approve(address(this), amount0);\n        token0.transferFrom(owner, address(this), amount0);\n\n        // give user their destination token minus fee\n        token1.transfer(owner, (amount1 - _fee));\n\n        // convert fee to matic\n        return estimate(address(token1), NATIVE_PAIR, _fee);\n    }\n\n    function _findPool(address token0, address token1)\n        private\n        view\n        returns (uint)\n    {\n        require(token0 != address(0) && token1 != address(0), \"Invalid\");\n        for (uint index = 0; index <= POOL_ID; index++) {\n            if (\n                pools[index].token0 == token0 && pools[index].token1 == token1\n            ) {\n                return index;\n            }\n\n            if (\n                pools[index].token0 == token1 && pools[index].token1 == token0\n            ) {\n                return index;\n            }\n        }\n        return 0;\n    }\n\n    function _createLiquid(\n        uint poolId,\n        uint256 amount0,\n        uint256 amount1,\n        address provider\n    ) private {\n        // otherwise create the new liquid\n        LIQUID_ID++;\n        // create and register the liquid\n        liquids[LIQUID_ID] = Liquid(\n            LIQUID_ID,\n            poolId,\n            amount0,\n            amount1,\n            provider\n        );\n        pools[poolId].liquids.push(LIQUID_ID);\n        providers[provider].liquids.push(LIQUID_ID);\n    }\n\n    function _nativeStake(IERC20 pairedToken, uint256 pairedAmount)\n        public\n        payable\n    {\n        // stake token0 to smart contract\n        pairedToken.approve(address(this), pairedAmount);\n        pairedToken.transferFrom(msg.sender, address(this), pairedAmount);\n    }\n\n    function _stakeTokens(\n        IERC20 token0,\n        IERC20 token1,\n        uint256 amount0,\n        uint amount1\n    ) private {\n        // stake token0 to smart contract\n        token0.approve(address(this), amount0);\n        token0.transferFrom(msg.sender, address(this), amount0);\n\n        // stake token1 to smart contract\n        token1.approve(address(this), amount1);\n        token1.transferFrom(msg.sender, address(this), amount1);\n    }\n\n    function _poolSize(uint id) private view returns (uint256, uint256) {\n        uint256 amount0;\n        uint256 amount1;\n        for (uint index = 0; index < pools[id].liquids.length; index++) {\n            uint liquidId = pools[id].liquids[index];\n            amount0 += liquids[liquidId].amount0;\n            amount1 += liquids[liquidId].amount1;\n        }\n        return (amount0, amount1);\n    }\n\n    // === Modifiers === //\n\n    modifier onlyGuest() {\n        require(providers[msg.sender].id == 0, \"Only Guest\");\n        _;\n    }\n\n    modifier onlyProvider() {\n        require(providers[msg.sender].id != 0, \"Only Provider\");\n        _;\n    }\n\n    modifier onlyDeployer() {\n        require(msg.sender == _deployer, \"Only Deployer\");\n        _;\n    }\n}\n",
  "sourcePath": "C:\\Users\\Arogundade Ibrahim\\Documents\\web3\\fleep\\contracts\\FleepSwap.sol",
  "compiler": {
    "name": "solc",
    "version": "0.8.16+commit.07a7930e.Emscripten.clang"
  },
  "schemaVersion": "3.4.10",
  "updatedAt": "2022-11-24T17:47:01.540Z",
  "devdoc": {
    "kind": "dev",
    "methods": {},
    "version": 1
  },
  "userdoc": {
    "kind": "user",
    "methods": {},
    "version": 1
  }
}