{
  "contractName": "Learn",
  "abi": [
    {
      "inputs": [
        {
          "internalType": "address",
          "name": "fleepToken",
          "type": "address"
        }
      ],
      "stateMutability": "nonpayable",
      "type": "constructor"
    },
    {
      "inputs": [
        {
          "internalType": "address",
          "name": "",
          "type": "address"
        }
      ],
      "name": "creators",
      "outputs": [
        {
          "internalType": "uint256",
          "name": "id",
          "type": "uint256"
        },
        {
          "internalType": "string",
          "name": "name",
          "type": "string"
        },
        {
          "internalType": "string",
          "name": "image",
          "type": "string"
        }
      ],
      "stateMutability": "view",
      "type": "function"
    },
    {
      "inputs": [
        {
          "internalType": "address",
          "name": "",
          "type": "address"
        }
      ],
      "name": "learners",
      "outputs": [
        {
          "internalType": "uint256",
          "name": "id",
          "type": "uint256"
        },
        {
          "internalType": "uint256",
          "name": "level",
          "type": "uint256"
        },
        {
          "internalType": "uint256",
          "name": "earned",
          "type": "uint256"
        },
        {
          "internalType": "uint256",
          "name": "totalEarned",
          "type": "uint256"
        }
      ],
      "stateMutability": "view",
      "type": "function"
    },
    {
      "inputs": [
        {
          "internalType": "uint256",
          "name": "",
          "type": "uint256"
        }
      ],
      "name": "quizzes",
      "outputs": [
        {
          "internalType": "uint256",
          "name": "id",
          "type": "uint256"
        }
      ],
      "stateMutability": "view",
      "type": "function"
    },
    {
      "inputs": [
        {
          "internalType": "uint256",
          "name": "",
          "type": "uint256"
        }
      ],
      "name": "resources",
      "outputs": [
        {
          "internalType": "string",
          "name": "title",
          "type": "string"
        },
        {
          "internalType": "string",
          "name": "image",
          "type": "string"
        },
        {
          "internalType": "string",
          "name": "description",
          "type": "string"
        },
        {
          "internalType": "uint256",
          "name": "reward",
          "type": "uint256"
        },
        {
          "internalType": "uint256",
          "name": "rewardPool",
          "type": "uint256"
        },
        {
          "internalType": "address",
          "name": "tokenAddress",
          "type": "address"
        },
        {
          "internalType": "uint256",
          "name": "quiz",
          "type": "uint256"
        },
        {
          "internalType": "uint256",
          "name": "cutoff",
          "type": "uint256"
        },
        {
          "internalType": "uint256",
          "name": "createdAt",
          "type": "uint256"
        },
        {
          "internalType": "uint256",
          "name": "startAt",
          "type": "uint256"
        },
        {
          "internalType": "uint256",
          "name": "endAt",
          "type": "uint256"
        },
        {
          "internalType": "address",
          "name": "creator",
          "type": "address"
        }
      ],
      "stateMutability": "view",
      "type": "function"
    },
    {
      "inputs": [],
      "name": "startLearning",
      "outputs": [],
      "stateMutability": "nonpayable",
      "type": "function"
    },
    {
      "inputs": [],
      "name": "submitQuiz",
      "outputs": [],
      "stateMutability": "nonpayable",
      "type": "function"
    },
    {
      "inputs": [
        {
          "internalType": "string",
          "name": "name",
          "type": "string"
        },
        {
          "internalType": "string",
          "name": "image",
          "type": "string"
        },
        {
          "internalType": "string",
          "name": "description",
          "type": "string"
        },
        {
          "internalType": "uint256",
          "name": "reward",
          "type": "uint256"
        },
        {
          "internalType": "uint256",
          "name": "rewardPool",
          "type": "uint256"
        },
        {
          "internalType": "address",
          "name": "tokenAddress",
          "type": "address"
        },
        {
          "internalType": "uint256[]",
          "name": "levels",
          "type": "uint256[]"
        },
        {
          "internalType": "uint256",
          "name": "cutoff",
          "type": "uint256"
        },
        {
          "internalType": "uint256",
          "name": "startAt",
          "type": "uint256"
        },
        {
          "internalType": "uint256",
          "name": "endAt",
          "type": "uint256"
        }
      ],
      "name": "createResource",
      "outputs": [],
      "stateMutability": "nonpayable",
      "type": "function"
    },
    {
      "inputs": [],
      "name": "deleteResource",
      "outputs": [],
      "stateMutability": "nonpayable",
      "type": "function"
    }
  ],
  "bytecode": "0x608060405260016003556002600455600360055534801561001f57600080fd5b50604051610adc380380610adc83398101604081905261003e91610095565b600080546001600160a01b0383166001600160a01b03199182161790915560018054909116331790556100726103e861007b565b600255506100f2565b600061008f82670de0b6b3a76400006100c5565b92915050565b6000602082840312156100a757600080fd5b81516001600160a01b03811681146100be57600080fd5b9392505050565b60008160001904831182151516156100ed57634e487b7160e01b600052601160045260246000fd5b500290565b6109db806101016000396000f3fe608060405234801561001057600080fd5b50600436106100885760003560e01c8063933166e11161005b578063933166e11461014e578063a867909314610170578063a95d40a914610183578063ec422f731461018357600080fd5b8063244d6daa1461008d57806360449f93146100c157806384f4e077146100cb57806388409afa14610120575b600080fd5b6100a061009b3660046105c7565b61018b565b6040516100b89c9b9a99989796959493929190610626565b60405180910390f35b6100c9610397565b005b6101006100d93660046106ed565b60076020526000908152604090208054600182015460028301546003909301549192909184565b6040805194855260208501939093529183015260608201526080016100b8565b61014061012e3660046105c7565b60096020526000908152604090205481565b6040519081526020016100b8565b61016161015c3660046106ed565b6103ec565b6040516100b89392919061070f565b6100c961017e36600461087b565b61051f565b6100c9610579565b6008602052600090815260409020805481906101a69061096b565b80601f01602080910402602001604051908101604052809291908181526020018280546101d29061096b565b801561021f5780601f106101f45761010080835404028352916020019161021f565b820191906000526020600020905b81548152906001019060200180831161020257829003601f168201915b5050505050908060010180546102349061096b565b80601f01602080910402602001604051908101604052809291908181526020018280546102609061096b565b80156102ad5780601f10610282576101008083540402835291602001916102ad565b820191906000526020600020905b81548152906001019060200180831161029057829003601f168201915b5050505050908060020180546102c29061096b565b80601f01602080910402602001604051908101604052809291908181526020018280546102ee9061096b565b801561033b5780601f106103105761010080835404028352916020019161033b565b820191906000526020600020905b81548152906001019060200180831161031e57829003601f168201915b505050600384015460048501546005860154600687015460088801546009890154600a8a0154600b8b0154600c909b0154999a969995985073ffffffffffffffffffffffffffffffffffffffff9485169750929591949093168c565b3360009081526006602052604081205490036103ea5760405162461bcd60e51b815260206004820152600d60248201526c27b7363c90283937bb34b232b960991b60448201526064015b60405180910390fd5b565b6006602052600090815260409020805460018201805491929161040e9061096b565b80601f016020809104026020016040519081016040528092919081815260200182805461043a9061096b565b80156104875780601f1061045c57610100808354040283529160200191610487565b820191906000526020600020905b81548152906001019060200180831161046a57829003601f168201915b50505050509080600201805461049c9061096b565b80601f01602080910402602001604051908101604052809291908181526020018280546104c89061096b565b80156105155780601f106104ea57610100808354040283529160200191610515565b820191906000526020600020905b8154815290600101906020018083116104f857829003601f168201915b5050505050905083565b33600090815260066020526040812054900361056d5760405162461bcd60e51b815260206004820152600d60248201526c27b7363c90283937bb34b232b960991b60448201526064016103e1565b50505050505050505050565b3360009081526007602052604081205490036103ea5760405162461bcd60e51b815260206004820152600d60248201526c27b7363c90283937bb34b232b960991b60448201526064016103e1565b6000602082840312156105d957600080fd5b5035919050565b6000815180845260005b81811015610606576020818501810151868301820152016105ea565b506000602082860101526020601f19601f83011685010191505092915050565b6101808152600061063b61018083018f6105e0565b828103602084015261064d818f6105e0565b90508281036040840152610661818e6105e0565b606084019c909c525050608081019890985273ffffffffffffffffffffffffffffffffffffffff96871660a089015260c088019590955260e087019390935261010086019190915261012085015261014084015216610160909101529392505050565b803573ffffffffffffffffffffffffffffffffffffffff811681146106e857600080fd5b919050565b6000602082840312156106ff57600080fd5b610708826106c4565b9392505050565b83815260606020820152600061072860608301856105e0565b828103604084015261073a81856105e0565b9695505050505050565b634e487b7160e01b600052604160045260246000fd5b604051601f8201601f1916810167ffffffffffffffff8111828210171561078357610783610744565b604052919050565b600082601f83011261079c57600080fd5b813567ffffffffffffffff8111156107b6576107b6610744565b6107c9601f8201601f191660200161075a565b8181528460208386010111156107de57600080fd5b816020850160208301376000918101602001919091529392505050565b600082601f83011261080c57600080fd5b8135602067ffffffffffffffff82111561082857610828610744565b8160051b61083782820161075a565b928352848101820192828101908785111561085157600080fd5b83870192505b8483101561087057823582529183019190830190610857565b979650505050505050565b6000806000806000806000806000806101408b8d03121561089b57600080fd5b8a3567ffffffffffffffff808211156108b357600080fd5b6108bf8e838f0161078b565b9b5060208d01359150808211156108d557600080fd5b6108e18e838f0161078b565b9a5060408d01359150808211156108f757600080fd5b6109038e838f0161078b565b995060608d0135985060808d0135975061091f60a08e016106c4565b965060c08d013591508082111561093557600080fd5b506109428d828e016107fb565b94505060e08b013592506101008b013591506101208b013590509295989b9194979a5092959850565b600181811c9082168061097f57607f821691505b60208210810361099f57634e487b7160e01b600052602260045260246000fd5b5091905056fea2646970667358221220310a67e41c465d06ff67388e22043dec21b370084315ddb103f4e92124e4f6f564736f6c63430008100033",
  "immutableReferences": {},
  "source": "// SPDX-License-Identifier: GPL-3.0\npragma solidity >=0.7.0 <0.9.0;\n\nimport {FleepToken} from \"./FleepToken.sol\";\n\ncontract Learn {\n    FleepToken private _fleepToken;\n    address private _deployer;\n\n    uint private CREATOR_FEE;\n    uint private INPUT_FORMAT = 1;\n    uint private RADIO_FORMAT = 2;\n    uint private CHECKBOX_FORMAT = 3;\n\n    mapping(address => Creator) public creators;\n    mapping(address => Learner) public learners;\n    mapping(uint => Resource) public resources;\n    mapping(uint => Quiz) public quizzes;\n\n    constructor(address fleepToken) {\n        _fleepToken = FleepToken(fleepToken);\n        _deployer = msg.sender;\n\n        CREATOR_FEE = _inWei(1000);\n    }\n\n    struct Creator {\n        uint id;\n        string name;\n        string image;\n    }\n\n    struct Learner {\n        uint id;\n        uint level;\n        uint256 earned;\n        uint256 totalEarned;\n    }\n\n    struct Resource {\n        string title;\n        string image; // ipfs src\n        string description;\n        uint256 reward;\n        uint256 rewardPool;\n        address tokenAddress;\n        uint quiz;\n        uint[] levels;\n        uint cutoff;\n        uint createdAt;\n        uint startAt;\n        uint endAt;\n        address creator;\n    }\n\n    struct Quiz {\n        uint id;\n        string[] questions;\n        string[] answers;\n        uint[] formats; // input or radio or checkbox\n    }\n\n    function startLearning() public onlyLearners {}\n\n    function submitQuiz() public onlyLearners {}\n\n    function createResource(\n        string memory name,\n        string memory image,\n        string memory description,\n        uint256 reward,\n        uint256 rewardPool,\n        address tokenAddress,\n        uint[] memory levels,\n        uint cutoff,\n        uint startAt,\n        uint endAt\n    ) public onlyCreators {}\n\n    function deleteResource() public onlyCreators {}\n\n    // == Internal Functions == //\n\n    function _markQuiz() private returns(uint, uint) {\n      uint score;\n      uint total;\n    }\n\n    function _inWei(uint256 amount) private pure returns (uint256) {\n        return amount * 10 ** 18;\n    }\n\n    modifier onlyGuest() {\n        require(learners[msg.sender].id == 0, \"Only Guest\");\n        require(creators[msg.sender].id == 0, \"Only Guest\");\n        _;\n    }\n\n    modifier onlyLearners() {\n        require(learners[msg.sender].id != 0, \"Only Provider\");\n        _;\n    }\n\n    modifier onlyCreators() {\n        require(creators[msg.sender].id != 0, \"Only Provider\");\n        _;\n    }\n\n    modifier onlyDeployer() {\n        require(msg.sender == _deployer, \"Only Deployer\");\n        _;\n    }\n}\n",
  "sourcePath": "C:\\Users\\Arogundade Ibrahim\\Documents\\web3\\fleep\\contracts\\Learn.sol",
  "compiler": {
    "name": "solc",
    "version": "0.8.16+commit.07a7930e.Emscripten.clang"
  },
  "schemaVersion": "3.4.10",
  "updatedAt": "2022-12-03T13:02:26.257Z",
  "devdoc": {
    "kind": "dev",
    "methods": {},
    "version": 1
  },
  "userdoc": {
    "kind": "user",
    "methods": {},
    "version": 1
  }
}