{
  "contractName": "PriceApi",
  "abi": [
    {
      "inputs": [
        {
          "internalType": "address",
          "name": "baseAddress",
          "type": "address"
        },
        {
          "internalType": "address",
          "name": "quoteAddress",
          "type": "address"
        }
      ],
      "name": "getExchangeRate",
      "outputs": [
        {
          "internalType": "int256",
          "name": "",
          "type": "int256"
        }
      ],
      "stateMutability": "view",
      "type": "function"
    }
  ],
  "bytecode": "0x608060405234801561001057600080fd5b506106fa806100206000396000f3fe608060405234801561001057600080fd5b506004361061002b5760003560e01c8063baaa61be14610030575b600080fd5b61004361003e366004610409565b610055565b60405190815260200160405180910390f35b6000808373ffffffffffffffffffffffffffffffffffffffff1663313ce5676040518163ffffffff1660e01b8152600401602060405180830381865afa1580156100a3573d6000803e3d6000fd5b505050506040513d601f19601f820116820180604052508101906100c7919061043c565b905060ff8116158015906100df5750601260ff821611155b610149576040517f08c379a000000000000000000000000000000000000000000000000000000000815260206004820152601460248201527f556e737570706f7274656420446563696d616c73000000000000000000000000604482015260640160405180910390fd5b600061015960ff8316600a610559565b905060008573ffffffffffffffffffffffffffffffffffffffff1663feaf968c6040518163ffffffff1660e01b815260040160a060405180830381865afa1580156101a8573d6000803e3d6000fd5b505050506040513d601f19601f820116820180604052508101906101cc919061057f565b50505091505060008673ffffffffffffffffffffffffffffffffffffffff1663313ce5676040518163ffffffff1660e01b8152600401602060405180830381865afa15801561021f573d6000803e3d6000fd5b505050506040513d601f19601f82011682018060405250810190610243919061043c565b905061025082828661036d565b915060008673ffffffffffffffffffffffffffffffffffffffff1663feaf968c6040518163ffffffff1660e01b815260040160a060405180830381865afa15801561029f573d6000803e3d6000fd5b505050506040513d601f19601f820116820180604052508101906102c3919061057f565b50505091505060008773ffffffffffffffffffffffffffffffffffffffff1663313ce5676040518163ffffffff1660e01b8152600401602060405180830381865afa158015610316573d6000803e3d6000fd5b505050506040513d601f19601f8201168201806040525081019061033a919061043c565b905061034782828861036d565b91508161035486866105cf565b61035e919061066f565b96505050505050505b92915050565b60008160ff168360ff1610156103a65761038783836106ab565b6103959060ff16600a610559565b61039f90856105cf565b90506103d9565b8160ff168360ff1611156103d6576103be82846106ab565b6103cc9060ff16600a610559565b61039f908561066f565b50825b9392505050565b803573ffffffffffffffffffffffffffffffffffffffff8116811461040457600080fd5b919050565b6000806040838503121561041c57600080fd5b610425836103e0565b9150610433602084016103e0565b90509250929050565b60006020828403121561044e57600080fd5b815160ff811681146103d957600080fd5b634e487b7160e01b600052601160045260246000fd5b600181815b808511156104b05781600019048211156104965761049661045f565b808516156104a357918102915b93841c939080029061047a565b509250929050565b6000826104c757506001610367565b816104d457506000610367565b81600181146104ea57600281146104f457610510565b6001915050610367565b60ff8411156105055761050561045f565b50506001821b610367565b5060208310610133831016604e8410600b8410161715610533575081810a610367565b61053d8383610475565b80600019048211156105515761055161045f565b029392505050565b60006103d983836104b8565b805169ffffffffffffffffffff8116811461040457600080fd5b600080600080600060a0868803121561059757600080fd5b6105a086610565565b94506020860151935060408601519250606086015191506105c360808701610565565b90509295509295909350565b60007f7fffffffffffffffffffffffffffffffffffffffffffffffffffffffffffffff6000841360008413858304851182821616156106105761061061045f565b600160ff1b600087128682058812818416161561062f5761062f61045f565b6000871292508782058712848416161561064b5761064b61045f565b878505871281841616156106615761066161045f565b505050929093029392505050565b60008261068c57634e487b7160e01b600052601260045260246000fd5b600160ff1b8214600019841416156106a6576106a661045f565b500590565b60ff82811682821603908111156103675761036761045f56fea26469706673582212207ed773cf76eba4e9c91d3dcf6333cf9e14c5ee1b012b63684c260e2f43a30f3c64736f6c63430008100033",
  "immutableReferences": {},
  "source": "// SPDX-License-Identifier: GPL-3.0\npragma solidity >=0.7.0 <0.9.0;\n\nimport \"@chainlink/contracts/src/v0.8/interfaces/AggregatorV3Interface.sol\";\n\ncontract PriceApi {\n    function getExchangeRate(address baseAddress, address quoteAddress)\n        public\n        view\n        returns (int256)\n    {\n        uint8 _decimal = AggregatorV3Interface(baseAddress).decimals();\n\n        // validate the base token decimals\n        require(_decimal > uint8(0) && _decimal <= uint8(18), \"Unsupported Decimals\");\n\n        int256 _decimals = int256(10**uint256(_decimal));\n\n        // extract only the base token price from the returns\n        (, int256 basePrice, , , ) = AggregatorV3Interface(baseAddress).latestRoundData();\n\n        // get the base token decimals\n        uint8 baseDecimals = AggregatorV3Interface(baseAddress).decimals();\n\n        // get the base token price\n        basePrice = scalePrice(basePrice, baseDecimals, _decimal);\n\n        // extract only the quote token price from the returns\n        (, int256 quotePrice, , , ) = AggregatorV3Interface(quoteAddress).latestRoundData();\n\n        // get the quote token decimals\n        uint8 quoteDecimals = AggregatorV3Interface(quoteAddress).decimals();\n\n        // get the quote token price\n        quotePrice = scalePrice(quotePrice, quoteDecimals, _decimal);\n\n        return (basePrice * _decimals) / quotePrice;\n    }\n\n    function scalePrice(\n        int256 _price,\n        uint8 _priceDecimals,\n        uint8 _decimals\n    ) internal pure returns (int256) {\n        // scale the price to ensure a accurate price\n\n        if (_priceDecimals < _decimals) {\n            return _price * int256(10**uint256(_decimals - _priceDecimals));\n        } else if (_priceDecimals > _decimals) {\n            return _price / int256(10**uint256(_priceDecimals - _decimals));\n        }\n\n        return _price;\n    }\n}\n",
  "sourcePath": "C:\\Users\\Arogundade Ibrahim\\Documents\\web3\\fleep\\contracts\\PriceApi.sol",
  "compiler": {
    "name": "solc",
    "version": "0.8.16+commit.07a7930e.Emscripten.clang"
  },
  "schemaVersion": "3.4.10",
  "updatedAt": "2022-11-23T20:56:37.993Z",
  "devdoc": {
    "kind": "dev",
    "methods": {},
    "version": 1
  },
  "userdoc": {
    "kind": "user",
    "methods": {},
    "version": 1
  }
}