{
  "contractName": "Swap",
  "abi": [
    {
      "inputs": [
        {
          "internalType": "address",
          "name": "priceApI",
          "type": "address"
        },
        {
          "internalType": "address",
          "name": "token",
          "type": "address"
        }
      ],
      "stateMutability": "nonpayable",
      "type": "constructor"
    },
    {
      "anonymous": false,
      "inputs": [
        {
          "indexed": false,
          "internalType": "uint256",
          "name": "amount",
          "type": "uint256"
        },
        {
          "indexed": false,
          "internalType": "uint256",
          "name": "amountOut",
          "type": "uint256"
        },
        {
          "indexed": false,
          "internalType": "address",
          "name": "from",
          "type": "address"
        },
        {
          "indexed": false,
          "internalType": "address",
          "name": "to",
          "type": "address"
        },
        {
          "indexed": false,
          "internalType": "uint256",
          "name": "timestamp",
          "type": "uint256"
        }
      ],
      "name": "FleepSwaped",
      "type": "event"
    },
    {
      "anonymous": false,
      "inputs": [
        {
          "indexed": false,
          "internalType": "address",
          "name": "token0",
          "type": "address"
        },
        {
          "indexed": false,
          "internalType": "address",
          "name": "token1",
          "type": "address"
        },
        {
          "indexed": false,
          "internalType": "uint256",
          "name": "amount0",
          "type": "uint256"
        },
        {
          "indexed": false,
          "internalType": "uint256",
          "name": "amount1",
          "type": "uint256"
        },
        {
          "indexed": false,
          "internalType": "address",
          "name": "provider",
          "type": "address"
        },
        {
          "indexed": false,
          "internalType": "uint256",
          "name": "timestamp",
          "type": "uint256"
        }
      ],
      "name": "LiquidProvided",
      "type": "event"
    },
    {
      "anonymous": false,
      "inputs": [
        {
          "indexed": false,
          "internalType": "address",
          "name": "token0",
          "type": "address"
        },
        {
          "indexed": false,
          "internalType": "address",
          "name": "token1",
          "type": "address"
        },
        {
          "indexed": false,
          "internalType": "uint256",
          "name": "amount0",
          "type": "uint256"
        },
        {
          "indexed": false,
          "internalType": "uint256",
          "name": "amount1",
          "type": "uint256"
        },
        {
          "indexed": false,
          "internalType": "address",
          "name": "provider",
          "type": "address"
        }
      ],
      "name": "LiquidRemoved",
      "type": "event"
    },
    {
      "inputs": [],
      "name": "NATIVE_PAIR",
      "outputs": [
        {
          "internalType": "address",
          "name": "",
          "type": "address"
        }
      ],
      "stateMutability": "view",
      "type": "function"
    },
    {
      "inputs": [
        {
          "internalType": "uint256",
          "name": "",
          "type": "uint256"
        }
      ],
      "name": "liquids",
      "outputs": [
        {
          "internalType": "uint256",
          "name": "id",
          "type": "uint256"
        },
        {
          "internalType": "uint256",
          "name": "poolId",
          "type": "uint256"
        },
        {
          "internalType": "uint256",
          "name": "amount0",
          "type": "uint256"
        },
        {
          "internalType": "uint256",
          "name": "amount1",
          "type": "uint256"
        },
        {
          "internalType": "address",
          "name": "provider",
          "type": "address"
        }
      ],
      "stateMutability": "view",
      "type": "function"
    },
    {
      "inputs": [
        {
          "internalType": "address",
          "name": "",
          "type": "address"
        }
      ],
      "name": "pairs",
      "outputs": [
        {
          "internalType": "address",
          "name": "",
          "type": "address"
        }
      ],
      "stateMutability": "view",
      "type": "function"
    },
    {
      "inputs": [
        {
          "internalType": "uint256",
          "name": "",
          "type": "uint256"
        }
      ],
      "name": "pools",
      "outputs": [
        {
          "internalType": "uint256",
          "name": "id",
          "type": "uint256"
        },
        {
          "internalType": "address",
          "name": "token0",
          "type": "address"
        },
        {
          "internalType": "address",
          "name": "token1",
          "type": "address"
        }
      ],
      "stateMutability": "view",
      "type": "function"
    },
    {
      "inputs": [
        {
          "internalType": "address",
          "name": "",
          "type": "address"
        }
      ],
      "name": "providers",
      "outputs": [
        {
          "internalType": "uint256",
          "name": "id",
          "type": "uint256"
        },
        {
          "internalType": "uint256",
          "name": "totalEarned",
          "type": "uint256"
        },
        {
          "internalType": "uint256",
          "name": "balance",
          "type": "uint256"
        },
        {
          "internalType": "address",
          "name": "vaultAddress",
          "type": "address"
        },
        {
          "internalType": "bool",
          "name": "autoStake",
          "type": "bool"
        }
      ],
      "stateMutability": "view",
      "type": "function"
    },
    {
      "inputs": [
        {
          "internalType": "address",
          "name": "token0",
          "type": "address"
        },
        {
          "internalType": "address",
          "name": "token1",
          "type": "address"
        }
      ],
      "name": "getPoolSize",
      "outputs": [
        {
          "internalType": "uint256",
          "name": "",
          "type": "uint256"
        },
        {
          "internalType": "uint256",
          "name": "",
          "type": "uint256"
        }
      ],
      "stateMutability": "view",
      "type": "function"
    },
    {
      "inputs": [
        {
          "internalType": "address",
          "name": "token0",
          "type": "address"
        },
        {
          "internalType": "address",
          "name": "token1",
          "type": "address"
        },
        {
          "internalType": "uint256",
          "name": "amount0",
          "type": "uint256"
        }
      ],
      "name": "estimate",
      "outputs": [
        {
          "internalType": "uint256",
          "name": "",
          "type": "uint256"
        }
      ],
      "stateMutability": "view",
      "type": "function"
    },
    {
      "inputs": [],
      "name": "getContractAddress",
      "outputs": [
        {
          "internalType": "address",
          "name": "",
          "type": "address"
        }
      ],
      "stateMutability": "view",
      "type": "function"
    },
    {
      "inputs": [],
      "name": "getNativePair",
      "outputs": [
        {
          "internalType": "address",
          "name": "",
          "type": "address"
        }
      ],
      "stateMutability": "view",
      "type": "function"
    },
    {
      "inputs": [
        {
          "internalType": "address",
          "name": "_vaultAddress",
          "type": "address"
        }
      ],
      "name": "unlockedProviderAccount",
      "outputs": [],
      "stateMutability": "nonpayable",
      "type": "function"
    },
    {
      "inputs": [
        {
          "internalType": "address",
          "name": "token0",
          "type": "address"
        },
        {
          "internalType": "address",
          "name": "token1",
          "type": "address"
        },
        {
          "internalType": "uint256",
          "name": "amount0",
          "type": "uint256"
        }
      ],
      "name": "swap",
      "outputs": [
        {
          "internalType": "uint256",
          "name": "",
          "type": "uint256"
        }
      ],
      "stateMutability": "payable",
      "type": "function"
    },
    {
      "inputs": [
        {
          "internalType": "uint256",
          "name": "poolId",
          "type": "uint256"
        },
        {
          "internalType": "uint256",
          "name": "amount0",
          "type": "uint256"
        }
      ],
      "name": "provideLiquidity",
      "outputs": [],
      "stateMutability": "payable",
      "type": "function"
    },
    {
      "inputs": [
        {
          "internalType": "uint256",
          "name": "id",
          "type": "uint256"
        }
      ],
      "name": "removeLiquidity",
      "outputs": [],
      "stateMutability": "nonpayable",
      "type": "function"
    },
    {
      "inputs": [
        {
          "internalType": "address",
          "name": "token0",
          "type": "address"
        },
        {
          "internalType": "address",
          "name": "token1",
          "type": "address"
        }
      ],
      "name": "createPool",
      "outputs": [
        {
          "internalType": "uint256",
          "name": "",
          "type": "uint256"
        }
      ],
      "stateMutability": "nonpayable",
      "type": "function"
    },
    {
      "inputs": [
        {
          "internalType": "bool",
          "name": "_autoStake",
          "type": "bool"
        }
      ],
      "name": "updateProviderProfile",
      "outputs": [],
      "stateMutability": "nonpayable",
      "type": "function"
    },
    {
      "inputs": [
        {
          "internalType": "uint256",
          "name": "amount",
          "type": "uint256"
        }
      ],
      "name": "withDrawEarnings",
      "outputs": [],
      "stateMutability": "nonpayable",
      "type": "function"
    },
    {
      "inputs": [
        {
          "internalType": "address",
          "name": "receiver",
          "type": "address"
        }
      ],
      "name": "withDrawEarningsToVault",
      "outputs": [],
      "stateMutability": "nonpayable",
      "type": "function"
    },
    {
      "inputs": [
        {
          "internalType": "address",
          "name": "pair",
          "type": "address"
        }
      ],
      "name": "updateNativePair",
      "outputs": [],
      "stateMutability": "nonpayable",
      "type": "function"
    },
    {
      "inputs": [
        {
          "internalType": "uint256",
          "name": "fee",
          "type": "uint256"
        }
      ],
      "name": "updateSwapFee",
      "outputs": [],
      "stateMutability": "nonpayable",
      "type": "function"
    },
    {
      "inputs": [
        {
          "internalType": "address",
          "name": "token",
          "type": "address"
        },
        {
          "internalType": "address",
          "name": "pair",
          "type": "address"
        }
      ],
      "name": "createPair",
      "outputs": [],
      "stateMutability": "nonpayable",
      "type": "function"
    },
    {
      "inputs": [
        {
          "internalType": "uint256",
          "name": "amount",
          "type": "uint256"
        },
        {
          "internalType": "address",
          "name": "receiver",
          "type": "address"
        }
      ],
      "name": "withDrawPlaformEarnings",
      "outputs": [],
      "stateMutability": "nonpayable",
      "type": "function"
    },
    {
      "inputs": [
        {
          "internalType": "address",
          "name": "token0",
          "type": "address"
        },
        {
          "internalType": "uint256",
          "name": "amount0",
          "type": "uint256"
        },
        {
          "internalType": "uint256",
          "name": "amount1",
          "type": "uint256"
        },
        {
          "internalType": "address",
          "name": "owner",
          "type": "address"
        }
      ],
      "name": "_transferSwappedTokens1",
      "outputs": [
        {
          "internalType": "uint256",
          "name": "",
          "type": "uint256"
        }
      ],
      "stateMutability": "payable",
      "type": "function"
    }
  ],
  "bytecode": "0x60806040526001600455600980546001600160a01b03191673d0d5e3db44de05e9f294bb0a3beeaf030de24ada1790553480156200003c57600080fd5b5060405162002f8e38038062002f8e8339810160408190526200005f916200026c565b600080546001600160a01b038085166001600160a01b03199283161790925560018054928416928216929092179091556002805490911633179055620000cd73c0ec2dca88dbe3c91518958c935ce250c718f0eb727a22900a3b98143368bd5906f8e17e9867581b62000121565b62000101733814cf88e2675041504c7d6404f7b8978f8b65b4730fcaa9c899ec5a91ebc3d5dd869de833b06fb04662000121565b60095462000119906001600160a01b03168062000121565b5050620002a4565b6002546001600160a01b03163314620001715760405162461bcd60e51b815260206004820152600d60248201526c27b7363c902232b83637bcb2b960991b60448201526064015b60405180910390fd5b6001600160a01b038216620001c95760405162461bcd60e51b815260206004820152601560248201527f496e76616c696420546f6b656e20416464726573730000000000000000000000604482015260640162000168565b6001600160a01b038116620002215760405162461bcd60e51b815260206004820152601460248201527f496e76616c696420506169722041646472657373000000000000000000000000604482015260640162000168565b6001600160a01b03918216600090815260086020526040902080546001600160a01b03191691909216179055565b80516001600160a01b03811681146200026757600080fd5b919050565b600080604083850312156200028057600080fd5b6200028b836200024f565b91506200029b602084016200024f565b90509250929050565b612cda80620002b46000396000f3fe6080604052600436106101755760003560e01c806391e5f37f116100cb578063d30dce7d1161007f578063ecd44aef11610059578063ecd44aef14610484578063eebb63ed146104b9578063fe33b3021461053d57600080fd5b8063d30dce7d14610431578063df791e5014610451578063e34336151461046457600080fd5b8063ac4afa38116100b0578063ac4afa3814610384578063bf16f65a146103f1578063c9c653961461041157600080fd5b806391e5f37f146103445780639c8f9f231461036457600080fd5b80634c133bbe1161012d57806378c480db1161010757806378c480db146102f35780637a16af7f146103135780638a2627f01461032657600080fd5b80634c133bbe1461029157806351fde344146102b3578063665a9a2d146102d357600080fd5b8063102a5f911161015e578063102a5f911461022a57806332a2c5d01461024a578063344bfb591461027157600080fd5b8063061bf0451461017a5780630787bc27146101a0575b600080fd5b61018d610188366004612a5f565b610573565b6040519081526020015b60405180910390f35b3480156101ac57600080fd5b506101f76101bb366004612aa5565b600b602052600090815260409020805460018201546002830154600390930154919290916001600160a01b03811690600160a01b900460ff1685565b604080519586526020860194909452928401919091526001600160a01b031660608301521515608082015260a001610197565b34801561023657600080fd5b5061018d610245366004612ac0565b61065a565b34801561025657600080fd5b50305b6040516001600160a01b039091168152602001610197565b34801561027d57600080fd5b50600954610259906001600160a01b031681565b34801561029d57600080fd5b506102b16102ac366004612aa5565b610729565b005b3480156102bf57600080fd5b506102b16102ce366004612b0d565b610a42565b3480156102df57600080fd5b506102b16102ee366004612aa5565b610ad9565b3480156102ff57600080fd5b506102b161030e366004612b31565b610c4c565b6102b1610321366004612b5d565b610d3a565b34801561033257600080fd5b506009546001600160a01b0316610259565b34801561035057600080fd5b506102b161035f366004612aa5565b6111a2565b34801561037057600080fd5b506102b161037f366004612b7f565b611271565b34801561039057600080fd5b506103cc61039f366004612b7f565b600a6020526000908152604090208054600182015460029092015490916001600160a01b03908116911683565b604080519384526001600160a01b039283166020850152911690820152606001610197565b3480156103fd57600080fd5b506102b161040c366004612b7f565b611576565b34801561041d57600080fd5b506102b161042c366004612b98565b611665565b34801561043d57600080fd5b506102b161044c366004612b7f565b611796565b61018d61045f366004612ac0565b61189e565b34801561047057600080fd5b5061018d61047f366004612b98565b611e24565b34801561049057600080fd5b506104a461049f366004612b98565b611e85565b60408051928352602083019190915201610197565b3480156104c557600080fd5b5061050c6104d4366004612b7f565b600c6020526000908152604090208054600182015460028301546003840154600490940154929391929091906001600160a01b031685565b6040805195865260208601949094529284019190915260608301526001600160a01b0316608082015260a001610197565b34801561054957600080fd5b50610259610558366004612aa5565b6008602052600090815260409020546001600160a01b031681565b60045460009085908290610588606487612bd8565b6105929190612bfa565b6040516323b872dd60e01b81526001600160a01b03868116600483015230602483015260448201899052919250908316906323b872dd906064016020604051808303816000875af11580156105eb573d6000803e3d6000fd5b505050506040513d601f19601f8201168201806040525081019061060f9190612c19565b506001600160a01b0384166108fc6106278388612c36565b6040518115909202916000818181858888f1935050505015801561064f573d6000803e3d6000fd5b509695505050505050565b600080546001600160a01b038581168352600860205260408084205486831685528185205491517fbaaa61be000000000000000000000000000000000000000000000000000000008152908316600482015290821660248201528392919091169063baaa61be90604401602060405180830381865afa1580156106e1573d6000803e3d6000fd5b505050506040513d601f19601f820116820180604052508101906107059190612c49565b90506305f5e1006107168285612bfa565b6107209190612bd8565b95945050505050565b336000908152600b60205260409020541561078b5760405162461bcd60e51b815260206004820152600a60248201527f4f6e6c792047756573740000000000000000000000000000000000000000000060448201526064015b60405180910390fd5b6001546040516364614c7160e01b8152600a60048201526001600160a01b03909116906364614c7190602401602060405180830381865afa1580156107d4573d6000803e3d6000fd5b505050506040513d601f19601f820116820180604052508101906107f89190612c49565b6001546040517f70a082310000000000000000000000000000000000000000000000000000000081523360048201526001600160a01b03909116906370a0823190602401602060405180830381865afa158015610859573d6000803e3d6000fd5b505050506040513d601f19601f8201168201806040525081019061087d9190612c49565b10156108f15760405162461bcd60e51b815260206004820152602660248201527f596f75206d75737420686f646c206174206c6561737420313020466c6565702060448201527f546f6b656e7300000000000000000000000000000000000000000000000000006064820152608401610782565b6007805490600061090183612c62565b90915550506040805160c0810182526007548152336000818152600b60208181528583206001810154828701526002810154868801526001600160a01b03881660608701526080860184905293909252815260049091018054845181840281018401909552808552929360a085019390928301828280156109a157602002820191906000526020600020905b81548152602001906001019080831161098d575b505050919092525050336000908152600b602090815260409182902083518155838201516001820155918301516002830155606083015160038301805460808601511515600160a01b027fffffffffffffffffffffff0000000000000000000000000000000000000000009091166001600160a01b03939093169290921791909117905560a08301518051610a3c92600485019201906129e3565b50505050565b336000908152600b60205260408120549003610a905760405162461bcd60e51b815260206004820152600d60248201526c27b7363c90283937bb34b232b960991b6044820152606401610782565b336000908152600b602052604090206003018054911515600160a01b027fffffffffffffffffffffff00ffffffffffffffffffffffffffffffffffffffff909216919091179055565b336000908152600b60205260408120549003610b275760405162461bcd60e51b815260206004820152600d60248201526c27b7363c90283937bb34b232b960991b6044820152606401610782565b336000908152600b602052604090819020600201546001805492516364614c7160e01b815291926001600160a01b0316916364614c7191610b6e9160040190815260200190565b602060405180830381865afa158015610b8b573d6000803e3d6000fd5b505050506040513d601f19601f82011682018060405250810190610baf9190612c49565b811015610bfe5760405162461bcd60e51b815260206004820152601f60248201527f42616c616e6365204d7573742062652061746c656173742031204d41544943006044820152606401610782565b6040516001600160a01b0383169082156108fc029083906000818181858888f19350505050158015610c34573d6000803e3d6000fd5b5050336000908152600b602052604081206002015550565b6002546001600160a01b03163314610c965760405162461bcd60e51b815260206004820152600d60248201526c27b7363c902232b83637bcb2b960991b6044820152606401610782565b816003541015610ce85760405162461bcd60e51b815260206004820152601460248201527f496e73756666696369656e742042616c616e63650000000000000000000000006044820152606401610782565b6040516001600160a01b0382169083156108fc029084906000818181858888f19350505050158015610d1e573d6000803e3d6000fd5b508160036000828254610d319190612c36565b90915550505050565b336000908152600b60205260408120549003610d885760405162461bcd60e51b815260206004820152600d60248201526c27b7363c90283937bb34b232b960991b6044820152606401610782565b6064811015610dfe5760405162461bcd60e51b8152602060048201526024808201527f416d6f756e742063616e6e6f74206265206c6573736572207468616e2031303060448201527f20574549000000000000000000000000000000000000000000000000000000006064820152608401610782565b6009546000838152600a6020526040812060010154909183916001600160a01b03918216911603610f645760643411610e9f5760405162461bcd60e51b815260206004820152602360248201527f4d617469632063616e6e6f74206265206c6573736572207468616e20314f4f2060448201527f57454900000000000000000000000000000000000000000000000000000000006064820152608401610782565b506000838152600a6020526040902060018101546002909101543491610ed2916001600160a01b0391821691168361065a565b6000858152600a6020526040908190206002015490516323b872dd60e01b8152336004820152306024820152604481018390529193506001600160a01b0316906323b872dd906064016020604051808303816000875af1158015610f3a573d6000803e3d6000fd5b505050506040513d601f19601f82011682018060405250810190610f5e9190612c19565b506110ae565b6000848152600a602052604090206001810154600290910154610f94916001600160a01b0390811691168361065a565b6000858152600a6020526040908190206001015490516323b872dd60e01b8152336004820152306024820152604481018490529193506001600160a01b0316906323b872dd906064016020604051808303816000875af1158015610ffc573d6000803e3d6000fd5b505050506040513d601f19601f820116820180604052508101906110209190612c19565b506000848152600a6020526040908190206002015490516323b872dd60e01b8152336004820152306024820152604481018490526001600160a01b03909116906323b872dd906064016020604051808303816000875af1158015611088573d6000803e3d6000fd5b505050506040513d601f19601f820116820180604052508101906110ac9190612c19565b505b60006110ba8533611eab565b90508015611114576000818152600c6020526040812060020180548492906110e3908490612c7b565b90915550506000818152600c602052604081206003018054859290611109908490612c7b565b909155506111209050565b61112085838533611f94565b6000858152600a6020908152604091829020600181015460029091015483516001600160a01b039283168152911691810191909152908101839052606081018490523360808201524260a08201527f461ecd615ea1465ce04ee1aa1810891df016f8b506e515ba3a18bb12f54962e59060c00160405180910390a15050505050565b6002546001600160a01b031633146111ec5760405162461bcd60e51b815260206004820152600d60248201526c27b7363c902232b83637bcb2b960991b6044820152606401610782565b6001600160a01b0381166112425760405162461bcd60e51b815260206004820152601460248201527f496e76616c6964205061697220416464726573730000000000000000000000006044820152606401610782565b6009805473ffffffffffffffffffffffffffffffffffffffff19166001600160a01b0392909216919091179055565b336000908152600b602052604081205490036112bf5760405162461bcd60e51b815260206004820152600d60248201526c27b7363c90283937bb34b232b960991b6044820152606401610782565b6000818152600c60205260409020600401546001600160a01b031633146113285760405162461bcd60e51b815260206004820152600c60248201527f556e617574686f72697a656400000000000000000000000000000000000000006044820152606401610782565b6000818152600c602090815260408083206001908101548452600a8352818420825160808101845281548152918101546001600160a01b03908116838601526002820154168284015260038101805484518187028101870190955280855292949193606086019390928301828280156113c057602002820191906000526020600020905b8154815260200190600101908083116113ac575b505050919092525050506020818101516040808401516000878152600c9094529281902060020154905163a9059cbb60e01b81523360048201526024810191909152929350916001600160a01b0383169063a9059cbb906044016020604051808303816000875af1158015611439573d6000803e3d6000fd5b505050506040513d601f19601f8201168201806040525081019061145d9190612c19565b506000848152600c60205260409081902060030154905163a9059cbb60e01b815233600482015260248101919091526001600160a01b0382169063a9059cbb906044016020604051808303816000875af11580156114bf573d6000803e3d6000fd5b505050506040513d601f19601f820116820180604052508101906114e39190612c19565b506000848152600c6020908152604091829020600281015460039091015483516001600160a01b0380881682528616938101939093529282015260608101919091523360808201527f5e6147f7a7f2044d0306f332242c42c794194f3d418ce70addd36933a5032a179060a00160405180910390a15050506000908152600c602052604081206002810182905560030155565b6002546001600160a01b031633146115c05760405162461bcd60e51b815260206004820152600d60248201526c27b7363c902232b83637bcb2b960991b6044820152606401610782565b600081116116105760405162461bcd60e51b815260206004820152601b60248201527f506c6174666f726d206665652063616e6e6f74206265207a65726f00000000006044820152606401610782565b606481106116605760405162461bcd60e51b815260206004820181905260248201527f506c6174666f726d206665652063616e6e6f7420626520612068756e647265646044820152606401610782565b600455565b6002546001600160a01b031633146116af5760405162461bcd60e51b815260206004820152600d60248201526c27b7363c902232b83637bcb2b960991b6044820152606401610782565b6001600160a01b0382166117055760405162461bcd60e51b815260206004820152601560248201527f496e76616c696420546f6b656e204164647265737300000000000000000000006044820152606401610782565b6001600160a01b03811661175b5760405162461bcd60e51b815260206004820152601460248201527f496e76616c6964205061697220416464726573730000000000000000000000006044820152606401610782565b6001600160a01b039182166000908152600860205260409020805473ffffffffffffffffffffffffffffffffffffffff191691909216179055565b336000908152600b602052604081205490036117e45760405162461bcd60e51b815260206004820152600d60248201526c27b7363c90283937bb34b232b960991b6044820152606401610782565b336000908152600b60205260409020600201548111156118465760405162461bcd60e51b815260206004820152601460248201527f496e73756666696369656e742042616c616e63650000000000000000000000006044820152606401610782565b604051339082156108fc029083906000818181858888f19350505050158015611873573d6000803e3d6000fd5b50336000908152600b602052604081206002018054839290611896908490612c36565b909155505050565b600060648210156119175760405162461bcd60e51b815260206004820152602c60248201527f416d6f756e7420746f20737761702063616e6e6f74206265206c65737365722060448201527f7468616e203130302057454900000000000000000000000000000000000000006064820152608401610782565b600082816119258787612075565b6000818152600a60205260409020549091506119835760405162461bcd60e51b815260206004820152601460248201527f506f6f6c20646f6573206e6f74206578697374730000000000000000000000006044820152606401610782565b6009546000828152600a60205260409020600101546001600160a01b03918216911603611b46576009546000828152600a60205260409020600201543493506119d9916001600160a01b0390811691168461065a565b925060006119e6826121b3565b91505083811015611a395760405162461bcd60e51b815260206004820152601660248201527f496e73756666696369656e7420506f6f6c2053697a65000000000000000000006044820152606401610782565b6000828152600a6020526040812060020154611a5f906001600160a01b03168633612267565b905060006064611a70836050612bfa565b611a7a9190612bd8565b9050611a868183612c36565b60036000828254611a979190612c7b565b90915550506000848152600a602090815260409182902082516080810184528154815260018201546001600160a01b039081168285015260028301541681850152600382018054855181860281018601909652808652611b3e958b958d958b95949093606086019392830182828015611b2f57602002820191906000526020600020905b815481526020019060010190808311611b1b575b5050505050815250508561234c565b505050611dc3565b6009546000828152600a60205260409020600201546001600160a01b03918216911603611c20576000818152600a6020526040902060010154600954611b99916001600160a01b0390811691168461065a565b92506000611ba6826121b3565b50905083811015611bf95760405162461bcd60e51b815260206004820152601660248201527f496e73756666696369656e7420506f6f6c2053697a65000000000000000000006044820152606401610782565b6000828152600a6020526040812060010154611a5f906001600160a01b0316858733610573565b6000818152600a602052604090206001810154600290910154611c50916001600160a01b0390811691168461065a565b92506000611c5d826121b3565b91505083811015611cb05760405162461bcd60e51b815260206004820152601660248201527f496e73756666696369656e7420506f6f6c2053697a65000000000000000000006044820152606401610782565b6000828152600a602052604081206001810154600290910154611ce2916001600160a01b039081169116868833612618565b905060006064611cf3836050612bfa565b611cfd9190612bd8565b9050611d098183612c36565b60036000828254611d1a9190612c7b565b90915550506000848152600a602090815260409182902082516080810184528154815260018201546001600160a01b039081168285015260028301541681850152600382018054855181860281018601909652808652611dbf958b958d958b95949093606086019392830182828015611b2f5760200282019190600052602060002090815481526020019060010190808311611b1b575050505050815250508561234c565b5050505b60408051868152602081018590526001600160a01b03898116828401528816606082015242608082015290517f649451cb6bd28801e8992e83f834233301eb39b64a665a45b1e08d3e13ff679a9181900360a00190a1509095945050505050565b336000908152600b60205260408120548103611e725760405162461bcd60e51b815260206004820152600d60248201526c27b7363c90283937bb34b232b960991b6044820152606401610782565b611e7c838361277e565b90505b92915050565b6000806000611e948585612075565b9050611e9f816121b3565b92509250509250929050565b6001600160a01b0381166000908152600b6020908152604080832060040180548251818502810185019093528083528493830182828015611f0b57602002820191906000526020600020905b815481526020019060010190808311611ef7575b5050505050905060005b8151811015611f895784600c6000848481518110611f3557611f35612c8e565b602002602001015181526020019081526020016000206001015403611f7757818181518110611f6657611f66612c8e565b602002602001015192505050611e7f565b80611f8181612c62565b915050611f15565b506000949350505050565b60068054906000611fa483612c62565b90915550506040805160a081018252600680548083526020808401898152848601988952606085019788526001600160a01b03968716608086018181526000948552600c845287852096518755915160018088019190915599516002870155975160038087019190915590516004958601805473ffffffffffffffffffffffffffffffffffffffff19169190981617909655978152600a885283812082549501805480890182559082528882200194909455938352600b865290822092549201805493840181558152929092200155565b60006001600160a01b0383161580159061209757506001600160a01b03821615155b6120e35760405162461bcd60e51b815260206004820152601360248201527f496e76616c696420506f6f6c20546f6b656e73000000000000000000000000006044820152606401610782565b60005b60055481116121a9576000818152600a60205260409020600101546001600160a01b03858116911614801561213757506000818152600a60205260409020600201546001600160a01b038481169116145b15612143579050611e7f565b6000818152600a60205260409020600101546001600160a01b03848116911614801561218b57506000818152600a60205260409020600201546001600160a01b038581169116145b15612197579050611e7f565b806121a181612c62565b9150506120e6565b5060009392505050565b60008060008060005b6000868152600a602052604090206003015481101561225c576000868152600a602052604081206003018054839081106121f8576121f8612c8e565b90600052602060002001549050600c600082815260200190815260200160002060020154846122279190612c7b565b6000828152600c60205260409020600301549094506122469084612c7b565b925050808061225490612c62565b9150506121bc565b509094909350915050565b6004546000908490829061227c606487612bd8565b6122869190612bfa565b90506001600160a01b03821663a9059cbb856122a28489612c36565b6040517fffffffff0000000000000000000000000000000000000000000000000000000060e085901b1681526001600160a01b03909216600483015260248201526044016020604051808303816000875af1158015612305573d6000803e3d6000fd5b505050506040513d601f19601f820116820180604052508101906123299190612c19565b506009546123429087906001600160a01b03168361065a565b9695505050505050565b60005b8260600151518110156126105760008360600151828151811061237457612374612c8e565b6020026020010151905060008588600c6000858152602001908152602001600020600301546123a39190612bfa565b6123ad9190612bd8565b905080600c600084815260200190815260200160002060020160008282546123d59190612c7b565b90915550506000828152600c602052604081206003015487906123f9908a90612bfa565b6124039190612bd8565b905080600c6000858152602001908152602001600020600301600082825461242b9190612c36565b90915550506000838152600c6020526040812060030154889061244f908890612bfa565b6124599190612bd8565b6000858152600c60209081526040808320600401546001600160a01b0316808452600b909252822060010180549394509092849290612499908490612c7b565b90915550506001600160a01b0381166000908152600b6020526040812060020180548492906124c9908490612c7b565b90915550506001600160a01b0381166000908152600b6020526040902060030154600160a01b900460ff1680156125875750600180546040516364614c7160e01b815260048101929092526001600160a01b0316906364614c7190602401602060405180830381865afa158015612544573d6000803e3d6000fd5b505050506040513d601f19601f820116820180604052508101906125689190612c49565b6001600160a01b0382166000908152600b602052604090206002015410155b156125f8576001600160a01b038082166000908152600b60205260408082206003810154600290910154915193169281156108fc0292818181858888f193505050501580156125da573d6000803e3d6000fd5b506001600160a01b0381166000908152600b60205260408120600201555b5050505050808061260890612c62565b91505061234f565b505050505050565b60045460009086908690839061262f606488612bd8565b6126399190612bfa565b6040516323b872dd60e01b81526001600160a01b038781166004830152306024830152604482018a9052919250908416906323b872dd906064016020604051808303816000875af1158015612692573d6000803e3d6000fd5b505050506040513d601f19601f820116820180604052508101906126b69190612c19565b506001600160a01b03821663a9059cbb866126d1848a612c36565b6040517fffffffff0000000000000000000000000000000000000000000000000000000060e085901b1681526001600160a01b03909216600483015260248201526044016020604051808303816000875af1158015612734573d6000803e3d6000fd5b505050506040513d601f19601f820116820180604052508101906127589190612c19565b506009546127719089906001600160a01b03168361065a565b9998505050505050505050565b6001600160a01b038281166000908152600860205260408120549091166127f35760405162461bcd60e51b815260206004820152602360248201527f5061697220646f6573206e6f74206578697374732c20436f6e7461637420616460448201526236b4b760e91b6064820152608401610782565b6001600160a01b03828116600090815260086020526040902054166128665760405162461bcd60e51b815260206004820152602360248201527f5061697220646f6573206e6f74206578697374732c20436f6e7461637420616460448201526236b4b760e91b6064820152608401610782565b60006128728484612075565b1580159150612885576000915050611e7f565b6005805490600061289583612c62565b90915550506005546000908152600a6020908152604080832081516080810183528154815260018201546001600160a01b03908116828601526002830154168184015260038201805484518187028101870190955280855291949293606086019390929083018282801561292857602002820191906000526020600020905b815481526020019060010190808311612914575b505050919092525050604080516080810182526005548082526001600160a01b03808b1660208085019182528b83168587019081526060808a01519087019081526000958652600a83529690942085518155915160018301805491851673ffffffffffffffffffffffffffffffffffffffff199283161790559351600283018054919094169416939093179091559251805195965091949293506129d4926003850192909101906129e3565b50506005549695505050505050565b828054828255906000526020600020908101928215612a1e579160200282015b82811115612a1e578251825591602001919060010190612a03565b50612a2a929150612a2e565b5090565b5b80821115612a2a5760008155600101612a2f565b80356001600160a01b0381168114612a5a57600080fd5b919050565b60008060008060808587031215612a7557600080fd5b612a7e85612a43565b93506020850135925060408501359150612a9a60608601612a43565b905092959194509250565b600060208284031215612ab757600080fd5b611e7c82612a43565b600080600060608486031215612ad557600080fd5b612ade84612a43565b9250612aec60208501612a43565b9150604084013590509250925092565b8015158114612b0a57600080fd5b50565b600060208284031215612b1f57600080fd5b8135612b2a81612afc565b9392505050565b60008060408385031215612b4457600080fd5b82359150612b5460208401612a43565b90509250929050565b60008060408385031215612b7057600080fd5b50508035926020909101359150565b600060208284031215612b9157600080fd5b5035919050565b60008060408385031215612bab57600080fd5b612bb483612a43565b9150612b5460208401612a43565b634e487b7160e01b600052601160045260246000fd5b600082612bf557634e487b7160e01b600052601260045260246000fd5b500490565b6000816000190483118215151615612c1457612c14612bc2565b500290565b600060208284031215612c2b57600080fd5b8151612b2a81612afc565b81810381811115611e7f57611e7f612bc2565b600060208284031215612c5b57600080fd5b5051919050565b600060018201612c7457612c74612bc2565b5060010190565b80820180821115611e7f57611e7f612bc2565b634e487b7160e01b600052603260045260246000fdfea26469706673582212204e6457b6e56d6e94d2e99a9b486a70b56f87d12a02a6f26498d2b7ad50cf384f64736f6c63430008100033",
  "immutableReferences": {},
  "source": "// SPDX-License-Identifier: GPL-3.0\npragma solidity >=0.7.0 <0.9.0;\n\nimport {PriceApi} from \"./PriceApi.sol\";\nimport {Token} from \"./Token.sol\";\nimport {IERC20} from \"@openzeppelin/contracts/token/ERC20/IERC20.sol\";\n\ncontract Swap {\n    PriceApi private _priceApi;\n    Token private _token;\n\n    // contract admin\n    address private _deployer;\n    uint256 private _platformProfit;\n\n    // charges 1% fee on every successful swaps\n    uint private swapFee = 1;\n\n    // ids to avoid conflicts\n    uint256 private POOL_ID;\n    uint256 private LIQUID_ID;\n    uint256 private PROVIDER_ID;\n\n    // token contract address => chainlink aggregrator address\n    // only in the token paired to USD format\n    mapping(address => address) public pairs;\n\n    // is a member of the pairs mapping\n    // but its the native pair MATIC not IERC20\n    address public NATIVE_PAIR = 0xd0D5e3DB44DE05E9F294BB0a3bEEaF030DE24Ada;\n\n    // id => liquidity pools\n    mapping(uint => Pool) public pools;\n    // user address => provider data\n    mapping(address => Provider) public providers;\n    // id => liquids\n    mapping(uint => Liquid) public liquids;\n\n    // === Events === //\n\n    event LiquidProvided(\n        address token0,\n        address token1,\n        uint256 amount0,\n        uint256 amount1,\n        address provider,\n        uint timestamp\n    );\n\n    event LiquidRemoved(\n        address token0,\n        address token1,\n        uint256 amount0,\n        uint256 amount1,\n        address provider\n    );\n\n    event FleepSwaped(\n        uint256 amount,\n        uint256 amountOut,\n        address from,\n        address to,\n        uint timestamp\n    );\n\n    // === Structs === //\n\n    struct Pool {\n        uint id;\n        address token0;\n        address token1;\n        uint[] liquids;\n    }\n\n    struct Liquid {\n        uint id;\n        uint poolId;\n        uint256 amount0;\n        uint256 amount1;\n        address provider;\n    }\n\n    struct Provider {\n        uint id;\n        uint256 totalEarned;\n        uint256 balance;\n        address vaultAddress;\n        bool autoStake;\n        uint[] liquids;\n    }\n\n    constructor(address priceApI, address token) {\n        _priceApi = PriceApi(priceApI);\n        _token = Token(token);\n        _deployer = msg.sender;\n\n        createPair(\n            0xc0EC2DCA88Dbe3C91518958C935Ce250c718f0EB,\n            0x007A22900a3B98143368Bd5906f8E17e9867581b\n        );\n        createPair(\n            0x3814CF88e2675041504C7d6404f7b8978F8B65B4,\n            0x0FCAa9c899EC5A91eBc3D5Dd869De833b06fB046\n        );\n        createPair(NATIVE_PAIR, NATIVE_PAIR);\n    }\n\n    // calculates all the size of the liquids\n    // in a pool of token pair\n    function getPoolSize(\n        address token0,\n        address token1\n    ) public view returns (uint256, uint256) {\n        uint poolId = _findPool(token0, token1);\n        return _poolSize(poolId);\n    }\n\n    // gets the exchanges rates for pair of tokens\n    // with accordance to amount of tokens\n    function estimate(\n        address token0,\n        address token1,\n        uint256 amount0 // in wei\n    ) public view returns (uint256) {\n        int256 rate = _priceApi.getExchangeRate(pairs[token0], pairs[token1]);\n        return (amount0 * uint256(rate)) / (10 ** 8);\n    }\n\n    // returns the contract address\n    function getContractAddress() public view returns (address) {\n        return address(this);\n    }\n\n    // returns the pair address for $MATIC\n    function getNativePair() public view returns (address) {\n        return NATIVE_PAIR;\n    }\n\n    // register as a provider\n    function unlockedProviderAccount(address _vaultAddress) public onlyGuest {\n        // to become a provider you must hodl at least 10\n        // tokens of Fleep Token\n        require(\n            _token.balanceOf(msg.sender) >= _token.inWei(10),\n            \"You must hodl at least 10 Fleep Tokens\"\n        );\n\n        PROVIDER_ID++;\n        providers[msg.sender] = Provider(\n            PROVIDER_ID,\n            providers[msg.sender].totalEarned,\n            providers[msg.sender].balance,\n            _vaultAddress,\n            false,\n            providers[msg.sender].liquids\n        );\n    }\n\n    // === Swapping === //\n\n    function swap(\n        address token0,\n        address token1,\n        uint256 amount0\n    ) public payable returns (uint256) {\n        require(amount0 >= 100, \"Amount to swap cannot be lesser than 100 WEI\");\n\n        uint256 amount1;\n        uint256 _safeAmount0 = amount0;\n\n        uint poolId = _findPool(token0, token1);\n        require(pools[poolId].id > 0, \"Pool does not exists\");\n\n        // MATIC => ERC20\n        if (pools[poolId].token0 == NATIVE_PAIR) {\n            _safeAmount0 = msg.value;\n            amount1 = estimate(NATIVE_PAIR, pools[poolId].token1, _safeAmount0);\n\n            // check if contract has enough destination token liquid\n            (, uint256 poolSizeToken1) = _poolSize(poolId);\n            require(poolSizeToken1 >= amount1, \"Insufficient Pool Size\");\n\n            uint256 fee = _transferSwappedTokens0(\n                pools[poolId].token1,\n                amount1,\n                msg.sender\n            );\n\n            uint256 providersReward = ((fee * 80) / 100);\n            _platformProfit += (fee - providersReward);\n\n            _aggregateLiquids(\n                _safeAmount0,\n                amount1,\n                poolSizeToken1,\n                pools[poolId],\n                providersReward\n            );\n        } else if (pools[poolId].token1 == NATIVE_PAIR) {\n            // ERC20 => MATIC\n            amount1 = estimate(pools[poolId].token0, NATIVE_PAIR, _safeAmount0);\n\n            // check if contract has enough destination token liquid\n            (uint256 poolSizeToken1, ) = _poolSize(poolId);\n            require(poolSizeToken1 >= amount1, \"Insufficient Pool Size\");\n\n            uint256 fee = _transferSwappedTokens1(\n                pools[poolId].token0,\n                _safeAmount0,\n                amount1,\n                msg.sender\n            );\n\n            uint256 providersReward = ((fee * 80) / 100);\n            _platformProfit += (fee - providersReward);\n\n            _aggregateLiquids(\n                _safeAmount0,\n                amount1,\n                poolSizeToken1,\n                pools[poolId],\n                providersReward\n            );\n        } else {\n            // ERC0 => ERC2O\n            amount1 = estimate(\n                pools[poolId].token0,\n                pools[poolId].token1,\n                _safeAmount0\n            );\n\n            // check if contract has enough destination token liquid\n            (, uint256 poolSizeToken1) = _poolSize(poolId);\n            require(poolSizeToken1 >= amount1, \"Insufficient Pool Size\");\n\n            uint256 fee = _transferSwappedTokens2(\n                pools[poolId].token0,\n                pools[poolId].token1,\n                _safeAmount0,\n                amount1,\n                msg.sender\n            );\n\n            uint256 providersReward = ((fee * 80) / 100);\n            _platformProfit += (fee - providersReward);\n\n            _aggregateLiquids(\n                _safeAmount0,\n                amount1,\n                poolSizeToken1,\n                pools[poolId],\n                providersReward\n            );\n        }\n\n        // store the swap data on-chain\n        emit FleepSwaped(amount0, amount1, token0, token1, block.timestamp);\n\n        return amount1;\n    }\n\n    // === Providers === //\n\n    function provideLiquidity(\n        uint poolId,\n        uint256 amount0\n    ) public payable onlyProvider {\n        require(amount0 >= 100, \"Amount cannot be lesser than 100 WEI\");\n\n        uint256 amount1;\n        uint256 _safeAmount0 = amount0;\n\n        if (pools[poolId].token0 == NATIVE_PAIR) {\n            require(msg.value > 100, \"Matic cannot be lesser than 1OO WEI\");\n            // only in format of MATIC as pair subject\n            // ex MATIC/XEND\n\n            _safeAmount0 = msg.value;\n            // get the estimate for token1\n            amount1 = estimate(\n                pools[poolId].token0,\n                pools[poolId].token1,\n                _safeAmount0\n            );\n            // stake token1 to smart contract\n            IERC20(pools[poolId].token1).transferFrom(\n                msg.sender,\n                address(this),\n                amount1\n            );\n        } else {\n            // get the estimate for token1\n            amount1 = estimate(\n                pools[poolId].token0,\n                pools[poolId].token1,\n                _safeAmount0\n            );\n            // stake tokens to smart contract\n            IERC20(pools[poolId].token0).transferFrom(\n                msg.sender,\n                address(this),\n                _safeAmount0\n            );\n            IERC20(pools[poolId].token1).transferFrom(\n                msg.sender,\n                address(this),\n                amount1\n            );\n        }\n\n        uint liquidId = _liquidIndex(poolId, msg.sender);\n\n        if (liquidId > 0) {\n            // if liquid exist increment the amount\n            liquids[liquidId].amount0 += _safeAmount0;\n            liquids[liquidId].amount1 += amount1;\n        } else {\n            // otherwise create the new liquid\n            _createLiquid(poolId, _safeAmount0, amount1, msg.sender);\n        }\n\n        // store the liquidity data on-chain\n        emit LiquidProvided(\n            pools[poolId].token0,\n            pools[poolId].token1,\n            _safeAmount0,\n            amount1,\n            msg.sender,\n            block.timestamp\n        );\n    }\n\n    function removeLiquidity(uint id) public onlyProvider {\n        require(liquids[id].provider == msg.sender, \"Unauthorized\");\n\n        Pool memory pool = pools[liquids[id].poolId];\n        IERC20 token0 = IERC20(pool.token0);\n        IERC20 token1 = IERC20(pool.token1);\n\n        token0.transfer(msg.sender, liquids[id].amount0);\n        token1.transfer(msg.sender, liquids[id].amount1);\n\n        emit LiquidRemoved(\n            address(token0),\n            address(token1),\n            liquids[id].amount0,\n            liquids[id].amount1,\n            msg.sender\n        );\n\n        // delete liquid TO DO\n        liquids[id].amount0 = 0;\n        liquids[id].amount1 = 0;\n    }\n\n    function createPool(\n        address token0,\n        address token1\n    ) public onlyProvider returns (uint) {\n        return _createPool(token0, token1);\n    }\n\n    function updateProviderProfile(bool _autoStake) public onlyProvider {\n        providers[msg.sender].autoStake = _autoStake;\n    }\n\n    function withDrawEarnings(uint256 amount) public onlyProvider {\n        require(\n            providers[msg.sender].balance >= amount,\n            \"Insufficient Balance\"\n        );\n        payable(msg.sender).transfer(amount);\n        providers[msg.sender].balance -= amount;\n    }\n\n    function withDrawEarningsToVault(address receiver) public onlyProvider {\n        uint256 amount = providers[msg.sender].balance;\n        require(amount >= _token.inWei(1), \"Balance Must be atleast 1 MATIC\");\n        payable(receiver).transfer(amount);\n        providers[msg.sender].balance = 0;\n    }\n\n    // === Administration === //\n\n    function updateNativePair(address pair) public onlyDeployer {\n        require(pair != address(0), \"Invalid Pair Address\");\n        NATIVE_PAIR = pair;\n    }\n\n    function updateSwapFee(uint fee) public onlyDeployer {\n        require(fee > 0, \"Platform fee cannot be zero\");\n        require(fee < 100, \"Platform fee cannot be a hundred\");\n        swapFee = fee;\n    }\n\n    function createPair(address token, address pair) public onlyDeployer {\n        require(token != address(0), \"Invalid Token Address\");\n        require(pair != address(0), \"Invalid Pair Address\");\n        pairs[token] = pair;\n    }\n\n    function withDrawPlaformEarnings(\n        uint256 amount,\n        address receiver\n    ) public onlyDeployer {\n        require(_platformProfit >= amount, \"Insufficient Balance\");\n        payable(receiver).transfer(amount);\n        _platformProfit -= amount;\n    }\n\n    // === Internal Functions === //\n\n    function _liquidIndex(\n        uint poolId,\n        address provider\n    ) private view returns (uint) {\n        uint256[] memory providerLiquids = providers[provider].liquids;\n\n        for (uint index = 0; index < providerLiquids.length; index++) {\n            if (liquids[providerLiquids[index]].poolId == poolId) {\n                return providerLiquids[index];\n            }\n        }\n\n        return 0;\n    }\n\n    function _aggregateLiquids(\n        uint256 amount0,\n        uint256 amount1,\n        uint256 poolSizeToken1,\n        Pool memory pool,\n        uint256 fee\n    ) private {\n        // equally share swap impact on all provider liquids based on their contribution\n        for (uint index = 0; index < pool.liquids.length; index++) {\n            uint liquidId = pool.liquids[index];\n\n            // calculated with ratio of this liquid compared\n            // to other liquids contributing\n            uint256 additionAmount = ((liquids[liquidId].amount1 * amount0) /\n                poolSizeToken1);\n\n            // step I\n            liquids[liquidId].amount0 += additionAmount;\n\n            // calculated with ratio of this liquid compared\n            // to other liquids contributing\n            uint256 deductionAmount = ((liquids[liquidId].amount1 * amount1) /\n                poolSizeToken1);\n\n            // step II\n            liquids[liquidId].amount1 -= deductionAmount;\n\n            // reward the liquid provider\n            uint256 reward = ((liquids[liquidId].amount1 * fee) /\n                poolSizeToken1);\n\n            address provider = liquids[liquidId].provider;\n\n            providers[provider].totalEarned += reward;\n            providers[provider].balance += reward;\n\n            // if provider is auto staking rewards in XEND vault\n            // and their balance is at least 1 MATIC\n            if (\n                providers[provider].autoStake &&\n                providers[provider].balance >= _token.inWei(1)\n            ) {\n                payable(providers[provider].vaultAddress).transfer(\n                    providers[provider].balance\n                );\n                providers[provider].balance = 0;\n            }\n        }\n    }\n\n    // MATIC => ERC20\n    function _transferSwappedTokens0(\n        address token1,\n        uint256 amount1,\n        address owner\n    ) private returns (uint256) {\n        IERC20 quoteToken = IERC20(token1);\n\n        uint256 _fee = ((amount1 / 100) * swapFee);\n\n        // give user their destination token minus fee\n        quoteToken.transfer(owner, (amount1 - _fee));\n\n        // convert fee to matic\n        return estimate(token1, NATIVE_PAIR, _fee);\n    }\n\n    // ERC20 => MATIC\n    function _transferSwappedTokens1(\n        address token0,\n        uint256 amount0,\n        uint256 amount1,\n        address owner\n    ) public payable returns (uint256) {\n        IERC20 baseToken = IERC20(token0);\n\n        uint256 _fee = ((amount1 / 100) * swapFee);\n\n        baseToken.transferFrom(owner, address(this), amount0);\n\n        // give user their destination token minus fee\n        payable(owner).transfer(amount1 - _fee);\n\n        // fee already in matic\n        return _fee;\n    }\n\n    // ERC20 => ERC20\n    function _transferSwappedTokens2(\n        address token0,\n        address token1,\n        uint256 amount0,\n        uint256 amount1,\n        address owner\n    ) private returns (uint256) {\n        IERC20 baseToken = IERC20(token0);\n        IERC20 quoteToken = IERC20(token1);\n\n        uint256 _fee = ((amount1 / 100) * swapFee);\n\n        // tranfers the base token from user to the\n        // smart contract\n        baseToken.transferFrom(owner, address(this), amount0);\n\n        // give user their destination token minus fee\n        quoteToken.transfer(owner, (amount1 - _fee));\n\n        // convert fee to matic\n        return estimate(token1, NATIVE_PAIR, _fee);\n    }\n\n    function _findPool(\n        address token0,\n        address token1\n    ) private view returns (uint) {\n        require(\n            token0 != address(0) && token1 != address(0),\n            \"Invalid Pool Tokens\"\n        );\n        for (uint index = 0; index <= POOL_ID; index++) {\n            // patern A\n            if (\n                pools[index].token0 == token0 && pools[index].token1 == token1\n            ) {\n                return index;\n            }\n\n            // pattern B\n            if (\n                pools[index].token0 == token1 && pools[index].token1 == token0\n            ) {\n                return index;\n            }\n        }\n        return 0;\n    }\n\n    function _createLiquid(\n        uint poolId,\n        uint256 amount0,\n        uint256 amount1,\n        address provider\n    ) private {\n        LIQUID_ID++;\n        // create the liquid\n        liquids[LIQUID_ID] = Liquid(\n            LIQUID_ID,\n            poolId,\n            amount0,\n            amount1,\n            provider\n        );\n        // register the liquid\n        pools[poolId].liquids.push(LIQUID_ID);\n        providers[provider].liquids.push(LIQUID_ID);\n    }\n\n    function _poolSize(uint id) private view returns (uint256, uint256) {\n        uint256 amount0;\n        uint256 amount1;\n        for (uint index = 0; index < pools[id].liquids.length; index++) {\n            uint liquidId = pools[id].liquids[index];\n            amount0 += liquids[liquidId].amount0;\n            amount1 += liquids[liquidId].amount1;\n        }\n        return (amount0, amount1);\n    }\n\n    function _createPool(\n        address token0,\n        address token1\n    ) private returns (uint) {\n        require(\n            pairs[token0] != address(0),\n            \"Pair does not exists, Contact admin\"\n        );\n        require(\n            pairs[token1] != address(0),\n            \"Pair does not exists, Contact admin\"\n        );\n\n        bool exists = _findPool(token0, token1) != 0;\n        if (exists) return 0;\n\n        POOL_ID++;\n        Pool memory pool = pools[POOL_ID];\n\n        pools[POOL_ID] = Pool(POOL_ID, token0, token1, pool.liquids);\n\n        return POOL_ID;\n    }\n\n    // === Modifiers === //\n\n    modifier onlyGuest() {\n        require(providers[msg.sender].id == 0, \"Only Guest\");\n        _;\n    }\n\n    modifier onlyProvider() {\n        require(providers[msg.sender].id != 0, \"Only Provider\");\n        _;\n    }\n\n    modifier onlyDeployer() {\n        require(msg.sender == _deployer, \"Only Deployer\");\n        _;\n    }\n}\n",
  "sourcePath": "C:\\Users\\Arogundade Ibrahim\\Documents\\web3\\fleep\\contracts\\Swap.sol",
  "compiler": {
    "name": "solc",
    "version": "0.8.16+commit.07a7930e.Emscripten.clang"
  },
  "schemaVersion": "3.4.10",
  "updatedAt": "2022-11-30T11:42:49.941Z",
  "devdoc": {
    "kind": "dev",
    "methods": {},
    "version": 1
  },
  "userdoc": {
    "kind": "user",
    "methods": {},
    "version": 1
  }
}