{
  "contractName": "Swap",
  "abi": [
    {
      "inputs": [
        {
          "internalType": "address",
          "name": "priceApI",
          "type": "address"
        }
      ],
      "stateMutability": "nonpayable",
      "type": "constructor"
    },
    {
      "anonymous": false,
      "inputs": [
        {
          "indexed": false,
          "internalType": "uint256",
          "name": "amount",
          "type": "uint256"
        },
        {
          "indexed": false,
          "internalType": "uint256",
          "name": "amountOut",
          "type": "uint256"
        },
        {
          "indexed": false,
          "internalType": "address",
          "name": "from",
          "type": "address"
        },
        {
          "indexed": false,
          "internalType": "address",
          "name": "to",
          "type": "address"
        },
        {
          "indexed": false,
          "internalType": "uint256",
          "name": "timestamp",
          "type": "uint256"
        }
      ],
      "name": "FleepSwaped",
      "type": "event"
    },
    {
      "anonymous": false,
      "inputs": [
        {
          "indexed": false,
          "internalType": "address",
          "name": "token0",
          "type": "address"
        },
        {
          "indexed": false,
          "internalType": "address",
          "name": "token1",
          "type": "address"
        },
        {
          "indexed": false,
          "internalType": "uint256",
          "name": "amount0",
          "type": "uint256"
        },
        {
          "indexed": false,
          "internalType": "uint256",
          "name": "amount1",
          "type": "uint256"
        },
        {
          "indexed": false,
          "internalType": "address",
          "name": "provider",
          "type": "address"
        },
        {
          "indexed": false,
          "internalType": "uint256",
          "name": "timestamp",
          "type": "uint256"
        }
      ],
      "name": "LiquidProvided",
      "type": "event"
    },
    {
      "inputs": [],
      "name": "NATIVE_PAIR",
      "outputs": [
        {
          "internalType": "address",
          "name": "",
          "type": "address"
        }
      ],
      "stateMutability": "view",
      "type": "function"
    },
    {
      "inputs": [],
      "name": "USDT_PAIR",
      "outputs": [
        {
          "internalType": "address",
          "name": "",
          "type": "address"
        }
      ],
      "stateMutability": "view",
      "type": "function"
    },
    {
      "inputs": [
        {
          "internalType": "uint256",
          "name": "",
          "type": "uint256"
        }
      ],
      "name": "liquids",
      "outputs": [
        {
          "internalType": "uint256",
          "name": "id",
          "type": "uint256"
        },
        {
          "internalType": "uint256",
          "name": "poolId",
          "type": "uint256"
        },
        {
          "internalType": "uint256",
          "name": "amount0",
          "type": "uint256"
        },
        {
          "internalType": "uint256",
          "name": "amount1",
          "type": "uint256"
        },
        {
          "internalType": "address",
          "name": "provider",
          "type": "address"
        }
      ],
      "stateMutability": "view",
      "type": "function"
    },
    {
      "inputs": [
        {
          "internalType": "address",
          "name": "",
          "type": "address"
        }
      ],
      "name": "pairs",
      "outputs": [
        {
          "internalType": "address",
          "name": "",
          "type": "address"
        }
      ],
      "stateMutability": "view",
      "type": "function"
    },
    {
      "inputs": [
        {
          "internalType": "uint256",
          "name": "",
          "type": "uint256"
        }
      ],
      "name": "pools",
      "outputs": [
        {
          "internalType": "uint256",
          "name": "id",
          "type": "uint256"
        },
        {
          "internalType": "address",
          "name": "token0",
          "type": "address"
        },
        {
          "internalType": "address",
          "name": "token1",
          "type": "address"
        }
      ],
      "stateMutability": "view",
      "type": "function"
    },
    {
      "inputs": [
        {
          "internalType": "address",
          "name": "",
          "type": "address"
        }
      ],
      "name": "providers",
      "outputs": [
        {
          "internalType": "uint256",
          "name": "id",
          "type": "uint256"
        },
        {
          "internalType": "uint256",
          "name": "totalEarned",
          "type": "uint256"
        },
        {
          "internalType": "uint256",
          "name": "balance",
          "type": "uint256"
        },
        {
          "internalType": "address",
          "name": "vaultAddress",
          "type": "address"
        },
        {
          "internalType": "bool",
          "name": "autoStake",
          "type": "bool"
        }
      ],
      "stateMutability": "view",
      "type": "function"
    },
    {
      "inputs": [
        {
          "internalType": "address",
          "name": "token0",
          "type": "address"
        },
        {
          "internalType": "address",
          "name": "token1",
          "type": "address"
        }
      ],
      "name": "getPoolSize",
      "outputs": [
        {
          "internalType": "uint256",
          "name": "",
          "type": "uint256"
        },
        {
          "internalType": "uint256",
          "name": "",
          "type": "uint256"
        }
      ],
      "stateMutability": "view",
      "type": "function"
    },
    {
      "inputs": [
        {
          "internalType": "address",
          "name": "token0",
          "type": "address"
        },
        {
          "internalType": "address",
          "name": "token1",
          "type": "address"
        },
        {
          "internalType": "uint256",
          "name": "amount0",
          "type": "uint256"
        }
      ],
      "name": "estimate",
      "outputs": [
        {
          "internalType": "uint256",
          "name": "",
          "type": "uint256"
        }
      ],
      "stateMutability": "view",
      "type": "function"
    },
    {
      "inputs": [],
      "name": "getContractAddress",
      "outputs": [
        {
          "internalType": "address",
          "name": "",
          "type": "address"
        }
      ],
      "stateMutability": "view",
      "type": "function"
    },
    {
      "inputs": [],
      "name": "getNativePair",
      "outputs": [
        {
          "internalType": "address",
          "name": "",
          "type": "address"
        }
      ],
      "stateMutability": "view",
      "type": "function"
    },
    {
      "inputs": [],
      "name": "getUSDTPair",
      "outputs": [
        {
          "internalType": "address",
          "name": "",
          "type": "address"
        }
      ],
      "stateMutability": "view",
      "type": "function"
    },
    {
      "inputs": [
        {
          "internalType": "address",
          "name": "vaultAddress",
          "type": "address"
        }
      ],
      "name": "unlockedProviderAccount",
      "outputs": [],
      "stateMutability": "nonpayable",
      "type": "function"
    },
    {
      "inputs": [
        {
          "internalType": "address",
          "name": "token0",
          "type": "address"
        },
        {
          "internalType": "address",
          "name": "token1",
          "type": "address"
        },
        {
          "internalType": "uint256",
          "name": "amount0",
          "type": "uint256"
        }
      ],
      "name": "swap",
      "outputs": [
        {
          "internalType": "uint256",
          "name": "",
          "type": "uint256"
        }
      ],
      "stateMutability": "payable",
      "type": "function"
    },
    {
      "inputs": [
        {
          "internalType": "uint256",
          "name": "poolId",
          "type": "uint256"
        },
        {
          "internalType": "uint256",
          "name": "amount0",
          "type": "uint256"
        }
      ],
      "name": "provideLiquidity",
      "outputs": [],
      "stateMutability": "payable",
      "type": "function"
    },
    {
      "inputs": [
        {
          "internalType": "uint256",
          "name": "id",
          "type": "uint256"
        }
      ],
      "name": "removeLiquidity",
      "outputs": [],
      "stateMutability": "nonpayable",
      "type": "function"
    },
    {
      "inputs": [
        {
          "internalType": "address",
          "name": "token0",
          "type": "address"
        },
        {
          "internalType": "address",
          "name": "token1",
          "type": "address"
        }
      ],
      "name": "createPool",
      "outputs": [
        {
          "internalType": "uint256",
          "name": "",
          "type": "uint256"
        }
      ],
      "stateMutability": "nonpayable",
      "type": "function"
    },
    {
      "inputs": [
        {
          "internalType": "bool",
          "name": "_autoStake",
          "type": "bool"
        }
      ],
      "name": "updateProviderProfile",
      "outputs": [],
      "stateMutability": "nonpayable",
      "type": "function"
    },
    {
      "inputs": [
        {
          "internalType": "uint256",
          "name": "amount",
          "type": "uint256"
        }
      ],
      "name": "withDrawEarnings",
      "outputs": [],
      "stateMutability": "nonpayable",
      "type": "function"
    },
    {
      "inputs": [
        {
          "internalType": "address",
          "name": "receiver",
          "type": "address"
        }
      ],
      "name": "withDrawEarningsToVault",
      "outputs": [],
      "stateMutability": "nonpayable",
      "type": "function"
    },
    {
      "inputs": [
        {
          "internalType": "address",
          "name": "pair",
          "type": "address"
        }
      ],
      "name": "updateNativePair",
      "outputs": [],
      "stateMutability": "nonpayable",
      "type": "function"
    },
    {
      "inputs": [
        {
          "internalType": "address",
          "name": "pair",
          "type": "address"
        }
      ],
      "name": "updateUSDTPair",
      "outputs": [],
      "stateMutability": "nonpayable",
      "type": "function"
    },
    {
      "inputs": [
        {
          "internalType": "uint256",
          "name": "fee",
          "type": "uint256"
        }
      ],
      "name": "updateSwapFee",
      "outputs": [],
      "stateMutability": "nonpayable",
      "type": "function"
    },
    {
      "inputs": [
        {
          "internalType": "address",
          "name": "token",
          "type": "address"
        },
        {
          "internalType": "address",
          "name": "pair",
          "type": "address"
        }
      ],
      "name": "createPair",
      "outputs": [],
      "stateMutability": "nonpayable",
      "type": "function"
    },
    {
      "inputs": [
        {
          "internalType": "uint256",
          "name": "amount",
          "type": "uint256"
        },
        {
          "internalType": "address",
          "name": "receiver",
          "type": "address"
        }
      ],
      "name": "withDrawPlaformEarnings",
      "outputs": [],
      "stateMutability": "nonpayable",
      "type": "function"
    },
    {
      "inputs": [
        {
          "internalType": "address",
          "name": "token0",
          "type": "address"
        },
        {
          "internalType": "uint256",
          "name": "amount0",
          "type": "uint256"
        },
        {
          "internalType": "uint256",
          "name": "amount1",
          "type": "uint256"
        },
        {
          "internalType": "address",
          "name": "owner",
          "type": "address"
        }
      ],
      "name": "_transferSwappedTokens1",
      "outputs": [
        {
          "internalType": "uint256",
          "name": "",
          "type": "uint256"
        }
      ],
      "stateMutability": "payable",
      "type": "function"
    },
    {
      "inputs": [],
      "name": "testnetHelper2",
      "outputs": [],
      "stateMutability": "nonpayable",
      "type": "function"
    }
  ],
  "bytecode": "0x608060405260196003553480156200001657600080fd5b506040516200344b3803806200344b833981016040819052620000399162000507565b600080546001600160a01b0383166001600160a01b03199182161790915560018054909116331790556200006c62000073565b5062000539565b6001546001600160a01b03163314620000c35760405162461bcd60e51b815260206004820152600d60248201526c27b7363c902232b83637bcb2b960991b60448201526064015b60405180910390fd5b620000e273d0d5e3db44de05e9f294bb0a3beeaf030de24ada62000251565b6200010173d24ac22e0fb3694d0318c9e56e1e99d170a3186462000317565b6200013473c0ec2dca88dbe3c91518958c935ce250c718f0eb727a22900a3b98143368bd5906f8e17e9867581b620003dd565b62000168733814cf88e2675041504c7d6404f7b8978f8b65b4730fcaa9c899ec5a91ebc3d5dd869de833b06fb046620003dd565b6200019c7360d4a61940ac5e59cbdaf05e7f702b26048320bf730715a7794a1dc8e42615f059dd6e406a6594651a620003dd565b600854620001b4906001600160a01b031680620003dd565b620001e772f5153e9608217dba32c6c706fef5ad97016842739dd18534b8f456557d11b9ddb14da89b2e52e308620003dd565b6200021b73304379dfa42b7127de0db93bce597bedba18b25973572ddec9087154dc5dfbb1546bb62713147e0ab0620003dd565b6200024f73d24ac22e0fb3694d0318c9e56e1e99d170a318647392c09849638959196e976289418e5973cc96d645620003dd565b565b6001546001600160a01b031633146200029d5760405162461bcd60e51b815260206004820152600d60248201526c27b7363c902232b83637bcb2b960991b6044820152606401620000ba565b6001600160a01b038116620002f55760405162461bcd60e51b815260206004820152601460248201527f496e76616c6964205061697220416464726573730000000000000000000000006044820152606401620000ba565b600880546001600160a01b0319166001600160a01b0392909216919091179055565b6001546001600160a01b03163314620003635760405162461bcd60e51b815260206004820152600d60248201526c27b7363c902232b83637bcb2b960991b6044820152606401620000ba565b6001600160a01b038116620003bb5760405162461bcd60e51b815260206004820152601460248201527f496e76616c6964205061697220416464726573730000000000000000000000006044820152606401620000ba565b600980546001600160a01b0319166001600160a01b0392909216919091179055565b6001546001600160a01b03163314620004295760405162461bcd60e51b815260206004820152600d60248201526c27b7363c902232b83637bcb2b960991b6044820152606401620000ba565b6001600160a01b038216620004815760405162461bcd60e51b815260206004820152601560248201527f496e76616c696420546f6b656e204164647265737300000000000000000000006044820152606401620000ba565b6001600160a01b038116620004d95760405162461bcd60e51b815260206004820152601460248201527f496e76616c6964205061697220416464726573730000000000000000000000006044820152606401620000ba565b6001600160a01b03918216600090815260076020526040902080546001600160a01b03191691909216179055565b6000602082840312156200051a57600080fd5b81516001600160a01b03811681146200053257600080fd5b9392505050565b612f0280620005496000396000f3fe6080604052600436106101a15760003560e01c806391e5f37f116100e1578063d30dce7d1161008a578063ecd44aef11610064578063ecd44aef14610503578063eebb63ed14610538578063f50c4fe8146105bc578063fe33b302146105dc57600080fd5b8063d30dce7d146104b0578063df791e50146104d0578063e3433615146104e357600080fd5b8063b8eab409116100bb578063b8eab40914610450578063bf16f65a14610470578063c9c653961461049057600080fd5b806391e5f37f146103a35780639c8f9f23146103c3578063ac4afa38146103e357600080fd5b80634c133bbe1161014e57806378c480db1161012857806378c480db1461033d5780637a16af7f1461035d5780638625ed13146103705780638a2627f01461038557600080fd5b80634c133bbe146102db57806351fde344146102fd578063665a9a2d1461031d57600080fd5b806316339a9b1161017f57806316339a9b1461027657806332a2c5d0146102a8578063344bfb59146102bb57600080fd5b8063061bf045146101a65780630787bc27146101cc578063102a5f9114610256575b600080fd5b6101b96101b4366004612c8a565b610612565b6040519081526020015b60405180910390f35b3480156101d857600080fd5b506102236101e7366004612cd0565b600b602052600090815260409020805460018201546002830154600390930154919290916001600160a01b03811690600160a01b900460ff1685565b604080519586526020860194909452928401919091526001600160a01b031660608301521515608082015260a0016101c3565b34801561026257600080fd5b506101b9610271366004612ceb565b61074f565b34801561028257600080fd5b506009546001600160a01b03165b6040516001600160a01b0390911681526020016101c3565b3480156102b457600080fd5b5030610290565b3480156102c757600080fd5b50600854610290906001600160a01b031681565b3480156102e757600080fd5b506102fb6102f6366004612cd0565b61081e565b005b34801561030957600080fd5b506102fb610318366004612d35565b610a22565b34801561032957600080fd5b506102fb610338366004612cd0565b610ab9565b34801561034957600080fd5b506102fb610358366004612d59565b610c11565b6102fb61036b366004612d85565b610d4f565b34801561037c57600080fd5b506102fb6111b7565b34801561039157600080fd5b506008546001600160a01b0316610290565b3480156103af57600080fd5b506102fb6103be366004612cd0565b6113de565b3480156103cf57600080fd5b506102fb6103de366004612da7565b6114ad565b3480156103ef57600080fd5b5061042b6103fe366004612da7565b600a6020526000908152604090208054600182015460029092015490916001600160a01b03908116911683565b604080519384526001600160a01b0392831660208501529116908201526060016101c3565b34801561045c57600080fd5b50600954610290906001600160a01b031681565b34801561047c57600080fd5b506102fb61048b366004612da7565b61173e565b34801561049c57600080fd5b506102fb6104ab366004612dc0565b61182e565b3480156104bc57600080fd5b506102fb6104cb366004612da7565b61195f565b6101b96104de366004612ceb565b611ab7565b3480156104ef57600080fd5b506101b96104fe366004612dc0565b61203d565b34801561050f57600080fd5b5061052361051e366004612dc0565b61209e565b604080519283526020830191909152016101c3565b34801561054457600080fd5b5061058b610553366004612da7565b600c6020526000908152604090208054600182015460028301546003840154600490940154929391929091906001600160a01b031685565b6040805195865260208601949094529284019190915260608301526001600160a01b0316608082015260a0016101c3565b3480156105c857600080fd5b506102fb6105d7366004612cd0565b6120c4565b3480156105e857600080fd5b506102906105f7366004612cd0565b6007602052600090815260409020546001600160a01b031681565b600354600090859082906106286103e887612e00565b6106329190612e22565b6040516323b872dd60e01b81526001600160a01b03868116600483015230602483015260448201899052919250908316906323b872dd906064016020604051808303816000875af115801561068b573d6000803e3d6000fd5b505050506040513d601f19601f820116820180604052508101906106af9190612e41565b50844710156107055760405162461bcd60e51b815260206004820152601e60248201527f436f6e74726163743a20496e73756666696369656e742042616c616e6365000060448201526064015b60405180910390fd5b6001600160a01b0384166108fc61071c8388612e5e565b6040518115909202916000818181858888f19350505050158015610744573d6000803e3d6000fd5b509695505050505050565b600080546001600160a01b038581168352600760205260408084205486831685528185205491517fbaaa61be000000000000000000000000000000000000000000000000000000008152908316600482015290821660248201528392919091169063baaa61be90604401602060405180830381865afa1580156107d6573d6000803e3d6000fd5b505050506040513d601f19601f820116820180604052508101906107fa9190612e71565b90506305f5e10061080b8285612e22565b6108159190612e00565b95945050505050565b336000908152600b60205260409020541561087b5760405162461bcd60e51b815260206004820152600a60248201527f4f6e6c792047756573740000000000000000000000000000000000000000000060448201526064016106fc565b6001600160a01b0381166108d15760405162461bcd60e51b815260206004820152601560248201527f496e76616c6964205661756c742041646472657373000000000000000000000060448201526064016106fc565b600680549060006108e183612e8a565b90915550506040805160c0810182526006548152336000818152600b60208181528583206001810154828701526002810154868801526001600160a01b03881660608701526080860184905293909252815260049091018054845181840281018401909552808552929360a0850193909283018282801561098157602002820191906000526020600020905b81548152602001906001019080831161096d575b505050919092525050336000908152600b602090815260409182902083518155838201516001820155918301516002830155606083015160038301805460808601511515600160a01b027fffffffffffffffffffffff0000000000000000000000000000000000000000009091166001600160a01b03939093169290921791909117905560a08301518051610a1c9260048501920190612c0e565b50505050565b336000908152600b60205260408120549003610a705760405162461bcd60e51b815260206004820152600d60248201526c27b7363c90283937bb34b232b960991b60448201526064016106fc565b336000908152600b602052604090206003018054911515600160a01b027fffffffffffffffffffffff00ffffffffffffffffffffffffffffffffffffffff909216919091179055565b336000908152600b60205260408120549003610b075760405162461bcd60e51b815260206004820152600d60248201526c27b7363c90283937bb34b232b960991b60448201526064016106fc565b336000908152600b6020526040902060020154610b246001612193565b811015610b735760405162461bcd60e51b815260206004820152601f60248201527f42616c616e6365204d7573742062652061746c656173742031204d415449430060448201526064016106fc565b80471015610bc35760405162461bcd60e51b815260206004820152601e60248201527f436f6e74726163743a20496e73756666696369656e742042616c616e6365000060448201526064016106fc565b6040516001600160a01b0383169082156108fc029083906000818181858888f19350505050158015610bf9573d6000803e3d6000fd5b5050336000908152600b602052604081206002015550565b6001546001600160a01b03163314610c5b5760405162461bcd60e51b815260206004820152600d60248201526c27b7363c902232b83637bcb2b960991b60448201526064016106fc565b816002541015610cad5760405162461bcd60e51b815260206004820152601460248201527f496e73756666696369656e742042616c616e636500000000000000000000000060448201526064016106fc565b81471015610cfd5760405162461bcd60e51b815260206004820152601e60248201527f436f6e74726163743a20496e73756666696369656e742042616c616e6365000060448201526064016106fc565b6040516001600160a01b0382169083156108fc029084906000818181858888f19350505050158015610d33573d6000803e3d6000fd5b508160026000828254610d469190612e5e565b90915550505050565b336000908152600b60205260408120549003610d9d5760405162461bcd60e51b815260206004820152600d60248201526c27b7363c90283937bb34b232b960991b60448201526064016106fc565b6064811015610e135760405162461bcd60e51b8152602060048201526024808201527f416d6f756e742063616e6e6f74206265206c6573736572207468616e2031303060448201527f205745490000000000000000000000000000000000000000000000000000000060648201526084016106fc565b6008546000838152600a6020526040812060010154909183916001600160a01b03918216911603610f795760643411610eb45760405162461bcd60e51b815260206004820152602360248201527f4d617469632063616e6e6f74206265206c6573736572207468616e20314f4f2060448201527f574549000000000000000000000000000000000000000000000000000000000060648201526084016106fc565b506000838152600a6020526040902060018101546002909101543491610ee7916001600160a01b0391821691168361074f565b6000858152600a6020526040908190206002015490516323b872dd60e01b8152336004820152306024820152604481018390529193506001600160a01b0316906323b872dd906064016020604051808303816000875af1158015610f4f573d6000803e3d6000fd5b505050506040513d601f19601f82011682018060405250810190610f739190612e41565b506110c3565b6000848152600a602052604090206001810154600290910154610fa9916001600160a01b0390811691168361074f565b6000858152600a6020526040908190206001015490516323b872dd60e01b8152336004820152306024820152604481018490529193506001600160a01b0316906323b872dd906064016020604051808303816000875af1158015611011573d6000803e3d6000fd5b505050506040513d601f19601f820116820180604052508101906110359190612e41565b506000848152600a6020526040908190206002015490516323b872dd60e01b8152336004820152306024820152604481018490526001600160a01b03909116906323b872dd906064016020604051808303816000875af115801561109d573d6000803e3d6000fd5b505050506040513d601f19601f820116820180604052508101906110c19190612e41565b505b60006110cf85336121a7565b90508015611129576000818152600c6020526040812060020180548492906110f8908490612ea3565b90915550506000818152600c60205260408120600301805485929061111e908490612ea3565b909155506111359050565b61113585838533612290565b6000858152600a6020908152604091829020600181015460029091015483516001600160a01b039283168152911691810191909152908101839052606081018490523360808201524260a08201527f461ecd615ea1465ce04ee1aa1810891df016f8b506e515ba3a18bb12f54962e59060c00160405180910390a15050505050565b6111e973c0ec2dca88dbe3c91518958c935ce250c718f0eb733814cf88e2675041504c7d6404f7b8978f8b65b461203d565b5061121c73c0ec2dca88dbe3c91518958c935ce250c718f0eb7360d4a61940ac5e59cbdaf05e7f702b26048320bf61203d565b5061124e73c0ec2dca88dbe3c91518958c935ce250c718f0eb72f5153e9608217dba32c6c706fef5ad9701684261203d565b5061128173c0ec2dca88dbe3c91518958c935ce250c718f0eb73304379dfa42b7127de0db93bce597bedba18b25961203d565b506112b473c0ec2dca88dbe3c91518958c935ce250c718f0eb73d24ac22e0fb3694d0318c9e56e1e99d170a3186461203d565b506112e77360d4a61940ac5e59cbdaf05e7f702b26048320bf73d24ac22e0fb3694d0318c9e56e1e99d170a3186461203d565b506113197360d4a61940ac5e59cbdaf05e7f702b26048320bf72f5153e9608217dba32c6c706fef5ad9701684261203d565b5061134b72f5153e9608217dba32c6c706fef5ad9701684273d24ac22e0fb3694d0318c9e56e1e99d170a3186461203d565b5061137d72f5153e9608217dba32c6c706fef5ad97016842733814cf88e2675041504c7d6404f7b8978f8b65b461203d565b506113b0733814cf88e2675041504c7d6404f7b8978f8b65b47360d4a61940ac5e59cbdaf05e7f702b26048320bf61203d565b506008546113db906001600160a01b031673d24ac22e0fb3694d0318c9e56e1e99d170a3186461203d565b50565b6001546001600160a01b031633146114285760405162461bcd60e51b815260206004820152600d60248201526c27b7363c902232b83637bcb2b960991b60448201526064016106fc565b6001600160a01b03811661147e5760405162461bcd60e51b815260206004820152601460248201527f496e76616c69642050616972204164647265737300000000000000000000000060448201526064016106fc565b6008805473ffffffffffffffffffffffffffffffffffffffff19166001600160a01b0392909216919091179055565b336000908152600b602052604081205490036114fb5760405162461bcd60e51b815260206004820152600d60248201526c27b7363c90283937bb34b232b960991b60448201526064016106fc565b6000818152600c60205260409020600401546001600160a01b031633146115645760405162461bcd60e51b815260206004820152600c60248201527f556e617574686f72697a6564000000000000000000000000000000000000000060448201526064016106fc565b6000818152600c602090815260408083206001908101548452600a8352818420825160808101845281548152918101546001600160a01b03908116838601526002820154168284015260038101805484518187028101870190955280855292949193606086019390928301828280156115fc57602002820191906000526020600020905b8154815260200190600101908083116115e8575b505050919092525050506020818101516040808401516000878152600c9094529281902060020154905163a9059cbb60e01b81523360048201526024810191909152929350916001600160a01b0383169063a9059cbb906044016020604051808303816000875af1158015611675573d6000803e3d6000fd5b505050506040513d601f19601f820116820180604052508101906116999190612e41565b506000848152600c60205260409081902060030154905163a9059cbb60e01b815233600482015260248101919091526001600160a01b0382169063a9059cbb906044016020604051808303816000875af11580156116fb573d6000803e3d6000fd5b505050506040513d601f19601f8201168201806040525081019061171f9190612e41565b505050600091825250600c602052604081206002810182905560030155565b6001546001600160a01b031633146117885760405162461bcd60e51b815260206004820152600d60248201526c27b7363c902232b83637bcb2b960991b60448201526064016106fc565b600081116117d85760405162461bcd60e51b815260206004820152601b60248201527f506c6174666f726d206665652063616e6e6f74206265207a65726f000000000060448201526064016106fc565b6103e881106118295760405162461bcd60e51b815260206004820181905260248201527f506c6174666f726d206665652063616e6e6f7420626520612068756e6472656460448201526064016106fc565b600355565b6001546001600160a01b031633146118785760405162461bcd60e51b815260206004820152600d60248201526c27b7363c902232b83637bcb2b960991b60448201526064016106fc565b6001600160a01b0382166118ce5760405162461bcd60e51b815260206004820152601560248201527f496e76616c696420546f6b656e2041646472657373000000000000000000000060448201526064016106fc565b6001600160a01b0381166119245760405162461bcd60e51b815260206004820152601460248201527f496e76616c69642050616972204164647265737300000000000000000000000060448201526064016106fc565b6001600160a01b039182166000908152600760205260409020805473ffffffffffffffffffffffffffffffffffffffff191691909216179055565b336000908152600b602052604081205490036119ad5760405162461bcd60e51b815260206004820152600d60248201526c27b7363c90283937bb34b232b960991b60448201526064016106fc565b336000908152600b6020526040902060020154811115611a0f5760405162461bcd60e51b815260206004820152601460248201527f496e73756666696369656e742042616c616e636500000000000000000000000060448201526064016106fc565b80471015611a5f5760405162461bcd60e51b815260206004820152601e60248201527f436f6e74726163743a20496e73756666696369656e742042616c616e6365000060448201526064016106fc565b604051339082156108fc029083906000818181858888f19350505050158015611a8c573d6000803e3d6000fd5b50336000908152600b602052604081206002018054839290611aaf908490612e5e565b909155505050565b60006064821015611b305760405162461bcd60e51b815260206004820152602c60248201527f416d6f756e7420746f20737761702063616e6e6f74206265206c65737365722060448201527f7468616e2031303020574549000000000000000000000000000000000000000060648201526084016106fc565b60008281611b3e8787612371565b6000818152600a6020526040902054909150611b9c5760405162461bcd60e51b815260206004820152601460248201527f506f6f6c20646f6573206e6f742065786973747300000000000000000000000060448201526064016106fc565b6008546000828152600a60205260409020600101546001600160a01b03918216911603611d5f576008546000828152600a6020526040902060020154349350611bf2916001600160a01b0390811691168461074f565b92506000611bff826124af565b91505083811015611c525760405162461bcd60e51b815260206004820152601660248201527f496e73756666696369656e7420506f6f6c2053697a650000000000000000000060448201526064016106fc565b6000828152600a6020526040812060020154611c78906001600160a01b03168633612563565b905060006064611c89836050612e22565b611c939190612e00565b9050611c9f8183612e5e565b60026000828254611cb09190612ea3565b90915550506000848152600a602090815260409182902082516080810184528154815260018201546001600160a01b039081168285015260028301541681850152600382018054855181860281018601909652808652611d57958b958d958b95949093606086019392830182828015611d4857602002820191906000526020600020905b815481526020019060010190808311611d34575b50505050508152505085612649565b505050611fdc565b6008546000828152600a60205260409020600201546001600160a01b03918216911603611e39576000818152600a6020526040902060010154600854611db2916001600160a01b0390811691168461074f565b92506000611dbf826124af565b50905083811015611e125760405162461bcd60e51b815260206004820152601660248201527f496e73756666696369656e7420506f6f6c2053697a650000000000000000000060448201526064016106fc565b6000828152600a6020526040812060010154611c78906001600160a01b0316858733610612565b6000818152600a602052604090206001810154600290910154611e69916001600160a01b0390811691168461074f565b92506000611e76826124af565b91505083811015611ec95760405162461bcd60e51b815260206004820152601660248201527f496e73756666696369656e7420506f6f6c2053697a650000000000000000000060448201526064016106fc565b6000828152600a602052604081206001810154600290910154611efb916001600160a01b039081169116868833612842565b905060006064611f0c836050612e22565b611f169190612e00565b9050611f228183612e5e565b60026000828254611f339190612ea3565b90915550506000848152600a602090815260409182902082516080810184528154815260018201546001600160a01b039081168285015260028301541681850152600382018054855181860281018601909652808652611fd8958b958d958b95949093606086019392830182828015611d485760200282019190600052602060002090815481526020019060010190808311611d345750505050508152505085612649565b5050505b60408051868152602081018590526001600160a01b03898116828401528816606082015242608082015290517f649451cb6bd28801e8992e83f834233301eb39b64a665a45b1e08d3e13ff679a9181900360a00190a1509095945050505050565b336000908152600b6020526040812054810361208b5760405162461bcd60e51b815260206004820152600d60248201526c27b7363c90283937bb34b232b960991b60448201526064016106fc565b61209583836129a9565b90505b92915050565b60008060006120ad8585612371565b90506120b8816124af565b92509250509250929050565b6001546001600160a01b0316331461210e5760405162461bcd60e51b815260206004820152600d60248201526c27b7363c902232b83637bcb2b960991b60448201526064016106fc565b6001600160a01b0381166121645760405162461bcd60e51b815260206004820152601460248201527f496e76616c69642050616972204164647265737300000000000000000000000060448201526064016106fc565b6009805473ffffffffffffffffffffffffffffffffffffffff19166001600160a01b0392909216919091179055565b600061209882670de0b6b3a7640000612e22565b6001600160a01b0381166000908152600b602090815260408083206004018054825181850281018501909352808352849383018282801561220757602002820191906000526020600020905b8154815260200190600101908083116121f3575b5050505050905060005b81518110156122855784600c600084848151811061223157612231612eb6565b6020026020010151815260200190815260200160002060010154036122735781818151811061226257612262612eb6565b602002602001015192505050612098565b8061227d81612e8a565b915050612211565b506000949350505050565b600580549060006122a083612e8a565b90915550506040805160a081018252600580548083526020808401898152848601988952606085019788526001600160a01b03968716608086018181526000948552600c845287852096518755915160018088019190915599516002870155975160038087019190915590516004958601805473ffffffffffffffffffffffffffffffffffffffff19169190981617909655978152600a885283812082549501805480890182559082528882200194909455938352600b865290822092549201805493840181558152929092200155565b60006001600160a01b0383161580159061239357506001600160a01b03821615155b6123df5760405162461bcd60e51b815260206004820152601360248201527f496e76616c696420506f6f6c20546f6b656e730000000000000000000000000060448201526064016106fc565b60005b60045481116124a5576000818152600a60205260409020600101546001600160a01b03858116911614801561243357506000818152600a60205260409020600201546001600160a01b038481169116145b1561243f579050612098565b6000818152600a60205260409020600101546001600160a01b03848116911614801561248757506000818152600a60205260409020600201546001600160a01b038581169116145b15612493579050612098565b8061249d81612e8a565b9150506123e2565b5060009392505050565b60008060008060005b6000868152600a6020526040902060030154811015612558576000868152600a602052604081206003018054839081106124f4576124f4612eb6565b90600052602060002001549050600c600082815260200190815260200160002060020154846125239190612ea3565b6000828152600c60205260409020600301549094506125429084612ea3565b925050808061255090612e8a565b9150506124b8565b509094909350915050565b600354600090849082906125796103e887612e00565b6125839190612e22565b90506001600160a01b03821663a9059cbb8561259f8489612e5e565b6040517fffffffff0000000000000000000000000000000000000000000000000000000060e085901b1681526001600160a01b03909216600483015260248201526044016020604051808303816000875af1158015612602573d6000803e3d6000fd5b505050506040513d601f19601f820116820180604052508101906126269190612e41565b5060085461263f9087906001600160a01b03168361074f565b9695505050505050565b60005b82606001515181101561283a5760008360600151828151811061267157612671612eb6565b6020026020010151905060008588600c6000858152602001908152602001600020600301546126a09190612e22565b6126aa9190612e00565b905080600c600084815260200190815260200160002060020160008282546126d29190612ea3565b90915550506000828152600c602052604081206003015487906126f6908a90612e22565b6127009190612e00565b905080600c600085815260200190815260200160002060030160008282546127289190612e5e565b90915550506000838152600c6020526040812060030154889061274c908890612e22565b6127569190612e00565b6000858152600c60209081526040808320600401546001600160a01b0316808452600b909252822060010180549394509092849290612796908490612ea3565b90915550506001600160a01b0381166000908152600b6020526040812060020180548492906127c6908490612ea3565b90915550506001600160a01b0381166000908152600b6020526040902060030154600160a01b900460ff16801561282157506128026001612193565b6001600160a01b0382166000908152600b602052604090206002015410155b505050505050808061283290612e8a565b91505061264c565b505050505050565b60035460009086908690839061285a6103e888612e00565b6128649190612e22565b6040516323b872dd60e01b81526001600160a01b038781166004830152306024830152604482018a9052919250908416906323b872dd906064016020604051808303816000875af11580156128bd573d6000803e3d6000fd5b505050506040513d601f19601f820116820180604052508101906128e19190612e41565b506001600160a01b03821663a9059cbb866128fc848a612e5e565b6040517fffffffff0000000000000000000000000000000000000000000000000000000060e085901b1681526001600160a01b03909216600483015260248201526044016020604051808303816000875af115801561295f573d6000803e3d6000fd5b505050506040513d601f19601f820116820180604052508101906129839190612e41565b5060085461299c9089906001600160a01b03168361074f565b9998505050505050505050565b6001600160a01b03828116600090815260076020526040812054909116612a1e5760405162461bcd60e51b815260206004820152602360248201527f5061697220646f6573206e6f74206578697374732c20436f6e7461637420616460448201526236b4b760e91b60648201526084016106fc565b6001600160a01b0382811660009081526007602052604090205416612a915760405162461bcd60e51b815260206004820152602360248201527f5061697220646f6573206e6f74206578697374732c20436f6e7461637420616460448201526236b4b760e91b60648201526084016106fc565b6000612a9d8484612371565b1580159150612ab0576000915050612098565b60048054906000612ac083612e8a565b90915550506004546000908152600a6020908152604080832081516080810183528154815260018201546001600160a01b039081168286015260028301541681840152600382018054845181870281018701909552808552919492936060860193909290830182828015612b5357602002820191906000526020600020905b815481526020019060010190808311612b3f575b505050919092525050604080516080810182526004548082526001600160a01b03808b1660208085019182528b83168587019081526060808a01519087019081526000958652600a83529690942085518155915160018301805491851673ffffffffffffffffffffffffffffffffffffffff19928316179055935160028301805491909416941693909317909155925180519596509194929350612bff92600385019290910190612c0e565b50506004549695505050505050565b828054828255906000526020600020908101928215612c49579160200282015b82811115612c49578251825591602001919060010190612c2e565b50612c55929150612c59565b5090565b5b80821115612c555760008155600101612c5a565b80356001600160a01b0381168114612c8557600080fd5b919050565b60008060008060808587031215612ca057600080fd5b612ca985612c6e565b93506020850135925060408501359150612cc560608601612c6e565b905092959194509250565b600060208284031215612ce257600080fd5b61209582612c6e565b600080600060608486031215612d0057600080fd5b612d0984612c6e565b9250612d1760208501612c6e565b9150604084013590509250925092565b80151581146113db57600080fd5b600060208284031215612d4757600080fd5b8135612d5281612d27565b9392505050565b60008060408385031215612d6c57600080fd5b82359150612d7c60208401612c6e565b90509250929050565b60008060408385031215612d9857600080fd5b50508035926020909101359150565b600060208284031215612db957600080fd5b5035919050565b60008060408385031215612dd357600080fd5b612ddc83612c6e565b9150612d7c60208401612c6e565b634e487b7160e01b600052601160045260246000fd5b600082612e1d57634e487b7160e01b600052601260045260246000fd5b500490565b6000816000190483118215151615612e3c57612e3c612dea565b500290565b600060208284031215612e5357600080fd5b8151612d5281612d27565b8181038181111561209857612098612dea565b600060208284031215612e8357600080fd5b5051919050565b600060018201612e9c57612e9c612dea565b5060010190565b8082018082111561209857612098612dea565b634e487b7160e01b600052603260045260246000fdfea2646970667358221220aba99c1a6b5bf1f1185f74bb8ee47dcd61064984b01ed02e9d56176c9c377df664736f6c63430008100033",
  "immutableReferences": {},
  "source": "// SPDX-License-Identifier: GPL-3.0\npragma solidity >=0.7.0 <0.9.0;\n\nimport {PriceApi} from \"./PriceApi.sol\";\nimport {IERC20} from \"@openzeppelin/contracts/token/ERC20/IERC20.sol\";\n// import {xUSDT} from \"./xend/XUSDT.sol\";\n\ncontract Swap {\n    PriceApi private _priceApi;\n\n    // contract admin\n    address private _deployer;\n    uint256 private _platformProfit;\n\n    // charges 0.25% fee on every successful swaps\n    uint private swapFee = 25;\n\n    // ids to avoid conflicts\n    uint256 private POOL_ID;\n    uint256 private LIQUID_ID;\n    uint256 private PROVIDER_ID;\n\n    // token contract address => chainlink aggregrator address\n    // only in the token paired to USD format\n    mapping(address => address) public pairs;\n\n    // is a member of the pairs mapping\n    // but its the native pair MATIC not IERC20\n    address public NATIVE_PAIR;\n    // paired address to USDT\n    address public USDT_PAIR;\n\n    // id => liquidity pools\n    mapping(uint => Pool) public pools;\n    // user address => provider data\n    mapping(address => Provider) public providers;\n    // id => liquids\n    mapping(uint => Liquid) public liquids;\n\n    // === Events === //\n\n    event LiquidProvided(\n        address token0,\n        address token1,\n        uint256 amount0,\n        uint256 amount1,\n        address provider,\n        uint timestamp\n    );\n\n    event FleepSwaped(\n        uint256 amount,\n        uint256 amountOut,\n        address from,\n        address to,\n        uint timestamp\n    );\n\n    // === Structs === //\n\n    // pool consists of liquids\n    // from n numbers providers\n    struct Pool {\n        uint id;\n        address token0;\n        address token1;\n        uint[] liquids;\n    }\n\n    // liquid belongs to a provider\n    // also belongs to a pool\n    struct Liquid {\n        uint id;\n        uint poolId;\n        uint256 amount0;\n        uint256 amount1;\n        address provider;\n    }\n\n    // provider properties\n    // owns n numbers of liquids\n    struct Provider {\n        uint id;\n        uint256 totalEarned;\n        uint256 balance;\n        address vaultAddress;\n        bool autoStake;\n        uint[] liquids;\n    }\n\n    constructor(address priceApI) {\n        _priceApi = PriceApi(priceApI);\n        _deployer = msg.sender;\n\n        testnetHelper();\n    }\n\n    // calculates all the size of the liquids\n    // in a pool of token pair\n    function getPoolSize(\n        address token0,\n        address token1\n    ) public view returns (uint256, uint256) {\n        uint poolId = _findPool(token0, token1);\n        return _poolSize(poolId);\n    }\n\n    // gets the exchanges rates for pair of tokens\n    // with accordance to amount of tokens\n    function estimate(\n        address token0,\n        address token1,\n        uint256 amount0 // in wei\n    ) public view returns (uint256) {\n        int256 rate = _priceApi.getExchangeRate(pairs[token0], pairs[token1]);\n        return (amount0 * uint256(rate)) / (10 ** 8);\n    }\n\n    // returns the contract address\n    function getContractAddress() public view returns (address) {\n        return address(this);\n    }\n\n    // returns the pair address for $MATIC\n    function getNativePair() public view returns (address) {\n        return NATIVE_PAIR;\n    }\n\n    // returns the pair address for $USDT\n    function getUSDTPair() public view returns (address) {\n        return USDT_PAIR;\n    }\n\n    // register as a provider\n    function unlockedProviderAccount(address vaultAddress) public onlyGuest {\n        require(vaultAddress != address(0), \"Invalid Vault Address\");\n\n        // create new unique id\n        PROVIDER_ID++;\n\n        // provider with default entries\n        providers[msg.sender] = Provider(\n            PROVIDER_ID,\n            providers[msg.sender].totalEarned,\n            providers[msg.sender].balance,\n            vaultAddress,\n            false,\n            providers[msg.sender].liquids\n        );\n    }\n\n    // === Swapping === //\n\n    function swap(\n        address token0,\n        address token1,\n        uint256 amount0\n    ) public payable returns (uint256) {\n        require(amount0 >= 100, \"Amount to swap cannot be lesser than 100 WEI\");\n\n        uint256 amount1;\n        uint256 _safeAmount0 = amount0;\n\n        uint poolId = _findPool(token0, token1);\n        require(pools[poolId].id > 0, \"Pool does not exists\");\n\n        // MATIC => ERC20\n        if (pools[poolId].token0 == NATIVE_PAIR) {\n            _safeAmount0 = msg.value;\n            amount1 = estimate(NATIVE_PAIR, pools[poolId].token1, _safeAmount0);\n\n            // check if contract has enough destination token liquid\n            (, uint256 poolSizeToken1) = _poolSize(poolId);\n            require(poolSizeToken1 >= amount1, \"Insufficient Pool Size\");\n\n            uint256 fee = _transferSwappedTokens0(\n                pools[poolId].token1,\n                amount1,\n                msg.sender\n            );\n\n            uint256 providersReward = ((fee * 80) / 100);\n            _platformProfit += (fee - providersReward);\n\n            _aggregateLiquids(\n                _safeAmount0,\n                amount1,\n                poolSizeToken1,\n                pools[poolId],\n                providersReward\n            );\n        }\n        // ERC20 => MATIC\n        else if (pools[poolId].token1 == NATIVE_PAIR) {\n            amount1 = estimate(pools[poolId].token0, NATIVE_PAIR, _safeAmount0);\n\n            // check if contract has enough destination token liquid\n            (uint256 poolSizeToken1, ) = _poolSize(poolId);\n            require(poolSizeToken1 >= amount1, \"Insufficient Pool Size\");\n\n            uint256 fee = _transferSwappedTokens1(\n                pools[poolId].token0,\n                _safeAmount0,\n                amount1,\n                msg.sender\n            );\n\n            uint256 providersReward = ((fee * 80) / 100);\n            _platformProfit += (fee - providersReward);\n\n            _aggregateLiquids(\n                _safeAmount0,\n                amount1,\n                poolSizeToken1,\n                pools[poolId],\n                providersReward\n            );\n        }\n        // ERC0 => ERC2O\n        else {\n            amount1 = estimate(\n                pools[poolId].token0,\n                pools[poolId].token1,\n                _safeAmount0\n            );\n\n            // check if contract has enough destination token liquid\n            (, uint256 poolSizeToken1) = _poolSize(poolId);\n            require(poolSizeToken1 >= amount1, \"Insufficient Pool Size\");\n\n            uint256 fee = _transferSwappedTokens2(\n                pools[poolId].token0,\n                pools[poolId].token1,\n                _safeAmount0,\n                amount1,\n                msg.sender\n            );\n\n            uint256 providersReward = ((fee * 80) / 100);\n            _platformProfit += (fee - providersReward);\n\n            _aggregateLiquids(\n                _safeAmount0,\n                amount1,\n                poolSizeToken1,\n                pools[poolId],\n                providersReward\n            );\n        }\n\n        // store the swap data on-chain\n        emit FleepSwaped(amount0, amount1, token0, token1, block.timestamp);\n\n        return amount1;\n    }\n\n    // === Providers === //\n\n    function provideLiquidity(\n        uint poolId,\n        uint256 amount0\n    ) public payable onlyProvider {\n        require(amount0 >= 100, \"Amount cannot be lesser than 100 WEI\");\n\n        uint256 amount1;\n        uint256 _safeAmount0 = amount0;\n\n        if (pools[poolId].token0 == NATIVE_PAIR) {\n            require(msg.value > 100, \"Matic cannot be lesser than 1OO WEI\");\n            // only in format of MATIC as pair subject\n            // ex MATIC/XEND\n\n            _safeAmount0 = msg.value;\n            // get the estimate for token1\n            amount1 = estimate(\n                pools[poolId].token0,\n                pools[poolId].token1,\n                _safeAmount0\n            );\n            // stake token1 to smart contract\n            IERC20(pools[poolId].token1).transferFrom(\n                msg.sender,\n                address(this),\n                amount1\n            );\n        } else {\n            // get the estimate for token1\n            amount1 = estimate(\n                pools[poolId].token0,\n                pools[poolId].token1,\n                _safeAmount0\n            );\n            // stake tokens to smart contract\n            IERC20(pools[poolId].token0).transferFrom(\n                msg.sender,\n                address(this),\n                _safeAmount0\n            );\n            IERC20(pools[poolId].token1).transferFrom(\n                msg.sender,\n                address(this),\n                amount1\n            );\n        }\n\n        uint liquidId = _liquidIndex(poolId, msg.sender);\n\n        if (liquidId > 0) {\n            // if liquid exist increment the amount\n            liquids[liquidId].amount0 += _safeAmount0;\n            liquids[liquidId].amount1 += amount1;\n        } else {\n            // otherwise create the new liquid\n            _createLiquid(poolId, _safeAmount0, amount1, msg.sender);\n        }\n\n        // store the liquidity data on-chain\n        emit LiquidProvided(\n            pools[poolId].token0,\n            pools[poolId].token1,\n            _safeAmount0,\n            amount1,\n            msg.sender,\n            block.timestamp\n        );\n    }\n\n    function removeLiquidity(uint id) public onlyProvider {\n        require(liquids[id].provider == msg.sender, \"Unauthorized\");\n\n        Pool memory pool = pools[liquids[id].poolId];\n        IERC20 token0 = IERC20(pool.token0);\n        IERC20 token1 = IERC20(pool.token1);\n\n        token0.transfer(msg.sender, liquids[id].amount0);\n        token1.transfer(msg.sender, liquids[id].amount1);\n\n        // delete liquid TO DO\n        liquids[id].amount0 = 0;\n        liquids[id].amount1 = 0;\n    }\n\n    function createPool(\n        address token0,\n        address token1\n    ) public onlyProvider returns (uint) {\n        return _createPool(token0, token1);\n    }\n\n    function updateProviderProfile(bool _autoStake) public onlyProvider {\n        providers[msg.sender].autoStake = _autoStake;\n    }\n\n    function withDrawEarnings(uint256 amount) public onlyProvider {\n        require(\n            providers[msg.sender].balance >= amount,\n            \"Insufficient Balance\"\n        );\n        require(\n            address(this).balance >= amount,\n            \"Contract: Insufficient Balance\"\n        );\n\n        payable(msg.sender).transfer(amount);\n        providers[msg.sender].balance -= amount;\n    }\n\n    function withDrawEarningsToVault(address receiver) public onlyProvider {\n        uint256 amount = providers[msg.sender].balance;\n\n        require(amount >= _inWei(1), \"Balance Must be atleast 1 MATIC\");\n        require(\n            address(this).balance >= amount,\n            \"Contract: Insufficient Balance\"\n        );\n\n        payable(receiver).transfer(amount);\n        providers[msg.sender].balance = 0;\n    }\n\n    // === Administration === //\n\n    function updateNativePair(address pair) public onlyDeployer {\n        require(pair != address(0), \"Invalid Pair Address\");\n        NATIVE_PAIR = pair;\n    }\n\n    function updateUSDTPair(address pair) public onlyDeployer {\n        require(pair != address(0), \"Invalid Pair Address\");\n        USDT_PAIR = pair;\n    }\n\n    function updateSwapFee(uint fee) public onlyDeployer {\n        require(fee > 0, \"Platform fee cannot be zero\");\n        require(fee < 1000, \"Platform fee cannot be a hundred\");\n        swapFee = fee;\n    }\n\n    function createPair(address token, address pair) public onlyDeployer {\n        require(token != address(0), \"Invalid Token Address\");\n        require(pair != address(0), \"Invalid Pair Address\");\n        pairs[token] = pair;\n    }\n\n    function withDrawPlaformEarnings(\n        uint256 amount,\n        address receiver\n    ) public onlyDeployer {\n        require(_platformProfit >= amount, \"Insufficient Balance\");\n        require(\n            address(this).balance >= amount,\n            \"Contract: Insufficient Balance\"\n        );\n\n        payable(receiver).transfer(amount);\n        _platformProfit -= amount;\n    }\n\n    // === Internal Functions === //\n\n    function _liquidIndex(\n        uint poolId,\n        address provider\n    ) private view returns (uint) {\n        uint256[] memory providerLiquids = providers[provider].liquids;\n\n        for (uint index = 0; index < providerLiquids.length; index++) {\n            if (liquids[providerLiquids[index]].poolId == poolId) {\n                return providerLiquids[index];\n            }\n        }\n\n        return 0;\n    }\n\n    function _aggregateLiquids(\n        uint256 amount0,\n        uint256 amount1,\n        uint256 poolSizeToken1,\n        Pool memory pool,\n        uint256 fee\n    ) private {\n        // equally share swap impact on all provider liquids based on their contribution\n        for (uint index = 0; index < pool.liquids.length; index++) {\n            uint liquidId = pool.liquids[index];\n\n            // calculated with ratio of this liquid compared\n            // to other liquids contributing\n            uint256 additionAmount = ((liquids[liquidId].amount1 * amount0) /\n                poolSizeToken1);\n\n            // step I\n            liquids[liquidId].amount0 += additionAmount;\n\n            // calculated with ratio of this liquid compared\n            // to other liquids contributing\n            uint256 deductionAmount = ((liquids[liquidId].amount1 * amount1) /\n                poolSizeToken1);\n\n            // step II\n            liquids[liquidId].amount1 -= deductionAmount;\n\n            // reward the liquid provider\n            uint256 reward = ((liquids[liquidId].amount1 * fee) /\n                poolSizeToken1);\n\n            address provider = liquids[liquidId].provider;\n\n            providers[provider].totalEarned += reward;\n            providers[provider].balance += reward;\n\n            // if provider is auto staking rewards in XEND vault\n            // and their balance is at least 1 MATIC\n            if (\n                providers[provider].autoStake &&\n                providers[provider].balance >= _inWei(1)\n            ) {\n                // TO DO\n                // payable(providers[provider].vaultAddress).transfer(\n                //     providers[provider].balance\n                // );\n                // providers[provider].balance = 0;\n            }\n        }\n    }\n\n    // MATIC => ERC20\n    function _transferSwappedTokens0(\n        address token1,\n        uint256 amount1,\n        address owner\n    ) private returns (uint256) {\n        IERC20 quoteToken = IERC20(token1);\n\n        uint256 _fee = ((amount1 / 1000) * swapFee);\n\n        // give user their destination token minus fee\n        quoteToken.transfer(owner, (amount1 - _fee));\n\n        // convert fee to matic\n        return estimate(token1, NATIVE_PAIR, _fee);\n    }\n\n    // ERC20 => MATIC\n    function _transferSwappedTokens1(\n        address token0,\n        uint256 amount0,\n        uint256 amount1,\n        address owner\n    ) public payable returns (uint256) {\n        IERC20 baseToken = IERC20(token0);\n\n        uint256 _fee = ((amount1 / 1000) * swapFee);\n\n        baseToken.transferFrom(owner, address(this), amount0);\n\n        // give user their destination token minus fee\n        require(\n            address(this).balance >= amount1,\n            \"Contract: Insufficient Balance\"\n        );\n        payable(owner).transfer(amount1 - _fee);\n\n        // fee already in matic\n        return _fee;\n    }\n\n    // ERC20 => ERC20\n    function _transferSwappedTokens2(\n        address token0,\n        address token1,\n        uint256 amount0,\n        uint256 amount1,\n        address owner\n    ) private returns (uint256) {\n        IERC20 baseToken = IERC20(token0);\n        IERC20 quoteToken = IERC20(token1);\n\n        uint256 _fee = ((amount1 / 1000) * swapFee);\n\n        // tranfers the base token from user to the\n        // smart contract\n        baseToken.transferFrom(owner, address(this), amount0);\n\n        // give user their destination token minus fee\n        quoteToken.transfer(owner, (amount1 - _fee));\n\n        // convert fee to matic\n        return estimate(token1, NATIVE_PAIR, _fee);\n    }\n\n    function _inWei(uint256 amount) private pure returns (uint256) {\n        return amount * 10 ** 18;\n    }\n\n    function _findPool(\n        address token0,\n        address token1\n    ) private view returns (uint) {\n        require(\n            token0 != address(0) && token1 != address(0),\n            \"Invalid Pool Tokens\"\n        );\n        for (uint index = 0; index <= POOL_ID; index++) {\n            // patern A\n            if (\n                pools[index].token0 == token0 && pools[index].token1 == token1\n            ) {\n                return index;\n            }\n\n            // pattern B\n            if (\n                pools[index].token0 == token1 && pools[index].token1 == token0\n            ) {\n                return index;\n            }\n        }\n        return 0;\n    }\n\n    function _createLiquid(\n        uint poolId,\n        uint256 amount0,\n        uint256 amount1,\n        address provider\n    ) private {\n        LIQUID_ID++;\n        // create the liquid\n        liquids[LIQUID_ID] = Liquid(\n            LIQUID_ID,\n            poolId,\n            amount0,\n            amount1,\n            provider\n        );\n        // register the liquid\n        pools[poolId].liquids.push(LIQUID_ID);\n        providers[provider].liquids.push(LIQUID_ID);\n    }\n\n    function _poolSize(uint id) private view returns (uint256, uint256) {\n        uint256 amount0;\n        uint256 amount1;\n        for (uint index = 0; index < pools[id].liquids.length; index++) {\n            uint liquidId = pools[id].liquids[index];\n            amount0 += liquids[liquidId].amount0;\n            amount1 += liquids[liquidId].amount1;\n        }\n        return (amount0, amount1);\n    }\n\n    function _createPool(\n        address token0,\n        address token1\n    ) private returns (uint) {\n        require(\n            pairs[token0] != address(0),\n            \"Pair does not exists, Contact admin\"\n        );\n        require(\n            pairs[token1] != address(0),\n            \"Pair does not exists, Contact admin\"\n        );\n\n        bool exists = _findPool(token0, token1) != 0;\n        if (exists) return 0;\n\n        POOL_ID++;\n        Pool memory pool = pools[POOL_ID];\n\n        pools[POOL_ID] = Pool(POOL_ID, token0, token1, pool.liquids);\n\n        return POOL_ID;\n    }\n\n    // calls in the constructor\n    function testnetHelper() private onlyDeployer {\n        updateNativePair(0xd0D5e3DB44DE05E9F294BB0a3bEEaF030DE24Ada);\n        updateUSDTPair(0xd24ac22e0Fb3694D0318c9e56E1E99D170a31864);\n\n        // BTC\n        createPair(\n            0xc0EC2DCA88Dbe3C91518958C935Ce250c718f0EB,\n            0x007A22900a3B98143368Bd5906f8E17e9867581b\n        );\n\n        // DAI\n        createPair(\n            0x3814CF88e2675041504C7d6404f7b8978F8B65B4,\n            0x0FCAa9c899EC5A91eBc3D5Dd869De833b06fB046\n        );\n\n        // WETH\n        createPair(\n            0x60D4A61940Ac5e59cbdaF05E7F702B26048320bF,\n            0x0715A7794a1dc8e42615F059dD6e406A6594651A\n        );\n\n        // MATIC\n        createPair(NATIVE_PAIR, NATIVE_PAIR);\n\n        // SAND\n        createPair(\n            0x00F5153e9608217DBa32C6C706fef5aD97016842,\n            0x9dd18534b8f456557d11B9DDB14dA89b2e52e308\n        );\n\n        // USDC\n        createPair(\n            0x304379DfA42B7127DE0db93Bce597bEdba18b259,\n            0x572dDec9087154dC5dfBB1546Bb62713147e0Ab0\n        );\n\n        // USDT\n        createPair(\n            0xd24ac22e0Fb3694D0318c9e56E1E99D170a31864,\n            0x92C09849638959196E976289418e5973CC96d645\n        );\n    }\n\n    // called by any provider\n    function testnetHelper2() public {\n        createPool(\n            0xc0EC2DCA88Dbe3C91518958C935Ce250c718f0EB,\n            0x3814CF88e2675041504C7d6404f7b8978F8B65B4\n        ); // BTC => DAI : 1\n        createPool(\n            0xc0EC2DCA88Dbe3C91518958C935Ce250c718f0EB,\n            0x60D4A61940Ac5e59cbdaF05E7F702B26048320bF\n        ); // BTC => WETH : 2\n        createPool(\n            0xc0EC2DCA88Dbe3C91518958C935Ce250c718f0EB,\n            0x00F5153e9608217DBa32C6C706fef5aD97016842\n        ); // BTC => SAND : 3\n        createPool(\n            0xc0EC2DCA88Dbe3C91518958C935Ce250c718f0EB,\n            0x304379DfA42B7127DE0db93Bce597bEdba18b259\n        ); // BTC => USDC : 4\n        createPool(\n            0xc0EC2DCA88Dbe3C91518958C935Ce250c718f0EB,\n            0xd24ac22e0Fb3694D0318c9e56E1E99D170a31864\n        ); // BTC => USDT : 5\n        createPool(\n            0x60D4A61940Ac5e59cbdaF05E7F702B26048320bF,\n            0xd24ac22e0Fb3694D0318c9e56E1E99D170a31864\n        ); // WETH => USDT : 6\n        createPool(\n            0x60D4A61940Ac5e59cbdaF05E7F702B26048320bF,\n            0x00F5153e9608217DBa32C6C706fef5aD97016842\n        ); // WETH => SAND : 7\n        createPool(\n            0x00F5153e9608217DBa32C6C706fef5aD97016842,\n            0xd24ac22e0Fb3694D0318c9e56E1E99D170a31864\n        ); // SAND => USDT : 8\n        createPool(\n            0x00F5153e9608217DBa32C6C706fef5aD97016842,\n            0x3814CF88e2675041504C7d6404f7b8978F8B65B4\n        ); // SAND => DAI : 9\n        createPool(\n            0x3814CF88e2675041504C7d6404f7b8978F8B65B4,\n            0x60D4A61940Ac5e59cbdaF05E7F702B26048320bF\n        ); // DAI => WETH : 10\n        createPool(NATIVE_PAIR, 0xd24ac22e0Fb3694D0318c9e56E1E99D170a31864); // MATIC => USDT : 11\n    }\n\n    // === Modifiers === //\n\n    modifier onlyGuest() {\n        require(providers[msg.sender].id == 0, \"Only Guest\");\n        _;\n    }\n\n    modifier onlyProvider() {\n        require(providers[msg.sender].id != 0, \"Only Provider\");\n        _;\n    }\n\n    modifier onlyDeployer() {\n        require(msg.sender == _deployer, \"Only Deployer\");\n        _;\n    }\n}\n",
  "sourcePath": "C:\\Users\\Arogundade Ibrahim\\Documents\\web3\\fleep\\contracts\\Swap.sol",
  "compiler": {
    "name": "solc",
    "version": "0.8.16+commit.07a7930e.Emscripten.clang"
  },
  "schemaVersion": "3.4.10",
  "updatedAt": "2022-12-01T22:37:27.719Z",
  "devdoc": {
    "kind": "dev",
    "methods": {},
    "version": 1
  },
  "userdoc": {
    "kind": "user",
    "methods": {},
    "version": 1
  }
}