{
  "contractName": "Swap",
  "abi": [
    {
      "inputs": [
        {
          "internalType": "address",
          "name": "priceApI",
          "type": "address"
        }
      ],
      "stateMutability": "nonpayable",
      "type": "constructor"
    },
    {
      "anonymous": false,
      "inputs": [
        {
          "indexed": false,
          "internalType": "uint256",
          "name": "amount",
          "type": "uint256"
        },
        {
          "indexed": false,
          "internalType": "uint256",
          "name": "amountOut",
          "type": "uint256"
        },
        {
          "indexed": false,
          "internalType": "address",
          "name": "from",
          "type": "address"
        },
        {
          "indexed": false,
          "internalType": "address",
          "name": "to",
          "type": "address"
        },
        {
          "indexed": false,
          "internalType": "uint256",
          "name": "timestamp",
          "type": "uint256"
        }
      ],
      "name": "FleepSwaped",
      "type": "event"
    },
    {
      "anonymous": false,
      "inputs": [
        {
          "indexed": false,
          "internalType": "address",
          "name": "token0",
          "type": "address"
        },
        {
          "indexed": false,
          "internalType": "address",
          "name": "token1",
          "type": "address"
        },
        {
          "indexed": false,
          "internalType": "uint256",
          "name": "amount0",
          "type": "uint256"
        },
        {
          "indexed": false,
          "internalType": "uint256",
          "name": "amount1",
          "type": "uint256"
        },
        {
          "indexed": false,
          "internalType": "address",
          "name": "provider",
          "type": "address"
        },
        {
          "indexed": false,
          "internalType": "uint256",
          "name": "timestamp",
          "type": "uint256"
        }
      ],
      "name": "LiquidProvided",
      "type": "event"
    },
    {
      "inputs": [],
      "name": "NATIVE_PAIR",
      "outputs": [
        {
          "internalType": "address",
          "name": "",
          "type": "address"
        }
      ],
      "stateMutability": "view",
      "type": "function",
      "constant": true
    },
    {
      "inputs": [],
      "name": "USDT_PAIR",
      "outputs": [
        {
          "internalType": "address",
          "name": "",
          "type": "address"
        }
      ],
      "stateMutability": "view",
      "type": "function",
      "constant": true
    },
    {
      "inputs": [
        {
          "internalType": "uint256",
          "name": "",
          "type": "uint256"
        }
      ],
      "name": "liquids",
      "outputs": [
        {
          "internalType": "uint256",
          "name": "id",
          "type": "uint256"
        },
        {
          "internalType": "uint256",
          "name": "poolId",
          "type": "uint256"
        },
        {
          "internalType": "uint256",
          "name": "amount0",
          "type": "uint256"
        },
        {
          "internalType": "uint256",
          "name": "amount1",
          "type": "uint256"
        },
        {
          "internalType": "address",
          "name": "provider",
          "type": "address"
        }
      ],
      "stateMutability": "view",
      "type": "function",
      "constant": true
    },
    {
      "inputs": [
        {
          "internalType": "address",
          "name": "",
          "type": "address"
        }
      ],
      "name": "pairs",
      "outputs": [
        {
          "internalType": "address",
          "name": "",
          "type": "address"
        }
      ],
      "stateMutability": "view",
      "type": "function",
      "constant": true
    },
    {
      "inputs": [
        {
          "internalType": "uint256",
          "name": "",
          "type": "uint256"
        }
      ],
      "name": "pools",
      "outputs": [
        {
          "internalType": "uint256",
          "name": "id",
          "type": "uint256"
        },
        {
          "internalType": "address",
          "name": "token0",
          "type": "address"
        },
        {
          "internalType": "address",
          "name": "token1",
          "type": "address"
        }
      ],
      "stateMutability": "view",
      "type": "function",
      "constant": true
    },
    {
      "inputs": [
        {
          "internalType": "address",
          "name": "",
          "type": "address"
        }
      ],
      "name": "providers",
      "outputs": [
        {
          "internalType": "uint256",
          "name": "id",
          "type": "uint256"
        },
        {
          "internalType": "uint256",
          "name": "totalEarned",
          "type": "uint256"
        },
        {
          "internalType": "uint256",
          "name": "balance",
          "type": "uint256"
        },
        {
          "internalType": "bool",
          "name": "autoStake",
          "type": "bool"
        }
      ],
      "stateMutability": "view",
      "type": "function",
      "constant": true
    },
    {
      "inputs": [
        {
          "internalType": "address",
          "name": "token0",
          "type": "address"
        },
        {
          "internalType": "address",
          "name": "token1",
          "type": "address"
        }
      ],
      "name": "getPoolSize",
      "outputs": [
        {
          "internalType": "uint256",
          "name": "",
          "type": "uint256"
        },
        {
          "internalType": "uint256",
          "name": "",
          "type": "uint256"
        }
      ],
      "stateMutability": "view",
      "type": "function",
      "constant": true
    },
    {
      "inputs": [
        {
          "internalType": "address",
          "name": "token0",
          "type": "address"
        },
        {
          "internalType": "address",
          "name": "token1",
          "type": "address"
        },
        {
          "internalType": "uint256",
          "name": "amount0",
          "type": "uint256"
        }
      ],
      "name": "estimate",
      "outputs": [
        {
          "internalType": "uint256",
          "name": "",
          "type": "uint256"
        }
      ],
      "stateMutability": "view",
      "type": "function",
      "constant": true
    },
    {
      "inputs": [],
      "name": "getContractAddress",
      "outputs": [
        {
          "internalType": "address",
          "name": "",
          "type": "address"
        }
      ],
      "stateMutability": "view",
      "type": "function",
      "constant": true
    },
    {
      "inputs": [],
      "name": "getNativePair",
      "outputs": [
        {
          "internalType": "address",
          "name": "",
          "type": "address"
        }
      ],
      "stateMutability": "view",
      "type": "function",
      "constant": true
    },
    {
      "inputs": [],
      "name": "getUSDTPair",
      "outputs": [
        {
          "internalType": "address",
          "name": "",
          "type": "address"
        }
      ],
      "stateMutability": "view",
      "type": "function",
      "constant": true
    },
    {
      "inputs": [],
      "name": "unlockedProviderAccount",
      "outputs": [],
      "stateMutability": "nonpayable",
      "type": "function"
    },
    {
      "inputs": [
        {
          "internalType": "address",
          "name": "token0",
          "type": "address"
        },
        {
          "internalType": "address",
          "name": "token1",
          "type": "address"
        },
        {
          "internalType": "uint256",
          "name": "amount0",
          "type": "uint256"
        }
      ],
      "name": "swap",
      "outputs": [
        {
          "internalType": "uint256",
          "name": "",
          "type": "uint256"
        }
      ],
      "stateMutability": "payable",
      "type": "function",
      "payable": true
    },
    {
      "inputs": [
        {
          "internalType": "uint256",
          "name": "poolId",
          "type": "uint256"
        },
        {
          "internalType": "uint256",
          "name": "amount0",
          "type": "uint256"
        }
      ],
      "name": "provideLiquidity",
      "outputs": [],
      "stateMutability": "payable",
      "type": "function",
      "payable": true
    },
    {
      "inputs": [
        {
          "internalType": "uint256",
          "name": "id",
          "type": "uint256"
        }
      ],
      "name": "removeLiquidity",
      "outputs": [],
      "stateMutability": "nonpayable",
      "type": "function"
    },
    {
      "inputs": [
        {
          "internalType": "address",
          "name": "wallet",
          "type": "address"
        }
      ],
      "name": "myLiquidities",
      "outputs": [
        {
          "internalType": "uint256[]",
          "name": "",
          "type": "uint256[]"
        },
        {
          "internalType": "uint256[]",
          "name": "",
          "type": "uint256[]"
        },
        {
          "internalType": "uint256[]",
          "name": "",
          "type": "uint256[]"
        },
        {
          "internalType": "uint256[]",
          "name": "",
          "type": "uint256[]"
        }
      ],
      "stateMutability": "view",
      "type": "function",
      "constant": true
    },
    {
      "inputs": [
        {
          "internalType": "address",
          "name": "token0",
          "type": "address"
        },
        {
          "internalType": "address",
          "name": "token1",
          "type": "address"
        }
      ],
      "name": "createPool",
      "outputs": [
        {
          "internalType": "uint256",
          "name": "",
          "type": "uint256"
        }
      ],
      "stateMutability": "nonpayable",
      "type": "function"
    },
    {
      "inputs": [
        {
          "internalType": "bool",
          "name": "_autoStake",
          "type": "bool"
        }
      ],
      "name": "updateProviderProfile",
      "outputs": [],
      "stateMutability": "nonpayable",
      "type": "function"
    },
    {
      "inputs": [
        {
          "internalType": "uint256",
          "name": "amount",
          "type": "uint256"
        }
      ],
      "name": "withDrawEarnings",
      "outputs": [],
      "stateMutability": "nonpayable",
      "type": "function"
    },
    {
      "inputs": [
        {
          "internalType": "address",
          "name": "pair",
          "type": "address"
        }
      ],
      "name": "updateNativePair",
      "outputs": [],
      "stateMutability": "nonpayable",
      "type": "function"
    },
    {
      "inputs": [
        {
          "internalType": "address",
          "name": "pair",
          "type": "address"
        }
      ],
      "name": "updateUSDTPair",
      "outputs": [],
      "stateMutability": "nonpayable",
      "type": "function"
    },
    {
      "inputs": [
        {
          "internalType": "uint256",
          "name": "fee",
          "type": "uint256"
        }
      ],
      "name": "updateSwapFee",
      "outputs": [],
      "stateMutability": "nonpayable",
      "type": "function"
    },
    {
      "inputs": [
        {
          "internalType": "address",
          "name": "token",
          "type": "address"
        },
        {
          "internalType": "address",
          "name": "pair",
          "type": "address"
        }
      ],
      "name": "createPair",
      "outputs": [],
      "stateMutability": "nonpayable",
      "type": "function"
    },
    {
      "inputs": [
        {
          "internalType": "uint256",
          "name": "amount",
          "type": "uint256"
        },
        {
          "internalType": "address",
          "name": "receiver",
          "type": "address"
        }
      ],
      "name": "withDrawPlaformEarnings",
      "outputs": [],
      "stateMutability": "nonpayable",
      "type": "function"
    },
    {
      "inputs": [
        {
          "internalType": "address",
          "name": "token0",
          "type": "address"
        },
        {
          "internalType": "uint256",
          "name": "amount0",
          "type": "uint256"
        },
        {
          "internalType": "uint256",
          "name": "amount1",
          "type": "uint256"
        },
        {
          "internalType": "address",
          "name": "owner",
          "type": "address"
        }
      ],
      "name": "_transferSwappedTokens1",
      "outputs": [
        {
          "internalType": "uint256",
          "name": "",
          "type": "uint256"
        }
      ],
      "stateMutability": "payable",
      "type": "function",
      "payable": true
    },
    {
      "inputs": [],
      "name": "testnetHelper2",
      "outputs": [],
      "stateMutability": "nonpayable",
      "type": "function"
    }
  ],
  "bytecode": "0x608060405260196003553480156200001657600080fd5b50604051620036ac380380620036ac833981016040819052620000399162000507565b600080546001600160a01b0383166001600160a01b03199182161790915560018054909116331790556200006c62000073565b5062000539565b6001546001600160a01b03163314620000c35760405162461bcd60e51b815260206004820152600d60248201526c27b7363c902232b83637bcb2b960991b60448201526064015b60405180910390fd5b620000e273d0d5e3db44de05e9f294bb0a3beeaf030de24ada62000251565b6200010173d24ac22e0fb3694d0318c9e56e1e99d170a3186462000317565b6200013473c0ec2dca88dbe3c91518958c935ce250c718f0eb727a22900a3b98143368bd5906f8e17e9867581b620003dd565b62000168733814cf88e2675041504c7d6404f7b8978f8b65b4730fcaa9c899ec5a91ebc3d5dd869de833b06fb046620003dd565b6200019c7360d4a61940ac5e59cbdaf05e7f702b26048320bf730715a7794a1dc8e42615f059dd6e406a6594651a620003dd565b600854620001b4906001600160a01b031680620003dd565b620001e772f5153e9608217dba32c6c706fef5ad97016842739dd18534b8f456557d11b9ddb14da89b2e52e308620003dd565b6200021b73304379dfa42b7127de0db93bce597bedba18b25973572ddec9087154dc5dfbb1546bb62713147e0ab0620003dd565b6200024f73d24ac22e0fb3694d0318c9e56e1e99d170a318647392c09849638959196e976289418e5973cc96d645620003dd565b565b6001546001600160a01b031633146200029d5760405162461bcd60e51b815260206004820152600d60248201526c27b7363c902232b83637bcb2b960991b6044820152606401620000ba565b6001600160a01b038116620002f55760405162461bcd60e51b815260206004820152601460248201527f496e76616c6964205061697220416464726573730000000000000000000000006044820152606401620000ba565b600880546001600160a01b0319166001600160a01b0392909216919091179055565b6001546001600160a01b03163314620003635760405162461bcd60e51b815260206004820152600d60248201526c27b7363c902232b83637bcb2b960991b6044820152606401620000ba565b6001600160a01b038116620003bb5760405162461bcd60e51b815260206004820152601460248201527f496e76616c6964205061697220416464726573730000000000000000000000006044820152606401620000ba565b600980546001600160a01b0319166001600160a01b0392909216919091179055565b6001546001600160a01b03163314620004295760405162461bcd60e51b815260206004820152600d60248201526c27b7363c902232b83637bcb2b960991b6044820152606401620000ba565b6001600160a01b038216620004815760405162461bcd60e51b815260206004820152601560248201527f496e76616c696420546f6b656e204164647265737300000000000000000000006044820152606401620000ba565b6001600160a01b038116620004d95760405162461bcd60e51b815260206004820152601460248201527f496e76616c6964205061697220416464726573730000000000000000000000006044820152606401620000ba565b6001600160a01b03918216600090815260076020526040902080546001600160a01b03191691909216179055565b6000602082840312156200051a57600080fd5b81516001600160a01b03811681146200053257600080fd5b9392505050565b61316380620005496000396000f3fe6080604052600436106101a15760003560e01c80639c8f9f23116100e1578063d30dce7d1161008a578063ecd44aef11610064578063ecd44aef146104e5578063eebb63ed1461051a578063f50c4fe81461059e578063fe33b302146105be57600080fd5b8063d30dce7d14610492578063df791e50146104b2578063e3433615146104c557600080fd5b8063bf16f65a116100bb578063bf16f65a14610422578063c963cb7414610442578063c9c653961461047257600080fd5b80639c8f9f2314610375578063ac4afa3814610395578063b8eab4091461040257600080fd5b806351fde3441161014e5780637a16af7f116101285780637a16af7f1461030f5780638625ed13146103225780638a2627f01461033757806391e5f37f1461035557600080fd5b806351fde344146102b85780635554b552146102da57806378c480db146102ef57600080fd5b806316339a9b1161017f57806316339a9b1461025357806332a2c5d014610285578063344bfb591461029857600080fd5b8063061bf045146101a65780630787bc27146101cc578063102a5f9114610233575b600080fd5b6101b96101b4366004612e4d565b6105f4565b6040519081526020015b60405180910390f35b3480156101d857600080fd5b506102116101e7366004612e93565b600b6020526000908152604090208054600182015460028301546003909301549192909160ff1684565b60408051948552602085019390935291830152151560608201526080016101c3565b34801561023f57600080fd5b506101b961024e366004612eae565b61074f565b34801561025f57600080fd5b506009546001600160a01b03165b6040516001600160a01b0390911681526020016101c3565b34801561029157600080fd5b503061026d565b3480156102a457600080fd5b5060085461026d906001600160a01b031681565b3480156102c457600080fd5b506102d86102d3366004612ef8565b61081e565b005b3480156102e657600080fd5b506102d861088f565b3480156102fb57600080fd5b506102d861030a366004612f1c565b6109f3565b6102d861031d366004612f48565b610b22565b34801561032e57600080fd5b506102d8610f8a565b34801561034357600080fd5b506008546001600160a01b031661026d565b34801561036157600080fd5b506102d8610370366004612e93565b6111b1565b34801561038157600080fd5b506102d8610390366004612f6a565b611280565b3480156103a157600080fd5b506103dd6103b0366004612f6a565b600a6020526000908152604090208054600182015460029092015490916001600160a01b03908116911683565b604080519384526001600160a01b0392831660208501529116908201526060016101c3565b34801561040e57600080fd5b5060095461026d906001600160a01b031681565b34801561042e57600080fd5b506102d861043d366004612f6a565b61169f565b34801561044e57600080fd5b5061046261045d366004612e93565b61178f565b6040516101c39493929190612fbe565b34801561047e57600080fd5b506102d861048d36600461300b565b611a00565b34801561049e57600080fd5b506102d86104ad366004612f6a565b611b31565b6101b96104c0366004612eae565b611c81565b3480156104d157600080fd5b506101b96104e036600461300b565b612207565b3480156104f157600080fd5b5061050561050036600461300b565b612268565b604080519283526020830191909152016101c3565b34801561052657600080fd5b5061056d610535366004612f6a565b600c6020526000908152604090208054600182015460028301546003840154600490940154929391929091906001600160a01b031685565b6040805195865260208601949094529284019190915260608301526001600160a01b0316608082015260a0016101c3565b3480156105aa57600080fd5b506102d86105b9366004612e93565b61228e565b3480156105ca57600080fd5b5061026d6105d9366004612e93565b6007602052600090815260409020546001600160a01b031681565b6003546000908590829061060a6103e88761304b565b610614919061306d565b6040516323b872dd60e01b81526001600160a01b03868116600483015230602483015260448201899052919250908316906323b872dd906064016020604051808303816000875af115801561066d573d6000803e3d6000fd5b505050506040513d601f19601f82011682018060405250810190610691919061308c565b50844710156106e75760405162461bcd60e51b815260206004820152601e60248201527f436f6e74726163743a20496e73756666696369656e742042616c616e6365000060448201526064015b60405180910390fd5b6001600160a01b0384166108fc6106fe83886130a9565b6040518115909202916000818181858888f19350505050158015610726573d6000803e3d6000fd5b50600854600954610744916001600160a01b0390811691168361074f565b979650505050505050565b600080546001600160a01b038581168352600760205260408084205486831685528185205491517fbaaa61be000000000000000000000000000000000000000000000000000000008152908316600482015290821660248201528392919091169063baaa61be90604401602060405180830381865afa1580156107d6573d6000803e3d6000fd5b505050506040513d601f19601f820116820180604052508101906107fa91906130bc565b90506305f5e10061080b828561306d565b610815919061304b565b95945050505050565b336000908152600b6020526040812054900361086c5760405162461bcd60e51b815260206004820152600d60248201526c27b7363c90283937bb34b232b960991b60448201526064016106de565b336000908152600b60205260409020600301805460ff1916911515919091179055565b336000908152600b6020526040902054156108ec5760405162461bcd60e51b815260206004820152600a60248201527f4f6e6c792047756573740000000000000000000000000000000000000000000060448201526064016106de565b600680549060006108fc836130d5565b90915550506040805160a0810182526006548152336000818152600b6020818152858320600181015482870152600281015486880152606086018490529390925281526004909101805484518184028101840190955280855292936080850193909283018282801561098d57602002820191906000526020600020905b815481526020019060010190808311610979575b505050919092525050336000908152600b602090815260409182902083518155838201516001820155918301516002830155606083015160038301805460ff1916911515919091179055608083015180516109ee9260048501920190612dd1565b505050565b6001546001600160a01b03163314610a3d5760405162461bcd60e51b815260206004820152600d60248201526c27b7363c902232b83637bcb2b960991b60448201526064016106de565b816002541015610a8f5760405162461bcd60e51b815260206004820152601460248201527f496e73756666696369656e742042616c616e636500000000000000000000000060448201526064016106de565b60095460405163a9059cbb60e01b81526001600160a01b038381166004830152602482018590529091169063a9059cbb906044016020604051808303816000875af1158015610ae2573d6000803e3d6000fd5b505050506040513d601f19601f82011682018060405250810190610b06919061308c565b508160026000828254610b1991906130a9565b90915550505050565b336000908152600b60205260408120549003610b705760405162461bcd60e51b815260206004820152600d60248201526c27b7363c90283937bb34b232b960991b60448201526064016106de565b6064811015610be65760405162461bcd60e51b8152602060048201526024808201527f416d6f756e742063616e6e6f74206265206c6573736572207468616e2031303060448201527f205745490000000000000000000000000000000000000000000000000000000060648201526084016106de565b6008546000838152600a6020526040812060010154909183916001600160a01b03918216911603610d4c5760643411610c875760405162461bcd60e51b815260206004820152602360248201527f4d617469632063616e6e6f74206265206c6573736572207468616e20314f4f2060448201527f574549000000000000000000000000000000000000000000000000000000000060648201526084016106de565b506000838152600a6020526040902060018101546002909101543491610cba916001600160a01b0391821691168361074f565b6000858152600a6020526040908190206002015490516323b872dd60e01b8152336004820152306024820152604481018390529193506001600160a01b0316906323b872dd906064016020604051808303816000875af1158015610d22573d6000803e3d6000fd5b505050506040513d601f19601f82011682018060405250810190610d46919061308c565b50610e96565b6000848152600a602052604090206001810154600290910154610d7c916001600160a01b0390811691168361074f565b6000858152600a6020526040908190206001015490516323b872dd60e01b8152336004820152306024820152604481018490529193506001600160a01b0316906323b872dd906064016020604051808303816000875af1158015610de4573d6000803e3d6000fd5b505050506040513d601f19601f82011682018060405250810190610e08919061308c565b506000848152600a6020526040908190206002015490516323b872dd60e01b8152336004820152306024820152604481018490526001600160a01b03909116906323b872dd906064016020604051808303816000875af1158015610e70573d6000803e3d6000fd5b505050506040513d601f19601f82011682018060405250810190610e94919061308c565b505b6000610ea2853361235d565b90508015610efc576000818152600c602052604081206002018054849290610ecb9084906130ee565b90915550506000818152600c602052604081206003018054859290610ef19084906130ee565b90915550610f089050565b610f0885838533612446565b6000858152600a6020908152604091829020600181015460029091015483516001600160a01b039283168152911691810191909152908101839052606081018490523360808201524260a08201527f461ecd615ea1465ce04ee1aa1810891df016f8b506e515ba3a18bb12f54962e59060c00160405180910390a15050505050565b610fbc73c0ec2dca88dbe3c91518958c935ce250c718f0eb733814cf88e2675041504c7d6404f7b8978f8b65b4612207565b50610fef73c0ec2dca88dbe3c91518958c935ce250c718f0eb7360d4a61940ac5e59cbdaf05e7f702b26048320bf612207565b5061102173c0ec2dca88dbe3c91518958c935ce250c718f0eb72f5153e9608217dba32c6c706fef5ad97016842612207565b5061105473c0ec2dca88dbe3c91518958c935ce250c718f0eb73304379dfa42b7127de0db93bce597bedba18b259612207565b5061108773c0ec2dca88dbe3c91518958c935ce250c718f0eb73d24ac22e0fb3694d0318c9e56e1e99d170a31864612207565b506110ba7360d4a61940ac5e59cbdaf05e7f702b26048320bf73d24ac22e0fb3694d0318c9e56e1e99d170a31864612207565b506110ec7360d4a61940ac5e59cbdaf05e7f702b26048320bf72f5153e9608217dba32c6c706fef5ad97016842612207565b5061111e72f5153e9608217dba32c6c706fef5ad9701684273d24ac22e0fb3694d0318c9e56e1e99d170a31864612207565b5061115072f5153e9608217dba32c6c706fef5ad97016842733814cf88e2675041504c7d6404f7b8978f8b65b4612207565b50611183733814cf88e2675041504c7d6404f7b8978f8b65b47360d4a61940ac5e59cbdaf05e7f702b26048320bf612207565b506008546111ae906001600160a01b031673d24ac22e0fb3694d0318c9e56e1e99d170a31864612207565b50565b6001546001600160a01b031633146111fb5760405162461bcd60e51b815260206004820152600d60248201526c27b7363c902232b83637bcb2b960991b60448201526064016106de565b6001600160a01b0381166112515760405162461bcd60e51b815260206004820152601460248201527f496e76616c69642050616972204164647265737300000000000000000000000060448201526064016106de565b6008805473ffffffffffffffffffffffffffffffffffffffff19166001600160a01b0392909216919091179055565b336000908152600b602052604081205490036112ce5760405162461bcd60e51b815260206004820152600d60248201526c27b7363c90283937bb34b232b960991b60448201526064016106de565b6000818152600c60205260409020600401546001600160a01b031633146113375760405162461bcd60e51b815260206004820152600c60248201527f556e617574686f72697a6564000000000000000000000000000000000000000060448201526064016106de565b6000818152600c60209081526040808320600190810154808552600a8452828520835160808101855281548152928101546001600160a01b039081168487015260028201541683850152600381018054855181880281018801909652808652929695939491936060860193908301828280156113d257602002820191906000526020600020905b8154815260200190600101908083116113be575b505050919092525050506020808201516000868152600c90925260409182902060020154915163a9059cbb60e01b815233600482015260248101929092529192506001600160a01b039091169063a9059cbb906044016020604051808303816000875af1158015611447573d6000803e3d6000fd5b505050506040513d601f19601f8201168201806040525081019061146b919061308c565b506040818101516000858152600c60205282902060030154915163a9059cbb60e01b815233600482015260248101929092526001600160a01b03169063a9059cbb906044016020604051808303816000875af11580156114cf573d6000803e3d6000fd5b505050506040513d601f19601f820116820180604052508101906114f3919061308c565b5060005b6000838152600a60205260409020600301548110156115a8576000838152600a6020526040812060030180543392600c9290918590811061153a5761153a613101565b600091825260208083209091015483528201929092526040019020600401546001600160a01b031603611596576000838152600a6020526040902060030180548290811061158a5761158a613101565b60009182526020822001555b806115a0816130d5565b9150506114f7565b5060005b336000908152600b6020526040902060040154811015611655578151336000908152600b602052604081206004018054600c929190859081106115f1576115f1613101565b90600052602060002001548152602001908152602001600020600101540361164357336000908152600b6020526040902060040180548290811061163757611637613101565b60009182526020822001555b8061164d816130d5565b9150506115ac565b5050506000908152600c6020526040812081815560018101829055600281018290556003810191909155600401805473ffffffffffffffffffffffffffffffffffffffff19169055565b6001546001600160a01b031633146116e95760405162461bcd60e51b815260206004820152600d60248201526c27b7363c902232b83637bcb2b960991b60448201526064016106de565b600081116117395760405162461bcd60e51b815260206004820152601b60248201527f506c6174666f726d206665652063616e6e6f74206265207a65726f000000000060448201526064016106de565b6103e8811061178a5760405162461bcd60e51b815260206004820181905260248201527f506c6174666f726d206665652063616e6e6f7420626520612068756e6472656460448201526064016106de565b600355565b6060806060806000600b6000876001600160a01b03166001600160a01b0316815260200190815260200160002060040180548060200260200160405190810160405280929190818152602001828054801561180957602002820191906000526020600020905b8154815260200190600101908083116117f5575b505050505090506000815167ffffffffffffffff81111561182c5761182c613117565b604051908082528060200260200182016040528015611855578160200160208202803683370190505b5090506000825167ffffffffffffffff81111561187457611874613117565b60405190808252806020026020018201604052801561189d578160200160208202803683370190505b5090506000835167ffffffffffffffff8111156118bc576118bc613117565b6040519080825280602002602001820160405280156118e5578160200160208202803683370190505b50905060005b84518110156119ef57600c600086838151811061190a5761190a613101565b602002602001015181526020019081526020016000206001015484828151811061193657611936613101565b602002602001018181525050600c600086838151811061195857611958613101565b602002602001015181526020019081526020016000206002015483828151811061198457611984613101565b602002602001018181525050600c60008683815181106119a6576119a6613101565b60200260200101518152602001908152602001600020600301548282815181106119d2576119d2613101565b6020908102919091010152806119e7816130d5565b9150506118eb565b509196509450925090509193509193565b6001546001600160a01b03163314611a4a5760405162461bcd60e51b815260206004820152600d60248201526c27b7363c902232b83637bcb2b960991b60448201526064016106de565b6001600160a01b038216611aa05760405162461bcd60e51b815260206004820152601560248201527f496e76616c696420546f6b656e2041646472657373000000000000000000000060448201526064016106de565b6001600160a01b038116611af65760405162461bcd60e51b815260206004820152601460248201527f496e76616c69642050616972204164647265737300000000000000000000000060448201526064016106de565b6001600160a01b039182166000908152600760205260409020805473ffffffffffffffffffffffffffffffffffffffff191691909216179055565b336000908152600b60205260408120549003611b7f5760405162461bcd60e51b815260206004820152600d60248201526c27b7363c90283937bb34b232b960991b60448201526064016106de565b336000908152600b6020526040902060020154811115611be15760405162461bcd60e51b815260206004820152601460248201527f496e73756666696369656e742042616c616e636500000000000000000000000060448201526064016106de565b60095460405163a9059cbb60e01b8152336004820152602481018390526001600160a01b039091169063a9059cbb906044016020604051808303816000875af1158015611c32573d6000803e3d6000fd5b505050506040513d601f19601f82011682018060405250810190611c56919061308c565b50336000908152600b602052604081206002018054839290611c799084906130a9565b909155505050565b60006064821015611cfa5760405162461bcd60e51b815260206004820152602c60248201527f416d6f756e7420746f20737761702063616e6e6f74206265206c65737365722060448201527f7468616e2031303020574549000000000000000000000000000000000000000060648201526084016106de565b60008281611d088787612527565b6000818152600a6020526040902054909150611d665760405162461bcd60e51b815260206004820152601460248201527f506f6f6c20646f6573206e6f742065786973747300000000000000000000000060448201526064016106de565b6008546000828152600a60205260409020600101546001600160a01b03918216911603611f29576008546000828152600a6020526040902060020154349350611dbc916001600160a01b0390811691168461074f565b92506000611dc982612665565b91505083811015611e1c5760405162461bcd60e51b815260206004820152601660248201527f496e73756666696369656e7420506f6f6c2053697a650000000000000000000060448201526064016106de565b6000828152600a6020526040812060020154611e42906001600160a01b03168633612719565b905060006064611e5383605061306d565b611e5d919061304b565b9050611e6981836130a9565b60026000828254611e7a91906130ee565b90915550506000848152600a602090815260409182902082516080810184528154815260018201546001600160a01b039081168285015260028301541681850152600382018054855181860281018601909652808652611f21958b958d958b95949093606086019392830182828015611f1257602002820191906000526020600020905b815481526020019060010190808311611efe575b505050505081525050856127ff565b5050506121a6565b6008546000828152600a60205260409020600201546001600160a01b03918216911603612003576000818152600a6020526040902060010154600854611f7c916001600160a01b0390811691168461074f565b92506000611f8982612665565b50905083811015611fdc5760405162461bcd60e51b815260206004820152601660248201527f496e73756666696369656e7420506f6f6c2053697a650000000000000000000060448201526064016106de565b6000828152600a6020526040812060010154611e42906001600160a01b03168587336105f4565b6000818152600a602052604090206001810154600290910154612033916001600160a01b0390811691168461074f565b9250600061204082612665565b915050838110156120935760405162461bcd60e51b815260206004820152601660248201527f496e73756666696369656e7420506f6f6c2053697a650000000000000000000060448201526064016106de565b6000828152600a6020526040812060018101546002909101546120c5916001600160a01b0390811691168688336129f1565b9050600060646120d683605061306d565b6120e0919061304b565b90506120ec81836130a9565b600260008282546120fd91906130ee565b90915550506000848152600a602090815260409182902082516080810184528154815260018201546001600160a01b0390811682850152600283015416818501526003820180548551818602810186019096528086526121a2958b958d958b95949093606086019392830182828015611f125760200282019190600052602060002090815481526020019060010190808311611efe57505050505081525050856127ff565b5050505b60408051868152602081018590526001600160a01b03898116828401528816606082015242608082015290517f649451cb6bd28801e8992e83f834233301eb39b64a665a45b1e08d3e13ff679a9181900360a00190a1509095945050505050565b336000908152600b602052604081205481036122555760405162461bcd60e51b815260206004820152600d60248201526c27b7363c90283937bb34b232b960991b60448201526064016106de565b61225f8383612b58565b90505b92915050565b60008060006122778585612527565b905061228281612665565b92509250509250929050565b6001546001600160a01b031633146122d85760405162461bcd60e51b815260206004820152600d60248201526c27b7363c902232b83637bcb2b960991b60448201526064016106de565b6001600160a01b03811661232e5760405162461bcd60e51b815260206004820152601460248201527f496e76616c69642050616972204164647265737300000000000000000000000060448201526064016106de565b6009805473ffffffffffffffffffffffffffffffffffffffff19166001600160a01b0392909216919091179055565b6001600160a01b0381166000908152600b60209081526040808320600401805482518185028101850190935280835284938301828280156123bd57602002820191906000526020600020905b8154815260200190600101908083116123a9575b5050505050905060005b815181101561243b5784600c60008484815181106123e7576123e7613101565b6020026020010151815260200190815260200160002060010154036124295781818151811061241857612418613101565b602002602001015192505050612262565b80612433816130d5565b9150506123c7565b506000949350505050565b60058054906000612456836130d5565b90915550506040805160a081018252600580548083526020808401898152848601988952606085019788526001600160a01b03968716608086018181526000948552600c845287852096518755915160018088019190915599516002870155975160038087019190915590516004958601805473ffffffffffffffffffffffffffffffffffffffff19169190981617909655978152600a885283812082549501805480890182559082528882200194909455938352600b865290822092549201805493840181558152929092200155565b60006001600160a01b0383161580159061254957506001600160a01b03821615155b6125955760405162461bcd60e51b815260206004820152601360248201527f496e76616c696420506f6f6c20546f6b656e730000000000000000000000000060448201526064016106de565b60005b600454811161265b576000818152600a60205260409020600101546001600160a01b0385811691161480156125e957506000818152600a60205260409020600201546001600160a01b038481169116145b156125f5579050612262565b6000818152600a60205260409020600101546001600160a01b03848116911614801561263d57506000818152600a60205260409020600201546001600160a01b038581169116145b15612649579050612262565b80612653816130d5565b915050612598565b5060009392505050565b60008060008060005b6000868152600a602052604090206003015481101561270e576000868152600a602052604081206003018054839081106126aa576126aa613101565b90600052602060002001549050600c600082815260200190815260200160002060020154846126d991906130ee565b6000828152600c60205260409020600301549094506126f890846130ee565b9250508080612706906130d5565b91505061266e565b509094909350915050565b6003546000908490829061272f6103e88761304b565b612739919061306d565b90506001600160a01b03821663a9059cbb8561275584896130a9565b6040517fffffffff0000000000000000000000000000000000000000000000000000000060e085901b1681526001600160a01b03909216600483015260248201526044016020604051808303816000875af11580156127b8573d6000803e3d6000fd5b505050506040513d601f19601f820116820180604052508101906127dc919061308c565b506009546127f59087906001600160a01b03168361074f565b9695505050505050565b60005b8260600151518110156129e95760008360600151828151811061282757612827613101565b6020026020010151905060008588600c600085815260200190815260200160002060030154612856919061306d565b612860919061304b565b905080600c6000848152602001908152602001600020600201600082825461288891906130ee565b90915550506000828152600c602052604081206003015487906128ac908a9061306d565b6128b6919061304b565b905080600c600085815260200190815260200160002060030160008282546128de91906130a9565b90915550506000838152600c6020526040812060030154889061290290889061306d565b61290c919061304b565b6000858152600c60209081526040808320600401546001600160a01b0316808452600b90925282206001018054939450909284929061294c9084906130ee565b90915550506001600160a01b0381166000908152600b60205260408120600201805484929061297c9084906130ee565b90915550506001600160a01b0381166000908152600b602052604090206003015460ff1680156129d057506129b16001612dbd565b6001600160a01b0382166000908152600b602052604090206002015410155b50505050505080806129e1906130d5565b915050612802565b505050505050565b600354600090869086908390612a096103e88861304b565b612a13919061306d565b6040516323b872dd60e01b81526001600160a01b038781166004830152306024830152604482018a9052919250908416906323b872dd906064016020604051808303816000875af1158015612a6c573d6000803e3d6000fd5b505050506040513d601f19601f82011682018060405250810190612a90919061308c565b506001600160a01b03821663a9059cbb86612aab848a6130a9565b6040517fffffffff0000000000000000000000000000000000000000000000000000000060e085901b1681526001600160a01b03909216600483015260248201526044016020604051808303816000875af1158015612b0e573d6000803e3d6000fd5b505050506040513d601f19601f82011682018060405250810190612b32919061308c565b50600954612b4b9089906001600160a01b03168361074f565b9998505050505050505050565b6001600160a01b03828116600090815260076020526040812054909116612bcd5760405162461bcd60e51b815260206004820152602360248201527f5061697220646f6573206e6f74206578697374732c20436f6e7461637420616460448201526236b4b760e91b60648201526084016106de565b6001600160a01b0382811660009081526007602052604090205416612c405760405162461bcd60e51b815260206004820152602360248201527f5061697220646f6573206e6f74206578697374732c20436f6e7461637420616460448201526236b4b760e91b60648201526084016106de565b6000612c4c8484612527565b1580159150612c5f576000915050612262565b60048054906000612c6f836130d5565b90915550506004546000908152600a6020908152604080832081516080810183528154815260018201546001600160a01b039081168286015260028301541681840152600382018054845181870281018701909552808552919492936060860193909290830182828015612d0257602002820191906000526020600020905b815481526020019060010190808311612cee575b505050919092525050604080516080810182526004548082526001600160a01b03808b1660208085019182528b83168587019081526060808a01519087019081526000958652600a83529690942085518155915160018301805491851673ffffffffffffffffffffffffffffffffffffffff19928316179055935160028301805491909416941693909317909155925180519596509194929350612dae92600385019290910190612dd1565b50506004549695505050505050565b600061226282670de0b6b3a764000061306d565b828054828255906000526020600020908101928215612e0c579160200282015b82811115612e0c578251825591602001919060010190612df1565b50612e18929150612e1c565b5090565b5b80821115612e185760008155600101612e1d565b80356001600160a01b0381168114612e4857600080fd5b919050565b60008060008060808587031215612e6357600080fd5b612e6c85612e31565b93506020850135925060408501359150612e8860608601612e31565b905092959194509250565b600060208284031215612ea557600080fd5b61225f82612e31565b600080600060608486031215612ec357600080fd5b612ecc84612e31565b9250612eda60208501612e31565b9150604084013590509250925092565b80151581146111ae57600080fd5b600060208284031215612f0a57600080fd5b8135612f1581612eea565b9392505050565b60008060408385031215612f2f57600080fd5b82359150612f3f60208401612e31565b90509250929050565b60008060408385031215612f5b57600080fd5b50508035926020909101359150565b600060208284031215612f7c57600080fd5b5035919050565b600081518084526020808501945080840160005b83811015612fb357815187529582019590820190600101612f97565b509495945050505050565b608081526000612fd16080830187612f83565b8281036020840152612fe38187612f83565b90508281036040840152612ff78186612f83565b905082810360608401526107448185612f83565b6000806040838503121561301e57600080fd5b61302783612e31565b9150612f3f60208401612e31565b634e487b7160e01b600052601160045260246000fd5b60008261306857634e487b7160e01b600052601260045260246000fd5b500490565b600081600019048311821515161561308757613087613035565b500290565b60006020828403121561309e57600080fd5b8151612f1581612eea565b8181038181111561226257612262613035565b6000602082840312156130ce57600080fd5b5051919050565b6000600182016130e7576130e7613035565b5060010190565b8082018082111561226257612262613035565b634e487b7160e01b600052603260045260246000fd5b634e487b7160e01b600052604160045260246000fdfea26469706673582212206a7a2d32dc3446fe173150005bfb382f8e5a4c03327b2177793aedf82d529f0f64736f6c63430008100033",
  "immutableReferences": {},
  "source": "// SPDX-License-Identifier: GPL-3.0\npragma solidity >=0.7.0 <0.9.0;\n\nimport {PriceApi} from \"./PriceApi.sol\";\nimport {IERC20} from \"@openzeppelin/contracts/token/ERC20/IERC20.sol\";\n\n// import {xUSDT} from \"./xend/XUSDT.sol\";\n\ncontract Swap {\n    PriceApi private _priceApi;\n\n    // contract admin\n    address private _deployer;\n    uint256 private _platformProfit;\n\n    // charges 0.25% fee on every successful swaps\n    uint private swapFee = 25;\n\n    // ids to avoid conflicts\n    uint256 private POOL_ID;\n    uint256 private LIQUID_ID;\n    uint256 private PROVIDER_ID;\n\n    // token contract address => chainlink aggregrator address\n    // only in the token paired to USD format\n    mapping(address => address) public pairs;\n\n    // is a member of the pairs mapping\n    // but its the native pair MATIC not IERC20\n    address public NATIVE_PAIR;\n    // paired address to USDT\n    address public USDT_PAIR;\n\n    // id => liquidity pools\n    mapping(uint => Pool) public pools;\n    // user address => provider data\n    mapping(address => Provider) public providers;\n    // id => liquids\n    mapping(uint => Liquid) public liquids;\n\n    // === Events === //\n\n    event LiquidProvided(\n        address token0,\n        address token1,\n        uint256 amount0,\n        uint256 amount1,\n        address provider,\n        uint timestamp\n    );\n\n    event FleepSwaped(\n        uint256 amount,\n        uint256 amountOut,\n        address from,\n        address to,\n        uint timestamp\n    );\n\n    // === Structs === //\n\n    // pool consists of liquids\n    // from n numbers providers\n    struct Pool {\n        uint id;\n        address token0;\n        address token1;\n        uint[] liquids;\n    }\n\n    // liquid belongs to a provider\n    // also belongs to a pool\n    struct Liquid {\n        uint id;\n        uint poolId;\n        uint256 amount0;\n        uint256 amount1;\n        address provider;\n    }\n\n    // provider properties\n    // owns n numbers of liquids\n    struct Provider {\n        uint id;\n        uint256 totalEarned;\n        uint256 balance;\n        bool autoStake;\n        uint[] liquids;\n    }\n\n    constructor(address priceApI) {\n        _priceApi = PriceApi(priceApI);\n        _deployer = msg.sender;\n\n        testnetHelper();\n    }\n\n    // calculates all the size of the liquids\n    // in a pool of token pair\n    function getPoolSize(\n        address token0,\n        address token1\n    ) public view returns (uint256, uint256) {\n        uint poolId = _findPool(token0, token1);\n        return _poolSize(poolId);\n    }\n\n    // gets the exchanges rates for pair of tokens\n    // with accordance to amount of tokens\n    function estimate(\n        address token0,\n        address token1,\n        uint256 amount0 // in wei\n    ) public view returns (uint256) {\n        int256 rate = _priceApi.getExchangeRate(pairs[token0], pairs[token1]);\n        return (amount0 * uint256(rate)) / (10 ** 8);\n    }\n\n    // returns the contract address\n    function getContractAddress() public view returns (address) {\n        return address(this);\n    }\n\n    // returns the pair address for $MATIC\n    function getNativePair() public view returns (address) {\n        return NATIVE_PAIR;\n    }\n\n    // returns the pair address for $USDT\n    function getUSDTPair() public view returns (address) {\n        return USDT_PAIR;\n    }\n\n    // register as a provider\n    function unlockedProviderAccount() public onlyGuest {\n        // create new unique id\n        PROVIDER_ID++;\n\n        // provider with default entries\n        providers[msg.sender] = Provider(\n            PROVIDER_ID,\n            providers[msg.sender].totalEarned,\n            providers[msg.sender].balance,\n            false,\n            providers[msg.sender].liquids\n        );\n    }\n\n    // === Swapping === //\n\n    function swap(\n        address token0,\n        address token1,\n        uint256 amount0\n    ) public payable returns (uint256) {\n        require(amount0 >= 100, \"Amount to swap cannot be lesser than 100 WEI\");\n\n        uint256 amount1;\n        uint256 _safeAmount0 = amount0;\n\n        uint poolId = _findPool(token0, token1);\n        require(pools[poolId].id > 0, \"Pool does not exists\");\n\n        // MATIC => ERC20\n        if (pools[poolId].token0 == NATIVE_PAIR) {\n            _safeAmount0 = msg.value;\n            amount1 = estimate(NATIVE_PAIR, pools[poolId].token1, _safeAmount0);\n\n            // check if contract has enough destination token liquid\n            (, uint256 poolSizeToken1) = _poolSize(poolId);\n            require(poolSizeToken1 >= amount1, \"Insufficient Pool Size\");\n\n            uint256 fee = _transferSwappedTokens0(\n                pools[poolId].token1,\n                amount1,\n                msg.sender\n            );\n\n            uint256 providersReward = ((fee * 80) / 100);\n            _platformProfit += (fee - providersReward);\n\n            _aggregateLiquids(\n                _safeAmount0,\n                amount1,\n                poolSizeToken1,\n                pools[poolId],\n                providersReward\n            );\n        }\n        // ERC20 => MATIC\n        else if (pools[poolId].token1 == NATIVE_PAIR) {\n            amount1 = estimate(pools[poolId].token0, NATIVE_PAIR, _safeAmount0);\n\n            // check if contract has enough destination token liquid\n            (uint256 poolSizeToken1, ) = _poolSize(poolId);\n            require(poolSizeToken1 >= amount1, \"Insufficient Pool Size\");\n\n            uint256 fee = _transferSwappedTokens1(\n                pools[poolId].token0,\n                _safeAmount0,\n                amount1,\n                msg.sender\n            );\n\n            uint256 providersReward = ((fee * 80) / 100);\n            _platformProfit += (fee - providersReward);\n\n            _aggregateLiquids(\n                _safeAmount0,\n                amount1,\n                poolSizeToken1,\n                pools[poolId],\n                providersReward\n            );\n        }\n        // ERC0 => ERC2O\n        else {\n            amount1 = estimate(\n                pools[poolId].token0,\n                pools[poolId].token1,\n                _safeAmount0\n            );\n\n            // check if contract has enough destination token liquid\n            (, uint256 poolSizeToken1) = _poolSize(poolId);\n            require(poolSizeToken1 >= amount1, \"Insufficient Pool Size\");\n\n            uint256 fee = _transferSwappedTokens2(\n                pools[poolId].token0,\n                pools[poolId].token1,\n                _safeAmount0,\n                amount1,\n                msg.sender\n            );\n\n            uint256 providersReward = ((fee * 80) / 100);\n            _platformProfit += (fee - providersReward);\n\n            _aggregateLiquids(\n                _safeAmount0,\n                amount1,\n                poolSizeToken1,\n                pools[poolId],\n                providersReward\n            );\n        }\n\n        // store the swap data on-chain\n        emit FleepSwaped(amount0, amount1, token0, token1, block.timestamp);\n\n        return amount1;\n    }\n\n    // === Providers === //\n\n    function provideLiquidity(\n        uint poolId,\n        uint256 amount0\n    ) public payable onlyProvider {\n        require(amount0 >= 100, \"Amount cannot be lesser than 100 WEI\");\n\n        uint256 amount1;\n        uint256 _safeAmount0 = amount0;\n\n        if (pools[poolId].token0 == NATIVE_PAIR) {\n            require(msg.value > 100, \"Matic cannot be lesser than 1OO WEI\");\n            // only in format of MATIC as pair subject\n            // ex MATIC/XEND\n\n            _safeAmount0 = msg.value;\n            // get the estimate for token1\n            amount1 = estimate(\n                pools[poolId].token0,\n                pools[poolId].token1,\n                _safeAmount0\n            );\n            // stake token1 to smart contract\n            IERC20(pools[poolId].token1).transferFrom(\n                msg.sender,\n                address(this),\n                amount1\n            );\n        } else {\n            // get the estimate for token1\n            amount1 = estimate(\n                pools[poolId].token0,\n                pools[poolId].token1,\n                _safeAmount0\n            );\n            // stake tokens to smart contract\n            IERC20(pools[poolId].token0).transferFrom(\n                msg.sender,\n                address(this),\n                _safeAmount0\n            );\n            IERC20(pools[poolId].token1).transferFrom(\n                msg.sender,\n                address(this),\n                amount1\n            );\n        }\n\n        uint liquidId = _liquidIndex(poolId, msg.sender);\n\n        if (liquidId > 0) {\n            // if liquid exist increment the amount\n            liquids[liquidId].amount0 += _safeAmount0;\n            liquids[liquidId].amount1 += amount1;\n        } else {\n            // otherwise create the new liquid\n            _createLiquid(poolId, _safeAmount0, amount1, msg.sender);\n        }\n\n        // store the liquidity data on-chain\n        emit LiquidProvided(\n            pools[poolId].token0,\n            pools[poolId].token1,\n            _safeAmount0,\n            amount1,\n            msg.sender,\n            block.timestamp\n        );\n    }\n\n    function removeLiquidity(uint id) public onlyProvider {\n        require(liquids[id].provider == msg.sender, \"Unauthorized\");\n\n        // extract pool id from liquid\n        uint poolId = liquids[id].poolId;\n\n        // extract pool struct\n        Pool memory pool = pools[poolId];\n\n        // transfer tokens to providers\n        IERC20(pool.token0).transfer(msg.sender, liquids[id].amount0);\n        IERC20(pool.token1).transfer(msg.sender, liquids[id].amount1);\n\n        // delete liquid\n        \n        for (uint index = 0; index < pools[poolId].liquids.length; index++) {\n            if (liquids[pools[poolId].liquids[index]].provider == msg.sender) {\n                delete pools[poolId].liquids[index];\n            }\n        }\n\n        for (uint index = 0; index < providers[msg.sender].liquids.length; index++) {\n            if (liquids[providers[msg.sender].liquids[index]].poolId == pool.id) {\n                delete providers[msg.sender].liquids[index];\n            }\n        }\n\n        delete liquids[id];\n    }\n\n    // fetach all liquidities from a wallet\n    function myLiquidities(\n        address wallet\n    )\n        public\n        view\n        returns (\n            uint256[] memory,\n            uint256[] memory,\n            uint256[] memory,\n            uint256[] memory\n        )\n    {\n        // array of provider liquidities position\n        uint256[] memory providerLiquids = providers[wallet].liquids;\n\n        uint256[] memory _pools = new uint256[](providerLiquids.length);\n        uint256[] memory _amounts0 = new uint256[](providerLiquids.length);\n        uint256[] memory _amounts1 = new uint256[](providerLiquids.length);\n\n        for (uint index; index < providerLiquids.length; index++) {\n            _pools[index] = liquids[providerLiquids[index]].poolId;\n            _amounts0[index] = liquids[providerLiquids[index]].amount0;\n            _amounts1[index] = liquids[providerLiquids[index]].amount1;\n        }\n\n        return (_pools, _amounts0, _amounts1, providerLiquids);\n    }\n\n    function createPool(\n        address token0,\n        address token1\n    ) public onlyProvider returns (uint) {\n        return _createPool(token0, token1);\n    }\n\n    function updateProviderProfile(bool _autoStake) public onlyProvider {\n        providers[msg.sender].autoStake = _autoStake;\n    }\n\n    function withDrawEarnings(uint256 amount) public onlyProvider {\n        require(\n            providers[msg.sender].balance >= amount,\n            \"Insufficient Balance\"\n        );\n\n        // USDT as reward token\n        IERC20(USDT_PAIR).transfer(msg.sender, amount);\n\n        providers[msg.sender].balance -= amount;\n    }\n\n    // === Administration === //\n\n    function updateNativePair(address pair) public onlyDeployer {\n        require(pair != address(0), \"Invalid Pair Address\");\n        NATIVE_PAIR = pair;\n    }\n\n    function updateUSDTPair(address pair) public onlyDeployer {\n        require(pair != address(0), \"Invalid Pair Address\");\n        USDT_PAIR = pair;\n    }\n\n    function updateSwapFee(uint fee) public onlyDeployer {\n        require(fee > 0, \"Platform fee cannot be zero\");\n        require(fee < 1000, \"Platform fee cannot be a hundred\");\n        swapFee = fee;\n    }\n\n    function createPair(address token, address pair) public onlyDeployer {\n        require(token != address(0), \"Invalid Token Address\");\n        require(pair != address(0), \"Invalid Pair Address\");\n        pairs[token] = pair;\n    }\n\n    function withDrawPlaformEarnings(\n        uint256 amount,\n        address receiver\n    ) public onlyDeployer {\n        require(_platformProfit >= amount, \"Insufficient Balance\");\n\n        // USDT as reward token\n        IERC20(USDT_PAIR).transfer(receiver, amount);\n\n        _platformProfit -= amount;\n    }\n\n    // === Internal Functions === //\n\n    function _liquidIndex(\n        uint poolId,\n        address provider\n    ) private view returns (uint) {\n        uint256[] memory providerLiquids = providers[provider].liquids;\n\n        for (uint index = 0; index < providerLiquids.length; index++) {\n            if (liquids[providerLiquids[index]].poolId == poolId) {\n                return providerLiquids[index];\n            }\n        }\n\n        return 0;\n    }\n\n    function _aggregateLiquids(\n        uint256 amount0,\n        uint256 amount1,\n        uint256 poolSizeToken1,\n        Pool memory pool,\n        uint256 fee\n    ) private {\n        // equally share swap impact on all provider liquids based on their contribution\n        for (uint index = 0; index < pool.liquids.length; index++) {\n            uint liquidId = pool.liquids[index];\n\n            // calculated with ratio of this liquid compared\n            // to other liquids contributing\n            uint256 additionAmount = ((liquids[liquidId].amount1 * amount0) /\n                poolSizeToken1);\n\n            // step I\n            liquids[liquidId].amount0 += additionAmount;\n\n            // calculated with ratio of this liquid compared\n            // to other liquids contributing\n            uint256 deductionAmount = ((liquids[liquidId].amount1 * amount1) /\n                poolSizeToken1);\n\n            // step II\n            liquids[liquidId].amount1 -= deductionAmount;\n\n            // reward the liquid provider\n            uint256 reward = ((liquids[liquidId].amount1 * fee) /\n                poolSizeToken1);\n\n            address provider = liquids[liquidId].provider;\n\n            providers[provider].totalEarned += reward;\n            providers[provider].balance += reward;\n\n            // if provider is auto staking rewards in XEND vault\n            // and their balance is at least 1 MATIC\n            if (\n                providers[provider].autoStake &&\n                providers[provider].balance >= _inWei(1)\n            ) {}\n        }\n    }\n\n    // MATIC => ERC20\n    function _transferSwappedTokens0(\n        address token1,\n        uint256 amount1,\n        address owner\n    ) private returns (uint256) {\n        IERC20 quoteToken = IERC20(token1);\n\n        uint256 _fee = ((amount1 / 1000) * swapFee);\n\n        // give user their destination token minus fee\n        quoteToken.transfer(owner, (amount1 - _fee));\n\n        // convert fee to USDT\n        return estimate(token1, USDT_PAIR, _fee);\n    }\n\n    // ERC20 => MATIC\n    function _transferSwappedTokens1(\n        address token0,\n        uint256 amount0,\n        uint256 amount1,\n        address owner\n    ) public payable returns (uint256) {\n        IERC20 baseToken = IERC20(token0);\n\n        uint256 _fee = ((amount1 / 1000) * swapFee);\n\n        baseToken.transferFrom(owner, address(this), amount0);\n\n        // give user their destination token minus fee\n        require(\n            address(this).balance >= amount1,\n            \"Contract: Insufficient Balance\"\n        );\n        payable(owner).transfer(amount1 - _fee);\n\n        // convert fee to USDT\n        return estimate(NATIVE_PAIR, USDT_PAIR, _fee);\n    }\n\n    // ERC20 => ERC20\n    function _transferSwappedTokens2(\n        address token0,\n        address token1,\n        uint256 amount0,\n        uint256 amount1,\n        address owner\n    ) private returns (uint256) {\n        IERC20 baseToken = IERC20(token0);\n        IERC20 quoteToken = IERC20(token1);\n\n        uint256 _fee = ((amount1 / 1000) * swapFee);\n\n        // tranfers the base token from user to the\n        // smart contract\n        baseToken.transferFrom(owner, address(this), amount0);\n\n        // give user their destination token minus fee\n        quoteToken.transfer(owner, (amount1 - _fee));\n\n        // convert fee to USDT\n        return estimate(token1, USDT_PAIR, _fee);\n    }\n\n    function _inWei(uint256 amount) private pure returns (uint256) {\n        return amount * 10 ** 18;\n    }\n\n    function _findPool(\n        address token0,\n        address token1\n    ) private view returns (uint) {\n        require(\n            token0 != address(0) && token1 != address(0),\n            \"Invalid Pool Tokens\"\n        );\n        for (uint index = 0; index <= POOL_ID; index++) {\n            // patern A\n            if (\n                pools[index].token0 == token0 && pools[index].token1 == token1\n            ) {\n                return index;\n            }\n\n            // pattern B\n            if (\n                pools[index].token0 == token1 && pools[index].token1 == token0\n            ) {\n                return index;\n            }\n        }\n        return 0;\n    }\n\n    function _createLiquid(\n        uint poolId,\n        uint256 amount0,\n        uint256 amount1,\n        address provider\n    ) private {\n        LIQUID_ID++;\n        // create the liquid\n        liquids[LIQUID_ID] = Liquid(\n            LIQUID_ID,\n            poolId,\n            amount0,\n            amount1,\n            provider\n        );\n        // register the liquid\n        pools[poolId].liquids.push(LIQUID_ID);\n        providers[provider].liquids.push(LIQUID_ID);\n    }\n\n    function _poolSize(uint id) private view returns (uint256, uint256) {\n        uint256 amount0;\n        uint256 amount1;\n        for (uint index = 0; index < pools[id].liquids.length; index++) {\n            uint liquidId = pools[id].liquids[index];\n            amount0 += liquids[liquidId].amount0;\n            amount1 += liquids[liquidId].amount1;\n        }\n        return (amount0, amount1);\n    }\n\n    function _createPool(\n        address token0,\n        address token1\n    ) private returns (uint) {\n        require(\n            pairs[token0] != address(0),\n            \"Pair does not exists, Contact admin\"\n        );\n        require(\n            pairs[token1] != address(0),\n            \"Pair does not exists, Contact admin\"\n        );\n\n        bool exists = _findPool(token0, token1) != 0;\n        if (exists) return 0;\n\n        POOL_ID++;\n        Pool memory pool = pools[POOL_ID];\n\n        pools[POOL_ID] = Pool(POOL_ID, token0, token1, pool.liquids);\n\n        return POOL_ID;\n    }\n\n    // calls in the constructor\n    function testnetHelper() private onlyDeployer {\n        updateNativePair(0xd0D5e3DB44DE05E9F294BB0a3bEEaF030DE24Ada);\n        updateUSDTPair(0xd24ac22e0Fb3694D0318c9e56E1E99D170a31864);\n\n        // WBTC\n        createPair(\n            0xc0EC2DCA88Dbe3C91518958C935Ce250c718f0EB,\n            0x007A22900a3B98143368Bd5906f8E17e9867581b\n        );\n\n        // DAI\n        createPair(\n            0x3814CF88e2675041504C7d6404f7b8978F8B65B4,\n            0x0FCAa9c899EC5A91eBc3D5Dd869De833b06fB046\n        );\n\n        // WETH\n        createPair(\n            0x60D4A61940Ac5e59cbdaF05E7F702B26048320bF,\n            0x0715A7794a1dc8e42615F059dD6e406A6594651A\n        );\n\n        // MATIC\n        createPair(NATIVE_PAIR, NATIVE_PAIR);\n\n        // SAND\n        createPair(\n            0x00F5153e9608217DBa32C6C706fef5aD97016842,\n            0x9dd18534b8f456557d11B9DDB14dA89b2e52e308\n        );\n\n        // USDC\n        createPair(\n            0x304379DfA42B7127DE0db93Bce597bEdba18b259,\n            0x572dDec9087154dC5dfBB1546Bb62713147e0Ab0\n        );\n\n        // USDT\n        createPair(\n            0xd24ac22e0Fb3694D0318c9e56E1E99D170a31864,\n            0x92C09849638959196E976289418e5973CC96d645\n        );\n    }\n\n    // called by any provider\n    function testnetHelper2() public {\n        createPool(\n            0xc0EC2DCA88Dbe3C91518958C935Ce250c718f0EB,\n            0x3814CF88e2675041504C7d6404f7b8978F8B65B4\n        ); // WBTC => DAI : 1\n        createPool(\n            0xc0EC2DCA88Dbe3C91518958C935Ce250c718f0EB,\n            0x60D4A61940Ac5e59cbdaF05E7F702B26048320bF\n        ); // WBTC => WETH : 2\n        createPool(\n            0xc0EC2DCA88Dbe3C91518958C935Ce250c718f0EB,\n            0x00F5153e9608217DBa32C6C706fef5aD97016842\n        ); // WBTC => SAND : 3\n        createPool(\n            0xc0EC2DCA88Dbe3C91518958C935Ce250c718f0EB,\n            0x304379DfA42B7127DE0db93Bce597bEdba18b259\n        ); // WBTC => USDC : 4\n        createPool(\n            0xc0EC2DCA88Dbe3C91518958C935Ce250c718f0EB,\n            0xd24ac22e0Fb3694D0318c9e56E1E99D170a31864\n        ); // WBTC => USDT : 5\n        createPool(\n            0x60D4A61940Ac5e59cbdaF05E7F702B26048320bF,\n            0xd24ac22e0Fb3694D0318c9e56E1E99D170a31864\n        ); // WETH => USDT : 6\n        createPool(\n            0x60D4A61940Ac5e59cbdaF05E7F702B26048320bF,\n            0x00F5153e9608217DBa32C6C706fef5aD97016842\n        ); // WETH => SAND : 7\n        createPool(\n            0x00F5153e9608217DBa32C6C706fef5aD97016842,\n            0xd24ac22e0Fb3694D0318c9e56E1E99D170a31864\n        ); // SAND => USDT : 8\n        createPool(\n            0x00F5153e9608217DBa32C6C706fef5aD97016842,\n            0x3814CF88e2675041504C7d6404f7b8978F8B65B4\n        ); // SAND => DAI : 9\n        createPool(\n            0x3814CF88e2675041504C7d6404f7b8978F8B65B4,\n            0x60D4A61940Ac5e59cbdaF05E7F702B26048320bF\n        ); // DAI => WETH : 10\n        createPool(NATIVE_PAIR, 0xd24ac22e0Fb3694D0318c9e56E1E99D170a31864); // MATIC => USDT : 11\n    }\n\n    // === Modifiers === //\n\n    modifier onlyGuest() {\n        require(providers[msg.sender].id == 0, \"Only Guest\");\n        _;\n    }\n\n    modifier onlyProvider() {\n        require(providers[msg.sender].id != 0, \"Only Provider\");\n        _;\n    }\n\n    modifier onlyDeployer() {\n        require(msg.sender == _deployer, \"Only Deployer\");\n        _;\n    }\n}\n",
  "sourcePath": "C:\\Users\\Arogundade Ibrahim\\Documents\\web3\\fleep\\contracts\\Swap.sol",
  "compiler": {
    "name": "solc",
    "version": "0.8.16+commit.07a7930e.Emscripten.clang"
  },
  "schemaVersion": "3.4.10",
  "updatedAt": "2022-12-02T15:24:27.858Z",
  "networkType": "ethereum",
  "devdoc": {
    "kind": "dev",
    "methods": {},
    "version": 1
  },
  "userdoc": {
    "kind": "user",
    "methods": {},
    "version": 1
  }
}