{
  "contractName": "Swap",
  "abi": [
    {
      "inputs": [
        {
          "internalType": "address",
          "name": "priceApI",
          "type": "address"
        },
        {
          "internalType": "address",
          "name": "token",
          "type": "address"
        }
      ],
      "stateMutability": "nonpayable",
      "type": "constructor"
    },
    {
      "anonymous": false,
      "inputs": [
        {
          "indexed": false,
          "internalType": "uint256",
          "name": "amount",
          "type": "uint256"
        },
        {
          "indexed": false,
          "internalType": "uint256",
          "name": "amountOut",
          "type": "uint256"
        },
        {
          "indexed": false,
          "internalType": "address",
          "name": "from",
          "type": "address"
        },
        {
          "indexed": false,
          "internalType": "address",
          "name": "to",
          "type": "address"
        },
        {
          "indexed": false,
          "internalType": "uint256",
          "name": "timestamp",
          "type": "uint256"
        }
      ],
      "name": "FleepSwaped",
      "type": "event"
    },
    {
      "anonymous": false,
      "inputs": [
        {
          "indexed": false,
          "internalType": "address",
          "name": "token0",
          "type": "address"
        },
        {
          "indexed": false,
          "internalType": "address",
          "name": "token1",
          "type": "address"
        },
        {
          "indexed": false,
          "internalType": "uint256",
          "name": "amount0",
          "type": "uint256"
        },
        {
          "indexed": false,
          "internalType": "uint256",
          "name": "amount1",
          "type": "uint256"
        },
        {
          "indexed": false,
          "internalType": "address",
          "name": "provider",
          "type": "address"
        },
        {
          "indexed": false,
          "internalType": "uint256",
          "name": "timestamp",
          "type": "uint256"
        }
      ],
      "name": "LiquidProvided",
      "type": "event"
    },
    {
      "anonymous": false,
      "inputs": [
        {
          "indexed": false,
          "internalType": "address",
          "name": "token0",
          "type": "address"
        },
        {
          "indexed": false,
          "internalType": "address",
          "name": "token1",
          "type": "address"
        },
        {
          "indexed": false,
          "internalType": "uint256",
          "name": "amount0",
          "type": "uint256"
        },
        {
          "indexed": false,
          "internalType": "uint256",
          "name": "amount1",
          "type": "uint256"
        },
        {
          "indexed": false,
          "internalType": "address",
          "name": "provider",
          "type": "address"
        }
      ],
      "name": "LiquidRemoved",
      "type": "event"
    },
    {
      "inputs": [],
      "name": "NATIVE_PAIR",
      "outputs": [
        {
          "internalType": "address",
          "name": "",
          "type": "address"
        }
      ],
      "stateMutability": "view",
      "type": "function"
    },
    {
      "inputs": [
        {
          "internalType": "uint256",
          "name": "",
          "type": "uint256"
        }
      ],
      "name": "liquids",
      "outputs": [
        {
          "internalType": "uint256",
          "name": "id",
          "type": "uint256"
        },
        {
          "internalType": "uint256",
          "name": "poolId",
          "type": "uint256"
        },
        {
          "internalType": "uint256",
          "name": "amount0",
          "type": "uint256"
        },
        {
          "internalType": "uint256",
          "name": "amount1",
          "type": "uint256"
        },
        {
          "internalType": "address",
          "name": "provider",
          "type": "address"
        }
      ],
      "stateMutability": "view",
      "type": "function"
    },
    {
      "inputs": [
        {
          "internalType": "address",
          "name": "",
          "type": "address"
        }
      ],
      "name": "pairs",
      "outputs": [
        {
          "internalType": "address",
          "name": "",
          "type": "address"
        }
      ],
      "stateMutability": "view",
      "type": "function"
    },
    {
      "inputs": [
        {
          "internalType": "uint256",
          "name": "",
          "type": "uint256"
        }
      ],
      "name": "pools",
      "outputs": [
        {
          "internalType": "uint256",
          "name": "id",
          "type": "uint256"
        },
        {
          "internalType": "address",
          "name": "token0",
          "type": "address"
        },
        {
          "internalType": "address",
          "name": "token1",
          "type": "address"
        }
      ],
      "stateMutability": "view",
      "type": "function"
    },
    {
      "inputs": [
        {
          "internalType": "address",
          "name": "",
          "type": "address"
        }
      ],
      "name": "providers",
      "outputs": [
        {
          "internalType": "uint256",
          "name": "id",
          "type": "uint256"
        },
        {
          "internalType": "uint256",
          "name": "totalEarned",
          "type": "uint256"
        },
        {
          "internalType": "uint256",
          "name": "balance",
          "type": "uint256"
        }
      ],
      "stateMutability": "view",
      "type": "function"
    },
    {
      "inputs": [
        {
          "internalType": "address",
          "name": "token0",
          "type": "address"
        },
        {
          "internalType": "address",
          "name": "token1",
          "type": "address"
        }
      ],
      "name": "getPoolSize",
      "outputs": [
        {
          "internalType": "uint256",
          "name": "",
          "type": "uint256"
        },
        {
          "internalType": "uint256",
          "name": "",
          "type": "uint256"
        }
      ],
      "stateMutability": "view",
      "type": "function"
    },
    {
      "inputs": [
        {
          "internalType": "address",
          "name": "token0",
          "type": "address"
        },
        {
          "internalType": "address",
          "name": "token1",
          "type": "address"
        },
        {
          "internalType": "uint256",
          "name": "amount0",
          "type": "uint256"
        }
      ],
      "name": "estimate",
      "outputs": [
        {
          "internalType": "uint256",
          "name": "",
          "type": "uint256"
        }
      ],
      "stateMutability": "view",
      "type": "function"
    },
    {
      "inputs": [],
      "name": "getContractAddress",
      "outputs": [
        {
          "internalType": "address",
          "name": "",
          "type": "address"
        }
      ],
      "stateMutability": "view",
      "type": "function"
    },
    {
      "inputs": [],
      "name": "getNativePair",
      "outputs": [
        {
          "internalType": "address",
          "name": "",
          "type": "address"
        }
      ],
      "stateMutability": "view",
      "type": "function"
    },
    {
      "inputs": [],
      "name": "unlockedProviderAccount",
      "outputs": [],
      "stateMutability": "nonpayable",
      "type": "function"
    },
    {
      "inputs": [
        {
          "internalType": "address",
          "name": "token0",
          "type": "address"
        },
        {
          "internalType": "address",
          "name": "token1",
          "type": "address"
        },
        {
          "internalType": "uint256",
          "name": "amount0",
          "type": "uint256"
        }
      ],
      "name": "swap",
      "outputs": [
        {
          "internalType": "uint256",
          "name": "",
          "type": "uint256"
        }
      ],
      "stateMutability": "payable",
      "type": "function"
    },
    {
      "inputs": [
        {
          "internalType": "uint256",
          "name": "poolId",
          "type": "uint256"
        },
        {
          "internalType": "uint256",
          "name": "amount0",
          "type": "uint256"
        }
      ],
      "name": "provideLiquid",
      "outputs": [],
      "stateMutability": "payable",
      "type": "function"
    },
    {
      "inputs": [
        {
          "internalType": "uint256",
          "name": "id",
          "type": "uint256"
        }
      ],
      "name": "removeLiquid",
      "outputs": [],
      "stateMutability": "nonpayable",
      "type": "function"
    },
    {
      "inputs": [
        {
          "internalType": "address",
          "name": "token0",
          "type": "address"
        },
        {
          "internalType": "address",
          "name": "token1",
          "type": "address"
        }
      ],
      "name": "createPool",
      "outputs": [
        {
          "internalType": "uint256",
          "name": "",
          "type": "uint256"
        }
      ],
      "stateMutability": "nonpayable",
      "type": "function"
    },
    {
      "inputs": [
        {
          "internalType": "uint256",
          "name": "amount",
          "type": "uint256"
        }
      ],
      "name": "withDrawEarnings",
      "outputs": [],
      "stateMutability": "nonpayable",
      "type": "function"
    },
    {
      "inputs": [
        {
          "internalType": "address",
          "name": "pair",
          "type": "address"
        }
      ],
      "name": "updateNativePair",
      "outputs": [],
      "stateMutability": "nonpayable",
      "type": "function"
    },
    {
      "inputs": [
        {
          "internalType": "uint256",
          "name": "fee",
          "type": "uint256"
        }
      ],
      "name": "updateSwapFee",
      "outputs": [],
      "stateMutability": "nonpayable",
      "type": "function"
    },
    {
      "inputs": [
        {
          "internalType": "address",
          "name": "token",
          "type": "address"
        },
        {
          "internalType": "address",
          "name": "pair",
          "type": "address"
        }
      ],
      "name": "createPair",
      "outputs": [],
      "stateMutability": "nonpayable",
      "type": "function"
    },
    {
      "inputs": [
        {
          "internalType": "uint256",
          "name": "amount1",
          "type": "uint256"
        }
      ],
      "name": "_transferSwappedTokens1",
      "outputs": [
        {
          "internalType": "uint256",
          "name": "",
          "type": "uint256"
        }
      ],
      "stateMutability": "payable",
      "type": "function"
    }
  ],
  "bytecode": "0x608060405260016003553480156200001657600080fd5b50604051620029b0380380620029b0833981016040819052620000399162000098565b600080546001600160a01b039384166001600160a01b0319918216179091556001805492909316918116919091179091556002805490911633179055620000d0565b80516001600160a01b03811681146200009357600080fd5b919050565b60008060408385031215620000ac57600080fd5b620000b7836200007b565b9150620000c7602084016200007b565b90509250929050565b6128d080620000e06000396000f3fe6080604052600436106101445760003560e01c806391e5f37f116100c0578063df791e5011610074578063ecd44aef11610059578063ecd44aef146103b5578063eebb63ed146103ea578063fe33b3021461046e57600080fd5b8063df791e5014610382578063e34336151461039557600080fd5b8063bf16f65a116100a5578063bf16f65a14610322578063c9c6539614610342578063d30dce7d1461036257600080fd5b806391e5f37f14610295578063ac4afa38146102b557600080fd5b806332a2c5d0116101175780635554b552116100fc5780635554b5521461024f5780635af4ab23146102645780638a2627f01461027757600080fd5b806332a2c5d014610208578063344bfb591461022f57600080fd5b80630787bc2714610149578063102a5f91146101a55780631f8d82fc146101d357806328487873146101f5575b600080fd5b34801561015557600080fd5b506101856101643660046126e7565b600a6020526000908152604090208054600182015460029092015490919083565b604080519384526020840192909252908201526060015b60405180910390f35b3480156101b157600080fd5b506101c56101c0366004612702565b6104a4565b60405190815260200161019c565b3480156101df57600080fd5b506101f36101ee36600461273e565b610564565b005b6101c561020336600461273e565b61086e565b34801561021457600080fd5b50305b6040516001600160a01b03909116815260200161019c565b34801561023b57600080fd5b50600854610217906001600160a01b031681565b34801561025b57600080fd5b506101f36108ca565b6101f3610272366004612757565b610b8e565b34801561028357600080fd5b506008546001600160a01b0316610217565b3480156102a157600080fd5b506101f36102b03660046126e7565b61113d565b3480156102c157600080fd5b506102fd6102d036600461273e565b60096020526000908152604090208054600182015460029092015490916001600160a01b03908116911683565b604080519384526001600160a01b03928316602085015291169082015260600161019c565b34801561032e57600080fd5b506101f361033d36600461273e565b61120c565b34801561034e57600080fd5b506101f361035d366004612779565b6112fb565b34801561036e57600080fd5b506101f361037d36600461273e565b61142c565b6101c5610390366004612702565b611534565b3480156103a157600080fd5b506101c56103b0366004612779565b611bd1565b3480156103c157600080fd5b506103d56103d0366004612779565b611c32565b6040805192835260208301919091520161019c565b3480156103f657600080fd5b5061043d61040536600461273e565b600b6020526000908152604090208054600182015460028301546003840154600490940154929391929091906001600160a01b031685565b6040805195865260208601949094529284019190915260608301526001600160a01b0316608082015260a00161019c565b34801561047a57600080fd5b506102176104893660046126e7565b6007602052600090815260409020546001600160a01b031681565b600080546001600160a01b038581168352600760205260408084205486831685528185205491517fbaaa61be000000000000000000000000000000000000000000000000000000008152908316600482015290821660248201528392919091169063baaa61be90604401602060405180830381865afa15801561052b573d6000803e3d6000fd5b505050506040513d601f19601f8201168201806040525081019061054f91906127ac565b905061055b81846127db565b95945050505050565b336000908152600a602052604081205490036105b75760405162461bcd60e51b815260206004820152600d60248201526c27b7363c90283937bb34b232b960991b60448201526064015b60405180910390fd5b6000818152600b60205260409020600401546001600160a01b031633146106205760405162461bcd60e51b815260206004820152600c60248201527f556e617574686f72697a6564000000000000000000000000000000000000000060448201526064016105ae565b6000818152600b60209081526040808320600190810154845260098352818420825160808101845281548152918101546001600160a01b03908116838601526002820154168284015260038101805484518187028101870190955280855292949193606086019390928301828280156106b857602002820191906000526020600020905b8154815260200190600101908083116106a4575b505050919092525050506020818101516040808401516000878152600b9094529281902060020154905163a9059cbb60e01b81523360048201526024810191909152929350916001600160a01b0383169063a9059cbb906044016020604051808303816000875af1158015610731573d6000803e3d6000fd5b505050506040513d601f19601f8201168201806040525081019061075591906127fa565b506000848152600b60205260409081902060030154905163a9059cbb60e01b815233600482015260248101919091526001600160a01b0382169063a9059cbb906044016020604051808303816000875af11580156107b7573d6000803e3d6000fd5b505050506040513d601f19601f820116820180604052508101906107db91906127fa565b506000848152600b6020908152604091829020600281015460039091015483516001600160a01b0380881682528616938101939093529282015260608101919091523360808201527f5e6147f7a7f2044d0306f332242c42c794194f3d418ce70addd36933a5032a179060a00160405180910390a15050506000908152600b602052604081206002810182905560030155565b6000806003546064846108819190612823565b61088b91906127db565b9050336108fc61089b8386612845565b6040518115909202916000818181858888f193505050501580156108c3573d6000803e3d6000fd5b5092915050565b336000908152600a6020526040902054156109275760405162461bcd60e51b815260206004820152600a60248201527f4f6e6c792047756573740000000000000000000000000000000000000000000060448201526064016105ae565b6001546040517f64614c71000000000000000000000000000000000000000000000000000000008152600a60048201526001600160a01b03909116906364614c7190602401602060405180830381865afa158015610989573d6000803e3d6000fd5b505050506040513d601f19601f820116820180604052508101906109ad91906127ac565b6001546040517f70a082310000000000000000000000000000000000000000000000000000000081523360048201526001600160a01b03909116906370a0823190602401602060405180830381865afa158015610a0e573d6000803e3d6000fd5b505050506040513d601f19601f82011682018060405250810190610a3291906127ac565b1015610aa65760405162461bcd60e51b815260206004820152602660248201527f596f75206d75737420686f646c206174206c6561737420313020466c6565702060448201527f546f6b656e73000000000000000000000000000000000000000000000000000060648201526084016105ae565b60068054906000610ab683612858565b9091555050604080516080810182526006548152336000818152600a602081815285832060018101548287015260028101548688015293909252815260039091018054845181840281018401909552808552929360608501939092830182828015610b4057602002820191906000526020600020905b815481526020019060010190808311610b2c575b505050919092525050336000908152600a60209081526040918290208351815583820151600182015591830151600283015560608301518051610b89926003850192019061266b565b505050565b336000908152600a60205260408120549003610bdc5760405162461bcd60e51b815260206004820152600d60248201526c27b7363c90283937bb34b232b960991b60448201526064016105ae565b6064811015610c525760405162461bcd60e51b8152602060048201526024808201527f416d6f756e742063616e6e6f74206265206c6573736572207468616e2031303060448201527f205745490000000000000000000000000000000000000000000000000000000060648201526084016105ae565b6000828152600960209081526040808320600101546001600160a01b03908116845260079092529091205416610cd65760405162461bcd60e51b815260206004820152602360248201527f5061697220646f6573206e6f74206578697374732c20436f6e7461637420616460448201526236b4b760e91b60648201526084016105ae565b6000828152600960209081526040808320600201546001600160a01b03908116845260079092529091205416610d5a5760405162461bcd60e51b815260206004820152602360248201527f5061697220646f6573206e6f74206578697374732c20436f6e7461637420616460448201526236b4b760e91b60648201526084016105ae565b6008546000838152600960209081526040808320600101546001600160a01b039081168452600790925282205491928492908216911603610ee85760643411610e0b5760405162461bcd60e51b815260206004820152602360248201527f4d617469632063616e6e6f74206265206c6573736572207468616e20314f4f2060448201527f574549000000000000000000000000000000000000000000000000000000000060648201526084016105ae565b50600083815260096020908152604080832060018101546001600160a01b039081168552600790935281842054600290910154831684529220543492610e56929081169116836104a4565b600085815260096020526040908190206002015490516323b872dd60e01b8152336004820152306024820152604481018690529193506001600160a01b0316906323b872dd906064016020604051808303816000875af1158015610ebe573d6000803e3d6000fd5b505050506040513d601f19601f82011682018060405250810190610ee291906127fa565b50611049565b600084815260096020908152604080832060018101546001600160a01b03908116855260079093528184205460029091015483168452922054610f2f9282169116836104a4565b600085815260096020526040908190206001015490516323b872dd60e01b8152336004820152306024820152604481018490529193506001600160a01b0316906323b872dd906064016020604051808303816000875af1158015610f97573d6000803e3d6000fd5b505050506040513d601f19601f82011682018060405250810190610fbb91906127fa565b50600084815260096020526040908190206002015490516323b872dd60e01b8152336004820152306024820152604481018490526001600160a01b03909116906323b872dd906064016020604051808303816000875af1158015611023573d6000803e3d6000fd5b505050506040513d601f19601f8201168201806040525081019061104791906127fa565b505b60006110558533611c58565b905080156110af576000818152600b60205260408120600201805484929061107e908490612871565b90915550506000818152600b6020526040812060030180548592906110a4908490612871565b909155506110bb9050565b6110bb85838533611d41565b600085815260096020908152604091829020600181015460029091015483516001600160a01b039283168152911691810191909152908101839052606081018490523360808201524260a08201527f461ecd615ea1465ce04ee1aa1810891df016f8b506e515ba3a18bb12f54962e59060c00160405180910390a15050505050565b6002546001600160a01b031633146111875760405162461bcd60e51b815260206004820152600d60248201526c27b7363c902232b83637bcb2b960991b60448201526064016105ae565b6001600160a01b0381166111dd5760405162461bcd60e51b815260206004820152601460248201527f496e76616c69642050616972204164647265737300000000000000000000000060448201526064016105ae565b6008805473ffffffffffffffffffffffffffffffffffffffff19166001600160a01b0392909216919091179055565b6002546001600160a01b031633146112565760405162461bcd60e51b815260206004820152600d60248201526c27b7363c902232b83637bcb2b960991b60448201526064016105ae565b600081116112a65760405162461bcd60e51b815260206004820152601b60248201527f506c6174666f726d206665652063616e6e6f74206265207a65726f000000000060448201526064016105ae565b606481106112f65760405162461bcd60e51b815260206004820181905260248201527f506c6174666f726d206665652063616e6e6f7420626520612068756e6472656460448201526064016105ae565b600355565b6002546001600160a01b031633146113455760405162461bcd60e51b815260206004820152600d60248201526c27b7363c902232b83637bcb2b960991b60448201526064016105ae565b6001600160a01b03821661139b5760405162461bcd60e51b815260206004820152601560248201527f496e76616c696420546f6b656e2041646472657373000000000000000000000060448201526064016105ae565b6001600160a01b0381166113f15760405162461bcd60e51b815260206004820152601460248201527f496e76616c69642050616972204164647265737300000000000000000000000060448201526064016105ae565b6001600160a01b039182166000908152600760205260409020805473ffffffffffffffffffffffffffffffffffffffff191691909216179055565b336000908152600a6020526040812054900361147a5760405162461bcd60e51b815260206004820152600d60248201526c27b7363c90283937bb34b232b960991b60448201526064016105ae565b336000908152600a60205260409020600201548111156114dc5760405162461bcd60e51b815260206004820152601460248201527f496e73756666696369656e742042616c616e636500000000000000000000000060448201526064016105ae565b336000908152600a6020526040812060020180548392906114fe908490612845565b9091555050604051339082156108fc029083906000818181858888f19350505050158015611530573d6000803e3d6000fd5b5050565b600060648210156115ad5760405162461bcd60e51b815260206004820152602c60248201527f416d6f756e7420746f20737761702063616e6e6f74206265206c65737365722060448201527f7468616e2031303020574549000000000000000000000000000000000000000060648201526084016105ae565b6001600160a01b03848116600090815260076020526040902054166116205760405162461bcd60e51b815260206004820152602360248201527f5061697220646f6573206e6f74206578697374732c20436f6e7461637420616460448201526236b4b760e91b60648201526084016105ae565b6001600160a01b03838116600090815260076020526040902054166116935760405162461bcd60e51b815260206004820152602360248201527f5061697220646f6573206e6f74206578697374732c20436f6e7461637420616460448201526236b4b760e91b60648201526084016105ae565b600082816116a18787611e22565b6000818152600960205260409020549091506116ff5760405162461bcd60e51b815260206004820152601460248201527f506f6f6c20646f6573206e6f742065786973747300000000000000000000000060448201526064016105ae565b6008546001600160a01b03888116600090815260076020526040902054918116911603611889576008546001600160a01b038781166000908152600760205260409020543494506117549282169116846104a4565b925085600061176283611f60565b915050848110156117b55760405162461bcd60e51b815260206004820152601660248201527f496e73756666696369656e7420506f6f6c2053697a650000000000000000000060448201526064016105ae565b60006117c18387612014565b9050600060646117d28360506127db565b6117dc9190612823565b60008681526009602090815260409182902082516080810184528154815260018201546001600160a01b039081168285015260028301541681850152600382018054855181860281018601909652808652959650611880958f958e958b95936060860193909183018282801561187157602002820191906000526020600020905b81548152602001906001019080831161185d575b505050505081525050856120f5565b50505050611b70565b6008546001600160a01b038781166000908152600760205260409020549181169116036119c2576001600160a01b038088166000908152600760205260409020546008546118dc929182169116846104a4565b6040516323b872dd60e01b81523360048201523060248201526044810184905290935087906001600160a01b038216906323b872dd906064016020604051808303816000875af1158015611934573d6000803e3d6000fd5b505050506040513d601f19601f8201168201806040525081019061195891906127fa565b50600061196483611f60565b509050848110156119b75760405162461bcd60e51b815260206004820152601660248201527f496e73756666696369656e7420506f6f6c2053697a650000000000000000000060448201526064016105ae565b60006117c18661086e565b6001600160a01b038088166000908152600760205260408082205489841683529120546119f4929182169116846104a4565b925086866000611a0384611f60565b91505085811015611a565760405162461bcd60e51b815260206004820152601660248201527f496e73756666696369656e7420506f6f6c2053697a650000000000000000000060448201526064016105ae565b6000611a6584848b8a336122a6565b905060006064611a768360506127db565b611a809190612823565b9050611b6a8a8985600960008b8152602001908152602001600020604051806080016040529081600082015481526020016001820160009054906101000a90046001600160a01b03166001600160a01b03166001600160a01b031681526020016002820160009054906101000a90046001600160a01b03166001600160a01b03166001600160a01b0316815260200160038201805480602002602001604051908101604052809291908181526020018280548015611871576020028201919060005260206000209081548152602001906001019080831161185d57505050505081525050856120f5565b50505050505b60408051868152602081018590526001600160a01b03898116828401528816606082015242608082015290517f649451cb6bd28801e8992e83f834233301eb39b64a665a45b1e08d3e13ff679a9181900360a00190a1509095945050505050565b336000908152600a60205260408120548103611c1f5760405162461bcd60e51b815260206004820152600d60248201526c27b7363c90283937bb34b232b960991b60448201526064016105ae565b611c298383612406565b90505b92915050565b6000806000611c418585611e22565b9050611c4c81611f60565b92509250509250929050565b6001600160a01b0381166000908152600a6020908152604080832060030180548251818502810185019093528083528493830182828015611cb857602002820191906000526020600020905b815481526020019060010190808311611ca4575b5050505050905060005b8151811015611d365784600b6000848481518110611ce257611ce2612884565b602002602001015181526020019081526020016000206001015403611d2457818181518110611d1357611d13612884565b602002602001015192505050611c2c565b80611d2e81612858565b915050611cc2565b506000949350505050565b60058054906000611d5183612858565b90915550506040805160a081018252600580548083526020808401898152848601988952606085019788526001600160a01b03968716608086018181526000948552600b845287852096518755915160018088019190915599516002870155975160038087019190915590516004909501805473ffffffffffffffffffffffffffffffffffffffff19169590971694909417909555968752600984528287208154908301805480890182559089528589200155938652600a8352908520925492018054938401815584529092200155565b60006001600160a01b03831615801590611e4457506001600160a01b03821615155b611e905760405162461bcd60e51b815260206004820152600760248201527f496e76616c69640000000000000000000000000000000000000000000000000060448201526064016105ae565b60005b6004548111611f56576000818152600960205260409020600101546001600160a01b038581169116148015611ee457506000818152600960205260409020600201546001600160a01b038481169116145b15611ef0579050611c2c565b6000818152600960205260409020600101546001600160a01b038481169116148015611f3857506000818152600960205260409020600201546001600160a01b038581169116145b15611f44579050611c2c565b80611f4e81612858565b915050611e93565b5060009392505050565b60008060008060005b600086815260096020526040902060030154811015612009576000868152600960205260408120600301805483908110611fa557611fa5612884565b90600052602060002001549050600b60008281526020019081526020016000206002015484611fd49190612871565b6000828152600b6020526040902060030154909450611ff39084612871565b925050808061200190612858565b915050611f69565b509094909350915050565b6000806003546064846120279190612823565b61203191906127db565b90506001600160a01b03841663a9059cbb3361204d8487612845565b6040517fffffffff0000000000000000000000000000000000000000000000000000000060e085901b1681526001600160a01b03909216600483015260248201526044016020604051808303816000875af11580156120b0573d6000803e3d6000fd5b505050506040513d601f19601f820116820180604052508101906120d491906127fa565b506008546120ed9085906001600160a01b0316836104a4565b949350505050565b60005b82606001515181101561229e5760008360600151828151811061211d5761211d612884565b6020026020010151905060008588600b60008581526020019081526020016000206003015461214c91906127db565b6121569190612823565b905080600b6000848152602001908152602001600020600201600082825461217e9190612871565b90915550506000828152600b602052604081206003015487906121a2908a906127db565b6121ac9190612823565b905080600b600085815260200190815260200160002060030160008282546121d49190612845565b90915550506000838152600b602052604081206003015488906121f89088906127db565b6122029190612823565b6000858152600b60209081526040808320600401546001600160a01b03168352600a909152812060010180549293508392909190612241908490612871565b90915550506000848152600b60209081526040808320600401546001600160a01b03168352600a90915281206002018054839290612280908490612871565b9250508190555050505050808061229690612858565b9150506120f8565b505050505050565b6000806003546064856122b99190612823565b6122c391906127db565b6040516323b872dd60e01b81526001600160a01b03858116600483015230602483015260448201889052919250908816906323b872dd906064016020604051808303816000875af115801561231c573d6000803e3d6000fd5b505050506040513d601f19601f8201168201806040525081019061234091906127fa565b506001600160a01b03861663a9059cbb8461235b8488612845565b6040517fffffffff0000000000000000000000000000000000000000000000000000000060e085901b1681526001600160a01b03909216600483015260248201526044016020604051808303816000875af11580156123be573d6000803e3d6000fd5b505050506040513d601f19601f820116820180604052508101906123e291906127fa565b506008546123fb9087906001600160a01b0316836104a4565b979650505050505050565b6001600160a01b0382811660009081526007602052604081205490911661247b5760405162461bcd60e51b815260206004820152602360248201527f5061697220646f6573206e6f74206578697374732c20436f6e7461637420616460448201526236b4b760e91b60648201526084016105ae565b6001600160a01b03828116600090815260076020526040902054166124ee5760405162461bcd60e51b815260206004820152602360248201527f5061697220646f6573206e6f74206578697374732c20436f6e7461637420616460448201526236b4b760e91b60648201526084016105ae565b60006124fa8484611e22565b158015915061250d576000915050611c2c565b6004805490600061251d83612858565b9091555050600454600090815260096020908152604080832081516080810183528154815260018201546001600160a01b0390811682860152600283015416818401526003820180548451818702810187019095528085529194929360608601939092908301828280156125b057602002820191906000526020600020905b81548152602001906001019080831161259c575b505050919092525050604080516080810182526004548082526001600160a01b03808b1660208085019182528b83168587019081526060808a01519087019081526000958652600983529690942085518155915160018301805491851673ffffffffffffffffffffffffffffffffffffffff1992831617905593516002830180549190941694169390931790915592518051959650919492935061265c9260038501929091019061266b565b50506004549695505050505050565b8280548282559060005260206000209081019282156126a6579160200282015b828111156126a657825182559160200191906001019061268b565b506126b29291506126b6565b5090565b5b808211156126b257600081556001016126b7565b80356001600160a01b03811681146126e257600080fd5b919050565b6000602082840312156126f957600080fd5b611c29826126cb565b60008060006060848603121561271757600080fd5b612720846126cb565b925061272e602085016126cb565b9150604084013590509250925092565b60006020828403121561275057600080fd5b5035919050565b6000806040838503121561276a57600080fd5b50508035926020909101359150565b6000806040838503121561278c57600080fd5b612795836126cb565b91506127a3602084016126cb565b90509250929050565b6000602082840312156127be57600080fd5b5051919050565b634e487b7160e01b600052601160045260246000fd5b60008160001904831182151516156127f5576127f56127c5565b500290565b60006020828403121561280c57600080fd5b8151801515811461281c57600080fd5b9392505050565b60008261284057634e487b7160e01b600052601260045260246000fd5b500490565b81810381811115611c2c57611c2c6127c5565b60006001820161286a5761286a6127c5565b5060010190565b80820180821115611c2c57611c2c6127c5565b634e487b7160e01b600052603260045260246000fdfea2646970667358221220715168efb93450d497c56636985d234d9e873ef93dee9c091bcd63b34f2081ff64736f6c63430008100033",
  "immutableReferences": {},
  "source": "// SPDX-License-Identifier: GPL-3.0\npragma solidity >=0.7.0 <0.9.0;\n\nimport {PriceApi} from \"./PriceApi.sol\";\nimport {Token} from \"./Token.sol\";\nimport {IERC20} from \"@openzeppelin/contracts/token/ERC20/IERC20.sol\";\n\ncontract Swap {\n    PriceApi private _priceApi;\n    Token private _token;\n\n    // contract admin\n    address private _deployer;\n\n    // charges 1% fee on every successful swaps\n    uint private swapFee = 1;\n\n    // ids to avoid conflicts\n    uint256 private POOL_ID;\n    uint256 private LIQUID_ID;\n    uint256 private PROVIDER_ID;\n\n    // token contract address => chainlink aggregrator address\n    // only in the token paired to USD format\n    mapping(address => address) public pairs;\n\n    // is a member of the pairs mapping\n    // but its the native pair MATIC not IERC20\n    address public NATIVE_PAIR;\n\n    // id => liquidity pools\n    mapping(uint => Pool) public pools;\n    // user address => provider data\n    mapping(address => Provider) public providers;\n    // id => liquids\n    mapping(uint => Liquid) public liquids;\n\n    // === Events === //\n\n    event LiquidProvided(\n        address token0,\n        address token1,\n        uint256 amount0,\n        uint256 amount1,\n        address provider,\n        uint timestamp\n    );\n\n    event LiquidRemoved(\n        address token0,\n        address token1,\n        uint256 amount0,\n        uint256 amount1,\n        address provider\n    );\n\n    event FleepSwaped(\n        uint256 amount,\n        uint256 amountOut,\n        address from,\n        address to,\n        uint timestamp\n    );\n\n    // === Structs === //\n\n    struct Pool {\n        uint id;\n        address token0;\n        address token1;\n        uint[] liquids;\n    }\n\n    struct Liquid {\n        uint id;\n        uint poolId;\n        uint256 amount0;\n        uint256 amount1;\n        address provider;\n    }\n\n    struct Provider {\n        uint id;\n        uint256 totalEarned;\n        uint256 balance;\n        uint[] liquids;\n    }\n\n    constructor(address priceApI, address token) {\n        _priceApi = PriceApi(priceApI);\n        _token = Token(token);\n        _deployer = msg.sender;\n    }\n\n    // calculates all the size of the liquids\n    // in a pool of token pair\n    function getPoolSize(\n        address token0,\n        address token1\n    ) public view returns (uint256, uint256) {\n        uint poolId = _findPool(token0, token1);\n        return _poolSize(poolId);\n    }\n\n    // gets the exchanges rates for pair of tokens\n    // with accordance to amount of tokens\n    function estimate(\n        address token0,\n        address token1,\n        uint256 amount0\n    ) public view returns (uint256) {\n        int256 rate = _priceApi.getExchangeRate(pairs[token0], pairs[token1]);\n        return amount0 * uint256(rate);\n    }\n\n    // returns the contract address\n    function getContractAddress() public view returns (address) {\n        return address(this);\n    }\n\n    // returns the pair address for $MATIC\n    function getNativePair() public view returns (address) {\n        return NATIVE_PAIR;\n    }\n\n    // register as a provider\n    function unlockedProviderAccount() public onlyGuest {\n        // to become a provider you must hodl at least 10\n        // tokens of Fleep Token\n        require(\n            _token.balanceOf(msg.sender) >= _token.inWei(10),\n            \"You must hodl at least 10 Fleep Tokens\"\n        );\n\n        PROVIDER_ID++;\n        providers[msg.sender] = Provider(\n            PROVIDER_ID,\n            providers[msg.sender].totalEarned,\n            providers[msg.sender].balance,\n            providers[msg.sender].liquids\n        );\n    }\n\n    // === Swapping === //\n\n    function swap(\n        address token0,\n        address token1,\n        uint256 amount0\n    ) public payable returns (uint256) {\n        require(amount0 >= 100, \"Amount to swap cannot be lesser than 100 WEI\");\n        require(\n            pairs[token0] != address(0),\n            \"Pair does not exists, Contact admin\"\n        );\n        require(\n            pairs[token1] != address(0),\n            \"Pair does not exists, Contact admin\"\n        );\n\n        uint256 amount1;\n        uint256 _safeAmount0 = amount0;\n\n        uint poolId = _findPool(token0, token1);\n        require(pools[poolId].id > 0, \"Pool does not exists\");\n\n        if (pairs[token0] == NATIVE_PAIR) {\n            _safeAmount0 = msg.value;\n            amount1 = estimate(NATIVE_PAIR, pairs[token1], _safeAmount0);\n\n            IERC20 quoteToken = IERC20(token1);\n            (, uint256 poolSizeToken1) = _poolSize(poolId);\n\n            // check if contract has enough destination token liquid\n            require(poolSizeToken1 >= amount1, \"Insufficient Pool Size\");\n\n            uint256 fee = _transferSwappedTokens0(quoteToken, amount1);\n            uint256 providersReward = ((fee * 80) / 100);\n\n            _aggregateLiquids(\n                amount0,\n                amount1,\n                poolSizeToken1,\n                pools[poolId],\n                providersReward\n            );\n        } else if (pairs[token1] == NATIVE_PAIR) {\n            amount1 = estimate(pairs[token0], NATIVE_PAIR, _safeAmount0);\n\n            IERC20 baseToken = IERC20(token0);\n            baseToken.transferFrom(msg.sender, address(this), _safeAmount0);\n\n            (uint256 poolSizeToken1, ) = _poolSize(poolId);\n            require(poolSizeToken1 >= amount1, \"Insufficient Pool Size\");\n\n            uint256 fee = _transferSwappedTokens1(amount1);\n            uint256 providersReward = ((fee * 80) / 100);\n\n            _aggregateLiquids(\n                amount0,\n                amount1,\n                poolSizeToken1,\n                pools[poolId],\n                providersReward\n            );\n        } else {\n            amount1 = estimate(pairs[token0], pairs[token1], _safeAmount0);\n\n            IERC20 baseToken = IERC20(token0);\n            IERC20 quoteToken = IERC20(token1);\n\n            (, uint256 poolSizeToken1) = _poolSize(poolId);\n\n            // check if contract has enough destination token liquid\n            require(poolSizeToken1 >= amount1, \"Insufficient Pool Size\");\n\n            uint256 fee = _transferSwappedTokens2(\n                baseToken,\n                quoteToken,\n                amount0,\n                amount1,\n                msg.sender\n            );\n            uint256 providersReward = ((fee * 80) / 100);\n\n            _aggregateLiquids(\n                amount0,\n                amount1,\n                poolSizeToken1,\n                pools[poolId],\n                providersReward\n            );\n        }\n\n        // store the swap data on-chain\n        emit FleepSwaped(amount0, amount1, token0, token1, block.timestamp);\n\n        return amount1;\n    }\n\n    // === Providers === //\n\n    function provideLiquid(\n        uint poolId,\n        uint256 amount0\n    ) public payable onlyProvider {\n        require(amount0 >= 100, \"Amount cannot be lesser than 100 WEI\");\n\n        require(\n            pairs[pools[poolId].token0] != address(0),\n            \"Pair does not exists, Contact admin\"\n        );\n        require(\n            pairs[pools[poolId].token1] != address(0),\n            \"Pair does not exists, Contact admin\"\n        );\n\n        uint256 amount1;\n        uint256 _safeAmount0 = amount0;\n\n        if (pairs[pools[poolId].token0] == NATIVE_PAIR) {\n            require(msg.value > 100, \"Matic cannot be lesser than 1OO WEI\");\n            // only in format of MATIC as pair subject\n            // ex MATIC/XEND\n\n            _safeAmount0 = msg.value;\n            // get the estimate for token1\n            amount1 = estimate(\n                pairs[pools[poolId].token0],\n                pairs[pools[poolId].token1],\n                _safeAmount0\n            );\n            // stake token1 to smart contract\n            IERC20(pools[poolId].token1).transferFrom(\n                msg.sender,\n                address(this),\n                amount0\n            );\n        } else {\n            // get the estimate for token1\n            amount1 = estimate(\n                pairs[pools[poolId].token0],\n                pairs[pools[poolId].token1],\n                _safeAmount0\n            );\n            // stake tokens to smart contract\n            IERC20(pools[poolId].token0).transferFrom(\n                msg.sender,\n                address(this),\n                _safeAmount0\n            );\n            IERC20(pools[poolId].token1).transferFrom(\n                msg.sender,\n                address(this),\n                amount1\n            );\n        }\n\n        uint liquidId = _liquidIndex(poolId, msg.sender);\n\n        if (liquidId > 0) {\n            // if liquid exist increment the amount\n            liquids[liquidId].amount0 += _safeAmount0;\n            liquids[liquidId].amount1 += amount1;\n        } else {\n            // otherwise create the new liquid\n            _createLiquid(poolId, _safeAmount0, amount1, msg.sender);\n        }\n\n        // store the liquidity data on-chain\n        emit LiquidProvided(\n            pools[poolId].token0,\n            pools[poolId].token1,\n            _safeAmount0,\n            amount1,\n            msg.sender,\n            block.timestamp\n        );\n    }\n\n    function removeLiquid(uint id) public onlyProvider {\n        require(liquids[id].provider == msg.sender, \"Unauthorized\");\n\n        Pool memory pool = pools[liquids[id].poolId];\n        IERC20 token0 = IERC20(pool.token0);\n        IERC20 token1 = IERC20(pool.token1);\n\n        token0.transfer(msg.sender, liquids[id].amount0);\n        token1.transfer(msg.sender, liquids[id].amount1);\n\n        emit LiquidRemoved(\n            address(token0),\n            address(token1),\n            liquids[id].amount0,\n            liquids[id].amount1,\n            msg.sender\n        );\n\n        // delete liquid TO DO\n        liquids[id].amount0 = 0;\n        liquids[id].amount1 = 0;\n    }\n\n    function createPool(\n        address token0,\n        address token1\n    ) public onlyProvider returns (uint) {\n        return _createPool(token0, token1);\n    }\n\n    function withDrawEarnings(uint256 amount) public onlyProvider {\n        require(\n            providers[msg.sender].balance >= amount,\n            \"Insufficient Balance\"\n        );\n        providers[msg.sender].balance -= amount;\n        payable(msg.sender).transfer(amount);\n    }\n\n    // === Administration === //\n\n    function updateNativePair(address pair) public onlyDeployer {\n        require(pair != address(0), \"Invalid Pair Address\");\n        NATIVE_PAIR = pair;\n    }\n\n    function updateSwapFee(uint fee) public onlyDeployer {\n        require(fee > 0, \"Platform fee cannot be zero\");\n        require(fee < 100, \"Platform fee cannot be a hundred\");\n        swapFee = fee;\n    }\n\n    function createPair(address token, address pair) public onlyDeployer {\n        require(token != address(0), \"Invalid Token Address\");\n        require(pair != address(0), \"Invalid Pair Address\");\n        pairs[token] = pair;\n    }\n\n    // === Internal Functions === //\n\n    function _liquidIndex(\n        uint poolId,\n        address provider\n    ) private view returns (uint) {\n        uint256[] memory providerLiquids = providers[provider].liquids;\n\n        for (uint index = 0; index < providerLiquids.length; index++) {\n            if (liquids[providerLiquids[index]].poolId == poolId) {\n                return providerLiquids[index];\n            }\n        }\n\n        return 0;\n    }\n\n    function _aggregateLiquids(\n        uint256 amount0,\n        uint256 amount1,\n        uint256 poolSizeToken1,\n        Pool memory pool,\n        uint256 fee\n    ) private {\n        // equally share swap impact on all provider liquids based on their contribution\n        for (uint index = 0; index < pool.liquids.length; index++) {\n            uint liquidId = pool.liquids[index];\n\n            // calculated with ratio of this liquid compared\n            // to other liquids contributing\n            uint256 additionAmount = ((liquids[liquidId].amount1 * amount0) /\n                poolSizeToken1);\n\n            // step I\n            liquids[liquidId].amount0 += additionAmount;\n\n            // calculated with ratio of this liquid compared\n            // to other liquids contributing\n            uint256 deductionAmount = ((liquids[liquidId].amount1 * amount1) /\n                poolSizeToken1);\n\n            // step II\n            liquids[liquidId].amount1 -= deductionAmount;\n\n            // reward the liquid provider\n            uint256 reward = ((liquids[liquidId].amount1 * fee) /\n                poolSizeToken1);\n\n            providers[liquids[liquidId].provider].totalEarned += reward;\n            providers[liquids[liquidId].provider].balance += reward;\n        }\n    }\n\n    function _transferSwappedTokens0(\n        IERC20 token1,\n        uint256 amount1\n    ) private returns (uint256) {\n        uint256 _fee = ((amount1 / 100) * swapFee);\n\n        // give user their destination token minus fee\n        token1.transfer(msg.sender, (amount1 - _fee));\n\n        // convert fee to matic\n        return estimate(address(token1), NATIVE_PAIR, _fee);\n    }\n\n    function _transferSwappedTokens1(\n        uint256 amount1\n    ) public payable returns (uint256) {\n        uint256 _fee = ((amount1 / 100) * swapFee);\n\n        // give user their destination token minus fee\n        payable(msg.sender).transfer(amount1 - _fee);\n        return _fee;\n    }\n\n    function _transferSwappedTokens2(\n        IERC20 token0,\n        IERC20 token1,\n        uint256 amount0,\n        uint256 amount1,\n        address owner\n    ) private returns (uint256) {\n        uint256 _fee = ((amount1 / 100) * swapFee);\n\n        // tranfers the base token from user to the\n        // smart contract\n        token0.transferFrom(owner, address(this), amount0);\n\n        // give user their destination token minus fee\n        token1.transfer(owner, (amount1 - _fee));\n\n        // convert fee to matic\n        return estimate(address(token1), NATIVE_PAIR, _fee);\n    }\n\n    function _findPool(\n        address token0,\n        address token1\n    ) private view returns (uint) {\n        require(token0 != address(0) && token1 != address(0), \"Invalid\");\n        for (uint index = 0; index <= POOL_ID; index++) {\n            if (\n                pools[index].token0 == token0 && pools[index].token1 == token1\n            ) {\n                return index;\n            }\n\n            if (\n                pools[index].token0 == token1 && pools[index].token1 == token0\n            ) {\n                return index;\n            }\n        }\n        return 0;\n    }\n\n    function _createLiquid(\n        uint poolId,\n        uint256 amount0,\n        uint256 amount1,\n        address provider\n    ) private {\n        LIQUID_ID++;\n        // create the liquid\n        liquids[LIQUID_ID] = Liquid(\n            LIQUID_ID,\n            poolId,\n            amount0,\n            amount1,\n            provider\n        );\n        // register the liquid\n        pools[poolId].liquids.push(LIQUID_ID);\n        providers[provider].liquids.push(LIQUID_ID);\n    }\n\n    function _poolSize(uint id) private view returns (uint256, uint256) {\n        uint256 amount0;\n        uint256 amount1;\n        for (uint index = 0; index < pools[id].liquids.length; index++) {\n            uint liquidId = pools[id].liquids[index];\n            amount0 += liquids[liquidId].amount0;\n            amount1 += liquids[liquidId].amount1;\n        }\n        return (amount0, amount1);\n    }\n\n    function _createPool(\n        address token0,\n        address token1\n    ) private returns (uint) {\n        require(\n            pairs[token0] != address(0),\n            \"Pair does not exists, Contact admin\"\n        );\n        require(\n            pairs[token1] != address(0),\n            \"Pair does not exists, Contact admin\"\n        );\n\n        bool exists = _findPool(token0, token1) != 0;\n        if (exists) return 0;\n\n        POOL_ID++;\n        Pool memory pool = pools[POOL_ID];\n\n        pools[POOL_ID] = Pool(POOL_ID, token0, token1, pool.liquids);\n\n        return POOL_ID;\n    }\n\n    // === Modifiers === //\n\n    modifier onlyGuest() {\n        require(providers[msg.sender].id == 0, \"Only Guest\");\n        _;\n    }\n\n    modifier onlyProvider() {\n        require(providers[msg.sender].id != 0, \"Only Provider\");\n        _;\n    }\n\n    modifier onlyDeployer() {\n        require(msg.sender == _deployer, \"Only Deployer\");\n        _;\n    }\n}\n",
  "sourcePath": "C:\\Users\\Arogundade Ibrahim\\Documents\\web3\\fleep\\contracts\\Swap.sol",
  "compiler": {
    "name": "solc",
    "version": "0.8.16+commit.07a7930e.Emscripten.clang"
  },
  "schemaVersion": "3.4.10",
  "updatedAt": "2022-11-27T18:15:16.688Z",
  "devdoc": {
    "kind": "dev",
    "methods": {},
    "version": 1
  },
  "userdoc": {
    "kind": "user",
    "methods": {},
    "version": 1
  }
}