{
    "contractName": "Swap",
    "abi": [
        {
            "inputs": [
                {
                    "internalType": "address",
                    "name": "priceApI",
                    "type": "address"
                }
            ],
            "stateMutability": "nonpayable",
            "type": "constructor"
        },
        {
            "anonymous": false,
            "inputs": [
                {
                    "indexed": false,
                    "internalType": "uint256",
                    "name": "amount",
                    "type": "uint256"
                },
                {
                    "indexed": false,
                    "internalType": "uint256",
                    "name": "amountOut",
                    "type": "uint256"
                },
                {
                    "indexed": false,
                    "internalType": "address",
                    "name": "from",
                    "type": "address"
                },
                {
                    "indexed": false,
                    "internalType": "address",
                    "name": "to",
                    "type": "address"
                },
                {
                    "indexed": false,
                    "internalType": "uint256",
                    "name": "timestamp",
                    "type": "uint256"
                }
            ],
            "name": "FleepSwaped",
            "type": "event"
        },
        {
            "anonymous": false,
            "inputs": [
                {
                    "indexed": false,
                    "internalType": "address",
                    "name": "token0",
                    "type": "address"
                },
                {
                    "indexed": false,
                    "internalType": "address",
                    "name": "token1",
                    "type": "address"
                },
                {
                    "indexed": false,
                    "internalType": "uint256",
                    "name": "amount0",
                    "type": "uint256"
                },
                {
                    "indexed": false,
                    "internalType": "uint256",
                    "name": "amount1",
                    "type": "uint256"
                },
                {
                    "indexed": false,
                    "internalType": "address",
                    "name": "provider",
                    "type": "address"
                },
                {
                    "indexed": false,
                    "internalType": "uint256",
                    "name": "timestamp",
                    "type": "uint256"
                }
            ],
            "name": "LiquidProvided",
            "type": "event"
        },
        {
            "inputs": [],
            "name": "NATIVE_PAIR",
            "outputs": [
                {
                    "internalType": "address",
                    "name": "",
                    "type": "address"
                }
            ],
            "stateMutability": "view",
            "type": "function"
        },
        {
            "inputs": [],
            "name": "USDT_PAIR",
            "outputs": [
                {
                    "internalType": "address",
                    "name": "",
                    "type": "address"
                }
            ],
            "stateMutability": "view",
            "type": "function"
        },
        {
            "inputs": [
                {
                    "internalType": "uint256",
                    "name": "",
                    "type": "uint256"
                }
            ],
            "name": "liquids",
            "outputs": [
                {
                    "internalType": "uint256",
                    "name": "id",
                    "type": "uint256"
                },
                {
                    "internalType": "uint256",
                    "name": "poolId",
                    "type": "uint256"
                },
                {
                    "internalType": "uint256",
                    "name": "amount0",
                    "type": "uint256"
                },
                {
                    "internalType": "uint256",
                    "name": "amount1",
                    "type": "uint256"
                },
                {
                    "internalType": "address",
                    "name": "provider",
                    "type": "address"
                }
            ],
            "stateMutability": "view",
            "type": "function"
        },
        {
            "inputs": [
                {
                    "internalType": "address",
                    "name": "",
                    "type": "address"
                }
            ],
            "name": "pairs",
            "outputs": [
                {
                    "internalType": "address",
                    "name": "",
                    "type": "address"
                }
            ],
            "stateMutability": "view",
            "type": "function"
        },
        {
            "inputs": [
                {
                    "internalType": "uint256",
                    "name": "",
                    "type": "uint256"
                }
            ],
            "name": "pools",
            "outputs": [
                {
                    "internalType": "uint256",
                    "name": "id",
                    "type": "uint256"
                },
                {
                    "internalType": "address",
                    "name": "token0",
                    "type": "address"
                },
                {
                    "internalType": "address",
                    "name": "token1",
                    "type": "address"
                }
            ],
            "stateMutability": "view",
            "type": "function"
        },
        {
            "inputs": [
                {
                    "internalType": "address",
                    "name": "",
                    "type": "address"
                }
            ],
            "name": "providers",
            "outputs": [
                {
                    "internalType": "uint256",
                    "name": "id",
                    "type": "uint256"
                },
                {
                    "internalType": "uint256",
                    "name": "totalEarned",
                    "type": "uint256"
                },
                {
                    "internalType": "uint256",
                    "name": "balance",
                    "type": "uint256"
                },
                {
                    "internalType": "bool",
                    "name": "autoStake",
                    "type": "bool"
                }
            ],
            "stateMutability": "view",
            "type": "function"
        },
        {
            "inputs": [
                {
                    "internalType": "address",
                    "name": "token0",
                    "type": "address"
                },
                {
                    "internalType": "address",
                    "name": "token1",
                    "type": "address"
                }
            ],
            "name": "getPoolSize",
            "outputs": [
                {
                    "internalType": "uint256",
                    "name": "",
                    "type": "uint256"
                },
                {
                    "internalType": "uint256",
                    "name": "",
                    "type": "uint256"
                }
            ],
            "stateMutability": "view",
            "type": "function"
        },
        {
            "inputs": [
                {
                    "internalType": "address",
                    "name": "token0",
                    "type": "address"
                },
                {
                    "internalType": "address",
                    "name": "token1",
                    "type": "address"
                },
                {
                    "internalType": "uint256",
                    "name": "amount0",
                    "type": "uint256"
                }
            ],
            "name": "estimate",
            "outputs": [
                {
                    "internalType": "uint256",
                    "name": "",
                    "type": "uint256"
                }
            ],
            "stateMutability": "view",
            "type": "function"
        },
        {
            "inputs": [],
            "name": "getContractAddress",
            "outputs": [
                {
                    "internalType": "address",
                    "name": "",
                    "type": "address"
                }
            ],
            "stateMutability": "view",
            "type": "function"
        },
        {
            "inputs": [],
            "name": "getNativePair",
            "outputs": [
                {
                    "internalType": "address",
                    "name": "",
                    "type": "address"
                }
            ],
            "stateMutability": "view",
            "type": "function"
        },
        {
            "inputs": [],
            "name": "getUSDTPair",
            "outputs": [
                {
                    "internalType": "address",
                    "name": "",
                    "type": "address"
                }
            ],
            "stateMutability": "view",
            "type": "function"
        },
        {
            "inputs": [],
            "name": "unlockedProviderAccount",
            "outputs": [],
            "stateMutability": "nonpayable",
            "type": "function"
        },
        {
            "inputs": [
                {
                    "internalType": "address",
                    "name": "token0",
                    "type": "address"
                },
                {
                    "internalType": "address",
                    "name": "token1",
                    "type": "address"
                },
                {
                    "internalType": "uint256",
                    "name": "amount0",
                    "type": "uint256"
                }
            ],
            "name": "swap",
            "outputs": [
                {
                    "internalType": "uint256",
                    "name": "",
                    "type": "uint256"
                }
            ],
            "stateMutability": "payable",
            "type": "function"
        },
        {
            "inputs": [
                {
                    "internalType": "uint256",
                    "name": "poolId",
                    "type": "uint256"
                },
                {
                    "internalType": "uint256",
                    "name": "amount0",
                    "type": "uint256"
                }
            ],
            "name": "provideLiquidity",
            "outputs": [],
            "stateMutability": "payable",
            "type": "function"
        },
        {
            "inputs": [
                {
                    "internalType": "uint256",
                    "name": "id",
                    "type": "uint256"
                }
            ],
            "name": "removeLiquidity",
            "outputs": [],
            "stateMutability": "nonpayable",
            "type": "function"
        },
        {
            "inputs": [
                {
                    "internalType": "address",
                    "name": "token0",
                    "type": "address"
                },
                {
                    "internalType": "address",
                    "name": "token1",
                    "type": "address"
                }
            ],
            "name": "createPool",
            "outputs": [
                {
                    "internalType": "uint256",
                    "name": "",
                    "type": "uint256"
                }
            ],
            "stateMutability": "nonpayable",
            "type": "function"
        },
        {
            "inputs": [
                {
                    "internalType": "bool",
                    "name": "_autoStake",
                    "type": "bool"
                }
            ],
            "name": "updateProviderProfile",
            "outputs": [],
            "stateMutability": "nonpayable",
            "type": "function"
        },
        {
            "inputs": [
                {
                    "internalType": "uint256",
                    "name": "amount",
                    "type": "uint256"
                }
            ],
            "name": "withDrawEarnings",
            "outputs": [],
            "stateMutability": "nonpayable",
            "type": "function"
        },
        {
            "inputs": [
                {
                    "internalType": "address",
                    "name": "pair",
                    "type": "address"
                }
            ],
            "name": "updateNativePair",
            "outputs": [],
            "stateMutability": "nonpayable",
            "type": "function"
        },
        {
            "inputs": [
                {
                    "internalType": "address",
                    "name": "pair",
                    "type": "address"
                }
            ],
            "name": "updateUSDTPair",
            "outputs": [],
            "stateMutability": "nonpayable",
            "type": "function"
        },
        {
            "inputs": [
                {
                    "internalType": "uint256",
                    "name": "fee",
                    "type": "uint256"
                }
            ],
            "name": "updateSwapFee",
            "outputs": [],
            "stateMutability": "nonpayable",
            "type": "function"
        },
        {
            "inputs": [
                {
                    "internalType": "address",
                    "name": "token",
                    "type": "address"
                },
                {
                    "internalType": "address",
                    "name": "pair",
                    "type": "address"
                }
            ],
            "name": "createPair",
            "outputs": [],
            "stateMutability": "nonpayable",
            "type": "function"
        },
        {
            "inputs": [
                {
                    "internalType": "uint256",
                    "name": "amount",
                    "type": "uint256"
                },
                {
                    "internalType": "address",
                    "name": "receiver",
                    "type": "address"
                }
            ],
            "name": "withDrawPlaformEarnings",
            "outputs": [],
            "stateMutability": "nonpayable",
            "type": "function"
        },
        {
            "inputs": [
                {
                    "internalType": "address",
                    "name": "token0",
                    "type": "address"
                },
                {
                    "internalType": "uint256",
                    "name": "amount0",
                    "type": "uint256"
                },
                {
                    "internalType": "uint256",
                    "name": "amount1",
                    "type": "uint256"
                },
                {
                    "internalType": "address",
                    "name": "owner",
                    "type": "address"
                }
            ],
            "name": "_transferSwappedTokens1",
            "outputs": [
                {
                    "internalType": "uint256",
                    "name": "",
                    "type": "uint256"
                }
            ],
            "stateMutability": "payable",
            "type": "function"
        },
        {
            "inputs": [],
            "name": "testnetHelper2",
            "outputs": [],
            "stateMutability": "nonpayable",
            "type": "function"
        }
    ],
    "bytecode": "0x608060405260196003553480156200001657600080fd5b50604051620031d4380380620031d4833981016040819052620000399162000507565b600080546001600160a01b0383166001600160a01b03199182161790915560018054909116331790556200006c62000073565b5062000539565b6001546001600160a01b03163314620000c35760405162461bcd60e51b815260206004820152600d60248201526c27b7363c902232b83637bcb2b960991b60448201526064015b60405180910390fd5b620000e273d0d5e3db44de05e9f294bb0a3beeaf030de24ada62000251565b6200010173d24ac22e0fb3694d0318c9e56e1e99d170a3186462000317565b6200013473c0ec2dca88dbe3c91518958c935ce250c718f0eb727a22900a3b98143368bd5906f8e17e9867581b620003dd565b62000168733814cf88e2675041504c7d6404f7b8978f8b65b4730fcaa9c899ec5a91ebc3d5dd869de833b06fb046620003dd565b6200019c7360d4a61940ac5e59cbdaf05e7f702b26048320bf730715a7794a1dc8e42615f059dd6e406a6594651a620003dd565b600854620001b4906001600160a01b031680620003dd565b620001e772f5153e9608217dba32c6c706fef5ad97016842739dd18534b8f456557d11b9ddb14da89b2e52e308620003dd565b6200021b73304379dfa42b7127de0db93bce597bedba18b25973572ddec9087154dc5dfbb1546bb62713147e0ab0620003dd565b6200024f73d24ac22e0fb3694d0318c9e56e1e99d170a318647392c09849638959196e976289418e5973cc96d645620003dd565b565b6001546001600160a01b031633146200029d5760405162461bcd60e51b815260206004820152600d60248201526c27b7363c902232b83637bcb2b960991b6044820152606401620000ba565b6001600160a01b038116620002f55760405162461bcd60e51b815260206004820152601460248201527f496e76616c6964205061697220416464726573730000000000000000000000006044820152606401620000ba565b600880546001600160a01b0319166001600160a01b0392909216919091179055565b6001546001600160a01b03163314620003635760405162461bcd60e51b815260206004820152600d60248201526c27b7363c902232b83637bcb2b960991b6044820152606401620000ba565b6001600160a01b038116620003bb5760405162461bcd60e51b815260206004820152601460248201527f496e76616c6964205061697220416464726573730000000000000000000000006044820152606401620000ba565b600980546001600160a01b0319166001600160a01b0392909216919091179055565b6001546001600160a01b03163314620004295760405162461bcd60e51b815260206004820152600d60248201526c27b7363c902232b83637bcb2b960991b6044820152606401620000ba565b6001600160a01b038216620004815760405162461bcd60e51b815260206004820152601560248201527f496e76616c696420546f6b656e204164647265737300000000000000000000006044820152606401620000ba565b6001600160a01b038116620004d95760405162461bcd60e51b815260206004820152601460248201527f496e76616c6964205061697220416464726573730000000000000000000000006044820152606401620000ba565b6001600160a01b03918216600090815260076020526040902080546001600160a01b03191691909216179055565b6000602082840312156200051a57600080fd5b81516001600160a01b03811681146200053257600080fd5b9392505050565b612c8b80620005496000396000f3fe6080604052600436106101965760003560e01c806391e5f37f116100e1578063d30dce7d1161008a578063ecd44aef11610064578063ecd44aef146104aa578063eebb63ed146104df578063f50c4fe814610563578063fe33b3021461058357600080fd5b8063d30dce7d14610457578063df791e5014610477578063e34336151461048a57600080fd5b8063b8eab409116100bb578063b8eab409146103f7578063bf16f65a14610417578063c9c653961461043757600080fd5b806391e5f37f1461034a5780639c8f9f231461036a578063ac4afa381461038a57600080fd5b806351fde344116101435780637a16af7f1161011d5780637a16af7f146103045780638625ed13146103175780638a2627f01461032c57600080fd5b806351fde344146102ad5780635554b552146102cf57806378c480db146102e457600080fd5b806316339a9b1161017457806316339a9b1461024857806332a2c5d01461027a578063344bfb591461028d57600080fd5b8063061bf0451461019b5780630787bc27146101c1578063102a5f9114610228575b600080fd5b6101ae6101a9366004612a13565b6105b9565b6040519081526020015b60405180910390f35b3480156101cd57600080fd5b506102066101dc366004612a59565b600b6020526000908152604090208054600182015460028301546003909301549192909160ff1684565b60408051948552602085019390935291830152151560608201526080016101b8565b34801561023457600080fd5b506101ae610243366004612a74565b610714565b34801561025457600080fd5b506009546001600160a01b03165b6040516001600160a01b0390911681526020016101b8565b34801561028657600080fd5b5030610262565b34801561029957600080fd5b50600854610262906001600160a01b031681565b3480156102b957600080fd5b506102cd6102c8366004612abe565b6107e3565b005b3480156102db57600080fd5b506102cd610854565b3480156102f057600080fd5b506102cd6102ff366004612ae2565b6109b8565b6102cd610312366004612b0e565b610ae7565b34801561032357600080fd5b506102cd610f4f565b34801561033857600080fd5b506008546001600160a01b0316610262565b34801561035657600080fd5b506102cd610365366004612a59565b611176565b34801561037657600080fd5b506102cd610385366004612b30565b611245565b34801561039657600080fd5b506103d26103a5366004612b30565b600a6020526000908152604090208054600182015460029092015490916001600160a01b03908116911683565b604080519384526001600160a01b0392831660208501529116908201526060016101b8565b34801561040357600080fd5b50600954610262906001600160a01b031681565b34801561042357600080fd5b506102cd610432366004612b30565b6114d6565b34801561044357600080fd5b506102cd610452366004612b49565b6115c6565b34801561046357600080fd5b506102cd610472366004612b30565b6116f7565b6101ae610485366004612a74565b611847565b34801561049657600080fd5b506101ae6104a5366004612b49565b611dcd565b3480156104b657600080fd5b506104ca6104c5366004612b49565b611e2e565b604080519283526020830191909152016101b8565b3480156104eb57600080fd5b506105326104fa366004612b30565b600c6020526000908152604090208054600182015460028301546003840154600490940154929391929091906001600160a01b031685565b6040805195865260208601949094529284019190915260608301526001600160a01b0316608082015260a0016101b8565b34801561056f57600080fd5b506102cd61057e366004612a59565b611e54565b34801561058f57600080fd5b5061026261059e366004612a59565b6007602052600090815260409020546001600160a01b031681565b600354600090859082906105cf6103e887612b89565b6105d99190612bab565b6040516323b872dd60e01b81526001600160a01b03868116600483015230602483015260448201899052919250908316906323b872dd906064016020604051808303816000875af1158015610632573d6000803e3d6000fd5b505050506040513d601f19601f820116820180604052508101906106569190612bca565b50844710156106ac5760405162461bcd60e51b815260206004820152601e60248201527f436f6e74726163743a20496e73756666696369656e742042616c616e6365000060448201526064015b60405180910390fd5b6001600160a01b0384166108fc6106c38388612be7565b6040518115909202916000818181858888f193505050501580156106eb573d6000803e3d6000fd5b50600854600954610709916001600160a01b03908116911683610714565b979650505050505050565b600080546001600160a01b038581168352600760205260408084205486831685528185205491517fbaaa61be000000000000000000000000000000000000000000000000000000008152908316600482015290821660248201528392919091169063baaa61be90604401602060405180830381865afa15801561079b573d6000803e3d6000fd5b505050506040513d601f19601f820116820180604052508101906107bf9190612bfa565b90506305f5e1006107d08285612bab565b6107da9190612b89565b95945050505050565b336000908152600b602052604081205490036108315760405162461bcd60e51b815260206004820152600d60248201526c27b7363c90283937bb34b232b960991b60448201526064016106a3565b336000908152600b60205260409020600301805460ff1916911515919091179055565b336000908152600b6020526040902054156108b15760405162461bcd60e51b815260206004820152600a60248201527f4f6e6c792047756573740000000000000000000000000000000000000000000060448201526064016106a3565b600680549060006108c183612c13565b90915550506040805160a0810182526006548152336000818152600b6020818152858320600181015482870152600281015486880152606086018490529390925281526004909101805484518184028101840190955280855292936080850193909283018282801561095257602002820191906000526020600020905b81548152602001906001019080831161093e575b505050919092525050336000908152600b602090815260409182902083518155838201516001820155918301516002830155606083015160038301805460ff1916911515919091179055608083015180516109b39260048501920190612997565b505050565b6001546001600160a01b03163314610a025760405162461bcd60e51b815260206004820152600d60248201526c27b7363c902232b83637bcb2b960991b60448201526064016106a3565b816002541015610a545760405162461bcd60e51b815260206004820152601460248201527f496e73756666696369656e742042616c616e636500000000000000000000000060448201526064016106a3565b60095460405163a9059cbb60e01b81526001600160a01b038381166004830152602482018590529091169063a9059cbb906044016020604051808303816000875af1158015610aa7573d6000803e3d6000fd5b505050506040513d601f19601f82011682018060405250810190610acb9190612bca565b508160026000828254610ade9190612be7565b90915550505050565b336000908152600b60205260408120549003610b355760405162461bcd60e51b815260206004820152600d60248201526c27b7363c90283937bb34b232b960991b60448201526064016106a3565b6064811015610bab5760405162461bcd60e51b8152602060048201526024808201527f416d6f756e742063616e6e6f74206265206c6573736572207468616e2031303060448201527f205745490000000000000000000000000000000000000000000000000000000060648201526084016106a3565b6008546000838152600a6020526040812060010154909183916001600160a01b03918216911603610d115760643411610c4c5760405162461bcd60e51b815260206004820152602360248201527f4d617469632063616e6e6f74206265206c6573736572207468616e20314f4f2060448201527f574549000000000000000000000000000000000000000000000000000000000060648201526084016106a3565b506000838152600a6020526040902060018101546002909101543491610c7f916001600160a01b03918216911683610714565b6000858152600a6020526040908190206002015490516323b872dd60e01b8152336004820152306024820152604481018390529193506001600160a01b0316906323b872dd906064016020604051808303816000875af1158015610ce7573d6000803e3d6000fd5b505050506040513d601f19601f82011682018060405250810190610d0b9190612bca565b50610e5b565b6000848152600a602052604090206001810154600290910154610d41916001600160a01b03908116911683610714565b6000858152600a6020526040908190206001015490516323b872dd60e01b8152336004820152306024820152604481018490529193506001600160a01b0316906323b872dd906064016020604051808303816000875af1158015610da9573d6000803e3d6000fd5b505050506040513d601f19601f82011682018060405250810190610dcd9190612bca565b506000848152600a6020526040908190206002015490516323b872dd60e01b8152336004820152306024820152604481018490526001600160a01b03909116906323b872dd906064016020604051808303816000875af1158015610e35573d6000803e3d6000fd5b505050506040513d601f19601f82011682018060405250810190610e599190612bca565b505b6000610e678533611f23565b90508015610ec1576000818152600c602052604081206002018054849290610e90908490612c2c565b90915550506000818152600c602052604081206003018054859290610eb6908490612c2c565b90915550610ecd9050565b610ecd8583853361200c565b6000858152600a6020908152604091829020600181015460029091015483516001600160a01b039283168152911691810191909152908101839052606081018490523360808201524260a08201527f461ecd615ea1465ce04ee1aa1810891df016f8b506e515ba3a18bb12f54962e59060c00160405180910390a15050505050565b610f8173c0ec2dca88dbe3c91518958c935ce250c718f0eb733814cf88e2675041504c7d6404f7b8978f8b65b4611dcd565b50610fb473c0ec2dca88dbe3c91518958c935ce250c718f0eb7360d4a61940ac5e59cbdaf05e7f702b26048320bf611dcd565b50610fe673c0ec2dca88dbe3c91518958c935ce250c718f0eb72f5153e9608217dba32c6c706fef5ad97016842611dcd565b5061101973c0ec2dca88dbe3c91518958c935ce250c718f0eb73304379dfa42b7127de0db93bce597bedba18b259611dcd565b5061104c73c0ec2dca88dbe3c91518958c935ce250c718f0eb73d24ac22e0fb3694d0318c9e56e1e99d170a31864611dcd565b5061107f7360d4a61940ac5e59cbdaf05e7f702b26048320bf73d24ac22e0fb3694d0318c9e56e1e99d170a31864611dcd565b506110b17360d4a61940ac5e59cbdaf05e7f702b26048320bf72f5153e9608217dba32c6c706fef5ad97016842611dcd565b506110e372f5153e9608217dba32c6c706fef5ad9701684273d24ac22e0fb3694d0318c9e56e1e99d170a31864611dcd565b5061111572f5153e9608217dba32c6c706fef5ad97016842733814cf88e2675041504c7d6404f7b8978f8b65b4611dcd565b50611148733814cf88e2675041504c7d6404f7b8978f8b65b47360d4a61940ac5e59cbdaf05e7f702b26048320bf611dcd565b50600854611173906001600160a01b031673d24ac22e0fb3694d0318c9e56e1e99d170a31864611dcd565b50565b6001546001600160a01b031633146111c05760405162461bcd60e51b815260206004820152600d60248201526c27b7363c902232b83637bcb2b960991b60448201526064016106a3565b6001600160a01b0381166112165760405162461bcd60e51b815260206004820152601460248201527f496e76616c69642050616972204164647265737300000000000000000000000060448201526064016106a3565b6008805473ffffffffffffffffffffffffffffffffffffffff19166001600160a01b0392909216919091179055565b336000908152600b602052604081205490036112935760405162461bcd60e51b815260206004820152600d60248201526c27b7363c90283937bb34b232b960991b60448201526064016106a3565b6000818152600c60205260409020600401546001600160a01b031633146112fc5760405162461bcd60e51b815260206004820152600c60248201527f556e617574686f72697a6564000000000000000000000000000000000000000060448201526064016106a3565b6000818152600c602090815260408083206001908101548452600a8352818420825160808101845281548152918101546001600160a01b039081168386015260028201541682840152600381018054845181870281018701909552808552929491936060860193909283018282801561139457602002820191906000526020600020905b815481526020019060010190808311611380575b505050919092525050506020818101516040808401516000878152600c9094529281902060020154905163a9059cbb60e01b81523360048201526024810191909152929350916001600160a01b0383169063a9059cbb906044016020604051808303816000875af115801561140d573d6000803e3d6000fd5b505050506040513d601f19601f820116820180604052508101906114319190612bca565b506000848152600c60205260409081902060030154905163a9059cbb60e01b815233600482015260248101919091526001600160a01b0382169063a9059cbb906044016020604051808303816000875af1158015611493573d6000803e3d6000fd5b505050506040513d601f19601f820116820180604052508101906114b79190612bca565b505050600091825250600c602052604081206002810182905560030155565b6001546001600160a01b031633146115205760405162461bcd60e51b815260206004820152600d60248201526c27b7363c902232b83637bcb2b960991b60448201526064016106a3565b600081116115705760405162461bcd60e51b815260206004820152601b60248201527f506c6174666f726d206665652063616e6e6f74206265207a65726f000000000060448201526064016106a3565b6103e881106115c15760405162461bcd60e51b815260206004820181905260248201527f506c6174666f726d206665652063616e6e6f7420626520612068756e6472656460448201526064016106a3565b600355565b6001546001600160a01b031633146116105760405162461bcd60e51b815260206004820152600d60248201526c27b7363c902232b83637bcb2b960991b60448201526064016106a3565b6001600160a01b0382166116665760405162461bcd60e51b815260206004820152601560248201527f496e76616c696420546f6b656e2041646472657373000000000000000000000060448201526064016106a3565b6001600160a01b0381166116bc5760405162461bcd60e51b815260206004820152601460248201527f496e76616c69642050616972204164647265737300000000000000000000000060448201526064016106a3565b6001600160a01b039182166000908152600760205260409020805473ffffffffffffffffffffffffffffffffffffffff191691909216179055565b336000908152600b602052604081205490036117455760405162461bcd60e51b815260206004820152600d60248201526c27b7363c90283937bb34b232b960991b60448201526064016106a3565b336000908152600b60205260409020600201548111156117a75760405162461bcd60e51b815260206004820152601460248201527f496e73756666696369656e742042616c616e636500000000000000000000000060448201526064016106a3565b60095460405163a9059cbb60e01b8152336004820152602481018390526001600160a01b039091169063a9059cbb906044016020604051808303816000875af11580156117f8573d6000803e3d6000fd5b505050506040513d601f19601f8201168201806040525081019061181c9190612bca565b50336000908152600b60205260408120600201805483929061183f908490612be7565b909155505050565b600060648210156118c05760405162461bcd60e51b815260206004820152602c60248201527f416d6f756e7420746f20737761702063616e6e6f74206265206c65737365722060448201527f7468616e2031303020574549000000000000000000000000000000000000000060648201526084016106a3565b600082816118ce87876120ed565b6000818152600a602052604090205490915061192c5760405162461bcd60e51b815260206004820152601460248201527f506f6f6c20646f6573206e6f742065786973747300000000000000000000000060448201526064016106a3565b6008546000828152600a60205260409020600101546001600160a01b03918216911603611aef576008546000828152600a6020526040902060020154349350611982916001600160a01b03908116911684610714565b9250600061198f8261222b565b915050838110156119e25760405162461bcd60e51b815260206004820152601660248201527f496e73756666696369656e7420506f6f6c2053697a650000000000000000000060448201526064016106a3565b6000828152600a6020526040812060020154611a08906001600160a01b031686336122df565b905060006064611a19836050612bab565b611a239190612b89565b9050611a2f8183612be7565b60026000828254611a409190612c2c565b90915550506000848152600a602090815260409182902082516080810184528154815260018201546001600160a01b039081168285015260028301541681850152600382018054855181860281018601909652808652611ae7958b958d958b95949093606086019392830182828015611ad857602002820191906000526020600020905b815481526020019060010190808311611ac4575b505050505081525050856123c5565b505050611d6c565b6008546000828152600a60205260409020600201546001600160a01b03918216911603611bc9576000818152600a6020526040902060010154600854611b42916001600160a01b03908116911684610714565b92506000611b4f8261222b565b50905083811015611ba25760405162461bcd60e51b815260206004820152601660248201527f496e73756666696369656e7420506f6f6c2053697a650000000000000000000060448201526064016106a3565b6000828152600a6020526040812060010154611a08906001600160a01b03168587336105b9565b6000818152600a602052604090206001810154600290910154611bf9916001600160a01b03908116911684610714565b92506000611c068261222b565b91505083811015611c595760405162461bcd60e51b815260206004820152601660248201527f496e73756666696369656e7420506f6f6c2053697a650000000000000000000060448201526064016106a3565b6000828152600a602052604081206001810154600290910154611c8b916001600160a01b0390811691168688336125b7565b905060006064611c9c836050612bab565b611ca69190612b89565b9050611cb28183612be7565b60026000828254611cc39190612c2c565b90915550506000848152600a602090815260409182902082516080810184528154815260018201546001600160a01b039081168285015260028301541681850152600382018054855181860281018601909652808652611d68958b958d958b95949093606086019392830182828015611ad85760200282019190600052602060002090815481526020019060010190808311611ac457505050505081525050856123c5565b5050505b60408051868152602081018590526001600160a01b03898116828401528816606082015242608082015290517f649451cb6bd28801e8992e83f834233301eb39b64a665a45b1e08d3e13ff679a9181900360a00190a1509095945050505050565b336000908152600b60205260408120548103611e1b5760405162461bcd60e51b815260206004820152600d60248201526c27b7363c90283937bb34b232b960991b60448201526064016106a3565b611e25838361271e565b90505b92915050565b6000806000611e3d85856120ed565b9050611e488161222b565b92509250509250929050565b6001546001600160a01b03163314611e9e5760405162461bcd60e51b815260206004820152600d60248201526c27b7363c902232b83637bcb2b960991b60448201526064016106a3565b6001600160a01b038116611ef45760405162461bcd60e51b815260206004820152601460248201527f496e76616c69642050616972204164647265737300000000000000000000000060448201526064016106a3565b6009805473ffffffffffffffffffffffffffffffffffffffff19166001600160a01b0392909216919091179055565b6001600160a01b0381166000908152600b6020908152604080832060040180548251818502810185019093528083528493830182828015611f8357602002820191906000526020600020905b815481526020019060010190808311611f6f575b5050505050905060005b81518110156120015784600c6000848481518110611fad57611fad612c3f565b602002602001015181526020019081526020016000206001015403611fef57818181518110611fde57611fde612c3f565b602002602001015192505050611e28565b80611ff981612c13565b915050611f8d565b506000949350505050565b6005805490600061201c83612c13565b90915550506040805160a081018252600580548083526020808401898152848601988952606085019788526001600160a01b03968716608086018181526000948552600c845287852096518755915160018088019190915599516002870155975160038087019190915590516004958601805473ffffffffffffffffffffffffffffffffffffffff19169190981617909655978152600a885283812082549501805480890182559082528882200194909455938352600b865290822092549201805493840181558152929092200155565b60006001600160a01b0383161580159061210f57506001600160a01b03821615155b61215b5760405162461bcd60e51b815260206004820152601360248201527f496e76616c696420506f6f6c20546f6b656e730000000000000000000000000060448201526064016106a3565b60005b6004548111612221576000818152600a60205260409020600101546001600160a01b0385811691161480156121af57506000818152600a60205260409020600201546001600160a01b038481169116145b156121bb579050611e28565b6000818152600a60205260409020600101546001600160a01b03848116911614801561220357506000818152600a60205260409020600201546001600160a01b038581169116145b1561220f579050611e28565b8061221981612c13565b91505061215e565b5060009392505050565b60008060008060005b6000868152600a60205260409020600301548110156122d4576000868152600a6020526040812060030180548390811061227057612270612c3f565b90600052602060002001549050600c6000828152602001908152602001600020600201548461229f9190612c2c565b6000828152600c60205260409020600301549094506122be9084612c2c565b92505080806122cc90612c13565b915050612234565b509094909350915050565b600354600090849082906122f56103e887612b89565b6122ff9190612bab565b90506001600160a01b03821663a9059cbb8561231b8489612be7565b6040517fffffffff0000000000000000000000000000000000000000000000000000000060e085901b1681526001600160a01b03909216600483015260248201526044016020604051808303816000875af115801561237e573d6000803e3d6000fd5b505050506040513d601f19601f820116820180604052508101906123a29190612bca565b506009546123bb9087906001600160a01b031683610714565b9695505050505050565b60005b8260600151518110156125af576000836060015182815181106123ed576123ed612c3f565b6020026020010151905060008588600c60008581526020019081526020016000206003015461241c9190612bab565b6124269190612b89565b905080600c6000848152602001908152602001600020600201600082825461244e9190612c2c565b90915550506000828152600c60205260408120600301548790612472908a90612bab565b61247c9190612b89565b905080600c600085815260200190815260200160002060030160008282546124a49190612be7565b90915550506000838152600c602052604081206003015488906124c8908890612bab565b6124d29190612b89565b6000858152600c60209081526040808320600401546001600160a01b0316808452600b909252822060010180549394509092849290612512908490612c2c565b90915550506001600160a01b0381166000908152600b602052604081206002018054849290612542908490612c2c565b90915550506001600160a01b0381166000908152600b602052604090206003015460ff16801561259657506125776001612983565b6001600160a01b0382166000908152600b602052604090206002015410155b50505050505080806125a790612c13565b9150506123c8565b505050505050565b6003546000908690869083906125cf6103e888612b89565b6125d99190612bab565b6040516323b872dd60e01b81526001600160a01b038781166004830152306024830152604482018a9052919250908416906323b872dd906064016020604051808303816000875af1158015612632573d6000803e3d6000fd5b505050506040513d601f19601f820116820180604052508101906126569190612bca565b506001600160a01b03821663a9059cbb86612671848a612be7565b6040517fffffffff0000000000000000000000000000000000000000000000000000000060e085901b1681526001600160a01b03909216600483015260248201526044016020604051808303816000875af11580156126d4573d6000803e3d6000fd5b505050506040513d601f19601f820116820180604052508101906126f89190612bca565b506009546127119089906001600160a01b031683610714565b9998505050505050505050565b6001600160a01b038281166000908152600760205260408120549091166127935760405162461bcd60e51b815260206004820152602360248201527f5061697220646f6573206e6f74206578697374732c20436f6e7461637420616460448201526236b4b760e91b60648201526084016106a3565b6001600160a01b03828116600090815260076020526040902054166128065760405162461bcd60e51b815260206004820152602360248201527f5061697220646f6573206e6f74206578697374732c20436f6e7461637420616460448201526236b4b760e91b60648201526084016106a3565b600061281284846120ed565b1580159150612825576000915050611e28565b6004805490600061283583612c13565b90915550506004546000908152600a6020908152604080832081516080810183528154815260018201546001600160a01b0390811682860152600283015416818401526003820180548451818702810187019095528085529194929360608601939092908301828280156128c857602002820191906000526020600020905b8154815260200190600101908083116128b4575b505050919092525050604080516080810182526004548082526001600160a01b03808b1660208085019182528b83168587019081526060808a01519087019081526000958652600a83529690942085518155915160018301805491851673ffffffffffffffffffffffffffffffffffffffff1992831617905593516002830180549190941694169390931790915592518051959650919492935061297492600385019290910190612997565b50506004549695505050505050565b6000611e2882670de0b6b3a7640000612bab565b8280548282559060005260206000209081019282156129d2579160200282015b828111156129d25782518255916020019190600101906129b7565b506129de9291506129e2565b5090565b5b808211156129de57600081556001016129e3565b80356001600160a01b0381168114612a0e57600080fd5b919050565b60008060008060808587031215612a2957600080fd5b612a32856129f7565b93506020850135925060408501359150612a4e606086016129f7565b905092959194509250565b600060208284031215612a6b57600080fd5b611e25826129f7565b600080600060608486031215612a8957600080fd5b612a92846129f7565b9250612aa0602085016129f7565b9150604084013590509250925092565b801515811461117357600080fd5b600060208284031215612ad057600080fd5b8135612adb81612ab0565b9392505050565b60008060408385031215612af557600080fd5b82359150612b05602084016129f7565b90509250929050565b60008060408385031215612b2157600080fd5b50508035926020909101359150565b600060208284031215612b4257600080fd5b5035919050565b60008060408385031215612b5c57600080fd5b612b65836129f7565b9150612b05602084016129f7565b634e487b7160e01b600052601160045260246000fd5b600082612ba657634e487b7160e01b600052601260045260246000fd5b500490565b6000816000190483118215151615612bc557612bc5612b73565b500290565b600060208284031215612bdc57600080fd5b8151612adb81612ab0565b81810381811115611e2857611e28612b73565b600060208284031215612c0c57600080fd5b5051919050565b600060018201612c2557612c25612b73565b5060010190565b80820180821115611e2857611e28612b73565b634e487b7160e01b600052603260045260246000fdfea2646970667358221220296130234434c5daeb1b5927c87841ed84c4c775f601f09ed409f400e76aff5464736f6c63430008100033",
    "immutableReferences": {},
    "source": "// SPDX-License-Identifier: GPL-3.0\npragma solidity >=0.7.0 <0.9.0;\n\nimport {PriceApi} from \"./PriceApi.sol\";\nimport {IERC20} from \"@openzeppelin/contracts/token/ERC20/IERC20.sol\";\n\n// import {xUSDT} from \"./xend/XUSDT.sol\";\n\ncontract Swap {\n    PriceApi private _priceApi;\n\n    // contract admin\n    address private _deployer;\n    uint256 private _platformProfit;\n\n    // charges 0.25% fee on every successful swaps\n    uint private swapFee = 25;\n\n    // ids to avoid conflicts\n    uint256 private POOL_ID;\n    uint256 private LIQUID_ID;\n    uint256 private PROVIDER_ID;\n\n    // token contract address => chainlink aggregrator address\n    // only in the token paired to USD format\n    mapping(address => address) public pairs;\n\n    // is a member of the pairs mapping\n    // but its the native pair MATIC not IERC20\n    address public NATIVE_PAIR;\n    // paired address to USDT\n    address public USDT_PAIR;\n\n    // id => liquidity pools\n    mapping(uint => Pool) public pools;\n    // user address => provider data\n    mapping(address => Provider) public providers;\n    // id => liquids\n    mapping(uint => Liquid) public liquids;\n\n    // === Events === //\n\n    event LiquidProvided(\n        address token0,\n        address token1,\n        uint256 amount0,\n        uint256 amount1,\n        address provider,\n        uint timestamp\n    );\n\n    event FleepSwaped(\n        uint256 amount,\n        uint256 amountOut,\n        address from,\n        address to,\n        uint timestamp\n    );\n\n    // === Structs === //\n\n    // pool consists of liquids\n    // from n numbers providers\n    struct Pool {\n        uint id;\n        address token0;\n        address token1;\n        uint[] liquids;\n    }\n\n    // liquid belongs to a provider\n    // also belongs to a pool\n    struct Liquid {\n        uint id;\n        uint poolId;\n        uint256 amount0;\n        uint256 amount1;\n        address provider;\n    }\n\n    // provider properties\n    // owns n numbers of liquids\n    struct Provider {\n        uint id;\n        uint256 totalEarned;\n        uint256 balance;\n        bool autoStake;\n        uint[] liquids;\n    }\n\n    constructor(address priceApI) {\n        _priceApi = PriceApi(priceApI);\n        _deployer = msg.sender;\n\n        testnetHelper();\n    }\n\n    // calculates all the size of the liquids\n    // in a pool of token pair\n    function getPoolSize(\n        address token0,\n        address token1\n    ) public view returns (uint256, uint256) {\n        uint poolId = _findPool(token0, token1);\n        return _poolSize(poolId);\n    }\n\n    // gets the exchanges rates for pair of tokens\n    // with accordance to amount of tokens\n    function estimate(\n        address token0,\n        address token1,\n        uint256 amount0 // in wei\n    ) public view returns (uint256) {\n        int256 rate = _priceApi.getExchangeRate(pairs[token0], pairs[token1]);\n        return (amount0 * uint256(rate)) / (10 ** 8);\n    }\n\n    // returns the contract address\n    function getContractAddress() public view returns (address) {\n        return address(this);\n    }\n\n    // returns the pair address for $MATIC\n    function getNativePair() public view returns (address) {\n        return NATIVE_PAIR;\n    }\n\n    // returns the pair address for $USDT\n    function getUSDTPair() public view returns (address) {\n        return USDT_PAIR;\n    }\n\n    // register as a provider\n    function unlockedProviderAccount() public onlyGuest {\n        // create new unique id\n        PROVIDER_ID++;\n\n        // provider with default entries\n        providers[msg.sender] = Provider(\n            PROVIDER_ID,\n            providers[msg.sender].totalEarned,\n            providers[msg.sender].balance,\n            false,\n            providers[msg.sender].liquids\n        );\n    }\n\n    // === Swapping === //\n\n    function swap(\n        address token0,\n        address token1,\n        uint256 amount0\n    ) public payable returns (uint256) {\n        require(amount0 >= 100, \"Amount to swap cannot be lesser than 100 WEI\");\n\n        uint256 amount1;\n        uint256 _safeAmount0 = amount0;\n\n        uint poolId = _findPool(token0, token1);\n        require(pools[poolId].id > 0, \"Pool does not exists\");\n\n        // MATIC => ERC20\n        if (pools[poolId].token0 == NATIVE_PAIR) {\n            _safeAmount0 = msg.value;\n            amount1 = estimate(NATIVE_PAIR, pools[poolId].token1, _safeAmount0);\n\n            // check if contract has enough destination token liquid\n            (, uint256 poolSizeToken1) = _poolSize(poolId);\n            require(poolSizeToken1 >= amount1, \"Insufficient Pool Size\");\n\n            uint256 fee = _transferSwappedTokens0(\n                pools[poolId].token1,\n                amount1,\n                msg.sender\n            );\n\n            uint256 providersReward = ((fee * 80) / 100);\n            _platformProfit += (fee - providersReward);\n\n            _aggregateLiquids(\n                _safeAmount0,\n                amount1,\n                poolSizeToken1,\n                pools[poolId],\n                providersReward\n            );\n        }\n        // ERC20 => MATIC\n        else if (pools[poolId].token1 == NATIVE_PAIR) {\n            amount1 = estimate(pools[poolId].token0, NATIVE_PAIR, _safeAmount0);\n\n            // check if contract has enough destination token liquid\n            (uint256 poolSizeToken1, ) = _poolSize(poolId);\n            require(poolSizeToken1 >= amount1, \"Insufficient Pool Size\");\n\n            uint256 fee = _transferSwappedTokens1(\n                pools[poolId].token0,\n                _safeAmount0,\n                amount1,\n                msg.sender\n            );\n\n            uint256 providersReward = ((fee * 80) / 100);\n            _platformProfit += (fee - providersReward);\n\n            _aggregateLiquids(\n                _safeAmount0,\n                amount1,\n                poolSizeToken1,\n                pools[poolId],\n                providersReward\n            );\n        }\n        // ERC0 => ERC2O\n        else {\n            amount1 = estimate(\n                pools[poolId].token0,\n                pools[poolId].token1,\n                _safeAmount0\n            );\n\n            // check if contract has enough destination token liquid\n            (, uint256 poolSizeToken1) = _poolSize(poolId);\n            require(poolSizeToken1 >= amount1, \"Insufficient Pool Size\");\n\n            uint256 fee = _transferSwappedTokens2(\n                pools[poolId].token0,\n                pools[poolId].token1,\n                _safeAmount0,\n                amount1,\n                msg.sender\n            );\n\n            uint256 providersReward = ((fee * 80) / 100);\n            _platformProfit += (fee - providersReward);\n\n            _aggregateLiquids(\n                _safeAmount0,\n                amount1,\n                poolSizeToken1,\n                pools[poolId],\n                providersReward\n            );\n        }\n\n        // store the swap data on-chain\n        emit FleepSwaped(amount0, amount1, token0, token1, block.timestamp);\n\n        return amount1;\n    }\n\n    // === Providers === //\n\n    function provideLiquidity(\n        uint poolId,\n        uint256 amount0\n    ) public payable onlyProvider {\n        require(amount0 >= 100, \"Amount cannot be lesser than 100 WEI\");\n\n        uint256 amount1;\n        uint256 _safeAmount0 = amount0;\n\n        if (pools[poolId].token0 == NATIVE_PAIR) {\n            require(msg.value > 100, \"Matic cannot be lesser than 1OO WEI\");\n            // only in format of MATIC as pair subject\n            // ex MATIC/XEND\n\n            _safeAmount0 = msg.value;\n            // get the estimate for token1\n            amount1 = estimate(\n                pools[poolId].token0,\n                pools[poolId].token1,\n                _safeAmount0\n            );\n            // stake token1 to smart contract\n            IERC20(pools[poolId].token1).transferFrom(\n                msg.sender,\n                address(this),\n                amount1\n            );\n        } else {\n            // get the estimate for token1\n            amount1 = estimate(\n                pools[poolId].token0,\n                pools[poolId].token1,\n                _safeAmount0\n            );\n            // stake tokens to smart contract\n            IERC20(pools[poolId].token0).transferFrom(\n                msg.sender,\n                address(this),\n                _safeAmount0\n            );\n            IERC20(pools[poolId].token1).transferFrom(\n                msg.sender,\n                address(this),\n                amount1\n            );\n        }\n\n        uint liquidId = _liquidIndex(poolId, msg.sender);\n\n        if (liquidId > 0) {\n            // if liquid exist increment the amount\n            liquids[liquidId].amount0 += _safeAmount0;\n            liquids[liquidId].amount1 += amount1;\n        } else {\n            // otherwise create the new liquid\n            _createLiquid(poolId, _safeAmount0, amount1, msg.sender);\n        }\n\n        // store the liquidity data on-chain\n        emit LiquidProvided(\n            pools[poolId].token0,\n            pools[poolId].token1,\n            _safeAmount0,\n            amount1,\n            msg.sender,\n            block.timestamp\n        );\n    }\n\n    function removeLiquidity(uint id) public onlyProvider {\n        require(liquids[id].provider == msg.sender, \"Unauthorized\");\n\n        Pool memory pool = pools[liquids[id].poolId];\n        IERC20 token0 = IERC20(pool.token0);\n        IERC20 token1 = IERC20(pool.token1);\n\n        token0.transfer(msg.sender, liquids[id].amount0);\n        token1.transfer(msg.sender, liquids[id].amount1);\n\n        // delete liquid TO DO\n        liquids[id].amount0 = 0;\n        liquids[id].amount1 = 0;\n    }\n\n    function createPool(\n        address token0,\n        address token1\n    ) public onlyProvider returns (uint) {\n        return _createPool(token0, token1);\n    }\n\n    function updateProviderProfile(bool _autoStake) public onlyProvider {\n        providers[msg.sender].autoStake = _autoStake;\n    }\n\n    function withDrawEarnings(uint256 amount) public onlyProvider {\n        require(\n            providers[msg.sender].balance >= amount,\n            \"Insufficient Balance\"\n        );\n\n        // USDT as reward token\n        IERC20(USDT_PAIR).transfer(msg.sender, amount);\n\n        providers[msg.sender].balance -= amount;\n    }\n\n    // === Administration === //\n\n    function updateNativePair(address pair) public onlyDeployer {\n        require(pair != address(0), \"Invalid Pair Address\");\n        NATIVE_PAIR = pair;\n    }\n\n    function updateUSDTPair(address pair) public onlyDeployer {\n        require(pair != address(0), \"Invalid Pair Address\");\n        USDT_PAIR = pair;\n    }\n\n    function updateSwapFee(uint fee) public onlyDeployer {\n        require(fee > 0, \"Platform fee cannot be zero\");\n        require(fee < 1000, \"Platform fee cannot be a hundred\");\n        swapFee = fee;\n    }\n\n    function createPair(address token, address pair) public onlyDeployer {\n        require(token != address(0), \"Invalid Token Address\");\n        require(pair != address(0), \"Invalid Pair Address\");\n        pairs[token] = pair;\n    }\n\n    function withDrawPlaformEarnings(\n        uint256 amount,\n        address receiver\n    ) public onlyDeployer {\n        require(_platformProfit >= amount, \"Insufficient Balance\");\n\n        // USDT as reward token\n        IERC20(USDT_PAIR).transfer(receiver, amount);\n\n        _platformProfit -= amount;\n    }\n\n    // === Internal Functions === //\n\n    function _liquidIndex(\n        uint poolId,\n        address provider\n    ) private view returns (uint) {\n        uint256[] memory providerLiquids = providers[provider].liquids;\n\n        for (uint index = 0; index < providerLiquids.length; index++) {\n            if (liquids[providerLiquids[index]].poolId == poolId) {\n                return providerLiquids[index];\n            }\n        }\n\n        return 0;\n    }\n\n    function _aggregateLiquids(\n        uint256 amount0,\n        uint256 amount1,\n        uint256 poolSizeToken1,\n        Pool memory pool,\n        uint256 fee\n    ) private {\n        // equally share swap impact on all provider liquids based on their contribution\n        for (uint index = 0; index < pool.liquids.length; index++) {\n            uint liquidId = pool.liquids[index];\n\n            // calculated with ratio of this liquid compared\n            // to other liquids contributing\n            uint256 additionAmount = ((liquids[liquidId].amount1 * amount0) /\n                poolSizeToken1);\n\n            // step I\n            liquids[liquidId].amount0 += additionAmount;\n\n            // calculated with ratio of this liquid compared\n            // to other liquids contributing\n            uint256 deductionAmount = ((liquids[liquidId].amount1 * amount1) /\n                poolSizeToken1);\n\n            // step II\n            liquids[liquidId].amount1 -= deductionAmount;\n\n            // reward the liquid provider\n            uint256 reward = ((liquids[liquidId].amount1 * fee) /\n                poolSizeToken1);\n\n            address provider = liquids[liquidId].provider;\n\n            providers[provider].totalEarned += reward;\n            providers[provider].balance += reward;\n\n            // if provider is auto staking rewards in XEND vault\n            // and their balance is at least 1 MATIC\n            if (\n                providers[provider].autoStake &&\n                providers[provider].balance >= _inWei(1)\n            ) {\n\n            }\n        }\n    }\n\n    // MATIC => ERC20\n    function _transferSwappedTokens0(\n        address token1,\n        uint256 amount1,\n        address owner\n    ) private returns (uint256) {\n        IERC20 quoteToken = IERC20(token1);\n\n        uint256 _fee = ((amount1 / 1000) * swapFee);\n\n        // give user their destination token minus fee\n        quoteToken.transfer(owner, (amount1 - _fee));\n\n        // convert fee to USDT\n        return estimate(token1, USDT_PAIR, _fee);\n    }\n\n    // ERC20 => MATIC\n    function _transferSwappedTokens1(\n        address token0,\n        uint256 amount0,\n        uint256 amount1,\n        address owner\n    ) public payable returns (uint256) {\n        IERC20 baseToken = IERC20(token0);\n\n        uint256 _fee = ((amount1 / 1000) * swapFee);\n\n        baseToken.transferFrom(owner, address(this), amount0);\n\n        // give user their destination token minus fee\n        require(\n            address(this).balance >= amount1,\n            \"Contract: Insufficient Balance\"\n        );\n        payable(owner).transfer(amount1 - _fee);\n\n        // convert fee to USDT\n        return estimate(NATIVE_PAIR, USDT_PAIR, _fee);\n    }\n\n    // ERC20 => ERC20\n    function _transferSwappedTokens2(\n        address token0,\n        address token1,\n        uint256 amount0,\n        uint256 amount1,\n        address owner\n    ) private returns (uint256) {\n        IERC20 baseToken = IERC20(token0);\n        IERC20 quoteToken = IERC20(token1);\n\n        uint256 _fee = ((amount1 / 1000) * swapFee);\n\n        // tranfers the base token from user to the\n        // smart contract\n        baseToken.transferFrom(owner, address(this), amount0);\n\n        // give user their destination token minus fee\n        quoteToken.transfer(owner, (amount1 - _fee));\n\n        // convert fee to USDT\n        return estimate(token1, USDT_PAIR, _fee);\n    }\n\n    function _inWei(uint256 amount) private pure returns (uint256) {\n        return amount * 10 ** 18;\n    }\n\n    function _findPool(\n        address token0,\n        address token1\n    ) private view returns (uint) {\n        require(\n            token0 != address(0) && token1 != address(0),\n            \"Invalid Pool Tokens\"\n        );\n        for (uint index = 0; index <= POOL_ID; index++) {\n            // patern A\n            if (\n                pools[index].token0 == token0 && pools[index].token1 == token1\n            ) {\n                return index;\n            }\n\n            // pattern B\n            if (\n                pools[index].token0 == token1 && pools[index].token1 == token0\n            ) {\n                return index;\n            }\n        }\n        return 0;\n    }\n\n    function _createLiquid(\n        uint poolId,\n        uint256 amount0,\n        uint256 amount1,\n        address provider\n    ) private {\n        LIQUID_ID++;\n        // create the liquid\n        liquids[LIQUID_ID] = Liquid(\n            LIQUID_ID,\n            poolId,\n            amount0,\n            amount1,\n            provider\n        );\n        // register the liquid\n        pools[poolId].liquids.push(LIQUID_ID);\n        providers[provider].liquids.push(LIQUID_ID);\n    }\n\n    function _poolSize(uint id) private view returns (uint256, uint256) {\n        uint256 amount0;\n        uint256 amount1;\n        for (uint index = 0; index < pools[id].liquids.length; index++) {\n            uint liquidId = pools[id].liquids[index];\n            amount0 += liquids[liquidId].amount0;\n            amount1 += liquids[liquidId].amount1;\n        }\n        return (amount0, amount1);\n    }\n\n    function _createPool(\n        address token0,\n        address token1\n    ) private returns (uint) {\n        require(\n            pairs[token0] != address(0),\n            \"Pair does not exists, Contact admin\"\n        );\n        require(\n            pairs[token1] != address(0),\n            \"Pair does not exists, Contact admin\"\n        );\n\n        bool exists = _findPool(token0, token1) != 0;\n        if (exists) return 0;\n\n        POOL_ID++;\n        Pool memory pool = pools[POOL_ID];\n\n        pools[POOL_ID] = Pool(POOL_ID, token0, token1, pool.liquids);\n\n        return POOL_ID;\n    }\n\n    // calls in the constructor\n    function testnetHelper() private onlyDeployer {\n        updateNativePair(0xd0D5e3DB44DE05E9F294BB0a3bEEaF030DE24Ada);\n        updateUSDTPair(0xd24ac22e0Fb3694D0318c9e56E1E99D170a31864);\n\n        // WBTC\n        createPair(\n            0xc0EC2DCA88Dbe3C91518958C935Ce250c718f0EB,\n            0x007A22900a3B98143368Bd5906f8E17e9867581b\n        );\n\n        // DAI\n        createPair(\n            0x3814CF88e2675041504C7d6404f7b8978F8B65B4,\n            0x0FCAa9c899EC5A91eBc3D5Dd869De833b06fB046\n        );\n\n        // WETH\n        createPair(\n            0x60D4A61940Ac5e59cbdaF05E7F702B26048320bF,\n            0x0715A7794a1dc8e42615F059dD6e406A6594651A\n        );\n\n        // MATIC\n        createPair(NATIVE_PAIR, NATIVE_PAIR);\n\n        // SAND\n        createPair(\n            0x00F5153e9608217DBa32C6C706fef5aD97016842,\n            0x9dd18534b8f456557d11B9DDB14dA89b2e52e308\n        );\n\n        // USDC\n        createPair(\n            0x304379DfA42B7127DE0db93Bce597bEdba18b259,\n            0x572dDec9087154dC5dfBB1546Bb62713147e0Ab0\n        );\n\n        // USDT\n        createPair(\n            0xd24ac22e0Fb3694D0318c9e56E1E99D170a31864,\n            0x92C09849638959196E976289418e5973CC96d645\n        );\n    }\n\n    // called by any provider\n    function testnetHelper2() public {\n        createPool(\n            0xc0EC2DCA88Dbe3C91518958C935Ce250c718f0EB,\n            0x3814CF88e2675041504C7d6404f7b8978F8B65B4\n        ); // WBTC => DAI : 1\n        createPool(\n            0xc0EC2DCA88Dbe3C91518958C935Ce250c718f0EB,\n            0x60D4A61940Ac5e59cbdaF05E7F702B26048320bF\n        ); // WBTC => WETH : 2\n        createPool(\n            0xc0EC2DCA88Dbe3C91518958C935Ce250c718f0EB,\n            0x00F5153e9608217DBa32C6C706fef5aD97016842\n        ); // WBTC => SAND : 3\n        createPool(\n            0xc0EC2DCA88Dbe3C91518958C935Ce250c718f0EB,\n            0x304379DfA42B7127DE0db93Bce597bEdba18b259\n        ); // WBTC => USDC : 4\n        createPool(\n            0xc0EC2DCA88Dbe3C91518958C935Ce250c718f0EB,\n            0xd24ac22e0Fb3694D0318c9e56E1E99D170a31864\n        ); // WBTC => USDT : 5\n        createPool(\n            0x60D4A61940Ac5e59cbdaF05E7F702B26048320bF,\n            0xd24ac22e0Fb3694D0318c9e56E1E99D170a31864\n        ); // WETH => USDT : 6\n        createPool(\n            0x60D4A61940Ac5e59cbdaF05E7F702B26048320bF,\n            0x00F5153e9608217DBa32C6C706fef5aD97016842\n        ); // WETH => SAND : 7\n        createPool(\n            0x00F5153e9608217DBa32C6C706fef5aD97016842,\n            0xd24ac22e0Fb3694D0318c9e56E1E99D170a31864\n        ); // SAND => USDT : 8\n        createPool(\n            0x00F5153e9608217DBa32C6C706fef5aD97016842,\n            0x3814CF88e2675041504C7d6404f7b8978F8B65B4\n        ); // SAND => DAI : 9\n        createPool(\n            0x3814CF88e2675041504C7d6404f7b8978F8B65B4,\n            0x60D4A61940Ac5e59cbdaF05E7F702B26048320bF\n        ); // DAI => WETH : 10\n        createPool(NATIVE_PAIR, 0xd24ac22e0Fb3694D0318c9e56E1E99D170a31864); // MATIC => USDT : 11\n    }\n\n    // === Modifiers === //\n\n    modifier onlyGuest() {\n        require(providers[msg.sender].id == 0, \"Only Guest\");\n        _;\n    }\n\n    modifier onlyProvider() {\n        require(providers[msg.sender].id != 0, \"Only Provider\");\n        _;\n    }\n\n    modifier onlyDeployer() {\n        require(msg.sender == _deployer, \"Only Deployer\");\n        _;\n    }\n}\n",
    "sourcePath": "C:\\Users\\Arogundade Ibrahim\\Documents\\web3\\fleep\\contracts\\Swap.sol",
    "compiler": {
        "name": "solc",
        "version": "0.8.16+commit.07a7930e.Emscripten.clang"
    },
    "schemaVersion": "3.4.10",
    "updatedAt": "2022-12-02T08:00:22.281Z",
    "devdoc": {
        "kind": "dev",
        "methods": {},
        "version": 1
    },
    "userdoc": {
        "kind": "user",
        "methods": {},
        "version": 1
    }
}