{
  "contractName": "Swap",
  "abi": [
    {
      "inputs": [
        {
          "internalType": "address",
          "name": "priceApI",
          "type": "address"
        }
      ],
      "stateMutability": "nonpayable",
      "type": "constructor"
    },
    {
      "inputs": [],
      "name": "FLEEP_PAIR",
      "outputs": [
        {
          "internalType": "address",
          "name": "",
          "type": "address"
        }
      ],
      "stateMutability": "view",
      "type": "function"
    },
    {
      "inputs": [],
      "name": "NATIVE_PAIR",
      "outputs": [
        {
          "internalType": "address",
          "name": "",
          "type": "address"
        }
      ],
      "stateMutability": "view",
      "type": "function"
    },
    {
      "inputs": [],
      "name": "USDT_PAIR",
      "outputs": [
        {
          "internalType": "address",
          "name": "",
          "type": "address"
        }
      ],
      "stateMutability": "view",
      "type": "function"
    },
    {
      "inputs": [
        {
          "internalType": "uint256",
          "name": "",
          "type": "uint256"
        }
      ],
      "name": "liquids",
      "outputs": [
        {
          "internalType": "uint256",
          "name": "id",
          "type": "uint256"
        },
        {
          "internalType": "uint256",
          "name": "poolId",
          "type": "uint256"
        },
        {
          "internalType": "uint256",
          "name": "amount0",
          "type": "uint256"
        },
        {
          "internalType": "uint256",
          "name": "amount1",
          "type": "uint256"
        },
        {
          "internalType": "address",
          "name": "provider",
          "type": "address"
        }
      ],
      "stateMutability": "view",
      "type": "function"
    },
    {
      "inputs": [
        {
          "internalType": "address",
          "name": "",
          "type": "address"
        }
      ],
      "name": "pairs",
      "outputs": [
        {
          "internalType": "address",
          "name": "",
          "type": "address"
        }
      ],
      "stateMutability": "view",
      "type": "function"
    },
    {
      "inputs": [
        {
          "internalType": "uint256",
          "name": "",
          "type": "uint256"
        }
      ],
      "name": "pools",
      "outputs": [
        {
          "internalType": "uint256",
          "name": "id",
          "type": "uint256"
        },
        {
          "internalType": "address",
          "name": "token0",
          "type": "address"
        },
        {
          "internalType": "address",
          "name": "token1",
          "type": "address"
        }
      ],
      "stateMutability": "view",
      "type": "function"
    },
    {
      "inputs": [
        {
          "internalType": "address",
          "name": "",
          "type": "address"
        }
      ],
      "name": "providers",
      "outputs": [
        {
          "internalType": "uint256",
          "name": "id",
          "type": "uint256"
        },
        {
          "internalType": "uint256",
          "name": "totalEarned",
          "type": "uint256"
        },
        {
          "internalType": "uint256",
          "name": "balance",
          "type": "uint256"
        },
        {
          "internalType": "bool",
          "name": "autoStake",
          "type": "bool"
        }
      ],
      "stateMutability": "view",
      "type": "function"
    },
    {
      "inputs": [
        {
          "internalType": "address",
          "name": "token0",
          "type": "address"
        },
        {
          "internalType": "address",
          "name": "token1",
          "type": "address"
        }
      ],
      "name": "getPoolSize",
      "outputs": [
        {
          "internalType": "uint256",
          "name": "",
          "type": "uint256"
        },
        {
          "internalType": "uint256",
          "name": "",
          "type": "uint256"
        }
      ],
      "stateMutability": "view",
      "type": "function"
    },
    {
      "inputs": [
        {
          "internalType": "address",
          "name": "token0",
          "type": "address"
        },
        {
          "internalType": "address",
          "name": "token1",
          "type": "address"
        },
        {
          "internalType": "uint256",
          "name": "amount0",
          "type": "uint256"
        }
      ],
      "name": "estimate",
      "outputs": [
        {
          "internalType": "uint256",
          "name": "",
          "type": "uint256"
        }
      ],
      "stateMutability": "view",
      "type": "function"
    },
    {
      "inputs": [],
      "name": "getContractAddress",
      "outputs": [
        {
          "internalType": "address",
          "name": "",
          "type": "address"
        }
      ],
      "stateMutability": "view",
      "type": "function"
    },
    {
      "inputs": [],
      "name": "getNativePair",
      "outputs": [
        {
          "internalType": "address",
          "name": "",
          "type": "address"
        }
      ],
      "stateMutability": "view",
      "type": "function"
    },
    {
      "inputs": [],
      "name": "getUSDTPair",
      "outputs": [
        {
          "internalType": "address",
          "name": "",
          "type": "address"
        }
      ],
      "stateMutability": "view",
      "type": "function"
    },
    {
      "inputs": [],
      "name": "unlockedProviderAccount",
      "outputs": [],
      "stateMutability": "nonpayable",
      "type": "function"
    },
    {
      "inputs": [
        {
          "internalType": "address",
          "name": "token0",
          "type": "address"
        },
        {
          "internalType": "address",
          "name": "token1",
          "type": "address"
        },
        {
          "internalType": "uint256",
          "name": "amount0",
          "type": "uint256"
        }
      ],
      "name": "swap",
      "outputs": [
        {
          "internalType": "uint256",
          "name": "",
          "type": "uint256"
        }
      ],
      "stateMutability": "payable",
      "type": "function"
    },
    {
      "inputs": [
        {
          "internalType": "address",
          "name": "token0",
          "type": "address"
        },
        {
          "internalType": "address",
          "name": "token1",
          "type": "address"
        },
        {
          "internalType": "uint256",
          "name": "amount0",
          "type": "uint256"
        },
        {
          "internalType": "address",
          "name": "user",
          "type": "address"
        }
      ],
      "name": "doSwap",
      "outputs": [
        {
          "internalType": "uint256",
          "name": "",
          "type": "uint256"
        }
      ],
      "stateMutability": "payable",
      "type": "function"
    },
    {
      "inputs": [
        {
          "internalType": "uint256",
          "name": "poolId",
          "type": "uint256"
        },
        {
          "internalType": "uint256",
          "name": "amount0",
          "type": "uint256"
        }
      ],
      "name": "provideLiquidity",
      "outputs": [],
      "stateMutability": "payable",
      "type": "function"
    },
    {
      "inputs": [
        {
          "internalType": "uint256",
          "name": "id",
          "type": "uint256"
        }
      ],
      "name": "removeLiquidity",
      "outputs": [],
      "stateMutability": "nonpayable",
      "type": "function"
    },
    {
      "inputs": [
        {
          "internalType": "address",
          "name": "wallet",
          "type": "address"
        }
      ],
      "name": "myLiquidities",
      "outputs": [
        {
          "internalType": "uint256[]",
          "name": "",
          "type": "uint256[]"
        },
        {
          "internalType": "uint256[]",
          "name": "",
          "type": "uint256[]"
        },
        {
          "internalType": "uint256[]",
          "name": "",
          "type": "uint256[]"
        },
        {
          "internalType": "uint256[]",
          "name": "",
          "type": "uint256[]"
        }
      ],
      "stateMutability": "view",
      "type": "function"
    },
    {
      "inputs": [
        {
          "internalType": "address",
          "name": "token0",
          "type": "address"
        },
        {
          "internalType": "address",
          "name": "token1",
          "type": "address"
        }
      ],
      "name": "createPool",
      "outputs": [
        {
          "internalType": "uint256",
          "name": "",
          "type": "uint256"
        }
      ],
      "stateMutability": "nonpayable",
      "type": "function"
    },
    {
      "inputs": [
        {
          "internalType": "bool",
          "name": "_autoStake",
          "type": "bool"
        }
      ],
      "name": "updateProviderProfile",
      "outputs": [],
      "stateMutability": "nonpayable",
      "type": "function"
    },
    {
      "inputs": [
        {
          "internalType": "uint256",
          "name": "amount",
          "type": "uint256"
        }
      ],
      "name": "withDrawEarnings",
      "outputs": [],
      "stateMutability": "nonpayable",
      "type": "function"
    },
    {
      "inputs": [
        {
          "internalType": "address",
          "name": "pair",
          "type": "address"
        }
      ],
      "name": "updateNativePair",
      "outputs": [],
      "stateMutability": "nonpayable",
      "type": "function"
    },
    {
      "inputs": [
        {
          "internalType": "address",
          "name": "pair",
          "type": "address"
        }
      ],
      "name": "updateUSDTPair",
      "outputs": [],
      "stateMutability": "nonpayable",
      "type": "function"
    },
    {
      "inputs": [
        {
          "internalType": "address",
          "name": "pair",
          "type": "address"
        }
      ],
      "name": "updateFleepPair",
      "outputs": [],
      "stateMutability": "nonpayable",
      "type": "function"
    },
    {
      "inputs": [
        {
          "internalType": "uint256",
          "name": "fee",
          "type": "uint256"
        }
      ],
      "name": "updateSwapFee",
      "outputs": [],
      "stateMutability": "nonpayable",
      "type": "function"
    },
    {
      "inputs": [
        {
          "internalType": "address",
          "name": "token",
          "type": "address"
        },
        {
          "internalType": "address",
          "name": "pair",
          "type": "address"
        }
      ],
      "name": "createPair",
      "outputs": [],
      "stateMutability": "nonpayable",
      "type": "function"
    },
    {
      "inputs": [
        {
          "internalType": "uint256",
          "name": "amount",
          "type": "uint256"
        },
        {
          "internalType": "address",
          "name": "receiver",
          "type": "address"
        }
      ],
      "name": "withDrawPlaformEarnings",
      "outputs": [],
      "stateMutability": "nonpayable",
      "type": "function"
    },
    {
      "inputs": [
        {
          "internalType": "address",
          "name": "token0",
          "type": "address"
        },
        {
          "internalType": "uint256",
          "name": "amount0",
          "type": "uint256"
        },
        {
          "internalType": "uint256",
          "name": "amount1",
          "type": "uint256"
        },
        {
          "internalType": "address",
          "name": "owner",
          "type": "address"
        }
      ],
      "name": "_transferSwappedTokens1",
      "outputs": [
        {
          "internalType": "uint256",
          "name": "",
          "type": "uint256"
        }
      ],
      "stateMutability": "payable",
      "type": "function"
    },
    {
      "inputs": [],
      "name": "testnetHelper2",
      "outputs": [],
      "stateMutability": "nonpayable",
      "type": "function"
    }
  ],
  "bytecode": "0x608060405260196003553480156200001657600080fd5b5060405162003889380380620038898339810160408190526200003991620005dd565b600080546001600160a01b0383166001600160a01b03199182161790915560018054909116331790556200006c62000073565b506200060f565b6001546001600160a01b03163314620000c35760405162461bcd60e51b815260206004820152600d60248201526c27b7363c902232b83637bcb2b960991b60448201526064015b60405180910390fd5b620000e273d0d5e3db44de05e9f294bb0a3beeaf030de24ada620002a5565b6200010173a90058c81ce72946526acb37c444a1cd640ccc216200035a565b620001207369c02513f5af6651b80207003a4bcaa530605a036200040f565b620001547369c02513f5af6651b80207003a4bcaa530605a03731c2252aeed50e0c9b64bdff2735ee3c932f5c408620004c4565b6200018773fcd9eb765936d608c6f9a4cc3c9080190e3a2566727a22900a3b98143368bd5906f8e17e9867581b620004c4565b620001bb73ac2003580bd6329d1cbe5c492d523fc5b8004d56730fcaa9c899ec5a91ebc3d5dd869de833b06fb046620004c4565b620001ef735b9228d432b21e5faf6c07792149beaa0a650032730715a7794a1dc8e42615f059dd6e406a6594651a620004c4565b60085462000207906001600160a01b031680620004c4565b6200023b7387714bba938f16c852e91847c0bc95da3609a2ea739dd18534b8f456557d11b9ddb14da89b2e52e308620004c4565b6200026f73934253c5b9455f4694f49163e4d132f3de5a566673572ddec9087154dc5dfbb1546bb62713147e0ab0620004c4565b620002a373a90058c81ce72946526acb37c444a1cd640ccc217392c09849638959196e976289418e5973cc96d645620004c4565b565b6001546001600160a01b03163314620002f15760405162461bcd60e51b815260206004820152600d60248201526c27b7363c902232b83637bcb2b960991b6044820152606401620000ba565b6001600160a01b038116620003385760405162461bcd60e51b81526020600482015260146024820152600080516020620038698339815191526044820152606401620000ba565b600880546001600160a01b0319166001600160a01b0392909216919091179055565b6001546001600160a01b03163314620003a65760405162461bcd60e51b815260206004820152600d60248201526c27b7363c902232b83637bcb2b960991b6044820152606401620000ba565b6001600160a01b038116620003ed5760405162461bcd60e51b81526020600482015260146024820152600080516020620038698339815191526044820152606401620000ba565b600980546001600160a01b0319166001600160a01b0392909216919091179055565b6001546001600160a01b031633146200045b5760405162461bcd60e51b815260206004820152600d60248201526c27b7363c902232b83637bcb2b960991b6044820152606401620000ba565b6001600160a01b038116620004a25760405162461bcd60e51b81526020600482015260146024820152600080516020620038698339815191526044820152606401620000ba565b600a80546001600160a01b0319166001600160a01b0392909216919091179055565b6001546001600160a01b03163314620005105760405162461bcd60e51b815260206004820152600d60248201526c27b7363c902232b83637bcb2b960991b6044820152606401620000ba565b6001600160a01b038216620005685760405162461bcd60e51b815260206004820152601560248201527f496e76616c696420546f6b656e204164647265737300000000000000000000006044820152606401620000ba565b6001600160a01b038116620005af5760405162461bcd60e51b81526020600482015260146024820152600080516020620038698339815191526044820152606401620000ba565b6001600160a01b03918216600090815260076020526040902080546001600160a01b03191691909216179055565b600060208284031215620005f057600080fd5b81516001600160a01b03811681146200060857600080fd5b9392505050565b61324a806200061f6000396000f3fe6080604052600436106101c25760003560e01c806391e5f37f116100f7578063ced48d0511610095578063ecd44aef11610064578063ecd44aef1461055d578063eebb63ed14610592578063f50c4fe814610616578063fe33b3021461063657600080fd5b8063ced48d05146104ea578063d30dce7d1461050a578063df791e501461052a578063e34336151461053d57600080fd5b8063b8eab409116100d1578063b8eab4091461045a578063bf16f65a1461047a578063c963cb741461049a578063c9c65396146104ca57600080fd5b806391e5f37f146103ad5780639c8f9f23146103cd578063ac4afa38146103ed57600080fd5b8063344bfb591161016457806378c480db1161013e57806378c480db146103475780637a16af7f146103675780638625ed131461037a5780638a2627f01461038f57600080fd5b8063344bfb59146102f057806351fde344146103105780635554b5521461033257600080fd5b8063102a5f91116101a0578063102a5f911461028c57806316339a9b146102ac5780631c1c5ac4146102ca57806332a2c5d0146102dd57600080fd5b806304ebefc7146101c7578063061bf045146102045780630787bc2714610225575b600080fd5b3480156101d357600080fd5b50600a546101e7906001600160a01b031681565b6040516001600160a01b0390911681526020015b60405180910390f35b610217610212366004612ef2565b61066c565b6040519081526020016101fb565b34801561023157600080fd5b5061026a610240366004612f38565b600c6020526000908152604090208054600182015460028301546003909301549192909160ff1684565b60408051948552602085019390935291830152151560608201526080016101fb565b34801561029857600080fd5b506102176102a7366004612f53565b6107c7565b3480156102b857600080fd5b506009546001600160a01b03166101e7565b6102176102d8366004612f8f565b610896565b3480156102e957600080fd5b50306101e7565b3480156102fc57600080fd5b506008546101e7906001600160a01b031681565b34801561031c57600080fd5b5061033061032b366004612fdf565b610e1d565b005b34801561033e57600080fd5b50610330610e8e565b34801561035357600080fd5b50610330610362366004613003565b610ff2565b61033061037536600461302f565b611121565b34801561038657600080fd5b50610330611589565b34801561039b57600080fd5b506008546001600160a01b03166101e7565b3480156103b957600080fd5b506103306103c8366004612f38565b6117b4565b3480156103d957600080fd5b506103306103e8366004613051565b611876565b3480156103f957600080fd5b50610435610408366004613051565b600b6020526000908152604090208054600182015460029092015490916001600160a01b03908116911683565b604080519384526001600160a01b0392831660208501529116908201526060016101fb565b34801561046657600080fd5b506009546101e7906001600160a01b031681565b34801561048657600080fd5b50610330610495366004613051565b611c88565b3480156104a657600080fd5b506104ba6104b5366004612f38565b611d78565b6040516101fb94939291906130a5565b3480156104d657600080fd5b506103306104e53660046130f2565b611fe9565b3480156104f657600080fd5b50610330610505366004612f38565b61210d565b34801561051657600080fd5b50610330610525366004613051565b6121cf565b610217610538366004612f53565b61231f565b34801561054957600080fd5b506102176105583660046130f2565b612335565b34801561056957600080fd5b5061057d6105783660046130f2565b612396565b604080519283526020830191909152016101fb565b34801561059e57600080fd5b506105e56105ad366004613051565b600d6020526000908152604090208054600182015460028301546003840154600490940154929391929091906001600160a01b031685565b6040805195865260208601949094529284019190915260608301526001600160a01b0316608082015260a0016101fb565b34801561062257600080fd5b50610330610631366004612f38565b6123bc565b34801561064257600080fd5b506101e7610651366004612f38565b6007602052600090815260409020546001600160a01b031681565b600354600090859082906106826103e887613132565b61068c9190613154565b6040516323b872dd60e01b81526001600160a01b03868116600483015230602483015260448201899052919250908316906323b872dd906064016020604051808303816000875af11580156106e5573d6000803e3d6000fd5b505050506040513d601f19601f820116820180604052508101906107099190613173565b508447101561075f5760405162461bcd60e51b815260206004820152601e60248201527f436f6e74726163743a20496e73756666696369656e742042616c616e6365000060448201526064015b60405180910390fd5b6001600160a01b0384166108fc6107768388613190565b6040518115909202916000818181858888f1935050505015801561079e573d6000803e3d6000fd5b50600854600a546107bc916001600160a01b039081169116836107c7565b979650505050505050565b600080546001600160a01b038581168352600760205260408084205486831685528185205491517fbaaa61be000000000000000000000000000000000000000000000000000000008152908316600482015290821660248201528392919091169063baaa61be90604401602060405180830381865afa15801561084e573d6000803e3d6000fd5b505050506040513d601f19601f8201168201806040525081019061087291906131a3565b90506305f5e1006108838285613154565b61088d9190613132565b95945050505050565b6000606483101561090f5760405162461bcd60e51b815260206004820152602c60248201527f416d6f756e7420746f20737761702063616e6e6f74206265206c65737365722060448201527f7468616e203130302057454900000000000000000000000000000000000000006064820152608401610756565b6000838161091d888861247e565b6000818152600b602052604090205490915061097b5760405162461bcd60e51b815260206004820152601460248201527f506f6f6c20646f6573206e6f74206578697374730000000000000000000000006044820152606401610756565b6008546000828152600b60205260409020600101546001600160a01b03918216911603610b3e576008546000828152600b60205260409020600201543493506109d1916001600160a01b039081169116846107c7565b925060006109de826125bc565b91505083811015610a315760405162461bcd60e51b815260206004820152601660248201527f496e73756666696369656e7420506f6f6c2053697a65000000000000000000006044820152606401610756565b6000828152600b6020526040812060020154610a57906001600160a01b03168689612670565b905060006064610a68836050613154565b610a729190613132565b9050610a7e8183613190565b60026000828254610a8f91906131bc565b90915550506000848152600b602090815260409182902082516080810184528154815260018201546001600160a01b039081168285015260028301541681850152600382018054855181860281018601909652808652610b36958b958d958b95949093606086019392830182828015610b2757602002820191906000526020600020905b815481526020019060010190808311610b13575b50505050508152505085612756565b505050610dbb565b6008546000828152600b60205260409020600201546001600160a01b03918216911603610c18576000818152600b6020526040902060010154600854610b91916001600160a01b039081169116846107c7565b92506000610b9e826125bc565b50905083811015610bf15760405162461bcd60e51b815260206004820152601660248201527f496e73756666696369656e7420506f6f6c2053697a65000000000000000000006044820152606401610756565b6000828152600b6020526040812060010154610a57906001600160a01b031685878a61066c565b6000818152600b602052604090206001810154600290910154610c48916001600160a01b039081169116846107c7565b92506000610c55826125bc565b91505083811015610ca85760405162461bcd60e51b815260206004820152601660248201527f496e73756666696369656e7420506f6f6c2053697a65000000000000000000006044820152606401610756565b6000828152600b602052604081206001810154600290910154610cda916001600160a01b03908116911686888b6128fa565b905060006064610ceb836050613154565b610cf59190613132565b9050610d018183613190565b60026000828254610d1291906131bc565b90915550506000848152600b602090815260409182902082516080810184528154815260018201546001600160a01b039081168285015260028301541681850152600382018054855181860281018601909652808652610db7958b958d958b95949093606086019392830182828015610b275760200282019190600052602060002090815481526020019060010190808311610b135750505050508152505085612756565b5050505b60408051878152602081018590526001600160a01b038a8116828401528916606082015242608082015290517f649451cb6bd28801e8992e83f834233301eb39b64a665a45b1e08d3e13ff679a9181900360a00190a150909695505050505050565b336000908152600c60205260408120549003610e6b5760405162461bcd60e51b815260206004820152600d60248201526c27b7363c90283937bb34b232b960991b6044820152606401610756565b336000908152600c60205260409020600301805460ff1916911515919091179055565b336000908152600c602052604090205415610eeb5760405162461bcd60e51b815260206004820152600a60248201527f4f6e6c79204775657374000000000000000000000000000000000000000000006044820152606401610756565b60068054906000610efb836131cf565b90915550506040805160a0810182526006548152336000818152600c60208181528583206001810154828701526002810154868801526060860184905293909252815260049091018054845181840281018401909552808552929360808501939092830182828015610f8c57602002820191906000526020600020905b815481526020019060010190808311610f78575b505050919092525050336000908152600c602090815260409182902083518155838201516001820155918301516002830155606083015160038301805460ff191691151591909117905560808301518051610fed9260048501920190612e76565b505050565b6001546001600160a01b0316331461103c5760405162461bcd60e51b815260206004820152600d60248201526c27b7363c902232b83637bcb2b960991b6044820152606401610756565b81600254101561108e5760405162461bcd60e51b815260206004820152601460248201527f496e73756666696369656e742042616c616e63650000000000000000000000006044820152606401610756565b600a5460405163a9059cbb60e01b81526001600160a01b038381166004830152602482018590529091169063a9059cbb906044016020604051808303816000875af11580156110e1573d6000803e3d6000fd5b505050506040513d601f19601f820116820180604052508101906111059190613173565b5081600260008282546111189190613190565b90915550505050565b336000908152600c6020526040812054900361116f5760405162461bcd60e51b815260206004820152600d60248201526c27b7363c90283937bb34b232b960991b6044820152606401610756565b60648110156111e55760405162461bcd60e51b8152602060048201526024808201527f416d6f756e742063616e6e6f74206265206c6573736572207468616e2031303060448201527f20574549000000000000000000000000000000000000000000000000000000006064820152608401610756565b6008546000838152600b6020526040812060010154909183916001600160a01b0391821691160361134b57606434116112865760405162461bcd60e51b815260206004820152602360248201527f4d617469632063616e6e6f74206265206c6573736572207468616e20314f4f2060448201527f57454900000000000000000000000000000000000000000000000000000000006064820152608401610756565b506000838152600b60205260409020600181015460029091015434916112b9916001600160a01b039182169116836107c7565b6000858152600b6020526040908190206002015490516323b872dd60e01b8152336004820152306024820152604481018390529193506001600160a01b0316906323b872dd906064016020604051808303816000875af1158015611321573d6000803e3d6000fd5b505050506040513d601f19601f820116820180604052508101906113459190613173565b50611495565b6000848152600b60205260409020600181015460029091015461137b916001600160a01b039081169116836107c7565b6000858152600b6020526040908190206001015490516323b872dd60e01b8152336004820152306024820152604481018490529193506001600160a01b0316906323b872dd906064016020604051808303816000875af11580156113e3573d6000803e3d6000fd5b505050506040513d601f19601f820116820180604052508101906114079190613173565b506000848152600b6020526040908190206002015490516323b872dd60e01b8152336004820152306024820152604481018490526001600160a01b03909116906323b872dd906064016020604051808303816000875af115801561146f573d6000803e3d6000fd5b505050506040513d601f19601f820116820180604052508101906114939190613173565b505b60006114a18533612a61565b905080156114fb576000818152600d6020526040812060020180548492906114ca9084906131bc565b90915550506000818152600d6020526040812060030180548592906114f09084906131bc565b909155506115079050565b61150785838533612b4a565b6000858152600b6020908152604091829020600181015460029091015483516001600160a01b039283168152911691810191909152908101839052606081018490523360808201524260a08201527f461ecd615ea1465ce04ee1aa1810891df016f8b506e515ba3a18bb12f54962e59060c00160405180910390a15050505050565b6115bb73fcd9eb765936d608c6f9a4cc3c9080190e3a256673ac2003580bd6329d1cbe5c492d523fc5b8004d56612335565b506115ee73fcd9eb765936d608c6f9a4cc3c9080190e3a2566735b9228d432b21e5faf6c07792149beaa0a650032612335565b5061162173fcd9eb765936d608c6f9a4cc3c9080190e3a25667387714bba938f16c852e91847c0bc95da3609a2ea612335565b5061165473fcd9eb765936d608c6f9a4cc3c9080190e3a256673934253c5b9455f4694f49163e4d132f3de5a5666612335565b5061168773fcd9eb765936d608c6f9a4cc3c9080190e3a256673a90058c81ce72946526acb37c444a1cd640ccc21612335565b506116ba735b9228d432b21e5faf6c07792149beaa0a65003273a90058c81ce72946526acb37c444a1cd640ccc21612335565b506116ed735b9228d432b21e5faf6c07792149beaa0a6500327387714bba938f16c852e91847c0bc95da3609a2ea612335565b506117207387714bba938f16c852e91847c0bc95da3609a2ea73a90058c81ce72946526acb37c444a1cd640ccc21612335565b506117537387714bba938f16c852e91847c0bc95da3609a2ea73ac2003580bd6329d1cbe5c492d523fc5b8004d56612335565b5061178673ac2003580bd6329d1cbe5c492d523fc5b8004d56735b9228d432b21e5faf6c07792149beaa0a650032612335565b506008546117b1906001600160a01b031673a90058c81ce72946526acb37c444a1cd640ccc21612335565b50565b6001546001600160a01b031633146117fe5760405162461bcd60e51b815260206004820152600d60248201526c27b7363c902232b83637bcb2b960991b6044820152606401610756565b6001600160a01b0381166118545760405162461bcd60e51b815260206004820152601460248201527f496e76616c6964205061697220416464726573730000000000000000000000006044820152606401610756565b600880546001600160a01b0319166001600160a01b0392909216919091179055565b336000908152600c602052604081205490036118c45760405162461bcd60e51b815260206004820152600d60248201526c27b7363c90283937bb34b232b960991b6044820152606401610756565b6000818152600d60205260409020600401546001600160a01b0316331461192d5760405162461bcd60e51b815260206004820152600c60248201527f556e617574686f72697a656400000000000000000000000000000000000000006044820152606401610756565b6000818152600d60209081526040808320600190810154808552600b8452828520835160808101855281548152928101546001600160a01b039081168487015260028201541683850152600381018054855181880281018801909652808652929695939491936060860193908301828280156119c857602002820191906000526020600020905b8154815260200190600101908083116119b4575b505050919092525050506020808201516000868152600d90925260409182902060020154915163a9059cbb60e01b815233600482015260248101929092529192506001600160a01b039091169063a9059cbb906044016020604051808303816000875af1158015611a3d573d6000803e3d6000fd5b505050506040513d601f19601f82011682018060405250810190611a619190613173565b506040818101516000858152600d60205282902060030154915163a9059cbb60e01b815233600482015260248101929092526001600160a01b03169063a9059cbb906044016020604051808303816000875af1158015611ac5573d6000803e3d6000fd5b505050506040513d601f19601f82011682018060405250810190611ae99190613173565b5060005b6000838152600b6020526040902060030154811015611b9e576000838152600b6020526040812060030180543392600d92909185908110611b3057611b306131e8565b600091825260208083209091015483528201929092526040019020600401546001600160a01b031603611b8c576000838152600b60205260409020600301805482908110611b8057611b806131e8565b60009182526020822001555b80611b96816131cf565b915050611aed565b5060005b336000908152600c6020526040902060040154811015611c4b578151336000908152600c602052604081206004018054600d92919085908110611be757611be76131e8565b906000526020600020015481526020019081526020016000206001015403611c3957336000908152600c60205260409020600401805482908110611c2d57611c2d6131e8565b60009182526020822001555b80611c43816131cf565b915050611ba2565b5050506000908152600d602052604081208181556001810182905560028101829055600381019190915560040180546001600160a01b0319169055565b6001546001600160a01b03163314611cd25760405162461bcd60e51b815260206004820152600d60248201526c27b7363c902232b83637bcb2b960991b6044820152606401610756565b60008111611d225760405162461bcd60e51b815260206004820152601b60248201527f506c6174666f726d206665652063616e6e6f74206265207a65726f00000000006044820152606401610756565b6103e88110611d735760405162461bcd60e51b815260206004820181905260248201527f506c6174666f726d206665652063616e6e6f7420626520612068756e647265646044820152606401610756565b600355565b6060806060806000600c6000876001600160a01b03166001600160a01b03168152602001908152602001600020600401805480602002602001604051908101604052809291908181526020018280548015611df257602002820191906000526020600020905b815481526020019060010190808311611dde575b505050505090506000815167ffffffffffffffff811115611e1557611e156131fe565b604051908082528060200260200182016040528015611e3e578160200160208202803683370190505b5090506000825167ffffffffffffffff811115611e5d57611e5d6131fe565b604051908082528060200260200182016040528015611e86578160200160208202803683370190505b5090506000835167ffffffffffffffff811115611ea557611ea56131fe565b604051908082528060200260200182016040528015611ece578160200160208202803683370190505b50905060005b8451811015611fd857600d6000868381518110611ef357611ef36131e8565b6020026020010151815260200190815260200160002060010154848281518110611f1f57611f1f6131e8565b602002602001018181525050600d6000868381518110611f4157611f416131e8565b6020026020010151815260200190815260200160002060020154838281518110611f6d57611f6d6131e8565b602002602001018181525050600d6000868381518110611f8f57611f8f6131e8565b6020026020010151815260200190815260200160002060030154828281518110611fbb57611fbb6131e8565b602090810291909101015280611fd0816131cf565b915050611ed4565b509196509450925090509193509193565b6001546001600160a01b031633146120335760405162461bcd60e51b815260206004820152600d60248201526c27b7363c902232b83637bcb2b960991b6044820152606401610756565b6001600160a01b0382166120895760405162461bcd60e51b815260206004820152601560248201527f496e76616c696420546f6b656e204164647265737300000000000000000000006044820152606401610756565b6001600160a01b0381166120df5760405162461bcd60e51b815260206004820152601460248201527f496e76616c6964205061697220416464726573730000000000000000000000006044820152606401610756565b6001600160a01b03918216600090815260076020526040902080546001600160a01b03191691909216179055565b6001546001600160a01b031633146121575760405162461bcd60e51b815260206004820152600d60248201526c27b7363c902232b83637bcb2b960991b6044820152606401610756565b6001600160a01b0381166121ad5760405162461bcd60e51b815260206004820152601460248201527f496e76616c6964205061697220416464726573730000000000000000000000006044820152606401610756565b600a80546001600160a01b0319166001600160a01b0392909216919091179055565b336000908152600c6020526040812054900361221d5760405162461bcd60e51b815260206004820152600d60248201526c27b7363c90283937bb34b232b960991b6044820152606401610756565b336000908152600c602052604090206002015481111561227f5760405162461bcd60e51b815260206004820152601460248201527f496e73756666696369656e742042616c616e63650000000000000000000000006044820152606401610756565b60095460405163a9059cbb60e01b8152336004820152602481018390526001600160a01b039091169063a9059cbb906044016020604051808303816000875af11580156122d0573d6000803e3d6000fd5b505050506040513d601f19601f820116820180604052508101906122f49190613173565b50336000908152600c602052604081206002018054839290612317908490613190565b909155505050565b600061232d84848433610896565b949350505050565b336000908152600c602052604081205481036123835760405162461bcd60e51b815260206004820152600d60248201526c27b7363c90283937bb34b232b960991b6044820152606401610756565b61238d8383612c1e565b90505b92915050565b60008060006123a5858561247e565b90506123b0816125bc565b92509250509250929050565b6001546001600160a01b031633146124065760405162461bcd60e51b815260206004820152600d60248201526c27b7363c902232b83637bcb2b960991b6044820152606401610756565b6001600160a01b03811661245c5760405162461bcd60e51b815260206004820152601460248201527f496e76616c6964205061697220416464726573730000000000000000000000006044820152606401610756565b600980546001600160a01b0319166001600160a01b0392909216919091179055565b60006001600160a01b038316158015906124a057506001600160a01b03821615155b6124ec5760405162461bcd60e51b815260206004820152601360248201527f496e76616c696420506f6f6c20546f6b656e73000000000000000000000000006044820152606401610756565b60005b60045481116125b2576000818152600b60205260409020600101546001600160a01b03858116911614801561254057506000818152600b60205260409020600201546001600160a01b038481169116145b1561254c579050612390565b6000818152600b60205260409020600101546001600160a01b03848116911614801561259457506000818152600b60205260409020600201546001600160a01b038581169116145b156125a0579050612390565b806125aa816131cf565b9150506124ef565b5060009392505050565b60008060008060005b6000868152600b6020526040902060030154811015612665576000868152600b60205260408120600301805483908110612601576126016131e8565b90600052602060002001549050600d6000828152602001908152602001600020600201548461263091906131bc565b6000828152600d602052604090206003015490945061264f90846131bc565b925050808061265d906131cf565b9150506125c5565b509094909350915050565b600354600090849082906126866103e887613132565b6126909190613154565b90506001600160a01b03821663a9059cbb856126ac8489613190565b6040517fffffffff0000000000000000000000000000000000000000000000000000000060e085901b1681526001600160a01b03909216600483015260248201526044016020604051808303816000875af115801561270f573d6000803e3d6000fd5b505050506040513d601f19601f820116820180604052508101906127339190613173565b50600a5461274c9087906001600160a01b0316836107c7565b9695505050505050565b60005b8260600151518110156128f25760008360600151828151811061277e5761277e6131e8565b6020026020010151905060008588600d6000858152602001908152602001600020600301546127ad9190613154565b6127b79190613132565b905080600d600084815260200190815260200160002060020160008282546127df91906131bc565b90915550506000828152600d60205260408120600301548790612803908a90613154565b61280d9190613132565b905080600d600085815260200190815260200160002060030160008282546128359190613190565b90915550506000838152600d60205260408120600301548890612859908890613154565b6128639190613132565b6000858152600d60209081526040808320600401546001600160a01b0316808452600c9092528220600101805493945090928492906128a39084906131bc565b90915550506001600160a01b0381166000908152600c6020526040812060020180548492906128d39084906131bc565b92505081905550505050505080806128ea906131cf565b915050612759565b505050505050565b6003546000908690869083906129126103e888613132565b61291c9190613154565b6040516323b872dd60e01b81526001600160a01b038781166004830152306024830152604482018a9052919250908416906323b872dd906064016020604051808303816000875af1158015612975573d6000803e3d6000fd5b505050506040513d601f19601f820116820180604052508101906129999190613173565b506001600160a01b03821663a9059cbb866129b4848a613190565b6040517fffffffff0000000000000000000000000000000000000000000000000000000060e085901b1681526001600160a01b03909216600483015260248201526044016020604051808303816000875af1158015612a17573d6000803e3d6000fd5b505050506040513d601f19601f82011682018060405250810190612a3b9190613173565b50600a54612a549089906001600160a01b0316836107c7565b9998505050505050505050565b6001600160a01b0381166000908152600c6020908152604080832060040180548251818502810185019093528083528493830182828015612ac157602002820191906000526020600020905b815481526020019060010190808311612aad575b5050505050905060005b8151811015612b3f5784600d6000848481518110612aeb57612aeb6131e8565b602002602001015181526020019081526020016000206001015403612b2d57818181518110612b1c57612b1c6131e8565b602002602001015192505050612390565b80612b37816131cf565b915050612acb565b506000949350505050565b60058054906000612b5a836131cf565b90915550506040805160a081018252600580548083526020808401898152848601988952606085019788526001600160a01b03968716608086018181526000948552600d84528785209651875591516001808801919091559951600287015597516003808701919091559051600495860180546001600160a01b0319169190981617909655978152600b885283812082549501805480890182559082528882200194909455938352600c865290822092549201805493840181558152929092200155565b6001600160a01b03828116600090815260076020526040812054909116612c935760405162461bcd60e51b815260206004820152602360248201527f5061697220646f6573206e6f74206578697374732c20436f6e7461637420616460448201526236b4b760e91b6064820152608401610756565b6001600160a01b0382811660009081526007602052604090205416612d065760405162461bcd60e51b815260206004820152602360248201527f5061697220646f6573206e6f74206578697374732c20436f6e7461637420616460448201526236b4b760e91b6064820152608401610756565b6000612d12848461247e565b1580159150612d25576000915050612390565b60048054906000612d35836131cf565b90915550506004546000908152600b6020908152604080832081516080810183528154815260018201546001600160a01b039081168286015260028301541681840152600382018054845181870281018701909552808552919492936060860193909290830182828015612dc857602002820191906000526020600020905b815481526020019060010190808311612db4575b505050919092525050604080516080810182526004548082526001600160a01b03808b1660208085019182528b83168587019081526060808a01519087019081526000958652600b8352969094208551815591516001830180549185166001600160a01b0319928316179055935160028301805491909416941693909317909155925180519596509194929350612e6792600385019290910190612e76565b50506004549695505050505050565b828054828255906000526020600020908101928215612eb1579160200282015b82811115612eb1578251825591602001919060010190612e96565b50612ebd929150612ec1565b5090565b5b80821115612ebd5760008155600101612ec2565b80356001600160a01b0381168114612eed57600080fd5b919050565b60008060008060808587031215612f0857600080fd5b612f1185612ed6565b93506020850135925060408501359150612f2d60608601612ed6565b905092959194509250565b600060208284031215612f4a57600080fd5b61238d82612ed6565b600080600060608486031215612f6857600080fd5b612f7184612ed6565b9250612f7f60208501612ed6565b9150604084013590509250925092565b60008060008060808587031215612fa557600080fd5b612fae85612ed6565b9350612fbc60208601612ed6565b925060408501359150612f2d60608601612ed6565b80151581146117b157600080fd5b600060208284031215612ff157600080fd5b8135612ffc81612fd1565b9392505050565b6000806040838503121561301657600080fd5b8235915061302660208401612ed6565b90509250929050565b6000806040838503121561304257600080fd5b50508035926020909101359150565b60006020828403121561306357600080fd5b5035919050565b600081518084526020808501945080840160005b8381101561309a5781518752958201959082019060010161307e565b509495945050505050565b6080815260006130b8608083018761306a565b82810360208401526130ca818761306a565b905082810360408401526130de818661306a565b905082810360608401526107bc818561306a565b6000806040838503121561310557600080fd5b61310e83612ed6565b915061302660208401612ed6565b634e487b7160e01b600052601160045260246000fd5b60008261314f57634e487b7160e01b600052601260045260246000fd5b500490565b600081600019048311821515161561316e5761316e61311c565b500290565b60006020828403121561318557600080fd5b8151612ffc81612fd1565b818103818111156123905761239061311c565b6000602082840312156131b557600080fd5b5051919050565b808201808211156123905761239061311c565b6000600182016131e1576131e161311c565b5060010190565b634e487b7160e01b600052603260045260246000fd5b634e487b7160e01b600052604160045260246000fdfea264697066735822122095778c3d12b60a6abc1ad45b59b6a1e9359ea87a6720f3c97b19347c9f6991ff64736f6c63430008100033496e76616c696420506169722041646472657373000000000000000000000000",
  "immutableReferences": {},
  "source": "// SPDX-License-Identifier: GPL-3.0\npragma solidity >=0.7.0 <0.9.0;\n\nimport {PriceApi} from \"../feeds/PriceApi.sol\";\nimport {Events} from \"../libraries/Events.sol\";\nimport {IERC20} from \"@openzeppelin/contracts/token/ERC20/IERC20.sol\";\n\ncontract Swap {\n    PriceApi private _priceApi;\n\n    // contract admin\n    address private _deployer;\n    uint256 private _platformProfit;\n\n    // charges 0.25% fee on every successful swaps\n    uint private swapFee = 25;\n\n    // ids to avoid conflicts\n    uint256 private POOL_ID;\n    uint256 private LIQUID_ID;\n    uint256 private PROVIDER_ID;\n\n    // token contract address => chainlink aggregrator address\n    // only in the token paired to USD format\n    mapping(address => address) public pairs;\n\n    // is a member of the pairs mapping\n    // but its the native pair MATIC not IERC20\n    address public NATIVE_PAIR;\n    // paired address to USDT\n    address public USDT_PAIR;\n    address public FLEEP_PAIR;\n\n    // id => liquidity pools\n    mapping(uint => Pool) public pools;\n    // user address => provider data\n    mapping(address => Provider) public providers;\n    // id => liquids\n    mapping(uint => Liquid) public liquids;\n\n    // === Structs === //\n\n    // pool consists of liquids\n    // from n numbers providers\n    struct Pool {\n        uint id;\n        address token0;\n        address token1;\n        uint[] liquids;\n    }\n\n    // liquid belongs to a provider\n    // also belongs to a pool\n    struct Liquid {\n        uint id;\n        uint poolId;\n        uint256 amount0;\n        uint256 amount1;\n        address provider;\n    }\n\n    // provider properties\n    // owns n numbers of liquids\n    struct Provider {\n        uint id;\n        uint256 totalEarned;\n        uint256 balance;\n        bool autoStake;\n        uint[] liquids;\n    }\n\n    constructor(address priceApI) {\n        _priceApi = PriceApi(priceApI);\n        _deployer = msg.sender;\n\n        testnetHelper();\n    }\n\n    // calculates all the size of the liquids\n    // in a pool of token pair\n    function getPoolSize(\n        address token0,\n        address token1\n    ) public view returns (uint256, uint256) {\n        uint poolId = _findPool(token0, token1);\n        return _poolSize(poolId);\n    }\n\n    // gets the exchanges rates for pair of tokens\n    // with accordance to amount of tokens\n    function estimate(\n        address token0,\n        address token1,\n        uint256 amount0 // in wei\n    ) public view returns (uint256) {\n        int256 rate = _priceApi.getExchangeRate(pairs[token0], pairs[token1]);\n        return (amount0 * uint256(rate)) / (10 ** 8);\n    }\n\n    // returns the contract address\n    function getContractAddress() public view returns (address) {\n        return address(this);\n    }\n\n    // returns the pair address for $MATIC\n    function getNativePair() public view returns (address) {\n        return NATIVE_PAIR;\n    }\n\n    // returns the pair address for $USDT\n    function getUSDTPair() public view returns (address) {\n        return USDT_PAIR;\n    }\n\n    // register as a provider\n    function unlockedProviderAccount() public onlyGuest {\n        // create new unique id\n        PROVIDER_ID++;\n\n        // provider with default entries\n        providers[msg.sender] = Provider(\n            PROVIDER_ID,\n            providers[msg.sender].totalEarned,\n            providers[msg.sender].balance,\n            false,\n            providers[msg.sender].liquids\n        );\n    }\n\n    // === Swapping === //\n\n    function swap(\n        address token0,\n        address token1,\n        uint256 amount0\n    ) public payable returns (uint256) {\n        return doSwap(token0, token1, amount0, msg.sender);\n    }\n\n    function doSwap(\n        address token0,\n        address token1,\n        uint256 amount0,\n        address user\n    ) public payable returns (uint256) {\n        require(amount0 >= 100, \"Amount to swap cannot be lesser than 100 WEI\");\n\n        uint256 amount1;\n        uint256 _safeAmount0 = amount0;\n\n        uint poolId = _findPool(token0, token1);\n        require(pools[poolId].id > 0, \"Pool does not exists\");\n\n        // MATIC => ERC20\n        if (pools[poolId].token0 == NATIVE_PAIR) {\n            _safeAmount0 = msg.value;\n            amount1 = estimate(NATIVE_PAIR, pools[poolId].token1, _safeAmount0);\n\n            // check if contract has enough destination token liquid\n            (, uint256 poolSizeToken1) = _poolSize(poolId);\n            require(poolSizeToken1 >= amount1, \"Insufficient Pool Size\");\n\n            uint256 fee = _transferSwappedTokens0(\n                pools[poolId].token1,\n                amount1,\n                user\n            );\n\n            uint256 providersReward = ((fee * 80) / 100);\n            _platformProfit += (fee - providersReward);\n\n            _aggregateLiquids(\n                _safeAmount0,\n                amount1,\n                poolSizeToken1,\n                pools[poolId],\n                providersReward\n            );\n        }\n        // ERC20 => MATIC\n        else if (pools[poolId].token1 == NATIVE_PAIR) {\n            amount1 = estimate(pools[poolId].token0, NATIVE_PAIR, _safeAmount0);\n\n            // check if contract has enough destination token liquid\n            (uint256 poolSizeToken1, ) = _poolSize(poolId);\n            require(poolSizeToken1 >= amount1, \"Insufficient Pool Size\");\n\n            uint256 fee = _transferSwappedTokens1(\n                pools[poolId].token0,\n                _safeAmount0,\n                amount1,\n                user\n            );\n\n            uint256 providersReward = ((fee * 80) / 100);\n            _platformProfit += (fee - providersReward);\n\n            _aggregateLiquids(\n                _safeAmount0,\n                amount1,\n                poolSizeToken1,\n                pools[poolId],\n                providersReward\n            );\n        }\n        // ERC0 => ERC2O\n        else {\n            amount1 = estimate(\n                pools[poolId].token0,\n                pools[poolId].token1,\n                _safeAmount0\n            );\n\n            // check if contract has enough destination token liquid\n            (, uint256 poolSizeToken1) = _poolSize(poolId);\n            require(poolSizeToken1 >= amount1, \"Insufficient Pool Size\");\n\n            uint256 fee = _transferSwappedTokens2(\n                pools[poolId].token0,\n                pools[poolId].token1,\n                _safeAmount0,\n                amount1,\n                user\n            );\n\n            uint256 providersReward = ((fee * 80) / 100);\n            _platformProfit += (fee - providersReward);\n\n            _aggregateLiquids(\n                _safeAmount0,\n                amount1,\n                poolSizeToken1,\n                pools[poolId],\n                providersReward\n            );\n        }\n\n        // store the swap data on-chain\n        emit Events.FleepSwaped(\n            amount0,\n            amount1,\n            token0,\n            token1,\n            block.timestamp\n        );\n\n        return amount1;\n    }\n\n    // === Providers === //\n\n    function provideLiquidity(\n        uint poolId,\n        uint256 amount0\n    ) public payable onlyProvider {\n        require(amount0 >= 100, \"Amount cannot be lesser than 100 WEI\");\n\n        uint256 amount1;\n        uint256 _safeAmount0 = amount0;\n\n        if (pools[poolId].token0 == NATIVE_PAIR) {\n            require(msg.value > 100, \"Matic cannot be lesser than 1OO WEI\");\n            // only in format of MATIC as pair subject\n            // ex MATIC/XEND\n\n            _safeAmount0 = msg.value;\n            // get the estimate for token1\n            amount1 = estimate(\n                pools[poolId].token0,\n                pools[poolId].token1,\n                _safeAmount0\n            );\n            // stake token1 to smart contract\n            IERC20(pools[poolId].token1).transferFrom(\n                msg.sender,\n                address(this),\n                amount1\n            );\n        } else {\n            // get the estimate for token1\n            amount1 = estimate(\n                pools[poolId].token0,\n                pools[poolId].token1,\n                _safeAmount0\n            );\n            // stake tokens to smart contract\n            IERC20(pools[poolId].token0).transferFrom(\n                msg.sender,\n                address(this),\n                _safeAmount0\n            );\n            IERC20(pools[poolId].token1).transferFrom(\n                msg.sender,\n                address(this),\n                amount1\n            );\n        }\n\n        uint liquidId = _liquidIndex(poolId, msg.sender);\n\n        if (liquidId > 0) {\n            // if liquid exist increment the amount\n            liquids[liquidId].amount0 += _safeAmount0;\n            liquids[liquidId].amount1 += amount1;\n        } else {\n            // otherwise create the new liquid\n            _createLiquid(poolId, _safeAmount0, amount1, msg.sender);\n        }\n\n        // store the liquidity data on-chain\n        emit Events.LiquidProvided(\n            pools[poolId].token0,\n            pools[poolId].token1,\n            _safeAmount0,\n            amount1,\n            msg.sender,\n            block.timestamp\n        );\n    }\n\n    function removeLiquidity(uint id) public onlyProvider {\n        require(liquids[id].provider == msg.sender, \"Unauthorized\");\n\n        // extract pool id from liquid\n        uint poolId = liquids[id].poolId;\n\n        // extract pool struct\n        Pool memory pool = pools[poolId];\n\n        // transfer tokens to providers\n        IERC20(pool.token0).transfer(msg.sender, liquids[id].amount0);\n        IERC20(pool.token1).transfer(msg.sender, liquids[id].amount1);\n\n        // delete liquid\n\n        for (uint index = 0; index < pools[poolId].liquids.length; index++) {\n            if (liquids[pools[poolId].liquids[index]].provider == msg.sender) {\n                delete pools[poolId].liquids[index];\n            }\n        }\n\n        for (\n            uint index = 0;\n            index < providers[msg.sender].liquids.length;\n            index++\n        ) {\n            if (\n                liquids[providers[msg.sender].liquids[index]].poolId == pool.id\n            ) {\n                delete providers[msg.sender].liquids[index];\n            }\n        }\n\n        delete liquids[id];\n    }\n\n    // fetach all liquidities from a wallet\n    function myLiquidities(\n        address wallet\n    )\n        public\n        view\n        returns (\n            uint256[] memory,\n            uint256[] memory,\n            uint256[] memory,\n            uint256[] memory\n        )\n    {\n        // array of provider liquidities position\n        uint256[] memory providerLiquids = providers[wallet].liquids;\n\n        uint256[] memory _pools = new uint256[](providerLiquids.length);\n        uint256[] memory _amounts0 = new uint256[](providerLiquids.length);\n        uint256[] memory _amounts1 = new uint256[](providerLiquids.length);\n\n        for (uint index; index < providerLiquids.length; index++) {\n            _pools[index] = liquids[providerLiquids[index]].poolId;\n            _amounts0[index] = liquids[providerLiquids[index]].amount0;\n            _amounts1[index] = liquids[providerLiquids[index]].amount1;\n        }\n\n        return (_pools, _amounts0, _amounts1, providerLiquids);\n    }\n\n    function createPool(\n        address token0,\n        address token1\n    ) public onlyProvider returns (uint) {\n        return _createPool(token0, token1);\n    }\n\n    function updateProviderProfile(bool _autoStake) public onlyProvider {\n        providers[msg.sender].autoStake = _autoStake;\n    }\n\n    function withDrawEarnings(uint256 amount) public onlyProvider {\n        require(\n            providers[msg.sender].balance >= amount,\n            \"Insufficient Balance\"\n        );\n\n        // USDT as reward token\n        IERC20(USDT_PAIR).transfer(msg.sender, amount);\n\n        providers[msg.sender].balance -= amount;\n    }\n\n    // === Administration === //\n\n    function updateNativePair(address pair) public onlyDeployer {\n        require(pair != address(0), \"Invalid Pair Address\");\n        NATIVE_PAIR = pair;\n    }\n\n    function updateUSDTPair(address pair) public onlyDeployer {\n        require(pair != address(0), \"Invalid Pair Address\");\n        USDT_PAIR = pair;\n    }\n\n    function updateFleepPair(address pair) public onlyDeployer {\n        require(pair != address(0), \"Invalid Pair Address\");\n        FLEEP_PAIR = pair;\n    }\n\n    function updateSwapFee(uint fee) public onlyDeployer {\n        require(fee > 0, \"Platform fee cannot be zero\");\n        require(fee < 1000, \"Platform fee cannot be a hundred\");\n        swapFee = fee;\n    }\n\n    function createPair(address token, address pair) public onlyDeployer {\n        require(token != address(0), \"Invalid Token Address\");\n        require(pair != address(0), \"Invalid Pair Address\");\n        pairs[token] = pair;\n    }\n\n    function withDrawPlaformEarnings(\n        uint256 amount,\n        address receiver\n    ) public onlyDeployer {\n        require(_platformProfit >= amount, \"Insufficient Balance\");\n\n        // Fleep token as reward token\n        IERC20(FLEEP_PAIR).transfer(receiver, amount);\n        _platformProfit -= amount;\n    }\n\n    // === Internal Functions === //\n\n    function _liquidIndex(\n        uint poolId,\n        address provider\n    ) private view returns (uint) {\n        uint256[] memory providerLiquids = providers[provider].liquids;\n\n        for (uint index = 0; index < providerLiquids.length; index++) {\n            if (liquids[providerLiquids[index]].poolId == poolId) {\n                return providerLiquids[index];\n            }\n        }\n\n        return 0;\n    }\n\n    function _aggregateLiquids(\n        uint256 amount0,\n        uint256 amount1,\n        uint256 poolSizeToken1,\n        Pool memory pool,\n        uint256 fee\n    ) private {\n        // equally share swap impact on all provider liquids based on their contribution\n        for (uint index = 0; index < pool.liquids.length; index++) {\n            uint liquidId = pool.liquids[index];\n\n            // calculated with ratio of this liquid compared\n            // to other liquids contributing\n            uint256 additionAmount = ((liquids[liquidId].amount1 * amount0) /\n                poolSizeToken1);\n\n            // step I\n            liquids[liquidId].amount0 += additionAmount;\n\n            // calculated with ratio of this liquid compared\n            // to other liquids contributing\n            uint256 deductionAmount = ((liquids[liquidId].amount1 * amount1) /\n                poolSizeToken1);\n\n            // step II\n            liquids[liquidId].amount1 -= deductionAmount;\n\n            // reward the liquid provider\n            uint256 reward = ((liquids[liquidId].amount1 * fee) /\n                poolSizeToken1);\n\n            address provider = liquids[liquidId].provider;\n\n            providers[provider].totalEarned += reward;\n            providers[provider].balance += reward;\n        }\n    }\n\n    // MATIC => ERC20\n    function _transferSwappedTokens0(\n        address token1,\n        uint256 amount1,\n        address owner\n    ) private returns (uint256) {\n        IERC20 quoteToken = IERC20(token1);\n\n        uint256 _fee = ((amount1 / 1000) * swapFee);\n\n        // give user their destination token minus fee\n        quoteToken.transfer(owner, (amount1 - _fee));\n\n        // convert fee to Fleep tokens\n        return estimate(token1, FLEEP_PAIR, _fee);\n    }\n\n    // ERC20 => MATIC\n    function _transferSwappedTokens1(\n        address token0,\n        uint256 amount0,\n        uint256 amount1,\n        address owner\n    ) public payable returns (uint256) {\n        IERC20 baseToken = IERC20(token0);\n\n        uint256 _fee = ((amount1 / 1000) * swapFee);\n\n        baseToken.transferFrom(owner, address(this), amount0);\n\n        // give user their destination token minus fee\n        require(\n            address(this).balance >= amount1,\n            \"Contract: Insufficient Balance\"\n        );\n        payable(owner).transfer(amount1 - _fee);\n\n        // convert fee to Fleep tokens\n        return estimate(NATIVE_PAIR, FLEEP_PAIR, _fee);\n    }\n\n    // ERC20 => ERC20\n    function _transferSwappedTokens2(\n        address token0,\n        address token1,\n        uint256 amount0,\n        uint256 amount1,\n        address owner\n    ) private returns (uint256) {\n        IERC20 baseToken = IERC20(token0);\n        IERC20 quoteToken = IERC20(token1);\n\n        uint256 _fee = ((amount1 / 1000) * swapFee);\n\n        // tranfers the base token from user to the\n        // smart contract\n        baseToken.transferFrom(owner, address(this), amount0);\n\n        // give user their destination token minus fee\n        quoteToken.transfer(owner, (amount1 - _fee));\n\n        // convert fee to Fleep tokens\n        return estimate(token1, FLEEP_PAIR, _fee);\n    }\n\n    function _inWei(uint256 amount) private pure returns (uint256) {\n        return amount * 10 ** 18;\n    }\n\n    function _findPool(\n        address token0,\n        address token1\n    ) private view returns (uint) {\n        require(\n            token0 != address(0) && token1 != address(0),\n            \"Invalid Pool Tokens\"\n        );\n        for (uint index = 0; index <= POOL_ID; index++) {\n            // patern A\n            if (\n                pools[index].token0 == token0 && pools[index].token1 == token1\n            ) {\n                return index;\n            }\n\n            // pattern B\n            if (\n                pools[index].token0 == token1 && pools[index].token1 == token0\n            ) {\n                return index;\n            }\n        }\n        return 0;\n    }\n\n    function _createLiquid(\n        uint poolId,\n        uint256 amount0,\n        uint256 amount1,\n        address provider\n    ) private {\n        LIQUID_ID++;\n        // create the liquid\n        liquids[LIQUID_ID] = Liquid(\n            LIQUID_ID,\n            poolId,\n            amount0,\n            amount1,\n            provider\n        );\n        // register the liquid\n        pools[poolId].liquids.push(LIQUID_ID);\n        providers[provider].liquids.push(LIQUID_ID);\n    }\n\n    function _poolSize(uint id) private view returns (uint256, uint256) {\n        uint256 amount0;\n        uint256 amount1;\n        for (uint index = 0; index < pools[id].liquids.length; index++) {\n            uint liquidId = pools[id].liquids[index];\n            amount0 += liquids[liquidId].amount0;\n            amount1 += liquids[liquidId].amount1;\n        }\n        return (amount0, amount1);\n    }\n\n    function _createPool(\n        address token0,\n        address token1\n    ) private returns (uint) {\n        require(\n            pairs[token0] != address(0),\n            \"Pair does not exists, Contact admin\"\n        );\n        require(\n            pairs[token1] != address(0),\n            \"Pair does not exists, Contact admin\"\n        );\n\n        bool exists = _findPool(token0, token1) != 0;\n        if (exists) return 0;\n\n        POOL_ID++;\n        Pool memory pool = pools[POOL_ID];\n\n        pools[POOL_ID] = Pool(POOL_ID, token0, token1, pool.liquids);\n\n        return POOL_ID;\n    }\n\n    // calls in the constructor\n    function testnetHelper() private onlyDeployer {\n        updateNativePair(0xd0D5e3DB44DE05E9F294BB0a3bEEaF030DE24Ada);\n        updateUSDTPair(0xa90058c81Ce72946526acb37c444a1Cd640CCC21);\n        updateFleepPair(0x69C02513F5Af6651B80207003a4bcAA530605a03);\n\n        // FLP\n        createPair(\n            0x69C02513F5Af6651B80207003a4bcAA530605a03,\n            0x1C2252aeeD50e0c9B64bDfF2735Ee3C932F5C408\n        );\n\n        // WBTC\n        createPair(\n            0xfcd9eB765936D608C6f9a4cC3C9080190e3A2566,\n            0x007A22900a3B98143368Bd5906f8E17e9867581b\n        );\n\n        // DAI\n        createPair(\n            0xac2003580BD6329D1CbE5c492D523fC5b8004d56,\n            0x0FCAa9c899EC5A91eBc3D5Dd869De833b06fB046\n        );\n\n        // WETH\n        createPair(\n            0x5b9228d432B21e5Faf6c07792149bEaa0A650032,\n            0x0715A7794a1dc8e42615F059dD6e406A6594651A\n        );\n\n        // MATIC\n        createPair(NATIVE_PAIR, NATIVE_PAIR);\n\n        // SAND\n        createPair(\n            0x87714Bba938f16C852E91847c0bC95DA3609A2EA,\n            0x9dd18534b8f456557d11B9DDB14dA89b2e52e308\n        );\n\n        // USDC\n        createPair(\n            0x934253c5B9455F4694F49163E4D132f3de5A5666,\n            0x572dDec9087154dC5dfBB1546Bb62713147e0Ab0\n        );\n\n        // USDT\n        createPair(\n            0xa90058c81Ce72946526acb37c444a1Cd640CCC21,\n            0x92C09849638959196E976289418e5973CC96d645\n        );\n    }\n\n    // // called by any provider\n    function testnetHelper2() public {\n        createPool(\n            0xfcd9eB765936D608C6f9a4cC3C9080190e3A2566,\n            0xac2003580BD6329D1CbE5c492D523fC5b8004d56\n        ); // WBTC => DAI : 1\n        createPool(\n            0xfcd9eB765936D608C6f9a4cC3C9080190e3A2566,\n            0x5b9228d432B21e5Faf6c07792149bEaa0A650032\n        ); // WBTC => WETH : 2\n        createPool(\n            0xfcd9eB765936D608C6f9a4cC3C9080190e3A2566,\n            0x87714Bba938f16C852E91847c0bC95DA3609A2EA\n        ); // WBTC => SAND : 3\n        createPool(\n            0xfcd9eB765936D608C6f9a4cC3C9080190e3A2566,\n            0x934253c5B9455F4694F49163E4D132f3de5A5666\n        ); // WBTC => USDC : 4\n        createPool(\n            0xfcd9eB765936D608C6f9a4cC3C9080190e3A2566,\n            0xa90058c81Ce72946526acb37c444a1Cd640CCC21\n        ); // WBTC => USDT : 5\n        createPool(\n            0x5b9228d432B21e5Faf6c07792149bEaa0A650032,\n            0xa90058c81Ce72946526acb37c444a1Cd640CCC21\n        ); // WETH => USDT : 6\n        createPool(\n            0x5b9228d432B21e5Faf6c07792149bEaa0A650032,\n            0x87714Bba938f16C852E91847c0bC95DA3609A2EA\n        ); // WETH => SAND : 7\n        createPool(\n            0x87714Bba938f16C852E91847c0bC95DA3609A2EA,\n            0xa90058c81Ce72946526acb37c444a1Cd640CCC21\n        ); // SAND => USDT : 8\n        createPool(\n            0x87714Bba938f16C852E91847c0bC95DA3609A2EA,\n            0xac2003580BD6329D1CbE5c492D523fC5b8004d56\n        ); // SAND => DAI : 9\n        createPool(\n            0xac2003580BD6329D1CbE5c492D523fC5b8004d56,\n            0x5b9228d432B21e5Faf6c07792149bEaa0A650032\n        ); // DAI => WETH : 10\n        createPool(NATIVE_PAIR, 0xa90058c81Ce72946526acb37c444a1Cd640CCC21); // MATIC => USDT : 11\n    }\n\n    // === Modifiers === //\n\n    modifier onlyGuest() {\n        require(providers[msg.sender].id == 0, \"Only Guest\");\n        _;\n    }\n\n    modifier onlyProvider() {\n        require(providers[msg.sender].id != 0, \"Only Provider\");\n        _;\n    }\n\n    modifier onlyDeployer() {\n        require(msg.sender == _deployer, \"Only Deployer\");\n        _;\n    }\n}\n",
  "sourcePath": "C:\\Users\\Arogundade Ibrahim\\Documents\\web3\\fleep\\contracts\\core\\Swap.sol",
  "compiler": {
    "name": "solc",
    "version": "0.8.16+commit.07a7930e.Emscripten.clang"
  },
  "schemaVersion": "3.4.10",
  "updatedAt": "2022-12-04T09:32:37.986Z",
  "devdoc": {
    "kind": "dev",
    "methods": {},
    "version": 1
  },
  "userdoc": {
    "kind": "user",
    "methods": {},
    "version": 1
  }
}