{
  "contractName": "Swap",
  "abi": [
    {
      "inputs": [
        {
          "internalType": "address",
          "name": "priceApI",
          "type": "address"
        }
      ],
      "stateMutability": "nonpayable",
      "type": "constructor"
    },
    {
      "anonymous": false,
      "inputs": [
        {
          "indexed": false,
          "internalType": "uint256",
          "name": "amount",
          "type": "uint256"
        },
        {
          "indexed": false,
          "internalType": "uint256",
          "name": "amountOut",
          "type": "uint256"
        },
        {
          "indexed": false,
          "internalType": "address",
          "name": "from",
          "type": "address"
        },
        {
          "indexed": false,
          "internalType": "address",
          "name": "to",
          "type": "address"
        },
        {
          "indexed": false,
          "internalType": "uint256",
          "name": "timestamp",
          "type": "uint256"
        }
      ],
      "name": "FleepSwaped",
      "type": "event"
    },
    {
      "anonymous": false,
      "inputs": [
        {
          "indexed": false,
          "internalType": "address",
          "name": "token0",
          "type": "address"
        },
        {
          "indexed": false,
          "internalType": "address",
          "name": "token1",
          "type": "address"
        },
        {
          "indexed": false,
          "internalType": "uint256",
          "name": "amount0",
          "type": "uint256"
        },
        {
          "indexed": false,
          "internalType": "uint256",
          "name": "amount1",
          "type": "uint256"
        },
        {
          "indexed": false,
          "internalType": "address",
          "name": "provider",
          "type": "address"
        },
        {
          "indexed": false,
          "internalType": "uint256",
          "name": "timestamp",
          "type": "uint256"
        }
      ],
      "name": "LiquidProvided",
      "type": "event"
    },
    {
      "anonymous": false,
      "inputs": [
        {
          "indexed": false,
          "internalType": "address",
          "name": "token0",
          "type": "address"
        },
        {
          "indexed": false,
          "internalType": "address",
          "name": "token1",
          "type": "address"
        },
        {
          "indexed": false,
          "internalType": "uint256",
          "name": "amount0",
          "type": "uint256"
        },
        {
          "indexed": false,
          "internalType": "uint256",
          "name": "amount1",
          "type": "uint256"
        },
        {
          "indexed": false,
          "internalType": "address",
          "name": "provider",
          "type": "address"
        }
      ],
      "name": "LiquidRemoved",
      "type": "event"
    },
    {
      "inputs": [],
      "name": "NATIVE_PAIR",
      "outputs": [
        {
          "internalType": "address",
          "name": "",
          "type": "address"
        }
      ],
      "stateMutability": "view",
      "type": "function"
    },
    {
      "inputs": [
        {
          "internalType": "uint256",
          "name": "",
          "type": "uint256"
        }
      ],
      "name": "liquids",
      "outputs": [
        {
          "internalType": "uint256",
          "name": "id",
          "type": "uint256"
        },
        {
          "internalType": "uint256",
          "name": "poolId",
          "type": "uint256"
        },
        {
          "internalType": "uint256",
          "name": "amount0",
          "type": "uint256"
        },
        {
          "internalType": "uint256",
          "name": "amount1",
          "type": "uint256"
        },
        {
          "internalType": "address",
          "name": "provider",
          "type": "address"
        }
      ],
      "stateMutability": "view",
      "type": "function"
    },
    {
      "inputs": [
        {
          "internalType": "address",
          "name": "",
          "type": "address"
        }
      ],
      "name": "pairs",
      "outputs": [
        {
          "internalType": "address",
          "name": "",
          "type": "address"
        }
      ],
      "stateMutability": "view",
      "type": "function"
    },
    {
      "inputs": [
        {
          "internalType": "uint256",
          "name": "",
          "type": "uint256"
        }
      ],
      "name": "pools",
      "outputs": [
        {
          "internalType": "uint256",
          "name": "id",
          "type": "uint256"
        },
        {
          "internalType": "address",
          "name": "token0",
          "type": "address"
        },
        {
          "internalType": "address",
          "name": "token1",
          "type": "address"
        }
      ],
      "stateMutability": "view",
      "type": "function"
    },
    {
      "inputs": [
        {
          "internalType": "address",
          "name": "",
          "type": "address"
        }
      ],
      "name": "providers",
      "outputs": [
        {
          "internalType": "uint256",
          "name": "id",
          "type": "uint256"
        },
        {
          "internalType": "uint256",
          "name": "totalEarned",
          "type": "uint256"
        },
        {
          "internalType": "uint256",
          "name": "balance",
          "type": "uint256"
        },
        {
          "internalType": "address",
          "name": "vaultAddress",
          "type": "address"
        },
        {
          "internalType": "bool",
          "name": "autoStake",
          "type": "bool"
        }
      ],
      "stateMutability": "view",
      "type": "function"
    },
    {
      "inputs": [
        {
          "internalType": "address",
          "name": "token0",
          "type": "address"
        },
        {
          "internalType": "address",
          "name": "token1",
          "type": "address"
        }
      ],
      "name": "getPoolSize",
      "outputs": [
        {
          "internalType": "uint256",
          "name": "",
          "type": "uint256"
        },
        {
          "internalType": "uint256",
          "name": "",
          "type": "uint256"
        }
      ],
      "stateMutability": "view",
      "type": "function"
    },
    {
      "inputs": [
        {
          "internalType": "address",
          "name": "token0",
          "type": "address"
        },
        {
          "internalType": "address",
          "name": "token1",
          "type": "address"
        },
        {
          "internalType": "uint256",
          "name": "amount0",
          "type": "uint256"
        }
      ],
      "name": "estimate",
      "outputs": [
        {
          "internalType": "uint256",
          "name": "",
          "type": "uint256"
        }
      ],
      "stateMutability": "view",
      "type": "function"
    },
    {
      "inputs": [],
      "name": "getContractAddress",
      "outputs": [
        {
          "internalType": "address",
          "name": "",
          "type": "address"
        }
      ],
      "stateMutability": "view",
      "type": "function"
    },
    {
      "inputs": [],
      "name": "getNativePair",
      "outputs": [
        {
          "internalType": "address",
          "name": "",
          "type": "address"
        }
      ],
      "stateMutability": "view",
      "type": "function"
    },
    {
      "inputs": [
        {
          "internalType": "address",
          "name": "vaultAddress",
          "type": "address"
        }
      ],
      "name": "unlockedProviderAccount",
      "outputs": [],
      "stateMutability": "nonpayable",
      "type": "function"
    },
    {
      "inputs": [
        {
          "internalType": "address",
          "name": "token0",
          "type": "address"
        },
        {
          "internalType": "address",
          "name": "token1",
          "type": "address"
        },
        {
          "internalType": "uint256",
          "name": "amount0",
          "type": "uint256"
        }
      ],
      "name": "swap",
      "outputs": [
        {
          "internalType": "uint256",
          "name": "",
          "type": "uint256"
        }
      ],
      "stateMutability": "payable",
      "type": "function"
    },
    {
      "inputs": [
        {
          "internalType": "uint256",
          "name": "poolId",
          "type": "uint256"
        },
        {
          "internalType": "uint256",
          "name": "amount0",
          "type": "uint256"
        }
      ],
      "name": "provideLiquidity",
      "outputs": [],
      "stateMutability": "payable",
      "type": "function"
    },
    {
      "inputs": [
        {
          "internalType": "uint256",
          "name": "id",
          "type": "uint256"
        }
      ],
      "name": "removeLiquidity",
      "outputs": [],
      "stateMutability": "nonpayable",
      "type": "function"
    },
    {
      "inputs": [
        {
          "internalType": "address",
          "name": "token0",
          "type": "address"
        },
        {
          "internalType": "address",
          "name": "token1",
          "type": "address"
        }
      ],
      "name": "createPool",
      "outputs": [
        {
          "internalType": "uint256",
          "name": "",
          "type": "uint256"
        }
      ],
      "stateMutability": "nonpayable",
      "type": "function"
    },
    {
      "inputs": [
        {
          "internalType": "bool",
          "name": "_autoStake",
          "type": "bool"
        }
      ],
      "name": "updateProviderProfile",
      "outputs": [],
      "stateMutability": "nonpayable",
      "type": "function"
    },
    {
      "inputs": [
        {
          "internalType": "uint256",
          "name": "amount",
          "type": "uint256"
        }
      ],
      "name": "withDrawEarnings",
      "outputs": [],
      "stateMutability": "nonpayable",
      "type": "function"
    },
    {
      "inputs": [
        {
          "internalType": "address",
          "name": "receiver",
          "type": "address"
        }
      ],
      "name": "withDrawEarningsToVault",
      "outputs": [],
      "stateMutability": "nonpayable",
      "type": "function"
    },
    {
      "inputs": [
        {
          "internalType": "address",
          "name": "pair",
          "type": "address"
        }
      ],
      "name": "updateNativePair",
      "outputs": [],
      "stateMutability": "nonpayable",
      "type": "function"
    },
    {
      "inputs": [
        {
          "internalType": "uint256",
          "name": "fee",
          "type": "uint256"
        }
      ],
      "name": "updateSwapFee",
      "outputs": [],
      "stateMutability": "nonpayable",
      "type": "function"
    },
    {
      "inputs": [
        {
          "internalType": "address",
          "name": "token",
          "type": "address"
        },
        {
          "internalType": "address",
          "name": "pair",
          "type": "address"
        }
      ],
      "name": "createPair",
      "outputs": [],
      "stateMutability": "nonpayable",
      "type": "function"
    },
    {
      "inputs": [
        {
          "internalType": "uint256",
          "name": "amount",
          "type": "uint256"
        },
        {
          "internalType": "address",
          "name": "receiver",
          "type": "address"
        }
      ],
      "name": "withDrawPlaformEarnings",
      "outputs": [],
      "stateMutability": "nonpayable",
      "type": "function"
    },
    {
      "inputs": [
        {
          "internalType": "address",
          "name": "token0",
          "type": "address"
        },
        {
          "internalType": "uint256",
          "name": "amount0",
          "type": "uint256"
        },
        {
          "internalType": "uint256",
          "name": "amount1",
          "type": "uint256"
        },
        {
          "internalType": "address",
          "name": "owner",
          "type": "address"
        }
      ],
      "name": "_transferSwappedTokens1",
      "outputs": [
        {
          "internalType": "uint256",
          "name": "",
          "type": "uint256"
        }
      ],
      "stateMutability": "payable",
      "type": "function"
    },
    {
      "inputs": [],
      "name": "testnetHelper2",
      "outputs": [],
      "stateMutability": "nonpayable",
      "type": "function"
    }
  ],
  "bytecode": "0x608060405260016003553480156200001657600080fd5b506040516200314838038062003148833981016040819052620000399162000422565b600080546001600160a01b0383166001600160a01b03199182161790915560018054909116331790556200006c62000073565b5062000454565b6001546001600160a01b03163314620000c35760405162461bcd60e51b815260206004820152600d60248201526c27b7363c902232b83637bcb2b960991b60448201526064015b60405180910390fd5b620000e273d0d5e3db44de05e9f294bb0a3beeaf030de24ada62000232565b6200011573c0ec2dca88dbe3c91518958c935ce250c718f0eb727a22900a3b98143368bd5906f8e17e9867581b620002f8565b62000149733814cf88e2675041504c7d6404f7b8978f8b65b4730fcaa9c899ec5a91ebc3d5dd869de833b06fb046620002f8565b6200017d7360d4a61940ac5e59cbdaf05e7f702b26048320bf730715a7794a1dc8e42615f059dd6e406a6594651a620002f8565b60085462000195906001600160a01b031680620002f8565b620001c872f5153e9608217dba32c6c706fef5ad97016842739dd18534b8f456557d11b9ddb14da89b2e52e308620002f8565b620001fc73304379dfa42b7127de0db93bce597bedba18b25973572ddec9087154dc5dfbb1546bb62713147e0ab0620002f8565b6200023073d24ac22e0fb3694d0318c9e56e1e99d170a318647392c09849638959196e976289418e5973cc96d645620002f8565b565b6001546001600160a01b031633146200027e5760405162461bcd60e51b815260206004820152600d60248201526c27b7363c902232b83637bcb2b960991b6044820152606401620000ba565b6001600160a01b038116620002d65760405162461bcd60e51b815260206004820152601460248201527f496e76616c6964205061697220416464726573730000000000000000000000006044820152606401620000ba565b600880546001600160a01b0319166001600160a01b0392909216919091179055565b6001546001600160a01b03163314620003445760405162461bcd60e51b815260206004820152600d60248201526c27b7363c902232b83637bcb2b960991b6044820152606401620000ba565b6001600160a01b0382166200039c5760405162461bcd60e51b815260206004820152601560248201527f496e76616c696420546f6b656e204164647265737300000000000000000000006044820152606401620000ba565b6001600160a01b038116620003f45760405162461bcd60e51b815260206004820152601460248201527f496e76616c6964205061697220416464726573730000000000000000000000006044820152606401620000ba565b6001600160a01b03918216600090815260076020526040902080546001600160a01b03191691909216179055565b6000602082840312156200043557600080fd5b81516001600160a01b03811681146200044d57600080fd5b9392505050565b612ce480620004646000396000f3fe6080604052600436106101805760003560e01c80638a2627f0116100d6578063d30dce7d1161007f578063ecd44aef11610059578063ecd44aef146104a4578063eebb63ed146104d9578063fe33b3021461055d57600080fd5b8063d30dce7d14610451578063df791e5014610471578063e34336151461048457600080fd5b8063ac4afa38116100b0578063ac4afa38146103a4578063bf16f65a14610411578063c9c653961461043157600080fd5b80638a2627f01461034657806391e5f37f146103645780639c8f9f231461038457600080fd5b80634c133bbe1161013857806378c480db1161011257806378c480db146102fe5780637a16af7f1461031e5780638625ed131461033157600080fd5b80634c133bbe1461029c57806351fde344146102be578063665a9a2d146102de57600080fd5b8063102a5f9111610169578063102a5f911461023557806332a2c5d014610255578063344bfb591461027c57600080fd5b8063061bf045146101855780630787bc27146101ab575b600080fd5b610198610193366004612a6c565b610593565b6040519081526020015b60405180910390f35b3480156101b757600080fd5b506102026101c6366004612ab2565b600a602052600090815260409020805460018201546002830154600390930154919290916001600160a01b03811690600160a01b900460ff1685565b604080519586526020860194909452928401919091526001600160a01b031660608301521515608082015260a0016101a2565b34801561024157600080fd5b50610198610250366004612acd565b61067a565b34801561026157600080fd5b50305b6040516001600160a01b0390911681526020016101a2565b34801561028857600080fd5b50600854610264906001600160a01b031681565b3480156102a857600080fd5b506102bc6102b7366004612ab2565b610749565b005b3480156102ca57600080fd5b506102bc6102d9366004612b17565b610952565b3480156102ea57600080fd5b506102bc6102f9366004612ab2565b6109e9565b34801561030a57600080fd5b506102bc610319366004612b3b565b610af1565b6102bc61032c366004612b67565b610bdf565b34801561033d57600080fd5b506102bc611047565b34801561035257600080fd5b506008546001600160a01b0316610264565b34801561037057600080fd5b506102bc61037f366004612ab2565b61126e565b34801561039057600080fd5b506102bc61039f366004612b89565b61133d565b3480156103b057600080fd5b506103ec6103bf366004612b89565b60096020526000908152604090208054600182015460029092015490916001600160a01b03908116911683565b604080519384526001600160a01b0392831660208501529116908201526060016101a2565b34801561041d57600080fd5b506102bc61042c366004612b89565b611642565b34801561043d57600080fd5b506102bc61044c366004612ba2565b611731565b34801561045d57600080fd5b506102bc61046c366004612b89565b611862565b61019861047f366004612acd565b61196a565b34801561049057600080fd5b5061019861049f366004612ba2565b611ef0565b3480156104b057600080fd5b506104c46104bf366004612ba2565b611f51565b604080519283526020830191909152016101a2565b3480156104e557600080fd5b5061052c6104f4366004612b89565b600b6020526000908152604090208054600182015460028301546003840154600490940154929391929091906001600160a01b031685565b6040805195865260208601949094529284019190915260608301526001600160a01b0316608082015260a0016101a2565b34801561056957600080fd5b50610264610578366004612ab2565b6007602052600090815260409020546001600160a01b031681565b600354600090859082906105a8606487612be2565b6105b29190612c04565b6040516323b872dd60e01b81526001600160a01b03868116600483015230602483015260448201899052919250908316906323b872dd906064016020604051808303816000875af115801561060b573d6000803e3d6000fd5b505050506040513d601f19601f8201168201806040525081019061062f9190612c23565b506001600160a01b0384166108fc6106478388612c40565b6040518115909202916000818181858888f1935050505015801561066f573d6000803e3d6000fd5b509695505050505050565b600080546001600160a01b038581168352600760205260408084205486831685528185205491517fbaaa61be000000000000000000000000000000000000000000000000000000008152908316600482015290821660248201528392919091169063baaa61be90604401602060405180830381865afa158015610701573d6000803e3d6000fd5b505050506040513d601f19601f820116820180604052508101906107259190612c53565b90506305f5e1006107368285612c04565b6107409190612be2565b95945050505050565b336000908152600a6020526040902054156107ab5760405162461bcd60e51b815260206004820152600a60248201527f4f6e6c792047756573740000000000000000000000000000000000000000000060448201526064015b60405180910390fd5b6001600160a01b0381166108015760405162461bcd60e51b815260206004820152601560248201527f496e76616c6964205661756c742041646472657373000000000000000000000060448201526064016107a2565b6006805490600061081183612c6c565b90915550506040805160c0810182526006548152336000818152600a60208181528583206001810154828701526002810154868801526001600160a01b03881660608701526080860184905293909252815260049091018054845181840281018401909552808552929360a085019390928301828280156108b157602002820191906000526020600020905b81548152602001906001019080831161089d575b505050919092525050336000908152600a602090815260409182902083518155838201516001820155918301516002830155606083015160038301805460808601511515600160a01b027fffffffffffffffffffffff0000000000000000000000000000000000000000009091166001600160a01b03939093169290921791909117905560a0830151805161094c92600485019201906129f0565b50505050565b336000908152600a602052604081205490036109a05760405162461bcd60e51b815260206004820152600d60248201526c27b7363c90283937bb34b232b960991b60448201526064016107a2565b336000908152600a602052604090206003018054911515600160a01b027fffffffffffffffffffffff00ffffffffffffffffffffffffffffffffffffffff909216919091179055565b336000908152600a60205260408120549003610a375760405162461bcd60e51b815260206004820152600d60248201526c27b7363c90283937bb34b232b960991b60448201526064016107a2565b336000908152600a6020526040902060020154610a546001611f77565b811015610aa35760405162461bcd60e51b815260206004820152601f60248201527f42616c616e6365204d7573742062652061746c656173742031204d415449430060448201526064016107a2565b6040516001600160a01b0383169082156108fc029083906000818181858888f19350505050158015610ad9573d6000803e3d6000fd5b5050336000908152600a602052604081206002015550565b6001546001600160a01b03163314610b3b5760405162461bcd60e51b815260206004820152600d60248201526c27b7363c902232b83637bcb2b960991b60448201526064016107a2565b816002541015610b8d5760405162461bcd60e51b815260206004820152601460248201527f496e73756666696369656e742042616c616e636500000000000000000000000060448201526064016107a2565b6040516001600160a01b0382169083156108fc029084906000818181858888f19350505050158015610bc3573d6000803e3d6000fd5b508160026000828254610bd69190612c40565b90915550505050565b336000908152600a60205260408120549003610c2d5760405162461bcd60e51b815260206004820152600d60248201526c27b7363c90283937bb34b232b960991b60448201526064016107a2565b6064811015610ca35760405162461bcd60e51b8152602060048201526024808201527f416d6f756e742063616e6e6f74206265206c6573736572207468616e2031303060448201527f205745490000000000000000000000000000000000000000000000000000000060648201526084016107a2565b600854600083815260096020526040812060010154909183916001600160a01b03918216911603610e095760643411610d445760405162461bcd60e51b815260206004820152602360248201527f4d617469632063616e6e6f74206265206c6573736572207468616e20314f4f2060448201527f574549000000000000000000000000000000000000000000000000000000000060648201526084016107a2565b50600083815260096020526040902060018101546002909101543491610d77916001600160a01b0391821691168361067a565b600085815260096020526040908190206002015490516323b872dd60e01b8152336004820152306024820152604481018390529193506001600160a01b0316906323b872dd906064016020604051808303816000875af1158015610ddf573d6000803e3d6000fd5b505050506040513d601f19601f82011682018060405250810190610e039190612c23565b50610f53565b60008481526009602052604090206001810154600290910154610e39916001600160a01b0390811691168361067a565b600085815260096020526040908190206001015490516323b872dd60e01b8152336004820152306024820152604481018490529193506001600160a01b0316906323b872dd906064016020604051808303816000875af1158015610ea1573d6000803e3d6000fd5b505050506040513d601f19601f82011682018060405250810190610ec59190612c23565b50600084815260096020526040908190206002015490516323b872dd60e01b8152336004820152306024820152604481018490526001600160a01b03909116906323b872dd906064016020604051808303816000875af1158015610f2d573d6000803e3d6000fd5b505050506040513d601f19601f82011682018060405250810190610f519190612c23565b505b6000610f5f8533611f8b565b90508015610fb9576000818152600b602052604081206002018054849290610f88908490612c85565b90915550506000818152600b602052604081206003018054859290610fae908490612c85565b90915550610fc59050565b610fc585838533612074565b600085815260096020908152604091829020600181015460029091015483516001600160a01b039283168152911691810191909152908101839052606081018490523360808201524260a08201527f461ecd615ea1465ce04ee1aa1810891df016f8b506e515ba3a18bb12f54962e59060c00160405180910390a15050505050565b61107973c0ec2dca88dbe3c91518958c935ce250c718f0eb733814cf88e2675041504c7d6404f7b8978f8b65b4611ef0565b506110ac73c0ec2dca88dbe3c91518958c935ce250c718f0eb7360d4a61940ac5e59cbdaf05e7f702b26048320bf611ef0565b506110de73c0ec2dca88dbe3c91518958c935ce250c718f0eb72f5153e9608217dba32c6c706fef5ad97016842611ef0565b5061111173c0ec2dca88dbe3c91518958c935ce250c718f0eb73304379dfa42b7127de0db93bce597bedba18b259611ef0565b5061114473c0ec2dca88dbe3c91518958c935ce250c718f0eb73d24ac22e0fb3694d0318c9e56e1e99d170a31864611ef0565b506111777360d4a61940ac5e59cbdaf05e7f702b26048320bf73d24ac22e0fb3694d0318c9e56e1e99d170a31864611ef0565b506111a97360d4a61940ac5e59cbdaf05e7f702b26048320bf72f5153e9608217dba32c6c706fef5ad97016842611ef0565b506111db72f5153e9608217dba32c6c706fef5ad9701684273d24ac22e0fb3694d0318c9e56e1e99d170a31864611ef0565b5061120d72f5153e9608217dba32c6c706fef5ad97016842733814cf88e2675041504c7d6404f7b8978f8b65b4611ef0565b50611240733814cf88e2675041504c7d6404f7b8978f8b65b47360d4a61940ac5e59cbdaf05e7f702b26048320bf611ef0565b5060085461126b906001600160a01b031673d24ac22e0fb3694d0318c9e56e1e99d170a31864611ef0565b50565b6001546001600160a01b031633146112b85760405162461bcd60e51b815260206004820152600d60248201526c27b7363c902232b83637bcb2b960991b60448201526064016107a2565b6001600160a01b03811661130e5760405162461bcd60e51b815260206004820152601460248201527f496e76616c69642050616972204164647265737300000000000000000000000060448201526064016107a2565b6008805473ffffffffffffffffffffffffffffffffffffffff19166001600160a01b0392909216919091179055565b336000908152600a6020526040812054900361138b5760405162461bcd60e51b815260206004820152600d60248201526c27b7363c90283937bb34b232b960991b60448201526064016107a2565b6000818152600b60205260409020600401546001600160a01b031633146113f45760405162461bcd60e51b815260206004820152600c60248201527f556e617574686f72697a6564000000000000000000000000000000000000000060448201526064016107a2565b6000818152600b60209081526040808320600190810154845260098352818420825160808101845281548152918101546001600160a01b039081168386015260028201541682840152600381018054845181870281018701909552808552929491936060860193909283018282801561148c57602002820191906000526020600020905b815481526020019060010190808311611478575b505050919092525050506020818101516040808401516000878152600b9094529281902060020154905163a9059cbb60e01b81523360048201526024810191909152929350916001600160a01b0383169063a9059cbb906044016020604051808303816000875af1158015611505573d6000803e3d6000fd5b505050506040513d601f19601f820116820180604052508101906115299190612c23565b506000848152600b60205260409081902060030154905163a9059cbb60e01b815233600482015260248101919091526001600160a01b0382169063a9059cbb906044016020604051808303816000875af115801561158b573d6000803e3d6000fd5b505050506040513d601f19601f820116820180604052508101906115af9190612c23565b506000848152600b6020908152604091829020600281015460039091015483516001600160a01b0380881682528616938101939093529282015260608101919091523360808201527f5e6147f7a7f2044d0306f332242c42c794194f3d418ce70addd36933a5032a179060a00160405180910390a15050506000908152600b602052604081206002810182905560030155565b6001546001600160a01b0316331461168c5760405162461bcd60e51b815260206004820152600d60248201526c27b7363c902232b83637bcb2b960991b60448201526064016107a2565b600081116116dc5760405162461bcd60e51b815260206004820152601b60248201527f506c6174666f726d206665652063616e6e6f74206265207a65726f000000000060448201526064016107a2565b6064811061172c5760405162461bcd60e51b815260206004820181905260248201527f506c6174666f726d206665652063616e6e6f7420626520612068756e6472656460448201526064016107a2565b600355565b6001546001600160a01b0316331461177b5760405162461bcd60e51b815260206004820152600d60248201526c27b7363c902232b83637bcb2b960991b60448201526064016107a2565b6001600160a01b0382166117d15760405162461bcd60e51b815260206004820152601560248201527f496e76616c696420546f6b656e2041646472657373000000000000000000000060448201526064016107a2565b6001600160a01b0381166118275760405162461bcd60e51b815260206004820152601460248201527f496e76616c69642050616972204164647265737300000000000000000000000060448201526064016107a2565b6001600160a01b039182166000908152600760205260409020805473ffffffffffffffffffffffffffffffffffffffff191691909216179055565b336000908152600a602052604081205490036118b05760405162461bcd60e51b815260206004820152600d60248201526c27b7363c90283937bb34b232b960991b60448201526064016107a2565b336000908152600a60205260409020600201548111156119125760405162461bcd60e51b815260206004820152601460248201527f496e73756666696369656e742042616c616e636500000000000000000000000060448201526064016107a2565b604051339082156108fc029083906000818181858888f1935050505015801561193f573d6000803e3d6000fd5b50336000908152600a602052604081206002018054839290611962908490612c40565b909155505050565b600060648210156119e35760405162461bcd60e51b815260206004820152602c60248201527f416d6f756e7420746f20737761702063616e6e6f74206265206c65737365722060448201527f7468616e2031303020574549000000000000000000000000000000000000000060648201526084016107a2565b600082816119f18787612155565b600081815260096020526040902054909150611a4f5760405162461bcd60e51b815260206004820152601460248201527f506f6f6c20646f6573206e6f742065786973747300000000000000000000000060448201526064016107a2565b6008546000828152600960205260409020600101546001600160a01b03918216911603611c1257600854600082815260096020526040902060020154349350611aa5916001600160a01b0390811691168461067a565b92506000611ab282612293565b91505083811015611b055760405162461bcd60e51b815260206004820152601660248201527f496e73756666696369656e7420506f6f6c2053697a650000000000000000000060448201526064016107a2565b600082815260096020526040812060020154611b2b906001600160a01b03168633612347565b905060006064611b3c836050612c04565b611b469190612be2565b9050611b528183612c40565b60026000828254611b639190612c85565b909155505060008481526009602090815260409182902082516080810184528154815260018201546001600160a01b039081168285015260028301541681850152600382018054855181860281018601909652808652611c0a958b958d958b95949093606086019392830182828015611bfb57602002820191906000526020600020905b815481526020019060010190808311611be7575b5050505050815250508561242c565b505050611e8f565b6008546000828152600960205260409020600201546001600160a01b03918216911603611cec57600081815260096020526040902060010154600854611c65916001600160a01b0390811691168461067a565b92506000611c7282612293565b50905083811015611cc55760405162461bcd60e51b815260206004820152601660248201527f496e73756666696369656e7420506f6f6c2053697a650000000000000000000060448201526064016107a2565b600082815260096020526040812060010154611b2b906001600160a01b0316858733610593565b60008181526009602052604090206001810154600290910154611d1c916001600160a01b0390811691168461067a565b92506000611d2982612293565b91505083811015611d7c5760405162461bcd60e51b815260206004820152601660248201527f496e73756666696369656e7420506f6f6c2053697a650000000000000000000060448201526064016107a2565b60008281526009602052604081206001810154600290910154611dae916001600160a01b039081169116868833612625565b905060006064611dbf836050612c04565b611dc99190612be2565b9050611dd58183612c40565b60026000828254611de69190612c85565b909155505060008481526009602090815260409182902082516080810184528154815260018201546001600160a01b039081168285015260028301541681850152600382018054855181860281018601909652808652611e8b958b958d958b95949093606086019392830182828015611bfb5760200282019190600052602060002090815481526020019060010190808311611be7575050505050815250508561242c565b5050505b60408051868152602081018590526001600160a01b03898116828401528816606082015242608082015290517f649451cb6bd28801e8992e83f834233301eb39b64a665a45b1e08d3e13ff679a9181900360a00190a1509095945050505050565b336000908152600a60205260408120548103611f3e5760405162461bcd60e51b815260206004820152600d60248201526c27b7363c90283937bb34b232b960991b60448201526064016107a2565b611f48838361278b565b90505b92915050565b6000806000611f608585612155565b9050611f6b81612293565b92509250509250929050565b6000611f4b82670de0b6b3a7640000612c04565b6001600160a01b0381166000908152600a6020908152604080832060040180548251818502810185019093528083528493830182828015611feb57602002820191906000526020600020905b815481526020019060010190808311611fd7575b5050505050905060005b81518110156120695784600b600084848151811061201557612015612c98565b6020026020010151815260200190815260200160002060010154036120575781818151811061204657612046612c98565b602002602001015192505050611f4b565b8061206181612c6c565b915050611ff5565b506000949350505050565b6005805490600061208483612c6c565b90915550506040805160a081018252600580548083526020808401898152848601988952606085019788526001600160a01b03968716608086018181526000948552600b845287852096518755915160018088019190915599516002870155975160038087019190915590516004958601805473ffffffffffffffffffffffffffffffffffffffff191691909816179096559781526009885283812082549501805480890182559082528882200194909455938352600a865290822092549201805493840181558152929092200155565b60006001600160a01b0383161580159061217757506001600160a01b03821615155b6121c35760405162461bcd60e51b815260206004820152601360248201527f496e76616c696420506f6f6c20546f6b656e730000000000000000000000000060448201526064016107a2565b60005b6004548111612289576000818152600960205260409020600101546001600160a01b03858116911614801561221757506000818152600960205260409020600201546001600160a01b038481169116145b15612223579050611f4b565b6000818152600960205260409020600101546001600160a01b03848116911614801561226b57506000818152600960205260409020600201546001600160a01b038581169116145b15612277579050611f4b565b8061228181612c6c565b9150506121c6565b5060009392505050565b60008060008060005b60008681526009602052604090206003015481101561233c5760008681526009602052604081206003018054839081106122d8576122d8612c98565b90600052602060002001549050600b600082815260200190815260200160002060020154846123079190612c85565b6000828152600b60205260409020600301549094506123269084612c85565b925050808061233490612c6c565b91505061229c565b509094909350915050565b6003546000908490829061235c606487612be2565b6123669190612c04565b90506001600160a01b03821663a9059cbb856123828489612c40565b6040517fffffffff0000000000000000000000000000000000000000000000000000000060e085901b1681526001600160a01b03909216600483015260248201526044016020604051808303816000875af11580156123e5573d6000803e3d6000fd5b505050506040513d601f19601f820116820180604052508101906124099190612c23565b506008546124229087906001600160a01b03168361067a565b9695505050505050565b60005b82606001515181101561261d5760008360600151828151811061245457612454612c98565b6020026020010151905060008588600b6000858152602001908152602001600020600301546124839190612c04565b61248d9190612be2565b905080600b600084815260200190815260200160002060020160008282546124b59190612c85565b90915550506000828152600b602052604081206003015487906124d9908a90612c04565b6124e39190612be2565b905080600b6000858152602001908152602001600020600301600082825461250b9190612c40565b90915550506000838152600b6020526040812060030154889061252f908890612c04565b6125399190612be2565b6000858152600b60209081526040808320600401546001600160a01b0316808452600a909252822060010180549394509092849290612579908490612c85565b90915550506001600160a01b0381166000908152600a6020526040812060020180548492906125a9908490612c85565b90915550506001600160a01b0381166000908152600a6020526040902060030154600160a01b900460ff16801561260457506125e56001611f77565b6001600160a01b0382166000908152600a602052604090206002015410155b505050505050808061261590612c6c565b91505061242f565b505050505050565b60035460009086908690839061263c606488612be2565b6126469190612c04565b6040516323b872dd60e01b81526001600160a01b038781166004830152306024830152604482018a9052919250908416906323b872dd906064016020604051808303816000875af115801561269f573d6000803e3d6000fd5b505050506040513d601f19601f820116820180604052508101906126c39190612c23565b506001600160a01b03821663a9059cbb866126de848a612c40565b6040517fffffffff0000000000000000000000000000000000000000000000000000000060e085901b1681526001600160a01b03909216600483015260248201526044016020604051808303816000875af1158015612741573d6000803e3d6000fd5b505050506040513d601f19601f820116820180604052508101906127659190612c23565b5060085461277e9089906001600160a01b03168361067a565b9998505050505050505050565b6001600160a01b038281166000908152600760205260408120549091166128005760405162461bcd60e51b815260206004820152602360248201527f5061697220646f6573206e6f74206578697374732c20436f6e7461637420616460448201526236b4b760e91b60648201526084016107a2565b6001600160a01b03828116600090815260076020526040902054166128735760405162461bcd60e51b815260206004820152602360248201527f5061697220646f6573206e6f74206578697374732c20436f6e7461637420616460448201526236b4b760e91b60648201526084016107a2565b600061287f8484612155565b1580159150612892576000915050611f4b565b600480549060006128a283612c6c565b9091555050600454600090815260096020908152604080832081516080810183528154815260018201546001600160a01b03908116828601526002830154168184015260038201805484518187028101870190955280855291949293606086019390929083018282801561293557602002820191906000526020600020905b815481526020019060010190808311612921575b505050919092525050604080516080810182526004548082526001600160a01b03808b1660208085019182528b83168587019081526060808a01519087019081526000958652600983529690942085518155915160018301805491851673ffffffffffffffffffffffffffffffffffffffff199283161790559351600283018054919094169416939093179091559251805195965091949293506129e1926003850192909101906129f0565b50506004549695505050505050565b828054828255906000526020600020908101928215612a2b579160200282015b82811115612a2b578251825591602001919060010190612a10565b50612a37929150612a3b565b5090565b5b80821115612a375760008155600101612a3c565b80356001600160a01b0381168114612a6757600080fd5b919050565b60008060008060808587031215612a8257600080fd5b612a8b85612a50565b93506020850135925060408501359150612aa760608601612a50565b905092959194509250565b600060208284031215612ac457600080fd5b611f4882612a50565b600080600060608486031215612ae257600080fd5b612aeb84612a50565b9250612af960208501612a50565b9150604084013590509250925092565b801515811461126b57600080fd5b600060208284031215612b2957600080fd5b8135612b3481612b09565b9392505050565b60008060408385031215612b4e57600080fd5b82359150612b5e60208401612a50565b90509250929050565b60008060408385031215612b7a57600080fd5b50508035926020909101359150565b600060208284031215612b9b57600080fd5b5035919050565b60008060408385031215612bb557600080fd5b612bbe83612a50565b9150612b5e60208401612a50565b634e487b7160e01b600052601160045260246000fd5b600082612bff57634e487b7160e01b600052601260045260246000fd5b500490565b6000816000190483118215151615612c1e57612c1e612bcc565b500290565b600060208284031215612c3557600080fd5b8151612b3481612b09565b81810381811115611f4b57611f4b612bcc565b600060208284031215612c6557600080fd5b5051919050565b600060018201612c7e57612c7e612bcc565b5060010190565b80820180821115611f4b57611f4b612bcc565b634e487b7160e01b600052603260045260246000fdfea26469706673582212208e45fe38cd3026073370a96ee7ec0fe025c55f550b64956712b5d44b98b14b6564736f6c63430008100033",
  "immutableReferences": {},
  "source": "// SPDX-License-Identifier: GPL-3.0\npragma solidity >=0.7.0 <0.9.0;\n\nimport {PriceApi} from \"./PriceApi.sol\";\nimport {IERC20} from \"@openzeppelin/contracts/token/ERC20/IERC20.sol\";\n\ncontract Swap {\n    PriceApi private _priceApi;\n\n    // contract admin\n    address private _deployer;\n    uint256 private _platformProfit;\n\n    // charges 1% fee on every successful swaps\n    uint private swapFee = 1;\n\n    // ids to avoid conflicts\n    uint256 private POOL_ID;\n    uint256 private LIQUID_ID;\n    uint256 private PROVIDER_ID;\n\n    // token contract address => chainlink aggregrator address\n    // only in the token paired to USD format\n    mapping(address => address) public pairs;\n\n    // is a member of the pairs mapping\n    // but its the native pair MATIC not IERC20\n    address public NATIVE_PAIR;\n\n    // id => liquidity pools\n    mapping(uint => Pool) public pools;\n    // user address => provider data\n    mapping(address => Provider) public providers;\n    // id => liquids\n    mapping(uint => Liquid) public liquids;\n\n    // === Events === //\n\n    event LiquidProvided(\n        address token0,\n        address token1,\n        uint256 amount0,\n        uint256 amount1,\n        address provider,\n        uint timestamp\n    );\n\n    event LiquidRemoved(\n        address token0,\n        address token1,\n        uint256 amount0,\n        uint256 amount1,\n        address provider\n    );\n\n    event FleepSwaped(\n        uint256 amount,\n        uint256 amountOut,\n        address from,\n        address to,\n        uint timestamp\n    );\n\n    // === Structs === //\n\n    struct Pool {\n        uint id;\n        address token0;\n        address token1;\n        uint[] liquids;\n    }\n\n    struct Liquid {\n        uint id;\n        uint poolId;\n        uint256 amount0;\n        uint256 amount1;\n        address provider;\n    }\n\n    struct Provider {\n        uint id;\n        uint256 totalEarned;\n        uint256 balance;\n        address vaultAddress;\n        bool autoStake;\n        uint[] liquids;\n    }\n\n    constructor(address priceApI) {\n        _priceApi = PriceApi(priceApI);\n        _deployer = msg.sender;\n\n        testnetHelper();\n    }\n\n    // calculates all the size of the liquids\n    // in a pool of token pair\n    function getPoolSize(\n        address token0,\n        address token1\n    ) public view returns (uint256, uint256) {\n        uint poolId = _findPool(token0, token1);\n        return _poolSize(poolId);\n    }\n\n    // gets the exchanges rates for pair of tokens\n    // with accordance to amount of tokens\n    function estimate(\n        address token0,\n        address token1,\n        uint256 amount0 // in wei\n    ) public view returns (uint256) {\n        int256 rate = _priceApi.getExchangeRate(pairs[token0], pairs[token1]);\n        return (amount0 * uint256(rate)) / (10 ** 8);\n    }\n\n    // returns the contract address\n    function getContractAddress() public view returns (address) {\n        return address(this);\n    }\n\n    // returns the pair address for $MATIC\n    function getNativePair() public view returns (address) {\n        return NATIVE_PAIR;\n    }\n\n    // register as a provider\n    function unlockedProviderAccount(address vaultAddress) public onlyGuest {\n        require(vaultAddress != address(0), \"Invalid Vault Address\");\n\n        PROVIDER_ID++;\n        providers[msg.sender] = Provider(\n            PROVIDER_ID,\n            providers[msg.sender].totalEarned,\n            providers[msg.sender].balance,\n            vaultAddress,\n            false,\n            providers[msg.sender].liquids\n        );\n    }\n\n    // === Swapping === //\n\n    function swap(\n        address token0,\n        address token1,\n        uint256 amount0\n    ) public payable returns (uint256) {\n        require(amount0 >= 100, \"Amount to swap cannot be lesser than 100 WEI\");\n\n        uint256 amount1;\n        uint256 _safeAmount0 = amount0;\n\n        uint poolId = _findPool(token0, token1);\n        require(pools[poolId].id > 0, \"Pool does not exists\");\n\n        // MATIC => ERC20\n        if (pools[poolId].token0 == NATIVE_PAIR) {\n            _safeAmount0 = msg.value;\n            amount1 = estimate(NATIVE_PAIR, pools[poolId].token1, _safeAmount0);\n\n            // check if contract has enough destination token liquid\n            (, uint256 poolSizeToken1) = _poolSize(poolId);\n            require(poolSizeToken1 >= amount1, \"Insufficient Pool Size\");\n\n            uint256 fee = _transferSwappedTokens0(\n                pools[poolId].token1,\n                amount1,\n                msg.sender\n            );\n\n            uint256 providersReward = ((fee * 80) / 100);\n            _platformProfit += (fee - providersReward);\n\n            _aggregateLiquids(\n                _safeAmount0,\n                amount1,\n                poolSizeToken1,\n                pools[poolId],\n                providersReward\n            );\n        } else if (pools[poolId].token1 == NATIVE_PAIR) {\n            // ERC20 => MATIC\n            amount1 = estimate(pools[poolId].token0, NATIVE_PAIR, _safeAmount0);\n\n            // check if contract has enough destination token liquid\n            (uint256 poolSizeToken1, ) = _poolSize(poolId);\n            require(poolSizeToken1 >= amount1, \"Insufficient Pool Size\");\n\n            uint256 fee = _transferSwappedTokens1(\n                pools[poolId].token0,\n                _safeAmount0,\n                amount1,\n                msg.sender\n            );\n\n            uint256 providersReward = ((fee * 80) / 100);\n            _platformProfit += (fee - providersReward);\n\n            _aggregateLiquids(\n                _safeAmount0,\n                amount1,\n                poolSizeToken1,\n                pools[poolId],\n                providersReward\n            );\n        } else {\n            // ERC0 => ERC2O\n            amount1 = estimate(\n                pools[poolId].token0,\n                pools[poolId].token1,\n                _safeAmount0\n            );\n\n            // check if contract has enough destination token liquid\n            (, uint256 poolSizeToken1) = _poolSize(poolId);\n            require(poolSizeToken1 >= amount1, \"Insufficient Pool Size\");\n\n            uint256 fee = _transferSwappedTokens2(\n                pools[poolId].token0,\n                pools[poolId].token1,\n                _safeAmount0,\n                amount1,\n                msg.sender\n            );\n\n            uint256 providersReward = ((fee * 80) / 100);\n            _platformProfit += (fee - providersReward);\n\n            _aggregateLiquids(\n                _safeAmount0,\n                amount1,\n                poolSizeToken1,\n                pools[poolId],\n                providersReward\n            );\n        }\n\n        // store the swap data on-chain\n        emit FleepSwaped(amount0, amount1, token0, token1, block.timestamp);\n\n        return amount1;\n    }\n\n    // === Providers === //\n\n    function provideLiquidity(\n        uint poolId,\n        uint256 amount0\n    ) public payable onlyProvider {\n        require(amount0 >= 100, \"Amount cannot be lesser than 100 WEI\");\n\n        uint256 amount1;\n        uint256 _safeAmount0 = amount0;\n\n        if (pools[poolId].token0 == NATIVE_PAIR) {\n            require(msg.value > 100, \"Matic cannot be lesser than 1OO WEI\");\n            // only in format of MATIC as pair subject\n            // ex MATIC/XEND\n\n            _safeAmount0 = msg.value;\n            // get the estimate for token1\n            amount1 = estimate(\n                pools[poolId].token0,\n                pools[poolId].token1,\n                _safeAmount0\n            );\n            // stake token1 to smart contract\n            IERC20(pools[poolId].token1).transferFrom(\n                msg.sender,\n                address(this),\n                amount1\n            );\n        } else {\n            // get the estimate for token1\n            amount1 = estimate(\n                pools[poolId].token0,\n                pools[poolId].token1,\n                _safeAmount0\n            );\n            // stake tokens to smart contract\n            IERC20(pools[poolId].token0).transferFrom(\n                msg.sender,\n                address(this),\n                _safeAmount0\n            );\n            IERC20(pools[poolId].token1).transferFrom(\n                msg.sender,\n                address(this),\n                amount1\n            );\n        }\n\n        uint liquidId = _liquidIndex(poolId, msg.sender);\n\n        if (liquidId > 0) {\n            // if liquid exist increment the amount\n            liquids[liquidId].amount0 += _safeAmount0;\n            liquids[liquidId].amount1 += amount1;\n        } else {\n            // otherwise create the new liquid\n            _createLiquid(poolId, _safeAmount0, amount1, msg.sender);\n        }\n\n        // store the liquidity data on-chain\n        emit LiquidProvided(\n            pools[poolId].token0,\n            pools[poolId].token1,\n            _safeAmount0,\n            amount1,\n            msg.sender,\n            block.timestamp\n        );\n    }\n\n    function removeLiquidity(uint id) public onlyProvider {\n        require(liquids[id].provider == msg.sender, \"Unauthorized\");\n\n        Pool memory pool = pools[liquids[id].poolId];\n        IERC20 token0 = IERC20(pool.token0);\n        IERC20 token1 = IERC20(pool.token1);\n\n        token0.transfer(msg.sender, liquids[id].amount0);\n        token1.transfer(msg.sender, liquids[id].amount1);\n\n        emit LiquidRemoved(\n            address(token0),\n            address(token1),\n            liquids[id].amount0,\n            liquids[id].amount1,\n            msg.sender\n        );\n\n        // delete liquid TO DO\n        liquids[id].amount0 = 0;\n        liquids[id].amount1 = 0;\n    }\n\n    function createPool(\n        address token0,\n        address token1\n    ) public onlyProvider returns (uint) {\n        return _createPool(token0, token1);\n    }\n\n    function updateProviderProfile(bool _autoStake) public onlyProvider {\n        providers[msg.sender].autoStake = _autoStake;\n    }\n\n    function withDrawEarnings(uint256 amount) public onlyProvider {\n        require(\n            providers[msg.sender].balance >= amount,\n            \"Insufficient Balance\"\n        );\n        payable(msg.sender).transfer(amount);\n        providers[msg.sender].balance -= amount;\n    }\n\n    function withDrawEarningsToVault(address receiver) public onlyProvider {\n        uint256 amount = providers[msg.sender].balance;\n        require(amount >= _inWei(1), \"Balance Must be atleast 1 MATIC\");\n        payable(receiver).transfer(amount);\n        providers[msg.sender].balance = 0;\n    }\n\n    // === Administration === //\n\n    function updateNativePair(address pair) public onlyDeployer {\n        require(pair != address(0), \"Invalid Pair Address\");\n        NATIVE_PAIR = pair;\n    }\n\n    function updateSwapFee(uint fee) public onlyDeployer {\n        require(fee > 0, \"Platform fee cannot be zero\");\n        require(fee < 100, \"Platform fee cannot be a hundred\");\n        swapFee = fee;\n    }\n\n    function createPair(address token, address pair) public onlyDeployer {\n        require(token != address(0), \"Invalid Token Address\");\n        require(pair != address(0), \"Invalid Pair Address\");\n        pairs[token] = pair;\n    }\n\n    function withDrawPlaformEarnings(\n        uint256 amount,\n        address receiver\n    ) public onlyDeployer {\n        require(_platformProfit >= amount, \"Insufficient Balance\");\n        payable(receiver).transfer(amount);\n        _platformProfit -= amount;\n    }\n\n    // === Internal Functions === //\n\n    function _liquidIndex(\n        uint poolId,\n        address provider\n    ) private view returns (uint) {\n        uint256[] memory providerLiquids = providers[provider].liquids;\n\n        for (uint index = 0; index < providerLiquids.length; index++) {\n            if (liquids[providerLiquids[index]].poolId == poolId) {\n                return providerLiquids[index];\n            }\n        }\n\n        return 0;\n    }\n\n    function _aggregateLiquids(\n        uint256 amount0,\n        uint256 amount1,\n        uint256 poolSizeToken1,\n        Pool memory pool,\n        uint256 fee\n    ) private {\n        // equally share swap impact on all provider liquids based on their contribution\n        for (uint index = 0; index < pool.liquids.length; index++) {\n            uint liquidId = pool.liquids[index];\n\n            // calculated with ratio of this liquid compared\n            // to other liquids contributing\n            uint256 additionAmount = ((liquids[liquidId].amount1 * amount0) /\n                poolSizeToken1);\n\n            // step I\n            liquids[liquidId].amount0 += additionAmount;\n\n            // calculated with ratio of this liquid compared\n            // to other liquids contributing\n            uint256 deductionAmount = ((liquids[liquidId].amount1 * amount1) /\n                poolSizeToken1);\n\n            // step II\n            liquids[liquidId].amount1 -= deductionAmount;\n\n            // reward the liquid provider\n            uint256 reward = ((liquids[liquidId].amount1 * fee) /\n                poolSizeToken1);\n\n            address provider = liquids[liquidId].provider;\n\n            providers[provider].totalEarned += reward;\n            providers[provider].balance += reward;\n\n            // if provider is auto staking rewards in XEND vault\n            // and their balance is at least 1 MATIC\n            if (\n                providers[provider].autoStake &&\n                providers[provider].balance >= _inWei(1)\n            ) {\n                // TO DO\n                // payable(providers[provider].vaultAddress).transfer(\n                //     providers[provider].balance\n                // );\n                // providers[provider].balance = 0;\n            }\n        }\n    }\n\n    // MATIC => ERC20\n    function _transferSwappedTokens0(\n        address token1,\n        uint256 amount1,\n        address owner\n    ) private returns (uint256) {\n        IERC20 quoteToken = IERC20(token1);\n\n        uint256 _fee = ((amount1 / 100) * swapFee);\n\n        // give user their destination token minus fee\n        quoteToken.transfer(owner, (amount1 - _fee));\n\n        // convert fee to matic\n        return estimate(token1, NATIVE_PAIR, _fee);\n    }\n\n    // ERC20 => MATIC\n    function _transferSwappedTokens1(\n        address token0,\n        uint256 amount0,\n        uint256 amount1,\n        address owner\n    ) public payable returns (uint256) {\n        IERC20 baseToken = IERC20(token0);\n\n        uint256 _fee = ((amount1 / 100) * swapFee);\n\n        baseToken.transferFrom(owner, address(this), amount0);\n\n        // give user their destination token minus fee\n        payable(owner).transfer(amount1 - _fee);\n\n        // fee already in matic\n        return _fee;\n    }\n\n    // ERC20 => ERC20\n    function _transferSwappedTokens2(\n        address token0,\n        address token1,\n        uint256 amount0,\n        uint256 amount1,\n        address owner\n    ) private returns (uint256) {\n        IERC20 baseToken = IERC20(token0);\n        IERC20 quoteToken = IERC20(token1);\n\n        uint256 _fee = ((amount1 / 100) * swapFee);\n\n        // tranfers the base token from user to the\n        // smart contract\n        baseToken.transferFrom(owner, address(this), amount0);\n\n        // give user their destination token minus fee\n        quoteToken.transfer(owner, (amount1 - _fee));\n\n        // convert fee to matic\n        return estimate(token1, NATIVE_PAIR, _fee);\n    }\n\n    function _inWei(uint256 amount) private pure returns (uint256) {\n        return amount * 10 ** 18;\n    }\n\n    function _findPool(\n        address token0,\n        address token1\n    ) private view returns (uint) {\n        require(\n            token0 != address(0) && token1 != address(0),\n            \"Invalid Pool Tokens\"\n        );\n        for (uint index = 0; index <= POOL_ID; index++) {\n            // patern A\n            if (\n                pools[index].token0 == token0 && pools[index].token1 == token1\n            ) {\n                return index;\n            }\n\n            // pattern B\n            if (\n                pools[index].token0 == token1 && pools[index].token1 == token0\n            ) {\n                return index;\n            }\n        }\n        return 0;\n    }\n\n    function _createLiquid(\n        uint poolId,\n        uint256 amount0,\n        uint256 amount1,\n        address provider\n    ) private {\n        LIQUID_ID++;\n        // create the liquid\n        liquids[LIQUID_ID] = Liquid(\n            LIQUID_ID,\n            poolId,\n            amount0,\n            amount1,\n            provider\n        );\n        // register the liquid\n        pools[poolId].liquids.push(LIQUID_ID);\n        providers[provider].liquids.push(LIQUID_ID);\n    }\n\n    function _poolSize(uint id) private view returns (uint256, uint256) {\n        uint256 amount0;\n        uint256 amount1;\n        for (uint index = 0; index < pools[id].liquids.length; index++) {\n            uint liquidId = pools[id].liquids[index];\n            amount0 += liquids[liquidId].amount0;\n            amount1 += liquids[liquidId].amount1;\n        }\n        return (amount0, amount1);\n    }\n\n    function _createPool(\n        address token0,\n        address token1\n    ) private returns (uint) {\n        require(\n            pairs[token0] != address(0),\n            \"Pair does not exists, Contact admin\"\n        );\n        require(\n            pairs[token1] != address(0),\n            \"Pair does not exists, Contact admin\"\n        );\n\n        bool exists = _findPool(token0, token1) != 0;\n        if (exists) return 0;\n\n        POOL_ID++;\n        Pool memory pool = pools[POOL_ID];\n\n        pools[POOL_ID] = Pool(POOL_ID, token0, token1, pool.liquids);\n\n        return POOL_ID;\n    }\n\n    // calls in the constructor\n    function testnetHelper() private onlyDeployer {\n        updateNativePair(0xd0D5e3DB44DE05E9F294BB0a3bEEaF030DE24Ada);\n\n        // BTC\n        createPair(\n            0xc0EC2DCA88Dbe3C91518958C935Ce250c718f0EB,\n            0x007A22900a3B98143368Bd5906f8E17e9867581b\n        );\n\n        // DAI\n        createPair(\n            0x3814CF88e2675041504C7d6404f7b8978F8B65B4,\n            0x0FCAa9c899EC5A91eBc3D5Dd869De833b06fB046\n        );\n\n        // WETH\n        createPair(\n            0x60D4A61940Ac5e59cbdaF05E7F702B26048320bF,\n            0x0715A7794a1dc8e42615F059dD6e406A6594651A\n        );\n\n        // MATIC\n        createPair(NATIVE_PAIR, NATIVE_PAIR);\n\n        // SAND\n        createPair(\n            0x00F5153e9608217DBa32C6C706fef5aD97016842,\n            0x9dd18534b8f456557d11B9DDB14dA89b2e52e308\n        );\n\n        // USDC\n        createPair(\n            0x304379DfA42B7127DE0db93Bce597bEdba18b259,\n            0x572dDec9087154dC5dfBB1546Bb62713147e0Ab0\n        );\n\n        // USDT\n        createPair(\n            0xd24ac22e0Fb3694D0318c9e56E1E99D170a31864,\n            0x92C09849638959196E976289418e5973CC96d645\n        );\n    }\n\n    // called by any provider\n    function testnetHelper2() public {\n        createPool(\n            0xc0EC2DCA88Dbe3C91518958C935Ce250c718f0EB,\n            0x3814CF88e2675041504C7d6404f7b8978F8B65B4\n        ); // BTC => DAI : 1\n        createPool(\n            0xc0EC2DCA88Dbe3C91518958C935Ce250c718f0EB,\n            0x60D4A61940Ac5e59cbdaF05E7F702B26048320bF\n        ); // BTC => WETH : 2\n        createPool(\n            0xc0EC2DCA88Dbe3C91518958C935Ce250c718f0EB,\n            0x00F5153e9608217DBa32C6C706fef5aD97016842\n        ); // BTC => SAND : 3\n        createPool(\n            0xc0EC2DCA88Dbe3C91518958C935Ce250c718f0EB,\n            0x304379DfA42B7127DE0db93Bce597bEdba18b259\n        ); // BTC => USDC : 4\n        createPool(\n            0xc0EC2DCA88Dbe3C91518958C935Ce250c718f0EB,\n            0xd24ac22e0Fb3694D0318c9e56E1E99D170a31864\n        ); // BTC => USDT : 5\n        createPool(\n            0x60D4A61940Ac5e59cbdaF05E7F702B26048320bF,\n            0xd24ac22e0Fb3694D0318c9e56E1E99D170a31864\n        ); // WETH => USDT : 6\n        createPool(\n            0x60D4A61940Ac5e59cbdaF05E7F702B26048320bF,\n            0x00F5153e9608217DBa32C6C706fef5aD97016842\n        ); // WETH => SAND : 7\n        createPool(\n            0x00F5153e9608217DBa32C6C706fef5aD97016842,\n            0xd24ac22e0Fb3694D0318c9e56E1E99D170a31864\n        ); // SAND => USDT : 8\n        createPool(\n            0x00F5153e9608217DBa32C6C706fef5aD97016842,\n            0x3814CF88e2675041504C7d6404f7b8978F8B65B4\n        ); // SAND => DAI : 9\n        createPool(\n            0x3814CF88e2675041504C7d6404f7b8978F8B65B4,\n            0x60D4A61940Ac5e59cbdaF05E7F702B26048320bF\n        ); // DAI => WETH : 10\n        createPool(NATIVE_PAIR, 0xd24ac22e0Fb3694D0318c9e56E1E99D170a31864); // MATIC => USDT : 11\n    }\n\n    // === Modifiers === //\n\n    modifier onlyGuest() {\n        require(providers[msg.sender].id == 0, \"Only Guest\");\n        _;\n    }\n\n    modifier onlyProvider() {\n        require(providers[msg.sender].id != 0, \"Only Provider\");\n        _;\n    }\n\n    modifier onlyDeployer() {\n        require(msg.sender == _deployer, \"Only Deployer\");\n        _;\n    }\n}\n",
  "sourcePath": "C:\\Users\\Arogundade Ibrahim\\Documents\\web3\\fleep\\contracts\\Swap.sol",
  "compiler": {
    "name": "solc",
    "version": "0.8.16+commit.07a7930e.Emscripten.clang"
  },
  "schemaVersion": "3.4.10",
  "updatedAt": "2022-12-01T11:01:55.827Z",
  "devdoc": {
    "kind": "dev",
    "methods": {},
    "version": 1
  },
  "userdoc": {
    "kind": "user",
    "methods": {},
    "version": 1
  }
}