{
  "contractName": "Swap",
  "abi": [
    {
      "inputs": [
        {
          "internalType": "address",
          "name": "priceApI",
          "type": "address"
        }
      ],
      "stateMutability": "nonpayable",
      "type": "constructor"
    },
    {
      "anonymous": false,
      "inputs": [
        {
          "indexed": false,
          "internalType": "uint256",
          "name": "amount",
          "type": "uint256"
        },
        {
          "indexed": false,
          "internalType": "uint256",
          "name": "amountOut",
          "type": "uint256"
        },
        {
          "indexed": false,
          "internalType": "address",
          "name": "from",
          "type": "address"
        },
        {
          "indexed": false,
          "internalType": "address",
          "name": "to",
          "type": "address"
        },
        {
          "indexed": false,
          "internalType": "uint256",
          "name": "timestamp",
          "type": "uint256"
        }
      ],
      "name": "FleepSwaped",
      "type": "event"
    },
    {
      "anonymous": false,
      "inputs": [
        {
          "indexed": false,
          "internalType": "address",
          "name": "token0",
          "type": "address"
        },
        {
          "indexed": false,
          "internalType": "address",
          "name": "token1",
          "type": "address"
        },
        {
          "indexed": false,
          "internalType": "uint256",
          "name": "amount0",
          "type": "uint256"
        },
        {
          "indexed": false,
          "internalType": "uint256",
          "name": "amount1",
          "type": "uint256"
        },
        {
          "indexed": false,
          "internalType": "address",
          "name": "provider",
          "type": "address"
        },
        {
          "indexed": false,
          "internalType": "uint256",
          "name": "timestamp",
          "type": "uint256"
        }
      ],
      "name": "LiquidProvided",
      "type": "event"
    },
    {
      "inputs": [],
      "name": "FLEEP_PAIR",
      "outputs": [
        {
          "internalType": "address",
          "name": "",
          "type": "address"
        }
      ],
      "stateMutability": "view",
      "type": "function"
    },
    {
      "inputs": [],
      "name": "NATIVE_PAIR",
      "outputs": [
        {
          "internalType": "address",
          "name": "",
          "type": "address"
        }
      ],
      "stateMutability": "view",
      "type": "function"
    },
    {
      "inputs": [],
      "name": "USDT_PAIR",
      "outputs": [
        {
          "internalType": "address",
          "name": "",
          "type": "address"
        }
      ],
      "stateMutability": "view",
      "type": "function"
    },
    {
      "inputs": [
        {
          "internalType": "uint256",
          "name": "",
          "type": "uint256"
        }
      ],
      "name": "liquids",
      "outputs": [
        {
          "internalType": "uint256",
          "name": "id",
          "type": "uint256"
        },
        {
          "internalType": "uint256",
          "name": "poolId",
          "type": "uint256"
        },
        {
          "internalType": "uint256",
          "name": "amount0",
          "type": "uint256"
        },
        {
          "internalType": "uint256",
          "name": "amount1",
          "type": "uint256"
        },
        {
          "internalType": "address",
          "name": "provider",
          "type": "address"
        }
      ],
      "stateMutability": "view",
      "type": "function"
    },
    {
      "inputs": [
        {
          "internalType": "address",
          "name": "",
          "type": "address"
        }
      ],
      "name": "pairs",
      "outputs": [
        {
          "internalType": "address",
          "name": "",
          "type": "address"
        }
      ],
      "stateMutability": "view",
      "type": "function"
    },
    {
      "inputs": [
        {
          "internalType": "uint256",
          "name": "",
          "type": "uint256"
        }
      ],
      "name": "pools",
      "outputs": [
        {
          "internalType": "uint256",
          "name": "id",
          "type": "uint256"
        },
        {
          "internalType": "address",
          "name": "token0",
          "type": "address"
        },
        {
          "internalType": "address",
          "name": "token1",
          "type": "address"
        }
      ],
      "stateMutability": "view",
      "type": "function"
    },
    {
      "inputs": [
        {
          "internalType": "address",
          "name": "",
          "type": "address"
        }
      ],
      "name": "providers",
      "outputs": [
        {
          "internalType": "uint256",
          "name": "id",
          "type": "uint256"
        },
        {
          "internalType": "uint256",
          "name": "totalEarned",
          "type": "uint256"
        },
        {
          "internalType": "uint256",
          "name": "balance",
          "type": "uint256"
        },
        {
          "internalType": "bool",
          "name": "autoStake",
          "type": "bool"
        }
      ],
      "stateMutability": "view",
      "type": "function"
    },
    {
      "inputs": [
        {
          "internalType": "address",
          "name": "token0",
          "type": "address"
        },
        {
          "internalType": "address",
          "name": "token1",
          "type": "address"
        }
      ],
      "name": "getPoolSize",
      "outputs": [
        {
          "internalType": "uint256",
          "name": "",
          "type": "uint256"
        },
        {
          "internalType": "uint256",
          "name": "",
          "type": "uint256"
        }
      ],
      "stateMutability": "view",
      "type": "function"
    },
    {
      "inputs": [
        {
          "internalType": "address",
          "name": "token0",
          "type": "address"
        },
        {
          "internalType": "address",
          "name": "token1",
          "type": "address"
        },
        {
          "internalType": "uint256",
          "name": "amount0",
          "type": "uint256"
        }
      ],
      "name": "estimate",
      "outputs": [
        {
          "internalType": "uint256",
          "name": "",
          "type": "uint256"
        }
      ],
      "stateMutability": "view",
      "type": "function"
    },
    {
      "inputs": [],
      "name": "getContractAddress",
      "outputs": [
        {
          "internalType": "address",
          "name": "",
          "type": "address"
        }
      ],
      "stateMutability": "view",
      "type": "function"
    },
    {
      "inputs": [],
      "name": "getNativePair",
      "outputs": [
        {
          "internalType": "address",
          "name": "",
          "type": "address"
        }
      ],
      "stateMutability": "view",
      "type": "function"
    },
    {
      "inputs": [],
      "name": "getUSDTPair",
      "outputs": [
        {
          "internalType": "address",
          "name": "",
          "type": "address"
        }
      ],
      "stateMutability": "view",
      "type": "function"
    },
    {
      "inputs": [],
      "name": "unlockedProviderAccount",
      "outputs": [],
      "stateMutability": "nonpayable",
      "type": "function"
    },
    {
      "inputs": [
        {
          "internalType": "address",
          "name": "token0",
          "type": "address"
        },
        {
          "internalType": "address",
          "name": "token1",
          "type": "address"
        },
        {
          "internalType": "uint256",
          "name": "amount0",
          "type": "uint256"
        }
      ],
      "name": "swap",
      "outputs": [
        {
          "internalType": "uint256",
          "name": "",
          "type": "uint256"
        }
      ],
      "stateMutability": "payable",
      "type": "function"
    },
    {
      "inputs": [
        {
          "internalType": "uint256",
          "name": "poolId",
          "type": "uint256"
        },
        {
          "internalType": "uint256",
          "name": "amount0",
          "type": "uint256"
        }
      ],
      "name": "provideLiquidity",
      "outputs": [],
      "stateMutability": "payable",
      "type": "function"
    },
    {
      "inputs": [
        {
          "internalType": "uint256",
          "name": "id",
          "type": "uint256"
        }
      ],
      "name": "removeLiquidity",
      "outputs": [],
      "stateMutability": "nonpayable",
      "type": "function"
    },
    {
      "inputs": [
        {
          "internalType": "address",
          "name": "wallet",
          "type": "address"
        }
      ],
      "name": "myLiquidities",
      "outputs": [
        {
          "internalType": "uint256[]",
          "name": "",
          "type": "uint256[]"
        },
        {
          "internalType": "uint256[]",
          "name": "",
          "type": "uint256[]"
        },
        {
          "internalType": "uint256[]",
          "name": "",
          "type": "uint256[]"
        },
        {
          "internalType": "uint256[]",
          "name": "",
          "type": "uint256[]"
        }
      ],
      "stateMutability": "view",
      "type": "function"
    },
    {
      "inputs": [
        {
          "internalType": "address",
          "name": "token0",
          "type": "address"
        },
        {
          "internalType": "address",
          "name": "token1",
          "type": "address"
        }
      ],
      "name": "createPool",
      "outputs": [
        {
          "internalType": "uint256",
          "name": "",
          "type": "uint256"
        }
      ],
      "stateMutability": "nonpayable",
      "type": "function"
    },
    {
      "inputs": [
        {
          "internalType": "bool",
          "name": "_autoStake",
          "type": "bool"
        }
      ],
      "name": "updateProviderProfile",
      "outputs": [],
      "stateMutability": "nonpayable",
      "type": "function"
    },
    {
      "inputs": [
        {
          "internalType": "uint256",
          "name": "amount",
          "type": "uint256"
        }
      ],
      "name": "withDrawEarnings",
      "outputs": [],
      "stateMutability": "nonpayable",
      "type": "function"
    },
    {
      "inputs": [
        {
          "internalType": "address",
          "name": "pair",
          "type": "address"
        }
      ],
      "name": "updateNativePair",
      "outputs": [],
      "stateMutability": "nonpayable",
      "type": "function"
    },
    {
      "inputs": [
        {
          "internalType": "address",
          "name": "pair",
          "type": "address"
        }
      ],
      "name": "updateUSDTPair",
      "outputs": [],
      "stateMutability": "nonpayable",
      "type": "function"
    },
    {
      "inputs": [
        {
          "internalType": "address",
          "name": "pair",
          "type": "address"
        }
      ],
      "name": "updateFleepPair",
      "outputs": [],
      "stateMutability": "nonpayable",
      "type": "function"
    },
    {
      "inputs": [
        {
          "internalType": "uint256",
          "name": "fee",
          "type": "uint256"
        }
      ],
      "name": "updateSwapFee",
      "outputs": [],
      "stateMutability": "nonpayable",
      "type": "function"
    },
    {
      "inputs": [
        {
          "internalType": "address",
          "name": "token",
          "type": "address"
        },
        {
          "internalType": "address",
          "name": "pair",
          "type": "address"
        }
      ],
      "name": "createPair",
      "outputs": [],
      "stateMutability": "nonpayable",
      "type": "function"
    },
    {
      "inputs": [
        {
          "internalType": "uint256",
          "name": "amount",
          "type": "uint256"
        },
        {
          "internalType": "address",
          "name": "receiver",
          "type": "address"
        }
      ],
      "name": "withDrawPlaformEarnings",
      "outputs": [],
      "stateMutability": "nonpayable",
      "type": "function"
    },
    {
      "inputs": [
        {
          "internalType": "address",
          "name": "token0",
          "type": "address"
        },
        {
          "internalType": "uint256",
          "name": "amount0",
          "type": "uint256"
        },
        {
          "internalType": "uint256",
          "name": "amount1",
          "type": "uint256"
        },
        {
          "internalType": "address",
          "name": "owner",
          "type": "address"
        }
      ],
      "name": "_transferSwappedTokens1",
      "outputs": [
        {
          "internalType": "uint256",
          "name": "",
          "type": "uint256"
        }
      ],
      "stateMutability": "payable",
      "type": "function"
    },
    {
      "inputs": [],
      "name": "testnetHelper2",
      "outputs": [],
      "stateMutability": "nonpayable",
      "type": "function"
    }
  ],
  "bytecode": "0x608060405260196003553480156200001657600080fd5b50604051620037d9380380620037d98339810160408190526200003991620005a8565b600080546001600160a01b0383166001600160a01b03199182161790915560018054909116331790556200006c62000073565b50620005da565b6001546001600160a01b03163314620000c35760405162461bcd60e51b815260206004820152600d60248201526c27b7363c902232b83637bcb2b960991b60448201526064015b60405180910390fd5b620000e273d0d5e3db44de05e9f294bb0a3beeaf030de24ada62000270565b6200010173d24ac22e0fb3694d0318c9e56e1e99d170a3186462000325565b6200012073d24ac22e0fb3694d0318c9e56e1e99d170a31864620003da565b6200015373c0ec2dca88dbe3c91518958c935ce250c718f0eb727a22900a3b98143368bd5906f8e17e9867581b6200048f565b62000187733814cf88e2675041504c7d6404f7b8978f8b65b4730fcaa9c899ec5a91ebc3d5dd869de833b06fb0466200048f565b620001bb7360d4a61940ac5e59cbdaf05e7f702b26048320bf730715a7794a1dc8e42615f059dd6e406a6594651a6200048f565b600854620001d3906001600160a01b0316806200048f565b6200020672f5153e9608217dba32c6c706fef5ad97016842739dd18534b8f456557d11b9ddb14da89b2e52e3086200048f565b6200023a73304379dfa42b7127de0db93bce597bedba18b25973572ddec9087154dc5dfbb1546bb62713147e0ab06200048f565b6200026e73d24ac22e0fb3694d0318c9e56e1e99d170a318647392c09849638959196e976289418e5973cc96d6456200048f565b565b6001546001600160a01b03163314620002bc5760405162461bcd60e51b815260206004820152600d60248201526c27b7363c902232b83637bcb2b960991b6044820152606401620000ba565b6001600160a01b038116620003035760405162461bcd60e51b81526020600482015260146024820152600080516020620037b98339815191526044820152606401620000ba565b600880546001600160a01b0319166001600160a01b0392909216919091179055565b6001546001600160a01b03163314620003715760405162461bcd60e51b815260206004820152600d60248201526c27b7363c902232b83637bcb2b960991b6044820152606401620000ba565b6001600160a01b038116620003b85760405162461bcd60e51b81526020600482015260146024820152600080516020620037b98339815191526044820152606401620000ba565b600980546001600160a01b0319166001600160a01b0392909216919091179055565b6001546001600160a01b03163314620004265760405162461bcd60e51b815260206004820152600d60248201526c27b7363c902232b83637bcb2b960991b6044820152606401620000ba565b6001600160a01b0381166200046d5760405162461bcd60e51b81526020600482015260146024820152600080516020620037b98339815191526044820152606401620000ba565b600a80546001600160a01b0319166001600160a01b0392909216919091179055565b6001546001600160a01b03163314620004db5760405162461bcd60e51b815260206004820152600d60248201526c27b7363c902232b83637bcb2b960991b6044820152606401620000ba565b6001600160a01b038216620005335760405162461bcd60e51b815260206004820152601560248201527f496e76616c696420546f6b656e204164647265737300000000000000000000006044820152606401620000ba565b6001600160a01b0381166200057a5760405162461bcd60e51b81526020600482015260146024820152600080516020620037b98339815191526044820152606401620000ba565b6001600160a01b03918216600090815260076020526040902080546001600160a01b03191691909216179055565b600060208284031215620005bb57600080fd5b81516001600160a01b0381168114620005d357600080fd5b9392505050565b6131cf80620005ea6000396000f3fe6080604052600436106101b75760003560e01c80639c8f9f23116100ec578063d30dce7d1161008a578063ecd44aef11610064578063ecd44aef1461053f578063eebb63ed14610574578063f50c4fe8146105f8578063fe33b3021461061857600080fd5b8063d30dce7d146104ec578063df791e501461050c578063e34336151461051f57600080fd5b8063bf16f65a116100c6578063bf16f65a1461045c578063c963cb741461047c578063c9c65396146104ac578063ced48d05146104cc57600080fd5b80639c8f9f23146103af578063ac4afa38146103cf578063b8eab4091461043c57600080fd5b806351fde344116101595780637a16af7f116101335780637a16af7f146103495780638625ed131461035c5780638a2627f01461037157806391e5f37f1461038f57600080fd5b806351fde344146102f25780635554b5521461031457806378c480db1461032957600080fd5b8063102a5f9111610195578063102a5f911461028157806316339a9b146102a157806332a2c5d0146102bf578063344bfb59146102d257600080fd5b806304ebefc7146101bc578063061bf045146101f95780630787bc271461021a575b600080fd5b3480156101c857600080fd5b50600a546101dc906001600160a01b031681565b6040516001600160a01b0390911681526020015b60405180910390f35b61020c610207366004612eb9565b61064e565b6040519081526020016101f0565b34801561022657600080fd5b5061025f610235366004612eff565b600c6020526000908152604090208054600182015460028301546003909301549192909160ff1684565b60408051948552602085019390935291830152151560608201526080016101f0565b34801561028d57600080fd5b5061020c61029c366004612f1a565b6107a9565b3480156102ad57600080fd5b506009546001600160a01b03166101dc565b3480156102cb57600080fd5b50306101dc565b3480156102de57600080fd5b506008546101dc906001600160a01b031681565b3480156102fe57600080fd5b5061031261030d366004612f64565b610878565b005b34801561032057600080fd5b506103126108e9565b34801561033557600080fd5b50610312610344366004612f88565b610a4d565b610312610357366004612fb4565b610b7c565b34801561036857600080fd5b50610312610fe4565b34801561037d57600080fd5b506008546001600160a01b03166101dc565b34801561039b57600080fd5b506103126103aa366004612eff565b61120b565b3480156103bb57600080fd5b506103126103ca366004612fd6565b6112cd565b3480156103db57600080fd5b506104176103ea366004612fd6565b600b6020526000908152604090208054600182015460029092015490916001600160a01b03908116911683565b604080519384526001600160a01b0392831660208501529116908201526060016101f0565b34801561044857600080fd5b506009546101dc906001600160a01b031681565b34801561046857600080fd5b50610312610477366004612fd6565b6116df565b34801561048857600080fd5b5061049c610497366004612eff565b6117cf565b6040516101f0949392919061302a565b3480156104b857600080fd5b506103126104c7366004613077565b611a40565b3480156104d857600080fd5b506103126104e7366004612eff565b611b64565b3480156104f857600080fd5b50610312610507366004612fd6565b611c26565b61020c61051a366004612f1a565b611d76565b34801561052b57600080fd5b5061020c61053a366004613077565b6122fc565b34801561054b57600080fd5b5061055f61055a366004613077565b61235d565b604080519283526020830191909152016101f0565b34801561058057600080fd5b506105c761058f366004612fd6565b600d6020526000908152604090208054600182015460028301546003840154600490940154929391929091906001600160a01b031685565b6040805195865260208601949094529284019190915260608301526001600160a01b0316608082015260a0016101f0565b34801561060457600080fd5b50610312610613366004612eff565b612383565b34801561062457600080fd5b506101dc610633366004612eff565b6007602052600090815260409020546001600160a01b031681565b600354600090859082906106646103e8876130b7565b61066e91906130d9565b6040516323b872dd60e01b81526001600160a01b03868116600483015230602483015260448201899052919250908316906323b872dd906064016020604051808303816000875af11580156106c7573d6000803e3d6000fd5b505050506040513d601f19601f820116820180604052508101906106eb91906130f8565b50844710156107415760405162461bcd60e51b815260206004820152601e60248201527f436f6e74726163743a20496e73756666696369656e742042616c616e6365000060448201526064015b60405180910390fd5b6001600160a01b0384166108fc6107588388613115565b6040518115909202916000818181858888f19350505050158015610780573d6000803e3d6000fd5b50600854600a5461079e916001600160a01b039081169116836107a9565b979650505050505050565b600080546001600160a01b038581168352600760205260408084205486831685528185205491517fbaaa61be000000000000000000000000000000000000000000000000000000008152908316600482015290821660248201528392919091169063baaa61be90604401602060405180830381865afa158015610830573d6000803e3d6000fd5b505050506040513d601f19601f820116820180604052508101906108549190613128565b90506305f5e10061086582856130d9565b61086f91906130b7565b95945050505050565b336000908152600c602052604081205490036108c65760405162461bcd60e51b815260206004820152600d60248201526c27b7363c90283937bb34b232b960991b6044820152606401610738565b336000908152600c60205260409020600301805460ff1916911515919091179055565b336000908152600c6020526040902054156109465760405162461bcd60e51b815260206004820152600a60248201527f4f6e6c79204775657374000000000000000000000000000000000000000000006044820152606401610738565b6006805490600061095683613141565b90915550506040805160a0810182526006548152336000818152600c602081815285832060018101548287015260028101548688015260608601849052939092528152600490910180548451818402810184019095528085529293608085019390928301828280156109e757602002820191906000526020600020905b8154815260200190600101908083116109d3575b505050919092525050336000908152600c602090815260409182902083518155838201516001820155918301516002830155606083015160038301805460ff191691151591909117905560808301518051610a489260048501920190612e3d565b505050565b6001546001600160a01b03163314610a975760405162461bcd60e51b815260206004820152600d60248201526c27b7363c902232b83637bcb2b960991b6044820152606401610738565b816002541015610ae95760405162461bcd60e51b815260206004820152601460248201527f496e73756666696369656e742042616c616e63650000000000000000000000006044820152606401610738565b600a5460405163a9059cbb60e01b81526001600160a01b038381166004830152602482018590529091169063a9059cbb906044016020604051808303816000875af1158015610b3c573d6000803e3d6000fd5b505050506040513d601f19601f82011682018060405250810190610b6091906130f8565b508160026000828254610b739190613115565b90915550505050565b336000908152600c60205260408120549003610bca5760405162461bcd60e51b815260206004820152600d60248201526c27b7363c90283937bb34b232b960991b6044820152606401610738565b6064811015610c405760405162461bcd60e51b8152602060048201526024808201527f416d6f756e742063616e6e6f74206265206c6573736572207468616e2031303060448201527f20574549000000000000000000000000000000000000000000000000000000006064820152608401610738565b6008546000838152600b6020526040812060010154909183916001600160a01b03918216911603610da65760643411610ce15760405162461bcd60e51b815260206004820152602360248201527f4d617469632063616e6e6f74206265206c6573736572207468616e20314f4f2060448201527f57454900000000000000000000000000000000000000000000000000000000006064820152608401610738565b506000838152600b6020526040902060018101546002909101543491610d14916001600160a01b039182169116836107a9565b6000858152600b6020526040908190206002015490516323b872dd60e01b8152336004820152306024820152604481018390529193506001600160a01b0316906323b872dd906064016020604051808303816000875af1158015610d7c573d6000803e3d6000fd5b505050506040513d601f19601f82011682018060405250810190610da091906130f8565b50610ef0565b6000848152600b602052604090206001810154600290910154610dd6916001600160a01b039081169116836107a9565b6000858152600b6020526040908190206001015490516323b872dd60e01b8152336004820152306024820152604481018490529193506001600160a01b0316906323b872dd906064016020604051808303816000875af1158015610e3e573d6000803e3d6000fd5b505050506040513d601f19601f82011682018060405250810190610e6291906130f8565b506000848152600b6020526040908190206002015490516323b872dd60e01b8152336004820152306024820152604481018490526001600160a01b03909116906323b872dd906064016020604051808303816000875af1158015610eca573d6000803e3d6000fd5b505050506040513d601f19601f82011682018060405250810190610eee91906130f8565b505b6000610efc8533612445565b90508015610f56576000818152600d602052604081206002018054849290610f2590849061315a565b90915550506000818152600d602052604081206003018054859290610f4b90849061315a565b90915550610f629050565b610f628583853361252e565b6000858152600b6020908152604091829020600181015460029091015483516001600160a01b039283168152911691810191909152908101839052606081018490523360808201524260a08201527f461ecd615ea1465ce04ee1aa1810891df016f8b506e515ba3a18bb12f54962e59060c00160405180910390a15050505050565b61101673c0ec2dca88dbe3c91518958c935ce250c718f0eb733814cf88e2675041504c7d6404f7b8978f8b65b46122fc565b5061104973c0ec2dca88dbe3c91518958c935ce250c718f0eb7360d4a61940ac5e59cbdaf05e7f702b26048320bf6122fc565b5061107b73c0ec2dca88dbe3c91518958c935ce250c718f0eb72f5153e9608217dba32c6c706fef5ad970168426122fc565b506110ae73c0ec2dca88dbe3c91518958c935ce250c718f0eb73304379dfa42b7127de0db93bce597bedba18b2596122fc565b506110e173c0ec2dca88dbe3c91518958c935ce250c718f0eb73d24ac22e0fb3694d0318c9e56e1e99d170a318646122fc565b506111147360d4a61940ac5e59cbdaf05e7f702b26048320bf73d24ac22e0fb3694d0318c9e56e1e99d170a318646122fc565b506111467360d4a61940ac5e59cbdaf05e7f702b26048320bf72f5153e9608217dba32c6c706fef5ad970168426122fc565b5061117872f5153e9608217dba32c6c706fef5ad9701684273d24ac22e0fb3694d0318c9e56e1e99d170a318646122fc565b506111aa72f5153e9608217dba32c6c706fef5ad97016842733814cf88e2675041504c7d6404f7b8978f8b65b46122fc565b506111dd733814cf88e2675041504c7d6404f7b8978f8b65b47360d4a61940ac5e59cbdaf05e7f702b26048320bf6122fc565b50600854611208906001600160a01b031673d24ac22e0fb3694d0318c9e56e1e99d170a318646122fc565b50565b6001546001600160a01b031633146112555760405162461bcd60e51b815260206004820152600d60248201526c27b7363c902232b83637bcb2b960991b6044820152606401610738565b6001600160a01b0381166112ab5760405162461bcd60e51b815260206004820152601460248201527f496e76616c6964205061697220416464726573730000000000000000000000006044820152606401610738565b600880546001600160a01b0319166001600160a01b0392909216919091179055565b336000908152600c6020526040812054900361131b5760405162461bcd60e51b815260206004820152600d60248201526c27b7363c90283937bb34b232b960991b6044820152606401610738565b6000818152600d60205260409020600401546001600160a01b031633146113845760405162461bcd60e51b815260206004820152600c60248201527f556e617574686f72697a656400000000000000000000000000000000000000006044820152606401610738565b6000818152600d60209081526040808320600190810154808552600b8452828520835160808101855281548152928101546001600160a01b0390811684870152600282015416838501526003810180548551818802810188019096528086529296959394919360608601939083018282801561141f57602002820191906000526020600020905b81548152602001906001019080831161140b575b505050919092525050506020808201516000868152600d90925260409182902060020154915163a9059cbb60e01b815233600482015260248101929092529192506001600160a01b039091169063a9059cbb906044016020604051808303816000875af1158015611494573d6000803e3d6000fd5b505050506040513d601f19601f820116820180604052508101906114b891906130f8565b506040818101516000858152600d60205282902060030154915163a9059cbb60e01b815233600482015260248101929092526001600160a01b03169063a9059cbb906044016020604051808303816000875af115801561151c573d6000803e3d6000fd5b505050506040513d601f19601f8201168201806040525081019061154091906130f8565b5060005b6000838152600b60205260409020600301548110156115f5576000838152600b6020526040812060030180543392600d929091859081106115875761158761316d565b600091825260208083209091015483528201929092526040019020600401546001600160a01b0316036115e3576000838152600b602052604090206003018054829081106115d7576115d761316d565b60009182526020822001555b806115ed81613141565b915050611544565b5060005b336000908152600c60205260409020600401548110156116a2578151336000908152600c602052604081206004018054600d9291908590811061163e5761163e61316d565b90600052602060002001548152602001908152602001600020600101540361169057336000908152600c602052604090206004018054829081106116845761168461316d565b60009182526020822001555b8061169a81613141565b9150506115f9565b5050506000908152600d602052604081208181556001810182905560028101829055600381019190915560040180546001600160a01b0319169055565b6001546001600160a01b031633146117295760405162461bcd60e51b815260206004820152600d60248201526c27b7363c902232b83637bcb2b960991b6044820152606401610738565b600081116117795760405162461bcd60e51b815260206004820152601b60248201527f506c6174666f726d206665652063616e6e6f74206265207a65726f00000000006044820152606401610738565b6103e881106117ca5760405162461bcd60e51b815260206004820181905260248201527f506c6174666f726d206665652063616e6e6f7420626520612068756e647265646044820152606401610738565b600355565b6060806060806000600c6000876001600160a01b03166001600160a01b0316815260200190815260200160002060040180548060200260200160405190810160405280929190818152602001828054801561184957602002820191906000526020600020905b815481526020019060010190808311611835575b505050505090506000815167ffffffffffffffff81111561186c5761186c613183565b604051908082528060200260200182016040528015611895578160200160208202803683370190505b5090506000825167ffffffffffffffff8111156118b4576118b4613183565b6040519080825280602002602001820160405280156118dd578160200160208202803683370190505b5090506000835167ffffffffffffffff8111156118fc576118fc613183565b604051908082528060200260200182016040528015611925578160200160208202803683370190505b50905060005b8451811015611a2f57600d600086838151811061194a5761194a61316d565b60200260200101518152602001908152602001600020600101548482815181106119765761197661316d565b602002602001018181525050600d60008683815181106119985761199861316d565b60200260200101518152602001908152602001600020600201548382815181106119c4576119c461316d565b602002602001018181525050600d60008683815181106119e6576119e661316d565b6020026020010151815260200190815260200160002060030154828281518110611a1257611a1261316d565b602090810291909101015280611a2781613141565b91505061192b565b509196509450925090509193509193565b6001546001600160a01b03163314611a8a5760405162461bcd60e51b815260206004820152600d60248201526c27b7363c902232b83637bcb2b960991b6044820152606401610738565b6001600160a01b038216611ae05760405162461bcd60e51b815260206004820152601560248201527f496e76616c696420546f6b656e204164647265737300000000000000000000006044820152606401610738565b6001600160a01b038116611b365760405162461bcd60e51b815260206004820152601460248201527f496e76616c6964205061697220416464726573730000000000000000000000006044820152606401610738565b6001600160a01b03918216600090815260076020526040902080546001600160a01b03191691909216179055565b6001546001600160a01b03163314611bae5760405162461bcd60e51b815260206004820152600d60248201526c27b7363c902232b83637bcb2b960991b6044820152606401610738565b6001600160a01b038116611c045760405162461bcd60e51b815260206004820152601460248201527f496e76616c6964205061697220416464726573730000000000000000000000006044820152606401610738565b600a80546001600160a01b0319166001600160a01b0392909216919091179055565b336000908152600c60205260408120549003611c745760405162461bcd60e51b815260206004820152600d60248201526c27b7363c90283937bb34b232b960991b6044820152606401610738565b336000908152600c6020526040902060020154811115611cd65760405162461bcd60e51b815260206004820152601460248201527f496e73756666696369656e742042616c616e63650000000000000000000000006044820152606401610738565b60095460405163a9059cbb60e01b8152336004820152602481018390526001600160a01b039091169063a9059cbb906044016020604051808303816000875af1158015611d27573d6000803e3d6000fd5b505050506040513d601f19601f82011682018060405250810190611d4b91906130f8565b50336000908152600c602052604081206002018054839290611d6e908490613115565b909155505050565b60006064821015611def5760405162461bcd60e51b815260206004820152602c60248201527f416d6f756e7420746f20737761702063616e6e6f74206265206c65737365722060448201527f7468616e203130302057454900000000000000000000000000000000000000006064820152608401610738565b60008281611dfd8787612602565b6000818152600b6020526040902054909150611e5b5760405162461bcd60e51b815260206004820152601460248201527f506f6f6c20646f6573206e6f74206578697374730000000000000000000000006044820152606401610738565b6008546000828152600b60205260409020600101546001600160a01b0391821691160361201e576008546000828152600b6020526040902060020154349350611eb1916001600160a01b039081169116846107a9565b92506000611ebe82612740565b91505083811015611f115760405162461bcd60e51b815260206004820152601660248201527f496e73756666696369656e7420506f6f6c2053697a65000000000000000000006044820152606401610738565b6000828152600b6020526040812060020154611f37906001600160a01b031686336127f4565b905060006064611f488360506130d9565b611f5291906130b7565b9050611f5e8183613115565b60026000828254611f6f919061315a565b90915550506000848152600b602090815260409182902082516080810184528154815260018201546001600160a01b039081168285015260028301541681850152600382018054855181860281018601909652808652612016958b958d958b9594909360608601939283018282801561200757602002820191906000526020600020905b815481526020019060010190808311611ff3575b505050505081525050856128da565b50505061229b565b6008546000828152600b60205260409020600201546001600160a01b039182169116036120f8576000818152600b6020526040902060010154600854612071916001600160a01b039081169116846107a9565b9250600061207e82612740565b509050838110156120d15760405162461bcd60e51b815260206004820152601660248201527f496e73756666696369656e7420506f6f6c2053697a65000000000000000000006044820152606401610738565b6000828152600b6020526040812060010154611f37906001600160a01b031685873361064e565b6000818152600b602052604090206001810154600290910154612128916001600160a01b039081169116846107a9565b9250600061213582612740565b915050838110156121885760405162461bcd60e51b815260206004820152601660248201527f496e73756666696369656e7420506f6f6c2053697a65000000000000000000006044820152606401610738565b6000828152600b6020526040812060018101546002909101546121ba916001600160a01b039081169116868833612a7e565b9050600060646121cb8360506130d9565b6121d591906130b7565b90506121e18183613115565b600260008282546121f2919061315a565b90915550506000848152600b602090815260409182902082516080810184528154815260018201546001600160a01b039081168285015260028301541681850152600382018054855181860281018601909652808652612297958b958d958b959490936060860193928301828280156120075760200282019190600052602060002090815481526020019060010190808311611ff357505050505081525050856128da565b5050505b60408051868152602081018590526001600160a01b03898116828401528816606082015242608082015290517f649451cb6bd28801e8992e83f834233301eb39b64a665a45b1e08d3e13ff679a9181900360a00190a1509095945050505050565b336000908152600c6020526040812054810361234a5760405162461bcd60e51b815260206004820152600d60248201526c27b7363c90283937bb34b232b960991b6044820152606401610738565b6123548383612be5565b90505b92915050565b600080600061236c8585612602565b905061237781612740565b92509250509250929050565b6001546001600160a01b031633146123cd5760405162461bcd60e51b815260206004820152600d60248201526c27b7363c902232b83637bcb2b960991b6044820152606401610738565b6001600160a01b0381166124235760405162461bcd60e51b815260206004820152601460248201527f496e76616c6964205061697220416464726573730000000000000000000000006044820152606401610738565b600980546001600160a01b0319166001600160a01b0392909216919091179055565b6001600160a01b0381166000908152600c60209081526040808320600401805482518185028101850190935280835284938301828280156124a557602002820191906000526020600020905b815481526020019060010190808311612491575b5050505050905060005b81518110156125235784600d60008484815181106124cf576124cf61316d565b602002602001015181526020019081526020016000206001015403612511578181815181106125005761250061316d565b602002602001015192505050612357565b8061251b81613141565b9150506124af565b506000949350505050565b6005805490600061253e83613141565b90915550506040805160a081018252600580548083526020808401898152848601988952606085019788526001600160a01b03968716608086018181526000948552600d84528785209651875591516001808801919091559951600287015597516003808701919091559051600495860180546001600160a01b0319169190981617909655978152600b885283812082549501805480890182559082528882200194909455938352600c865290822092549201805493840181558152929092200155565b60006001600160a01b0383161580159061262457506001600160a01b03821615155b6126705760405162461bcd60e51b815260206004820152601360248201527f496e76616c696420506f6f6c20546f6b656e73000000000000000000000000006044820152606401610738565b60005b6004548111612736576000818152600b60205260409020600101546001600160a01b0385811691161480156126c457506000818152600b60205260409020600201546001600160a01b038481169116145b156126d0579050612357565b6000818152600b60205260409020600101546001600160a01b03848116911614801561271857506000818152600b60205260409020600201546001600160a01b038581169116145b15612724579050612357565b8061272e81613141565b915050612673565b5060009392505050565b60008060008060005b6000868152600b60205260409020600301548110156127e9576000868152600b602052604081206003018054839081106127855761278561316d565b90600052602060002001549050600d600082815260200190815260200160002060020154846127b4919061315a565b6000828152600d60205260409020600301549094506127d3908461315a565b92505080806127e190613141565b915050612749565b509094909350915050565b6003546000908490829061280a6103e8876130b7565b61281491906130d9565b90506001600160a01b03821663a9059cbb856128308489613115565b6040517fffffffff0000000000000000000000000000000000000000000000000000000060e085901b1681526001600160a01b03909216600483015260248201526044016020604051808303816000875af1158015612893573d6000803e3d6000fd5b505050506040513d601f19601f820116820180604052508101906128b791906130f8565b50600a546128d09087906001600160a01b0316836107a9565b9695505050505050565b60005b826060015151811015612a76576000836060015182815181106129025761290261316d565b6020026020010151905060008588600d60008581526020019081526020016000206003015461293191906130d9565b61293b91906130b7565b905080600d60008481526020019081526020016000206002016000828254612963919061315a565b90915550506000828152600d60205260408120600301548790612987908a906130d9565b61299191906130b7565b905080600d600085815260200190815260200160002060030160008282546129b99190613115565b90915550506000838152600d602052604081206003015488906129dd9088906130d9565b6129e791906130b7565b6000858152600d60209081526040808320600401546001600160a01b0316808452600c909252822060010180549394509092849290612a2790849061315a565b90915550506001600160a01b0381166000908152600c602052604081206002018054849290612a5790849061315a565b9250508190555050505050508080612a6e90613141565b9150506128dd565b505050505050565b600354600090869086908390612a966103e8886130b7565b612aa091906130d9565b6040516323b872dd60e01b81526001600160a01b038781166004830152306024830152604482018a9052919250908416906323b872dd906064016020604051808303816000875af1158015612af9573d6000803e3d6000fd5b505050506040513d601f19601f82011682018060405250810190612b1d91906130f8565b506001600160a01b03821663a9059cbb86612b38848a613115565b6040517fffffffff0000000000000000000000000000000000000000000000000000000060e085901b1681526001600160a01b03909216600483015260248201526044016020604051808303816000875af1158015612b9b573d6000803e3d6000fd5b505050506040513d601f19601f82011682018060405250810190612bbf91906130f8565b50600a54612bd89089906001600160a01b0316836107a9565b9998505050505050505050565b6001600160a01b03828116600090815260076020526040812054909116612c5a5760405162461bcd60e51b815260206004820152602360248201527f5061697220646f6573206e6f74206578697374732c20436f6e7461637420616460448201526236b4b760e91b6064820152608401610738565b6001600160a01b0382811660009081526007602052604090205416612ccd5760405162461bcd60e51b815260206004820152602360248201527f5061697220646f6573206e6f74206578697374732c20436f6e7461637420616460448201526236b4b760e91b6064820152608401610738565b6000612cd98484612602565b1580159150612cec576000915050612357565b60048054906000612cfc83613141565b90915550506004546000908152600b6020908152604080832081516080810183528154815260018201546001600160a01b039081168286015260028301541681840152600382018054845181870281018701909552808552919492936060860193909290830182828015612d8f57602002820191906000526020600020905b815481526020019060010190808311612d7b575b505050919092525050604080516080810182526004548082526001600160a01b03808b1660208085019182528b83168587019081526060808a01519087019081526000958652600b8352969094208551815591516001830180549185166001600160a01b0319928316179055935160028301805491909416941693909317909155925180519596509194929350612e2e92600385019290910190612e3d565b50506004549695505050505050565b828054828255906000526020600020908101928215612e78579160200282015b82811115612e78578251825591602001919060010190612e5d565b50612e84929150612e88565b5090565b5b80821115612e845760008155600101612e89565b80356001600160a01b0381168114612eb457600080fd5b919050565b60008060008060808587031215612ecf57600080fd5b612ed885612e9d565b93506020850135925060408501359150612ef460608601612e9d565b905092959194509250565b600060208284031215612f1157600080fd5b61235482612e9d565b600080600060608486031215612f2f57600080fd5b612f3884612e9d565b9250612f4660208501612e9d565b9150604084013590509250925092565b801515811461120857600080fd5b600060208284031215612f7657600080fd5b8135612f8181612f56565b9392505050565b60008060408385031215612f9b57600080fd5b82359150612fab60208401612e9d565b90509250929050565b60008060408385031215612fc757600080fd5b50508035926020909101359150565b600060208284031215612fe857600080fd5b5035919050565b600081518084526020808501945080840160005b8381101561301f57815187529582019590820190600101613003565b509495945050505050565b60808152600061303d6080830187612fef565b828103602084015261304f8187612fef565b905082810360408401526130638186612fef565b9050828103606084015261079e8185612fef565b6000806040838503121561308a57600080fd5b61309383612e9d565b9150612fab60208401612e9d565b634e487b7160e01b600052601160045260246000fd5b6000826130d457634e487b7160e01b600052601260045260246000fd5b500490565b60008160001904831182151516156130f3576130f36130a1565b500290565b60006020828403121561310a57600080fd5b8151612f8181612f56565b81810381811115612357576123576130a1565b60006020828403121561313a57600080fd5b5051919050565b600060018201613153576131536130a1565b5060010190565b80820180821115612357576123576130a1565b634e487b7160e01b600052603260045260246000fd5b634e487b7160e01b600052604160045260246000fdfea26469706673582212209b3cacce34db6968db451b71d048f8dfdc1de996001083dc4855d1d0125cd1d364736f6c63430008100033496e76616c696420506169722041646472657373000000000000000000000000",
  "immutableReferences": {},
  "source": "// SPDX-License-Identifier: GPL-3.0\npragma solidity >=0.7.0 <0.9.0;\n\nimport {PriceApi} from \"./PriceApi.sol\";\nimport {IERC20} from \"@openzeppelin/contracts/token/ERC20/IERC20.sol\";\n\n// import {xUSDT} from \"./xend/XUSDT.sol\";\n\ncontract Swap {\n    PriceApi private _priceApi;\n\n    // contract admin\n    address private _deployer;\n    uint256 private _platformProfit;\n\n    // charges 0.25% fee on every successful swaps\n    uint private swapFee = 25;\n\n    // ids to avoid conflicts\n    uint256 private POOL_ID;\n    uint256 private LIQUID_ID;\n    uint256 private PROVIDER_ID;\n\n    // token contract address => chainlink aggregrator address\n    // only in the token paired to USD format\n    mapping(address => address) public pairs;\n\n    // is a member of the pairs mapping\n    // but its the native pair MATIC not IERC20\n    address public NATIVE_PAIR;\n    // paired address to USDT\n    address public USDT_PAIR;\n    address public FLEEP_PAIR;\n\n    // id => liquidity pools\n    mapping(uint => Pool) public pools;\n    // user address => provider data\n    mapping(address => Provider) public providers;\n    // id => liquids\n    mapping(uint => Liquid) public liquids;\n\n    // === Events === //\n\n    event LiquidProvided(\n        address token0,\n        address token1,\n        uint256 amount0,\n        uint256 amount1,\n        address provider,\n        uint timestamp\n    );\n\n    event FleepSwaped(\n        uint256 amount,\n        uint256 amountOut,\n        address from,\n        address to,\n        uint timestamp\n    );\n\n    // === Structs === //\n\n    // pool consists of liquids\n    // from n numbers providers\n    struct Pool {\n        uint id;\n        address token0;\n        address token1;\n        uint[] liquids;\n    }\n\n    // liquid belongs to a provider\n    // also belongs to a pool\n    struct Liquid {\n        uint id;\n        uint poolId;\n        uint256 amount0;\n        uint256 amount1;\n        address provider;\n    }\n\n    // provider properties\n    // owns n numbers of liquids\n    struct Provider {\n        uint id;\n        uint256 totalEarned;\n        uint256 balance;\n        bool autoStake;\n        uint[] liquids;\n    }\n\n    constructor(address priceApI) {\n        _priceApi = PriceApi(priceApI);\n        _deployer = msg.sender;\n\n        testnetHelper();\n    }\n\n    // calculates all the size of the liquids\n    // in a pool of token pair\n    function getPoolSize(\n        address token0,\n        address token1\n    ) public view returns (uint256, uint256) {\n        uint poolId = _findPool(token0, token1);\n        return _poolSize(poolId);\n    }\n\n    // gets the exchanges rates for pair of tokens\n    // with accordance to amount of tokens\n    function estimate(\n        address token0,\n        address token1,\n        uint256 amount0 // in wei\n    ) public view returns (uint256) {\n        int256 rate = _priceApi.getExchangeRate(pairs[token0], pairs[token1]);\n        return (amount0 * uint256(rate)) / (10 ** 8);\n    }\n\n    // returns the contract address\n    function getContractAddress() public view returns (address) {\n        return address(this);\n    }\n\n    // returns the pair address for $MATIC\n    function getNativePair() public view returns (address) {\n        return NATIVE_PAIR;\n    }\n\n    // returns the pair address for $USDT\n    function getUSDTPair() public view returns (address) {\n        return USDT_PAIR;\n    }\n\n    // register as a provider\n    function unlockedProviderAccount() public onlyGuest {\n        // create new unique id\n        PROVIDER_ID++;\n\n        // provider with default entries\n        providers[msg.sender] = Provider(\n            PROVIDER_ID,\n            providers[msg.sender].totalEarned,\n            providers[msg.sender].balance,\n            false,\n            providers[msg.sender].liquids\n        );\n    }\n\n    // === Swapping === //\n\n    function swap(\n        address token0,\n        address token1,\n        uint256 amount0\n    ) public payable returns (uint256) {\n        require(amount0 >= 100, \"Amount to swap cannot be lesser than 100 WEI\");\n\n        uint256 amount1;\n        uint256 _safeAmount0 = amount0;\n\n        uint poolId = _findPool(token0, token1);\n        require(pools[poolId].id > 0, \"Pool does not exists\");\n\n        // MATIC => ERC20\n        if (pools[poolId].token0 == NATIVE_PAIR) {\n            _safeAmount0 = msg.value;\n            amount1 = estimate(NATIVE_PAIR, pools[poolId].token1, _safeAmount0);\n\n            // check if contract has enough destination token liquid\n            (, uint256 poolSizeToken1) = _poolSize(poolId);\n            require(poolSizeToken1 >= amount1, \"Insufficient Pool Size\");\n\n            uint256 fee = _transferSwappedTokens0(\n                pools[poolId].token1,\n                amount1,\n                msg.sender\n            );\n\n            uint256 providersReward = ((fee * 80) / 100);\n            _platformProfit += (fee - providersReward);\n\n            _aggregateLiquids(\n                _safeAmount0,\n                amount1,\n                poolSizeToken1,\n                pools[poolId],\n                providersReward\n            );\n        }\n        // ERC20 => MATIC\n        else if (pools[poolId].token1 == NATIVE_PAIR) {\n            amount1 = estimate(pools[poolId].token0, NATIVE_PAIR, _safeAmount0);\n\n            // check if contract has enough destination token liquid\n            (uint256 poolSizeToken1, ) = _poolSize(poolId);\n            require(poolSizeToken1 >= amount1, \"Insufficient Pool Size\");\n\n            uint256 fee = _transferSwappedTokens1(\n                pools[poolId].token0,\n                _safeAmount0,\n                amount1,\n                msg.sender\n            );\n\n            uint256 providersReward = ((fee * 80) / 100);\n            _platformProfit += (fee - providersReward);\n\n            _aggregateLiquids(\n                _safeAmount0,\n                amount1,\n                poolSizeToken1,\n                pools[poolId],\n                providersReward\n            );\n        }\n        // ERC0 => ERC2O\n        else {\n            amount1 = estimate(\n                pools[poolId].token0,\n                pools[poolId].token1,\n                _safeAmount0\n            );\n\n            // check if contract has enough destination token liquid\n            (, uint256 poolSizeToken1) = _poolSize(poolId);\n            require(poolSizeToken1 >= amount1, \"Insufficient Pool Size\");\n\n            uint256 fee = _transferSwappedTokens2(\n                pools[poolId].token0,\n                pools[poolId].token1,\n                _safeAmount0,\n                amount1,\n                msg.sender\n            );\n\n            uint256 providersReward = ((fee * 80) / 100);\n            _platformProfit += (fee - providersReward);\n\n            _aggregateLiquids(\n                _safeAmount0,\n                amount1,\n                poolSizeToken1,\n                pools[poolId],\n                providersReward\n            );\n        }\n\n        // store the swap data on-chain\n        emit FleepSwaped(amount0, amount1, token0, token1, block.timestamp);\n\n        return amount1;\n    }\n\n    // === Providers === //\n\n    function provideLiquidity(\n        uint poolId,\n        uint256 amount0\n    ) public payable onlyProvider {\n        require(amount0 >= 100, \"Amount cannot be lesser than 100 WEI\");\n\n        uint256 amount1;\n        uint256 _safeAmount0 = amount0;\n\n        if (pools[poolId].token0 == NATIVE_PAIR) {\n            require(msg.value > 100, \"Matic cannot be lesser than 1OO WEI\");\n            // only in format of MATIC as pair subject\n            // ex MATIC/XEND\n\n            _safeAmount0 = msg.value;\n            // get the estimate for token1\n            amount1 = estimate(\n                pools[poolId].token0,\n                pools[poolId].token1,\n                _safeAmount0\n            );\n            // stake token1 to smart contract\n            IERC20(pools[poolId].token1).transferFrom(\n                msg.sender,\n                address(this),\n                amount1\n            );\n        } else {\n            // get the estimate for token1\n            amount1 = estimate(\n                pools[poolId].token0,\n                pools[poolId].token1,\n                _safeAmount0\n            );\n            // stake tokens to smart contract\n            IERC20(pools[poolId].token0).transferFrom(\n                msg.sender,\n                address(this),\n                _safeAmount0\n            );\n            IERC20(pools[poolId].token1).transferFrom(\n                msg.sender,\n                address(this),\n                amount1\n            );\n        }\n\n        uint liquidId = _liquidIndex(poolId, msg.sender);\n\n        if (liquidId > 0) {\n            // if liquid exist increment the amount\n            liquids[liquidId].amount0 += _safeAmount0;\n            liquids[liquidId].amount1 += amount1;\n        } else {\n            // otherwise create the new liquid\n            _createLiquid(poolId, _safeAmount0, amount1, msg.sender);\n        }\n\n        // store the liquidity data on-chain\n        emit LiquidProvided(\n            pools[poolId].token0,\n            pools[poolId].token1,\n            _safeAmount0,\n            amount1,\n            msg.sender,\n            block.timestamp\n        );\n    }\n\n    function removeLiquidity(uint id) public onlyProvider {\n        require(liquids[id].provider == msg.sender, \"Unauthorized\");\n\n        // extract pool id from liquid\n        uint poolId = liquids[id].poolId;\n\n        // extract pool struct\n        Pool memory pool = pools[poolId];\n\n        // transfer tokens to providers\n        IERC20(pool.token0).transfer(msg.sender, liquids[id].amount0);\n        IERC20(pool.token1).transfer(msg.sender, liquids[id].amount1);\n\n        // delete liquid\n\n        for (uint index = 0; index < pools[poolId].liquids.length; index++) {\n            if (liquids[pools[poolId].liquids[index]].provider == msg.sender) {\n                delete pools[poolId].liquids[index];\n            }\n        }\n\n        for (\n            uint index = 0;\n            index < providers[msg.sender].liquids.length;\n            index++\n        ) {\n            if (\n                liquids[providers[msg.sender].liquids[index]].poolId == pool.id\n            ) {\n                delete providers[msg.sender].liquids[index];\n            }\n        }\n\n        delete liquids[id];\n    }\n\n    // fetach all liquidities from a wallet\n    function myLiquidities(\n        address wallet\n    )\n        public\n        view\n        returns (\n            uint256[] memory,\n            uint256[] memory,\n            uint256[] memory,\n            uint256[] memory\n        )\n    {\n        // array of provider liquidities position\n        uint256[] memory providerLiquids = providers[wallet].liquids;\n\n        uint256[] memory _pools = new uint256[](providerLiquids.length);\n        uint256[] memory _amounts0 = new uint256[](providerLiquids.length);\n        uint256[] memory _amounts1 = new uint256[](providerLiquids.length);\n\n        for (uint index; index < providerLiquids.length; index++) {\n            _pools[index] = liquids[providerLiquids[index]].poolId;\n            _amounts0[index] = liquids[providerLiquids[index]].amount0;\n            _amounts1[index] = liquids[providerLiquids[index]].amount1;\n        }\n\n        return (_pools, _amounts0, _amounts1, providerLiquids);\n    }\n\n    function createPool(\n        address token0,\n        address token1\n    ) public onlyProvider returns (uint) {\n        return _createPool(token0, token1);\n    }\n\n    function updateProviderProfile(bool _autoStake) public onlyProvider {\n        providers[msg.sender].autoStake = _autoStake;\n    }\n\n    function withDrawEarnings(uint256 amount) public onlyProvider {\n        require(\n            providers[msg.sender].balance >= amount,\n            \"Insufficient Balance\"\n        );\n\n        // USDT as reward token\n        IERC20(USDT_PAIR).transfer(msg.sender, amount);\n\n        providers[msg.sender].balance -= amount;\n    }\n\n    // === Administration === //\n\n    function updateNativePair(address pair) public onlyDeployer {\n        require(pair != address(0), \"Invalid Pair Address\");\n        NATIVE_PAIR = pair;\n    }\n\n    function updateUSDTPair(address pair) public onlyDeployer {\n        require(pair != address(0), \"Invalid Pair Address\");\n        USDT_PAIR = pair;\n    }\n\n    function updateFleepPair(address pair) public onlyDeployer {\n        require(pair != address(0), \"Invalid Pair Address\");\n        FLEEP_PAIR = pair;\n    }\n\n    function updateSwapFee(uint fee) public onlyDeployer {\n        require(fee > 0, \"Platform fee cannot be zero\");\n        require(fee < 1000, \"Platform fee cannot be a hundred\");\n        swapFee = fee;\n    }\n\n    function createPair(address token, address pair) public onlyDeployer {\n        require(token != address(0), \"Invalid Token Address\");\n        require(pair != address(0), \"Invalid Pair Address\");\n        pairs[token] = pair;\n    }\n\n    function withDrawPlaformEarnings(\n        uint256 amount,\n        address receiver\n    ) public onlyDeployer {\n        require(_platformProfit >= amount, \"Insufficient Balance\");\n\n        // Fleep token as reward token\n        IERC20(FLEEP_PAIR).transfer(receiver, amount);\n        _platformProfit -= amount;\n    }\n\n    // === Internal Functions === //\n\n    function _liquidIndex(\n        uint poolId,\n        address provider\n    ) private view returns (uint) {\n        uint256[] memory providerLiquids = providers[provider].liquids;\n\n        for (uint index = 0; index < providerLiquids.length; index++) {\n            if (liquids[providerLiquids[index]].poolId == poolId) {\n                return providerLiquids[index];\n            }\n        }\n\n        return 0;\n    }\n\n    function _aggregateLiquids(\n        uint256 amount0,\n        uint256 amount1,\n        uint256 poolSizeToken1,\n        Pool memory pool,\n        uint256 fee\n    ) private {\n        // equally share swap impact on all provider liquids based on their contribution\n        for (uint index = 0; index < pool.liquids.length; index++) {\n            uint liquidId = pool.liquids[index];\n\n            // calculated with ratio of this liquid compared\n            // to other liquids contributing\n            uint256 additionAmount = ((liquids[liquidId].amount1 * amount0) /\n                poolSizeToken1);\n\n            // step I\n            liquids[liquidId].amount0 += additionAmount;\n\n            // calculated with ratio of this liquid compared\n            // to other liquids contributing\n            uint256 deductionAmount = ((liquids[liquidId].amount1 * amount1) /\n                poolSizeToken1);\n\n            // step II\n            liquids[liquidId].amount1 -= deductionAmount;\n\n            // reward the liquid provider\n            uint256 reward = ((liquids[liquidId].amount1 * fee) /\n                poolSizeToken1);\n\n            address provider = liquids[liquidId].provider;\n\n            providers[provider].totalEarned += reward;\n            providers[provider].balance += reward;\n        }\n    }\n\n    // MATIC => ERC20\n    function _transferSwappedTokens0(\n        address token1,\n        uint256 amount1,\n        address owner\n    ) private returns (uint256) {\n        IERC20 quoteToken = IERC20(token1);\n\n        uint256 _fee = ((amount1 / 1000) * swapFee);\n\n        // give user their destination token minus fee\n        quoteToken.transfer(owner, (amount1 - _fee));\n\n        // convert fee to Fleep tokens\n        return estimate(token1, FLEEP_PAIR, _fee);\n    }\n\n    // ERC20 => MATIC\n    function _transferSwappedTokens1(\n        address token0,\n        uint256 amount0,\n        uint256 amount1,\n        address owner\n    ) public payable returns (uint256) {\n        IERC20 baseToken = IERC20(token0);\n\n        uint256 _fee = ((amount1 / 1000) * swapFee);\n\n        baseToken.transferFrom(owner, address(this), amount0);\n\n        // give user their destination token minus fee\n        require(\n            address(this).balance >= amount1,\n            \"Contract: Insufficient Balance\"\n        );\n        payable(owner).transfer(amount1 - _fee);\n\n        // convert fee to Fleep tokens\n        return estimate(NATIVE_PAIR, FLEEP_PAIR, _fee);\n    }\n\n    // ERC20 => ERC20\n    function _transferSwappedTokens2(\n        address token0,\n        address token1,\n        uint256 amount0,\n        uint256 amount1,\n        address owner\n    ) private returns (uint256) {\n        IERC20 baseToken = IERC20(token0);\n        IERC20 quoteToken = IERC20(token1);\n\n        uint256 _fee = ((amount1 / 1000) * swapFee);\n\n        // tranfers the base token from user to the\n        // smart contract\n        baseToken.transferFrom(owner, address(this), amount0);\n\n        // give user their destination token minus fee\n        quoteToken.transfer(owner, (amount1 - _fee));\n\n        // convert fee to Fleep tokens\n        return estimate(token1, FLEEP_PAIR, _fee);\n    }\n\n    function _inWei(uint256 amount) private pure returns (uint256) {\n        return amount * 10 ** 18;\n    }\n\n    function _findPool(\n        address token0,\n        address token1\n    ) private view returns (uint) {\n        require(\n            token0 != address(0) && token1 != address(0),\n            \"Invalid Pool Tokens\"\n        );\n        for (uint index = 0; index <= POOL_ID; index++) {\n            // patern A\n            if (\n                pools[index].token0 == token0 && pools[index].token1 == token1\n            ) {\n                return index;\n            }\n\n            // pattern B\n            if (\n                pools[index].token0 == token1 && pools[index].token1 == token0\n            ) {\n                return index;\n            }\n        }\n        return 0;\n    }\n\n    function _createLiquid(\n        uint poolId,\n        uint256 amount0,\n        uint256 amount1,\n        address provider\n    ) private {\n        LIQUID_ID++;\n        // create the liquid\n        liquids[LIQUID_ID] = Liquid(\n            LIQUID_ID,\n            poolId,\n            amount0,\n            amount1,\n            provider\n        );\n        // register the liquid\n        pools[poolId].liquids.push(LIQUID_ID);\n        providers[provider].liquids.push(LIQUID_ID);\n    }\n\n    function _poolSize(uint id) private view returns (uint256, uint256) {\n        uint256 amount0;\n        uint256 amount1;\n        for (uint index = 0; index < pools[id].liquids.length; index++) {\n            uint liquidId = pools[id].liquids[index];\n            amount0 += liquids[liquidId].amount0;\n            amount1 += liquids[liquidId].amount1;\n        }\n        return (amount0, amount1);\n    }\n\n    function _createPool(\n        address token0,\n        address token1\n    ) private returns (uint) {\n        require(\n            pairs[token0] != address(0),\n            \"Pair does not exists, Contact admin\"\n        );\n        require(\n            pairs[token1] != address(0),\n            \"Pair does not exists, Contact admin\"\n        );\n\n        bool exists = _findPool(token0, token1) != 0;\n        if (exists) return 0;\n\n        POOL_ID++;\n        Pool memory pool = pools[POOL_ID];\n\n        pools[POOL_ID] = Pool(POOL_ID, token0, token1, pool.liquids);\n\n        return POOL_ID;\n    }\n\n    // calls in the constructor\n    function testnetHelper() private onlyDeployer {\n        updateNativePair(0xd0D5e3DB44DE05E9F294BB0a3bEEaF030DE24Ada);\n        updateUSDTPair(0xd24ac22e0Fb3694D0318c9e56E1E99D170a31864);\n        updateFleepPair(0xd24ac22e0Fb3694D0318c9e56E1E99D170a31864);\n\n        // WBTC\n        createPair(\n            0xc0EC2DCA88Dbe3C91518958C935Ce250c718f0EB,\n            0x007A22900a3B98143368Bd5906f8E17e9867581b\n        );\n\n        // DAI\n        createPair(\n            0x3814CF88e2675041504C7d6404f7b8978F8B65B4,\n            0x0FCAa9c899EC5A91eBc3D5Dd869De833b06fB046\n        );\n\n        // WETH\n        createPair(\n            0x60D4A61940Ac5e59cbdaF05E7F702B26048320bF,\n            0x0715A7794a1dc8e42615F059dD6e406A6594651A\n        );\n\n        // MATIC\n        createPair(NATIVE_PAIR, NATIVE_PAIR);\n\n        // SAND\n        createPair(\n            0x00F5153e9608217DBa32C6C706fef5aD97016842,\n            0x9dd18534b8f456557d11B9DDB14dA89b2e52e308\n        );\n\n        // USDC\n        createPair(\n            0x304379DfA42B7127DE0db93Bce597bEdba18b259,\n            0x572dDec9087154dC5dfBB1546Bb62713147e0Ab0\n        );\n\n        // USDT\n        createPair(\n            0xd24ac22e0Fb3694D0318c9e56E1E99D170a31864,\n            0x92C09849638959196E976289418e5973CC96d645\n        );\n    }\n\n    // called by any provider\n    function testnetHelper2() public {\n        createPool(\n            0xc0EC2DCA88Dbe3C91518958C935Ce250c718f0EB,\n            0x3814CF88e2675041504C7d6404f7b8978F8B65B4\n        ); // WBTC => DAI : 1\n        createPool(\n            0xc0EC2DCA88Dbe3C91518958C935Ce250c718f0EB,\n            0x60D4A61940Ac5e59cbdaF05E7F702B26048320bF\n        ); // WBTC => WETH : 2\n        createPool(\n            0xc0EC2DCA88Dbe3C91518958C935Ce250c718f0EB,\n            0x00F5153e9608217DBa32C6C706fef5aD97016842\n        ); // WBTC => SAND : 3\n        createPool(\n            0xc0EC2DCA88Dbe3C91518958C935Ce250c718f0EB,\n            0x304379DfA42B7127DE0db93Bce597bEdba18b259\n        ); // WBTC => USDC : 4\n        createPool(\n            0xc0EC2DCA88Dbe3C91518958C935Ce250c718f0EB,\n            0xd24ac22e0Fb3694D0318c9e56E1E99D170a31864\n        ); // WBTC => USDT : 5\n        createPool(\n            0x60D4A61940Ac5e59cbdaF05E7F702B26048320bF,\n            0xd24ac22e0Fb3694D0318c9e56E1E99D170a31864\n        ); // WETH => USDT : 6\n        createPool(\n            0x60D4A61940Ac5e59cbdaF05E7F702B26048320bF,\n            0x00F5153e9608217DBa32C6C706fef5aD97016842\n        ); // WETH => SAND : 7\n        createPool(\n            0x00F5153e9608217DBa32C6C706fef5aD97016842,\n            0xd24ac22e0Fb3694D0318c9e56E1E99D170a31864\n        ); // SAND => USDT : 8\n        createPool(\n            0x00F5153e9608217DBa32C6C706fef5aD97016842,\n            0x3814CF88e2675041504C7d6404f7b8978F8B65B4\n        ); // SAND => DAI : 9\n        createPool(\n            0x3814CF88e2675041504C7d6404f7b8978F8B65B4,\n            0x60D4A61940Ac5e59cbdaF05E7F702B26048320bF\n        ); // DAI => WETH : 10\n        createPool(NATIVE_PAIR, 0xd24ac22e0Fb3694D0318c9e56E1E99D170a31864); // MATIC => USDT : 11\n    }\n\n    // === Modifiers === //\n\n    modifier onlyGuest() {\n        require(providers[msg.sender].id == 0, \"Only Guest\");\n        _;\n    }\n\n    modifier onlyProvider() {\n        require(providers[msg.sender].id != 0, \"Only Provider\");\n        _;\n    }\n\n    modifier onlyDeployer() {\n        require(msg.sender == _deployer, \"Only Deployer\");\n        _;\n    }\n}\n",
  "sourcePath": "C:\\Users\\Arogundade Ibrahim\\Documents\\web3\\fleep\\contracts\\Swap.sol",
  "compiler": {
    "name": "solc",
    "version": "0.8.16+commit.07a7930e.Emscripten.clang"
  },
  "schemaVersion": "3.4.10",
  "updatedAt": "2022-12-03T14:31:05.724Z",
  "devdoc": {
    "kind": "dev",
    "methods": {},
    "version": 1
  },
  "userdoc": {
    "kind": "user",
    "methods": {},
    "version": 1
  }
}