{
  "contractName": "Swap",
  "abi": [
    {
      "inputs": [
        {
          "internalType": "address",
          "name": "priceApI",
          "type": "address"
        },
        {
          "internalType": "address",
          "name": "token",
          "type": "address"
        }
      ],
      "stateMutability": "nonpayable",
      "type": "constructor"
    },
    {
      "anonymous": false,
      "inputs": [
        {
          "indexed": false,
          "internalType": "uint256",
          "name": "amount",
          "type": "uint256"
        },
        {
          "indexed": false,
          "internalType": "uint256",
          "name": "amountOut",
          "type": "uint256"
        },
        {
          "indexed": false,
          "internalType": "address",
          "name": "from",
          "type": "address"
        },
        {
          "indexed": false,
          "internalType": "address",
          "name": "to",
          "type": "address"
        },
        {
          "indexed": false,
          "internalType": "uint256",
          "name": "timestamp",
          "type": "uint256"
        }
      ],
      "name": "FleepSwaped",
      "type": "event"
    },
    {
      "anonymous": false,
      "inputs": [
        {
          "indexed": false,
          "internalType": "address",
          "name": "token0",
          "type": "address"
        },
        {
          "indexed": false,
          "internalType": "address",
          "name": "token1",
          "type": "address"
        },
        {
          "indexed": false,
          "internalType": "uint256",
          "name": "amount0",
          "type": "uint256"
        },
        {
          "indexed": false,
          "internalType": "uint256",
          "name": "amount1",
          "type": "uint256"
        },
        {
          "indexed": false,
          "internalType": "address",
          "name": "provider",
          "type": "address"
        },
        {
          "indexed": false,
          "internalType": "uint256",
          "name": "timestamp",
          "type": "uint256"
        }
      ],
      "name": "LiquidProvided",
      "type": "event"
    },
    {
      "anonymous": false,
      "inputs": [
        {
          "indexed": false,
          "internalType": "address",
          "name": "token0",
          "type": "address"
        },
        {
          "indexed": false,
          "internalType": "address",
          "name": "token1",
          "type": "address"
        },
        {
          "indexed": false,
          "internalType": "uint256",
          "name": "amount0",
          "type": "uint256"
        },
        {
          "indexed": false,
          "internalType": "uint256",
          "name": "amount1",
          "type": "uint256"
        },
        {
          "indexed": false,
          "internalType": "address",
          "name": "provider",
          "type": "address"
        }
      ],
      "name": "LiquidRemoved",
      "type": "event"
    },
    {
      "inputs": [],
      "name": "NATIVE_PAIR",
      "outputs": [
        {
          "internalType": "address",
          "name": "",
          "type": "address"
        }
      ],
      "stateMutability": "view",
      "type": "function",
      "constant": true
    },
    {
      "inputs": [
        {
          "internalType": "uint256",
          "name": "",
          "type": "uint256"
        }
      ],
      "name": "liquids",
      "outputs": [
        {
          "internalType": "uint256",
          "name": "id",
          "type": "uint256"
        },
        {
          "internalType": "uint256",
          "name": "poolId",
          "type": "uint256"
        },
        {
          "internalType": "uint256",
          "name": "amount0",
          "type": "uint256"
        },
        {
          "internalType": "uint256",
          "name": "amount1",
          "type": "uint256"
        },
        {
          "internalType": "address",
          "name": "provider",
          "type": "address"
        }
      ],
      "stateMutability": "view",
      "type": "function",
      "constant": true
    },
    {
      "inputs": [
        {
          "internalType": "address",
          "name": "",
          "type": "address"
        }
      ],
      "name": "pairs",
      "outputs": [
        {
          "internalType": "address",
          "name": "",
          "type": "address"
        }
      ],
      "stateMutability": "view",
      "type": "function",
      "constant": true
    },
    {
      "inputs": [
        {
          "internalType": "uint256",
          "name": "",
          "type": "uint256"
        }
      ],
      "name": "pools",
      "outputs": [
        {
          "internalType": "uint256",
          "name": "id",
          "type": "uint256"
        },
        {
          "internalType": "address",
          "name": "token0",
          "type": "address"
        },
        {
          "internalType": "address",
          "name": "token1",
          "type": "address"
        }
      ],
      "stateMutability": "view",
      "type": "function",
      "constant": true
    },
    {
      "inputs": [
        {
          "internalType": "address",
          "name": "",
          "type": "address"
        }
      ],
      "name": "providers",
      "outputs": [
        {
          "internalType": "uint256",
          "name": "id",
          "type": "uint256"
        },
        {
          "internalType": "uint256",
          "name": "totalEarned",
          "type": "uint256"
        },
        {
          "internalType": "uint256",
          "name": "balance",
          "type": "uint256"
        }
      ],
      "stateMutability": "view",
      "type": "function",
      "constant": true
    },
    {
      "inputs": [
        {
          "internalType": "address",
          "name": "token0",
          "type": "address"
        },
        {
          "internalType": "address",
          "name": "token1",
          "type": "address"
        }
      ],
      "name": "getPoolSize",
      "outputs": [
        {
          "internalType": "uint256",
          "name": "",
          "type": "uint256"
        },
        {
          "internalType": "uint256",
          "name": "",
          "type": "uint256"
        }
      ],
      "stateMutability": "view",
      "type": "function",
      "constant": true
    },
    {
      "inputs": [
        {
          "internalType": "address",
          "name": "token0",
          "type": "address"
        },
        {
          "internalType": "address",
          "name": "token1",
          "type": "address"
        },
        {
          "internalType": "uint256",
          "name": "amount0",
          "type": "uint256"
        }
      ],
      "name": "estimate",
      "outputs": [
        {
          "internalType": "uint256",
          "name": "",
          "type": "uint256"
        }
      ],
      "stateMutability": "view",
      "type": "function",
      "constant": true
    },
    {
      "inputs": [],
      "name": "getContractAddress",
      "outputs": [
        {
          "internalType": "address",
          "name": "",
          "type": "address"
        }
      ],
      "stateMutability": "view",
      "type": "function",
      "constant": true
    },
    {
      "inputs": [],
      "name": "getNativePair",
      "outputs": [
        {
          "internalType": "address",
          "name": "",
          "type": "address"
        }
      ],
      "stateMutability": "view",
      "type": "function",
      "constant": true
    },
    {
      "inputs": [],
      "name": "unlockedProviderAccount",
      "outputs": [],
      "stateMutability": "nonpayable",
      "type": "function"
    },
    {
      "inputs": [
        {
          "internalType": "address",
          "name": "token0",
          "type": "address"
        },
        {
          "internalType": "address",
          "name": "token1",
          "type": "address"
        },
        {
          "internalType": "uint256",
          "name": "amount0",
          "type": "uint256"
        }
      ],
      "name": "swap",
      "outputs": [
        {
          "internalType": "uint256",
          "name": "",
          "type": "uint256"
        }
      ],
      "stateMutability": "payable",
      "type": "function",
      "payable": true
    },
    {
      "inputs": [
        {
          "internalType": "uint256",
          "name": "poolId",
          "type": "uint256"
        },
        {
          "internalType": "uint256",
          "name": "amount0",
          "type": "uint256"
        }
      ],
      "name": "provideLiquidity",
      "outputs": [],
      "stateMutability": "payable",
      "type": "function",
      "payable": true
    },
    {
      "inputs": [
        {
          "internalType": "uint256",
          "name": "id",
          "type": "uint256"
        }
      ],
      "name": "removeLiquidity",
      "outputs": [],
      "stateMutability": "nonpayable",
      "type": "function"
    },
    {
      "inputs": [
        {
          "internalType": "address",
          "name": "token0",
          "type": "address"
        },
        {
          "internalType": "address",
          "name": "token1",
          "type": "address"
        }
      ],
      "name": "createPool",
      "outputs": [
        {
          "internalType": "uint256",
          "name": "",
          "type": "uint256"
        }
      ],
      "stateMutability": "nonpayable",
      "type": "function"
    },
    {
      "inputs": [
        {
          "internalType": "uint256",
          "name": "amount",
          "type": "uint256"
        }
      ],
      "name": "withDrawEarnings",
      "outputs": [],
      "stateMutability": "nonpayable",
      "type": "function"
    },
    {
      "inputs": [
        {
          "internalType": "address",
          "name": "receiver",
          "type": "address"
        }
      ],
      "name": "withDrawEarningsToVault",
      "outputs": [],
      "stateMutability": "nonpayable",
      "type": "function"
    },
    {
      "inputs": [
        {
          "internalType": "address",
          "name": "pair",
          "type": "address"
        }
      ],
      "name": "updateNativePair",
      "outputs": [],
      "stateMutability": "nonpayable",
      "type": "function"
    },
    {
      "inputs": [
        {
          "internalType": "uint256",
          "name": "fee",
          "type": "uint256"
        }
      ],
      "name": "updateSwapFee",
      "outputs": [],
      "stateMutability": "nonpayable",
      "type": "function"
    },
    {
      "inputs": [
        {
          "internalType": "address",
          "name": "token",
          "type": "address"
        },
        {
          "internalType": "address",
          "name": "pair",
          "type": "address"
        }
      ],
      "name": "createPair",
      "outputs": [],
      "stateMutability": "nonpayable",
      "type": "function"
    },
    {
      "inputs": [
        {
          "internalType": "address",
          "name": "token0",
          "type": "address"
        },
        {
          "internalType": "uint256",
          "name": "amount0",
          "type": "uint256"
        },
        {
          "internalType": "uint256",
          "name": "amount1",
          "type": "uint256"
        },
        {
          "internalType": "address",
          "name": "owner",
          "type": "address"
        }
      ],
      "name": "_transferSwappedTokens1",
      "outputs": [
        {
          "internalType": "uint256",
          "name": "",
          "type": "uint256"
        }
      ],
      "stateMutability": "payable",
      "type": "function",
      "payable": true
    }
  ],
  "bytecode": "0x60806040526001600355600880546001600160a01b03191673d0d5e3db44de05e9f294bb0a3beeaf030de24ada1790553480156200003c57600080fd5b50604051620032d9380380620032d98339810160408190526200005f916200097e565b600080546001600160a01b038085166001600160a01b03199283161790925560018054928416928216929092179091556002805490911633179055620000cd73c0ec2dca88dbe3c91518958c935ce250c718f0eb727a22900a3b98143368bd5906f8e17e9867581b62000160565b62000101733814cf88e2675041504c7d6404f7b8978f8b65b4730fcaa9c899ec5a91ebc3d5dd869de833b06fb04662000160565b60085462000119906001600160a01b03168062000160565b620001236200028e565b6200015773c0ec2dca88dbe3c91518958c935ce250c718f0eb733814cf88e2675041504c7d6404f7b8978f8b65b462000506565b505050620009f8565b6002546001600160a01b03163314620001b05760405162461bcd60e51b815260206004820152600d60248201526c27b7363c902232b83637bcb2b960991b60448201526064015b60405180910390fd5b6001600160a01b038216620002085760405162461bcd60e51b815260206004820152601560248201527f496e76616c696420546f6b656e204164647265737300000000000000000000006044820152606401620001a7565b6001600160a01b038116620002605760405162461bcd60e51b815260206004820152601460248201527f496e76616c6964205061697220416464726573730000000000000000000000006044820152606401620001a7565b6001600160a01b03918216600090815260076020526040902080546001600160a01b03191691909216179055565b336000908152600a602052604090205415620002da5760405162461bcd60e51b815260206004820152600a60248201526913db9b1e4811dd595cdd60b21b6044820152606401620001a7565b6001546040516364614c7160e01b8152600a60048201526001600160a01b03909116906364614c7190602401602060405180830381865afa15801562000324573d6000803e3d6000fd5b505050506040513d601f19601f820116820180604052508101906200034a9190620009b6565b6001546040516370a0823160e01b81523360048201526001600160a01b03909116906370a0823190602401602060405180830381865afa15801562000393573d6000803e3d6000fd5b505050506040513d601f19601f82011682018060405250810190620003b99190620009b6565b1015620004185760405162461bcd60e51b815260206004820152602660248201527f596f75206d75737420686f646c206174206c6561737420313020466c65657020604482015265546f6b656e7360d01b6064820152608401620001a7565b600680549060006200042a83620009d0565b9091555050604080516080810182526006548152336000818152600a602081815285832060018101548287015260028101548688015293909252815260039091018054845181840281018401909552808552929360608501939092830182828015620004b657602002820191906000526020600020905b815481526020019060010190808311620004a1575b505050919092525050336000908152600a60209081526040918290208351815583820151600182015591830151600283015560608301518051620005019260038501920190620008fa565b505050565b336000908152600a60205260408120548103620005565760405162461bcd60e51b815260206004820152600d60248201526c27b7363c90283937bb34b232b960991b6044820152606401620001a7565b6200056283836200056b565b90505b92915050565b6001600160a01b03828116600090815260076020526040812054909116620005d15760405162461bcd60e51b81526020600482015260236024820152600080516020620032b983398151915260448201526236b4b760e91b6064820152608401620001a7565b6001600160a01b0382811660009081526007602052604090205416620006355760405162461bcd60e51b81526020600482015260236024820152600080516020620032b983398151915260448201526236b4b760e91b6064820152608401620001a7565b6000620006438484620007af565b15801591506200065857600091505062000565565b600480549060006200066a83620009d0565b9091555050600454600090815260096020908152604080832081516080810183528154815260018201546001600160a01b039081168286015260028301541681840152600382018054845181870281018701909552808552919492936060860193909290830182828015620006ff57602002820191906000526020600020905b815481526020019060010190808311620006ea575b505050919092525050604080516080810182526004548082526001600160a01b03808b1660208085019182528b83168587019081526060808a0151908701908152600095865260098352969094208551815591516001830180549185166001600160a01b0319928316179055935160028301805491909416941693909317909155925180519596509194929350620007a092600385019290910190620008fa565b50506004549695505050505050565b60006001600160a01b03831615801590620007d257506001600160a01b03821615155b620008205760405162461bcd60e51b815260206004820152601360248201527f496e76616c696420506f6f6c20546f6b656e73000000000000000000000000006044820152606401620001a7565b60005b6004548111620008f0576000818152600960205260409020600101546001600160a01b0385811691161480156200087657506000818152600960205260409020600201546001600160a01b038481169116145b156200088457905062000565565b6000818152600960205260409020600101546001600160a01b038481169116148015620008cd57506000818152600960205260409020600201546001600160a01b038581169116145b15620008db57905062000565565b80620008e781620009d0565b91505062000823565b5060009392505050565b82805482825590600052602060002090810192821562000938579160200282015b82811115620009385782518255916020019190600101906200091b565b50620009469291506200094a565b5090565b5b808211156200094657600081556001016200094b565b80516001600160a01b03811681146200097957600080fd5b919050565b600080604083850312156200099257600080fd5b6200099d8362000961565b9150620009ad6020840162000961565b90509250929050565b600060208284031215620009c957600080fd5b5051919050565b600060018201620009f157634e487b7160e01b600052601160045260246000fd5b5060010190565b6128b18062000a086000396000f3fe60806040526004361061015f5760003560e01c80639c8f9f23116100c0578063df791e5011610074578063ecd44aef11610059578063ecd44aef146103f0578063eebb63ed14610425578063fe33b302146104a957600080fd5b8063df791e50146103bd578063e3433615146103d057600080fd5b8063bf16f65a116100a5578063bf16f65a1461035d578063c9c653961461037d578063d30dce7d1461039d57600080fd5b80639c8f9f23146102d0578063ac4afa38146102f057600080fd5b80635554b552116101175780637a16af7f116100fc5780637a16af7f1461027f5780638a2627f01461029257806391e5f37f146102b057600080fd5b80635554b55214610248578063665a9a2d1461025f57600080fd5b8063102a5f9111610148578063102a5f91146101e157806332a2c5d014610201578063344bfb591461022857600080fd5b8063061bf045146101645780630787bc271461018a575b600080fd5b610177610172366004612682565b6104df565b6040519081526020015b60405180910390f35b34801561019657600080fd5b506101c66101a53660046126c8565b600a6020526000908152604090208054600182015460029092015490919083565b60408051938452602084019290925290820152606001610181565b3480156101ed57600080fd5b506101776101fc3660046126e3565b6105c6565b34801561020d57600080fd5b50305b6040516001600160a01b039091168152602001610181565b34801561023457600080fd5b50600854610210906001600160a01b031681565b34801561025457600080fd5b5061025d610695565b005b34801561026b57600080fd5b5061025d61027a3660046126c8565b610945565b61025d61028d36600461271f565b610ab8565b34801561029e57600080fd5b506008546001600160a01b0316610210565b3480156102bc57600080fd5b5061025d6102cb3660046126c8565b610f20565b3480156102dc57600080fd5b5061025d6102eb366004612741565b610fef565b3480156102fc57600080fd5b5061033861030b366004612741565b60096020526000908152604090208054600182015460029092015490916001600160a01b03908116911683565b604080519384526001600160a01b039283166020850152911690820152606001610181565b34801561036957600080fd5b5061025d610378366004612741565b6112f4565b34801561038957600080fd5b5061025d61039836600461275a565b6113e3565b3480156103a957600080fd5b5061025d6103b8366004612741565b611514565b6101776103cb3660046126e3565b61161c565b3480156103dc57600080fd5b506101776103eb36600461275a565b611b62565b3480156103fc57600080fd5b5061041061040b36600461275a565b611bc3565b60408051928352602083019190915201610181565b34801561043157600080fd5b50610478610440366004612741565b600b6020526000908152604090208054600182015460028301546003840154600490940154929391929091906001600160a01b031685565b6040805195865260208601949094529284019190915260608301526001600160a01b0316608082015260a001610181565b3480156104b557600080fd5b506102106104c43660046126c8565b6007602052600090815260409020546001600160a01b031681565b600354600090859082906104f46064876127a3565b6104fe91906127c5565b6040516323b872dd60e01b81526001600160a01b03868116600483015230602483015260448201899052919250908316906323b872dd906064016020604051808303816000875af1158015610557573d6000803e3d6000fd5b505050506040513d601f19601f8201168201806040525081019061057b91906127e4565b506001600160a01b0384166108fc610593838861280d565b6040518115909202916000818181858888f193505050501580156105bb573d6000803e3d6000fd5b509695505050505050565b600080546001600160a01b038581168352600760205260408084205486831685528185205491517fbaaa61be000000000000000000000000000000000000000000000000000000008152908316600482015290821660248201528392919091169063baaa61be90604401602060405180830381865afa15801561064d573d6000803e3d6000fd5b505050506040513d601f19601f820116820180604052508101906106719190612820565b90506305f5e10061068282856127c5565b61068c91906127a3565b95945050505050565b336000908152600a6020526040902054156106f75760405162461bcd60e51b815260206004820152600a60248201527f4f6e6c792047756573740000000000000000000000000000000000000000000060448201526064015b60405180910390fd5b6001546040516364614c7160e01b8152600a60048201526001600160a01b03909116906364614c7190602401602060405180830381865afa158015610740573d6000803e3d6000fd5b505050506040513d601f19601f820116820180604052508101906107649190612820565b6001546040517f70a082310000000000000000000000000000000000000000000000000000000081523360048201526001600160a01b03909116906370a0823190602401602060405180830381865afa1580156107c5573d6000803e3d6000fd5b505050506040513d601f19601f820116820180604052508101906107e99190612820565b101561085d5760405162461bcd60e51b815260206004820152602660248201527f596f75206d75737420686f646c206174206c6561737420313020466c6565702060448201527f546f6b656e73000000000000000000000000000000000000000000000000000060648201526084016106ee565b6006805490600061086d83612839565b9091555050604080516080810182526006548152336000818152600a6020818152858320600181015482870152600281015486880152939092528152600390910180548451818402810184019095528085529293606085019390928301828280156108f757602002820191906000526020600020905b8154815260200190600101908083116108e3575b505050919092525050336000908152600a602090815260409182902083518155838201516001820155918301516002830155606083015180516109409260038501920190612606565b505050565b336000908152600a602052604081205490036109935760405162461bcd60e51b815260206004820152600d60248201526c27b7363c90283937bb34b232b960991b60448201526064016106ee565b336000908152600a602052604090819020600201546001805492516364614c7160e01b815291926001600160a01b0316916364614c71916109da9160040190815260200190565b602060405180830381865afa1580156109f7573d6000803e3d6000fd5b505050506040513d601f19601f82011682018060405250810190610a1b9190612820565b811015610a6a5760405162461bcd60e51b815260206004820152601f60248201527f42616c616e6365204d7573742062652061746c656173742031204d415449430060448201526064016106ee565b6040516001600160a01b0383169082156108fc029083906000818181858888f19350505050158015610aa0573d6000803e3d6000fd5b5050336000908152600a602052604081206002015550565b336000908152600a60205260408120549003610b065760405162461bcd60e51b815260206004820152600d60248201526c27b7363c90283937bb34b232b960991b60448201526064016106ee565b6064811015610b7c5760405162461bcd60e51b8152602060048201526024808201527f416d6f756e742063616e6e6f74206265206c6573736572207468616e2031303060448201527f205745490000000000000000000000000000000000000000000000000000000060648201526084016106ee565b600854600083815260096020526040812060010154909183916001600160a01b03918216911603610ce25760643411610c1d5760405162461bcd60e51b815260206004820152602360248201527f4d617469632063616e6e6f74206265206c6573736572207468616e20314f4f2060448201527f574549000000000000000000000000000000000000000000000000000000000060648201526084016106ee565b50600083815260096020526040902060018101546002909101543491610c50916001600160a01b039182169116836105c6565b600085815260096020526040908190206002015490516323b872dd60e01b8152336004820152306024820152604481018390529193506001600160a01b0316906323b872dd906064016020604051808303816000875af1158015610cb8573d6000803e3d6000fd5b505050506040513d601f19601f82011682018060405250810190610cdc91906127e4565b50610e2c565b60008481526009602052604090206001810154600290910154610d12916001600160a01b039081169116836105c6565b600085815260096020526040908190206001015490516323b872dd60e01b8152336004820152306024820152604481018490529193506001600160a01b0316906323b872dd906064016020604051808303816000875af1158015610d7a573d6000803e3d6000fd5b505050506040513d601f19601f82011682018060405250810190610d9e91906127e4565b50600084815260096020526040908190206002015490516323b872dd60e01b8152336004820152306024820152604481018490526001600160a01b03909116906323b872dd906064016020604051808303816000875af1158015610e06573d6000803e3d6000fd5b505050506040513d601f19601f82011682018060405250810190610e2a91906127e4565b505b6000610e388533611be9565b90508015610e92576000818152600b602052604081206002018054849290610e61908490612852565b90915550506000818152600b602052604081206003018054859290610e87908490612852565b90915550610e9e9050565b610e9e85838533611cd2565b600085815260096020908152604091829020600181015460029091015483516001600160a01b039283168152911691810191909152908101839052606081018490523360808201524260a08201527f461ecd615ea1465ce04ee1aa1810891df016f8b506e515ba3a18bb12f54962e59060c00160405180910390a15050505050565b6002546001600160a01b03163314610f6a5760405162461bcd60e51b815260206004820152600d60248201526c27b7363c902232b83637bcb2b960991b60448201526064016106ee565b6001600160a01b038116610fc05760405162461bcd60e51b815260206004820152601460248201527f496e76616c69642050616972204164647265737300000000000000000000000060448201526064016106ee565b6008805473ffffffffffffffffffffffffffffffffffffffff19166001600160a01b0392909216919091179055565b336000908152600a6020526040812054900361103d5760405162461bcd60e51b815260206004820152600d60248201526c27b7363c90283937bb34b232b960991b60448201526064016106ee565b6000818152600b60205260409020600401546001600160a01b031633146110a65760405162461bcd60e51b815260206004820152600c60248201527f556e617574686f72697a6564000000000000000000000000000000000000000060448201526064016106ee565b6000818152600b60209081526040808320600190810154845260098352818420825160808101845281548152918101546001600160a01b039081168386015260028201541682840152600381018054845181870281018701909552808552929491936060860193909283018282801561113e57602002820191906000526020600020905b81548152602001906001019080831161112a575b505050919092525050506020818101516040808401516000878152600b9094529281902060020154905163a9059cbb60e01b81523360048201526024810191909152929350916001600160a01b0383169063a9059cbb906044016020604051808303816000875af11580156111b7573d6000803e3d6000fd5b505050506040513d601f19601f820116820180604052508101906111db91906127e4565b506000848152600b60205260409081902060030154905163a9059cbb60e01b815233600482015260248101919091526001600160a01b0382169063a9059cbb906044016020604051808303816000875af115801561123d573d6000803e3d6000fd5b505050506040513d601f19601f8201168201806040525081019061126191906127e4565b506000848152600b6020908152604091829020600281015460039091015483516001600160a01b0380881682528616938101939093529282015260608101919091523360808201527f5e6147f7a7f2044d0306f332242c42c794194f3d418ce70addd36933a5032a179060a00160405180910390a15050506000908152600b602052604081206002810182905560030155565b6002546001600160a01b0316331461133e5760405162461bcd60e51b815260206004820152600d60248201526c27b7363c902232b83637bcb2b960991b60448201526064016106ee565b6000811161138e5760405162461bcd60e51b815260206004820152601b60248201527f506c6174666f726d206665652063616e6e6f74206265207a65726f000000000060448201526064016106ee565b606481106113de5760405162461bcd60e51b815260206004820181905260248201527f506c6174666f726d206665652063616e6e6f7420626520612068756e6472656460448201526064016106ee565b600355565b6002546001600160a01b0316331461142d5760405162461bcd60e51b815260206004820152600d60248201526c27b7363c902232b83637bcb2b960991b60448201526064016106ee565b6001600160a01b0382166114835760405162461bcd60e51b815260206004820152601560248201527f496e76616c696420546f6b656e2041646472657373000000000000000000000060448201526064016106ee565b6001600160a01b0381166114d95760405162461bcd60e51b815260206004820152601460248201527f496e76616c69642050616972204164647265737300000000000000000000000060448201526064016106ee565b6001600160a01b039182166000908152600760205260409020805473ffffffffffffffffffffffffffffffffffffffff191691909216179055565b336000908152600a602052604081205490036115625760405162461bcd60e51b815260206004820152600d60248201526c27b7363c90283937bb34b232b960991b60448201526064016106ee565b336000908152600a60205260409020600201548111156115c45760405162461bcd60e51b815260206004820152601460248201527f496e73756666696369656e742042616c616e636500000000000000000000000060448201526064016106ee565b604051339082156108fc029083906000818181858888f193505050501580156115f1573d6000803e3d6000fd5b50336000908152600a60205260408120600201805483929061161490849061280d565b909155505050565b600060648210156116955760405162461bcd60e51b815260206004820152602c60248201527f416d6f756e7420746f20737761702063616e6e6f74206265206c65737365722060448201527f7468616e2031303020574549000000000000000000000000000000000000000060648201526084016106ee565b600082816116a38787611db3565b6000818152600960205260409020549091506117015760405162461bcd60e51b815260206004820152601460248201527f506f6f6c20646f6573206e6f742065786973747300000000000000000000000060448201526064016106ee565b6008546000828152600960205260409020600101546001600160a01b039182169116036118a457600854600082815260096020526040902060020154349350611757916001600160a01b039081169116846105c6565b9250600061176482611ef1565b915050838110156117b75760405162461bcd60e51b815260206004820152601660248201527f496e73756666696369656e7420506f6f6c2053697a650000000000000000000060448201526064016106ee565b6000828152600960205260408120600201546117dd906001600160a01b03168633611fa5565b9050600060646117ee8360506127c5565b6117f891906127a3565b60008581526009602090815260409182902082516080810184528154815260018201546001600160a01b03908116828501526002830154168185015260038201805485518186028101860190965280865295965061189c958b958d958b95936060860193909183018282801561188d57602002820191906000526020600020905b815481526020019060010190808311611879575b5050505050815250508561208a565b505050611b01565b6008546000828152600960205260409020600201546001600160a01b0391821691160361197e576000818152600960205260409020600101546008546118f7916001600160a01b039081169116846105c6565b9250600061190482611ef1565b509050838110156119575760405162461bcd60e51b815260206004820152601660248201527f496e73756666696369656e7420506f6f6c2053697a650000000000000000000060448201526064016106ee565b6000828152600960205260408120600101546117dd906001600160a01b03168587336104df565b600081815260096020526040902060018101546002909101546119ae916001600160a01b039081169116846105c6565b925060006119bb82611ef1565b91505083811015611a0e5760405162461bcd60e51b815260206004820152601660248201527f496e73756666696369656e7420506f6f6c2053697a650000000000000000000060448201526064016106ee565b60008281526009602052604081206001810154600290910154611a40916001600160a01b03908116911686883361223b565b905060006064611a518360506127c5565b611a5b91906127a3565b60008581526009602090815260409182902082516080810184528154815260018201546001600160a01b039081168285015260028301541681850152600382018054855181860281018601909652808652959650611afd958b958d958b95936060860193909183018282801561188d5760200282019190600052602060002090815481526020019060010190808311611879575050505050815250508561208a565b5050505b60408051868152602081018590526001600160a01b03898116828401528816606082015242608082015290517f649451cb6bd28801e8992e83f834233301eb39b64a665a45b1e08d3e13ff679a9181900360a00190a1509095945050505050565b336000908152600a60205260408120548103611bb05760405162461bcd60e51b815260206004820152600d60248201526c27b7363c90283937bb34b232b960991b60448201526064016106ee565b611bba83836123a1565b90505b92915050565b6000806000611bd28585611db3565b9050611bdd81611ef1565b92509250509250929050565b6001600160a01b0381166000908152600a6020908152604080832060030180548251818502810185019093528083528493830182828015611c4957602002820191906000526020600020905b815481526020019060010190808311611c35575b5050505050905060005b8151811015611cc75784600b6000848481518110611c7357611c73612865565b602002602001015181526020019081526020016000206001015403611cb557818181518110611ca457611ca4612865565b602002602001015192505050611bbd565b80611cbf81612839565b915050611c53565b506000949350505050565b60058054906000611ce283612839565b90915550506040805160a081018252600580548083526020808401898152848601988952606085019788526001600160a01b03968716608086018181526000948552600b845287852096518755915160018088019190915599516002870155975160038087019190915590516004909501805473ffffffffffffffffffffffffffffffffffffffff19169590971694909417909555968752600984528287208154908301805480890182559089528589200155938652600a8352908520925492018054938401815584529092200155565b60006001600160a01b03831615801590611dd557506001600160a01b03821615155b611e215760405162461bcd60e51b815260206004820152601360248201527f496e76616c696420506f6f6c20546f6b656e730000000000000000000000000060448201526064016106ee565b60005b6004548111611ee7576000818152600960205260409020600101546001600160a01b038581169116148015611e7557506000818152600960205260409020600201546001600160a01b038481169116145b15611e81579050611bbd565b6000818152600960205260409020600101546001600160a01b038481169116148015611ec957506000818152600960205260409020600201546001600160a01b038581169116145b15611ed5579050611bbd565b80611edf81612839565b915050611e24565b5060009392505050565b60008060008060005b600086815260096020526040902060030154811015611f9a576000868152600960205260408120600301805483908110611f3657611f36612865565b90600052602060002001549050600b60008281526020019081526020016000206002015484611f659190612852565b6000828152600b6020526040902060030154909450611f849084612852565b9250508080611f9290612839565b915050611efa565b509094909350915050565b60035460009084908290611fba6064876127a3565b611fc491906127c5565b90506001600160a01b03821663a9059cbb85611fe0848961280d565b6040517fffffffff0000000000000000000000000000000000000000000000000000000060e085901b1681526001600160a01b03909216600483015260248201526044016020604051808303816000875af1158015612043573d6000803e3d6000fd5b505050506040513d601f19601f8201168201806040525081019061206791906127e4565b506008546120809087906001600160a01b0316836105c6565b9695505050505050565b60005b826060015151811015612233576000836060015182815181106120b2576120b2612865565b6020026020010151905060008588600b6000858152602001908152602001600020600301546120e191906127c5565b6120eb91906127a3565b905080600b600084815260200190815260200160002060020160008282546121139190612852565b90915550506000828152600b60205260408120600301548790612137908a906127c5565b61214191906127a3565b905080600b60008581526020019081526020016000206003016000828254612169919061280d565b90915550506000838152600b6020526040812060030154889061218d9088906127c5565b61219791906127a3565b6000858152600b60209081526040808320600401546001600160a01b03168352600a9091528120600101805492935083929091906121d6908490612852565b90915550506000848152600b60209081526040808320600401546001600160a01b03168352600a90915281206002018054839290612215908490612852565b9250508190555050505050808061222b90612839565b91505061208d565b505050505050565b6003546000908690869083906122526064886127a3565b61225c91906127c5565b6040516323b872dd60e01b81526001600160a01b038781166004830152306024830152604482018a9052919250908416906323b872dd906064016020604051808303816000875af11580156122b5573d6000803e3d6000fd5b505050506040513d601f19601f820116820180604052508101906122d991906127e4565b506001600160a01b03821663a9059cbb866122f4848a61280d565b6040517fffffffff0000000000000000000000000000000000000000000000000000000060e085901b1681526001600160a01b03909216600483015260248201526044016020604051808303816000875af1158015612357573d6000803e3d6000fd5b505050506040513d601f19601f8201168201806040525081019061237b91906127e4565b506008546123949089906001600160a01b0316836105c6565b9998505050505050505050565b6001600160a01b038281166000908152600760205260408120549091166124165760405162461bcd60e51b815260206004820152602360248201527f5061697220646f6573206e6f74206578697374732c20436f6e7461637420616460448201526236b4b760e91b60648201526084016106ee565b6001600160a01b03828116600090815260076020526040902054166124895760405162461bcd60e51b815260206004820152602360248201527f5061697220646f6573206e6f74206578697374732c20436f6e7461637420616460448201526236b4b760e91b60648201526084016106ee565b60006124958484611db3565b15801591506124a8576000915050611bbd565b600480549060006124b883612839565b9091555050600454600090815260096020908152604080832081516080810183528154815260018201546001600160a01b03908116828601526002830154168184015260038201805484518187028101870190955280855291949293606086019390929083018282801561254b57602002820191906000526020600020905b815481526020019060010190808311612537575b505050919092525050604080516080810182526004548082526001600160a01b03808b1660208085019182528b83168587019081526060808a01519087019081526000958652600983529690942085518155915160018301805491851673ffffffffffffffffffffffffffffffffffffffff199283161790559351600283018054919094169416939093179091559251805195965091949293506125f792600385019290910190612606565b50506004549695505050505050565b828054828255906000526020600020908101928215612641579160200282015b82811115612641578251825591602001919060010190612626565b5061264d929150612651565b5090565b5b8082111561264d5760008155600101612652565b80356001600160a01b038116811461267d57600080fd5b919050565b6000806000806080858703121561269857600080fd5b6126a185612666565b935060208501359250604085013591506126bd60608601612666565b905092959194509250565b6000602082840312156126da57600080fd5b611bba82612666565b6000806000606084860312156126f857600080fd5b61270184612666565b925061270f60208501612666565b9150604084013590509250925092565b6000806040838503121561273257600080fd5b50508035926020909101359150565b60006020828403121561275357600080fd5b5035919050565b6000806040838503121561276d57600080fd5b61277683612666565b915061278460208401612666565b90509250929050565b634e487b7160e01b600052601160045260246000fd5b6000826127c057634e487b7160e01b600052601260045260246000fd5b500490565b60008160001904831182151516156127df576127df61278d565b500290565b6000602082840312156127f657600080fd5b8151801515811461280657600080fd5b9392505050565b81810381811115611bbd57611bbd61278d565b60006020828403121561283257600080fd5b5051919050565b60006001820161284b5761284b61278d565b5060010190565b80820180821115611bbd57611bbd61278d565b634e487b7160e01b600052603260045260246000fdfea26469706673582212204cf9ec0bd0e479ab07c16a24eae168f710ad5995ab6bd444c7ff730a8fd962ee64736f6c634300081000335061697220646f6573206e6f74206578697374732c20436f6e74616374206164",
  "immutableReferences": {},
  "source": "// SPDX-License-Identifier: GPL-3.0\npragma solidity >=0.7.0 <0.9.0;\n\nimport {PriceApi} from \"./PriceApi.sol\";\nimport {Token} from \"./Token.sol\";\nimport {IERC20} from \"@openzeppelin/contracts/token/ERC20/IERC20.sol\";\n\ncontract Swap {\n    PriceApi private _priceApi;\n    Token private _token;\n\n    // contract admin\n    address private _deployer;\n\n    // charges 1% fee on every successful swaps\n    uint private swapFee = 1;\n\n    // ids to avoid conflicts\n    uint256 private POOL_ID;\n    uint256 private LIQUID_ID;\n    uint256 private PROVIDER_ID;\n\n    // token contract address => chainlink aggregrator address\n    // only in the token paired to USD format\n    mapping(address => address) public pairs;\n\n    // is a member of the pairs mapping\n    // but its the native pair MATIC not IERC20\n    address public NATIVE_PAIR = 0xd0D5e3DB44DE05E9F294BB0a3bEEaF030DE24Ada;\n\n    // id => liquidity pools\n    mapping(uint => Pool) public pools;\n    // user address => provider data\n    mapping(address => Provider) public providers;\n    // id => liquids\n    mapping(uint => Liquid) public liquids;\n\n    // === Events === //\n\n    event LiquidProvided(\n        address token0,\n        address token1,\n        uint256 amount0,\n        uint256 amount1,\n        address provider,\n        uint timestamp\n    );\n\n    event LiquidRemoved(\n        address token0,\n        address token1,\n        uint256 amount0,\n        uint256 amount1,\n        address provider\n    );\n\n    event FleepSwaped(\n        uint256 amount,\n        uint256 amountOut,\n        address from,\n        address to,\n        uint timestamp\n    );\n\n    // === Structs === //\n\n    struct Pool {\n        uint id;\n        address token0;\n        address token1;\n        uint[] liquids;\n    }\n\n    struct Liquid {\n        uint id;\n        uint poolId;\n        uint256 amount0;\n        uint256 amount1;\n        address provider;\n    }\n\n    struct Provider {\n        uint id;\n        uint256 totalEarned;\n        uint256 balance;\n        uint[] liquids;\n    }\n\n    constructor(address priceApI, address token) {\n        _priceApi = PriceApi(priceApI);\n        _token = Token(token);\n        _deployer = msg.sender;\n\n        createPair(\n            0xc0EC2DCA88Dbe3C91518958C935Ce250c718f0EB,\n            0x007A22900a3B98143368Bd5906f8E17e9867581b\n        );\n        createPair(\n            0x3814CF88e2675041504C7d6404f7b8978F8B65B4,\n            0x0FCAa9c899EC5A91eBc3D5Dd869De833b06fB046\n        );\n        createPair(NATIVE_PAIR, NATIVE_PAIR);\n\n        unlockedProviderAccount();\n        createPool(\n            0xc0EC2DCA88Dbe3C91518958C935Ce250c718f0EB,\n            0x3814CF88e2675041504C7d6404f7b8978F8B65B4\n        );\n    }\n\n    // calculates all the size of the liquids\n    // in a pool of token pair\n    function getPoolSize(\n        address token0,\n        address token1\n    ) public view returns (uint256, uint256) {\n        uint poolId = _findPool(token0, token1);\n        return _poolSize(poolId);\n    }\n\n    // gets the exchanges rates for pair of tokens\n    // with accordance to amount of tokens\n    function estimate(\n        address token0,\n        address token1,\n        uint256 amount0 // in wei\n    ) public view returns (uint256) {\n        int256 rate = _priceApi.getExchangeRate(pairs[token0], pairs[token1]);\n        return (amount0 * uint256(rate)) / (10 ** 8);\n    }\n\n    // returns the contract address\n    function getContractAddress() public view returns (address) {\n        return address(this);\n    }\n\n    // returns the pair address for $MATIC\n    function getNativePair() public view returns (address) {\n        return NATIVE_PAIR;\n    }\n\n    // register as a provider\n    function unlockedProviderAccount() public onlyGuest {\n        // to become a provider you must hodl at least 10\n        // tokens of Fleep Token\n        require(\n            _token.balanceOf(msg.sender) >= _token.inWei(10),\n            \"You must hodl at least 10 Fleep Tokens\"\n        );\n\n        PROVIDER_ID++;\n        providers[msg.sender] = Provider(\n            PROVIDER_ID,\n            providers[msg.sender].totalEarned,\n            providers[msg.sender].balance,\n            providers[msg.sender].liquids\n        );\n    }\n\n    // === Swapping === //\n\n    function swap(\n        address token0,\n        address token1,\n        uint256 amount0\n    ) public payable returns (uint256) {\n        require(amount0 >= 100, \"Amount to swap cannot be lesser than 100 WEI\");\n\n        uint256 amount1;\n        uint256 _safeAmount0 = amount0;\n\n        uint poolId = _findPool(token0, token1);\n        require(pools[poolId].id > 0, \"Pool does not exists\");\n\n        // MATIC => ERC20\n        if (pools[poolId].token0 == NATIVE_PAIR) {\n            _safeAmount0 = msg.value;\n            amount1 = estimate(NATIVE_PAIR, pools[poolId].token1, _safeAmount0);\n\n            // check if contract has enough destination token liquid\n            (, uint256 poolSizeToken1) = _poolSize(poolId);\n            require(poolSizeToken1 >= amount1, \"Insufficient Pool Size\");\n\n            uint256 fee = _transferSwappedTokens0(\n                pools[poolId].token1,\n                amount1,\n                msg.sender\n            );\n            uint256 providersReward = ((fee * 80) / 100);\n\n            _aggregateLiquids(\n                _safeAmount0,\n                amount1,\n                poolSizeToken1,\n                pools[poolId],\n                providersReward\n            );\n        } else if (pools[poolId].token1 == NATIVE_PAIR) {\n            // ERC20 => MATIC\n            amount1 = estimate(pools[poolId].token0, NATIVE_PAIR, _safeAmount0);\n\n            // check if contract has enough destination token liquid\n            (uint256 poolSizeToken1, ) = _poolSize(poolId);\n            require(poolSizeToken1 >= amount1, \"Insufficient Pool Size\");\n\n            uint256 fee = _transferSwappedTokens1(\n                pools[poolId].token0,\n                _safeAmount0,\n                amount1,\n                msg.sender\n            );\n            uint256 providersReward = ((fee * 80) / 100);\n\n            _aggregateLiquids(\n                _safeAmount0,\n                amount1,\n                poolSizeToken1,\n                pools[poolId],\n                providersReward\n            );\n        } else {\n            // ERC0 => ERC2O\n            amount1 = estimate(\n                pools[poolId].token0,\n                pools[poolId].token1,\n                _safeAmount0\n            );\n\n            // check if contract has enough destination token liquid\n            (, uint256 poolSizeToken1) = _poolSize(poolId);\n            require(poolSizeToken1 >= amount1, \"Insufficient Pool Size\");\n\n            uint256 fee = _transferSwappedTokens2(\n                pools[poolId].token0,\n                pools[poolId].token1,\n                _safeAmount0,\n                amount1,\n                msg.sender\n            );\n\n            uint256 providersReward = ((fee * 80) / 100);\n\n            _aggregateLiquids(\n                _safeAmount0,\n                amount1,\n                poolSizeToken1,\n                pools[poolId],\n                providersReward\n            );\n        }\n\n        // store the swap data on-chain\n        emit FleepSwaped(amount0, amount1, token0, token1, block.timestamp);\n\n        return amount1;\n    }\n\n    // === Providers === //\n\n    function provideLiquidity(\n        uint poolId,\n        uint256 amount0\n    ) public payable onlyProvider {\n        require(amount0 >= 100, \"Amount cannot be lesser than 100 WEI\");\n\n        uint256 amount1;\n        uint256 _safeAmount0 = amount0;\n\n        if (pools[poolId].token0 == NATIVE_PAIR) {\n            require(msg.value > 100, \"Matic cannot be lesser than 1OO WEI\");\n            // only in format of MATIC as pair subject\n            // ex MATIC/XEND\n\n            _safeAmount0 = msg.value;\n            // get the estimate for token1\n            amount1 = estimate(\n                pools[poolId].token0,\n                pools[poolId].token1,\n                _safeAmount0\n            );\n            // stake token1 to smart contract\n            IERC20(pools[poolId].token1).transferFrom(\n                msg.sender,\n                address(this),\n                amount1\n            );\n        } else {\n            // get the estimate for token1\n            amount1 = estimate(\n                pools[poolId].token0,\n                pools[poolId].token1,\n                _safeAmount0\n            );\n            // stake tokens to smart contract\n            IERC20(pools[poolId].token0).transferFrom(\n                msg.sender,\n                address(this),\n                _safeAmount0\n            );\n            IERC20(pools[poolId].token1).transferFrom(\n                msg.sender,\n                address(this),\n                amount1\n            );\n        }\n\n        uint liquidId = _liquidIndex(poolId, msg.sender);\n\n        if (liquidId > 0) {\n            // if liquid exist increment the amount\n            liquids[liquidId].amount0 += _safeAmount0;\n            liquids[liquidId].amount1 += amount1;\n        } else {\n            // otherwise create the new liquid\n            _createLiquid(poolId, _safeAmount0, amount1, msg.sender);\n        }\n\n        // store the liquidity data on-chain\n        emit LiquidProvided(\n            pools[poolId].token0,\n            pools[poolId].token1,\n            _safeAmount0,\n            amount1,\n            msg.sender,\n            block.timestamp\n        );\n    }\n\n    function removeLiquidity(uint id) public onlyProvider {\n        require(liquids[id].provider == msg.sender, \"Unauthorized\");\n\n        Pool memory pool = pools[liquids[id].poolId];\n        IERC20 token0 = IERC20(pool.token0);\n        IERC20 token1 = IERC20(pool.token1);\n\n        token0.transfer(msg.sender, liquids[id].amount0);\n        token1.transfer(msg.sender, liquids[id].amount1);\n\n        emit LiquidRemoved(\n            address(token0),\n            address(token1),\n            liquids[id].amount0,\n            liquids[id].amount1,\n            msg.sender\n        );\n\n        // delete liquid TO DO\n        liquids[id].amount0 = 0;\n        liquids[id].amount1 = 0;\n    }\n\n    function createPool(\n        address token0,\n        address token1\n    ) public onlyProvider returns (uint) {\n        return _createPool(token0, token1);\n    }\n\n    function withDrawEarnings(uint256 amount) public onlyProvider {\n        require(\n            providers[msg.sender].balance >= amount,\n            \"Insufficient Balance\"\n        );\n        payable(msg.sender).transfer(amount);\n        providers[msg.sender].balance -= amount;\n    }\n\n    function withDrawEarningsToVault(address receiver) public onlyProvider {\n        uint256 amount = providers[msg.sender].balance;\n        require(amount >= _token.inWei(1), \"Balance Must be atleast 1 MATIC\");\n        payable(receiver).transfer(amount);\n        providers[msg.sender].balance = 0;\n    }\n\n    // === Administration === //\n\n    function updateNativePair(address pair) public onlyDeployer {\n        require(pair != address(0), \"Invalid Pair Address\");\n        NATIVE_PAIR = pair;\n    }\n\n    function updateSwapFee(uint fee) public onlyDeployer {\n        require(fee > 0, \"Platform fee cannot be zero\");\n        require(fee < 100, \"Platform fee cannot be a hundred\");\n        swapFee = fee;\n    }\n\n    function createPair(address token, address pair) public onlyDeployer {\n        require(token != address(0), \"Invalid Token Address\");\n        require(pair != address(0), \"Invalid Pair Address\");\n        pairs[token] = pair;\n    }\n\n    // === Internal Functions === //\n\n    function _liquidIndex(\n        uint poolId,\n        address provider\n    ) private view returns (uint) {\n        uint256[] memory providerLiquids = providers[provider].liquids;\n\n        for (uint index = 0; index < providerLiquids.length; index++) {\n            if (liquids[providerLiquids[index]].poolId == poolId) {\n                return providerLiquids[index];\n            }\n        }\n\n        return 0;\n    }\n\n    function _aggregateLiquids(\n        uint256 amount0,\n        uint256 amount1,\n        uint256 poolSizeToken1,\n        Pool memory pool,\n        uint256 fee\n    ) private {\n        // equally share swap impact on all provider liquids based on their contribution\n        for (uint index = 0; index < pool.liquids.length; index++) {\n            uint liquidId = pool.liquids[index];\n\n            // calculated with ratio of this liquid compared\n            // to other liquids contributing\n            uint256 additionAmount = ((liquids[liquidId].amount1 * amount0) /\n                poolSizeToken1);\n\n            // step I\n            liquids[liquidId].amount0 += additionAmount;\n\n            // calculated with ratio of this liquid compared\n            // to other liquids contributing\n            uint256 deductionAmount = ((liquids[liquidId].amount1 * amount1) /\n                poolSizeToken1);\n\n            // step II\n            liquids[liquidId].amount1 -= deductionAmount;\n\n            // reward the liquid provider\n            uint256 reward = ((liquids[liquidId].amount1 * fee) /\n                poolSizeToken1);\n\n            providers[liquids[liquidId].provider].totalEarned += reward;\n            providers[liquids[liquidId].provider].balance += reward;\n        }\n    }\n\n    // MATIC => ERC20\n    function _transferSwappedTokens0(\n        address token1,\n        uint256 amount1,\n        address owner\n    ) private returns (uint256) {\n        IERC20 quoteToken = IERC20(token1);\n\n        uint256 _fee = ((amount1 / 100) * swapFee);\n\n        // give user their destination token minus fee\n        quoteToken.transfer(owner, (amount1 - _fee));\n\n        // convert fee to matic\n        return estimate(token1, NATIVE_PAIR, _fee);\n    }\n\n    // ERC20 => MATIC\n    function _transferSwappedTokens1(\n        address token0,\n        uint256 amount0,\n        uint256 amount1,\n        address owner\n    ) public payable returns (uint256) {\n        IERC20 baseToken = IERC20(token0);\n\n        uint256 _fee = ((amount1 / 100) * swapFee);\n\n        baseToken.transferFrom(owner, address(this), amount0);\n\n        // give user their destination token minus fee\n        payable(owner).transfer(amount1 - _fee);\n\n        // fee already in matic\n        return _fee;\n    }\n\n    // ERC20 => ERC20\n    function _transferSwappedTokens2(\n        address token0,\n        address token1,\n        uint256 amount0,\n        uint256 amount1,\n        address owner\n    ) private returns (uint256) {\n        IERC20 baseToken = IERC20(token0);\n        IERC20 quoteToken = IERC20(token1);\n\n        uint256 _fee = ((amount1 / 100) * swapFee);\n\n        // tranfers the base token from user to the\n        // smart contract\n        baseToken.transferFrom(owner, address(this), amount0);\n\n        // give user their destination token minus fee\n        quoteToken.transfer(owner, (amount1 - _fee));\n\n        // convert fee to matic\n        return estimate(token1, NATIVE_PAIR, _fee);\n    }\n\n    function _findPool(\n        address token0,\n        address token1\n    ) private view returns (uint) {\n        require(\n            token0 != address(0) && token1 != address(0),\n            \"Invalid Pool Tokens\"\n        );\n        for (uint index = 0; index <= POOL_ID; index++) {\n            // patern A\n            if (\n                pools[index].token0 == token0 && pools[index].token1 == token1\n            ) {\n                return index;\n            }\n\n            // pattern B\n            if (\n                pools[index].token0 == token1 && pools[index].token1 == token0\n            ) {\n                return index;\n            }\n        }\n        return 0;\n    }\n\n    function _createLiquid(\n        uint poolId,\n        uint256 amount0,\n        uint256 amount1,\n        address provider\n    ) private {\n        LIQUID_ID++;\n        // create the liquid\n        liquids[LIQUID_ID] = Liquid(\n            LIQUID_ID,\n            poolId,\n            amount0,\n            amount1,\n            provider\n        );\n        // register the liquid\n        pools[poolId].liquids.push(LIQUID_ID);\n        providers[provider].liquids.push(LIQUID_ID);\n    }\n\n    function _poolSize(uint id) private view returns (uint256, uint256) {\n        uint256 amount0;\n        uint256 amount1;\n        for (uint index = 0; index < pools[id].liquids.length; index++) {\n            uint liquidId = pools[id].liquids[index];\n            amount0 += liquids[liquidId].amount0;\n            amount1 += liquids[liquidId].amount1;\n        }\n        return (amount0, amount1);\n    }\n\n    function _createPool(\n        address token0,\n        address token1\n    ) private returns (uint) {\n        require(\n            pairs[token0] != address(0),\n            \"Pair does not exists, Contact admin\"\n        );\n        require(\n            pairs[token1] != address(0),\n            \"Pair does not exists, Contact admin\"\n        );\n\n        bool exists = _findPool(token0, token1) != 0;\n        if (exists) return 0;\n\n        POOL_ID++;\n        Pool memory pool = pools[POOL_ID];\n\n        pools[POOL_ID] = Pool(POOL_ID, token0, token1, pool.liquids);\n\n        return POOL_ID;\n    }\n\n    // === Modifiers === //\n\n    modifier onlyGuest() {\n        require(providers[msg.sender].id == 0, \"Only Guest\");\n        _;\n    }\n\n    modifier onlyProvider() {\n        require(providers[msg.sender].id != 0, \"Only Provider\");\n        _;\n    }\n\n    modifier onlyDeployer() {\n        require(msg.sender == _deployer, \"Only Deployer\");\n        _;\n    }\n}\n",
  "sourcePath": "C:\\Users\\Arogundade Ibrahim\\Documents\\web3\\fleep\\contracts\\Swap.sol",
  "compiler": {
    "name": "solc",
    "version": "0.8.16+commit.07a7930e.Emscripten.clang"
  },
  "schemaVersion": "3.4.10",
  "updatedAt": "2022-11-30T01:25:51.560Z",
  "networkType": "ethereum",
  "devdoc": {
    "kind": "dev",
    "methods": {},
    "version": 1
  },
  "userdoc": {
    "kind": "user",
    "methods": {},
    "version": 1
  }
}