{
  "contractName": "Sweeper",
  "abi": [
    {
      "inputs": [
        {
          "internalType": "address",
          "name": "swap",
          "type": "address"
        }
      ],
      "stateMutability": "nonpayable",
      "type": "constructor"
    },
    {
      "anonymous": false,
      "inputs": [
        {
          "indexed": false,
          "internalType": "uint256",
          "name": "amount",
          "type": "uint256"
        },
        {
          "indexed": false,
          "internalType": "address",
          "name": "from",
          "type": "address"
        },
        {
          "indexed": false,
          "internalType": "uint256",
          "name": "timestamp",
          "type": "uint256"
        }
      ],
      "name": "FleepSweeped",
      "type": "event"
    },
    {
      "inputs": [
        {
          "internalType": "address[]",
          "name": "tokens",
          "type": "address[]"
        }
      ],
      "name": "sweep",
      "outputs": [
        {
          "internalType": "uint256",
          "name": "",
          "type": "uint256"
        }
      ],
      "stateMutability": "nonpayable",
      "type": "function"
    },
    {
      "inputs": [
        {
          "internalType": "address[]",
          "name": "tokens",
          "type": "address[]"
        },
        {
          "internalType": "address",
          "name": "wallet",
          "type": "address"
        }
      ],
      "name": "estimate",
      "outputs": [
        {
          "internalType": "uint256",
          "name": "",
          "type": "uint256"
        }
      ],
      "stateMutability": "view",
      "type": "function"
    },
    {
      "inputs": [
        {
          "internalType": "address[]",
          "name": "tokens",
          "type": "address[]"
        },
        {
          "internalType": "address",
          "name": "wallet",
          "type": "address"
        }
      ],
      "name": "findDusts",
      "outputs": [
        {
          "internalType": "address[]",
          "name": "",
          "type": "address[]"
        },
        {
          "internalType": "uint256[]",
          "name": "",
          "type": "uint256[]"
        }
      ],
      "stateMutability": "view",
      "type": "function"
    },
    {
      "inputs": [
        {
          "internalType": "uint256",
          "name": "amount",
          "type": "uint256"
        }
      ],
      "name": "updateDUSTThreshold",
      "outputs": [],
      "stateMutability": "nonpayable",
      "type": "function"
    }
  ],
  "bytecode": "0x608060405234801561001057600080fd5b50604051610e9f380380610e9f83398101604081905261002f91610085565b600080546001600160a01b0383166001600160a01b0319918216179091556001805490911633179055610062601461006b565b600255506100e2565b600061007f82670de0b6b3a76400006100b5565b92915050565b60006020828403121561009757600080fd5b81516001600160a01b03811681146100ae57600080fd5b9392505050565b60008160001904831182151516156100dd57634e487b7160e01b600052601160045260246000fd5b500290565b610dae806100f16000396000f3fe608060405234801561001057600080fd5b506004361061004c5760003560e01c80631cf0a8b814610051578063540b001514610077578063780469bb1461008c578063a3b98ef51461009f575b600080fd5b61006461005f366004610bb7565b6100c0565b6040519081526020015b60405180910390f35b61008a610085366004610c09565b6103a4565b005b61006461009a366004610c22565b610421565b6100b26100ad366004610bb7565b6106e8565b60405161006e929190610c5f565b60008060008060009054906101000a90046001600160a01b03166001600160a01b03166316339a9b6040518163ffffffff1660e01b8152600401602060405180830381865afa158015610117573d6000803e3d6000fd5b505050506040513d601f19601f8201168201806040525081019061013b9190610ce3565b905060005b85518110156103985760006001600160a01b031686828151811061016657610166610d07565b60200260200101516001600160a01b031603156103865760008054906101000a90046001600160a01b03166001600160a01b0316638a2627f06040518163ffffffff1660e01b8152600401602060405180830381865afa1580156101ce573d6000803e3d6000fd5b505050506040513d601f19601f820116820180604052508101906101f29190610ce3565b6001600160a01b031686828151811061020d5761020d610d07565b60200260200101516001600160a01b0316031561038657600086828151811061023857610238610d07565b60209081029190910101516040516370a0823160e01b81526001600160a01b0388811660048301529192506000918316906370a0823190602401602060405180830381865afa15801561028f573d6000803e3d6000fd5b505050506040513d601f19601f820116820180604052508101906102b39190610d1d565b60005489519192506001600160a01b03169063102a5f91908a90869081106102dd576102dd610d07565b60209081029190910101516040517fffffffff0000000000000000000000000000000000000000000000000000000060e084901b1681526001600160a01b039182166004820152908716602482015260448101849052606401602060405180830381865afa158015610353573d6000803e3d6000fd5b505050506040513d601f19601f820116820180604052508101906103779190610d1d565b6103819086610d4c565b945050505b8061039081610d5f565b915050610140565b50909150505b92915050565b6001546001600160a01b0316331461041c576040517f08c379a000000000000000000000000000000000000000000000000000000000815260206004820152600d60248201527f4f6e6c79204465706c6f79657200000000000000000000000000000000000000604482015260640160405180910390fd5b600255565b60008060008060009054906101000a90046001600160a01b03166001600160a01b03166316339a9b6040518163ffffffff1660e01b8152600401602060405180830381865afa158015610478573d6000803e3d6000fd5b505050506040513d601f19601f8201168201806040525081019061049c9190610ce3565b905060005b84518110156106a25760006001600160a01b03168582815181106104c7576104c7610d07565b60200260200101516001600160a01b031603156106905760008582815181106104f2576104f2610d07565b60209081029190910101516040516370a0823160e01b81523360048201529091506000906001600160a01b038316906370a0823190602401602060405180830381865afa158015610547573d6000803e3d6000fd5b505050506040513d601f19601f8201168201806040525081019061056b9190610d1d565b9050606481101561057d575050610690565b836001600160a01b031687848151811061059957610599610d07565b60200260200101516001600160a01b0316036105b6575050610690565b60005487516001600160a01b0390911690636e81221c908990869081106105df576105df610d07565b60209081029190910101516040517fffffffff0000000000000000000000000000000000000000000000000000000060e084901b1681526001600160a01b0391821660048201529087166024820152604481018490523360648201526084016020604051808303816000875af115801561065d573d6000803e3d6000fd5b505050506040513d601f19601f820116820180604052508101906106819190610d1d565b61068b9086610d4c565b945050505b8061069a81610d5f565b9150506104a1565b5060408051838152336020820152428183015290517f874f570256cbec110f2a42b8636058d35f973b452ca16bebffab54e320e0e97b9181900360600190a15092915050565b6060806000845167ffffffffffffffff81111561070757610707610ad7565b604051908082528060200260200182016040528015610730578160200160208202803683370190505b5090506000855167ffffffffffffffff81111561074f5761074f610ad7565b604051908082528060200260200182016040528015610778578160200160208202803683370190505b50905060005b8651811015610acb5760006001600160a01b03168782815181106107a4576107a4610d07565b60200260200101516001600160a01b03160315610ab95760008782815181106107cf576107cf610d07565b60209081029190910101516040516370a0823160e01b81526001600160a01b0389811660048301529192506000918316906370a0823190602401602060405180830381865afa158015610826573d6000803e3d6000fd5b505050506040513d601f19601f8201168201806040525081019061084a9190610d1d565b9050606481101561085c575050610ab9565b60008054906101000a90046001600160a01b03166001600160a01b0316638a2627f06040518163ffffffff1660e01b8152600401602060405180830381865afa1580156108ad573d6000803e3d6000fd5b505050506040513d601f19601f820116820180604052508101906108d19190610ce3565b6001600160a01b03168984815181106108ec576108ec610d07565b60200260200101516001600160a01b031603610909575050610ab9565b600080548a516001600160a01b039091169063102a5f91908c908790811061093357610933610d07565b602002602001015160008054906101000a90046001600160a01b03166001600160a01b03166316339a9b6040518163ffffffff1660e01b8152600401602060405180830381865afa15801561098c573d6000803e3d6000fd5b505050506040513d601f19601f820116820180604052508101906109b09190610ce3565b6040517fffffffff0000000000000000000000000000000000000000000000000000000060e085901b1681526001600160a01b0392831660048201529116602482015260448101859052606401602060405180830381865afa158015610a1a573d6000803e3d6000fd5b505050506040513d601f19601f82011682018060405250810190610a3e9190610d1d565b90506002548111610ab557898481518110610a5b57610a5b610d07565b6020026020010151868581518110610a7557610a75610d07565b60200260200101906001600160a01b031690816001600160a01b03168152505080858581518110610aa857610aa8610d07565b6020026020010181815250505b5050505b80610ac381610d5f565b91505061077e565b50909590945092505050565b634e487b7160e01b600052604160045260246000fd5b6001600160a01b0381168114610b0257600080fd5b50565b8035610b1081610aed565b919050565b600082601f830112610b2657600080fd5b8135602067ffffffffffffffff80831115610b4357610b43610ad7565b8260051b604051601f19603f83011681018181108482111715610b6857610b68610ad7565b604052938452858101830193838101925087851115610b8657600080fd5b83870191505b84821015610bac57610b9d82610b05565b83529183019190830190610b8c565b979650505050505050565b60008060408385031215610bca57600080fd5b823567ffffffffffffffff811115610be157600080fd5b610bed85828601610b15565b9250506020830135610bfe81610aed565b809150509250929050565b600060208284031215610c1b57600080fd5b5035919050565b600060208284031215610c3457600080fd5b813567ffffffffffffffff811115610c4b57600080fd5b610c5784828501610b15565b949350505050565b604080825283519082018190526000906020906060840190828701845b82811015610ca15781516001600160a01b031684529284019290840190600101610c7c565b5050508381038285015284518082528583019183019060005b81811015610cd657835183529284019291840191600101610cba565b5090979650505050505050565b600060208284031215610cf557600080fd5b8151610d0081610aed565b9392505050565b634e487b7160e01b600052603260045260246000fd5b600060208284031215610d2f57600080fd5b5051919050565b634e487b7160e01b600052601160045260246000fd5b8082018082111561039e5761039e610d36565b600060018201610d7157610d71610d36565b506001019056fea26469706673582212208ab46c5ae1897ba024317f99ee27fce86995e863458f8752d2a54f0e46365f2364736f6c63430008100033",
  "immutableReferences": {},
  "source": "// SPDX-License-Identifier: GPL-3.0\npragma solidity >=0.7.0 <0.9.0;\n\nimport {Swap} from \"./Swap.sol\";\nimport {PriceApi} from \"./PriceApi.sol\";\nimport {IERC20} from \"@openzeppelin/contracts/token/ERC20/IERC20.sol\";\n\ncontract Sweeper {\n    // dependecies\n    Swap private _swap;\n\n    address private _deployer;\n\n    // dust price threshold\n    uint256 private DUST_THRESHOLD;\n\n    // === Events === //\n\n    event FleepSweeped(uint256 amount, address from, uint timestamp);\n\n    constructor(address swap) {\n        _swap = Swap(swap);\n        _deployer = msg.sender;\n\n        // default is 20 USDT\n        DUST_THRESHOLD = inWei(20);\n    }\n\n    // recursively swap every tokens for USDT\n    function sweep(\n        address[] memory tokens /* address destinationPair */\n    ) public returns (uint256) {\n        uint256 amount1;\n\n        // TO DO for next iteration\n        // user should able to choose the destination\n        // asset but for now, you can only sweep to USDT\n        address destinationPair = _swap.getUSDTPair();\n\n        for (uint index = 0; index < tokens.length; index++) {\n            if (tokens[index] == address(0)) continue;\n\n            IERC20 token = IERC20(tokens[index]);\n            uint256 amount0 = token.balanceOf(msg.sender);\n\n            // amount cannot be lesser than 100 WEI\n            if (amount0 < 100) continue;\n            // dust is already in destination assets\n            if (tokens[index] == destinationPair) continue;\n\n            // swap to USDT\n            amount1 += _swap.swap(\n                tokens[index],\n                destinationPair,\n                amount0,\n                msg.sender\n            );\n        }\n\n        // registers every successful sweeps\n        emit FleepSweeped(amount1, msg.sender, block.timestamp);\n\n        return amount1;\n    }\n\n    function estimate(\n        address[] memory tokens,\n        address wallet /* address destinationPair */\n    ) public view returns (uint256) {\n        uint256 amount1;\n\n        // TO DO for next iteration\n        // user should able to choose the destination\n        // asset but for now, you can only estimate for USDT\n        address destinationPair = _swap.getUSDTPair();\n\n        for (uint index = 0; index < tokens.length; index++) {\n            if (tokens[index] == address(0)) continue;\n\n            // skip if token address points to MATIC\n            // Native coin (MATIC) is not considered as dust\n            if (tokens[index] == _swap.getNativePair()) continue;\n\n            IERC20 token = IERC20(tokens[index]);\n            uint256 amount0 = token.balanceOf(wallet);\n\n            amount1 += _swap.estimate(tokens[index], destinationPair, amount0);\n        }\n\n        return amount1;\n    }\n\n    function findDusts(\n        address[] memory tokens,\n        address wallet\n    ) public view returns (address[] memory, uint256[] memory) {\n        address[] memory dusts = new address[](tokens.length);\n        uint256[] memory amountsInUSDT = new uint256[](tokens.length);\n\n        for (uint index = 0; index < tokens.length; index++) {\n            if (tokens[index] == address(0)) continue;\n\n            IERC20 token = IERC20(tokens[index]);\n            uint256 amount0 = token.balanceOf(wallet);\n\n            // amount cannot be lesser than 100 WEI\n            if (amount0 < 100) continue;\n\n            // skip if token address points to MATIC\n            // Native coin (MATIC) is not considered as dust\n            if (tokens[index] == _swap.getNativePair()) continue;\n\n            // fetching price of the token in usdt\n            uint256 amount1 = _swap.estimate(\n                tokens[index],\n                _swap.getUSDTPair(),\n                amount0\n            );\n\n            // checking is token is a dust\n            // i.e has a value lower than threshold\n            if (amount1 <= DUST_THRESHOLD) {\n                dusts[index] = tokens[index];\n                amountsInUSDT[index] = amount1;\n            }\n        }\n\n        return (dusts, amountsInUSDT);\n    }\n\n    function inWei(uint256 amount) private pure returns (uint256) {\n        return amount * 10 ** 18;\n    }\n\n    function updateDUSTThreshold(uint256 amount) public onlyDeployer {\n        DUST_THRESHOLD = amount;\n    }\n\n    modifier onlyDeployer() {\n        require(msg.sender == _deployer, \"Only Deployer\");\n        _;\n    }\n}\n",
  "sourcePath": "C:\\Users\\Arogundade Ibrahim\\Documents\\web3\\fleep\\contracts\\Sweep.sol",
  "compiler": {
    "name": "solc",
    "version": "0.8.16+commit.07a7930e.Emscripten.clang"
  },
  "schemaVersion": "3.4.10",
  "updatedAt": "2022-12-04T06:25:33.214Z",
  "devdoc": {
    "kind": "dev",
    "methods": {},
    "version": 1
  },
  "userdoc": {
    "kind": "user",
    "methods": {},
    "version": 1
  }
}