{
  "contractName": "Sweeper",
  "abi": [
    {
      "inputs": [
        {
          "internalType": "address",
          "name": "swap",
          "type": "address"
        }
      ],
      "stateMutability": "nonpayable",
      "type": "constructor"
    },
    {
      "anonymous": false,
      "inputs": [
        {
          "indexed": false,
          "internalType": "uint256",
          "name": "amount",
          "type": "uint256"
        },
        {
          "indexed": false,
          "internalType": "address",
          "name": "from",
          "type": "address"
        },
        {
          "indexed": false,
          "internalType": "uint256",
          "name": "timestamp",
          "type": "uint256"
        }
      ],
      "name": "FleepSweeped",
      "type": "event"
    },
    {
      "inputs": [
        {
          "internalType": "address[]",
          "name": "tokens",
          "type": "address[]"
        }
      ],
      "name": "sweep",
      "outputs": [
        {
          "internalType": "uint256",
          "name": "",
          "type": "uint256"
        }
      ],
      "stateMutability": "nonpayable",
      "type": "function"
    },
    {
      "inputs": [
        {
          "internalType": "address[]",
          "name": "tokens",
          "type": "address[]"
        },
        {
          "internalType": "address",
          "name": "wallet",
          "type": "address"
        }
      ],
      "name": "estimate",
      "outputs": [
        {
          "internalType": "uint256",
          "name": "",
          "type": "uint256"
        }
      ],
      "stateMutability": "view",
      "type": "function"
    },
    {
      "inputs": [
        {
          "internalType": "address",
          "name": "token",
          "type": "address"
        },
        {
          "internalType": "address",
          "name": "wallet",
          "type": "address"
        }
      ],
      "name": "isDust",
      "outputs": [
        {
          "internalType": "bool",
          "name": "",
          "type": "bool"
        }
      ],
      "stateMutability": "view",
      "type": "function"
    },
    {
      "inputs": [
        {
          "internalType": "uint256",
          "name": "amount",
          "type": "uint256"
        }
      ],
      "name": "updateDUSTThreshold",
      "outputs": [],
      "stateMutability": "nonpayable",
      "type": "function"
    },
    {
      "inputs": [
        {
          "internalType": "address",
          "name": "pair",
          "type": "address"
        }
      ],
      "name": "updateUSDTPair",
      "outputs": [],
      "stateMutability": "nonpayable",
      "type": "function"
    }
  ],
  "bytecode": "0x608060405234801561001057600080fd5b50604051610b9c380380610b9c83398101604081905261002f91610085565b600080546001600160a01b0383166001600160a01b0319918216179091556001805490911633179055610062601461006b565b600255506100e2565b600061007f82670de0b6b3a76400006100b5565b92915050565b60006020828403121561009757600080fd5b81516001600160a01b03811681146100ae57600080fd5b9392505050565b60008160001904831182151516156100dd57634e487b7160e01b600052601160045260246000fd5b500290565b610aab806100f16000396000f3fe608060405234801561001057600080fd5b50600436106100675760003560e01c8063780469bb11610050578063780469bb146100a7578063e7525ade146100ba578063f50c4fe8146100dd57600080fd5b80631cf0a8b81461006c578063540b001514610092575b600080fd5b61007f61007a3660046108ed565b6100f0565b6040519081526020015b60405180910390f35b6100a56100a036600461093f565b610322565b005b61007f6100b5366004610958565b610386565b6100cd6100c8366004610995565b610604565b6040519015158152602001610089565b6100a56100eb3660046109c3565b610723565b60008060005b84518110156103185760006001600160a01b031685828151811061011c5761011c6109e7565b60200260200101516001600160a01b03160315610306576000858281518110610147576101476109e7565b60209081029190910101516040516370a0823160e01b81526001600160a01b0387811660048301529192506000918316906370a0823190602401602060405180830381865afa15801561019e573d6000803e3d6000fd5b505050506040513d601f19601f820116820180604052508101906101c291906109fd565b60005488519192506001600160a01b03169063102a5f91908990869081106101ec576101ec6109e7565b602002602001015160008054906101000a90046001600160a01b03166001600160a01b0316638a2627f06040518163ffffffff1660e01b8152600401602060405180830381865afa158015610245573d6000803e3d6000fd5b505050506040513d601f19601f820116820180604052508101906102699190610a16565b6040517fffffffff0000000000000000000000000000000000000000000000000000000060e085901b1681526001600160a01b0392831660048201529116602482015260448101849052606401602060405180830381865afa1580156102d3573d6000803e3d6000fd5b505050506040513d601f19601f820116820180604052508101906102f791906109fd565b6103019085610a49565b935050505b8061031081610a5c565b9150506100f6565b5090505b92915050565b6001546001600160a01b031633146103815760405162461bcd60e51b815260206004820152600d60248201527f4f6e6c79204465706c6f7965720000000000000000000000000000000000000060448201526064015b60405180910390fd5b600255565b60008060005b83518110156105bf5760006001600160a01b03168482815181106103b2576103b26109e7565b60200260200101516001600160a01b031603156105ad5760008482815181106103dd576103dd6109e7565b60209081029190910101516040516370a0823160e01b81523360048201529091506000906001600160a01b038316906370a0823190602401602060405180830381865afa158015610432573d6000803e3d6000fd5b505050506040513d601f19601f8201168201806040525081019061045691906109fd565b905060648110156104685750506105ad565b60005486516001600160a01b039091169063df791e5090889086908110610491576104916109e7565b602002602001015160008054906101000a90046001600160a01b03166001600160a01b0316638a2627f06040518163ffffffff1660e01b8152600401602060405180830381865afa1580156104ea573d6000803e3d6000fd5b505050506040513d601f19601f8201168201806040525081019061050e9190610a16565b6040517fffffffff0000000000000000000000000000000000000000000000000000000060e085901b1681526001600160a01b03928316600482015291166024820152604481018490526064016020604051808303816000875af115801561057a573d6000803e3d6000fd5b505050506040513d601f19601f8201168201806040525081019061059e91906109fd565b6105a89085610a49565b935050505b806105b781610a5c565b91505061038c565b5060408051828152336020820152428183015290517f874f570256cbec110f2a42b8636058d35f973b452ca16bebffab54e320e0e97b9181900360600190a192915050565b6040516370a0823160e01b81526001600160a01b03828116600483015260009184918391908316906370a0823190602401602060405180830381865afa158015610652573d6000803e3d6000fd5b505050506040513d601f19601f8201168201806040525081019061067691906109fd565b600080546003546040517f102a5f910000000000000000000000000000000000000000000000000000000081526001600160a01b038a81166004830152918216602482015260448101859052939450919291169063102a5f9190606401602060405180830381865afa1580156106f0573d6000803e3d6000fd5b505050506040513d601f19601f8201168201806040525081019061071491906109fd565b60025410159695505050505050565b6001546001600160a01b0316331461077d5760405162461bcd60e51b815260206004820152600d60248201527f4f6e6c79204465706c6f796572000000000000000000000000000000000000006044820152606401610378565b6001600160a01b0381166107d35760405162461bcd60e51b815260206004820152600f60248201527f496e76616c6964204164647265737300000000000000000000000000000000006044820152606401610378565b600380547fffffffffffffffffffffffff0000000000000000000000000000000000000000166001600160a01b0392909216919091179055565b634e487b7160e01b600052604160045260246000fd5b6001600160a01b038116811461083857600080fd5b50565b803561084681610823565b919050565b600082601f83011261085c57600080fd5b8135602067ffffffffffffffff808311156108795761087961080d565b8260051b604051601f19603f8301168101818110848211171561089e5761089e61080d565b6040529384528581018301938381019250878511156108bc57600080fd5b83870191505b848210156108e2576108d38261083b565b835291830191908301906108c2565b979650505050505050565b6000806040838503121561090057600080fd5b823567ffffffffffffffff81111561091757600080fd5b6109238582860161084b565b925050602083013561093481610823565b809150509250929050565b60006020828403121561095157600080fd5b5035919050565b60006020828403121561096a57600080fd5b813567ffffffffffffffff81111561098157600080fd5b61098d8482850161084b565b949350505050565b600080604083850312156109a857600080fd5b82356109b381610823565b9150602083013561093481610823565b6000602082840312156109d557600080fd5b81356109e081610823565b9392505050565b634e487b7160e01b600052603260045260246000fd5b600060208284031215610a0f57600080fd5b5051919050565b600060208284031215610a2857600080fd5b81516109e081610823565b634e487b7160e01b600052601160045260246000fd5b8082018082111561031c5761031c610a33565b600060018201610a6e57610a6e610a33565b506001019056fea26469706673582212203d2c42aa62b15520dbbdfe0cdd47dd9d5df90be687129dd5ad773c1c176c802764736f6c63430008100033",
  "immutableReferences": {},
  "source": "// SPDX-License-Identifier: GPL-3.0\npragma solidity >=0.7.0 <0.9.0;\n\nimport {PriceApi} from \"./PriceApi.sol\";\nimport {Swap} from \"./Swap.sol\";\nimport {IERC20} from \"@openzeppelin/contracts/token/ERC20/IERC20.sol\";\n\ncontract Sweeper {\n    Swap private _swap;\n\n    address private _deployer;\n\n    uint256 private DUST_THRESHOLD;\n    address private USDT_PAIR;\n\n    // === Events === //\n\n    event FleepSweeped(uint256 amount, address from, uint timestamp);\n\n    // initialize dependencies\n    constructor(address swap) {\n        _swap = Swap(swap);\n        _deployer = msg.sender;\n        DUST_THRESHOLD = inWei(20);\n    }\n\n    // recursively swap every tokens for matic\n    function sweep(address[] memory tokens) public returns (uint256) {\n        uint256 amount1;\n        for (uint index = 0; index < tokens.length; index++) {\n            if (tokens[index] == address(0)) continue;\n\n            IERC20 token = IERC20(tokens[index]);\n            uint256 amount0 = token.balanceOf(msg.sender);\n\n            // amount cannot be lesser than 100 WEI\n            if (amount0 < 100) continue;\n\n            // swap\n            amount1 += _swap.swap(\n                tokens[index],\n                _swap.getNativePair(),\n                amount0\n            );\n        }\n\n        // registers every successful sweeps\n        emit FleepSweeped(amount1, msg.sender, block.timestamp);\n\n        return amount1;\n    }\n\n    function estimate(\n        address[] memory tokens,\n        address wallet\n    ) public view returns (uint256) {\n        uint256 amount1;\n\n        for (uint index = 0; index < tokens.length; index++) {\n            if (tokens[index] == address(0)) continue;\n\n            IERC20 token = IERC20(tokens[index]);\n            uint256 amount0 = token.balanceOf(wallet);\n\n            amount1 += _swap.estimate(\n                tokens[index],\n                _swap.getNativePair(),\n                amount0\n            );\n        }\n\n        return amount1;\n    }\n\n    function isDust(address token, address wallet) public view returns (bool) {\n        IERC20 _token = IERC20(token);\n        uint256 amount0 = _token.balanceOf(wallet);\n\n        uint256 amount1 = _swap.estimate(token, USDT_PAIR, amount0);\n        return amount1 <= DUST_THRESHOLD;\n    }\n\n    function inWei(uint256 amount) private pure returns (uint256) {\n        return amount * 10 ** 18;\n    }\n\n    function updateDUSTThreshold(uint256 amount) public onlyDeployer {\n        DUST_THRESHOLD = amount;\n    }\n\n    function updateUSDTPair(address pair) public onlyDeployer {\n        require(pair != address(0), \"Invalid Address\");\n        USDT_PAIR = pair;\n    }\n\n    modifier onlyDeployer() {\n        require(msg.sender == _deployer, \"Only Deployer\");\n        _;\n    }\n}\n",
  "sourcePath": "C:\\Users\\Arogundade Ibrahim\\Documents\\web3\\fleep\\contracts\\Sweep.sol",
  "compiler": {
    "name": "solc",
    "version": "0.8.16+commit.07a7930e.Emscripten.clang"
  },
  "schemaVersion": "3.4.10",
  "updatedAt": "2022-11-30T11:42:49.995Z",
  "devdoc": {
    "kind": "dev",
    "methods": {},
    "version": 1
  },
  "userdoc": {
    "kind": "user",
    "methods": {},
    "version": 1
  }
}