{
  "contractName": "TestnetToken",
  "abi": [
    {
      "inputs": [
        {
          "internalType": "string",
          "name": "name",
          "type": "string"
        },
        {
          "internalType": "string",
          "name": "symbol",
          "type": "string"
        }
      ],
      "stateMutability": "nonpayable",
      "type": "constructor"
    },
    {
      "anonymous": false,
      "inputs": [
        {
          "indexed": true,
          "internalType": "address",
          "name": "owner",
          "type": "address"
        },
        {
          "indexed": true,
          "internalType": "address",
          "name": "spender",
          "type": "address"
        },
        {
          "indexed": false,
          "internalType": "uint256",
          "name": "value",
          "type": "uint256"
        }
      ],
      "name": "Approval",
      "type": "event"
    },
    {
      "anonymous": false,
      "inputs": [
        {
          "indexed": true,
          "internalType": "address",
          "name": "from",
          "type": "address"
        },
        {
          "indexed": true,
          "internalType": "address",
          "name": "to",
          "type": "address"
        },
        {
          "indexed": false,
          "internalType": "uint256",
          "name": "value",
          "type": "uint256"
        }
      ],
      "name": "Transfer",
      "type": "event"
    },
    {
      "inputs": [
        {
          "internalType": "address",
          "name": "",
          "type": "address"
        }
      ],
      "name": "allocations",
      "outputs": [
        {
          "internalType": "uint256",
          "name": "",
          "type": "uint256"
        }
      ],
      "stateMutability": "view",
      "type": "function"
    },
    {
      "inputs": [
        {
          "internalType": "address",
          "name": "owner",
          "type": "address"
        },
        {
          "internalType": "address",
          "name": "spender",
          "type": "address"
        }
      ],
      "name": "allowance",
      "outputs": [
        {
          "internalType": "uint256",
          "name": "",
          "type": "uint256"
        }
      ],
      "stateMutability": "view",
      "type": "function"
    },
    {
      "inputs": [
        {
          "internalType": "address",
          "name": "spender",
          "type": "address"
        },
        {
          "internalType": "uint256",
          "name": "amount",
          "type": "uint256"
        }
      ],
      "name": "approve",
      "outputs": [
        {
          "internalType": "bool",
          "name": "",
          "type": "bool"
        }
      ],
      "stateMutability": "nonpayable",
      "type": "function"
    },
    {
      "inputs": [
        {
          "internalType": "address",
          "name": "account",
          "type": "address"
        }
      ],
      "name": "balanceOf",
      "outputs": [
        {
          "internalType": "uint256",
          "name": "",
          "type": "uint256"
        }
      ],
      "stateMutability": "view",
      "type": "function"
    },
    {
      "inputs": [],
      "name": "decimals",
      "outputs": [
        {
          "internalType": "uint8",
          "name": "",
          "type": "uint8"
        }
      ],
      "stateMutability": "view",
      "type": "function"
    },
    {
      "inputs": [
        {
          "internalType": "address",
          "name": "spender",
          "type": "address"
        },
        {
          "internalType": "uint256",
          "name": "subtractedValue",
          "type": "uint256"
        }
      ],
      "name": "decreaseAllowance",
      "outputs": [
        {
          "internalType": "bool",
          "name": "",
          "type": "bool"
        }
      ],
      "stateMutability": "nonpayable",
      "type": "function"
    },
    {
      "inputs": [
        {
          "internalType": "address",
          "name": "spender",
          "type": "address"
        },
        {
          "internalType": "uint256",
          "name": "addedValue",
          "type": "uint256"
        }
      ],
      "name": "increaseAllowance",
      "outputs": [
        {
          "internalType": "bool",
          "name": "",
          "type": "bool"
        }
      ],
      "stateMutability": "nonpayable",
      "type": "function"
    },
    {
      "inputs": [],
      "name": "name",
      "outputs": [
        {
          "internalType": "string",
          "name": "",
          "type": "string"
        }
      ],
      "stateMutability": "view",
      "type": "function"
    },
    {
      "inputs": [],
      "name": "symbol",
      "outputs": [
        {
          "internalType": "string",
          "name": "",
          "type": "string"
        }
      ],
      "stateMutability": "view",
      "type": "function"
    },
    {
      "inputs": [],
      "name": "totalSupply",
      "outputs": [
        {
          "internalType": "uint256",
          "name": "",
          "type": "uint256"
        }
      ],
      "stateMutability": "view",
      "type": "function"
    },
    {
      "inputs": [
        {
          "internalType": "address",
          "name": "to",
          "type": "address"
        },
        {
          "internalType": "uint256",
          "name": "amount",
          "type": "uint256"
        }
      ],
      "name": "transfer",
      "outputs": [
        {
          "internalType": "bool",
          "name": "",
          "type": "bool"
        }
      ],
      "stateMutability": "nonpayable",
      "type": "function"
    },
    {
      "inputs": [
        {
          "internalType": "address",
          "name": "from",
          "type": "address"
        },
        {
          "internalType": "address",
          "name": "to",
          "type": "address"
        },
        {
          "internalType": "uint256",
          "name": "amount",
          "type": "uint256"
        }
      ],
      "name": "transferFrom",
      "outputs": [
        {
          "internalType": "bool",
          "name": "",
          "type": "bool"
        }
      ],
      "stateMutability": "nonpayable",
      "type": "function"
    },
    {
      "inputs": [
        {
          "internalType": "address",
          "name": "minter",
          "type": "address"
        },
        {
          "internalType": "uint256",
          "name": "amount",
          "type": "uint256"
        }
      ],
      "name": "faucet",
      "outputs": [],
      "stateMutability": "nonpayable",
      "type": "function"
    }
  ],
  "bytecode": "0x6080604052620000126012600a6200029b565b6200002090612710620002b3565b6005553480156200003057600080fd5b506040516200101e3803806200101e83398101604081905262000053916200039a565b8181600362000063838262000492565b50600462000072828262000492565b505050620000ae306200008a620000b660201b60201c565b6200009790600a6200029b565b620000a89064e8d4a51000620002b3565b620000bb565b505062000574565b601290565b6001600160a01b038216620001165760405162461bcd60e51b815260206004820152601f60248201527f45524332303a206d696e7420746f20746865207a65726f206164647265737300604482015260640160405180910390fd5b80600260008282546200012a91906200055e565b90915550506001600160a01b038216600081815260208181526040808320805486019055518481527fddf252ad1be2c89b69c2b068fc378daa952ba7f163c4a11628f55a4df523b3ef910160405180910390a35050565b505050565b634e487b7160e01b600052601160045260246000fd5b600181815b80851115620001dd578160001904821115620001c157620001c162000186565b80851615620001cf57918102915b93841c9390800290620001a1565b509250929050565b600082620001f65750600162000295565b81620002055750600062000295565b81600181146200021e5760028114620002295762000249565b600191505062000295565b60ff8411156200023d576200023d62000186565b50506001821b62000295565b5060208310610133831016604e8410600b84101617156200026e575081810a62000295565b6200027a83836200019c565b806000190482111562000291576200029162000186565b0290505b92915050565b6000620002ac60ff841683620001e5565b9392505050565b6000816000190483118215151615620002d057620002d062000186565b500290565b634e487b7160e01b600052604160045260246000fd5b600082601f830112620002fd57600080fd5b81516001600160401b03808211156200031a576200031a620002d5565b604051601f8301601f19908116603f01168101908282118183101715620003455762000345620002d5565b816040528381526020925086838588010111156200036257600080fd5b600091505b8382101562000386578582018301518183018401529082019062000367565b600093810190920192909252949350505050565b60008060408385031215620003ae57600080fd5b82516001600160401b0380821115620003c657600080fd5b620003d486838701620002eb565b93506020850151915080821115620003eb57600080fd5b50620003fa85828601620002eb565b9150509250929050565b600181811c908216806200041957607f821691505b6020821081036200043a57634e487b7160e01b600052602260045260246000fd5b50919050565b601f8211156200018157600081815260208120601f850160051c81016020861015620004695750805b601f850160051c820191505b818110156200048a5782815560010162000475565b505050505050565b81516001600160401b03811115620004ae57620004ae620002d5565b620004c681620004bf845462000404565b8462000440565b602080601f831160018114620004fe5760008415620004e55750858301515b600019600386901b1c1916600185901b1785556200048a565b600085815260208120601f198616915b828110156200052f578886015182559484019460019091019084016200050e565b50858210156200054e5787850151600019600388901b60f8161c191681555b5050505050600190811b01905550565b8082018082111562000295576200029562000186565b610a9a80620005846000396000f3fe608060405234801561001057600080fd5b50600436106100df5760003560e01c806352a9039c1161008c57806395d89b411161006657806395d89b41146101ca578063a457c2d7146101d2578063a9059cbb146101e5578063dd62ed3e146101f857600080fd5b806352a9039c1461016c57806370a082311461018c5780637b56c2b2146101b557600080fd5b806323b872dd116100bd57806323b872dd14610137578063313ce5671461014a578063395093511461015957600080fd5b806306fdde03146100e4578063095ea7b31461010257806318160ddd14610125575b600080fd5b6100ec610231565b6040516100f991906108e4565b60405180910390f35b61011561011036600461094e565b6102c3565b60405190151581526020016100f9565b6002545b6040519081526020016100f9565b610115610145366004610978565b6102dd565b604051601281526020016100f9565b61011561016736600461094e565b610301565b61012961017a3660046109b4565b60066020526000908152604090205481565b61012961019a3660046109b4565b6001600160a01b031660009081526020819052604090205490565b6101c86101c336600461094e565b610340565b005b6100ec610446565b6101156101e036600461094e565b610455565b6101156101f336600461094e565b6104ff565b6101296102063660046109d6565b6001600160a01b03918216600090815260016020908152604080832093909416825291909152205490565b60606003805461024090610a09565b80601f016020809104026020016040519081016040528092919081815260200182805461026c90610a09565b80156102b95780601f1061028e576101008083540402835291602001916102b9565b820191906000526020600020905b81548152906001019060200180831161029c57829003601f168201915b5050505050905090565b6000336102d181858561050d565b60019150505b92915050565b6000336102eb858285610665565b6102f68585856106f7565b506001949350505050565b3360008181526001602090815260408083206001600160a01b03871684529091528120549091906102d1908290869061033b908790610a43565b61050d565b600081116103955760405162461bcd60e51b815260206004820152601560248201527f416d6f756e742063616e6e6f74206265207a65726f000000000000000000000060448201526064015b60405180910390fd5b6005546001600160a01b0383166000908152600660205260409020546103bc908390610a43565b106104095760405162461bcd60e51b815260206004820152601560248201527f43616e74204d696e74204d6f726520546f6b656e730000000000000000000000604482015260640161038c565b6001600160a01b03821660009081526006602052604081208054839290610431908490610a43565b90915550610441905082826104ff565b505050565b60606004805461024090610a09565b3360008181526001602090815260408083206001600160a01b0387168452909152812054909190838110156104f25760405162461bcd60e51b815260206004820152602560248201527f45524332303a2064656372656173656420616c6c6f77616e63652062656c6f7760448201527f207a65726f000000000000000000000000000000000000000000000000000000606482015260840161038c565b6102f6828686840361050d565b6000336102d18185856106f7565b6001600160a01b0383166105885760405162461bcd60e51b8152602060048201526024808201527f45524332303a20617070726f76652066726f6d20746865207a65726f2061646460448201527f7265737300000000000000000000000000000000000000000000000000000000606482015260840161038c565b6001600160a01b0382166106045760405162461bcd60e51b815260206004820152602260248201527f45524332303a20617070726f766520746f20746865207a65726f20616464726560448201527f7373000000000000000000000000000000000000000000000000000000000000606482015260840161038c565b6001600160a01b0383811660008181526001602090815260408083209487168084529482529182902085905590518481527f8c5be1e5ebec7d5bd14f71427d1e84f3dd0314c0f7b2291e5b200ac8c7c3b925910160405180910390a3505050565b6001600160a01b0383811660009081526001602090815260408083209386168352929052205460001981146106f157818110156106e45760405162461bcd60e51b815260206004820152601d60248201527f45524332303a20696e73756666696369656e7420616c6c6f77616e6365000000604482015260640161038c565b6106f1848484840361050d565b50505050565b6001600160a01b0383166107735760405162461bcd60e51b815260206004820152602560248201527f45524332303a207472616e736665722066726f6d20746865207a65726f20616460448201527f6472657373000000000000000000000000000000000000000000000000000000606482015260840161038c565b6001600160a01b0382166107ef5760405162461bcd60e51b815260206004820152602360248201527f45524332303a207472616e7366657220746f20746865207a65726f206164647260448201527f6573730000000000000000000000000000000000000000000000000000000000606482015260840161038c565b6001600160a01b0383166000908152602081905260409020548181101561087e5760405162461bcd60e51b815260206004820152602660248201527f45524332303a207472616e7366657220616d6f756e742065786365656473206260448201527f616c616e63650000000000000000000000000000000000000000000000000000606482015260840161038c565b6001600160a01b03848116600081815260208181526040808320878703905593871680835291849020805487019055925185815290927fddf252ad1be2c89b69c2b068fc378daa952ba7f163c4a11628f55a4df523b3ef910160405180910390a36106f1565b600060208083528351808285015260005b81811015610911578581018301518582016040015282016108f5565b506000604082860101526040601f19601f8301168501019250505092915050565b80356001600160a01b038116811461094957600080fd5b919050565b6000806040838503121561096157600080fd5b61096a83610932565b946020939093013593505050565b60008060006060848603121561098d57600080fd5b61099684610932565b92506109a460208501610932565b9150604084013590509250925092565b6000602082840312156109c657600080fd5b6109cf82610932565b9392505050565b600080604083850312156109e957600080fd5b6109f283610932565b9150610a0060208401610932565b90509250929050565b600181811c90821680610a1d57607f821691505b602082108103610a3d57634e487b7160e01b600052602260045260246000fd5b50919050565b808201808211156102d757634e487b7160e01b600052601160045260246000fdfea26469706673582212203c4e8295469535d99f0c4c1168431b4ffcf3a23865df5999c2909388e2aedc9b64736f6c63430008100033",
  "immutableReferences": {},
  "source": "// SPDX-License-Identifier: GPL-3.0\npragma solidity >=0.7.0 <0.9.0;\n\nimport {ERC20} from \"@openzeppelin/contracts/token/ERC20/ERC20.sol\";\n\ncontract TestnetToken is ERC20 {\n    uint256 private MAX_ALLOCATION = 10000 * 10**decimals();\n\n    // user address => minted amount\n    mapping(address => uint) public allocations;\n\n    constructor(string memory name, string memory symbol) ERC20(name, symbol) {\n        _mint(address(this), 1000000000000 * 10**decimals());\n    }\n\n    // faucet minting for testing purposes\n    function faucet(address minter, uint256 amount) public {\n        require(amount > 0, \"Amount cannot be zero\");\n        require(\n            allocations[minter] + amount < MAX_ALLOCATION,\n            \"Cant Mint More Tokens\"\n        );\n        allocations[minter] += amount;\n        transfer(minter, amount);\n    }\n}\n",
  "sourcePath": "C:\\Users\\Arogundade Ibrahim\\Documents\\web3\\fleep\\contracts\\TestnetToken.sol",
  "compiler": {
    "name": "solc",
    "version": "0.8.16+commit.07a7930e.Emscripten.clang"
  },
  "schemaVersion": "3.4.10",
  "updatedAt": "2022-11-21T23:57:57.076Z",
  "devdoc": {
    "kind": "dev",
    "methods": {
      "allowance(address,address)": {
        "details": "See {IERC20-allowance}."
      },
      "approve(address,uint256)": {
        "details": "See {IERC20-approve}. NOTE: If `amount` is the maximum `uint256`, the allowance is not updated on `transferFrom`. This is semantically equivalent to an infinite approval. Requirements: - `spender` cannot be the zero address."
      },
      "balanceOf(address)": {
        "details": "See {IERC20-balanceOf}."
      },
      "decimals()": {
        "details": "Returns the number of decimals used to get its user representation. For example, if `decimals` equals `2`, a balance of `505` tokens should be displayed to a user as `5.05` (`505 / 10 ** 2`). Tokens usually opt for a value of 18, imitating the relationship between Ether and Wei. This is the value {ERC20} uses, unless this function is overridden; NOTE: This information is only used for _display_ purposes: it in no way affects any of the arithmetic of the contract, including {IERC20-balanceOf} and {IERC20-transfer}."
      },
      "decreaseAllowance(address,uint256)": {
        "details": "Atomically decreases the allowance granted to `spender` by the caller. This is an alternative to {approve} that can be used as a mitigation for problems described in {IERC20-approve}. Emits an {Approval} event indicating the updated allowance. Requirements: - `spender` cannot be the zero address. - `spender` must have allowance for the caller of at least `subtractedValue`."
      },
      "increaseAllowance(address,uint256)": {
        "details": "Atomically increases the allowance granted to `spender` by the caller. This is an alternative to {approve} that can be used as a mitigation for problems described in {IERC20-approve}. Emits an {Approval} event indicating the updated allowance. Requirements: - `spender` cannot be the zero address."
      },
      "name()": {
        "details": "Returns the name of the token."
      },
      "symbol()": {
        "details": "Returns the symbol of the token, usually a shorter version of the name."
      },
      "totalSupply()": {
        "details": "See {IERC20-totalSupply}."
      },
      "transfer(address,uint256)": {
        "details": "See {IERC20-transfer}. Requirements: - `to` cannot be the zero address. - the caller must have a balance of at least `amount`."
      },
      "transferFrom(address,address,uint256)": {
        "details": "See {IERC20-transferFrom}. Emits an {Approval} event indicating the updated allowance. This is not required by the EIP. See the note at the beginning of {ERC20}. NOTE: Does not update the allowance if the current allowance is the maximum `uint256`. Requirements: - `from` and `to` cannot be the zero address. - `from` must have a balance of at least `amount`. - the caller must have allowance for ``from``'s tokens of at least `amount`."
      }
    },
    "version": 1
  },
  "userdoc": {
    "kind": "user",
    "methods": {},
    "version": 1
  }
}