{
  "contractName": "TestnetToken",
  "abi": [
    {
      "inputs": [
        {
          "internalType": "string",
          "name": "name",
          "type": "string"
        },
        {
          "internalType": "string",
          "name": "symbol",
          "type": "string"
        }
      ],
      "stateMutability": "nonpayable",
      "type": "constructor"
    },
    {
      "anonymous": false,
      "inputs": [
        {
          "indexed": true,
          "internalType": "address",
          "name": "owner",
          "type": "address"
        },
        {
          "indexed": true,
          "internalType": "address",
          "name": "spender",
          "type": "address"
        },
        {
          "indexed": false,
          "internalType": "uint256",
          "name": "value",
          "type": "uint256"
        }
      ],
      "name": "Approval",
      "type": "event"
    },
    {
      "anonymous": false,
      "inputs": [
        {
          "indexed": true,
          "internalType": "address",
          "name": "from",
          "type": "address"
        },
        {
          "indexed": true,
          "internalType": "address",
          "name": "to",
          "type": "address"
        },
        {
          "indexed": false,
          "internalType": "uint256",
          "name": "value",
          "type": "uint256"
        }
      ],
      "name": "Transfer",
      "type": "event"
    },
    {
      "inputs": [
        {
          "internalType": "address",
          "name": "",
          "type": "address"
        }
      ],
      "name": "allocations",
      "outputs": [
        {
          "internalType": "uint256",
          "name": "",
          "type": "uint256"
        }
      ],
      "stateMutability": "view",
      "type": "function",
      "constant": true
    },
    {
      "inputs": [
        {
          "internalType": "address",
          "name": "owner",
          "type": "address"
        },
        {
          "internalType": "address",
          "name": "spender",
          "type": "address"
        }
      ],
      "name": "allowance",
      "outputs": [
        {
          "internalType": "uint256",
          "name": "",
          "type": "uint256"
        }
      ],
      "stateMutability": "view",
      "type": "function",
      "constant": true
    },
    {
      "inputs": [
        {
          "internalType": "address",
          "name": "spender",
          "type": "address"
        },
        {
          "internalType": "uint256",
          "name": "amount",
          "type": "uint256"
        }
      ],
      "name": "approve",
      "outputs": [
        {
          "internalType": "bool",
          "name": "",
          "type": "bool"
        }
      ],
      "stateMutability": "nonpayable",
      "type": "function"
    },
    {
      "inputs": [
        {
          "internalType": "address",
          "name": "account",
          "type": "address"
        }
      ],
      "name": "balanceOf",
      "outputs": [
        {
          "internalType": "uint256",
          "name": "",
          "type": "uint256"
        }
      ],
      "stateMutability": "view",
      "type": "function",
      "constant": true
    },
    {
      "inputs": [],
      "name": "decimals",
      "outputs": [
        {
          "internalType": "uint8",
          "name": "",
          "type": "uint8"
        }
      ],
      "stateMutability": "view",
      "type": "function",
      "constant": true
    },
    {
      "inputs": [
        {
          "internalType": "address",
          "name": "spender",
          "type": "address"
        },
        {
          "internalType": "uint256",
          "name": "subtractedValue",
          "type": "uint256"
        }
      ],
      "name": "decreaseAllowance",
      "outputs": [
        {
          "internalType": "bool",
          "name": "",
          "type": "bool"
        }
      ],
      "stateMutability": "nonpayable",
      "type": "function"
    },
    {
      "inputs": [
        {
          "internalType": "address",
          "name": "spender",
          "type": "address"
        },
        {
          "internalType": "uint256",
          "name": "addedValue",
          "type": "uint256"
        }
      ],
      "name": "increaseAllowance",
      "outputs": [
        {
          "internalType": "bool",
          "name": "",
          "type": "bool"
        }
      ],
      "stateMutability": "nonpayable",
      "type": "function"
    },
    {
      "inputs": [],
      "name": "name",
      "outputs": [
        {
          "internalType": "string",
          "name": "",
          "type": "string"
        }
      ],
      "stateMutability": "view",
      "type": "function",
      "constant": true
    },
    {
      "inputs": [],
      "name": "symbol",
      "outputs": [
        {
          "internalType": "string",
          "name": "",
          "type": "string"
        }
      ],
      "stateMutability": "view",
      "type": "function",
      "constant": true
    },
    {
      "inputs": [],
      "name": "totalSupply",
      "outputs": [
        {
          "internalType": "uint256",
          "name": "",
          "type": "uint256"
        }
      ],
      "stateMutability": "view",
      "type": "function",
      "constant": true
    },
    {
      "inputs": [
        {
          "internalType": "address",
          "name": "to",
          "type": "address"
        },
        {
          "internalType": "uint256",
          "name": "amount",
          "type": "uint256"
        }
      ],
      "name": "transfer",
      "outputs": [
        {
          "internalType": "bool",
          "name": "",
          "type": "bool"
        }
      ],
      "stateMutability": "nonpayable",
      "type": "function"
    },
    {
      "inputs": [
        {
          "internalType": "address",
          "name": "from",
          "type": "address"
        },
        {
          "internalType": "address",
          "name": "to",
          "type": "address"
        },
        {
          "internalType": "uint256",
          "name": "amount",
          "type": "uint256"
        }
      ],
      "name": "transferFrom",
      "outputs": [
        {
          "internalType": "bool",
          "name": "",
          "type": "bool"
        }
      ],
      "stateMutability": "nonpayable",
      "type": "function"
    },
    {
      "inputs": [
        {
          "internalType": "uint256",
          "name": "amount",
          "type": "uint256"
        }
      ],
      "name": "faucet",
      "outputs": [],
      "stateMutability": "nonpayable",
      "type": "function"
    }
  ],
  "bytecode": "0x608060405262000011612710620000a4565b6005553480156200002157600080fd5b50604051620011ad380380620011ad833981016040819052620000449162000256565b818160036200005483826200034e565b5060046200006382826200034e565b505050620000873362000081640ba43b7400620000a460201b60201c565b620000c6565b6200009c3062000081640ba43b7400620000a4565b50506200057d565b6000620000b46012600a6200052d565b620000c0908362000545565b92915050565b6001600160a01b038216620001215760405162461bcd60e51b815260206004820152601f60248201527f45524332303a206d696e7420746f20746865207a65726f206164647265737300604482015260640160405180910390fd5b806002600082825462000135919062000567565b90915550506001600160a01b038216600081815260208181526040808320805486019055518481527fddf252ad1be2c89b69c2b068fc378daa952ba7f163c4a11628f55a4df523b3ef910160405180910390a35050565b505050565b634e487b7160e01b600052604160045260246000fd5b600082601f830112620001b957600080fd5b81516001600160401b0380821115620001d657620001d662000191565b604051601f8301601f19908116603f0116810190828211818310171562000201576200020162000191565b816040528381526020925086838588010111156200021e57600080fd5b600091505b8382101562000242578582018301518183018401529082019062000223565b600093810190920192909252949350505050565b600080604083850312156200026a57600080fd5b82516001600160401b03808211156200028257600080fd5b6200029086838701620001a7565b93506020850151915080821115620002a757600080fd5b50620002b685828601620001a7565b9150509250929050565b600181811c90821680620002d557607f821691505b602082108103620002f657634e487b7160e01b600052602260045260246000fd5b50919050565b601f8211156200018c57600081815260208120601f850160051c81016020861015620003255750805b601f850160051c820191505b81811015620003465782815560010162000331565b505050505050565b81516001600160401b038111156200036a576200036a62000191565b62000382816200037b8454620002c0565b84620002fc565b602080601f831160018114620003ba5760008415620003a15750858301515b600019600386901b1c1916600185901b17855562000346565b600085815260208120601f198616915b82811015620003eb57888601518255948401946001909101908401620003ca565b50858210156200040a5787850151600019600388901b60f8161c191681555b5050505050600190811b01905550565b634e487b7160e01b600052601160045260246000fd5b600181815b80851115620004715781600019048211156200045557620004556200041a565b808516156200046357918102915b93841c939080029062000435565b509250929050565b6000826200048a57506001620000c0565b816200049957506000620000c0565b8160018114620004b25760028114620004bd57620004dd565b6001915050620000c0565b60ff841115620004d157620004d16200041a565b50506001821b620000c0565b5060208310610133831016604e8410600b841016171562000502575081810a620000c0565b6200050e838362000430565b80600019048211156200052557620005256200041a565b029392505050565b60006200053e60ff84168362000479565b9392505050565b60008160001904831182151516156200056257620005626200041a565b500290565b80820180821115620000c057620000c06200041a565b610c20806200058d6000396000f3fe608060405234801561001057600080fd5b50600436106100df5760003560e01c806352a9039c1161008c57806395d89b411161006657806395d89b41146101ca578063a457c2d7146101d2578063a9059cbb146101e5578063dd62ed3e146101f857600080fd5b806352a9039c1461016c578063579158971461018c57806370a08231146101a157600080fd5b806323b872dd116100bd57806323b872dd14610137578063313ce5671461014a578063395093511461015957600080fd5b806306fdde03146100e4578063095ea7b31461010257806318160ddd14610125575b600080fd5b6100ec610231565b6040516100f99190610a3b565b60405180910390f35b610115610110366004610aa5565b6102c3565b60405190151581526020016100f9565b6002545b6040519081526020016100f9565b610115610145366004610acf565b6102dd565b604051601281526020016100f9565b610115610167366004610aa5565b610301565b61012961017a366004610b0b565b60066020526000908152604090205481565b61019f61019a366004610b2d565b610340565b005b6101296101af366004610b0b565b6001600160a01b031660009081526020819052604090205490565b6100ec61043f565b6101156101e0366004610aa5565b61044e565b6101156101f3366004610aa5565b6104f8565b610129610206366004610b46565b6001600160a01b03918216600090815260016020908152604080832093909416825291909152205490565b60606003805461024090610b79565b80601f016020809104026020016040519081016040528092919081815260200182805461026c90610b79565b80156102b95780601f1061028e576101008083540402835291602001916102b9565b820191906000526020600020905b81548152906001019060200180831161029c57829003601f168201915b5050505050905090565b6000336102d1818585610506565b60019150505b92915050565b6000336102eb85828561065e565b6102f68585856106cc565b506001949350505050565b3360008181526001602090815260408083206001600160a01b03871684529091528120549091906102d1908290869061033b908790610bb3565b610506565b600081116103955760405162461bcd60e51b815260206004820152601560248201527f416d6f756e742063616e6e6f74206265207a65726f000000000000000000000060448201526064015b60405180910390fd5b600554336000908152600660205260409020546103b3908390610bb3565b106104005760405162461bcd60e51b815260206004820152601560248201527f43616e74204d696e74204d6f726520546f6b656e730000000000000000000000604482015260640161038c565b336000908152600660205260408120805483929061041f908490610bb3565b909155506104309050303383610506565b61043b3033836102dd565b5050565b60606004805461024090610b79565b3360008181526001602090815260408083206001600160a01b0387168452909152812054909190838110156104eb5760405162461bcd60e51b815260206004820152602560248201527f45524332303a2064656372656173656420616c6c6f77616e63652062656c6f7760448201527f207a65726f000000000000000000000000000000000000000000000000000000606482015260840161038c565b6102f68286868403610506565b6000336102d18185856106cc565b6001600160a01b0383166105815760405162461bcd60e51b8152602060048201526024808201527f45524332303a20617070726f76652066726f6d20746865207a65726f2061646460448201527f7265737300000000000000000000000000000000000000000000000000000000606482015260840161038c565b6001600160a01b0382166105fd5760405162461bcd60e51b815260206004820152602260248201527f45524332303a20617070726f766520746f20746865207a65726f20616464726560448201527f7373000000000000000000000000000000000000000000000000000000000000606482015260840161038c565b6001600160a01b0383811660008181526001602090815260408083209487168084529482529182902085905590518481527f8c5be1e5ebec7d5bd14f71427d1e84f3dd0314c0f7b2291e5b200ac8c7c3b925910160405180910390a3505050565b6001600160a01b0383811660009081526001602090815260408083209386168352929052205460001981146106c6578181101561069a826108b9565b906106b85760405162461bcd60e51b815260040161038c9190610a3b565b506106c68484848403610506565b50505050565b6001600160a01b0383166107485760405162461bcd60e51b815260206004820152602560248201527f45524332303a207472616e736665722066726f6d20746865207a65726f20616460448201527f6472657373000000000000000000000000000000000000000000000000000000606482015260840161038c565b6001600160a01b0382166107c45760405162461bcd60e51b815260206004820152602360248201527f45524332303a207472616e7366657220746f20746865207a65726f206164647260448201527f6573730000000000000000000000000000000000000000000000000000000000606482015260840161038c565b6001600160a01b038316600090815260208190526040902054818110156108535760405162461bcd60e51b815260206004820152602660248201527f45524332303a207472616e7366657220616d6f756e742065786365656473206260448201527f616c616e63650000000000000000000000000000000000000000000000000000606482015260840161038c565b6001600160a01b03848116600081815260208181526040808320878703905593871680835291849020805487019055925185815290927fddf252ad1be2c89b69c2b068fc378daa952ba7f163c4a11628f55a4df523b3ef910160405180910390a36106c6565b606060006108c683610959565b600101905060008167ffffffffffffffff8111156108e6576108e6610bd4565b6040519080825280601f01601f191660200182016040528015610910576020820181803683370190505b5090508181016020015b600019017f3031323334353637383961626364656600000000000000000000000000000000600a86061a8153600a850494508461091a57509392505050565b6000807a184f03e93ff9f4daa797ed6e38ed64bf6a1f01000000000000000083106109a2577a184f03e93ff9f4daa797ed6e38ed64bf6a1f010000000000000000830492506040015b6d04ee2d6d415b85acef810000000083106109ce576d04ee2d6d415b85acef8100000000830492506020015b662386f26fc1000083106109ec57662386f26fc10000830492506010015b6305f5e1008310610a04576305f5e100830492506008015b6127108310610a1857612710830492506004015b60648310610a2a576064830492506002015b600a83106102d75760010192915050565b600060208083528351808285015260005b81811015610a6857858101830151858201604001528201610a4c565b506000604082860101526040601f19601f8301168501019250505092915050565b80356001600160a01b0381168114610aa057600080fd5b919050565b60008060408385031215610ab857600080fd5b610ac183610a89565b946020939093013593505050565b600080600060608486031215610ae457600080fd5b610aed84610a89565b9250610afb60208501610a89565b9150604084013590509250925092565b600060208284031215610b1d57600080fd5b610b2682610a89565b9392505050565b600060208284031215610b3f57600080fd5b5035919050565b60008060408385031215610b5957600080fd5b610b6283610a89565b9150610b7060208401610a89565b90509250929050565b600181811c90821680610b8d57607f821691505b602082108103610bad57634e487b7160e01b600052602260045260246000fd5b50919050565b808201808211156102d757634e487b7160e01b600052601160045260246000fd5b634e487b7160e01b600052604160045260246000fdfea2646970667358221220d4dbfa6210f4c053a0702aead7cdbe774406ad27828163e323b91bbb5a9715cf64736f6c63430008100033",
  "immutableReferences": {},
  "source": "// SPDX-License-Identifier: GPL-3.0\npragma solidity >=0.7.0 <0.9.0;\n\nimport {ERC20} from \"./standard/ERC20.sol\";\n\ncontract TestnetToken is ERC20 {\n    uint256 private MAX_ALLOCATION = inWei(10000);\n\n    // user address => minted amount\n    mapping(address => uint256) public allocations;\n\n    constructor(string memory name, string memory symbol) ERC20(name, symbol) {\n        _mint(msg.sender, inWei(50000000000));\n        _mint(address(this), inWei(50000000000));\n    }\n\n    // faucet minting for testing purposes\n    function faucet(uint256 amount) public {\n        require(amount > 0, \"Amount cannot be zero\");\n        require(\n            allocations[msg.sender] + amount < MAX_ALLOCATION,\n            \"Cant Mint More Tokens\"\n        );\n        allocations[msg.sender] += amount;\n        _approve(address(this), msg.sender, amount);\n        transferFrom(address(this), msg.sender, amount);\n    }\n\n    function inWei(uint256 amount) private view returns (uint256) {\n        return amount * 10**decimals();\n    }\n}\n",
  "sourcePath": "C:\\Users\\Arogundade Ibrahim\\Documents\\web3\\fleep\\contracts\\TestnetToken.sol",
  "compiler": {
    "name": "solc",
    "version": "0.8.16+commit.07a7930e.Emscripten.clang"
  },
  "schemaVersion": "3.4.10",
  "updatedAt": "2022-11-26T07:08:22.541Z",
  "networkType": "ethereum",
  "devdoc": {
    "kind": "dev",
    "methods": {
      "allowance(address,address)": {
        "details": "See {IERC20-allowance}."
      },
      "approve(address,uint256)": {
        "details": "See {IERC20-approve}. NOTE: If `amount` is the maximum `uint256`, the allowance is not updated on `transferFrom`. This is semantically equivalent to an infinite approval. Requirements: - `spender` cannot be the zero address."
      },
      "balanceOf(address)": {
        "details": "See {IERC20-balanceOf}."
      },
      "decimals()": {
        "details": "Returns the number of decimals used to get its user representation. For example, if `decimals` equals `2`, a balance of `505` tokens should be displayed to a user as `5.05` (`505 / 10 ** 2`). Tokens usually opt for a value of 18, imitating the relationship between Ether and Wei. This is the value {ERC20} uses, unless this function is overridden; NOTE: This information is only used for _display_ purposes: it in no way affects any of the arithmetic of the contract, including {IERC20-balanceOf} and {IERC20-transfer}."
      },
      "decreaseAllowance(address,uint256)": {
        "details": "Atomically decreases the allowance granted to `spender` by the caller. This is an alternative to {approve} that can be used as a mitigation for problems described in {IERC20-approve}. Emits an {Approval} event indicating the updated allowance. Requirements: - `spender` cannot be the zero address. - `spender` must have allowance for the caller of at least `subtractedValue`."
      },
      "increaseAllowance(address,uint256)": {
        "details": "Atomically increases the allowance granted to `spender` by the caller. This is an alternative to {approve} that can be used as a mitigation for problems described in {IERC20-approve}. Emits an {Approval} event indicating the updated allowance. Requirements: - `spender` cannot be the zero address."
      },
      "name()": {
        "details": "Returns the name of the token."
      },
      "symbol()": {
        "details": "Returns the symbol of the token, usually a shorter version of the name."
      },
      "totalSupply()": {
        "details": "See {IERC20-totalSupply}."
      },
      "transfer(address,uint256)": {
        "details": "See {IERC20-transfer}. Requirements: - `to` cannot be the zero address. - the caller must have a balance of at least `amount`."
      },
      "transferFrom(address,address,uint256)": {
        "details": "See {IERC20-transferFrom}. Emits an {Approval} event indicating the updated allowance. This is not required by the EIP. See the note at the beginning of {ERC20}. NOTE: Does not update the allowance if the current allowance is the maximum `uint256`. Requirements: - `from` and `to` cannot be the zero address. - `from` must have a balance of at least `amount`. - the caller must have allowance for ``from``'s tokens of at least `amount`."
      }
    },
    "version": 1
  },
  "userdoc": {
    "kind": "user",
    "methods": {},
    "version": 1
  }
}