{
  "contractName": "Learn",
  "abi": [
    {
      "inputs": [
        {
          "internalType": "address",
          "name": "fleepToken",
          "type": "address"
        }
      ],
      "stateMutability": "nonpayable",
      "type": "constructor"
    },
    {
      "inputs": [
        {
          "internalType": "address",
          "name": "",
          "type": "address"
        }
      ],
      "name": "creators",
      "outputs": [
        {
          "internalType": "uint256",
          "name": "id",
          "type": "uint256"
        },
        {
          "internalType": "string",
          "name": "name",
          "type": "string"
        },
        {
          "internalType": "string",
          "name": "image",
          "type": "string"
        }
      ],
      "stateMutability": "view",
      "type": "function"
    },
    {
      "inputs": [
        {
          "internalType": "address",
          "name": "",
          "type": "address"
        }
      ],
      "name": "learners",
      "outputs": [
        {
          "internalType": "uint256",
          "name": "id",
          "type": "uint256"
        },
        {
          "internalType": "uint256",
          "name": "level",
          "type": "uint256"
        },
        {
          "internalType": "uint256",
          "name": "earned",
          "type": "uint256"
        },
        {
          "internalType": "uint256",
          "name": "totalEarned",
          "type": "uint256"
        }
      ],
      "stateMutability": "view",
      "type": "function"
    },
    {
      "inputs": [
        {
          "internalType": "uint256",
          "name": "",
          "type": "uint256"
        }
      ],
      "name": "quizzes",
      "outputs": [
        {
          "internalType": "uint256",
          "name": "id",
          "type": "uint256"
        }
      ],
      "stateMutability": "view",
      "type": "function"
    },
    {
      "inputs": [
        {
          "internalType": "uint256",
          "name": "",
          "type": "uint256"
        }
      ],
      "name": "resources",
      "outputs": [
        {
          "internalType": "string",
          "name": "title",
          "type": "string"
        },
        {
          "internalType": "string",
          "name": "image",
          "type": "string"
        },
        {
          "internalType": "string",
          "name": "description",
          "type": "string"
        },
        {
          "internalType": "uint256",
          "name": "reward",
          "type": "uint256"
        },
        {
          "internalType": "uint256",
          "name": "rewardPool",
          "type": "uint256"
        },
        {
          "internalType": "address",
          "name": "tokenAddress",
          "type": "address"
        },
        {
          "internalType": "uint256",
          "name": "quiz",
          "type": "uint256"
        },
        {
          "internalType": "uint256",
          "name": "cutoff",
          "type": "uint256"
        },
        {
          "internalType": "uint256",
          "name": "createdAt",
          "type": "uint256"
        },
        {
          "internalType": "uint256",
          "name": "startAt",
          "type": "uint256"
        },
        {
          "internalType": "uint256",
          "name": "endAt",
          "type": "uint256"
        },
        {
          "internalType": "address",
          "name": "creator",
          "type": "address"
        }
      ],
      "stateMutability": "view",
      "type": "function"
    },
    {
      "inputs": [
        {
          "internalType": "uint256",
          "name": "",
          "type": "uint256"
        }
      ],
      "name": "scores",
      "outputs": [
        {
          "internalType": "uint256",
          "name": "id",
          "type": "uint256"
        },
        {
          "internalType": "uint256",
          "name": "quizId",
          "type": "uint256"
        },
        {
          "internalType": "uint256",
          "name": "score",
          "type": "uint256"
        },
        {
          "internalType": "uint256",
          "name": "total",
          "type": "uint256"
        },
        {
          "internalType": "uint256",
          "name": "date",
          "type": "uint256"
        }
      ],
      "stateMutability": "view",
      "type": "function"
    },
    {
      "inputs": [],
      "name": "startLearning",
      "outputs": [],
      "stateMutability": "nonpayable",
      "type": "function"
    },
    {
      "inputs": [
        {
          "internalType": "uint256",
          "name": "id",
          "type": "uint256"
        },
        {
          "internalType": "string[]",
          "name": "answers",
          "type": "string[]"
        }
      ],
      "name": "submitQuiz",
      "outputs": [],
      "stateMutability": "nonpayable",
      "type": "function"
    },
    {
      "inputs": [
        {
          "internalType": "string",
          "name": "name",
          "type": "string"
        },
        {
          "internalType": "string",
          "name": "image",
          "type": "string"
        },
        {
          "internalType": "string",
          "name": "description",
          "type": "string"
        },
        {
          "internalType": "uint256",
          "name": "reward",
          "type": "uint256"
        },
        {
          "internalType": "uint256",
          "name": "rewardPool",
          "type": "uint256"
        },
        {
          "internalType": "address",
          "name": "tokenAddress",
          "type": "address"
        },
        {
          "internalType": "uint256[]",
          "name": "levels",
          "type": "uint256[]"
        },
        {
          "internalType": "uint256",
          "name": "cutoff",
          "type": "uint256"
        },
        {
          "internalType": "uint256",
          "name": "startAt",
          "type": "uint256"
        },
        {
          "internalType": "uint256",
          "name": "endAt",
          "type": "uint256"
        }
      ],
      "name": "createResource",
      "outputs": [],
      "stateMutability": "nonpayable",
      "type": "function"
    },
    {
      "inputs": [],
      "name": "deleteResource",
      "outputs": [],
      "stateMutability": "nonpayable",
      "type": "function"
    }
  ],
  "bytecode": "0x608060405234801561001057600080fd5b50604051610fee380380610fee83398101604081905261002f91610086565b600080546001600160a01b0383166001600160a01b03199182161790915560018054909116331790556100636103e861006c565b600255506100e3565b600061008082670de0b6b3a76400006100b6565b92915050565b60006020828403121561009857600080fd5b81516001600160a01b03811681146100af57600080fd5b9392505050565b60008160001904831182151516156100de57634e487b7160e01b600052601160045260246000fd5b500290565b610efc806100f26000396000f3fe608060405234801561001057600080fd5b50600436106100a35760003560e01c806384f4e07711610076578063933166e11161005b578063933166e1146101e1578063a867909314610203578063ec422f731461021657600080fd5b806384f4e0771461015e57806388409afa146101b357600080fd5b8063244d6daa146100a85780632ee691a3146100dc57806360449f93146101415780636171ab711461014b575b600080fd5b6100bb6100b63660046109b9565b61021e565b6040516100d39c9b9a99989796959493929190610a22565b60405180910390f35b6101196100ea3660046109b9565b600760205260009081526040902080546001820154600283015460038401546004909401549293919290919085565b604080519586526020860194909452928401919091526060830152608082015260a0016100d3565b61014961042a565b005b610149610159366004610b9b565b61047f565b61019361016c366004610c86565b60046020526000908152604090208054600182015460028301546003909301549192909184565b6040805194855260208501939093529183015260608201526080016100d3565b6101d36101c13660046109b9565b60066020526000908152604090205481565b6040519081526020016100d3565b6101f46101ef366004610c86565b6106a7565b6040516100d393929190610ca8565b610149610211366004610d43565b6107da565b610149610834565b60056020526000908152604090208054819061023990610e33565b80601f016020809104026020016040519081016040528092919081815260200182805461026590610e33565b80156102b25780601f10610287576101008083540402835291602001916102b2565b820191906000526020600020905b81548152906001019060200180831161029557829003601f168201915b5050505050908060010180546102c790610e33565b80601f01602080910402602001604051908101604052809291908181526020018280546102f390610e33565b80156103405780601f1061031557610100808354040283529160200191610340565b820191906000526020600020905b81548152906001019060200180831161032357829003601f168201915b50505050509080600201805461035590610e33565b80601f016020809104026020016040519081016040528092919081815260200182805461038190610e33565b80156103ce5780601f106103a3576101008083540402835291602001916103ce565b820191906000526020600020905b8154815290600101906020018083116103b157829003601f168201915b505050600384015460048501546005860154600687015460088801546009890154600a8a0154600b8b0154600c909b0154999a969995985073ffffffffffffffffffffffffffffffffffffffff9485169750929591949093168c565b33600090815260036020526040812054900361047d5760405162461bcd60e51b815260206004820152600d60248201526c27b7363c90283937bb34b232b960991b60448201526064015b60405180910390fd5b565b3360009081526004602052604081205490036104cd5760405162461bcd60e51b815260206004820152600d60248201526c27b7363c90283937bb34b232b960991b6044820152606401610474565b600082815260066020908152604080832060020180548251818502810185019093528083529192909190849084015b828210156105a857838290600052602060002001805461051b90610e33565b80601f016020809104026020016040519081016040528092919081815260200182805461054790610e33565b80156105945780601f1061056957610100808354040283529160200191610594565b820191906000526020600020905b81548152906001019060200180831161057757829003601f168201915b5050505050815260200190600101906104fc565b5050505090506000806105bb8484610882565b6040805160a081018252600080825260208083018281529383019586526060830194855242608084019081529180526007905290517f6d5257204ebe7d88fd91ae87941cb2dd9d8062b64ae5a2bd2d28ec40b9fbf6df5590517f6d5257204ebe7d88fd91ae87941cb2dd9d8062b64ae5a2bd2d28ec40b9fbf6e05591517f6d5257204ebe7d88fd91ae87941cb2dd9d8062b64ae5a2bd2d28ec40b9fbf6e155517f6d5257204ebe7d88fd91ae87941cb2dd9d8062b64ae5a2bd2d28ec40b9fbf6e255517f6d5257204ebe7d88fd91ae87941cb2dd9d8062b64ae5a2bd2d28ec40b9fbf6e3555050505050565b600360205260009081526040902080546001820180549192916106c990610e33565b80601f01602080910402602001604051908101604052809291908181526020018280546106f590610e33565b80156107425780601f1061071757610100808354040283529160200191610742565b820191906000526020600020905b81548152906001019060200180831161072557829003601f168201915b50505050509080600201805461075790610e33565b80601f016020809104026020016040519081016040528092919081815260200182805461078390610e33565b80156107d05780601f106107a5576101008083540402835291602001916107d0565b820191906000526020600020905b8154815290600101906020018083116107b357829003601f168201915b5050505050905083565b3360009081526003602052604081205490036108285760405162461bcd60e51b815260206004820152600d60248201526c27b7363c90283937bb34b232b960991b6044820152606401610474565b50505050505050505050565b33600090815260046020526040812054900361047d5760405162461bcd60e51b815260206004820152600d60248201526c27b7363c90283937bb34b232b960991b6044820152606401610474565b60008082518451146108d65760405162461bcd60e51b815260206004820152601060248201527f416e7377657273206d757374206d6170000000000000000000000000000000006044820152606401610474565b60008060005b8651811015610954576109218782815181106108fa576108fa610e6d565b602002602001015187838151811061091457610914610e6d565b6020026020010151610960565b15610934578261093081610e83565b9350505b8161093e81610e83565b925050808061094c90610e83565b9150506108dc565b50909590945092505050565b6000816040516020016109739190610eaa565b604051602081830303815290604052805190602001208360405160200161099a9190610eaa565b6040516020818303038152906040528051906020012014905092915050565b6000602082840312156109cb57600080fd5b5035919050565b60005b838110156109ed5781810151838201526020016109d5565b50506000910152565b60008151808452610a0e8160208601602086016109d2565b601f01601f19169290920160200192915050565b61018081526000610a3761018083018f6109f6565b8281036020840152610a49818f6109f6565b90508281036040840152610a5d818e6109f6565b606084019c909c525050608081019890985273ffffffffffffffffffffffffffffffffffffffff96871660a089015260c088019590955260e087019390935261010086019190915261012085015261014084015216610160909101529392505050565b634e487b7160e01b600052604160045260246000fd5b604051601f8201601f1916810167ffffffffffffffff81118282101715610aff57610aff610ac0565b604052919050565b600067ffffffffffffffff821115610b2157610b21610ac0565b5060051b60200190565b600082601f830112610b3c57600080fd5b813567ffffffffffffffff811115610b5657610b56610ac0565b610b69601f8201601f1916602001610ad6565b818152846020838601011115610b7e57600080fd5b816020850160208301376000918101602001919091529392505050565b60008060408385031215610bae57600080fd5b8235915060208084013567ffffffffffffffff80821115610bce57600080fd5b818601915086601f830112610be257600080fd5b8135610bf5610bf082610b07565b610ad6565b81815260059190911b83018401908481019089831115610c1457600080fd5b8585015b83811015610c4c57803585811115610c305760008081fd5b610c3e8c89838a0101610b2b565b845250918601918601610c18565b508096505050505050509250929050565b803573ffffffffffffffffffffffffffffffffffffffff81168114610c8157600080fd5b919050565b600060208284031215610c9857600080fd5b610ca182610c5d565b9392505050565b838152606060208201526000610cc160608301856109f6565b8281036040840152610cd381856109f6565b9695505050505050565b600082601f830112610cee57600080fd5b81356020610cfe610bf083610b07565b82815260059290921b84018101918181019086841115610d1d57600080fd5b8286015b84811015610d385780358352918301918301610d21565b509695505050505050565b6000806000806000806000806000806101408b8d031215610d6357600080fd5b8a3567ffffffffffffffff80821115610d7b57600080fd5b610d878e838f01610b2b565b9b5060208d0135915080821115610d9d57600080fd5b610da98e838f01610b2b565b9a5060408d0135915080821115610dbf57600080fd5b610dcb8e838f01610b2b565b995060608d0135985060808d01359750610de760a08e01610c5d565b965060c08d0135915080821115610dfd57600080fd5b50610e0a8d828e01610cdd565b94505060e08b013592506101008b013591506101208b013590509295989b9194979a5092959850565b600181811c90821680610e4757607f821691505b602082108103610e6757634e487b7160e01b600052602260045260246000fd5b50919050565b634e487b7160e01b600052603260045260246000fd5b600060018201610ea357634e487b7160e01b600052601160045260246000fd5b5060010190565b60008251610ebc8184602087016109d2565b919091019291505056fea26469706673582212203f06a498a877259988edd41ef658fd391a3ada29de5bf78f929aacf9eb534c2864736f6c63430008100033",
  "immutableReferences": {},
  "source": "// SPDX-License-Identifier: GPL-3.0\npragma solidity >=0.7.0 <0.9.0;\n\nimport {IERC20} from \"@openzeppelin/contracts/token/ERC20/IERC20.sol\";\n\ncontract Learn {\n    IERC20 private _fleepToken;\n    address private _deployer;\n\n    uint private CREATOR_FEE;\n\n    mapping(address => Creator) public creators;\n    mapping(address => Learner) public learners;\n    mapping(uint => Resource) public resources;\n    mapping(uint => Quiz) public quizzes;\n    mapping(uint => Score) public scores;\n\n    constructor(address fleepToken) {\n        _fleepToken = IERC20(fleepToken);\n        _deployer = msg.sender;\n\n        CREATOR_FEE = _inWei(1000);\n    }\n\n    struct Creator {\n        uint id;\n        string name;\n        string image;\n    }\n\n    struct Learner {\n        uint id;\n        uint level;\n        uint256 earned;\n        uint256 totalEarned;\n    }\n\n    struct Score {\n        uint id;\n        uint quizId;\n        uint score;\n        uint total;\n        uint date;\n    }\n\n    struct Resource {\n        string title;\n        string image; // ipfs src\n        string description;\n        uint256 reward;\n        uint256 rewardPool;\n        address tokenAddress;\n        uint quiz;\n        uint[] levels;\n        uint cutoff;\n        uint createdAt;\n        uint startAt;\n        uint endAt;\n        address creator;\n    }\n\n    struct Quiz {\n        uint id;\n        string[] questions;\n        string[] answers;\n        uint[] formats; // input or radio or checkbox\n    }\n\n    function startLearning() public onlyLearners {}\n\n    function submitQuiz(uint id, string[] memory answers) public onlyLearners {\n        // check if user has already took quiz\n        // require(scores[])\n\n        string[] memory quizAnswers = quizzes[id].answers;\n        (uint score, uint total) = _markQuiz(answers, quizAnswers);\n        scores[0] = Score(0, 0, score, total, block.timestamp);\n    }\n\n    function createResource(\n        string memory name,\n        string memory image,\n        string memory description,\n        uint256 reward,\n        uint256 rewardPool,\n        address tokenAddress,\n        uint[] memory levels,\n        uint cutoff,\n        uint startAt,\n        uint endAt\n    ) public onlyCreators {}\n\n    function deleteResource() public onlyCreators {}\n\n    // == Internal Functions == //\n\n    function _markQuiz(\n        string[] memory answers,\n        string[] memory quizAnswers\n    ) private pure returns (uint, uint) {\n        require(answers.length == quizAnswers.length, \"Answers must map\");\n\n        uint score;\n        uint total;\n\n        for (uint index = 0; index < answers.length; index++) {\n            if (_compareStrings(answers[index], quizAnswers[index])) {\n                score++;\n            }\n            total++;\n        }\n\n        return (score, total);\n    }\n\n    function _inWei(uint256 amount) private pure returns (uint256) {\n        return amount * 10 ** 18;\n    }\n\n    function _compareStrings(\n        string memory a,\n        string memory b\n    ) private pure returns (bool) {\n        return (keccak256(abi.encodePacked((a))) ==\n            keccak256(abi.encodePacked((b))));\n    }\n\n    modifier onlyGuest() {\n        require(learners[msg.sender].id == 0, \"Only Guest\");\n        require(creators[msg.sender].id == 0, \"Only Guest\");\n        _;\n    }\n\n    modifier onlyLearners() {\n        require(learners[msg.sender].id != 0, \"Only Provider\");\n        _;\n    }\n\n    modifier onlyCreators() {\n        require(creators[msg.sender].id != 0, \"Only Provider\");\n        _;\n    }\n\n    modifier onlyDeployer() {\n        require(msg.sender == _deployer, \"Only Deployer\");\n        _;\n    }\n}\n",
  "sourcePath": "C:\\Users\\Arogundade Ibrahim\\Documents\\web3\\fleep\\contracts\\uncompleted\\Learn.sol",
  "compiler": {
    "name": "solc",
    "version": "0.8.16+commit.07a7930e.Emscripten.clang"
  },
  "schemaVersion": "3.4.10",
  "updatedAt": "2022-12-03T15:39:22.250Z",
  "networkType": "ethereum",
  "devdoc": {
    "kind": "dev",
    "methods": {},
    "version": 1
  },
  "userdoc": {
    "kind": "user",
    "methods": {},
    "version": 1
  }
}